:030000000236675E
:0C366700787FE4F6D8FD7581770236AE5E
:10281100016E0002650000016F7F02700000026B13
:1028210000000269000001760001720001640001EC
:102831007500016800016700016100016D00017709
:1028410001017400017300026200004E034E10008A
:102851000378000000000000000000004E03A220E9
:10286100000378000000000000000000004E039407
:1028710000100378000000000000000000004E037B
:102881008600200378000000000000000000004ED8
:102891000378004003780000000000000000000001
:1028A1004E035C008003780000000000000000007F
:1028B100004E036A010003780000000000000000E0
:0228C100000015
:10000E00438E80E4F589758A67758CFCD28CD2A9F3
:03001E00D2AF223C
:103BD300E4F5957596207580FF7590FF75A0FF75C8
:083BE300B0FF12000E023C17B6
:103BEB007E007F6A7D007B017A0179351219429044
:063BFB0001317401F0220B
:102C3A008B5E8A5F8960900002121597FFAEF0E5FD
:102C4A00F06003022E2EEF24F6604C24F670030285
:102C5A002D0824F67003022D7E241E6003022E2EF8
:102C6A0090000CE4F5F01215EE12156CFF90012C91
:102C7A00E055F0FEA3E05F4E6003022E2EAB5EAA83
:102C8A005FA96090000275F00A1215EE9000041216
:102C9A00185E0000000022AB5EAA5FA96012156CE4
:102CAA00FF90012CE055F0FEA3E05F4E70379000D4
:102CBA00041217B3EF2401FFE43EFEE43DFDE43CB9
:102CCA00FC9000041217FD9000041217B3E47B1461
:102CDA00FAF9F8C312175C4003022E2EAB5EAA5F04
:102CEA00A960022E24AB5EAA5FA9609000041218A4
:102CFA005E00000000900002E4F5F0022E2BAB5EAD
:102D0A00AA5FA9609000041217B3EF2401FFE43E02
:102D1A00FEE43DFDE43CFC9000041217FD12156C24
:102D2A00FF90012CE055F0FEA3E05F4E601AAB5E07
:102D3A00AA5FA960900002E475F01E1215EE9000D9
:102D4A000812185E00000000AB5EAA5FA96090003E
:102D5A00041217B3E47B907A01F9F8C312175C40A6
:102D6A0003022E2EAB5EAA5FA96090000CE475F0F8
:102D7A0001022E2BAB5EAA5FA9609000041217B362
:102D8A00EF2401FFE43EFEE43DFDE43CFC90000438
:102D9A001217FD12156CFF90012CE055F0FEA3E00E
:102DAA005F4E6066AB5EAA5FA9609000081217B317
:102DBA00EF2401FFE43EFEE43DFDE43CFC90000804
:102DCA001217FD9000081217B3E47B14FAF9F8C33E
:102DDA0012175C504FAB5EAA5FA96090000C1215E7
:102DEA0097640145F090000C700575F0038004E4C7
:102DFA0075F0021215EE90000412185E0000000031
:102E0A00900002740375F0788017AB5EAA5FA96020
:102E1A0090000812185E00000000900002E475F0AD
:052E2A00141215EE2258
:103B03007B017A037994122C3A7B017A037986122A
:103B13002C3A7B017A03795C122C3A7B017A037984
:103B23006A122C3A7B017A03794E122C3A7B017A82
:063B33000379A2022C3A06
:103B9100E4900396F0A3F0900388F0A3F090035E05
:103BA100F0A3F090036CF0A3F0900350F0A3F09019
:063BB10003A4F0A3F022C2
:102E2F0090035AE0FEA3E0FF4E60469001A374EFBB
:102E3F00F0A374FFF0EF64014E701290013004F0B4
:102E4F00E5634562702BF5627563018021EF6402C3
:102E5F004E9001307004740280027403F0E490030A
:102E6F005AF0A3F0900350F0A3F0F562F563757478
:102E7F00019003AEE0FEA3E0FF4E60469001A37405
:102E8F00DFF0A374FFF0EF64014E70129001300475
:102E9F00F0E5634562702BF5627563018021EF6485
:102EAF00024E9001307004740280027403F0E490BB
:102EBF0003AEF0A3F09003A4F0A3F0F562F56375F1
:102ECF0074019003A0E0FEA3E0FF4E60469001A3C3
:102EDF0074FFF0A374EFF0EF64014E7012900130A5
:102EEF0004F0E5634562702BF5627563018021EF95
:102EFF0064024E9001307004740280027403F0E497
:102F0F009003A0F0A3F0900396F0A3F0F562F563A1
:102F1F00757401900392E0FEA3E0FF4E60469001AE
:102F2F00A374FFF0A374DFF0EF64014E70129001F1
:102F3F003004F0E5634562702BF562756301802103
:102F4F00EF64024E9001307004740280027403F03B
:102F5F00E4900392F0A3F0900388F0A3F0F562F5EC
:102F6F0063757401900368E0FEA3E0FF4E60469026
:102F7F0001A374FFF0A3747FF0EF64014E70129001
:102F8F00013004F0E5634562702BF56275630180D3
:102F9F0021EF64024E9001307004740280027403BA
:102FAF00F0E4900368F0A3F090035EF0A3F0F562F5
:102FBF00F563757401900376E0FEA3E0FF4E604564
:102FCF009001A374FEF0A304F0EF64014E70129011
:102FDF00013004F0E5634562702BF5627563018083
:102FEF0021EF64024E90013070047402800274036A
:102FFF00F0E4900376F0A3F090036CF0A3F0F56289
:06300F00F5637574012257
:03000B00023B397C
:103B3900C0E0C0F0C083C082C0D075D008900172C7
:103B4900E004F07006900171E004F0123B65123B4D
:0C3B590003D0D0D082D083D0F0D0E03276
:10376200E4F56E123BD3123BEB1235AE900171E0E1
:10377200F570A3E0F571E573702AC3900172E095CC
:1037820071FF900171E09570FED3EF94F4EE940115
:103792004012E0FEA3E08E70F5718E6BF56C123B69
:1037A20091757301E573B401CD12002690018BE08F
:1037B200B4020C121DEA90018B7403F0E4A3F01220
:0737C2001A13122E2F80AF35
:0D28C3004A03B000FF00FF00FF00FF00FF10
:0C388B00C290C2907F007E007D007C0097
:083897008F2C8E2B8D2A8C2949
:10389F00E4F530F52FF52EF52DAF2CAE2BAD2AAC70
:1038AF0029AB30AA2FA92EA82DC3121746501C00E2
:1038BF00E4FAF9F8E5302401F530EA352FF52FE970
:0B38CF00352EF52EE8352DF52D80CEAE
:0138DA0022CB
:103C2D00D290D290D291D29112388FC291C291225C
:103C010012388BC291C29112388FD290D290123851
:063C11008FD291D2912236
:0F3C3D0012388BD290D29012388FC290C2902240
:043AC8008E268F2790
:103ACC00E4F52812388F12388BE52730E006D291B6
:103ADC00D2918004C291C29112388FE526C313F59E
:103AEC0026E52713F527D290D29012388F0528E5BA
:063AFC0028C3940840CD30
:013B020022A0
:1036F300123C62123C2D7F407E00123AC812000336
:10370300123C3D123C62123C01123C2D7FC07E00F4
:10371300123AC8120003123C3D123C62E4F525E55F
:103723002525E024B0F582E43403F583E0FEA3E02D
:10373300FF123AC8120003123C3D123C620525E514
:1037430025C3940540D9123C01123C2D7F8C7E0089
:0F375300123AC8120003123C3D123C62023C01C4
:05000300C294D2952219
:053C6200D294D295226E
:102A3D0030303030300000312D00322D00332D007C
:102A4D00342D00352D00362D00372D00382D003951
:102A5D002D0031300031310031320031330031344D
:102A6D000031350031360031370031380031390051
:102A7D003230003231003232003233003234003223
:102A8D0035003236003237003238003239003330FB
:102A9D000020202041310020202041320020202024
:102AAD0041330020202041340020202041350020DA
:102ABD0020204136002020204137002020204138A1
:102ACD0000202020413900202041313000363031A6
:102ADD0030350020462D2D300020462D2D31002083
:102AED00462D2D320020462D2D330020462D2D3420
:102AFD000020462D2D3500502D2D00452D2D00513A
:102B0D00322D2D2D00502D2D203000502D2D20310A
:102B1D0000502D2D2032002020203131002020208A
:102B2D00313200202020313300202020313400208C
:102B3D002020313500202020313600202020313753
:102B4D000020202031380020202031390020202085
:102B5D00323000202020323100202020323200205F
:102B6D0020457272000001003CFF2A3D00001E004E
:102B7D00000101FD00000000000000000000000049
:102B8D00000000FF2A4340000000010184040500FD
:102B9D000001869F00000000000000000000000002
:102BAD000000000000000000000000000000000018
:102BBD000000000000000000000000000000000008
:102BCD000000000000000000000000000000FEB04A
:102BDD00EDF9B3DBDFF0FFFB00004080003F065B4B
:102BED004F666D7D077F6F771F4E3D4F47FB771FFC
:102BFD004E3D7971FB37060E07386A761D736705F2
:102C0D005B313E1C5C313BED000000620800771F1C
:102C1D004E3D4F47FB370638070E6A151D6773503B
:0D2C2D005B783E1C5C313BED0000000000B8
:1028D000410134004101FE004101E4004101FD1EBF
:1028E00041012E0A41012F1460780250000003E7D5
:1028F000000003E7000003E7000000000000000004
:1029000000000000000000000000000000000000C7
:1029100000000000000000000000000000000000B7
:1029200000000000000000000000000000000000A7
:102930000000000000000000000000000000000097
:102940000000000000000000000000000000000087
:102950000000000000000000000000000000000077
:1029600000000000603C01A8006400640001000059
:102970000000000000000000000000000000000057
:102980000000000000000000000000000000000047
:102990000000000000000000000000000000000037
:1029A000000000004801E50402FF2B90FF2B72425B
:1029B00001A3000041013000410131014100380014
:1029C0004100000041000100420006000042000CEE
:1029D000000042000E000042001000004100120002
:1029E00042001300004200150000420017000042A0
:1029F0000019000042001B000042001D00004200C0
:102A00001F00004200210000420023000042002776
:102A10000000420029000141002D0042002E00006C
:0E2A200041003000420031000042003300004F
:0437C9007BFFE4FDA1
:1037CD008B258A2689278D28AB250527E527AA264F
:1037DD007002052614F912149DFF3395E0FE74BA9C
:1037ED002FF582742B3EF583E493FD3395E0FCAF0A
:1037FD00280528EF3395E0FEEF25E0FFEE33FE744C
:10380D00B02FF58274033EF583ECF0A3EDF0C3E524
:10381D0028648094865009AA26A92712149D70A8A1
:01382D002278
:0C20D90090012EE0FF900132E0C39FFF59
:1020E500E4F528EF1218EF21680021740121800220
:1020F500218C0321980421A40521B00621BC0721C8
:10210500C80821D40921E00A21EC0B21F80C22048E
:102115000D22100E221C0F222810223411224012EB
:10212500224C13225814226415227016227C172281
:10213500881822941922A01A22AC1B22B81C22C38B
:102145001D22CE5022D95122E45222EF5322FA54B5
:10215500230555231056231B572326582331590091
:1021650000233A7525FF75262A75274402233A75FB
:1021750025FF75262A75274702233A7525FF7526FB
:102185002A75274A02233A7525FF75262A75274D94
:1021950002233A7525FF75262A75275002233A75BD
:1021A50025FF75262A75275302233A7525FF7526BF
:1021B5002A75275602233A7525FF75262A7527594C
:1021C50002233A7525FF75262A75275C02233A7581
:1021D50025FF75262A75275F02233A7525FF752683
:1021E5002A75276202233A7525FF75262A75276504
:1021F50002233A7525FF75262A75276802233A7545
:1022050025FF75262A75276B02233A7525FF752646
:102215002A75276E02233A7525FF75262A752771BB
:1022250002233A7525FF75262A75277402233A7508
:1022350025FF75262A75277702233A7525FF75260A
:102245002A75277A02233A7525FF75262A75277D73
:1022550002233A7525FF75262A75278002233A75CC
:1022650025FF75262A75278302233A7525FF7526CE
:102275002A75278602233A7525FF75262A7527892B
:1022850002233A7525FF75262A75278C02233A7590
:1022950025FF75262A75278F02233A7525FF752692
:1022A5002A75279202233A7525FF75262A752795E3
:1022B50002233A7525FF75262A7527988077752597
:1022C500FF75262A75279B806C7525FF75262A754F
:1022D500279E80617525FF75262A7527A48056756A
:1022E50025FF75262A7527AA804B7525FF75262A91
:1022F5007527B080407525FF75262A7527B6803568
:102305007525FF75262A7527BC802A7525FF752634
:102315002A7527C2801F7525FF75262A7527C8804F
:10232500147525FF75262A7527CE80097525FF7535
:10233500262A7527D4AB250527E527AA2670020589
:102345002614F912149DFF3395E0FE74BA2FF58219
:10235500742B3EF583E493FD3395E0FCAF28052807
:10236500EF3395E0FEEF25E0FFEE33FE74B02FF579
:102375008274033EF583ECF0A3EDF0C3E528648099
:0D23850094865009AA26A92712149D70A85D
:012392002228
:043A0100AC07A90560
:103A0500AD04E9FF3395E0FEECFB3395E0FAEB2FCF
:103A1500FFEA3EFEEDFB3395E0FAC3EB9FEE6480D3
:103A2500F8EA6480985018EB25E0FFEA33FE74B09D
:0F3A35002FF58274033EF583E4F0A3F00D80C3F8
:013A4400225F
:0A34DA008F227B017A0179F3E4FDF3
:0834E4008B258A2689278D281B
:1034EC00E4F529AB25AA26A9279000011214B6B43D
:1034FC002E05E529B40148AB250527E527AA26703A
:10350C0002052614F912149DFF3395E0FE74BA2FB0
:10351C00F582742B3EF583E493FD3395E0FCAF28E4
:10352C000528EF3395E0FEEF25E0FFEE33FE74B097
:10353C002FF58274033EF583ECF0A3EDF08056ABCF
:10354C00250527E527AA267002052614F912149DD5
:10355C00FF3395E0FE74BA2FF582742B3EF583E4AD
:10356C00934480FD3395E0FCAF280528EF3395E0BC
:10357C00FEEF25E0FFEE33FE74B02FF58274033EB0
:10358C00F583ECF0A3EDF075290174012527F527DF
:10359C00E43526F526C3E52864809486500302346E
:0135AC00EF2F
:0135AD0022FB
:103A8900E4FDEDFF3395E0FEEF25E0FFEE33FE7434
:103A9900352FF974013EFA7B01EDFF3395E0FEEF16
:103AA9007803C333CE33CED8F9243CF58274003E73
:0E3AB900F583EBF0A3EAF0A3E9F00DBD1EC407
:013AC70022DC
:022393008F2198
:10239500EF3395E0FE902B7C75F00FEF121893EE5E
:1023A50075F00FA42583F583E493F526740193F561
:1023B500270527E527AE267002052614FF123BB731
:1023C5008F25AF21EF3395E0FE902B7E75F00FEF53
:1023D500121893EE75F00FA42583F583E493FB742F
:1023E5000193FA740293F9741E1214E3E4F528F5C7
:1023F50029E521FD3395E0FC902B7B75F00FED125F
:102405001893EC75F00FA42583F583E493FF3395BA
:10241500E0FEC3E5299FEE6480F8E52864809840D6
:1024250003022529E529AE287802C333CE33CED859
:10243500F92452F58274023EF583E0FEA3E0FFC065
:1024450007C006902B7375F00FED121893EC75F01D
:102455000FA42583F583E493FB740193FA74029327
:10246500F9E529AE287803C333CE33CED8F929F957
:10247500EA3EFA900003D0E0D0F01215EEE529AE61
:10248500287802C333CE33CED8F92450F5827402AE
:102495003EF583E0FCA3E0FDAF21EF3395E0FE9030
:1024A5002B7375F00FEF121893EE75F00FA42583BB
:1024B500F583E493FB740193FA740293F9E529AE6D
:1024C500287803C333CE33CED8F929F9EA3EFA90FA
:1024D5000005EC8DF01215EEAF21EF3395E0FE907F
:1024E5002B7375F00FEF121893EE75F00FA425837B
:1024F500F583E493FB740193FA740293F9E529AE2D
:10250500287803C333CE33CED8F929F9EA3EFA90B9
:102515000007E41214F50529E52960030223F605F1
:10252500280223F6E521700975220175230175241A
:1025350035AF21EF3395E0FE902B7975F00FEF1253
:102545001893EE75F00FA42583F583E493F52674AF
:102555000193F527E4F528F529AF21EF3395E0FE42
:10256500902B7B75F00FEF121893EE75F00FA425E5
:1025750083F583E493FF3395E0FEC3E5299FEE647D
:1025850080F8E52864809850530527E527AE267026
:1025950002052614FF123BB7AB22AA23A924EF128A
:1025A50014E374012524F524E43523F5230527E5F3
:1025B50027AE267002052614FF123BB7AB22AA23CD
:1025C500A924EF1214E374012524F524E43523F539
:0C25D500230529E5297082052802255EF7
:0125E10022D7
:1035AE00C2A57A2A79DA1237C91236F39001E7E00A
:1035BE00F9A3E0FAA3E09002C8C9F0A3EAF0A3E9E8
:1035CE00F0E4FF9002C8E0FBA3E0FAA3E0F9EFFD00
:1035DE003395E08D82F58374151218821218BFEAA6
:1035EE00494B60030F80DC9001EAE0FBA3E0FAA3F5
:1035FE00E0F9900035EBF0A3EAF0A3E9F0900001BA
:10360E001218BF900039EBF0A3EAF0A3E9F0E4FF43
:10361E00122393123A89E49001EDF0900132F0F505
:10362E00177518019001A6F0900175F0900173F0D6
:10363E00A3F0900176F090017C12182D000000008E
:10364E00123015E4900171F0A3F0900178F0A3F020
:08365E0074FF90012CF0A3F0B1
:013666002241
:0431D1008E298F2A8A
:1031D500756EAA902B7975F00FEF121893EE75F0B6
:1031E5000FA42583F583E493FE740193FF1239BC84
:1031F500E4F56EE52A700DE5297009752B01752C2E
:1032050001752D35902B7975F00FE52A121893E588
:103215002975F00FA42583F583E493F52F740193A5
:10322500F530E4F52E902B7B75F00FE52A121893F7
:10323500E52975F00FA42583F583E493FF3395E025
:10324500FEC3E52E9FEE6480F87480984003023239
:10325500E1756EAAAB2BAA2CA92D12149DFDAF30DA
:10326500AE2F1238DBAF30AE2F123BB7AE07AB2B0C
:10327500AA2CA92D12149D6E6007900174E04420BC
:10328500F07401252DF52DE4352CF52C0530E530B0
:103295007002052FAB2BAA2CA92D12149DFDAF3062
:1032A500AE2F1238DBAF30AE2F123BB7AE07AB2BCC
:1032B500AA2CA92D12149D6E6007900174E044207C
:1032C500F07401252DF52DE4352CF52C0530E53070
:0F32D5007002052FE4F56E052E02322A75640192
:0132E40022C7
:10397400EF14601814601D14602214602714602C66
:10398400240570337BFF7A2A79E080267BFF7A2A2C
:1039940079E6801E7BFF7A2A79EC80167BFF7A2AEF
:1039A40079F2800E7BFF7A2A79F880067BFF7A2AE7
:0839B40079FEE4FD1237CD227B
:10002600A2A4E4335401FF90012CE0FCA3E054FEAB
:10003600FDECFEED4FFF90012CEEF0A3EFF0A2A336
:10004600E433540125E0FFE433FE90012CE0FCA3E9
:10005600E054FDFDEC4EFEED4FFF90012CEEF0A3BB
:10006600EFF0A2A2E4FE3354017802C333CE33CEBE
:10007600D8F9FF90012CE0FCA3E054FBFDEC4EFE0A
:10008600ED4FFF90012CEEF0A3EFF0A2A1E4FE33BA
:1000960054017803C333CE33CED8F9FF90012CE058
:1000A600FCA3E054F7FDEC4EFEED4FFF90012CEE65
:1000B600F0A3EFF0A2A0E4335401C4F8540FC868CB
:1000C600FFE4C454F048FE90012CE0FCA3E054EF9A
:1000D600FDEC4EFEED4FFF90012CEEF0A3EFF0A2EB
:1000E600B5E4FE3354017805C333CE33CED8F9FFD9
:1000F60090012CE0FCA3E054DFFDEC4EFEED4FFF3B
:1001060090012CEEF0A3EFF0A2B3E4FE3354017895
:1001160006C333CE33CED8F9FF90012CE0FCA3E022
:1001260054BFFDEC4EFEED4FFF90012CEEF0A3EF19
:10013600F0A2B2E4FE3354017807C333CE33CED8EF
:10014600F9FF90012CE0FCA3E0547FFDEC4EFEEDA0
:100156004FFF90012CEEF0A3EFF0A2A6E43354017A
:10016600FE90012CE054FEFCA3E0FDEC4EFFED906A
:10017600012CCFF0A3EFF0A2A7E433540125E0FE53
:1001860090012CE054FDFCA3E0FDEC4EFFED900148
:100196002CCFF0A3EFF0A292E433540125E025E042
:1001A600FE90012CE054FBFCA3E0FDEC4EFFED902D
:1001B600012CCFF0A3EFF0A293E433540133333391
:1001C60054F8FE90012CE054F7FCA3E0FDEC4EFF42
:1001D600ED90012CCFF0A3EFF0A296E4335401C4C6
:1001E60054F0FE90012CE054EFFCA3E0FDEC4EFF32
:1001F600ED90012CCFF0A3EFF0A297E4335401C4A5
:100206003354E0FE90012CE054DFFCA3E0FDEC4EFD
:10021600FFED90012CCFF0A3EFF0A2CCE433540114
:10022600C4333354C0FE90012CE054BFFCA3E0FD60
:10023600EC4EFFED90012CCFF0A3EFF0A2CDE4330E
:100246005401C43333335480FE90012CE0547FFCB8
:10025600A3E0FDEC4EFFED90012CCFF0A3EFF09064
:10026600012CE0FFA3E090000CCFF0A3EFF090008C
:1002760010E0FEA3E0FF90000CE0FCA3E0FD6F7031
:1002860002EC6E6079900171E0FEA3E0FF90001D24
:10029600EEF0A3EFF0900019E07002A3E070119069
:1002A6000025EEF0A3EFF0900000E04401F0800797
:1002B600900000E054FEF0900015E0FEA3E0FF90F1
:1002C6000171E0FAA3E0FBC39FFFEA9EFED3EF9421
:1002D60032EE94004025900010ECF0A3EDF0900073
:1002E60013EAF0A3EBF0E4900017F0A3F0A3F0A359
:1002F600F0900029F0A304F00203FF0203F8900037
:1003060025E0FEA3E0FF900171E0FCA3E0FDC39FA2
:10031600FFEC9EFED3EF9432EE940040079000006F
:10032600E054FEF090001DE0FEA3E0FFC3ED9FFF4A
:10033600EC9EFED3EF9430EE9475402E900171E062
:10034600FFA3E090001DCFF0A3EFF0900023E07034
:1003560002A3E07015E51864114517600D751700C6
:10036600751801E4900021F0A3F0900013E0FEA3BD
:10037600E0FF900171E0FCA3E0FDC39FFFEC9EFE51
:10038600D3EF9432EE94004069900015ECF0A3EDA3
:10039600F090000CE0FEA3E0F47002EEF4605A90D8
:1003A6000019E07002A3E07050900018E004F070AD
:1003B60006900017E004F0D3900018E094649000D3
:1003C60017E0648094804031900019E4F0A304F0B3
:1003D600900029E4F0A304F0E4900027F0A3F09045
:1003E600001BECF0A3EDF0900017E4F0A3740AF004
:1003F6008007E490000CF0A3F0900019E07002A3CF
:10040600E0605B90001BE0FEA3E0FF900171E0FC62
:10041600A3E0FDC39FFFEC9EFED3EF9464EE940031
:10042600403C900028E004F07006900027E004F0BD
:10043600900027E0FEA3E0FFD39432EE6480948020
:100446004007A3E4F0A3740AF0EF4E600890001B87
:10045600ECF0A3EDF090000EE4F0A374FFF0900032
:100466000CE0FEA3E0FF4E6021A3E0FCA3E0FDEF5D
:100476006D7002EE6C600C90000CA3A3EEF0A3EF7F
:10048600F08007E490000CF0A3F090000CE0FEA3CF
:10049600E0FFF47003EE64FD600FEFF47003EE64AA
:1004A600FB6006BEF714BFFF117574019001A3EE41
:1004B600F0A3EFF09001307402F0900033E0FEA359
:1004C600E0FFEE7073EF24F6602524F6604D2414E9
:1004D6007066209463900033E4F0A3740AF09001F0
:1004E60071E0FFA3E0900031CFF0A3EFF080492048
:1004F600943F900031E0FEA3E0FFC3900172E09FBD
:10050600FF900171E09EFED3EF9464EE94004028C4
:10051600900033E4F0A37414F0801D30941A7574BF
:10052600019001A374FFF0A374EEF0900130740201
:10053600F0E4900033F0A3F0E517600302135AE5E8
:100546001824FE70030209B5147003020CD214704D
:1005560003020FA624FB700302132124F970030281
:100566000BB1147003020AFE2410600302135A90A2
:10057600000CE0FEA3E08EF012191506FC7FFF06C4
:10058600A5BFFF07B6FFBF0751FFF705F1FFFB0643
:1005960080FFFD05A1FFFE000007CDE4900030F0CE
:1005A600900021E07002A3E070269001EE7430F016
:1005B600A3F0A3F0A3F0A3F09001A57404F07B01CF
:1005C6007A0179EEE4FD1237CD751700751802220F
:1005D600900038E0B4010AE4F090002DF09001FE9E
:1005E600F0E4900021F0A3F00207CDE4900030F093
:1005F600900019E07002A3E0606E900021E07002A6
:10060600A3E07064FFFEFDFC900184E0F8A3E0F92E
:10061600A3E0FAA3E0FBC312175C604C90018412BE
:10062600182D0000000090018012182D0000000017
:1006360090017C12182D00000000756EAA7F007EC6
:10064600441239BC7F007E461239BC7F007E4812B8
:1006560039BC7F007E4A1239BC7F007E4C1239BC01
:10066600E4F56E756D01F577900131E06401600384
:100676000207CD756701F00207CDE4900030F090D7
:100686000171E0FFA3E090001FCFF0A3EFF090010F
:1006960031E060030207CD75670104F00207CDE47F
:1006A600900030F0900021E07002A3E060030207A2
:1006B600CD900035E0FBA3E0FAA3E0F9900001122B
:1006C60018BF900039EBF0A3EAF0A3E9F0E490023A
:1006D60045F0A3F0A304F0E4900132F09000010489
:1006E600F090012EE09002CBF0D36480948050030A
:1006F60002149C020A89E4900030F0900021E07018
:1007060002A3E060030207CD900035E0FBA3E0FA08
:10071600A3E0F99000011218BF900039EBF0A3EAAC
:10072600F0A3E9F0E4900245F0A304F0A3F09001F1
:1007360032F0900001F090012EE09002CBF0D364ED
:10074600809480500302149C020A89900038E0705D
:1007560037900019E07002A3E06010900030E0C30B
:10076600648094A8500AE004F08005E4900030F01C
:10077600900171E0FFA3E090001FCFF0A3EFF0A37C
:10078600E4F0A37402F0803F7574019001A374FF36
:10079600F0A374BFF09001307402F0E4900021F0F1
:1007A600A3F0900038F090002DF09001FEF0801735
:1007B600900038E07011756101900021F0A3740477
:1007C600F09000387401F0900021E07002A3E06020
:1007D600030209049001E6E0FF900004E4F0A3EFB1
:1007E600F0900132E0F521900173E07002A3E07011
:1007F60066900175E07020A3E0B401119001FE74CB
:1008060001F090002DE0700C04F002088E900000BC
:10081600E054FDF002088E7A2B79041237C9900154
:1008260075E0FB547FFF3395E0FEFDFC9000081257
:100836001821EB30E70890002DE0700204F0122535
:10084600F08F227B017A0179F67D031234E4900160
:10085600FE7401F00208CF900173E0FEA3E0FF648E
:100866000B4E6006EF640C4E7034900176E0B401D6
:10087600109001FE7401F090002DE0700B04F080E2
:1008860007900000E054FDF0900184E0FCA3E0FD39
:10089600A3E0FEA3E0FF1225EA1234DA802B7BFFE9
:1008A6007A2B7908E4FD1237CD90002DE070020412
:1008B600F09001731225E28F227B017A0179F67D91
:1008C600031234E4E49001FEF09001A6E070030206
:1008D60009999001E5E0FF9001EDE004FEF0D3EF09
:1008E6006480F8EE6480985003020999E4F0900160
:1008F60032E004F0E4900004F0A3F00209999000BD
:1009060021E07004A3E06402703390017A1225E2BC
:100916001234DA90001FE0FEA3E0FFC3900172E0FC
:100926009FFF900171E09EFED3EF94D0EE940740B6
:1009360062900021E4F0A37403F00209999000216B
:10094600E07004A3E064037026900178E0FEA3E063
:10095600FFE4FCFD900008121821900008A3A3E014
:10096600FEA3E0FFE4FDFC1225EA1234DA802490AF
:100976000021E07004A3E0640470187BFF7A2B79F1
:100986000CFD1237CD90002DE0700204F09001FEB0
:100996007401F0900030E064286003021360F0F503
:1009A60017751810900021F0A37404F0020C5B90E8
:1009B600000CE0FEA3E08EF01219150A26FFF709D7
:1009C600E0FFFB09F6FFFD09D5FFFE00000ADEE4A5
:1009D600900132F0F517751801229001A5E014F088
:1009E600C3648094804003020ADE7404F0020ADEC7
:1009F6009001A5E0FF3395E0FE74EE2FF5827401B9
:100A06003EF583E004F0D3648094B95003020ADE15
:100A160074EE2FF58274013EF5837430F0020ADE1F
:100A26009001EEE0FF64317061A3E06430705BA377
:100A3600E064317055A3E06430704FA3E064317018
:100A460049900035E0FBA3E0FAA3E0F9900001121B
:100A560018BF900039EBF0A3EAF0A3E9F090024545
:100A66007401F0E4A3F0A304F090012EE0900132AB
:100A7600F09001FDE09002CBF0D3648094805003A7
:100A860002149C75170075180322EF643160030287
:100A9600149C9001EFE06431600302149CA3E064AF
:100AA60031600302149CA3E06431600302149CA32A
:100AB600E06431600302149CF5177518119000214B
:100AC600F0A3F07BFF7A2B7912FD1237CDE490016B
:100AD60073F0A3F075680122900006E07002A3E0AF
:100AE600600D900019E07002A3E070030212877B8C
:100AF600017A0179EE02135390000CE0FEA3E08E1A
:100B0600F01219150B12FFFE00000B43E4900021B2
:100B1600F0A3F09001A57404F0E49001EDF09002CA
:100B2600457478F09002477401F0E4900132F0F5D4
:100B36001775180190002DF09001FEF022900173B8
:100B4600E0FEA3E0FF640B4E6006EF640C4E7044BB
:100B5600EF640B4E70147BFF7A2B7918FD1237CD9C
:100B660090002DE0702504F08021900173E0700460
:100B7600A3E0640C60030213607BFF7A2B791EFDF1
:100B86001237CD90002DE0700204F09001FE740142
:100B9600F00213607BFF7A2B7912E4FD1237CDE465
:100BA60090002DF09001FEF002136090000CE0FE24
:100BB600A3E08EF01219150CC97FFF0CC0BFFF0C05
:100BC60078DFFF0C81EFFF0C6FF7FF0C66FBFF0C65
:100BD600AEFDFF0CA5FEFF0C9CFF7F0CB7FFBF0C04
:100BE6008AFFDF0C93FFEF0C4AFFFB0C25FFFD0B82
:100BF600FDFFFE00001360E4900021F0A3F09001D9
:100C0600A57404F0E49001EDF09002457478F0903C
:100C160002477401F0E4900132F0F51702135D907B
:100C260001E4E0C3648094815006E004F075750128
:100C36009001E4E0FF1239749001E4E0D3648094FB
:100C4600800213609001E4E0D3648094804006E063
:100C560014F07575019001E4E0FF12397402136017
:100C66007BFF7A2B79240213537BFF7A2B792A0296
:100C760013537BFF7A2B79300213537BFF7A2B7940
:100C8600360213537BFF7A2B793C0213537BFF7A90
:100C96002B79420213537BFF7A2B79480213537B3D
:100CA600FF7A2B794E0213537BFF7A2B795402136A
:100CB600537BFF7A2B795A0213537BFF7A2B796089
:100CC6000213537BFF7A2B796602135390000CE0D4
:100CD600FEA3E08EF01219150DA7FFF70D1DFFFB01
:100CE6000D56FFFD0CF2FFFE00000DADE490002155
:100CF600F0A3F09001A57404F0E49001EDF09002E9
:100D0600457478F09002477401F0E4900132F0F5F2
:100D160017751801020DAD900245E0FD70139001A4
:100D260032E0FE14F0EE70099002CBE0149001322E
:100D3600F0EDB4011990012EE0FF900132E0FE14AF
:100D4600F0EEB507099002CBE014900132F0804333
:100D5600900245E0FF70199002CBE0FE900132E070
:100D660004FDF0C3EE6480F8ED6480984002E4F080
:100D7600EFB4011F9002CBE0FF900132E004FEF0D9
:100D8600C3EF6480F8EE648098400890012EE090EE
:100D96000132F0900132E0900246F0A37401F08037
:100DA600069000017405F0900245E070089000017D
:100DB600E0600204F0900001E064056003020EF6B4
:100DC600F0900132E0F5219001A57404F090013312
:100DD6007402F090024DE0FBA3E0FAA3E0F91218CA
:100DE6009F12156CFFAEF0EE3395E0FDFC90019F6F
:100DF600121821751700751804AF21EF3395E0FE20
:100E0600EF7803C333CE33CED8F9FF900039E0FB39
:100E1600A3E0FAA3E02FF9EA3EFA90024DEBF0A325
:100E2600EAF0A3E9F09001337402F012189F7529D5
:100E360003E4F52A752B01752C01752DF3F52E7536
:100E46002F027D0212260C8F229001A77403F090C8
:100E560001EE7430F0A3F0740314606A1460421457
:100E66006003020EEAAF22EF3395E0FE74F32FF52E
:100E76008274013EF583E0FF9001F0F0BF20037419
:100E860030F0AF22EF3395E0FE74F42FF582740153
:100E96003EF583E0FD9001F1F0BD20037430F08053
:100EA600349001F07420F0AF22EF3395E0FE74F435
:100EB6002FF58274013EF583E0FD9001F1F0BD202F
:100EC600037430F0800F9001F07420F0A3F0AF228D
:100ED600EF3395E0FE74F52FF58274013EF583E05D
:100EE6009001F2F0E490002BF0A3F0F517751804CA
:100EF600D3900005E09400900004E09400400FA316
:100F0600E024FFF0900004E034FFF002136090014B
:100F1600E6E0FF900004E4F0A3EFF0900132E0FF7A
:100F26003395E0FEEF7803C333CE33CED8F9FF9086
:100F36000039E0FBA3E0FAA3E02FF9EA3EFA9002BB
:100F46004DEBF0A3EAF0A3E9F012189F12156CFF1F
:100F5600AEF0EE3395E0FDFC90019F121821900251
:100F660045E07008900132E0FF1220E5900245E06E
:100F7600B401031220D9752903E4F52A752B0175EE
:100F86002C01752DF3F52E752F027A01799F122605
:100F9600088F2274F32FF9E43401FA7B0102131A45
:100FA60090000CE0FEA3E08EF01219151128FFF751
:100FB6000FD2FFFB1082FFFD0FC6FFFE000012736B
:100FC600900245E0600302126D021244900132E085
:100FD600FF3395E0FEEF7803C333CE33CED8F9FF67
:100FE600900039E0FBA3E0FAA3E02FF9EA3EFA907D
:100FF60000071214B630E00302127390019FE0FC62
:10100600A3E0FDA3E0FEA3E0FFC006C00790002911
:10101600E0FEA3E0FBAA06EA3395E0F9F8D007D094
:1010260006C3EF9BFFEE9AFEED99FDEC98FC90014E
:101036009F12182190024DE0FBA3E0FAA3E0F9907D
:101046000005121597FFAEF0EE3395E0FDFC90011A
:101056009FE0F8A3E0F9A3E0FAA3E0FBC31217466A
:10106600400302127390024DE0FBA3E0FAA3E0F9FD
:10107600900005121597FFAEF0021119900132E0AB
:10108600FF3395E0FEEF7803C333CE33CED8F9FFB6
:10109600900039E0FBA3E0FAA3E02FF9EA3EFA90CC
:1010A60000071214B630E00302127390019FE0F8B5
:1010B600A3E0F9A3E0FAA3E0FB900029E0FEA3E099
:1010C600FFEE3395E0FDFCEB2FFFEA3EFEE93DFD2A
:1010D600E83CFC90019F12182190024DE0FBA3E032
:1010E600FAA3E0F9900003121597F52485F023AED4
:1010F60023FFEE3395E0FDFC90019FE0F8A3E0F9B5
:10110600A3E0FAA3E0FBD31217465003021273AE14
:1011160023AF24EE3395E0FDFC90019F12182102C7
:101126001273900019E07002A3E0600302123E7B86
:10113600017A0179EE900133E0F5297D051233E459
:1011460090019F12182190024DE0FBA3E0FAA3E064
:10115600F9900003121597FFAEF0EE3395E0FDFC13
:1011660090019FE0F8A3E0F9A3E0FAA3E0FBD31215
:101176001746400302123E90024DE0FBA3E0FAA39D
:10118600E0F9900005121597FFAEF0EE3395E0FDFD
:10119600FC90019FE0F8A3E0F9A3E0FAA3E0FBC30B
:1011A600121746500302123E7E007F02E47066EF7D
:1011B60014604814602524FE705B90019FE0FCA338
:1011C600E0FDA3E0FEA3E0FF90024DE0FBA3E0FA02
:1011D600A3E0F912189F1217E3803A90019FA3A388
:1011E600E0FEA3E0FF90024DE0FBA3E0FAA3E0F9E6
:1011F60012189FEE8FF01215CF801A90019FA3A3AD
:10120600A3E0FF90024DE0FBA3E0FAA3E0F9121879
:101216009FEF1214E39001F0E0B4300B7420F0A3BA
:10122600E0B430037420F07B017A0179F07D02127C
:1012360034E4E4FFFE1231D1900245E070299000BB
:1012460021F0A3F09001A57404F0E49001EDF09074
:1012560002457478F09002477401F0E4900132F090
:10126600F5177518018006751700751803900006A6
:10127600E07002A3E06017900019E07002A3E0702E
:101286000D9001A5E0FF7D01123A01021360900264
:1012960045E07008900132E0FF1220E5900245E03B
:1012A600B401031220D9752905E4F52A752B0175B9
:1012B6002C01752DF3F52E752F027B017A01799F8E
:1012C6007D0412260C8F22EF3395E0FE74F32FF582
:1012D6008274013EF583E0FF9001F0F0BF200374B5
:1012E60030F0AF22EF3395E0FE74F42FF5827401EF
:1012F6003EF583E0FD9001F1F0BD20037430F074FB
:10130600F52FF58274013EF583E09001F2F07B0142
:101316007A0179F07D021234E4803F90024BE0FEC0
:10132600A3E0FFC3900172E09FFF900171E09EFE73
:10133600D3EF94E8EE9403400E900249E0FF339514
:10134600E0F5178F1880137BFF7A2B796CE4FD127A
:1013560037CD8006751700751801900012E07013DE
:1013660004F0900171E0FFA3E0900002CFF0A3EF3C
:10137600F0803B900002E0FEA3E0FFC3900172E024
:101386009FFF900171E09EFED3EF9464EE940040BF
:101396001D900006E07002A3E070047F0180027FCA
:1013A60000900006E4F0A3EFF0E4900012F0900045
:1013B6002DE024F6603124F6607124F670030214E1
:1013C60066241D600302148D900171E0FFA3E09076
:1013D600002ECFF0A3EFF0900000E04402F0900062
:1013E6002D740AF002148D9001FEE070067E017FD6
:1013F600F480047E007F3290002EE0FCA3E0FD9096
:101406000171E0FAA3E0FBC39DFDEA9CFCD3ED9FCE
:10141600EC9E407390002EEAF0A3EBF0900000E003
:1014260054FDF090002D7414F0805C9001FEE07E77
:10143600077FD090002EE0FCA3E0FD900171E0FA5A
:10144600A3E0FBC39DFDEA9CFCD3ED9FEC9E4037D9
:1014560090002EEAF0A3EBF090002D741EF080278A
:10146600900173E07002A3E07017900175E054805C
:10147600FF3395E04F700AA3E0700690002DF080D0
:101486000690002D7401F0900000E06004D2A58063
:0614960002C2A51236F3AC
:01149C00222D
:1025E200E0FEA3E0FFE4FCFD90000812182175292B
:1025F20005E4F52A752B01752C01752DF3F52E7561
:0A2602002F027A0079087B017D04A5
:02260C008D2817
:10260E00E5286007D36480948440037F0022152858
:10261E00E4F537F533F532F531F530E528B4031925
:10262E00E537600812179312173880031217938F2D
:10263E00338E328D318C30803FE528B4011FE53763
:10264E00601112156CFFAEF0C3E49FF531E49EF5F8
:10265E0030802512156CF53185F030801BE5287021
:10266E0014E537600912149DF404F530800A121433
:10267E009DF53080037F0022E52F24FE6018146044
:10268E001A24FB601124F8600D24D06009243F70D9
:10269E000D753602800875360A8003753610E52AE8
:1026AE002529FFC374039FF5348F35C3E535648048
:1026BE009483500CC3740395352529F5297535037C
:1026CE00E535B52904E52E6052AF36AB07EB3395F1
:1026DE00E0FAF9F8AF33AE32AD31AC30123A45EB29
:1026EE002430FFAB2BAA2CA92DE535FD3395E08DBB
:1026FE0082F583EF1214F5AF33AE32AD31AC30C08C
:10270E0007AF36AB07EB3395E0FAF9F8D007123A7C
:10271E00458F338E328D318C308025E52AAB2BAA36
:10272E002CA92DAF35600CEF3395E08F82F58374B5
:10273E002E800AEF3395E08F82F58374201214F504
:10274E00AF351535D3EF6480948040030226CEE575
:10275E002E6025E537601EC3E534648094835015E2
:10276E00AB2BAA2CA92DAF34EF3395E08F82F583D6
:10277E00742D1214F57F0022E4F535F534AB2BAA37
:10278E002CA92DAF35EF3395E08F82F5831214B659
:10279E0064307035EF3395E0FEEF2401FFE43EFE2A
:1027AE00AD29ED3395E0FCC3EF9DEC6480F8EE644B
:1027BE0080985015AF35EF3395E08F82F5837420F6
:1027CE001214F50534053580B4E5376017AB2BAA26
:1027DE002CA92D1534AF34EF3395E08F82F5837429
:1027EE002D1214F5E52A2529C39534F535C36480D9
:1027FE009483500CC374039535FFC3E5349FF534B1
:02280E00AF34E5
:0128100022A5
:0833E4008B258A268927AB0521
:1033EC00E52924FE600C14600E2402700D75330266
:1033FC00800875330A8003753310E4F52DF52CF530
:10340C002BF52A753101F530F52FF52E8B32D3E5DE
:10341C00326480948050030234A61532AB25AA2660
:10342C00A927AF32EF3395E08F82F5831214B6FFE4
:10343C00C3648094B040D7D3EF648094BF50CFAFB7
:10344C0032EF3395E08F82F5831214B6FF3395E09B
:10345C00FEEF24D0FFEE34FFFEE4FCFDAB31AA30CE
:10346C00A92FA82E12161BE52D2FF52DE52C3EF5B8
:10347C002CE52B3DF52BE52A3CF52AAB31AA30A9DE
:10348C002FA82EAF33EF3395E0FEFDFC12161B8FE9
:10349C00318E308D2F8C2E02341AAB25AA26A927FB
:1034AC0012149D642D60139000011214B6642D60EB
:1034BC00099000021214B6B42D0BAF2DAE2CAD2B0F
:0D34CC00AC2A021738AF2DAE2CAD2BAC2A68
:0134D90022D0
:0D3C4C00E4F5C7F5C5F5C675C380F5C422C3
:103BB700C2AF75C78375C5018FC48EC375C65A75E5
:0B3BC700C6A50000AFC2123C4CD2AFFC
:013BD20022D0
:1038DB00E56EFB7A0064AA7046C2AFEB64AA700374
:1038EB0075C783EB64AA4A700375C502EB64AA4AD9
:1038FB0070028FC4EB64AA4A70028EC3AF6E7E0057
:10390B00EF64AA70028DC2EF64AA4E700375C65A9B
:10391B00EF64AA4E700375C6A500123C4CD2AF22C1
:1039BC00AD6E7C00ED64AA703BC2AFED64AA7003DF
:1039CC0075C783ED64AA4C700375C503ED64AA4CEE
:1039DC0070028FC4ED64AA4C70028EC3E56E64AAAB
:1039EC00700375C65AE56E64AA700375C6A50012FD
:0539FC003C4CD2AF229B
:1032E500755444755500E4FB90017CE0FCA3E0FDBA
:1032F500A3E0FEA3E0FFA3E0F8A3E0F9A3E0FAA3AF
:10330500E02FFFEA3EFEE93DFDE83CFCA312182153
:10331500900184E0FCA3E0FDA3E0FEA3E024FFF51B
:1033250059EE34FFF558ED34FFF557EC34FFF556FB
:10333500AF59AE58AD57FC780712176D7C007D0567
:10334500121517AA04AB05E559547FFFE4FDFCEF00
:103355007015756EAAEB25E0FEE42400FFEE3444FB
:10336500FE1239BCE4F56EAF59AE58AD57AC567880
:10337500021217808F5D8E5C8D5B8C5AE4FB7A0A96
:10338500F9F81216A6AC00AD01AE02AF038F5D8E43
:103395005C8D5B8C5AEF2555F555EE3554F5547516
:1033A5005001755101755284756EAAE4F553AB5001
:1033B500AA51A95212149DFDAF55AE541238DB74B3
:1033C500012552F552E43551F5510555E555700283
:0E33D50005540553E553C3940440D3E4F56E4C
:0133E30022C7
:10301500752444752500E4F535F534F533F5327539
:103025003910753827F537F536F54EF54FE54FAEBE
:103035004E7802C333CE33CED8F92400F525EE34CD
:1030450044F524752100752200752326AF25FE124F
:103055003BB7AB21AA22A923EF1214E37401252360
:10306500F523E43522F522E5252401FFE43524FE88
:10307500123BB7AB21AA22A923EF1214E374012551
:1030850023F523E43522F522E5252402FFE4352442
:10309500FE123BB7AB21AA22A923EF1214E3740158
:1030A5002523F523E43522F522E5252403FFE43520
:1030B50024FE123BB7AB21AA22A923EF1214E38504
:1030C500413D85403C853F3B853E3A8529418528E4
:1030D5004085273F85263EE54FB47F11E54EB40276
:1030E5000C85294585284485274385264274FFFF9D
:1030F500FEFD7C7FAB29AA28A927A826D312175C39
:10310500505BAF35AE34AD33AC32A82612175C40F8
:103115004C853D49853C48853B47853A4685414D2B
:1031250085404C853F4B853E4A8529358528348524
:103135002733852632E4854F39854E38F537F53600
:10314500FFFEFDFCAB39AA38A937A83612175C700B
:103155000C85454985444885434785424685292D43
:1031650085282C85272B85262A054FE54F700205D6
:103175004EC39480E54E94025003023032E47F1032
:103185007E27FDFCAB39AA38A937A836C312175CD0
:103195006022AF35AE34AD33AC32900184121821C4
:1031A500900184E0FCA3E0FDA3E0FEA3E0FF900115
:1031B5008002182190018412182D00000000900152
:0B31C5008012182D000000001232E5FF
:0131D00022DC
:0E2A2E0003140102CC0110010111000112007D
:103C1700759850758E40E4F589758BE0758DFED2E9
:063C27008ED2ACD2AF22E8
:0300230002392B74
:10392B00C0E0C083C082C0D075D00830982BC2983D
:10393B0090018CE0FF04F074CC2FF582E43402F597
:10394B0083E599F090018B7401F0900171E0FFA376
:10395B00E0900188CFF0A3EFF0309904C299C20038
:09396B00D0D0D082D083D0E0322C
:103B650090018BE0B40124900188E0FEA3E0FFC33F
:103B7500900172E09FFF900171E09EFED3EF940AE1
:0C3B8500EE9400400690018B7402F022C8
:093C59002000FDEFD200F59922D4
:08382E00A3F07B017A0179FF90
:063836008B258A2689277C
:10383C00E4F528FDFCAB25AA26A92790000112145B
:10384C00B6FF3395E0FEEF2402FFE43EFEC3ED9F8E
:10385C00EE6480F8EC64809850168D828C83121480
:10386C00B6FF2528F528123C590DBD00010C80C56A
:0E387C00AF28123C590510E5107003751001BD
:01388A00221B
:101DEA007522007523007524009002CCE0FF75214E
:101DFA000190018CE0FE14C36480F8E521648098A8
:101E0A005018AD21ED3395E0FC74CC2DF5827402A7
:101E1A003CF583E02FFF052180D774CB2EF582E4B1
:101E2A003402F583E06F600B900173E4F0A3741E33
:101E3A000220D49002CCE024F6B40B004003022026
:101E4A00D8901E5975F003A4C58325F0C583730283
:101E5A001E7A021EF102202B0220C30220C3022096
:101E6A00C50220C30220C30220C30220C30220CC21
:101E7A009002CEE0FF9002CDE0FD2FFFE433A2E70F
:101E8A0013EF139001FDF0EDC31390012EF07522AC
:101E9A0001752301752435E4F5219001FDE0FF3336
:101EAA0095E0FEEF25E0FFEE33FEAD21ED3395E040
:101EBA00FCC3ED9FEE6480F8EC648098502374CFE5
:101ECA002DF58274023CF583E0FFAB22AA23A924F4
:101EDA00E5213395E08D82F583EF1214F505218013
:101EEA00B97576010220C19002CFE0FE9002CEE0E1
:101EFA00FDEDFF90017AEEF0A3EFF09002D1E0FE43
:101F0A009002D0E0FDEDFF900178EEF0A3EFF090A3
:101F1A0002D3E0FE9002D2E0FDEDFF900173EEF0F5
:101F2A00A3EFF09002D5E0FFE4FCFDFE780812175B
:101F3A0080A804A905AA06AB079002D4E0FFEB4FDC
:101F4A00FFEAFEE9FDE8FCC004C005C006C0079030
:101F5A0002D7E0FFE4FCFDFE7818121780D003D008
:101F6A0002D001D000EF4BFFEE4AFEED49FDEC48EE
:101F7A00FCC004C005C006C0079002D6E0FFE4FC1E
:101F8A00FDFE7810121780D003D002D001D000EFE6
:101F9A004BF528EE4AF527ED49F526EC48F525E5F7
:101FAA0077602D90017CE0FCA3E0FDA3E0FEA3E0B6
:101FBA00FFAB28AA27A926A825C312175C6011AF70
:101FCA0028AE27AD26AC2590017C1218211232E5E5
:101FDA0090017AE0B42B20A3E0B4671BE5117017D7
:101FEA00E528FFE527FE90014BEEF0A3EFF0E4FFB2
:101FFA00FE1231D175110190017AE0B45620A3E0A6
:10200A00B4CE1BE5127017E528FFE527FE90014BB9
:10201A00EEF0A3EFF0E4FFFE1231D17512010220B7
:10202A00C1E4F5219002CDE01313543FC36480F854
:10203A00E521648098507BE52125E025E0FD24CE4A
:10204A00F582E43402F583E0FE74CF2DF582E434A0
:10205A0002F583E0FDEEFCAF21EF3395E0FEEF7869
:10206A0003C333CE33CED8F9FF902B73E493FB74BA
:10207A000193FA7402932FF9EA3EFA900005EC8D67
:10208A00F01215EEE52125E025E0FD24D0F582E4E5
:10209A003402F583E0FE74D12DF582E43402F5832F
:1020AA00E0FDEDFF900003EE8FF01215EE05210220
:1020BA00202E757201800980078005757701800BD3
:0E20CA008009900173E4F0A37428F0756F7F15
:0120D80022E5
:101A1300752100752200752300C3900172E0957152
:101A2300FF900171E09570FED3EF94E8EE940340CC
:101A330016E5647008E56FB47F03756F019001715B
:101A4300E0F570A3E0F57190017AE07002A3E07015
:101A530003021B32E5766003021B32E56F647F608D
:101A630003021B329001FD7416F090012E7402F0F4
:101A730090016FE064557004A3E064AA7003021B35
:101A8300299001357401F0A37436F0A37401F0A317
:101A9300742CF0A3E4F0A37402F0A3E4F0A3740F96
:101AA300F0A3E4F0A3740FF0E4A3F0A3F0A3F0A376
:101AB300F0A304F0A37440F0A3E4F0A37459F0A3DB
:101AC3007401F0A37490F0A3E4F0A37414F0A3E4FE
:101AD300F0A37454F0A3E4F0A37402F0A3E4F0A31E
:101AE3007478F0A3E4F0A3740AF0A3E4F0A304F081
:101AF300A3E4F0A37449F0A3E4F0A37450F0A3E4C7
:101B0300F0A304F0A3E4F0A304F0A3E4F0A304F02F
:101B1300A3E4F0A304F090016F7455F0A374AAF04A
:101B2300E4FFFE1231D1756401757601756F7FE5AF
:101B330076B4010CE5727008E56FB47F03756F022C
:101B4300E5646008E56FB47F03756F03E5686008BB
:101B5300E56FB47F03756F07E5616008E56FB47FD8
:101B630003756F09E5756008E56FB47F03756F044E
:101B7300E5676008E56FB47F03756F08E56D60087E
:101B8300E56FB47F03756F05E5746008E56FB47F97
:101B930003756F06E56FB40A004003021DE9901B4D
:101BA300A8F8282873021BC6021BEB021C0E021C9A
:101BB30032021CCB021D77021DA0021CF8021D215C
:101BC300021D4E7E007F467D007B017A0179FF1264
:101BD3001942E49001FFF0A304F0E4A3F0A304F09E
:101BE300FB123832756F32227E007F467D007B0107
:101BF3007A0179FF1219429001FF7401F0A3F0E416
:101C0300A3F0740212382E756F33227E007F467D57
:101C1300007B017A0179FF1219429001FF7402F0EF
:101C2300A314F0E4A3F0740412382E756F34227EEB
:101C3300007F467D007B017A0179FF1219429001F2
:101C4300FF7403F09001FDE025E0900200F07521A0
:101C530001752201752335E0FF9001FFE02FF52484
:101C6300E4FDFC9001FDE0FF3395E0FEEF25E0FF8E
:101C7300EE33FEC3ED9FEE6480F8EC648098502C45
:101C8300AB21AA22A9238D828C831214B6FF74017F
:101C93002DF58274023CF583EFF08D828C83121450
:101CA300B62524F5240DBD00010C80B79001FDE09D
:101CB300FF25E02401F582E43402F583E52412389C
:101CC3002F756F35E4F564227E007F467D007B012E
:101CD3007A0179FF1219429001FF7404F0A3740191
:101CE300F09001E4E0900201F0240512382E756FA4
:101CF30036E4F575227E007F467D007B017A01790B
:101D0300FF1219429001FF7407F0A37401F0E4A3DA
:101D1300F0A3740812382F756F39E4F568227E003A
:101D23007F467D007B017A0179FF1219429001FF02
:101D33007408F0A37401F0900131E0900201F024E3
:101D43000912382E756F3AE4F567227E007F467DCF
:101D5300007B017A0179FF1219429001FF7409F0A7
:101D6300A37401F0E4A3F0A3740A12382F756F3B38
:101D7300E4F561227E007F467D007B017A0179FFD5
:101D83001219429001FF7405F0A37401F0E4A3F06B
:101D9300A3740612382F756F37E4F56D227E007F2A
:101DA300467D007B017A0179FF1219429001FF748D
:101DB30006F0A37403F09001A3E0FEA3E0900201F8
:101DC300F0EEFFA3EFF0900130E0FF900203F090FC
:101DD3000201E02409FEA3E02E2F90020412382F03
:061DE300756F38E4F57491
:011DE90022D7
:10367300023762E493A3F8E493A34003F68001F2D4
:1036830008DFF48029E493A3F85407240CC8C33358
:10369300C4540F4420C8834004F456800146F6DF27
:1036A300E4800B0102040810204080902811E47E7E
:1036B300019360BCA3FF543F30E509541FFEE4931C
:1036C300A360010ECF54C025E060A840B8E493A3E3
:1036D300FAE493A3F8E493A3C8C582C8CAC583CA0E
:1036E300F0A3C8C582C8CAC583CADFE9DEE780BEC6
:012A3C000099
:10149D00BB010689828A83E0225002E722BBFE024D
:0914AD00E32289828A83E4932280
:1014B600BB010CE58229F582E5833AF583E02250EB
:1014C60006E92582F8E622BBFE06E92582F8E22235
:0D14D600E58229F582E5833AF583E493224F
:1014E300BB010689828A83F0225002F722BBFE01E8
:0214F300F322E2
:1014F500F8BB010DE58229F582E5833AF583E8F02D
:10150500225006E92582C8F622BBFE05E92582C8D8
:02151500F222C0
:10151700BC000BBE0029EF8DF084FFADF022E4CCB8
:10152700F875F008EF2FFFEE33FEEC33FCEE9DEC81
:10153700984005FCEE9DFE0FD5F0E9E4CEFD22EDC7
:10154700F8F5F0EE8420D21CFEADF075F008EF2F11
:10155700FFED33FD4007985006D5F0F222C398FD02
:051567000FD5F0EA229F
:10156C00BB010A89828A83E0F5F0A3E0225006874A
:10157C00F009E71922BBFE07E3F5F009E31922890C
:0B158C00828A83E493F5F0740193223F
:10159700BB0110E58229F582E5833AF583E0F5F092
:1015A700A3E0225009E92582F886F008E622BBFE6F
:1015B7000AE92582F8E2F5F008E222E5832AF583B5
:0815C700E993F5F0A3E993227A
:1015CF00BB010A89828A83F0E5F0A3F0225006F767
:0F15DF0009A7F01922BBFE06F3E5F009F3192264
:1015EE00F8BB0111E58229F582E5833AF583E8F02F
:1015FE00E5F0A3F0225009E92582C8F608A6F022EC
:0D160E00BBFE09E92582C8F2E5F008F222D2
:10161B00E88FF0A4CC8BF0A42CFCE98EF0A42CFC6E
:10162B008AF0EDA42CFCEA8EF0A4CDA8F08BF0A4EC
:10163B002DCC3825F0FDE98FF0A42CCD35F0FCEB4B
:10164B008EF0A4FEA9F0EB8FF0A4CFC5F02ECD3910
:0F165B00FEE43CFCEAA42DCE35F0FDE43CFC227D
:10166A0075F008758200EF2FFFEE33FECD33CDCC37
:10167A0033CCC58233C5829BED9AEC99E5829840BA
:10168A000CF582EE9BFEED9AFDEC99FC0FD5F0D697
:10169A00E4CEFBE4CDFAE4CCF9A88222B800C1B9C1
:1016AA000059BA002DEC8BF084CFCECDFCE5F0CBFF
:1016BA00F97818EF2FFFEE33FEED33FDEC33FCEB38
:1016CA0033FB10D703994004EB99FB0FD8E5E4F9F3
:1016DA00FA227818EF2FFFEE33FEED33FDEC33FCE0
:1016EA00C933C910D7059BE99A4007EC9BFCE99AD4
:1016FA00F90FD8E0E4C9FAE4CCFB2275F010EF2F19
:10170A00FFEE33FEED33FDCC33CCC833C810D70718
:10171A009BEC9AE899400AED9BFDEC9AFCE899F853
:0E172A000FD5F0DAE4CDFBE4CCFAE4C8F922E6
:103A4500C2D5E830E70FB2D5E4C39BFBE49AFAE4AC
:103A550099F9E498F8EC30E717B2D5123A7B1216CB
:103A6500A6E4C39BFBE49AFAE499F9E498F8800389
:103A75001216A630D50DE4C39FFFE49EFEE49DFD1E
:043A8500E49CFC229F
:0E173800C3E49FFFE49EFEE49DFDE49CFC22C2
:10174600EB9FF5F0EA9E42F0E99D42F0EC6480C81A
:0617560064809845F022BA
:10175C00EB9FF5F0EA9E42F0E99D42F0E89C45F0E3
:01176C00225A
:10176D00E8600FECC313FCED13FDEE13FEEF13FF5A
:03177D00D8F1227E
:10178000E8600FEFC333FFEE33FEED33FDEC33FCC7
:03179000D8F1226B
:10179300BB010789828A8302197A5005E9F8021985
:1017A3006EBBFE05E9F802198689828A83021992C3
:1017B300BB010DE58229F582E5833AF58302197AA7
:1017C3005007E92582F802196EBBFE07E92582F866
:1017D300021986E58229F582E5833AF58302199297
:1017E300BB010789828A830218215005E9F802198F
:0A17F300A2BBFE05E9F80219AE22C0
:1017FD00BB010DE58229F582E5833AF583021821B7
:10180D005007E92582F80219A2BBFE07E92582F8E7
:04181D000219AE22DC
:0C182100ECF0A3EDF0A3EEF0A3EFF0223A
:10182D00A8828583F0D083D08212184412184412F6
:10183D001844121844E473E493A3C583C5F0C5831B
:10184D00C8C582C8F0A3C583C5F0C583C8C582C805
:01185D002268
:10185E00BB010DE58229F582E5833AF58302182D49
:10186E005007E92582F80219BABBFE07E92582F86E
:04187E000219D32256
:10188200F5F0C582A4C582C5F0C583A42583F5837E
:011892002233
:0C189300A42582F582E5F03583F5832260
:10189F00BB010789828A830219F55005E9F80219FD
:1018AF00ECBBFE05E9F80219FE89828A83021A074A
:1018BF00BB010DE58229F582E5833AF5830219F51F
:1018CF005007E92582F80219ECBBFE07E92582F8DB
:1018DF000219FEE58229F582E5833AF583021A079C
:1018EF00D083D082F8E4937012740193700DA3A388
:1018FF0093F8740193F5828883E47374029368609C
:06190F00EFA3A3A380DF9B
:10191500D083D082F8E4937012740193700DA3A361
:1019250093F8740193F5828883E473740293B5F098
:0D193500067403936860E9A3A3A3A380D800
:10194200EF4E6012EF60010EEDBB010B89828A83BC
:10195200F0A3DFFCDEFA2289F05007F709DFFCA9C9
:0C196200F022BBFEFCF309DFFCA9F02220
:0C196E00E6FC08E6FD08E6FE08E6FF22A5
:0C197A00E0FCA3E0FDA3E0FEA3E0FF22E0
:0C198600E2FC08E2FD08E2FE08E2FF229D
:10199200E493FC740193FD740293FE740393FF229B
:0C19A200ECF608EDF608EEF608EFF62271
:0C19AE00ECF208EDF208EEF208EFF22275
:1019BA00D083D082E493F608740193F608740293F4
:0919CA00F608740393F67404732B
:1019D300D083D082E493F208740193F208740293E3
:0919E300F208740393F27404731A
:0919EC00E6FB08E6FA08E6F92220
:0919F500E0FBA3E0FAA3E0F922F3
:0919FE00E2FB08E2FA08E2F9221A
:0C1A0700E493FB740193FA740293F9223B
:00000001FF
