:03000000023B219F
:0C3B2100787FE4F6D8FD758178023B68DF
:10255C00016F000266000001707F02710000026CC6
:10256C000000026A000001770001730001650001A0
:10257C007600016900016800016200016E000178BB
:10258C0001017500017400026300004E043010005C
:10259C000378000000000000000000004E048420BE
:1025AC00000378000000000000000000004E0476DC
:1025BC0000100378000000000000000000004E0432
:1025CC006800200378000000000000000000004EAE
:1025DC00045A0040037800000000000000000000D6
:1025EC004E043E0080037800000000000000000054
:1025FC00004E044C010003780000000000000000B5
:02260C000000CC
:10000E00438E80E4F589758A67758CFCD28CD2A9F3
:03001E00D2AF223C
:1040F600E4F5957596207580FF7590FF75A0FF75A0
:08410600B0FF12000E02413A65
:10410E007E007F847D007B017A017985121A929060
:06411E0001817401F02292
:103049008B5F8A6089619000021216E7FFAEF0E596
:10305900F0600302323DEF24F6604C24F67003025F
:10306900311724F6700302318D241E600302323DAC
:1030790090000CE4F5F012173E1216BCFF90017C8B
:10308900E055F0FEA3E05F4E600302323DAB5FAA5C
:1030990060A96190000275F00A12173E90000412AF
:1030A90019AE0000000022AB5FAA60A9611216BC2C
:1030B900FF90017CE055F0FEA3E05F4E7037900071
:1030C90004121903EF2401FFE43EFEE43DFDE43C54
:1030D900FC90000412194D900004121903E47B14AA
:1030E900FAF9F8C31218AC400302323DAB5FAA608B
:1030F900A961023233AB5FAA60A961900004121979
:10310900AE00000000900002E4F5F002323AAB5F35
:10311900AA60A961900004121903EF2401FFE43E9B
:10312900FEE43DFDE43CFC90000412194D1216BC6E
:10313900FF90017CE055F0FEA3E05F4E601AAB5FA3
:10314900AA60A961900002E475F01E12173E900072
:10315900081219AE00000000AB5FAA60A9619000D7
:1031690004121903E47B907A01F9F8C31218AC40F0
:103179000302323DAB5FAA60A96190000CE475F0CF
:103189000102323AAB5FAA60A961900004121903E7
:10319900EF2401FFE43EFEE43DFDE43CFC90000425
:1031A90012194D1216BCFF90017CE055F0FEA3E008
:1031B9005F4E6066AB5FAA60A961900008121903AF
:1031C900EF2401FFE43EFEE43DFDE43CFC900008F1
:1031D90012194D900008121903E47B14FAF9F8C387
:1031E9001218AC504FAB5FAA60A96190000C12167F
:1031F900E7640145F090000C700575F0038004E464
:1032090075F00212173E9000041219AE000000007A
:10321900900002740375F0788017AB5FAA60A9610A
:103229009000081219AE00000000900002E475F049
:053239001412173E22F3
:104026007B017A0479761230497B017A0479681229
:1040360030497B017A04793E1230497B017A047952
:104046004C1230497B017A0479301230497B017A6F
:06405600047984023049E8
:1040B400E4900478F0A3F090046AF0A3F090044034
:1040C400F0A3F090044EF0A3F0900432F0A3F0902B
:0640D4000486F0A3F022B7
:10323E0090043CE0FEA3E0FF4E604690020D74EF5A
:10324E00F0A374FFF0EF64014E701290018004F051
:10325E00E5644563702BF5637564018021EF6402AC
:10326E004E9001807004740280027403F0E49004A6
:10327E003CF0A3F0900432F0A3F0F563F56475759D
:10328E0001900490E0FEA3E0FF4E604690020D74A4
:10329E00DFF0A374FFF0EF64014E70129001800412
:1032AE00F0E5644563702BF5637564018021EF646E
:1032BE00024E9001807004740280027403F0E49058
:1032CE000490F0A3F0900486F0A3F0F563F5647516
:1032DE007501900482E0FEA3E0FF4E604690020D61
:1032EE0074FFF0A374EFF0EF64014E701290018042
:1032FE0004F0E5644563702BF5637564018021EF7E
:10330E0064024E9001807004740280027403F0E433
:10331E00900482F0A3F0900478F0A3F0F563F564C6
:10332E00757501900474E0FEA3E0FF4E60469002B6
:10333E000D74FFF0A374DFF0EF64014E7012900174
:10334E008004F0E5644563702BF56375640180219C
:10335E00EF64024E9001807004740280027403F0D8
:10336E00E4900474F0A3F090046AF0A3F0F563F512
:10337E006475750190044AE0FEA3E0FF4E6046902E
:10338E00020D74FFF0A3747FF0EF64014E70129083
:10339E00018004F0E5644563702BF563756401806C
:1033AE0021EF64024E900180700474028002740357
:1033BE00F0E490044AF0A3F0900440F0A3F0F5631B
:1033CE00F564757501900458E0FEA3E0FF4E60456C
:1033DE0090020D74FEF0A304F0EF64014E70129093
:1033EE00018004F0E5644563702BF563756401801C
:1033FE0021EF64024E900180700474028002740307
:10340E00F0E4900458F0A3F090044EF0A3F0F563AE
:06341E00F5647575012242
:03000B0002405C54
:10405C00C0E0C0F0C083C082C0D075D0089001D63B
:10406C00E004F070069001D5E004F0124088124094
:0C407C0026D0D0D082D083D0F0D0E0322B
:103C8500E4F56F1240F612410E1237C69001D5E0E9
:103C9500F571A3E0F572E574702AC39001D6E0953D
:103CA50072FF9001D5E09571FED3EF94F4EE940187
:103CB5004012E0FEA3E08E71F5728E6CF56D124038
:103CC500B4757401E574B401CD1200269001EBE0E2
:103CD500B4020C121F4E9001EB7403F0E4A3F01232
:073CE5001B6312323E80AFA9
:0D260E004A049200FF00FF00FF00FF00FFE4
:0C3DAE00C290C2907F007E007D007C006F
:083DBA008F2C8E2B8D2A8C2921
:103DC200E4F530F52FF52EF52DAF2CAE2BAD2AAC48
:103DD20029AB30AA2FA92EA82DC3121896501C0069
:103DE200E4FAF9F8E5302401F530EA352FF52FE948
:0B3DF200352EF52EE8352DF52D80CE86
:013DFD0022A3
:10415000D290D290D291D291123DB2C291C291220C
:10412400123DAEC291C291123DB2D290D290123DD4
:06413400B2D291D29122EB
:0F416000123DAED290D290123DB2C290C29022C8
:043FEB008E268F2768
:103FEF00E4F528123DB2123DAEE52730E006D2913E
:103FFF00D2918004C291C291123DB2E526C313F54E
:10400F0026E52713F527D290D290123DB20528E569
:06401F0028C3940840CD07
:014025002278
:103BAD001241851241507F407E00123FEB120003FF
:103BBD001241601241851241241241507FC07E0096
:103BCD00123FEB120003124160124185E4F525E529
:103BDD002525E02492F582E43404F583E0FEA3E08C
:103BED00FF123FEB1200031241601241850525E5DE
:103BFD0025C3940540D91241241241507F8C7E007B
:0F3C0D00123FEB12000312416012418502412465
:05000300C294D2952219
:05418500D294D2952246
:102E4C0030303030300000312D00322D00332D0069
:102E5C00342D00352D00362D00372D00382D00393E
:102E6C002D0031300031310031320031330031343A
:102E7C00003135003136003137003138003139003E
:102E8C003230003231003232003233003234003210
:102E9C0035003236003237003238003239003330E8
:102EAC000020202041310020202041320020202011
:102EBC0041330020202041340020202041350020C7
:102ECC00202041360020202041370020202041388E
:102EDC000020202041390020204131300036303193
:102EEC0031350020462D2D300020462D2D3100206F
:102EFC00462D2D320020462D2D330020462D2D340D
:102F0C000020462D2D3500502D2D00452D2D005126
:102F1C00322D2D2D00502D2D203000502D2D2031F7
:102F2C0000502D2D20320020202031310020202077
:102F3C003132002020203133002020203134002079
:102F4C002020313500202020313600202020313740
:102F5C000020202031380020202031390020202072
:102F6C00323000202020323100202020323200204C
:102F7C0020457272000001003CFF2E4C000028001E
:102F8C000001027B000000000000000000000000B7
:102F9C00000000FF2E52400000000101E404050077
:102FAC000001869F000000000000000000000000EF
:102FBC000000000000000000000000000000000005
:102FCC0000000000000000000000000000000000F5
:102FDC000000000000000000000000000000FEB037
:102FEC00EDF9B3DBDFF0FFFB00004080003F065B38
:102FFC004F666D7D077F6F771F4E3D4F47FB771FE9
:10300C004E3D7971FB37060E07386A761D736705DE
:10301C005B313E1C5C313BED000000620800771F09
:10302C004E3D4F47FB370638070E6A151D67735028
:0D303C005B783E1C5C313BED0000000000A5
:10261B004101840041027C004102620041027B289F
:10262B0041017E0A41017F1460A002E2000003E732
:10263B00000003E7000003E70000000000000000BB
:10264B00000000000000000000000000000000007F
:10265B00000000000000000000000000000000006F
:10266B00000000000000000000000000000000005F
:10267B00000000000000000000000000000000004F
:10268B00000000000000000000000000000000003F
:10269B00000000000000000000000000000000002F
:1026AB00000000000000000000000000000000001F
:1026BB00000000000000000000000000000000000F
:1026CB00000000000000000000000000605002123B
:1026DB000064006400010000000000000000000026
:1026EB0000000000000000000000000000000000DF
:1026FB0000000000000000000000000000000000CF
:10270B0000000000000000000000000000000000BE
:10271B0000000000000000000000000000000000AE
:10272B004802630402FF2F9FFF2F8142020D00001E
:10273B00410180004101810141003800410000004E
:10274B0041000100420006000042000C0000420064
:10275B000E00004200100000410012004200130066
:10276B000042001500004200170000420019000053
:10277B0042001B000042001D000042001F000042EF
:10278B00002100004200230000420027000042000D
:10279B0029000141002D0042002E000041003000B5
:0A27AB00420031000042003300003C
:043CEC007BFFE4FD79
:103CF0008B258A2689278D28AB250527E527AA2627
:103D00007002052614F91215EDFF3395E0FE74C913
:103D10002FF582742F3EF583E493FD3395E0FCAFDD
:103D2000280528EF3395E0FEEF25E0FFEE33FE7423
:103D3000922FF58274043EF583ECF0A3EDF0C3E519
:103D400028648094865009AA26A9271215ED70A828
:013D50002250
:0C22A20090017EE0FF900182E0C39FFFEE
:1022AE00E4F528EF121A3F233100233D01234902A2
:1022BE00235503236104236D052379062385072304
:1022CE009108239D0923A90A23B50B23C10C23CD05
:1022DE000D23D90E23E50F23F11023FD112409122E
:1022EE00241513242114242D1524391624451724BE
:1022FE005118245D1924691A24751B24811C248C01
:10230E001D24975024A25124AD5224B85324C354F3
:10231E0024CE5524D95624E45724EF5824FA5900D4
:10232E000025037525FF75262E7527530225037587
:10233E0025FF75262E7527560225037525FF752652
:10234E002E7527590225037525FF75262E75275CD8
:10235E000225037525FF75262E75275F0225037549
:10236E0025FF75262E7527620225037525FF752616
:10237E002E7527650225037525FF75262E75276890
:10238E000225037525FF75262E75276B022503750D
:10239E0025FF75262E75276E0225037525FF7526DA
:1023AE002E7527710225037525FF75262E75277448
:1023BE000225037525FF75262E75277702250375D1
:1023CE0025FF75262E75277A0225037525FF75269E
:1023DE002E75277D0225037525FF75262E75278000
:1023EE000225037525FF75262E7527830225037595
:1023FE0025FF75262E7527860225037525FF752662
:10240E002E7527890225037525FF75262E75278CB7
:10241E000225037525FF75262E75278F0225037558
:10242E0025FF75262E7527920225037525FF752625
:10243E002E7527950225037525FF75262E7527986F
:10244E000225037525FF75262E75279B022503751C
:10245E0025FF75262E75279E0225037525FF7526E9
:10246E002E7527A10225037525FF75262E7527A427
:10247E000225037525FF75262E7527A780777525EE
:10248E00FF75262E7527AA806C7525FF75262E756D
:10249E0027AD80617525FF75262E7527B38056757D
:1024AE0025FF75262E7527B9804B7525FF75262EAF
:1024BE007527BF80407525FF75262E7527C580357B
:1024CE007525FF75262E7527CB802A7525FF752657
:1024DE002E7527D1801F7525FF75262E7527D7805F
:1024EE00147525FF75262E7527DD80097525FF7558
:1024FE00262E7527E3AB250527E527AA26700205AC
:10250E002614F91215EDFF3395E0FE74C92FF582EE
:10251E00742F3EF583E493FD3395E0FCAF28052838
:10252E00EF3395E0FEEF25E0FFEE33FE74922FF5CC
:10253E008274043EF583ECF0A3EDF0C3E5286480CD
:0D254E0094865009AA26A9271215ED70A841
:01255B00225D
:043F2400AC07A90538
:103F2800AD04E9FF3395E0FEECFB3395E0FAEB2FA7
:103F3800FFEA3EFEEDFB3395E0FAC3EB9FEE6480AB
:103F4800F8EA6480985018EB25E0FFEA33FE749293
:0F3F58002FF58274043EF583E4F0A3F00D80C3CF
:013F67002237
:0A397F008F227B017A027971E4FDCA
:083989008B258A2689278D2871
:10399100E4F529AB25AA26A927900001121606B441
:1039A1002E05E529B40148AB250527E527AA267090
:1039B10002052614F91215EDFF3395E0FE74C92FA7
:1039C100F582742F3EF583E493FD3395E0FCAF2837
:1039D1000528EF3395E0FEEF25E0FFEE33FE74920C
:1039E1002FF58274043EF583ECF0A3EDF08056AB25
:1039F100250527E527AA267002052614F91215EDDB
:103A0100FF3395E0FE74C92FF582742F3EF583E4F0
:103A1100934480FD3395E0FCAF280528EF3395E012
:103A2100FEEF25E0FFEE33FE74922FF58274043E23
:103A3100F583ECF0A3EDF075290174012527F52735
:103A4100E43526F526C3E5286480948650030239BF
:013A510094E0
:013A52002251
:103FAC00E4FDEDFF3395E0FEEF25E0FFEE33FE740C
:103FBC00852FF974013EFA7B01EDFF3395E0FEEF9E
:103FCC007803C333CE33CED8F9243CF58274003E4B
:0E3FDC00F583EBF0A3EAF0A3E9F00DBD28C4D5
:013FEA0022B4
:0227C4008F2163
:1027C600EF3395E0FE902F8B75F00FEF1219E3EEC5
:1027D60075F00FA42583F583E493F526740193F52C
:1027E600270527E527AE267002052614FF1240DAD4
:1027F6008F25AF21EF3395E0FE902F8D75F00FEF0B
:102806001219E3EE75F00FA42583F583E493FB74A8
:102816000193FA740293F97428121633E4F528F535
:1028260029E521FD3395E0FC902F8A75F00FED1216
:1028360019E3EC75F00FA42583F583E493FF339534
:10284600E0FEC3E5299FEE6480F8E52864809840A1
:102856000302295AE529AE287802C333CE33CED8EF
:10286600F924E4F58274023EF583E0FEA3E0FFC09E
:1028760007C006902F8275F00FED1219E3EC75F084
:102886000FA42583F583E493FB740193FA740293F2
:10289600F9E529AE287803C333CE33CED8F929F922
:1028A600EA3EFA900003D0E0D0F012173EE529AEDA
:1028B600287802C333CE33CED8F924E2F5827402E7
:1028C6003EF583E0FCA3E0FDAF21EF3395E0FE90FB
:1028D6002F8275F00FEF1219E3EE75F00FA4258322
:1028E600F583E493FB740193FA740293F9E529AE38
:1028F600287803C333CE33CED8F929F9EA3EFA90C5
:102906000005EC8DF012173EAF21EF3395E0FE90F7
:102916002F8275F00FEF1219E3EE75F00FA42583E1
:10292600F583E493FB740193FA740293F9E529AEF7
:10293600287803C333CE33CED8F929F9EA3EFA9084
:102946000007E41216450529E52960030228270534
:1029560028022827E52170097522017523017524AF
:1029660085AF21EF3395E0FE902F8875F00FEF12BB
:1029760019E3EE75F00FA42583F583E493F5267429
:102986000193F527E4F528F529AF21EF3395E0FE0D
:10299600902F8A75F00FEF1219E3EE75F00FA4254C
:1029A60083F583E493FF3395E0FEC3E5299FEE6448
:1029B60080F8E52864809850530527E527AE2670F1
:1029C60002052614FF1240DAAB22AA23A924EF122D
:1029D600163374012524F524E43523F5230527E56C
:1029E60027AE267002052614FF1240DAAB22AA2370
:1029F600A924EF12163374012524F524E43523F5B2
:0C2A0600230529E5297082052802298F8C
:012A120022A1
:1037C600C2A57A2E79E9123CEC123BAD900265E077
:1037D600F9A3E0FAA3E0900382C9F0A3EAF0A3E913
:1037E600F0E4FF900382E0FBA3E0FAA3E0F9EFFD2B
:1037F6003395E08D82F58374151219D2121A0FEAE9
:10380600494B60030F80DC900268E0FBA3E0FAA35B
:10381600E0F9900035EBF0A3EAF0A3E9F09000019F
:10382600121A0F900039EBF0A3EAF0A3E9F0E4FFD7
:103836001227C4123FACE490026BF0900182F0F5BF
:1038460017751801900210F09001D9F09001D7F089
:10385600A3F09001DAF09001E012197D000000005B
:10386600E49001FEF0122C42123A53E47B107A27C0
:10387600F9F89001FFE0FCA3E0FDA3E0FEA3E0FF62
:103886001217F69001B5EEF0A3EFF0E49001D5F033
:10389600A3F09001DCF0A3F074FF90017CF0A3F09C
:0138A60022FF
:0435BC008E2B8F2C97
:1035C000756FAA902F8875F00FEF1219E3EE75F062
:1035D0000FA42583F583E493FE740193FF123EDF6D
:1035E000E4F56FE52C700DE52B7009752D01752E36
:1035F00001752F85902F8875F00FE52C1219E3E5E2
:103600002B75F00FA42583F583E493F531740193B2
:10361000F532E4F530902F8A75F00FE52C1219E39E
:10362000E52B75F00FA42583F583E493FF3395E034
:10363000FEC3E5309FEE6480F87480984003023644
:10364000CC756FAAAB2DAA2EA92F1215EDFDAF32A6
:10365000AE31123DFEAF32AE311240DAAE07AB2DC5
:10366000AA2EA92F1215ED6E60079001D8E0442014
:10367000F07401252FF52FE4352EF52E0532E532B5
:1036800070020531AB2DAA2EA92F1215EDFDAF3218
:10369000AE31123DFEAF32AE311240DAAE07AB2D85
:1036A000AA2EA92F1215ED6E60079001D8E04420D4
:1036B000F07401252FF52FE4352EF52E0532E53275
:0F36C00070020531E4F56F0530023615756501AE
:0136CF0022D8
:103E9700EF14601814601D14602214602714602C3E
:103EA700240570337BFF7A2E79EF80267BFF7A2EED
:103EB70079F5801E7BFF7A2E79FB80167BFF7A2FA0
:103EC7007901800E7BFF7A2F790780067BFF7A2F97
:083ED700790DE4FD123CF0221C
:103424008D26EF640160030235BB90017EE0F9FF55
:103434003395E0FEEF25E0FFEE33FE74AB2FF5820B
:1034440074013EF583E0547FFCA3E0D394E7EC647D
:10345400809483400E74AB2FF58274013EF583E4AF
:10346400F0A3F0E9FF3395E0FEEF25E0FFEE33FE35
:1034740074AD2FF58274013EF583E0547FFCA3E024
:10348400D394E7EC64809483400E74AD2FF582747A
:10349400013EF583E4F0A3F0E9FF3395E0FEEF2469
:1034A40011FDE43EFCAB26EB3395E0FAEDB50336B3
:1034B400ECB50232EF25E0FFEE33FE74AB2FF5825C
:1034C40074013EF583E0FEA3E0FFEE3395E0FDFCDE
:1034D400AB2AAA29A928A827C312189670599001C3
:1034E400FEE04401F02290017EE0FF3395E0FEEF20
:1034F4002412FDE43EFCAB26EB3395E0FAEDB50374
:103504003CECB50238EF25E0FFEE33FE74AD2FF549
:103514008274013EF583E0FEA3E0FFEE3395E0FD07
:10352400FCAB2AAA29A928A827C3121896700890C8
:1035340001FEE04402F022E49001FEF0229001FE3C
:10354400E054036403707090017EE0FF3395E0FE65
:10355400EF2416FFE43EFEAD26ED3395E0FCEF6D5F
:103564007002EE6C704B9001FF12197D0000000098
:103574009001FFE0FCA3E0FDA3E0FEA3E0FFA312A3
:103584001971756FAA7F007E44123EDF7F007E466C
:10359400123EDF7F007E48123EDF7F007E4A123EED
:1035A400DF7F007E4C123EDFE4F56F1238A7123C39
:0835B4001CE4FFFE1235BC22ED
:10002600A2A4E4335401FF90017CE0FCA3E054FE5B
:10003600FDECFEED4FFF90017CEEF0A3EFF0A2A3E6
:10004600E433540125E0FFE433FE90017CE0FCA399
:10005600E054FDFDEC4EFEED4FFF90017CEEF0A36B
:10006600EFF0A2A2E4FE3354017802C333CE33CEBE
:10007600D8F9FF90017CE0FCA3E054FBFDEC4EFEBA
:10008600ED4FFF90017CEEF0A3EFF0A2A1E4FE336A
:1000960054017803C333CE33CED8F9FF90017CE008
:1000A600FCA3E054F7FDEC4EFEED4FFF90017CEE15
:1000B600F0A3EFF0A2A0E4335401C4F8540FC868CB
:1000C600FFE4C454F048FE90017CE0FCA3E054EF4A
:1000D600FDEC4EFEED4FFF90017CEEF0A3EFF0A29B
:1000E600B5E4FE3354017805C333CE33CED8F9FFD9
:1000F60090017CE0FCA3E054DFFDEC4EFEED4FFFEB
:1001060090017CEEF0A3EFF0A2B3E4FE3354017845
:1001160006C333CE33CED8F9FF90017CE0FCA3E0D2
:1001260054BFFDEC4EFEED4FFF90017CEEF0A3EFC9
:10013600F0A2B2E4FE3354017807C333CE33CED8EF
:10014600F9FF90017CE0FCA3E0547FFDEC4EFEED50
:100156004FFF90017CEEF0A3EFF0A2A6E43354012A
:10016600FE90017CE054FEFCA3E0FDEC4EFFED901A
:10017600017CCFF0A3EFF0A2A7E433540125E0FE03
:1001860090017CE054FDFCA3E0FDEC4EFFED9001F8
:100196007CCFF0A3EFF0A292E433540125E025E0F2
:1001A600FE90017CE054FBFCA3E0FDEC4EFFED90DD
:1001B600017CCFF0A3EFF0A293E433540133333341
:1001C60054F8FE90017CE054F7FCA3E0FDEC4EFFF2
:1001D600ED90017CCFF0A3EFF0A296E4335401C476
:1001E60054F0FE90017CE054EFFCA3E0FDEC4EFFE2
:1001F600ED90017CCFF0A3EFF0A297E4335401C455
:100206003354E0FE90017CE054DFFCA3E0FDEC4EAD
:10021600FFED90017CCFF0A3EFF0A2CCE4335401C4
:10022600C4333354C0FE90017CE054BFFCA3E0FD10
:10023600EC4EFFED90017CCFF0A3EFF0A2CDE433BE
:100246005401C43333335480FE90017CE0547FFC68
:10025600A3E0FDEC4EFFED90017CCFF0A3EFF09014
:10026600017CE0FFA3E090000CCFF0A3EFF090003C
:1002760010E0FEA3E0FF90000CE0FCA3E0FD6F7031
:1002860002EC6E60799001D5E0FEA3E0FF90001DC0
:10029600EEF0A3EFF0900019E07002A3E070119069
:1002A6000025EEF0A3EFF0900000E04401F0800797
:1002B600900000E054FEF0900015E0FEA3E0FF90F1
:1002C60001D5E0FAA3E0FBC39FFFEA9EFED3EF94BD
:1002D60032EE94004025900010ECF0A3EDF0900073
:1002E60013EAF0A3EBF0E4900017F0A3F0A3F0A359
:1002F600F0900029F0A304F00203FF0203F8900037
:1003060025E0FEA3E0FF9001D5E0FCA3E0FDC39F3E
:10031600FFEC9EFED3EF9432EE940040079000006F
:10032600E054FEF090001DE0FEA3E0FFC3ED9FFF4A
:10033600EC9EFED3EF9430EE9475402E9001D5E0FE
:10034600FFA3E090001DCFF0A3EFF0900023E07034
:1003560002A3E07015E51864114517600D751700C6
:10036600751801E4900021F0A3F0900013E0FEA3BD
:10037600E0FF9001D5E0FCA3E0FDC39FFFEC9EFEED
:10038600D3EF9432EE94004069900015ECF0A3EDA3
:10039600F090000CE0FEA3E0F47002EEF4605A90D8
:1003A6000019E07002A3E07050900018E004F070AD
:1003B60006900017E004F0D3900018E094649000D3
:1003C60017E0648094804031900019E4F0A304F0B3
:1003D600900029E4F0A304F0E4900027F0A3F09045
:1003E600001BECF0A3EDF0900017E4F0A3740AF004
:1003F6008007E490000CF0A3F0900019E07002A3CF
:10040600E0605B90001BE0FEA3E0FF9001D5E0FCFE
:10041600A3E0FDC39FFFEC9EFED3EF9464EE940031
:10042600403C900028E004F07006900027E004F0BD
:10043600900027E0FEA3E0FFD39432EE6480948020
:100446004007A3E4F0A3740AF0EF4E600890001B87
:10045600ECF0A3EDF090000EE4F0A374FFF0900032
:100466000CE0FEA3E0FF4E6021A3E0FCA3E0FDEF5D
:100476006D7002EE6C600C90000CA3A3EEF0A3EF7F
:10048600F08007E490000CF0A3F090000CE0FEA3CF
:10049600E0FFF47003EE64FD600FEFF47003EE64AA
:1004A600FB6006BEF72CBFFF299001FDE0600B90B4
:1004B60001D7E4F0A37414F0801875750190000C50
:1004C600E0FFA3E090020DCFF0A3EFF0900180745F
:1004D60002F0900033E0FEA3E0FFEE7073EF24F627
:1004E600602524F6604D24147066209463900033D2
:1004F600E4F0A3740AF09001D5E0FFA3E090003188
:10050600CFF0A3EFF0804920943F900031E0FEA3A6
:10051600E0FFC39001D6E09FFF9001D5E09EFED399
:10052600EF9464EE94004028900033E4F0A3741432
:10053600F0801D30941A75750190020D74FFF0A3BA
:1005460074EEF09001807402F0E4900033F0A3F0B2
:10055600E51760030214AAE51824FE70030209D009
:10056600147003020CEF14700302109E24FB700338
:1005760002147124F97003020BCE147003020B1BD4
:10058600241060030214AA90000CE0FEA3E08EF093
:10059600121A6506E87FFF0691BFFF07A2FFBF0795
:1005A6003DFFF70609FFFB066CFFFD05B9FFFE00E0
:1005B6000007B9E4900030F0900021E07002A3E05B
:1005C600702690026C7430F0A3F0A3F0A3F0A3F0B1
:1005D60090020F7404F07B017A02796CE4FD123C00
:1005E600F075170075180222900038E0B4010AE48D
:1005F600F090002DF090027CF0E4900021F0A3F042
:100606000207B9E4900030F0900019E07002A3E010
:100616006042900021E07002A3E070389001FFE094
:10062600FCA3E0FDA3E0FEA3E0FFA3E0F8A3E0F94E
:10063600A3E0FAA3E0FBC31218AC60189001FFE038
:10064600FCA3E0FDA3E0FEA3E0FFA3121971756E03
:1006560001123C1C900181E0640160030207B97538
:100666006801F00207B9E4900030F09001D5E0FF90
:10067600A3E090001FCFF0A3EFF0900181E06003AC
:100686000207B975680104F00207B9E4900030F07A
:10069600900021E07002A3E060030207B9900035E4
:1006A600E0FBA3E0FAA3E0F9900001121A0F900014
:1006B60039EBF0A3EAF0A3E9F0E49002D7F0A3F057
:1006C600A304F0E4900182F090000104F090017E12
:1006D600E0900385F0D36480948050030215EC0209
:1006E6000AA6E4900030F0900021E07002A3E060DA
:1006F600030207B9900035E0FBA3E0FAA3E0F99006
:100706000001121A0F900039EBF0A3EAF0A3E9F00A
:10071600E49002D7F0A304F0A3F0900182F09000D9
:1007260001F090017EE0900385F0D36480948050C0
:10073600030215EC020AA6900038E0703790001903
:10074600E07002A3E06010900030E0C3648094A8DB
:10075600500AE004F08005E4900030F09001D5E006
:10076600FFA3E090001FCFF0A3EFF0A3E4F0A37483
:1007760002F0803F75750190020D74FFF0A374BFFF
:10078600F09001807402F0E4900021F0A3F0900054
:1007960038F090002DF090027CF08017900038E041
:1007A6007011756201900021F0A37404F090003876
:1007B6007401F0900021E07002A3E0600302091FBB
:1007C600900264E0FF900004E4F0A3EFF090018251
:1007D600E0F5219001D7E07002A3E06003020878FB
:1007E6009001D9E0704CA3E0B4011090027C740132
:1007F600F090002DE0700B04F08007900000E054AC
:10080600FDF0900203E0F8A3E0F9A3E0FAA3E0FB11
:100816009001FFE0FCA3E0FDA3E0FEA3E0C39BFF85
:10082600EE9AFEED99FDEC98FC9001E41219710226
:1008360008A97A2F7913123CEC9001D9E0FB547F7A
:10084600FF3395E0FEFDFC900008121971EB30E7CE
:100856000890002DE0700204F0122A218F227B01FD
:100866007A0279747D0312398990027C7401F00250
:1008760008EA9001D7E0FEA3E0FF640B4E6006EFA6
:10088600640C4E70349001DAE0B4011090027C746E
:1008960001F090002DE0700B04F08007900000E05E
:1008A60054FDF09001E4E0FCA3E0FDA3E0FEA3E02C
:1008B600FF122A1B12397F802B7BFF7A2F7917E4D0
:1008C600FD123CF090002DE0700204F09001D7126A
:1008D6002A138F227B017A0279747D03123989E407
:1008E60090027CF0900210E070030209B49002635B
:1008F600E0FF90026BE004FEF0D3EF6480F8EE6454
:10090600809850030209B4E4F0900182E004F0E418
:10091600900004F0A3F00209B4900021E07004A353
:10092600E0640270339001DE122A1312397F9000C0
:100936001FE0FEA3E0FFC39001D6E09FFF9001D524
:10094600E09EFED3EF94D0EE94074062900021E43F
:10095600F0A37403F00209B4900021E07004A3E050
:10096600640370269001DCE0FEA3E0FFE4FCFD904A
:100976000008121971900008A3A3E0FEA3E0FFE4AB
:10098600FDFC122A1B12397F8024900021E070049E
:10099600A3E0640470187BFF7A2F791BFD123CF0EC
:1009A60090002DE0700204F090027C7401F090003B
:1009B60030E0642860030214B0F0F5177518109043
:1009C6000021F0A37404F0020C7890000CE0FEA362
:1009D600E08EF0121A650A41FFF709FBFFFB0A11C8
:1009E600FFFD09F0FFFE00000AFBE4900182F0F52E
:1009F600177518012290020FE014F0C364809480EA
:100A06004003020AFB7404F0020AFB90020FE0FFA7
:100A16003395E0FE746C2FF58274023EF583E00494
:100A2600F0D3648094B95003020AFB746C2FF582EC
:100A360074023EF5837430F0020AFB90026CE0FF0C
:100A460064317063A3E06430705DA3E06431705775
:100A5600A3E064307051A3E06431704B900035E040
:100A6600FBA3E0FAA3E0F9900001121A0F900039F7
:100A7600EBF0A3EAF0A3E9F09002D77401F0E4A347
:100A8600F0A304F090017EE0900182F090027BE0FA
:100A96002406900385F0D36480948050030215ECFD
:100AA60075170075180322EF643160030215EC9088
:100AB600026DE0643160030215ECA3E0643160036B
:100AC6000215ECA3E0643160030215ECA3E0643187
:100AD60060030215ECF517751811900021F0A3F0CC
:100AE6007BFF7A2F7921FD123CF0E49001D7F0A329
:100AF600F075690122900006E07002A3E0600D9097
:100B06000019E07002A3E070030213D77B017A029A
:100B1600796C0214A390000CE0FEA3E08EF0121A8A
:100B2600650B2FFFFE00000B60E4900021F0A3F0A0
:100B360090020F7404F0E490026BF09002D7747880
:100B4600F09002D97401F0E4900182F0F51775185F
:100B56000190002DF090027CF0229001D7E0FEA3D8
:100B6600E0FF640B4E6006EF640C4E7044EF640BBE
:100B76004E70147BFF7A2F7927FD123CF090002DE2
:100B8600E0702504F080219001D7E07004A3E064B2
:100B96000C60030214B07BFF7A2F792DFD123CF016
:100BA60090002DE0700204F090027C7401F00214B3
:100BB600B07BFF7A2F7921E4FD123CF0E490002D02
:100BC600F090027CF00214B090000CE0FEA3E08EE0
:100BD600F0121A650CE67FFF0CDDBFFF0C95DFFFF8
:100BE6000C9EEFFF0C8CF7FF0C83FBFF0CCBFDFF7D
:100BF6000CC2FEFF0CB9FF7F0CD4FFBF0CA7FFDFB2
:100C06000CB0FFEF0C67FFFB0C42FFFD0C1AFFFE5A
:100C1600000014B0E4900021F0A3F090020F7404D9
:100C2600F0E490026BF09002D77478F09002D974D9
:100C360001F0E4900182F0F5170214AD900262E033
:100C4600C3648094815006E004F0757601900262D8
:100C5600E0FF123E97900262E0D364809480021413
:100C6600B0900262E0D3648094804006E014F07590
:100C76007601900262E0FF123E970214B07BFF7A83
:100C86002F79330214A37BFF7A2F79390214A37BC1
:100C9600FF7A2F793F0214A37BFF7A2F794502143E
:100CA600A37BFF7A2F794B0214A37BFF7A2F79510E
:100CB6000214A37BFF7A2F79570214A37BFF7A2FA6
:100CC600795D0214A37BFF7A2F79630214A37BFF5D
:100CD6007A2F79690214A37BFF7A2F796F0214A306
:100CE6007BFF7A2F79750214A390000CE0FEA3E037
:100CF6008EF0121A650DC4FFF70D3AFFFB0D73FF58
:100D0600FD0D0FFFFE00000DCAE4900021F0A3F0D8
:100D160090020F7404F0E490026BF09002D774789E
:100D2600F09002D97401F0E4900182F0F51775187D
:100D360001020DCA9002D7E0FD7013900182E0FE19
:100D460014F0EE7009900385E014900182F0EDB482
:100D5600011990017EE0FF900182E0FE14F0EEB5ED
:100D66000709900385E014900182F080439002D732
:100D7600E0FF7019900385E0FE900182E004FDF02B
:100D8600C3EE6480F8ED6480984002E4F0EFB401AD
:100D96001F900385E0FF900182E004FEF0C3EF643C
:100DA60080F8EE648098400890017EE0900182F021
:100DB600900182E09002D8F0A37401F080069000C2
:100DC600017405F09002D7E0FF7008900001E06022
:100DD6000204F0900001E064056003020FA0F090A9
:100DE6000182E0F52190020F7404F09001837402F1
:100DF600F0EFB4013C90017EE0FF3395E0FEEF2476
:100E060010FFE43EFE9002D8E0FD3395E0FCD3ED02
:100E16009FEE6480F8EC64809840169001FEE054E2
:100E2600036403600C90020912197D000000008023
:100E3600209002DFE0FBA3E0FAA3E0F91219EF121B
:100E460016BCFFAEF0EE3395E0FDFC9002091219D8
:100E5600719002D7E0B4014590017EE0FF3395E042
:100E6600FEEF2410FFE43EFE9002D8E0FD3395E04D
:100E7600FCD3ED9FEE6480F8EC648098401F9002EE
:100E8600DFE0FBA3E0FAA3E0F9900003740375F03A
:100E9600E712173E900005E4F5F012173E751700AD
:100EA600751804AF21EF3395E0FEEF7803C333CE18
:100EB60033CED8F9FF900039E0FBA3E0FAA3E02F88
:100EC600F9EA3EFA9002DFEBF0A3EAF0A3E9F0902C
:100ED60001837402F01219EF752903E4F52A752BC4
:100EE60001752C02752D71F52E752F027D02122AC1
:100EF6003D8F229002117403F090026C7430F0A3BF
:100F0600F0740314606A146042146003020F94AF15
:100F160022EF3395E0FE74712FF58274023EF5835D
:100F2600E0FF90026EF0BF20037430F0AF22EF3383
:100F360095E0FE74722FF58274023EF583E0FD9013
:100F4600026FF0BD20037430F0803490026E74207E
:100F5600F0AF22EF3395E0FE74722FF58274023EF5
:100F6600F583E0FD90026FF0BD20037430F0800F32
:100F760090026E7420F0A3F0AF22EF3395E0FE747A
:100F8600732FF58274023EF583E0900270F0E490D0
:100F9600002BF0A3F0F517751804D3900005E09424
:100FA60000900004E09400400FA3E024FFF09000BE
:100FB60004E034FFF00214B0900264E0FF900004F5
:100FC600E4F0A3EFF0900182E0FF3395E0FEEF78C6
:100FD60003C333CE33CED8F9FF900039E0FBA3E04C
:100FE600FAA3E02FF9EA3EFA9002DFEBF0A3EAF06B
:100FF600A3E9F09002D7E0B4013C90017EE0FF3314
:1010060095E0FEEF2410FFE43EFE9002D8E0FD33AB
:1010160095E0FCD3ED9FEE6480F8EC648098401672
:101026009001FEE054036403600C90020912197DDE
:101036000000000080209002DFE0FBA3E0FAA3E0BE
:10104600F91219EF1216BCFFAEF0EE3395E0FDFC77
:101056009002091219719002D7E07008900182E09F
:10106600FF1222AE9002D7E0B401031222A2752924
:1010760003E4F52A752B01752C02752D71F52E7575
:101086002F027A027909122A398F2274712FF9E414
:101096003402FA7B0102146A90000CE0FEA3E08E93
:1010A600F0121A651220FFF710CAFFFB117AFFFD36
:1010B60010BEFFFE000013C39002D7E060030213C8
:1010C600BD021394900182E0FF3395E0FEEF7803B2
:1010D600C333CE33CED8F9FF900039E0FBA3E0FA54
:1010E600A3E02FF9EA3EFA90000712160630E00355
:1010F6000213C3900209E0FCA3E0FDA3E0FEA3E017
:10110600FFC006C007900029E0FEA3E0FBAA06EA9E
:101116003395E0F9F8D007D006C3EF9BFFEE9AFEB1
:10112600ED99FDEC98FC9002091219719002DFE02E
:10113600FBA3E0FAA3E0F99000051216E7FFAEF074
:10114600EE3395E0FDFC900209E0F8A3E0F9A3E098
:10115600FAA3E0FBC312189640030213C39002DF02
:10116600E0FBA3E0FAA3E0F99000051216E7FFAE54
:10117600F0021211900182E0FF3395E0FEEF780352
:10118600C333CE33CED8F9FF900039E0FBA3E0FAA3
:10119600A3E02FF9EA3EFA90000712160630E003A4
:1011A6000213C3900209E0F8A3E0F9A3E0FAA3E072
:1011B600FB900029E0FEA3E0FFEE3395E0FDFCEB9B
:1011C6002FFFEA3EFEE93DFDE83CFC9002091219BC
:1011D600719002DFE0FBA3E0FAA3E0F990000312AE
:1011E60016E7F52485F023AE23FFEE3395E0FDFCEC
:1011F600900209E0F8A3E0F9A3E0FAA3E0FBD3121A
:10120600189650030213C3AE23AF24EE3395E0FDC8
:10121600FC9002091219710213C3900019E07002C2
:10122600A3E0600302138E7B017A02796C9001833E
:10123600E0F5297D051236D0900209121971900247
:10124600DFE0FBA3E0FAA3E0F99000031216E7FF44
:10125600AEF0EE3395E0FDFC900209E0F8A3E0F96C
:10126600A3E0FAA3E0FBD3121896400302138E9074
:1012760002DFE0FBA3E0FAA3E0F99000051216E70F
:10128600FFAEF0EE3395E0FDFC900209E0F8A3E036
:10129600F9A3E0FAA3E0FBC3121896500302138EDB
:1012A6007E007F02E47066EF14604814602524FE19
:1012B600705B900209E0FCA3E0FDA3E0FEA3E0FF63
:1012C6009002DFE0FBA3E0FAA3E0F91219EF12198E
:1012D60033803A900209A3A3E0FEA3E0FF9002DF69
:1012E600E0FBA3E0FAA3E0F91219EFEE8FF0121774
:1012F6001F801A900209A3A3A3E0FF9002DFE0FB80
:10130600A3E0FAA3E0F91219EFEF12163390026E7A
:10131600E0B4300B7420F0A3E0B430037420F07B0B
:10132600017A02796E7D021239899002D7E0FF6454
:1013360001704F90017EE0FD3395E0FCED2410FB3B
:10134600E43CFA9002D8E0FDF5823395E0F583D3CC
:10135600E5829BEA6480F8E5836480984024C005B2
:10136600900209E0FCA3E0FDA3E0FEA3E0F52A8ECF
:10137600298D288C27D0051234247517007518037B
:101386008006E4FFFE1235BC9002D7E0702990007B
:1013960021F0A3F090020F7404F0E490026BF09039
:1013A60002D77478F09002D97401F0E4900182F0CB
:1013B600F517751801800675170075180390000655
:1013C600E07002A3E06017900019E07002A3E070DD
:1013D6000D90020FE0FF7D01123F240214B090022F
:1013E600D7E07008900182E0FF1222AE9002D7E0AB
:1013F600B401031222A2752905E4F52A752B01759D
:101406002C02752D71F52E752F027B017A02790952
:101416007D04122A3D8F22EF3395E0FE74712FF57D
:101426008274023EF583E0FF90026EF0BF200374E3
:1014360030F0AF22EF3395E0FE74722FF58274021E
:101446003EF583E0FD90026FF0BD20037430F0742A
:10145600732FF58274023EF583E0900270F07B01F3
:101466007A02796E7D02123989803F9002DDE0FEB4
:10147600A3E0FFC39001D6E09FFF9001D5E09EFE5A
:10148600D3EF94E8EE9403400E9002DBE0FF339531
:10149600E0F5178F1880137BFF7A2F797BE4FD1216
:1014A6003CF08006751700751801900012E0701365
:1014B60004F09001D5E0FFA3E0900002CFF0A3EF87
:1014C600F0803B900002E0FEA3E0FFC39001D6E06F
:1014D6009FFF9001D5E09EFED3EF9464EE9400400A
:1014E6001D900006E07002A3E070047F0180027F79
:1014F60000900006E4F0A3EFF0E4900012F09000F4
:101506002DE024F6603124F6607124F6700302158E
:10151600B6241D60030215DD9001D5E0FFA3E0901F
:10152600002ECFF0A3EFF0900000E04402F0900010
:101536002D740AF00215DD90027CE070067E017FB4
:10154600F480047E007F3290002EE0FCA3E0FD9044
:1015560001D5E0FAA3E0FBC39DFDEA9CFCD3ED9F19
:10156600EC9E407390002EEAF0A3EBF0900000E0B2
:1015760054FDF090002D7414F0805C90027CE07EA7
:10158600077FD090002EE0FCA3E0FD9001D5E0FAA5
:10159600A3E0FBC39DFDEA9CFCD3ED9FEC9E403788
:1015A60090002EEAF0A3EBF090002D741EF0802739
:1015B6009001D7E07002A3E070179001D9E0548043
:1015C600FF3395E04F700AA3E0700690002DF0807F
:1015D6000690002D7401F0900000E06004D2A58012
:0615E60002C2A5123BAD9C
:0115EC0022DC
:102A1300E0FEA3E0FFE4FCFD9000081219717529A4
:102A230005E4F52A752B01752C02752D71F52E75AC
:0A2A33002F027A0079087B017D0470
:022A3D008D28E2
:102A3F00E5286007D36480948440037F0022152823
:102A4F00E4F537F533F532F531F530E528B40319F0
:102A5F00E53760081218E312188880031218E38F05
:102A6F00338E328D318C30803FE528B4011FE5372E
:102A7F0060111216BCFFAEF0C3E49FF531E49EF572
:102A8F003080251216BCF53185F030801BE528709B
:102A9F0014E53760091215EDF404F530800A1215AC
:102AAF00EDF53080037F0022E52F24FE60181460BF
:102ABF001A24FB601124F8600D24D06009243F70A4
:102ACF000D753602800875360A8003753610E52AB3
:102ADF002529FFC374039FF5348F35C3E535648013
:102AEF009483500CC3740395352529F52975350347
:102AFF00E535B52904E52E6052AF36AB07EB3395BC
:102B0F00E0FAF9F8AF33AE32AD31AC30123F68EBCB
:102B1F002430FFAB2BAA2CA92DE535FD3395E08D85
:102B2F0082F583EF121645AF33AE32AD31AC30C004
:102B3F0007AF36AB07EB3395E0FAF9F8D007123F42
:102B4F00688F338E328D318C308025E52AAB2BAADE
:102B5F002CA92DAF35600CEF3395E08F82F5837480
:102B6F002E800AEF3395E08F82F58374201216457D
:102B7F00AF351535D3EF648094804003022AFFE50B
:102B8F002E6025E537601EC3E534648094835015AD
:102B9F00AB2BAA2CA92DAF34EF3395E08F82F583A1
:102BAF00742D1216457F0022E4F535F534AB2BAAB0
:102BBF002CA92DAF35EF3395E08F82F583121606D2
:102BCF0064307035EF3395E0FEEF2401FFE43EFEF5
:102BDF00AD29ED3395E0FCC3EF9DEC6480F8EE6416
:102BEF0080985015AF35EF3395E08F82F5837420C1
:102BFF001216450534053580B4E5376017AB2BAA9F
:102C0F002CA92D1534AF34EF3395E08F82F58374F3
:102C1F002D121645E52A2529C39534F535C3648051
:102C2F009483500CC374039535FFC3E5349FF5347B
:022C3F00AF34B0
:012C41002270
:0836D0008B258A268927AB0532
:1036D800E52924FE600C14600E2402700D75330277
:1036E800800875330A8003753310E4F52DF52CF541
:1036F8002BF52A753101F530F52FF52E8B32D3E5F0
:10370800326480948050030237921532AB25AA2682
:10371800A927AF32EF3395E08F82F583121606FFA3
:10372800C3648094B040D7D3EF648094BF50CFAFC8
:1037380032EF3395E08F82F583121606FF3395E05A
:10374800FEEF24D0FFEE34FFFEE4FCFDAB31AA30DF
:10375800A92FA82E12176BE52D2FF52DE52C3EF578
:103768002CE52B3DF52BE52A3CF52AAB31AA30A9EF
:103778002FA82EAF33EF3395E0FEFDFC12176B8FA9
:10378800318E308D2F8C2E023706AB25AA26A9271D
:103798001215ED642D6013900001121606642D6059
:1037A80009900002121606B42D0BAF2DAE2CAD2BCE
:0D37B800AC2A021888AF2DAE2CAD2BAC2A28
:0137C50022E1
:0D416F00E4F5C7F5C5F5C675C380F5C4229B
:1040DA00C2AF75C78375C5018FC48EC375C65A75BD
:0B40EA00C6A50000AFC212416FD2AFAC
:0140F50022A8
:103DFE00E56FFB7A0064AA7046C2AFEB64AA70034B
:103E0E0075C783EB64AA4A700375C502EB64AA4AB0
:103E1E0070028FC4EB64AA4A70028EC3AF6F7E002D
:103E2E00EF64AA70028DC2EF64AA4E700375C65A73
:103E3E00EF64AA4E700375C6A50012416FD2AF2271
:103EDF00AD6F7C00ED64AA703BC2AFED64AA7003B6
:103EEF0075C783ED64AA4C700375C503ED64AA4CC6
:103EFF0070028FC4ED64AA4C70028EC3E56F64AA82
:103F0F00700375C65AE56F64AA700375C6A50012D3
:053F1F00416FD2AF224A
:1038A700755544755600E4FBFA9001FFE0FCA3E070
:1038B700FDA3E0FEA3E024FFF55AEE34FFF559ED32
:1038C70034FFF558EC34FFF557AF5AAE59AD58FCF5
:1038D70078071218BD7C007D05121667AA04AB0590
:1038E700E55A547FFFE4FDFCEF7015756FAAEB25D1
:1038F700E0FEE42400FFEE3444FE123EDFE4F56F01
:10390700AF5AAE59AD58AC5778021218D08F5E8EA9
:103917005D8D5C8C5BE4FB7A0AF9F81217F6AC0054
:10392700AD01AE02AF038F5E8E5D8D5C8C5BEF25C4
:1039370056F556EE3555F5557551017552017553C6
:10394700FF756FAAE4F554AB51AA52A9531215EDAE
:10395700FDAF56AE55123DFE74012553F553E435C0
:1039670052F5520556E556700205550554E554C300
:07397700940440D3E4F56F56
:01397E002226
:102C4200752544752600E4F536F535F534F533750A
:102C52003A10753927F538F537F54FF550E550AE8E
:102C62004F7802C333CE33CED8F92400F526EE34A2
:102C720044F525752100752200752327AF26FE1223
:102C820040DAAB21AA22A923EF12163374012523BD
:102C9200F523E43522F522E5262401FFE43525FE5D
:102CA2001240DAAB21AA22A923EF121633740125AE
:102CB20023F523E43522F522E5262402FFE4352517
:102CC200FE1240DAAB21AA22A923EF1216337401B5
:102CD2002523F523E43522F522E5262403FFE435F6
:102CE20025FE1240DAAB21AA22A923EF1216338560
:102CF200423E85413D85403C853F3B852A428529B0
:102D02004185284085273FE550B47F11E54FB40245
:102D12000C852A4685294585284485274374FFFF6B
:102D2200FEFD7C7FAB2AAA29A928A827D31218ACBA
:102D3200505BAF36AE35AD34AC33A8271218AC4079
:102D42004C853E4A853D49853C48853B4785424EF8
:102D520085414D85404C853F4B852A3685293585F1
:102D62002834852733E485503A854F39F538F537CD
:102D7200FFFEFDFCAB3AAA39A938A8371218AC708D
:102D82000C85464A854549854448854347852A2E10
:102D920085292D85282C85272B0550E550700205A5
:102DA2004FC39480E54F94025003022C5FE49001DC
:102DB200FDF07F107E27FDFCAB3AAA39A938A8376F
:102DC200C31218AC6076C3E54E954AFFE54D9549AE
:102DD200FEE54C9548FDE54B9547FCE47B01FAF98D
:102DE200F8C31218AC704AAF36AE35AD34AC33907E
:102DF20001FF1219719001B3E0FEA3E0FFD394002A
:102E0200EE648094804042EE3395E0FDFCE47B105A
:102E12007A27F812176B9001FFE0F8A3E0F9A3E01C
:102E2200FAA3E0FBD31218AC401F9001FD7401F02D
:102E3200229001FF12197D00000000229001FF1272
:092E4200197D000000001238A700
:012E4B002264
:103A5300752426752500752101752202752303AF90
:103A630025AE241240DAAB21AA22A923EF12163382
:103A730074012523F523E43522F522E5252401FFEE
:103A8300E43524FE1240DAAB21AA22A923EF121651
:103A93003374012523F523E43522F522E525240299
:103AA300FFE43524FE1240DAAB21AA22A923EF1248
:103AB300163374012523F523E43522F522E5252465
:103AC30003FFE43524FE1240DAAB21AA22A923EF37
:103AD300121633900203E0F8A3E0F9A3E0FAA3E09F
:103AE300FB9001FFE0FCA3E0FDA3E0FEA3E0C39B8A
:103AF300FFEE9AFEED99FDEC98FC7B9F7A867901A7
:103B03007800C31218AC50159001FFE0FCA3E0FD50
:0D3B1300A3E0FEA3E0FFA3121971123C1CF9
:013B20002282
:103C1C00752F26753000E4F539F53A756FAAFF7EDD
:103C2C0026123EDFE4F56F9001FFE0FCA3E0FDA35C
:103C3C00E0FEA3E0FFA3121971752B01752C027520
:103C4C002D03756FAAE4F52EAB2BAA2CA92D1215FA
:103C5C00EDFDAF30AE2F123DFE7401252DF52DE498
:103C6C00352CF52C0530E5307002052F052EE52E90
:083C7C00C3940440D3E4F56F8A
:013C8400221D
:0E27B50003140103860110010111000112003E
:10413A00759850758E40E4F589758BE0758DFED2C1
:06414A008ED2ACD2AF22C0
:03002300023E4E4C
:103E4E00C0E0C083C082C0D075D00830982BC29815
:103E5E009001ECE0FF04F074862FF582E43403F554
:103E6E0083E599F09001EB7401F09001D5E0FFA38A
:103E7E00E09001E8CFF0A3EFF0309904C299C200B0
:093E8E00D0D0D082D083D0E03204
:104088009001EBE0B401249001E8E0FEA3E0FFC357
:104098009001D6E09FFF9001D5E09EFED3EF940AF1
:0C40A800EE940040069001EB7402F02240
:09417C002000FDEFD200F59922AC
:083D5100A3F07B017A02797DE9
:063D59008B258A26892754
:103D5F00E4F528FDFCAB25AA26A927900001121631
:103D6F0006FF3395E0FEEF2402FFE43EFEC3ED9F16
:103D7F00EE6480F8EC64809850168D828C83121656
:103D8F0006FF2528F52812417C0DBD00010C80C5CA
:0E3D9F00AF2812417C0510E51070037510016D
:013DAD0022F3
:101F4E00752200752300752400900386E0FF75212D
:101F5E00019001ECE0FE14C36480F8E521648098E2
:101F6E005018AD21ED3395E0FC74862DF582740387
:101F7E003CF583E02FFF052180D774852EF582E492
:101F8E003403F583E06F600B9001D7E4F0A3741E69
:101F9E0002229D900386E024F6B40B004003022239
:101FAE00A1901FBD75F003A4C58325F0C5837302F0
:101FBE001FDE0220550221F402228C02228C022204
:101FCE008E02228C02228C02228C02228C022295FC
:101FDE00900388E0FF900387E0FD2FFFE433A2E734
:101FEE0013EF1390027BF0EDC31390017EF0752278
:101FFE0001752301752485E4F52190027BE0FF3302
:10200E0095E0FEEF25E0FFEE33FEAD21ED3395E0DA
:10201E00FCC3ED9FEE6480F8EC64809850237489C5
:10202E002DF58274033CF583E0FFAB22AA23A9248D
:10203E00E5213395E08D82F583EF1216450521805B
:10204E00B975770102228A900389E0FE900388E039
:10205E00FDEDFF9001DEEEF0A3EFF090038BE0FEBE
:10206E0090038AE0FDEDFF9001DCEEF0A3EFF0901F
:10207E00038DE0FE90038CE0FDEDFF9001D7EEF0B6
:10208E00A3EFF090038FE0FFE4FCFDFE780812183A
:10209E00D0A804A905AA06AB0790038EE0FFEB4F6C
:1020AE00FFEAFEE9FDE8FCC004C005C006C00790CB
:1020BE000391E0FFE4FCFDFE78181218D0D003D097
:1020CE0002D001D000EF4BFFEE4AFEED49FDEC4889
:1020DE00FCC004C005C006C007900390E0FFE4FCFE
:1020EE00FDFE78101218D0D003D002D001D000EF30
:1020FE004BF528EE4AF527ED49F526EC48F52590E7
:10210E0001E0E0FCA3E0FDA3E0FEA3E0FFAB28AA04
:10211E0027A926A825C31218AC607AAF28AE27AD22
:10212E0026AC259001E01219719001FFE0FCA3E0AE
:10213E00FDA3E0FEA3E02401FFE43EFEE43DFDE44A
:10214E003CFC9001FF121971900203E0F8A3E0F934
:10215E00A3E0FAA3E0FB9001FFE0FCA3E0FDA3E007
:10216E00FEA3E0C39BFFEE9AFEED99FDEC98FC7B7F
:10217E009F7A8679017800C31218AC50159001FF32
:10218E00E0FCA3E0FDA3E0FEA3E0FFA31219711291
:10219E003C1C1238A79001DEE0B42B20A3E0B467FC
:1021AE001BE5117017E528FFE527FE90019BEEF069
:1021BE00A3EFF0E4FFFE1235BC7511019001DEE0D5
:1021CE00B45620A3E0B4CE1BE5127017E528FFE548
:1021DE0027FE90019BEEF0A3EFF0E4FFFE1235BC5C
:1021EE0075120102228AE4F521900387E01313543D
:1021FE003FC36480F8E521648098507BE52125E09B
:10220E0025E0FD2488F582E43403F583E0FE74892D
:10221E002DF582E43403F583E0FDEEFCAF21EF33C0
:10222E0095E0FEEF7803C333CE33CED8F9FF902F6F
:10223E0082E493FB740193FA7402932FF9EA3EFA47
:10224E00900005EC8DF012173EE52125E025E0FD0E
:10225E00248AF582E43403F583E0FE748B2DF58237
:10226E00E43403F583E0FDEDFF900003EE8FF012F2
:10227E00173E05210221F77573018009800780053D
:10228E00757801800B80099001D7E4F0A37428F0D3
:03229E0075707FD9
:0122A100221A
:101B6300752100752200752300C39001D6E095729C
:101B7300FF9001D5E09571FED3EF94E8EE94034016
:101B830016E5657008E570B47F037570019001D5A3
:101B9300E0F571A3E0F5729001DEE07002A3E0705E
:101BA30003021C96E5776003021C96E570647F6070
:101BB30003021C9690027B7416F090017E7402F06F
:101BC3009001D3E064557004A3E064AA7003021C7F
:101BD3008D9001857401F0A37436F0A37401F0A312
:101BE300742CF0A3E4F0A37402F0A3E4F0A3740F45
:101BF300F0A3E4F0A3740FF0E4A3F0A3F0A3F0A325
:101C0300F0A304F0A37440F0A3E4F0A37459F0A389
:101C13007401F0A37490F0A3E4F0A37414F0A3E4AC
:101C2300F0A37454F0A3E4F0A37402F0A3E4F0A3CC
:101C33007478F0A3E4F0A3740AF0A3E4F0A304F02F
:101C4300A3E4F0A37449F0A3E4F0A37450F0E4A375
:101C5300F0A3F0A3F0A3F0A3F0A3F0A3F0A3F0A3E9
:101C6300F0A3F0A3F0A3F0A3F0A37406F0E4A3F0B1
:101C7300A3F0A3F0A3F0A3F0A3F09001D37455F065
:101C8300A374AAF0E4FFFE1235BC756501757701F4
:101C930075707FE577B4010CE5737008E570B47F68
:101CA30003757002E5656008E570B47F0375700322
:101CB300E5696008E570B47F03757007E562600845
:101CC300E570B47F03757009E5766008E570B47F4D
:101CD30003757004E5686008E570B47F03757008E8
:101CE300E56E6008E570B47F03757005E5756008FF
:101CF300E570B47F03757006E570B40A0040030213
:101D03001F4D901D0CF8282873021D2A021D4F0237
:101D13001D72021D96021E2F021EDB021F04021EED
:101D23005C021E85021EB27E007F5A7D007B017A13
:101D330002797D121A92E490027DF0A304F0E4A3E9
:101D4300F0A304F0FB123D55757032227E007F5ADA
:101D53007D007B017A02797D121A9290027D7401D3
:101D6300F0A3F0E4A3F07402123D51757033227EA8
:101D7300007F5A7D007B017A02797D121A929002CC
:101D83007D7402F0A314F0E4A3F07404123D5175C2
:101D93007034227E007F5A7D007B017A02797D12A6
:101DA3001A9290027D7403F090027BE025E090028A
:101DB3007EF0752101752201752385E0FF90027D78
:101DC300E02FF524E4FDFC90027BE0FF3395E0FE79
:101DD300EF25E0FFEE33FEC3ED9FEE6480F8EC6485
:101DE3008098502CAB21AA22A9238D828C831216B2
:101DF30006FF747F2DF58274023CF583EFF08D822C
:101E03008C831216062524F5240DBD00010C80B722
:101E130090027BE0FF25E0247FF582E43402F58322
:101E2300E524123D52757035E4F565227E007F5A34
:101E33007D007B017A02797D121A9290027D7404EF
:101E4300F0A37401F0900262E090027FF024051287
:101E53003D51757036E4F576227E007F5A7D007B16
:101E6300017A02797D121A9290027D7407F0A374AD
:101E730001F0E4A3F0A37408123D52757039E4F540
:101E830069227E007F5A7D007B017A02797D121AD6
:101E93009290027D7408F0A37401F0900181E090A8
:101EA300027FF02409123D5175703AE4F568227EF1
:101EB300007F5A7D007B017A02797D121A9290028B
:101EC3007D7409F0A37401F0E4A3F0A3740A123D36
:101ED3005275703BE4F562227E007F5A7D007B01E0
:101EE3007A02797D121A9290027D7405F0A374012F
:101EF300F0E4A3F0A37406123D52757037E4F56E57
:101F0300227E007F5A7D007B017A02797D121A922C
:101F130090027D7406F0A37403F090020DE0FEA31B
:101F2300E090027FF0EEFFA3EFF0900180E0FF90DE
:101F33000281F090027FE02409FEA3E02E2F90029D
:0A1F430082123D52757038E4F57506
:011F4D002271
:103B2D00023C85E493A3F8E493A34003F68001F2ED
:103B3D0008DFF48029E493A3F85407240CC8C33399
:103B4D00C4540F4420C8834004F456800146F6DF68
:103B5D00E4800B010204081020408090255CE47E77
:103B6D00019360BCA3FF543F30E509541FFEE4935D
:103B7D00A360010ECF54C025E060A840B8E493A324
:103B8D00FAE493A3F8E493A3C8C582C8CAC583CA4F
:103B9D00F0A3C8C582C8CAC583CADFE9DEE780BE07
:0127C3000015
:1015ED00BB010689828A83E0225002E722BBFE02FC
:0915FD00E32289828A83E493222F
:10160600BB010CE58229F582E5833AF583E0225099
:1016160006E92582F8E622BBFE06E92582F8E222E3
:0D162600E58229F582E5833AF583E49322FD
:10163300BB010689828A83F0225002F722BBFE0196
:02164300F32290
:10164500F8BB010DE58229F582E5833AF583E8F0DB
:10165500225006E92582C8F622BBFE05E92582C887
:02166500F2226F
:10166700BC000BBE0029EF8DF084FFADF022E4CC67
:10167700F875F008EF2FFFEE33FEEC33FCEE9DEC30
:10168700984005FCEE9DFE0FD5F0E9E4CEFD22ED76
:10169700F8F5F0EE8420D21CFEADF075F008EF2FC0
:1016A700FFED33FD4007985006D5F0F222C398FDB1
:0516B7000FD5F0EA224E
:1016BC00BB010A89828A83E0F5F0A3E022500687F9
:1016CC00F009E71922BBFE07E3F5F009E3192289BB
:0B16DC00828A83E493F5F074019322EE
:1016E700BB0110E58229F582E5833AF583E0F5F041
:1016F700A3E0225009E92582F886F008E622BBFE1E
:101707000AE92582F8E2F5F008E222E5832AF58363
:08171700E993F5F0A3E9932228
:10171F00BB010A89828A83F0E5F0A3F0225006F715
:0F172F0009A7F01922BBFE06F3E5F009F3192212
:10173E00F8BB0111E58229F582E5833AF583E8F0DD
:10174E00E5F0A3F0225009E92582C8F608A6F0229A
:0D175E00BBFE09E92582C8F2E5F008F22281
:10176B00E88FF0A4CC8BF0A42CFCE98EF0A42CFC1D
:10177B008AF0EDA42CFCEA8EF0A4CDA8F08BF0A49B
:10178B002DCC3825F0FDE98FF0A42CCD35F0FCEBFA
:10179B008EF0A4FEA9F0EB8FF0A4CFC5F02ECD39BF
:0F17AB00FEE43CFCEAA42DCE35F0FDE43CFC222C
:1017BA0075F008758200EF2FFFEE33FECD33CDCCE6
:1017CA0033CCC58233C5829BED9AEC99E582984069
:1017DA000CF582EE9BFEED9AFDEC99FC0FD5F0D646
:1017EA00E4CEFBE4CDFAE4CCF9A88222B800C1B970
:1017FA000059BA002DEC8BF084CFCECDFCE5F0CBAE
:10180A00F97818EF2FFFEE33FEED33FDEC33FCEBE6
:10181A0033FB10D703994004EB99FB0FD8E5E4F9A1
:10182A00FA227818EF2FFFEE33FEED33FDEC33FC8E
:10183A00C933C910D7059BE99A4007EC9BFCE99A82
:10184A00F90FD8E0E4C9FAE4CCFB2275F010EF2FC7
:10185A00FFEE33FEED33FDCC33CCC833C810D707C7
:10186A009BEC9AE899400AED9BFDEC9AFCE899F802
:0E187A000FD5F0DAE4CDFBE4CCFAE4C8F92295
:103F6800C2D5E830E70FB2D5E4C39BFBE49AFAE484
:103F780099F9E498F8EC30E717B2D5123F9E12177A
:103F8800F6E4C39BFBE49AFAE499F9E498F8800311
:103F98001217F630D50DE4C39FFFE49EFEE49DFDA5
:043FA800E49CFC2277
:0E188800C3E49FFFE49EFEE49DFDE49CFC2271
:10189600EB9FF5F0EA9E42F0E99D42F0EC6480C8C9
:0618A60064809845F02269
:1018AC00EB9FF5F0EA9E42F0E99D42F0E89C45F092
:0118BC002209
:1018BD00E8600FECC313FCED13FDEE13FEEF13FF09
:0318CD00D8F1222D
:1018D000E8600FEFC333FFEE33FEED33FDEC33FC76
:0318E000D8F1221A
:1018E300BB010789828A83021ACA5005E9F8021AE2
:1018F300BEBBFE05E9F8021AD689828A83021AE280
:10190300BB010DE58229F582E5833AF583021ACA04
:101913005007E92582F8021ABEBBFE07E92582F8C3
:10192300021AD6E58229F582E5833AF583021AE2A3
:10193300BB010789828A830219715005E9F8021AEB
:0A194300F2BBFE05E9F8021AFE22CD
:10194D00BB010DE58229F582E5833AF58302197114
:10195D005007E92582F8021AF2BBFE07E92582F845
:04196D00021AFE223A
:0C197100ECF0A3EDF0A3EEF0A3EFF022E9
:10197D00A8828583F0D083D0821219941219941203
:10198D001994121994E473E493A3C583C5F0C58328
:10199D00C8C582C8F0A3C583C5F0C583C8C582C8B4
:0119AD002217
:1019AE00BB010DE58229F582E5833AF58302197DA7
:1019BE005007E92582F8021B0ABBFE07E92582F8CB
:0419CE00021B2322B3
:1019D200F5F0C582A4C582C5F0C583A42583F5832D
:0119E20022E2
:0C19E300A42582F582E5F03583F583220F
:1019EF00BB010789828A83021B455005E9F8021B58
:1019FF003CBBFE05E9F8021B4E89828A83021B5706
:101A0F00BB010DE58229F582E5833AF583021B457B
:101A1F005007E92582F8021B3CBBFE07E92582F837
:101A2F00021B4EE58229F582E5833AF583021B57A7
:101A3F00D083D082F8E4937012740193700DA3A336
:101A4F0093F8740193F5828883E47374029368604A
:061A5F00EFA3A3A380DF4A
:101A6500D083D082F8E4937012740193700DA3A310
:101A750093F8740193F5828883E473740293B5F047
:0D1A8500067403936860E9A3A3A3A380D8AF
:101A9200EF4E6012EF60010EEDBB010B89828A836B
:101AA200F0A3DFFCDEFA2289F05007F709DFFCA978
:0C1AB200F022BBFEFCF309DFFCA9F022CF
:0C1ABE00E6FC08E6FD08E6FE08E6FF2254
:0C1ACA00E0FCA3E0FDA3E0FEA3E0FF228F
:0C1AD600E2FC08E2FD08E2FE08E2FF224C
:101AE200E493FC740193FD740293FE740393FF224A
:0C1AF200ECF608EDF608EEF608EFF62220
:0C1AFE00ECF208EDF208EEF208EFF22224
:101B0A00D083D082E493F608740193F608740293A2
:091B1A00F608740393F6740473D9
:101B2300D083D082E493F208740193F20874029391
:091B3300F208740393F2740473C8
:091B3C00E6FB08E6FA08E6F922CE
:091B4500E0FBA3E0FAA3E0F922A1
:091B4E00E2FB08E2FA08E2F922C8
:0C1B5700E493FB740193FA740293F922EA
:00000001FF
