:030000000235D1F5
:0C35D100787FE4F6D8FD7581770236188B
:10278500016E0002650000016F7F02700000026BA0
:102795000000026900000176000172000164000179
:1027A5007500016800016700016100016D00017796
:1027B50001017400017300026200004E034A10001B
:1027C5000378000000000000000000004E039E207A
:1027D500000378000000000000000000004E039098
:1027E50000100378000000000000000000004E0308
:1027F5008200200378000000000000000000004E69
:102805000374004003780000000000000000000091
:102815004E0358008003780000000000000000000F
:10282500004E036601000378000000000000000070
:022835000000A1
:10000E00438E80E4F589758A67758CFCD28CD2A9F3
:03001E00D2AF223C
:103B3D00E4F5957596207580FF7590FF75A0FF755E
:083B4D00B0FF12000E023B81E3
:103B55007E007F6A7D007B017A017931121883909E
:063B6500012D7401F022A5
:102BA4008B5E8A5F89609000021214D8FFAEF0E554
:102BB400F06003022D98EF24F6604C24F6700302B3
:102BC4002C7224F67003022CE8241E6003022D9854
:102BD40090000CE4F5F012152F1214ADFF900128AB
:102BE400E055F0FEA3E05F4E6003022D98AB5EAAB1
:102BF4005FA96090000275F00A12152F900004126C
:102C0400179F0000000022AB5EAA5FA9601214ADFA
:102C1400FF900128E055F0FEA3E05F4E703790006E
:102C2400041216F4EF2401FFE43EFEE43DFDE43C0F
:102C3400FC90000412173E9000041216F4E47B1476
:102C4400FAF9F8C312169D4003022D98AB5EAA5FF1
:102C5400A960022D8EAB5EAA5FA9609000041217D2
:102C64009F00000000900002E4F5F0022D95AB5E99
:102C7400AA5FA9609000041216F4EF2401FFE43E59
:102C8400FEE43DFDE43CFC90000412173E1214AD3A
:102C9400FF900128E055F0FEA3E05F4E601AAB5EA2
:102CA400AA5FA960900002E475F01E12152F90002F
:102CB4000812179F00000000AB5EAA5FA960900095
:102CC400041216F4E47B907A01F9F8C312169D40BD
:102CD40003022D98AB5EAA5FA96090000CE475F026
:102CE40001022D95AB5EAA5FA9609000041216F450
:102CF400EF2401FFE43EFEE43DFDE43CFC900004CF
:102D040012173E1214ADFF900128E055F0FEA3E027
:102D14005F4E6066AB5EAA5FA9609000081216F46D
:102D2400EF2401FFE43EFEE43DFDE43CFC9000089A
:102D340012173E9000081216F4E47B14FAF9F8C353
:102D440012169D504FAB5EAA5FA96090000C12143E
:102D5400D8640145F090000C700575F0038004E41C
:102D640075F00212152F90000412179F0000000046
:102D7400900002740375F0788017AB5EAA5FA960B7
:102D840090000812179F00000000900002E475F004
:052D94001412152F22AE
:103A6D007B017A037990122BA47B017A0379821260
:103A7D002BA47B017A037958122BA47B017A03794D
:103A8D0066122BA47B017A03794A122BA47B017A4F
:063A9D0003799E022BA438
:103AFB00E4900392F0A3F0900384F0A3F090035AA8
:103B0B00F0A3F0900368F0A3F090034CF0A3F090B7
:063B1B0003A0F0A3F0225C
:102D9900900356E0FEA3E0FF4E604690019F74EF5A
:102DA900F0A374FFF0EF64014E701290012C04F04F
:102DB900E5634562702BF5627563018021EF64025A
:102DC9004E90012C7004740280027403F0E49003A5
:102DD90056F0A3F090034CF0A3F0F562F563757417
:102DE900019003AAE0FEA3E0FF4E604690019F74A4
:102DF900DFF0A374FFF0EF64014E701290012C0410
:102E0900F0E5634562702BF5627563018021EF641B
:102E1900024E90012C7004740280027403F0E49055
:102E290003AAF0A3F09003A0F0A3F0F562F563758F
:102E3900740190039CE0FEA3E0FF4E604690019F61
:102E490074FFF0A374EFF0EF64014E701290012C3F
:102E590004F0E5634562702BF5627563018021EF2B
:102E690064024E90012C7004740280027403F0E431
:102E790090039CF0A3F0900392F0A3F0F562F56340
:102E890075740190038EE0FEA3E0FF4E6046900149
:102E99009F74FFF0A374DFF0EF64014E701290018C
:102EA9002C04F0E5634562702BF56275630180219E
:102EB900EF64024E90012C7004740280027403F0D6
:102EC900E490038EF0A3F0900384F0A3F0F562F58B
:102ED90063757401900364E0FEA3E0FF4E604690C1
:102EE900019F74FFF0A3747FF0EF64014E7012909C
:102EF900012C04F0E5634562702BF562756301806E
:102F090021EF64024E90012C700474028002740354
:102F1900F0E4900364F0A3F090035AF0A3F0F56293
:102F2900F563757401900372E0FEA3E0FF4E6045FE
:102F390090019F74FEF0A304F0EF64014E701290AB
:102F4900012C04F0E5634562702BF562756301801D
:102F590021EF64024E90012C700474028002740304
:102F6900F0E4900372F0A3F0900368F0A3F0F56227
:062F7900F56375740122EE
:03000B00023AA313
:103AA300C0E0C0F0C083C082C0D075D00890016E62
:103AB300E004F0700690016DE004F0123ACF123A80
:0C3AC3006DD0D0D082D083D0F0D0E032A3
:1036CC00E4F56E123B3D123B5512351890016DE03E
:1036DC00F570A3E0F571E573702AC390016EE09567
:1036EC0071FF90016DE09570FED3EF94F4EE9401B0
:1036FC004012E0FEA3E08E70F5718E6BF56C123A01
:10370C00FB757301E573B401CD120026900187E0BF
:10371C00B4020C121D5E9001877403F0E4A3F01246
:07372C001954122D9980AF22
:0D2837004A03AC00FF00FF00FF00FF00FFA0
:0C37F500C290C2907F007E007D007C002E
:083801008F2C8E2B8D2A8C29DF
:10380900E4F530F52FF52EF52DAF2CAE2BAD2AAC06
:1038190029AB30AA2FA92EA82DC3121687501C0038
:10382900E4FAF9F8E5302401F530EA352FF52FE906
:0B383900352EF52EE8352DF52D80CE44
:013844002261
:103B9700D290D290D291D2911237F9C291C291228A
:103B6B001237F5C291C2911237F9D290D290123717
:063B7B00F9D291D2912263
:0F3BA7001237F5D290D2901237F9C290C2902205
:043A32008E268F2726
:103A3600E4F5281237F91237F5E52730E006D2917A
:103A4600D2918004C291C2911237F9E526C313F5CB
:103A560026E52713F527D290D2901237F90528E5E7
:063A660028C3940840CDC6
:013A6C002237
:10365D00123BCC123B977F407E00123A3212000390
:10366D00123BA7123BCC123B6B123B977FC07E00E7
:10367D00123A32120003123BA7123BCCE4F525E5BA
:10368D002525E024ACF582E43403F583E0FEA3E0C8
:10369D00FF123A32120003123BA7123BCC0525E56F
:1036AD0025C3940540D9123B6B123B977F8C7E004E
:0F36BD00123A32120003123BA7123BCC023B6BB6
:05000300C294D2952219
:053BCC00D294D2952205
:1029A70030303030300000312D00322D00332D0013
:1029B700342D00352D00362D00372D00382D0039E8
:1029C7002D003130003131003132003133003134E4
:1029D70000313500313600313700313800313900E8
:1029E70032300032310032320032330032340032BA
:1029F7003500323600323700323800323900333092
:102A070000202020413100202020413200202020BA
:102A17004133002020204134002020204135002070
:102A27002020413600202020413700202020413837
:102A3700002020204139002020413130003531323B
:102A470033310020462D2D300020462D2D3100201A
:102A5700462D2D320020462D2D330020462D2D34B6
:102A67000020462D2D3500502D2D00452D2D0051D0
:102A7700322D2D2D00502D2D203100502D2D20329F
:102A870000502D2D20300020202031310020202023
:102A97003132002020203133002020203134002023
:102AA70020203135002020203136002020203137EA
:102AB700002020203138002020203139002020201C
:102AC70032300020202032310020202032320020F6
:102AD700204572720000010038FF29A700001E0080
:102AE700000101F9000000000000000000000000E4
:102AF700000000FF29AD400000000101800405002F
:102B07000001869F00000000000000000000000098
:102B170000000000000000000000000000000000AE
:102B2700000000000000000000000000000000009E
:102B37000000000000000000000000000000FEB0E0
:102B4700EDF9B3DBDFF0FFFB00004080003F065BE1
:102B57004F666D7D077F6F771F4E3D4F47FB771F92
:102B67004E3D7971FB37060E07386A761D73670588
:102B77005B313E1C5C313BED000000620800771FB3
:102B87004E3D4F47FB370638070E6A151D677350D2
:0D2B97005B783E1C5C313BED00000000004F
:10284400410130004101FA004101E0004101F91E5B
:1028540041012A0A41012B146078024C000003E76D
:10286400000003E7000003E7000000000000000090
:102874000000000000000000000000000000000054
:102884000000000000000000000000000000000044
:102894000000000000000000000000000000000034
:1028A4000000000000000000000000000000000024
:1028B4000000000000000000000000000000000014
:1028C4000000000000000000000000000000000004
:1028D40000000000603C01A40064006400010000EA
:1028E40000000000000000000000000000000000E4
:1028F40000000000000000000000000000000000D4
:1029040000000000000000000000000000000000C3
:10291400000000004801E10402FF2AFAFF2ADC4219
:10292400019F000041012C0041012D0141003400B0
:102934004100000041000100420006000042000C7A
:10294400000042000E00004200100000410012008E
:10295400420013000042001500004200170000422C
:102964000019000042001B000042001D000042004C
:102974001F00004200210000420023000042002703
:102984000000420029000141002D0042002E0000F9
:0429940041003000CE
:043733007BFFE4FD37
:103737008B258A2689278D28AB250527E527AA26E5
:103747007002052614F91213DEFF3395E0FE742488
:103757002FF582742B3EF583E493FD3395E0FCAFA0
:10376700280528EF3395E0FEEF25E0FFEE33FE74E2
:10377700AC2FF58274033EF583ECF0A3EDF0C3E5BF
:1037870028648094865009AA26A9271213DE70A8F8
:01379700220F
:0C204D0090012AE0FF90012EE0C39FFFED
:10205900E4F528EF12183020DC0020E80120F40212
:10206900210003210C042118052124062130072110
:102079003C0821480921540A21600B216C0C217864
:102089000D21840E21900F219C1021A81121B41239
:1020990021C01321CC1421D81521E41621F01721D0
:1020A900FC1822081922141A22201B222C1C223760
:1020B9001D224250224D51225852226353226E54FE
:1020C900227955228456228F57229A5822A55900DF
:1020D9000022AE7525FF7526297527AE0222AE7539
:1020E90025FF7526297527B10222AE7525FF7526AC
:1020F900297527B40222AE7525FF7526297527B7DC
:102109000222AE7525FF7526297527BA0222AE75FA
:1021190025FF7526297527BD0222AE7525FF75266F
:10212900297527C00222AE7525FF7526297527C393
:102139000222AE7525FF7526297527C60222AE75BE
:1021490025FF7526297527C90222AE7525FF752633
:10215900297527CC0222AE7525FF7526297527CF4B
:102169000222AE7525FF7526297527D20222AE7582
:1021790025FF7526297527D50222AE7525FF7526F7
:10218900297527D80222AE7525FF7526297527DB03
:102199000222AE7525FF7526297527DE0222AE7546
:1021A90025FF7526297527E10222AE7525FF7526BB
:1021B900297527E40222AE7525FF7526297527E7BB
:1021C9000222AE7525FF7526297527EA0222AE750A
:1021D90025FF7526297527ED0222AE7525FF75267F
:1021E900297527F00222AE7525FF7526297527F373
:1021F9000222AE7525FF7526297527F60222AE75CE
:1022090025FF7526297527F90222AE7525FF752642
:10221900297527FC0222AE7525FF7526297527FF2A
:102229000222AE7525FF75262A7527028077752546
:10223900FF75262A752705806C7525FF75262A7571
:10224900270880617525FF75262A75270E80567522
:1022590025FF75262A752714804B7525FF75262AB3
:1022690075271A80407525FF75262A752720803520
:102279007525FF75262A752726802A7525FF752657
:102289002A75272C801F7525FF75262A7527328008
:10229900147525FF75262A75273880097525FF7558
:1022A900262A75273EAB250527E527AA26700205AC
:1022B9002614F91213DEFF3395E0FE74242FF582FC
:1022C900742B3EF583E493FD3395E0FCAF28052894
:1022D900EF3395E0FEEF25E0FFEE33FE74AC2FF50A
:1022E9008274033EF583ECF0A3EDF0C3E528648026
:0D22F90094865009AA26A9271213DE70A8AA
:0123060022B4
:04396B00AC07A905F7
:10396F00AD04E9FF3395E0FEECFB3395E0FAEB2F66
:10397F00FFEA3EFEEDFB3395E0FAC3EB9FEE64806A
:10398F00F8EA6480985018EB25E0FFEA33FE74AC38
:0F399F002FF58274033EF583E4F0A3F00D80C38F
:0139AE0022F6
:0A3444008F227B017A0179EFE4FD8D
:08344E008B258A2689278D28B1
:10345600E4F529AB25AA26A9279000011213F7B493
:103466002E05E529B40148AB250527E527AA2670D0
:1034760002052614F91213DEFF3395E0FE74242F9D
:10348600F582742B3EF583E493FD3395E0FCAF287B
:103496000528EF3395E0FEEF25E0FFEE33FE74AC32
:1034A6002FF58274033EF583ECF0A3EDF08056AB66
:1034B600250527E527AA267002052614F91213DE2C
:1034C600FF3395E0FE74242FF582742B3EF583E4DA
:1034D600934480FD3395E0FCAF280528EF3395E053
:1034E600FEEF25E0FFEE33FE74AC2FF58274033E4B
:1034F600F583ECF0A3EDF075290174012527F52776
:10350600E43526F526C3E528648094865003023404
:01351600595B
:013517002291
:1039F300E4FDEDFF3395E0FEEF25E0FFEE33FE74CB
:103A0300312FF974013EFA7B01EDFF3395E0FEEFB0
:103A13007803C333CE33CED8F92438F58274003E0D
:0E3A2300F583EBF0A3EAF0A3E9F00DBD1EC49D
:013A31002272
:022307008F2124
:10230900EF3395E0FE902AE675F00FEF1217D4EE41
:1023190075F00FA42583F583E493F526740193F5ED
:10232900270527E527AE267002052614FF123B2153
:102339008F25AF21EF3395E0FE902AE875F00FEF76
:102349001217D4EE75F00FA42583F583E493FB747B
:102359000193FA740293F9741E121424E4F528F512
:1023690029E521FD3395E0FC902AE575F00FED1282
:1023790017D4EC75F00FA42583F583E493FF339507
:10238900E0FEC3E5299FEE6480F8E5286480984063
:102399000302249DE529AE287802C333CE33CED873
:1023A900F9244EF58274023EF583E0FEA3E0FFC0F6
:1023B90007C006902ADD75F00FED1217D4EC75F001
:1023C9000FA42583F583E493FB740193FA740293B4
:1023D900F9E529AE287803C333CE33CED8F929F9E4
:1023E900EA3EFA900003D0E0D0F012152FE529AEAD
:1023F900287802C333CE33CED8F9244CF58274023F
:102409003EF583E0FCA3E0FDAF21EF3395E0FE90BC
:102419002ADD75F00FEF1217D4EE75F00FA425839E
:10242900F583E493FB740193FA740293F9E529AEF9
:10243900287803C333CE33CED8F929F9EA3EFA9086
:102449000005EC8DF012152FAF21EF3395E0FE90CA
:102459002ADD75F00FEF1217D4EE75F00FA425835E
:10246900F583E493FB740193FA740293F9E529AEB9
:10247900287803C333CE33CED8F929F9EA3EFA9046
:102489000007E41214360529E529600302236A05C9
:102499002802236AE5217009752201752301752433
:1024A90031AF21EF3395E0FE902AE375F00FEF127B
:1024B90017D4EE75F00FA42583F583E493F52674FC
:1024C9000193F527E4F528F529AF21EF3395E0FECF
:1024D900902AE575F00FEF1217D4EE75F00FA425C9
:1024E90083F583E493FF3395E0FEC3E5299FEE640A
:1024F90080F8E52864809850530527E527AE2670B3
:1025090002052614FF123B21AB22AA23A924EF12AC
:10251900142474012524F524E43523F5230527E53E
:1025290027AE267002052614FF123B21AB22AA23EF
:10253900A924EF12142474012524F524E43523F584
:0C254900230529E529708205280224D210
:012555002263
:10351800C2A57A2A794412373312365D9001E3E066
:10352800F9A3E0FAA3E09002C4C9F0A3EAF0A3E982
:10353800F0E4FF9002C4E0FBA3E0FAA3E0F9EFFD9A
:103548003395E08D82F58374151217C3121800EABB
:10355800494B60030F80DC9001E6E0FBA3E0FAA38F
:10356800E0F9900031EBF0A3EAF0A3E9F090000154
:10357800121800900035EBF0A3EAF0A3E9F0E4FF9D
:103588001223071239F3E49001E9F090012EF0F5C7
:10359800177518019001A2F0900171F090016FF079
:1035A800A3F0900172F090017812176E00000000ED
:1035B800122F7FE490016DF0A3F0900174F0A3F056
:0835C80074FF900128F0A3F04C
:0135D00022D8
:04313B008E298F2A20
:10313F00756EAA902AE375F00FEF1217D4EE75F0A3
:10314F000FA42583F583E493FE740193FF123926B0
:10315F00E4F56EE52A700DE5297009752B01752CC4
:10316F0001752D31902AE375F00FE52A1217D4E57A
:10317F002975F00FA42583F583E493F52F7401933C
:10318F00F530E4F52E902AE575F00FE52A1217D4E5
:10319F00E52975F00FA42583F583E493FF3395E0BC
:1031AF00FEC3E52E9FEE6480F874809840030232D0
:1031BF004B756EAAAB2BAA2CA92D1213DEFDAF30C7
:1031CF00AE2F123845AF30AE2F123B21AE07AB2BCF
:1031DF00AA2CA92D1213DE6E6007900170E0442017
:1031EF00F07401252DF52DE4352CF52C0530E53047
:1031FF007002052FAB2BAA2CA92D1213DEFDAF30B9
:10320F00AE2F123845AF30AE2F123B21AE07AB2B8E
:10321F00AA2CA92D1213DE6E6007900170E04420D6
:10322F00F07401252DF52DE4352CF52C0530E53006
:0F323F007002052FE4F56E052E023194756401BF
:01324E00225D
:1038DE00EF14601814601D14602214602714602CFD
:1038EE00240570337BFF7A2A794A80267BFF7A2A59
:1038FE007950801E7BFF7A2A795680167BFF7A2AB2
:10390E00795C800E7BFF7A2A796280067BFF7A2AA9
:08391E007968E4FD123737223D
:10002600A2A4E4335401FF900128E0FCA3E054FEAF
:10003600FDECFEED4FFF900128EEF0A3EFF0A2A33A
:10004600E433540125E0FFE433FE900128E0FCA3ED
:10005600E054FDFDEC4EFEED4FFF900128EEF0A3BF
:10006600EFF0A2A2E4FE3354017802C333CE33CEBE
:10007600D8F9FF900128E0FCA3E054FBFDEC4EFE0E
:10008600ED4FFF900128EEF0A3EFF0A2A1E4FE33BE
:1000960054017803C333CE33CED8F9FF900128E05C
:1000A600FCA3E054F7FDEC4EFEED4FFF900128EE69
:1000B600F0A3EFF0A2A0E4335401C4F8540FC868CB
:1000C600FFE4C454F048FE900128E0FCA3E054EF9E
:1000D600FDEC4EFEED4FFF900128EEF0A3EFF0A2EF
:1000E600B5E4FE3354017805C333CE33CED8F9FFD9
:1000F600900128E0FCA3E054DFFDEC4EFEED4FFF3F
:10010600900128EEF0A3EFF0A2B3E4FE3354017899
:1001160006C333CE33CED8F9FF900128E0FCA3E026
:1001260054BFFDEC4EFEED4FFF900128EEF0A3EF1D
:10013600F0A2B2E4FE3354017807C333CE33CED8EF
:10014600F9FF900128E0FCA3E0547FFDEC4EFEEDA4
:100156004FFF900128EEF0A3EFF0A2A6E43354017E
:10016600FE900128E054FEFCA3E0FDEC4EFFED906E
:100176000128CFF0A3EFF0A2A7E433540125E0FE57
:10018600900128E054FDFCA3E0FDEC4EFFED90014C
:1001960028CFF0A3EFF0A292E433540125E025E046
:1001A600FE900128E054FBFCA3E0FDEC4EFFED9031
:1001B6000128CFF0A3EFF0A293E433540133333395
:1001C60054F8FE900128E054F7FCA3E0FDEC4EFF46
:1001D600ED900128CFF0A3EFF0A296E4335401C4CA
:1001E60054F0FE900128E054EFFCA3E0FDEC4EFF36
:1001F600ED900128CFF0A3EFF0A297E4335401C4A9
:100206003354E0FE900128E054DFFCA3E0FDEC4E01
:10021600FFED900128CFF0A3EFF0A2CCE433540118
:10022600C4333354C0FE900128E054BFFCA3E0FD64
:10023600EC4EFFED900128CFF0A3EFF0A2CDE43312
:100246005401C43333335480FE900128E0547FFCBC
:10025600A3E0FDEC4EFFED900128CFF0A3EFF09068
:100266000128E0FFA3E090000CCFF0A3EFF0900090
:1002760010E0FEA3E0FF90000CE0FCA3E0FD6F7031
:1002860002EC6E607990016DE0FEA3E0FF90001D28
:10029600EEF0A3EFF0900019E07002A3E070119069
:1002A6000025EEF0A3EFF0900000E04401F0800797
:1002B600900000E054FEF0900015E0FEA3E0FF90F1
:1002C600016DE0FAA3E0FBC39FFFEA9EFED3EF9425
:1002D60032EE94004025900010ECF0A3EDF0900073
:1002E60013EAF0A3EBF0E4900017F0A3F0A3F0A359
:1002F600F0900029F0A304F00203FF0203F8900037
:1003060025E0FEA3E0FF90016DE0FCA3E0FDC39FA6
:10031600FFEC9EFED3EF9432EE940040079000006F
:10032600E054FEF090001DE0FEA3E0FFC3ED9FFF4A
:10033600EC9EFED3EF9430EE9475402E90016DE066
:10034600FFA3E090001DCFF0A3EFF0900023E07034
:1003560002A3E07015E51864114517600D751700C6
:10036600751801E4900021F0A3F0900013E0FEA3BD
:10037600E0FF90016DE0FCA3E0FDC39FFFEC9EFE55
:10038600D3EF9432EE94004069900015ECF0A3EDA3
:10039600F090000CE0FEA3E0F47002EEF4605A90D8
:1003A6000019E07002A3E07050900018E004F070AD
:1003B60006900017E004F0D3900018E094649000D3
:1003C60017E0648094804031900019E4F0A304F0B3
:1003D600900029E4F0A304F0E4900027F0A3F09045
:1003E600001BECF0A3EDF0900017E4F0A3740AF004
:1003F6008007E490000CF0A3F0900019E07002A3CF
:10040600E0605B90001BE0FEA3E0FF90016DE0FC66
:10041600A3E0FDC39FFFEC9EFED3EF9464EE940031
:10042600403C900028E004F07006900027E004F0BD
:10043600900027E0FEA3E0FFD39432EE6480948020
:100446004007A3E4F0A3740AF0EF4E600890001B87
:10045600ECF0A3EDF090000EE4F0A374FFF0900032
:100466000CE0FEA3E0FF4E6021A3E0FCA3E0FDEF5D
:100476006D7002EE6C600C90000CA3A3EEF0A3EF7F
:10048600F08007E490000CF0A3F090000CE0FEA3CF
:10049600E0FFF47003EE64FD600FEFF47003EE64AA
:1004A600FB6006BEF714BFFF1175740190019FEE45
:1004B600F0A3EFF090012C7402F0E517600302122E
:1004C6009BE51824FE7003020937147003020C130F
:1004D600147003020EE724FB700302126224F97003
:1004E60003020AF2147003020A3F24106003021288
:1004F6009B90000CE0FEA3E08EF0121856067E7F5D
:10050600FF0627BFFF0738FFBF06D3FFF70573FFB8
:10051600FB0602FFFD0523FFFE0000074FE49000E7
:1005260030F0900021E07002A3E070269001EA749A
:1005360030F0A3F0A3F0A3F0A3F09001A17404F0AF
:100546007B017A0179EAE4FD1237377517007518D1
:100556000222900034E0B4010AE4F090002DF090FD
:1005660001FAF0E4900021F0A3F002074FE49000B6
:1005760030F0900019E07002A3E0606E900021E078
:100586007002A3E07064FFFEFDFC900180E0F8A31A
:10059600E0F9A3E0FAA3E0FBC312169D604C9001BC
:1005A6008012176E0000000090017C12176E00008A
:1005B600000090017812176E00000000756EAA7F89
:1005C600007E441239267F007E461239267F007E41
:1005D600481239267F007E4A1239267F007E4C1249
:1005E6003926E4F56E756D01F57790012DE064010D
:1005F600600302074F756701F002074FE490003071
:10060600F090016DE0FFA3E090001FCFF0A3EFF0A4
:1006160090012DE0600302074F75670104F00207A1
:100626004FE4900030F0900021E07002A3E06003F8
:1006360002074F900031E0FBA3E0FAA3E0F9900037
:1006460001121800900035EBF0A3EAF0A3E9F0E4FC
:10065600900241F0A3F0A304F0E490012EF0900084
:100666000104F090012AE09002C7F0D364809480E0
:1006760050030213DD020A18E4900030F0900021C6
:10068600E07002A3E0600302074F900031E0FBA395
:10069600E0FAA3E0F9900001121800900035EBF0A3
:1006A600A3EAF0A3E9F0E4900241F0A304F0A3F07A
:1006B60090012EF0900001F090012AE09002C7F020
:1006C600D36480948050030213DD020A189000342C
:1006D600E07037900019E07002A3E06010900030DF
:1006E600E0C3648094A8500AE004F08005E490001A
:1006F60030F090016DE0FFA3E090001FCFF0A3EF74
:10070600F0A3E4F0A37402F0803F75740190019F9A
:1007160074FFF0A374BFF090012C7402F0E4900013
:1007260021F0A3F0900034F090002DF09001FAF043
:100736008017900034E07011756101900021F0A3DC
:100746007404F09000347401F0900021E07002A36C
:10075600E060030208869001E2E0FF900004E4F006
:10076600A3EFF090012EE0F52190016FE07002A357
:10077600E07066900171E07020A3E0B40111900171
:10078600FA7401F090002DE0700C04F0020810904D
:100796000000E054FDF00208107A2A796E12373311
:1007A600900171E0FB547FFF3395E0FEFDFC900065
:1007B60008121762EB30E70890002DE0700204F093
:1007C6001225648F227B017A0179F27D0312344E61
:1007D6009001FA7401F002085190016FE0FEA3E067
:1007E600FF640B4E6006EF640C4E7034900172E0AD
:1007F600B401109001FA7401F090002DE0700B0422
:10080600F08007900000E054FDF0900180E0FCA32A
:10081600E0FDA3E0FEA3E0FF12255E123444802B28
:100826007BFF7A2A7972E4FD12373790002DE0704B
:100836000204F090016F1225568F227B017A01790E
:10084600F27D0312344EE49001FAF09001A2E070BA
:100856000302091B9001E1E0FF9001E9E004FEF0CC
:10086600D3EF6480F8EE648098500302091BE4F02D
:1008760090012EE004F0E4900004F0A3F002091BBE
:10088600900021E07004A3E06402703390017612B8
:10089600255612344490001FE0FEA3E0FFC39001EA
:1008A6006EE09FFF90016DE09EFED3EF94D0EE9434
:1008B600074062900021E4F0A37403F002091B9044
:1008C6000021E07004A3E064037026900174E0FE4A
:1008D600A3E0FFE4FCFD900008121762900008A355
:1008E600A3E0FEA3E0FFE4FDFC12255E1234448083
:1008F60024900021E07004A3E0640470187BFF7A62
:100906002A7976FD12373790002DE0700204F090B8
:1009160001FA7401F0900030E0642860030212A12D
:10092600F0F517751810900021F0A37404F0020B6F
:100936009C90000CE0FEA3E08EF012185609A7FF6B
:10094600F70962FFFB0978FFFD0957FFFE00000A61
:100956001FE490012EF0F517751801229001A1E011
:1009660014F0C3648094804003020A1F7404F002EA
:100976000A1F9001A1E0FF3395E0FE74EA2FF5828D
:1009860074013EF583E004F0D3648094B950030209
:100996000A1F74EA2FF58274013EF5837430F080E5
:1009A600789001EAE0643160030213DDA3E064306D
:1009B60060030213DDA3E0643160030213DDA3E0EC
:1009C600643060030213DDA3E0643160030213DDCB
:1009D600900031E0FBA3E0FAA3E0F99000011218C1
:1009E60000900035EBF0A3EAF0A3E9F09002417421
:1009F60001F0E4A3F0A304F090012AE090012EF0A8
:100A06009001F9E09002C7F0D3648094805003020D
:100A160013DD75170075180322900006E07002A317
:100A2600E0600D900019E07002A3E070030211C8A7
:100A36007B017A0179EA02129490000CE0FEA3E0B1
:100A46008EF01218560A53FFFE00000A84E4900046
:100A560021F0A3F09001A17404F0E49001E9F09074
:100A660002417478F09002437401F0E490012EF094
:100A7600F51775180190002DF09001FAF0229001FB
:100A86006FE0FEA3E0FF640B4E6006EF640C4E7051
:100A960044EF640B4E70147BFF7A2A797CFD123783
:100AA6003790002DE0702504F0802190016FE070F2
:100AB60004A3E0640C60030212A17BFF7A2A798208
:100AC600FD12373790002DE0700204F09001FA74A1
:100AD60001F00212A17BFF7A2A7988E4FD123737EA
:100AE600E490002DF09001FAF00212A190000CE0C3
:100AF600FEA3E08EF01218560C0A7FFF0C01BFFF12
:100B06000BB9DFFF0BC2EFFF0BB0F7FF0BA7FBFF25
:100B16000BEFFDFF0BE6FEFF0BDDFF7F0BF8FFBFC4
:100B26000BCBFFDF0BD4FFEF0B8BFFFB0B66FFFD41
:100B36000B3EFFFE000012A1E4900021F0A3F0900E
:100B460001A17404F0E49001E9F09002417478F098
:100B56009002437401F0E490012EF0F51702129E04
:100B66009001E0E0C3648094815006E004F075755E
:100B7600019001E0E0FF1238DE9001E0E0D36480EE
:100B860094800212A19001E0E0D364809480400634
:100B9600E014F07575019001E0E0FF1238DE0212F4
:100BA600A17BFF7A2A798E0212947BFF7A2A7994A6
:100BB6000212947BFF7A2A799A0212947BFF7A2A90
:100BC60079A00212947BFF7A2A79A60212947BFFFF
:100BD6007A2A79AC0212947BFF7A2A79B2021294AD
:100BE6007BFF7A2A79B80212947BFF7A2A79BE02B1
:100BF60012947BFF7A2A79C40212947BFF7A2A79AF
:100C0600CA0212947BFF7A2A79D002129490000CC1
:100C1600E0FEA3E08EF01218560CE8FFF70C5EFF1C
:100C2600FB0C97FFFD0C33FFFE00000CEEE490007A
:100C360021F0A3F09001A17404F0E49001E9F09092
:100C460002417478F09002437401F0E490012EF0B2
:100C5600F517751801020CEE900241E0FD70139035
:100C6600012EE0FE14F0EE70099002C7E014900128
:100C76002EF0EDB4011990012AE0FF90012EE0FE5E
:100C860014F0EEB507099002C7E01490012EF0802B
:100C960043900241E0FF70199002C7E0FE90012EDA
:100CA600E004FDF0C3EE6480F8ED6480984002E451
:100CB600F0EFB4011F9002C7E0FF90012EE004FEA2
:100CC600F0C3EF6480F8EE648098400890012AE053
:100CD60090012EF090012EE0900242F0A37401F0F4
:100CE60080069000017405F0900241E070089000C3
:100CF60001E0600204F0900001E064056003020E6A
:100D060037F090012EE0F5219001A17404F09001D6
:100D16002F7402F0900249E0FBA3E0FAA3E0F91277
:100D260017E01214ADFFAEF0EE3395E0FDFC900136
:100D36009B121762751700751804AF21EF3395E003
:100D4600FEEF7803C333CE33CED8F9FF900035E0FB
:100D5600FBA3E0FAA3E02FF9EA3EFA900249EBF092
:100D6600A3EAF0A3E9F090012F7402F01217E075E0
:100D76002903E4F52A752B01752C01752DEFF52E47
:100D8600752F027D021225808F229001A37403F035
:100D96009001EA7430F0A3F0740314606A146042A0
:100DA600146003020E2BAF22EF3395E0FE74EF2F93
:100DB600F58274013EF583E0FF9001ECF0BF20035D
:100DC6007430F0AF22EF3395E0FE74F02FF58274A5
:100DD600013EF583E0FD9001EDF0BD20037430F097
:100DE60080349001EC7420F0AF22EF3395E0FE746E
:100DF600F02FF58274013EF583E0FD9001EDF0BD24
:100E060020037430F0800F9001EC7420F0A3F0AF53
:100E160022EF3395E0FE74F12FF58274013EF583DF
:100E2600E09001EEF0E490002BF0A3F0F5177518B2
:100E360004D3900005E09400900004E09400400F75
:100E4600A3E024FFF0900004E034FFF00212A1902A
:100E560001E2E0FF900004E4F0A3EFF090012EE041
:100E6600FF3395E0FEEF7803C333CE33CED8F9FFD8
:100E7600900035E0FBA3E0FAA3E02FF9EA3EFA90F2
:100E86000249EBF0A3EAF0A3E9F01217E01214AD61
:100E9600FFAEF0EE3395E0FDFC90019B12176290D9
:100EA6000241E0700890012EE0FF122059900241A5
:100EB600E0B4010312204D752903E4F52A752B01D0
:100EC600752C01752DEFF52E752F027A01799B127F
:100ED600257C8F2274EF2FF9E43401FA7B0102128C
:100EE6005B90000CE0FEA3E08EF01218561069FF2E
:100EF600F70F13FFFB0FC3FFFD0F07FFFE000011E7
:100F0600B4900241E060030211AE02118590012EF9
:100F1600E0FF3395E0FEEF7803C333CE33CED8F946
:100F2600FF900035E0FBA3E0FAA3E02FF9EA3EFAD2
:100F36009000071213F730E0030211B490019BE012
:100F4600FCA3E0FDA3E0FEA3E0FFC006C0079000FF
:100F560029E0FEA3E0FBAA06EA3395E0F9F8D007FC
:100F6600D006C3EF9BFFEE9AFEED99FDEC98FC9040
:100F7600019B121762900249E0FBA3E0FAA3E0F995
:100F86009000051214D8FFAEF0EE3395E0FDFC900C
:100F9600019BE0F8A3E0F9A3E0FAA3E0FBC3121675
:100FA6008740030211B4900249E0FBA3E0FAA3E0F4
:100FB600F99000051214D8FFAEF002105A90012ED7
:100FC600E0FF3395E0FEEF7803C333CE33CED8F996
:100FD600FF900035E0FBA3E0FAA3E02FF9EA3EFA22
:100FE6009000071213F730E0030211B490019BE062
:100FF600F8A3E0F9A3E0FAA3E0FB900029E0FEA342
:10100600E0FFEE3395E0FDFCEB2FFFEA3EFEE93D07
:10101600FDE83CFC90019B121762900249E0FBA39D
:10102600E0FAA3E0F99000031214D8F52485F02322
:10103600AE23FFEE3395E0FDFC90019BE0F8A3E0C4
:10104600F9A3E0FAA3E0FBD312168750030211B40A
:10105600AE23AF24EE3395E0FDFC90019B121762A0
:101066000211B4900019E07002A3E0600302117F40
:101076007B017A0179EA90012FE0F5297D0512338B
:101086004E90019B121762900249E0FBA3E0FAA37F
:10109600E0F99000031214D8FFAEF0EE3395E0FDB0
:1010A600FC90019BE0F8A3E0F9A3E0FAA3E0FBD3F0
:1010B600121687400302117F900249E0FBA3E0FA73
:1010C600A3E0F99000051214D8FFAEF0EE3395E0D8
:1010D600FDFC90019BE0F8A3E0F9A3E0FAA3E0FB96
:1010E600C3121687500302117F7E007F02E47066EA
:1010F600EF14604814602524FE705B90019BE0FCB1
:10110600A3E0FDA3E0FEA3E0FF900249E0FBA3E01D
:10111600FAA3E0F91217E0121724803A90019BA374
:10112600A3E0FEA3E0FF900249E0FBA3E0FAA3E000
:10113600F91217E0EE8FF0121510801A90019BA39A
:10114600A3A3E0FF900249E0FBA3E0FAA3E0F912B3
:1011560017E0EF1214249001ECE0B4300B7420F089
:10116600A3E0B430037420F07B017A0179EC7D02B0
:1011760012344EE4FFFE12313B900241E07029909A
:101186000021F0A3F09001A17404F0E49001E9F0CD
:101196009002417478F09002437401F0E490012EBD
:1011A600F0F517751801800675170075180390007D
:1011B60006E07002A3E06017900019E07002A3E059
:1011C600700D9001A1E0FF7D0112396B0212A19012
:1011D6000241E0700890012EE0FF12205990024172
:1011E600E0B4010312204D752905E4F52A752B019B
:1011F600752C01752DEFF52E752F027B017A01797D
:101206009B7D041225808F22EF3395E0FE74EF2F2D
:10121600F58274013EF583E0FF9001ECF0BF2003F8
:101226007430F0AF22EF3395E0FE74F02FF5827440
:10123600013EF583E0FD9001EDF0BD20037430F032
:1012460074F12FF58274013EF583E09001EEF07B98
:10125600017A0179EC7D0212344E803F900247E01C
:10126600FEA3E0FFC390016EE09FFF90016DE09E3C
:10127600FED3EF94E8EE9403400E900245E0FF3370
:1012860095E0F5178F1880137BFF7A2A79D6E4FD4F
:101296001237378006751700751801900012E07036
:1012A6001304F090016DE0FFA3E0900002CFF0A3DD
:1012B600EFF0803B900002E0FEA3E0FFC390016EDA
:1012C600E09FFF90016DE09EFED3EF9464EE9400E4
:1012D600401D900006E07002A3E070047F018002CA
:1012E6007F00900006E4F0A3EFF0E4900012F09087
:1012F600002DE024F6603124F6607124F6700302B6
:1013060013A7241D60030213CE90016DE0FFA3E036
:1013160090002ECFF0A3EFF0900000E04402F09092
:10132600002D740AF00213CE9001FAE070067E01D9
:101336007FF480047E007F3290002EE0FCA3E0FD67
:1013460090016DE0FAA3E0FBC39DFDEA9CFCD3EDA2
:101356009FEC9E407390002EEAF0A3EBF090000005
:10136600E054FDF090002D7414F0805C9001FAE0DA
:101376007E077FD090002EE0FCA3E0FD90016DE09B
:10138600FAA3E0FBC39DFDEA9CFCD3ED9FEC9E40D7
:101396003790002EEAF0A3EBF090002D741EF0803B
:1013A6002790016FE07002A3E07017900171E0547E
:1013B60080FF3395E04F700AA3E0700690002DF091
:1013C600800690002D7401F0900000E06004D2A524
:0713D6008002C2A512365D82
:0113DD0022ED
:10255600E0FEA3E0FFE4FCFD900008121762752977
:1025660005E4F52A752B01752C01752DEFF52E75F1
:0A2576002F027A0079087B017D0432
:022580008D28A4
:10258200E5286007D36480948440037F00221528E5
:10259200E4F537F533F532F531F530E528B40319B2
:1025A200E53760081216D412167980031216D48FFA
:1025B200338E328D318C30803FE528B4011FE537F0
:1025C20060111214ADFFAEF0C3E49FF531E49EF545
:1025D2003080251214ADF53185F030801BE528706E
:1025E20014E53760091213DEF404F530800A121381
:1025F200DEF53080037F0022E52F24FE6018146090
:102602001A24FB601124F8600D24D06009243F7065
:102612000D753602800875360A8003753610E52A74
:102622002529FFC374039FF5348F35C3E5356480D4
:102632009483500CC3740395352529F52975350308
:10264200E535B52904E52E6052AF36AB07EB33957D
:10265200E0FAF9F8AF33AE32AD31AC301239AFEB4C
:102662002430FFAB2BAA2CA92DE535FD3395E08D47
:1026720082F583EF121436AF33AE32AD31AC30C0D7
:1026820007AF36AB07EB3395E0FAF9F8D00712390A
:10269200AF8F338E328D318C308025E52AAB2BAA59
:1026A2002CA92DAF35600CEF3395E08F82F5837442
:1026B2002E800AEF3395E08F82F583742012143650
:1026C200AF351535D3EF648094804003022642E58E
:1026D2002E6025E537601EC3E5346480948350156F
:1026E200AB2BAA2CA92DAF34EF3395E08F82F58363
:1026F200742D1214367F0022E4F535F534AB2BAA83
:102702002CA92DAF35EF3395E08F82F5831213F7A5
:1027120064307035EF3395E0FEEF2401FFE43EFEB6
:10272200AD29ED3395E0FCC3EF9DEC6480F8EE64D7
:1027320080985015AF35EF3395E08F82F583742082
:102742001214360534053580B4E5376017AB2BAA71
:102752002CA92D1534AF34EF3395E08F82F58374B5
:102762002D121436E52A2529C39534F535C3648024
:102772009483500CC374039535FFC3E5349FF5343D
:02278200AF3472
:012784002232
:08334E008B258A268927AB05B7
:10335600E52924FE600C14600E2402700D753302FC
:10336600800875330A8003753310E4F52DF52CF5C6
:103376002BF52A753101F530F52FF52E8B32D3E575
:10338600326480948050030234101532AB25AA268D
:10339600A927AF32EF3395E08F82F5831213F7FF3B
:1033A600C3648094B040D7D3EF648094BF50CFAF4E
:1033B60032EF3395E08F82F5831213F7FF3395E0F2
:1033C600FEEF24D0FFEE34FFFEE4FCFDAB31AA3065
:1033D600A92FA82E12155CE52D2FF52DE52C3EF50F
:1033E6002CE52B3DF52BE52A3CF52AAB31AA30A975
:1033F6002FA82EAF33EF3395E0FEFDFC12155C8F40
:10340600318E308D2F8C2E023384AB25AA26A92728
:103416001213DE642D60139000011213F7642D6001
:10342600099000021213F7B42D0BAF2DAE2CAD2B65
:0D343600AC2A021679AF2DAE2CAD2BAC2ABE
:013443002266
:0D3BB600E4F5C7F5C5F5C675C380F5C4225A
:103B2100C2AF75C78375C5018FC48EC375C65A757B
:0B3B3100C6A50000AFC2123BB6D2AF29
:013B3C002266
:10384500E56EFB7A0064AA7046C2AFEB64AA70030A
:1038550075C783EB64AA4A700375C502EB64AA4A6F
:1038650070028FC4EB64AA4A70028EC3AF6E7E00ED
:10387500EF64AA70028DC2EF64AA4E700375C65A32
:10388500EF64AA4E700375C6A500123BB6D2AF22EF
:10392600AD6E7C00ED64AA703BC2AFED64AA700375
:1039360075C783ED64AA4C700375C503ED64AA4C84
:1039460070028FC4ED64AA4C70028EC3E56E64AA41
:10395600700375C65AE56E64AA700375C6A5001293
:053966003BB6D2AF22C8
:10324F00755444755500E4FB900178E0FCA3E0FD54
:10325F00A3E0FEA3E0FFA3E0F8A3E0F9A3E0FAA345
:10326F00E02FFFEA3EFEE93DFDE83CFCA3121762AA
:10327F00900180E0FCA3E0FDA3E0FEA3E024FFF5B6
:10328F0059EE34FFF558ED34FFF557EC34FFF55692
:10329F00AF59AE58AD57FC78071216AE7C007D05BE
:1032AF00121458AA04AB05E559547FFFE4FDFCEF57
:1032BF007015756EAAEB25E0FEE42400FFEE344492
:1032CF00FE123926E4F56EAF59AE58AD57AC5678AD
:1032DF00021216C18F5D8E5C8D5B8C5AE4FB7A0AED
:1032EF00F9F81215E7AC00AD01AE02AF038F5D8E9A
:1032FF005C8D5B8C5AEF2555F555EE3554F55475AD
:10330F005001755101755280756EAAE4F553AB509B
:10331F00AA51A9521213DEFDAF55AE54123845749F
:10332F00012552F552E43551F5510555E555700219
:0E333F0005540553E553C3940440D3E4F56EE2
:01334D00225D
:102F7F00752444752500E4F535F534F533F53275D0
:102F8F003910753827F537F536F54EF54FE54FAE55
:102F9F004E7802C333CE33CED8F92400F525EE3464
:102FAF0044F524752100752200752326AF25FE12E6
:102FBF003B21AB21AA22A923EF121424740125234C
:102FCF00F523E43522F522E5252401FFE43524FE1F
:102FDF00123B21AB21AA22A923EF1214247401253D
:102FEF0023F523E43522F522E5252402FFE43524D9
:102FFF00FE123B21AB21AA22A923EF121424740144
:10300F002523F523E43522F522E5252403FFE435B6
:10301F0024FE123B21AB21AA22A923EF12142485EF
:10302F00413D85403C853F3B853E3A85294185287A
:10303F004085273F85263EE54FB47F11E54EB4020C
:10304F000C85294585284485274385264274FFFF33
:10305F00FEFD7C7FAB29AA28A927A826D312169D8F
:10306F00505BAF35AE34AD33AC32A82612169D404F
:10307F004C853D49853C48853B47853A4685414DC2
:10308F0085404C853F4B853E4A85293585283485BB
:10309F002733852632E4854F39854E38F537F53697
:1030AF00FFFEFDFCAB39AA38A937A83612169D7062
:1030BF000C85454985444885434785424685292DDA
:1030CF0085282C85272B85262A054FE54F7002056D
:1030DF004EC39480E54E94025003022F9CE47F1060
:1030EF007E27FDFCAB39AA38A937A836C312169D27
:1030FF006022AF35AE34AD33AC329001801217621F
:10310F00900180E0FCA3E0FDA3E0FEA3E0FF9001AF
:10311F007C02176290018012176E00000000900170
:0B312F007C12176E0000000012324FEF
:01313A002272
:0E29980003140102C801100101110001120018
:103B8100759850758E40E4F589758BE0758DFED280
:063B91008ED2ACD2AF227F
:030023000238950B
:10389500C0E0C083C082C0D075D00830982BC298D4
:1038A500900188E0FF04F074C82FF582E43402F536
:1038B50083E599F09001877401F090016DE0FFA315
:1038C500E0900184CFF0A3EFF0309904C299C200D3
:0938D500D0D0D082D083D0E032C3
:103ACF00900187E0B40124900184E0FEA3E0FFC3DE
:103ADF0090016EE09FFF90016DE09EFED3EF940A80
:0C3AEF00EE940040069001877402F02263
:093BC3002000FDEFD200F599226B
:08379800A3F07B017A0179FB2B
:0637A0008B258A26892713
:1037A600E4F528FDFCAB25AA26A9279000011213F3
:1037B600F7FF3395E0FEEF2402FFE43EFEC3ED9FE4
:1037C600EE6480F8EC64809850168D828C83121318
:1037D600F7FF2528F528123BC30DBD00010C80C557
:0E37E600AF28123BC30510E5107003751001EB
:0137F40022B2
:101D5E007522007523007524009002C8E0FF7521DE
:101D6E0001900188E0FE14C36480F8E52164809838
:101D7E005018AD21ED3395E0FC74C82DF582740238
:101D8E003CF583E02FFF052180D774C72EF582E442
:101D9E003402F583E06F600B90016FE4F0A3741EC4
:101DAE000220489002C8E024F6B40B004003022043
:101DBE004C901DCD75F003A4C58325F0C583730229
:101DCE001DEE021E65021F9F0220370220370220E1
:101DDE0039022037022037022037022037022040F6
:101DEE009002CAE0FF9002C9E0FD2FFFE433A2E7A4
:101DFE0013EF139001F9F0EDC31390012AF0752241
:101E0E0001752301752431E4F5219001F9E0FF33CA
:101E1E0095E0FEEF25E0FFEE33FEAD21ED3395E0CC
:101E2E00FCC3ED9FEE6480F8EC648098502374CB75
:101E3E002DF58274023CF583E0FFAB22AA23A92480
:101E4E00E5213395E08D82F583EF1214360521805E
:101E5E00B97576010220359002CBE0FE9002CAE001
:101E6E00FDEDFF900176EEF0A3EFF09002CDE0FED7
:101E7E009002CCE0FDEDFF900174EEF0A3EFF09038
:101E8E0002CFE0FE9002CEE0FDEDFF90016FEEF08E
:101E9E00A3EFF09002D1E0FFE4FCFDFE78081216ED
:101EAE00C1A804A905AA06AB079002D0E0FFEB4F2C
:101EBE00FFEAFEE9FDE8FCC004C005C006C00790BD
:101ECE0002D3E0FFE4FCFDFE78181216C1D003D059
:101EDE0002D001D000EF4BFFEE4AFEED49FDEC487B
:101EEE00FCC004C005C006C0079002D2E0FFE4FCAF
:101EFE00FDFE78101216C1D003D002D001D000EF33
:101F0E004BF528EE4AF527ED49F526EC48F525E583
:101F1E0077602D900178E0FCA3E0FDA3E0FEA3E046
:101F2E00FFAB28AA27A926A825C312169D6011AFBC
:101F3E0028AE27AD26AC2590017812176212324FCB
:101F4E00900176E0B42B20A3E0B4671BE511701767
:101F5E00E528FFE527FE900147EEF0A3EFF0E4FF42
:101F6E00FE12313B751101900176E0B45620A3E0CC
:101F7E00B4CE1BE5127017E528FFE527FE9001474A
:101F8E00EEF0A3EFF0E4FFFE12313B7512010220DA
:101F9E0035E4F5219002C9E01313543FC36480F871
:101FAE00E521648098507BE52125E025E0FD24CADB
:101FBE00F582E43402F583E0FE74CB2DF582E43431
:101FCE0002F583E0FDEEFCAF21EF3395E0FEEF78F6
:101FDE0003C333CE33CED8F9FF902ADDE493FB74DE
:101FEE000193FA7402932FF9EA3EFA900005EC8DF4
:101FFE00F012152FE52125E025E0FD24CCF582E435
:10200E003402F583E0FE74CD2DF582E43402F583BF
:10201E00E0FDEDFF900003EE8FF012152F0521026B
:10202E001FA2757201800980078005757701800BEC
:0E203E00800990016FE4F0A37428F0756F7FA5
:01204C002271
:10195400752100752200752300C390016EE0957116
:10196400FF90016DE09570FED3EF94E8EE94034090
:1019740016E5647008E56FB47F03756F0190016D1F
:10198400E0F570A3E0F571900176E07002A3E070D9
:1019940003021AA6E5766003021AA6E56F647F6067
:1019A40003021AA69001F97416F090012A7402F049
:1019B40090016BE064557004A3E064AA7003021AFA
:1019C4009D9001317401F0A37436F0A37401F0A367
:1019D400742CF0A3E4F0A37402F0A3E4F0A3740F56
:1019E400F0A3E4F0A3740FF0E4A3F0A3F0A3F0A336
:1019F400F0A304F0A37440F0A3E4F0A37459F0A39B
:101A04007401F0A37490F0A3E4F0A37414F09001B3
:101A140037E4F0A3741EF0A3E4F0A3741EF0A3E46F
:101A2400F0A304F0A3E4F0A37414F0A37401F0A3EE
:101A340074EAF0A3E4F0A304F0A3E4F0A37496F032
:101A4400A3E4F0A37425F0A3E4F0A304F0A3E4F06A
:101A5400A304F0A3E4F0A304F0A3E4F0A304F0A32C
:101A6400E4F0A304F0A3E4F0A304F0A3E4F0A304DB
:101A7400F0A3E4F0A304F0A3E4F0A304F0A3E4F0DF
:101A8400A304F0A3E4F0A304F090016B7455F0A355
:101A940074AAF0E4FFFE12313B756401757601759A
:101AA4006F7FE576B4010CE5727008E56FB47F03CF
:101AB400756F02E5646008E56FB47F03756F03E535
:101AC400686008E56FB47F03756F07E5616008E53A
:101AD4006FB47F03756F09E5756008E56FB47F0324
:101AE400756F04E5676008E56FB47F03756F08E5FB
:101AF4006D6008E56FB47F03756F05E5746008E5F4
:101B04006FB47F03756F06E56FB40A004003021DCE
:101B14005D901B1CF8282873021B3A021B5F021BF2
:101B240082021BA6021C3F021CEB021D14021C6C49
:101B3400021C95021CC27E007F467D007B017A0157
:101B440079FB121883E49001FBF0A304F0E4A3F002
:101B5400A304F0FB12379C756F32227E007F467D12
:101B6400007B017A0179FB1218839001FB7401F068
:101B7400A3F0E4A3F07402123798756F33227E0049
:101B84007F467D007B017A0179FB1218839001FB6B
:101B94007402F0A314F0E4A3F07404123798756F80
:101BA40034227E007F467D007B017A0179FB121886
:101BB400839001FB7403F09001F9E025E09001FCAF
:101BC400F0752101752201752331E0FF9001FBE0DE
:101BD4002FF524E4FDFC9001F9E0FF3395E0FEEFDE
:101BE40025E0FFEE33FEC3ED9FEE6480F8EC6480E5
:101BF40098502CAB21AA22A9238D828C831213F72F
:101C0400FF74FD2DF58274013CF583EFF08D828C19
:101C1400831213F72524F5240DBD00010C80B79021
:101C240001F9E0FF25E024FDF582E43401F583E5C4
:101C340024123799756F35E4F564227E007F467D62
:101C4400007B017A0179FB1218839001FB7404F084
:101C5400A37401F09001E0E09001FDF02405123737
:101C640098756F36E4F575227E007F467D007B0112
:101C74007A0179FB1218839001FB7407F0A37401B5
:101C8400F0E4A3F0A37408123799756F39E4F5688A
:101C9400227E007F467D007B017A0179FB12188346
:101CA4009001FB7408F0A37401F090012DE0900101
:101CB400FDF02409123798756F3AE4F567227E0027
:101CC4007F467D007B017A0179FB1218839001FB2A
:101CD4007409F0A37401F0E4A3F0A3740A12379911
:101CE400756F3BE4F561227E007F467D007B017ABF
:101CF4000179FB1218839001FB7405F0A37401F0C1
:101D0400E4A3F0A37406123799756F37E4F56D22D6
:101D14007E007F467D007B017A0179FB1218839057
:101D240001FB7406F0A37403F090019FE0FEA3E0AE
:101D34009001FDF0EEFFA3EFF090012CE0FF900185
:101D4400FFF09001FDE02409FEA3E02E2F90020095
:091D5400123799756F38E4F5743B
:011D5D002263
:1035DD000236CCE493A3F8E493A34003F68001F202
:1035ED0008DFF48029E493A3F85407240CC8C333EF
:1035FD00C4540F4420C8834004F456800146F6DFBE
:10360D00E4800B0102040810204080902785E47EA1
:10361D00019360BCA3FF543F30E509541FFEE493B2
:10362D00A360010ECF54C025E060A840B8E493A379
:10363D00FAE493A3F8E493A3C8C582C8CAC583CAA4
:10364D00F0A3C8C582C8CAC583CADFE9DEE780BE5C
:0129A6000030
:1013DE00BB010689828A83E0225002E722BBFE020D
:0913EE00E32289828A83E4932240
:1013F700BB010CE58229F582E5833AF583E02250AB
:1014070006E92582F8E622BBFE06E92582F8E222F4
:0D141700E58229F582E5833AF583E493220E
:10142400BB010689828A83F0225002F722BBFE01A7
:02143400F322A1
:10143600F8BB010DE58229F582E5833AF583E8F0EC
:10144600225006E92582C8F622BBFE05E92582C898
:02145600F22280
:10145800BC000BBE0029EF8DF084FFADF022E4CC78
:10146800F875F008EF2FFFEE33FEEC33FCEE9DEC41
:10147800984005FCEE9DFE0FD5F0E9E4CEFD22ED87
:10148800F8F5F0EE8420D21CFEADF075F008EF2FD1
:10149800FFED33FD4007985006D5F0F222C398FDC2
:0514A8000FD5F0EA225F
:1014AD00BB010A89828A83E0F5F0A3E0225006870A
:1014BD00F009E71922BBFE07E3F5F009E3192289CC
:0B14CD00828A83E493F5F074019322FF
:1014D800BB0110E58229F582E5833AF583E0F5F052
:1014E800A3E0225009E92582F886F008E622BBFE2F
:1014F8000AE92582F8E2F5F008E222E5832AF58375
:08150800E993F5F0A3E9932239
:10151000BB010A89828A83F0E5F0A3F0225006F726
:0F15200009A7F01922BBFE06F3E5F009F3192223
:10152F00F8BB0111E58229F582E5833AF583E8F0EE
:10153F00E5F0A3F0225009E92582C8F608A6F022AB
:0D154F00BBFE09E92582C8F2E5F008F22292
:10155C00E88FF0A4CC8BF0A42CFCE98EF0A42CFC2E
:10156C008AF0EDA42CFCEA8EF0A4CDA8F08BF0A4AC
:10157C002DCC3825F0FDE98FF0A42CCD35F0FCEB0B
:10158C008EF0A4FEA9F0EB8FF0A4CFC5F02ECD39D0
:0F159C00FEE43CFCEAA42DCE35F0FDE43CFC223D
:1015AB0075F008758200EF2FFFEE33FECD33CDCCF7
:1015BB0033CCC58233C5829BED9AEC99E58298407A
:1015CB000CF582EE9BFEED9AFDEC99FC0FD5F0D657
:1015DB00E4CEFBE4CDFAE4CCF9A88222B800C1B981
:1015EB000059BA002DEC8BF084CFCECDFCE5F0CBBF
:1015FB00F97818EF2FFFEE33FEED33FDEC33FCEBF8
:10160B0033FB10D703994004EB99FB0FD8E5E4F9B2
:10161B00FA227818EF2FFFEE33FEED33FDEC33FC9F
:10162B00C933C910D7059BE99A4007EC9BFCE99A93
:10163B00F90FD8E0E4C9FAE4CCFB2275F010EF2FD8
:10164B00FFEE33FEED33FDCC33CCC833C810D707D8
:10165B009BEC9AE899400AED9BFDEC9AFCE899F813
:0E166B000FD5F0DAE4CDFBE4CCFAE4C8F922A6
:1039AF00C2D5E830E70FB2D5E4C39BFBE49AFAE443
:1039BF0099F9E498F8EC30E717B2D51239E51215FA
:1039CF00E7E4C39BFBE49AFAE499F9E498F88003DF
:1039DF001215E730D50DE4C39FFFE49EFEE49DFD75
:0439EF00E49CFC2236
:0E167900C3E49FFFE49EFEE49DFDE49CFC2282
:10168700EB9FF5F0EA9E42F0E99D42F0EC6480C8DA
:0616970064809845F0227A
:10169D00EB9FF5F0EA9E42F0E99D42F0E89C45F0A3
:0116AD00221A
:1016AE00E8600FECC313FCED13FDEE13FEEF13FF1A
:0316BE00D8F1223E
:1016C100E8600FEFC333FFEE33FEED33FDEC33FC87
:0316D100D8F1222B
:1016D400BB010789828A830218BB5005E9F8021806
:1016E400AFBBFE05E9F80218C789828A830218D3C2
:1016F400BB010DE58229F582E5833AF5830218BB27
:101704005007E92582F80218AFBBFE07E92582F8E5
:101714000218C7E58229F582E5833AF5830218D3D6
:10172400BB010789828A830217625005E9F802180F
:0A173400E3BBFE05E9F80218EF22FE
:10173E00BB010DE58229F582E5833AF58302176236
:10174E005007E92582F80218E3BBFE07E92582F867
:04175E000218EF225C
:0C176200ECF0A3EDF0A3EEF0A3EFF022FA
:10176E00A8828583F0D083D0821217851217851236
:10177E001785121785E473E493A3C583C5F0C5835B
:10178E00C8C582C8F0A3C583C5F0C583C8C582C8C5
:01179E002228
:10179F00BB010DE58229F582E5833AF58302176EC9
:1017AF005007E92582F80218FBBBFE07E92582F8EE
:0417BF0002191422D5
:1017C300F5F0C582A4C582C5F0C583A42583F5833E
:0117D30022F3
:0C17D400A42582F582E5F03583F5832220
:1017E000BB010789828A830219365005E9F802197C
:1017F0002DBBFE05E9F802193F89828A8302194848
:10180000BB010DE58229F582E5833AF5830219369D
:101810005007E92582F802192DBBFE07E92582F859
:1018200002193FE58229F582E5833AF583021948DA
:10183000D083D082F8E4937012740193700DA3A347
:1018400093F8740193F5828883E47374029368605B
:06185000EFA3A3A380DF5B
:10185600D083D082F8E4937012740193700DA3A321
:1018660093F8740193F5828883E473740293B5F058
:0D187600067403936860E9A3A3A3A380D8C0
:10188300EF4E6012EF60010EEDBB010B89828A837C
:10189300F0A3DFFCDEFA2289F05007F709DFFCA989
:0C18A300F022BBFEFCF309DFFCA9F022E0
:0C18AF00E6FC08E6FD08E6FE08E6FF2265
:0C18BB00E0FCA3E0FDA3E0FEA3E0FF22A0
:0C18C700E2FC08E2FD08E2FE08E2FF225D
:1018D300E493FC740193FD740293FE740393FF225B
:0C18E300ECF608EDF608EEF608EFF62231
:0C18EF00ECF208EDF208EEF208EFF22235
:1018FB00D083D082E493F608740193F608740293B4
:09190B00F608740393F6740473EA
:10191400D083D082E493F208740193F208740293A2
:09192400F208740393F2740473D9
:09192D00E6FB08E6FA08E6F922DF
:09193600E0FBA3E0FAA3E0F922B2
:09193F00E2FB08E2FA08E2F922D9
:0C194800E493FB740193FA740293F922FB
:00000001FF
