:0300000002712367
:0C712300787FE4F6D8FD75817802716A6F
:1059DF00016F000266000001707F02710000026C0F
:1059EF000000026A000001770001730001650001E9
:1059FF007600016900016800016200016E00017804
:105A0F0001017500017400026300004E049510003F
:105A1F000378000000000000000000004E04E920A1
:105A2F00000378000000000000000000004E04DBBF
:105A3F0000100378000000000000000000004E047A
:105A4F00CD00200378000000000000000000004E91
:105A5F0004BF0040037800000000000000000000B9
:105A6F004E04A30080037800000000000000000037
:105A7F00004E04B101000378000000000000000098
:025A8F00000015
:10767800438E80E4F589758A67758CFCD28CD2A913
:03768800D2AF225C
:10762F00E4F5957596207580FF7590FF75A0FF7531
:0B763F00B0FF12767812764A02000EAF
:107662007E007F6A7D007B017A01793212467F902B
:06767200012E7401F0225C
:10677A008B5F8A6089619000021242D4FFAEF0E515
:10678A00F0600302696EEF24F6604C24F67003028F
:10679A00684824F670030268BE241E600302696E0C
:1067AA0090000CE4F5F012432B1242A9FF90012944
:1067BA00E055F0FEA3E05F4E600302696EAB5FAA8C
:1067CA0060A96190000275F00A12432B900004122E
:1067DA00459B0000000022AB5FAA60A9611242A992
:1067EA00FF900129E055F0FEA3E05F4E703790005C
:1067FA00041244F0EF2401FFE43EFEE43DFDE43CD4
:10680A00FC90000412453A9000041244F0E47B1410
:10681A00FAF9F8C3124499400302696EAB5FAA60A1
:10682A00A961026964AB5FAA60A96190000412457C
:10683A009B00000000900002E4F5F002696BAB5F78
:10684A00AA60A9619000041244F0EF2401FFE43E1B
:10685A00FEE43DFDE43CFC90000412453A1242A9D4
:10686A00FF900129E055F0FEA3E05F4E601AAB5F8E
:10687A00AA60A961900002E475F01E12432B9000F1
:10688A000812459B00000000AB5FAA60A961900056
:10689A00041244F0E47B907A01F9F8C31244994057
:1068AA000302696EAB5FAA60A96190000CE475F0FF
:1068BA000102696BAB5FAA60A9619000041244F0FF
:1068CA00EF2401FFE43EFEE43DFDE43CFC900004BD
:1068DA0012453A1242A9FF900129E055F0FEA3E0C1
:1068EA005F4E6066AB5FAA60A9619000081244F02F
:1068FA00EF2401FFE43EFEE43DFDE43CFC90000889
:10690A0012453A9000081244F0E47B14FAF9F8C3ED
:10691A00124499504FAB5FAA60A96190000C1242D1
:10692A00D4640145F090000C700575F0038004E40E
:10693A0075F00212432B90000412459B00000000E0
:10694A00900002740375F0788017AB5FAA60A961A2
:10695A0090000812459B00000000900002E475F0C8
:05696A001412432B2272
:1074FC007B017A0479DB12677A7B017A0479CD12ED
:10750C00677A7B017A0479A312677A7B017A047912
:10751C00B112677A7B017A04799512677A7B017ACA
:06752C000479E902677A10
:10760900E49004DDF0A3F09004CFF0A3F09004A57A
:10761900F0A3F09004B3F0A3F0900497F0A3F090D6
:0676290004EBF0A3F022C7
:106110009004A1E0FEA3E0FF4E60469001A074EF62
:10612000F0A374FFF0EF64014E701290012D04F0A3
:10613000E5644563702BF5637564018021EF6402AB
:106140004E90012D7004740280027403F0E49004F8
:10615000A1F0A3F0900497F0A3F0F563F5647575D2
:10616000019004F5E0FEA3E0FF4E60469001A074AC
:10617000DFF0A374FFF0EF64014E701290012D0464
:10618000F0E5644563702BF5637564018021EF646D
:10619000024E90012D7004740280027403F0E490AA
:1061A00004F5F0A3F09004EBF0A3F0F563F564754B
:1061B00075019004E7E0FEA3E0FF4E60469001A069
:1061C00074FFF0A374EFF0EF64014E701290012D94
:1061D00004F0E5644563702BF5637564018021EF7D
:1061E00064024E90012D7004740280027403F0E486
:1061F0009004E7F0A3F09004DDF0A3F0F563F564FC
:106200007575019004D9E0FEA3E0FF4E6046900151
:10621000A074FFF0A374DFF0EF64014E70129001E0
:106220002D04F0E5644563702BF5637564018021EE
:10623000EF64024E90012D7004740280027403F02A
:10624000E49004D9F0A3F09004CFF0A3F0F563F547
:10625000647575019004CBE0FEA3E0FF4E604690AC
:1062600001A074FFF0A374BFF0EF64014E701290B0
:10627000012D04F0E5644563702BF56375640180BE
:1062800021EF64024E90012D7004740280027403A9
:10629000F0E49004CBF0A3F09004C1F0A3F0F56318
:1062A000F5647575019004AFE0FEA3E0FF4E604613
:1062B0009001A074FFF0A3747FF0EF64014E7012A0
:1062C00090012D04F0E5644563702BF5637564015E
:1062D0008021EF64024E90012D70047402800274DC
:1062E00003F0E49004AFF0A3F09004A5F0A3F0F560
:1062F00063F5647575019004BDE0FEA3E0FF4E6098
:10630000459001A074FEF0A304F0EF64014E7012FA
:1063100090012D04F0E5644563702BF5637564010D
:106320008021EF64024E90012D700474028002748B
:1063300003F0E49004BDF0A3F09004B3F0A3F0F5F3
:0763400063F564757501228D
:03000B000275611A
:10756100C0E0C0F0C083C082C0D075D00890016F68
:10757100E004F0700690016EE004F012758D127453
:0C758100FCD0D0D082D083D0F0D0E0321B
:10723A00E4F56F12762F12766212657C90016EE089
:10724A00F571A3E0F572E490040FF0E574702AC3B7
:10725A0090016FE09572FF90016EE09571FED3EF99
:10726A0094F4EE94014012E0FEA3E08E71F5728E62
:10727A006CF56D127609757401E574B401CD1200CE
:10728A0046900188E0B4020C1253BD900188740341
:0C729A00F0E4A3F0124C5712611080AF1A
:105EC300535047283633293B0D0A00535047283691
:105ED30032293B0D0A004250494328312C342C33DC
:105EE3002C3130293B0D0A005053343828312C31E2
:105EF30037352C3130302C27452564272C31352C70
:105F0300333939293B0D0A005053343828312C31A9
:105F130037352C3130302C27452564272C312C3351
:105F23003939293B0D0A004453256428312C312C7F
:105F3300272573272C3135293B0D0A005738554542
:105F43002831293B0D0A0044533634283134302C90
:105F5300372C272564272C3135293B0D0A0053584C
:105F63005928302C30293B0D0A0057385545283322
:105F7300293B0D0A0044533634283134302C352C58
:105F8300272564272C3135293B0D0A005738554501
:105F93002834293B0D0A0044533634283133362C38
:105FA300372C272573272C3135293B0D0A00573809
:105FB30055452832293B0D0A0044533438283330E1
:105FC3002C36352C272573272C3135293B0D0A0018
:105FD300445334382833302C36352C272573272C5B
:105FE30031293B0D0A004453256428312C312C27D9
:105FF30025732020202564272C3135293B0D0A00E9
:106003004453333228312C38362C27257320202053
:106013002564272C3135293B0D0A00445334382895
:1060230025642C3139302C2738272C2030293B008C
:10603300445334382825642C3139302C27256427E0
:106043002C31293B000D0A00434952462836352C92
:1060530035352C31352C31293B0D0A004349524645
:106063002836352C35352C31352C32293B0D0A0099
:1060730043495246283136352C35352C31352C31B0
:10608300293B0D0A0043495246283136352C353514
:106093002C31352C32293B0D0A005738554528350C
:1060A300293B0D0A0044533136283130302C31302E
:1060B3002C27533130272C3135293B005738554590
:1060C3002836293B0D0A004453313628312C313010
:1060D3002C27533131272C3135293B00445332349B
:1060E300283130302C372C27533132272C313529A6
:1060F3003B004453256428312C3137342C27257336
:0D61030020202564272C3135293B0D0A0092
:105A91004A041800FF00FF00FF00FF00FF606404DC
:105AA10026000000000000000000000000000000CF
:105AB10000000000000000000000000000000000E5
:105AC10000000000000000000000000000000000D5
:105AD10000000000000000000000000000000000C5
:105AE10000000000000000000000000000000000B5
:105AF10000000000000000000000000000000000A5
:055B010000000000009F
:0873A0007F537E007D007C009C
:0873A8008F368E358D348C33D5
:1073B000E4F53AF539F538F537AF36AE35AD34ACDE
:1073C00033AB3AAA39A938A837C3124483501C00FA
:1073D000E4FAF9F8E53A2401F53AEA3539F539E9FC
:0B73E0003538F538E83537F53780CE3A
:0173EB00227F
:10349D00E4F526F527752802F529752A30F52B75E3
:1034AD002C40F52F753020F52D752E187531CA75F8
:1034BD0032FD90040DE07002A3E060030235F9E5E2
:1034CD001B6402451A602690048BE0FBA3E0FAA36F
:1034DD00E04A4B60189003FCE064016010E51B644A
:1034ED0003451A6008E51B6404451A70319003FC0E
:1034FD00E064016003023987900494E07BFF60066D
:10350D007A5E79C380047A5E79CE1200031273A0BD
:10351D007F107E271273A47F107E270241C4900472
:10352D0017E06067900423E070127BFF7A5E79D913
:10353D001200031273A09004237401F0900422E092
:10354D0060030239879003F2E0600302398790042B
:10355D0009E0600B7536FF75375E7538EB800975C0
:10356D0036FF75375F75380B9003EEE0F539A3E044
:10357D00F53A7B017A0479261250BD7B017A0479E4
:10358D00261200037F537E000241C4900406E060C2
:10359D0003023987E51B6403451A6008E51B6404C3
:1035AD00451A7009900031E0640102398790040AD0
:1035BD00E0640170030239877536FF75375F753822
:1035CD002A852939852A3A90048BE0FBA3E0FAA3DA
:1035DD00E08B3B8A3CF53D7B017A0479261250BD88
:1035ED007B017A0479261200030239879003F2E0F9
:1035FD00700302393B9003E7E0700204F07BFF7A21
:10360D005F793F1200031273A07536FF75375F7532
:10361D00384A90040DE0F539A3E0F53A7B017A04C0
:10362D0079261250BD7B017A04792612000312739C
:10363D00A07BFF7A5F79611200031273A07BFF7A82
:10364D005F796D1200031273A07536FF75375F75C4
:10365D003878900410E0F539A3E0F53A7B017A044F
:10366D0079261250BD7B017A04792612000312735C
:10367D00A07BFF7A5F79611200031273A0900401A1
:10368D00E0FCA3E0FDA3E0FEA3E0FF9004131245D0
:10369D005E7B807A9679987800900413E0FCA3E025
:1036AD00FDA3E0FEA3E0FF1243E3EF24309003F30C
:1036BD00F0900413E0FCA3E0FDA3E0FEA3E0FF7B8C
:1036CD00807A96799878001243E3AC00AD01AE0292
:1036DD00AF0390041312455E7B407A42790F780058
:1036ED00900413E0FCA3E0FDA3E0FEA3E0FF124372
:1036FD00E3EF24309003F4F0900413E0FCA3E0FD1D
:10370D00A3E0FEA3E0FF7B407A42790F78001243DD
:10371D00E3AC00AD01AE02AF0390041312455E7B26
:10372D00A07A8679017800900413E0FCA3E0FDA354
:10373D00E0FEA3E0FF1243E3EF24309003F5F09099
:10374D000413E0FCA3E0FDA3E0FEA3E0FF7BA07A61
:10375D0086790178001243E3AC00AD01AE02AF03F0
:10376D0090041312455EE47B107A27F9F890041348
:10377D00E0FCA3E0FDA3E0FEA3E0FF1243E3EF2492
:10378D00309003F6F0900413E0FCA3E0FDA3E0FEFF
:10379D00A3E0FFE47B107A27F9F81243E3AC00AD08
:1037AD0001AE02AF0390041312455EE47BE87A0389
:1037BD00F9F8900413E0FCA3E0FDA3E0FEA3E0FF05
:1037CD001243E3EF24309003F7F0900413E0FCA3D1
:1037DD00E0FDA3E0FEA3E0FFE47BE87A03F9F81235
:1037ED0043E3AC00AD01AE02AF0390041312455E8E
:1037FD00E47B64FAF9F8900413E0FCA3E0FDA3E088
:10380D00FEA3E0FF1243E3EF24309003F8F09004A1
:10381D0013E0FCA3E0FDA3E0FEA3E0FFE47B64FA6C
:10382D00F9F81243E3AC00AD01AE02AF03900413FF
:10383D0012455EE47B0AFAF9F8900413E0FCA3E06C
:10384D00FDA3E0FEA3E0FF1243E3EF24309003F964
:10385D00F0900413E0FCA3E0FDA3E0FEA3E0FFE481
:10386D007B0AFAF9F81243E3AC00AD01AE02AF03E7
:10387D0090041312455E900413A3A3A3E02430908B
:10388D0003FAF0E4A3F07BFF7A5F798F1200031245
:10389D0073A07536FF75375F75389A753901753AAE
:1038AD0003753BF37B017A0479261250BD7B017AB7
:1038BD000479261200031273A07BFF7A5F796112DF
:1038CD0000031273A07BFF7A5F79B11200031273AC
:1038DD00A09003FEE0FBA3E0FAA3E04A4B603F900B
:1038ED000494E0600B7536FF75375F7538BC800941
:1038FD007536FF75375F7538D39003FEE0FBA3E097
:10390D00FAA3E08B398A3AF53B7B017A04792612CA
:10391D0050BD7B017A0479261200031273A07BFF40
:10392D007A5F79611200037F537E000241C49004D7
:10393D0006E0704690040AE06401603E7536FF753E
:10394D00375F7538E9852F3985303A90048BE0FB68
:10395D00A3E0FAA3E08B3B8A3CF53D90040DE0F526
:10396D003EA3E0F53F7B017A0479261250BD7B0121
:10397D007A0479261200031273A01273A09004101A
:10398D00E0FEA3E0FF4E7038E51B6403451A60109E
:10399D00E51B6404451A6008E51B6402451A70189E
:1039AD00E51B6403451A6008E51B6404451A705055
:1039BD00900031E0640180489003FCE06401804098
:1039CD0090040AE0640160387536FF75376075380C
:1039DD0003852F3985303A90048EE0FBA3E0FAA3DE
:1039ED00E08B3B8A3CF53D8E3E8F3F7B017A04791F
:1039FD00261250BD7B017A0479261200031273A0A2
:103A0D001273A0E51B6403451A6010E51B640445A1
:103A1D001A6008E51B6402451A7023E4FFFEFDFCE5
:103A2D00900413E0F8A3E0F9A3E0FAA3E0FBC312BE
:103A3D004499600A90041312456A00000000E4FFE7
:103A4D00FEFDFC900413E0F8A3E0F9A3E0FAA3E077
:103A5D00FBC31244996003023D3AE51B6403451A0A
:103A6D006013E51B6404451A600BE51B6402451ADF
:103A7D006003023B3FE51B6402451A7004F5288084
:103A8D0003752802752600852827C3E5279405E5CB
:103A9D002694004003023B33E52725E0FFE526335E
:103AAD00FE74182FF58274043EF583E0FEA3E064E6
:103ABD00204E701E7536FF75376075381EAE26AFF9
:103ACD0027FC7D18124242EF241EF53AE43EF539EB
:103ADD0080377536FF753760753833AE26AF277C66
:103AED00007D18124242EF241EF53AE43EF539E509
:103AFD002725E0FFE52633FE74182FF58274043E6A
:103B0D00F583E0F53BA3E0F53C7B017A04792612C1
:103B1D0050BD7B017A0479261200030527E5277035
:103B2D00020526023A977BFF7A607948120003025C
:103B3D0041C09003FCE0640170030241C090040A8F
:103B4D00E0640160030241C0900408E06401600379
:103B5D00023F337BFF7A5F793F1200031273A0900F
:103B6D0002CEE024D07BFF70067A60794B80047A18
:103B7D0060795F1200031273A09002CFE024D07B16
:103B8D00FF70067A60797380047A60798812000379
:103B9D007BFF7A5F79611200031273A07BFF7A5F5E
:103BAD0079B11200031273A09002D0E024D07BFFF4
:103BBD0070067A60794B80047A60795F1200031287
:103BCD0073A09002D1E024D07BFF70067A607973E8
:103BDD0080047A6079881200037BFF7A5F79611225
:103BED0000031273A07BFF7A5F796D1200031273CD
:103BFD00A09002D2E024D07BFF70067A60794B80D2
:103C0D00047A60795F1200031273A09002D3E0244E
:103C1D00D07BFF70067A60797380047A60798812A0
:103C2D0000031273A07BFF7A5F7961120003127398
:103C3D00A07BFF7A5F798F1200031273A09002D4DC
:103C4D00E024D07BFF70067A60794B80047A60792E
:103C5D005F1200031273A09002D5E024D07BFF7099
:103C6D00067A60797380047A607988120003127382
:103C7D00A07BFF7A5F79611200031273A07BFF7A3C
:103C8D0060799D1200031273A09002C8E024D07BCE
:103C9D00FF70067A60794B80047A60795F120003B9
:103CAD001273A07BFF7A6079A81200031273A090A3
:103CBD0002C9E024D07BFF70067A60797380047AA4
:103CCD006079881200031273A07BFF7A5F7961120D
:103CDD0000031273A07BFF7A6079BF120003127389
:103CED00A07BFF7A6079CA1200031273A09002CAFA
:103CFD00E024D07BFF70067A60794B80047A60797E
:103D0D005F1200031273A07BFF7A6079DF1200034C
:103D1D001273A09002CBE024D07BFF70067A6079FD
:103D2D007380047A60798812000302416C9003F26B
:103D3D00E060030241C090040AE0640160030241A7
:103D4D0077900408E064016003023F337BFF7A5FE4
:103D5D00793F1200031273A09002CEE024D07BFFB6
:103D6D0070067A60794B80047A60795F12000312D5
:103D7D0073A09002CFE024D07BFF70067A60797338
:103D8D0080047A6079881200037BFF7A5F79611273
:103D9D0000031273A07BFF7A5F79B11200031273D7
:103DAD00A09002D0E024D07BFF70067A60794B8022
:103DBD00047A60795F1200031273A09002D1E0249F
:103DCD00D07BFF70067A60797380047A60798812EF
:103DDD0000037BFF7A5F79611200031273A07BFFF2
:103DED007A5F796D1200031273A09002D2E024D095
:103DFD007BFF70067A60794B80047A60795F1200E0
:103E0D00031273A09002D3E024D07BFF70067A607A
:103E1D00797380047A6079881200031273A07BFF96
:103E2D007A5F79611200031273A07BFF7A5F798F3D
:103E3D001200031273A09002D4E024D07BFF700611
:103E4D007A60794B80047A60795F1200031273A057
:103E5D009002D5E024D07BFF70067A6079738004E0
:103E6D007A6079881200031273A07BFF7A5F796103
:103E7D001200031273A07BFF7A60799D120003126A
:103E8D0073A09002C8E024D07BFF70067A60794B56
:103E9D0080047A60795F1200031273A07BFF7A6051
:103EAD0079A81200031273A09002C9E024D07BFF01
:103EBD0070067A60797380047A6079881200031233
:103ECD0073A07BFF7A5F79611200031273A07BFFF1
:103EDD007A6079BF1200031273A07BFF7A6079CAF2
:103EED001200031273A09002CAE024D07BFF70066B
:103EFD007A60794B80047A60795F1200031273A0A7
:103F0D007BFF7A6079DF1200031273A09002CBE081
:103F1D0024D07BFF70067A60797380047A6079888B
:103F2D0012000302416C9003EAE0FCA3E0FDA3E064
:103F3D00FEA3E0FF90041312455E7B807A9679987C
:103F4D007800900413E0FCA3E0FDA3E0FEA3E0FFE6
:103F5D001243E3EF24309003F3F0900413E0FCA33D
:103F6D00E0FDA3E0FEA3E0FF7B807A9679987800D0
:103F7D001243E3AC00AD01AE02AF03900413124542
:103F8D005E7B407A42790F7800900413E0FCA3E049
:103F9D00FDA3E0FEA3E0FF1243E3EF24309003F412
:103FAD00F0900413E0FCA3E0FDA3E0FEA3E0FF7B93
:103FBD00407A42790F78001243E3AC00AD01AE02B6
:103FCD00AF0390041312455E7BA07A8679017800C9
:103FDD00900413E0FCA3E0FDA3E0FEA3E0FF124379
:103FED00E3EF24309003F5F0900413E0FCA3E0FD23
:103FFD00A3E0FEA3E0FF7BA07A867901780012434F
:10400D00E3AC00AD01AE02AF0390041312455EE4C4
:10401D007B107A27F9F8900413E0FCA3E0FDA3E0F0
:10402D00FEA3E0FF1243E3EF24309003F6F090047B
:10403D0013E0FCA3E0FDA3E0FEA3E0FFE47B107A18
:10404D0027F9F81243E3AC00AD01AE02AF039004C3
:10405D001312455EE47BE87A03F9F8900413E0FC53
:10406D00A3E0FDA3E0FEA3E0FF1243E3EF243090B5
:10407D0003F7F0900413E0FCA3E0FDA3E0FEA3E042
:10408D00FFE47BE87A03F9F81243E3AC00AD01AE2F
:10409D0002AF0390041312455EE47B64FAF9F890C5
:1040AD000413E0FCA3E0FDA3E0FEA3E0FF1243E355
:1040BD00EF24309003F8F0900413E0FCA3E0FDA38F
:1040CD00E0FEA3E0FFE47B64FAF9F81243E3AC00F1
:1040DD00AD01AE02AF0390041312455EE47B0AFA04
:1040ED00F9F8900413E0FCA3E0FDA3E0FEA3E0FFCC
:1040FD001243E3EF24309003F9F0900413E0FCA396
:10410D00E0FDA3E0FEA3E0FFE47B0AFAF9F8124319
:10411D00E3AC00AD01AE02AF0390041312455E9007
:10412D000413A3A3A3E024309003FAF0E4A3F07BDF
:10413D00FF7A5F796D1200031273A07536FF753724
:10414D005F75389A753901753A03753BF37B017AC2
:10415D000479261250BD7B017A04792612000312D0
:10416D0073A07BFF7A5F796180437536FF75376089
:10417D007538F5852F3985303A900491E0FBA3E031
:10418D00FAA3E08B3B8A3CF53D900413E0FCA3E0E1
:10419D00FDA3E0FEA3E0F5418E408D3F8C3E7B01FB
:1041AD007A0479261250BD7B017A04792612000318
:0A41BD001273A07F537E001273A45A
:0141C70022D5
:1047600030303030300000312D00322D00332D003C
:10477000342D00352D00362D00372D00382D003911
:104780002D0031300031310031320031330031340D
:104790000031350031360031370031380031390011
:1047A00032300032310032320032330032340032E3
:1047B00035003236003237003238003239003330BB
:1047C00000202020413100202020413200202020E4
:1047D000413300202020413400202020413500209A
:1047E0002020413600202020413700202020413861
:1047F00000202020413900202041313000434C531B
:104800002830293B0D0A00535047283532293B0DEB
:104810000A00D6BDB3A400C0A6CA00D7DCCA0020D7
:10482000462D2D300020462D2D310020462D2D32D5
:104830000020462D2D330020462D2D340020462DFE
:104840002D3500452D2D004250494328312C342C64
:10485000332C3130293B0D0A005053256428312C6C
:104860003137352C3131352C27452564272C31350E
:104870002C333939293B0D0A005350472832372948
:104880003B0D0A00C7EBCAE4C8EBC3DCC2EB3A003D
:10489000445334382832302C3137342C27303030E0
:1048A0003030272C30293B0D0A005350472835382B
:1048B000293B0D0A00535047283539293B0D0A0082
:1048C000573855452831293B0D0A004453363428C2
:1048D0003134302C372C272564272C3135293B0DDA
:1048E0000A0053585928302C30293B0D0A005738FC
:1048F00055452833293B0D0A0044533634283134BA
:10490000302C352C272564272C3135293B0D0A0006
:10491000573855452834293B0D0A0044533634286E
:104920003133362C372C272573272C3135293B0D75
:104930000A00535047283537293B0D0A00C9CFB22A
:10494000E300B5D7B2E30044533634283138302C75
:10495000372C273838323336272C3135293B0D0A8E
:1049600000573855452832293B0D0A004453363448
:10497000283138302C372C272564272C3135293B1A
:104980000D0A00C7D0D6BD2CC7EBD7A2D2E2212199
:104990002100535047283632293B0D0A00202020A1
:1049A000313100C6F4B6AF00202020313200CDA353
:1049B000D6B900202020313300CAD5D6BD00202032
:1049C00020313400B7A2D6BD00202020313500CDE3
:1049D000CBD6BD00202020313600BDF8D6BD00204A
:1049E0002020313700CFC2C1CF0020202031380035
:1049F000B4EACCF500202020313900CDA3D6BD008B
:104A0000202020323000B4F2BDBA00502D2D0043DA
:104A10004C5328302C30293B0D0A00505334382891
:104A2000312C3137352C3130302C27452564272C5B
:104A300031352C333939293B0D0A0053504728367C
:104A400030293B0D0A00B1A8BEAFB3D6D0F8CAB129
:104A5000BCE400502D2D203100502D2D203200506F
:104A60002D2D203000C7D0D6BD00202020323100AF
:104A70002020203232005053343828312C31373541
:104A80002C3131352C27452564272C31352C3339F1
:104A900039293B0D0A00445334382833302C36353D
:104AA0002C272573272C3135293B0D0A0020204562
:104AB000727200535047283331293B0D0A0053507E
:104AC00047283332293B0D0A0053504728333329F6
:104AD0003B0D0A00535047283334293B0D0A00533D
:104AE0005047283335293B0D0A00535047283336A9
:104AF000293B0D0A00535047283337293B0D0A0044
:104B0000535047283338293B0D0A00535047283368
:104B100039293B0D0A00535047283430293B0D0AF0
:104B200000535047283431293B0D0A005350472881
:104B30003432293B0D0A00535047283433293B0DAA
:104B40000A00535047283434293B0D0A005350477C
:104B5000283435293B0D0A00535047283436293B69
:104B60000D0A00535047283437293B0D0A00535093
:104B700047283438293B0D0A005350472834392937
:104B80003B0D0A00535047283530293B0D0A0000E1
:104B9000010039FF476000001E00000101FB00001A
:104BA00000000000000000000000000000FF476659
:104BB000400000000101810405000001869F000003
:104BC00000000000000000000000000000000000E5
:104BD00000000000000000000000000000000000D5
:104BE00000000000000000000000000000000000C5
:104BF0000000000000000000FEB0EDF9B3DBDFF0C4
:104C0000FFFB00004080003F065B4F666D7D077F25
:104C10006F771F4E3D4F47FB771F4E3D7971FB3736
:104C2000060E07386A761D7367055B313E1C5C31E2
:104C30003BED000000620800771F4E3D4F47FB37F9
:104C40000638070E6A151D6773505B783E1C5C3191
:074C50003BED000000000035
:105B0600410131004101FC004101E2004101FB1E5F
:105B160041012B0A41012C146078024E000003E774
:105B2600000003E7000003E700000000000000009B
:105B3600000000000000000000000000000000005F
:105B4600000000000000000000000000000000004F
:105B5600000000000000000000000000000000003F
:105B6600000000000000000000000000000000002F
:105B7600000000000000000000000000000000001F
:105B8600000000000000000000000000000000000F
:105B960000000000603C01A60064006400010000F3
:105BA60000000000000000000000000000000000EF
:105BB60000000000000000000000000000000000DF
:105BC60000000000000000000000000000000000CF
:105BD600000000004801E30402FF4BADFF4B8F427B
:105BE60001A0000041012D0041012E0141003500B8
:105BF6004100000041000100420006000042000C86
:105C0600000042000E00004200100000C189C18A57
:105C1600C18B410012004200130000420015000033
:105C26004200170000420019000042001B0000421B
:105C3600001D000042001F0000420021000042003B
:105C46002300004200270000420029000141002DE8
:0A5C56000042002E00004100300063
:0871AF007A49799D7BFFE4FDA4
:1071B7008B268A2789288D29AB26AA27A928124139
:1071C700C8FF64206004EFB42D17AB260528E52817
:1071D700AA277002052714F91241C8FD3395E080EC
:1071E7001DAB260528E528AA277002052714F912E2
:1071F70041C8FF3395E0FEEF24D0FDEE34FFFCAF2E
:10720700290529EF3395E0FEEF25E0FFEE33FE7405
:10721700182FF58274043EF583ECF0A3EDF0C3E577
:107227002964809486500BAB26AA27A9281241C847
:037237007086223C
:0C56D60090012BE0FF90012FE0C39FFF2C
:1056E200E4F529EF12462C576500577701578902D6
:1056F20057950357A10457AD0557B90657C5075724
:10570200D10857DD0957E90A57F50B58010C580D16
:105712000D58190E58250F583110583D115849127D
:10572200585513586114586D1558791658851758DD
:105732009118589D1958A91A58B51B58C11C58CC14
:105742001D58D75058E25158ED5258F85359035446
:10575200590E55591956592457592F58593A590023
:105762000059437526FF7527477528679003E2E0C5
:1057720064010259437526FF75274775286A90030D
:10578200E2E064010259437526FF75274775286DCB
:105792000259437526FF75274775287002594375CC
:1057A20026FF7527477528730259437526FF75270B
:1057B200477528760259437526FF7527477528795C
:1057C2000259437526FF75274775287C0259437590
:1057D20026FF75274775287F0259437526FF7527CF
:1057E200477528820259437526FF75274775288514
:1057F2000259437526FF7527477528880259437554
:1058020026FF75274775288B0259437526FF752792
:105812004775288E0259437526FF752747752891CB
:105822000259437526FF7527477528940259437517
:1058320026FF7527477528970259437526FF752756
:105842004775289A0259437526FF75274775289D83
:105852000259437526FF7527477528A002594375DB
:1058620026FF7527477528A30259437526FF75271A
:10587200477528A60259437526FF7527477528A93B
:105882000259437526FF7527477528AC025943759F
:1058920026FF7527477528AF0259437526FF7527DE
:1058A200477528B20259437526FF7527477528B5F3
:1058B2000259437526FF7527477528B80259437563
:1058C20026FF7527477528BB80777526FF75274702
:1058D2007528BE806C7526FF7527477528C18061C3
:1058E2007526FF7527477528C780567526FF7527C9
:1058F200477528CD804B7526FF7527477528D380BD
:10590200407526FF7527477528D980357526FF759E
:1059120027477528DF802A7526FF7527477528E5F2
:10592200801F7526FF7527477528EB80147526FFA3
:105932007527477528F180097526FF752747752851
:10594200F790048BE526F0A3E527F0A3E528F0AB5A
:1059520026AA27A9281241C8B4202DAF290529EF6C
:105962003395E0FEEF25E0FFEE33FE74182FF5824B
:1059720074043EF583E4F0A37420F074012528F545
:1059820028E43527F527803DAB260528E528AA27F8
:105992007002052714F91241C8FF3395E0FEEF2487
:1059A200D0FDEE34FFFCAF290529EF3395E0FEEF81
:1059B20025E0FFEE33FE74182FF58274043EF58362
:1059C200ECF0A3EDF0C3E52964809486500EAB267B
:0C59D200AA27A9281241C86003025951FD
:0159DE0022A6
:077353009001A2E0FF7D01A3
:04735A00AC07A905CE
:10735E00AD04E9FF3395E0FEECFB3395E0FAEB2F3D
:10736E00FFEA3EFEEDFB3395E0FAC3EB9FEE648041
:10737E00F8EA648098501AEB25E0FFEA33FE7418A1
:10738E002FF58274043EF583E4F0A37420F00D8093
:01739E00C12D
:01739F0022CB
:0A7069008F237B017A0179F1E4FD29
:107073008B268A2789288D29AF29EF3395E0FEEFE8
:1070830025E0FFEE33FE74182FF58274043EF5837A
:10709300E0FEA3E0642E4E700405298076AB26AA99
:1070A30027A9281241C8B4202DAF290529EF33950C
:1070B300E0FEEF25E0FFEE33FE74182FF582740433
:1070C3003EF583E4F0A37420F074012528F528E449
:1070D3003527F527803DAB260528E528AA2770022A
:1070E300052714F91241C8FF3395E0FEEF24D0FDC4
:1070F300EE34FFFCAF290529EF3395E0FEEF25E0E1
:10710300FFEE33FE74182FF58274043EF583ECF022
:10711300A3EDF0C3E52964809486500302707B22BB
:1074BD00E4FDEDFF3395E0FEEF25E0FFEE33FE74C6
:1074CD00322FF974013EFA7B01EDFF3395E0FEEFAB
:1074DD007803C333CE33CED8F92439F58274003E08
:0E74ED00F583EBF0A3EAF0A3E9F00DBD1EC499
:0174FB00226E
:025C74008F227D
:105C7600EF3395E0FE904B9975F00FEF1245D0EE9D
:105C860075F00FA42583F583E493F527740193F546
:105C9600280528E528AE277002052714FF120026DE
:105CA6008F26AF22EF3395E0FE904B9B75F00FEFFA
:105CB6001245D0EE75F00FA42583F583E493FB74AB
:105CC6000193FA740293F9741E12420EE4F529F553
:105CD6002AE522FD3395E0FC904B9875F00FED1206
:105CE60045D0EC75F00FA42583F583E493FF339537
:105CF600E0FEC3E52A9FEE6480F8E52964809840BB
:105D060003025E0AE52AAE297802C333CE33CED823
:105D1600F92450F58274023EF583E0FEA3E0FFC04D
:105D260007C006904B9075F00FED1245D0EC75F05C
:105D36000FA42583F583E493FB740193FA7402930D
:105D4600F9E52AAE297803C333CE33CED8F929F93B
:105D5600EA3EFA900003D0E0D0F012432BE52AAEDB
:105D6600297802C333CE33CED8F9244EF582740295
:105D76003EF583E0FCA3E0FDAF22EF3395E0FE9015
:105D86004B9075F00FEF1245D0EE75F00FA42583FA
:105D9600F583E493FB740193FA740293F9E52AAE52
:105DA600297803C333CE33CED8F929F9EA3EFA90DF
:105DB6000005EC8DF012432BAF22EF3395E0FE90F9
:105DC6004B9075F00FEF1245D0EE75F00FA42583BA
:105DD600F583E493FB740193FA740293F9E52AAE12
:105DE600297803C333CE33CED8F929F9EA3EFA909F
:105DF6000007E4124220052AE52A6003025CD70563
:105E060029025CD7E52270097523017524017525E1
:105E160032AF22EF3395E0FE904B9675F00FEF12FE
:105E260045D0EE75F00FA42583F583E493F527742A
:105E36000193F528E4F529F52AAF22EF3395E0FE24
:105E4600904B9875F00FEF1245D0EE75F00FA42524
:105E560083F583E493FF3395E0FEC3E52A9FEE6462
:105E660080F8E52964809850530528E528AE277008
:105E760002052714FF120026AB23AA24A925EF1238
:105E8600420E74012525F525E43524F5240528E57B
:105E960028AE277002052714FF120026AB23AA247A
:105EA600A925EF12420E74012525F525E43524F5C2
:0C5EB60024052AE52A70820529025E3FBF
:015EC20022BD
:10657C00C2A57BFF7A4779FD1200037F537E007D15
:10658C00007C001273A87BFF7A4879071200037F06
:10659C00537E007D007C001273A87F107E277D0047
:1065AC007C001273A87F107E277D007C001273A8DC
:1065BC009003E57458F0A374ACF090048B74FFF066
:1065CC00A37448F0A37412F090048E74FFF0A374BB
:1065DC0048F0A37417F090049174FFF0A37448F082
:1065EC00A3741BF09003FEE4F0A3F0A3F09003F26D
:1065FC0004F0E4900407F09003E7F0900031F09081
:10660C0001E5E0F9A3E0FAA3E09002D7C9F0A3EA10
:10661C00F0A3E9F0E4FF9002D7E0FBA3E0FAA3E0DB
:10662C00F9EFFD3395E08D82F58374151245BF1299
:10663C0045FCEA494B60030F80DC9001E8E0FBA3CA
:10664C00E0FAA3E0F9900032EBF0A3EAF0A3E9F052
:10665C009000011245FC900036EBF0A3EAF0A3E9A0
:10666C00F0E4FF125C741274BD900036E0FBA3E002
:10667C00FAA3E0F990024BEBF0A3EAF0A3E9F012D5
:10668C0045DC1242A9FF90040BE5F0F0A3EFF0906B
:10669C000036E0FBA3E0FAA3E02408F9E43AFA9010
:1066AC00024BEBF0A3EAF0A3E9F01245DC1242A98D
:1066BC00FFAEF09003E3EEF0A3EFF090040BE0FDDF
:1066CC00A3E090040DCDF0A3EDF0900410EEF0A338
:1066DC00EFF0900424743FF0A374B1F0E49003F055
:1066EC00F0A3F09001EBF090012FF0F51A751B015F
:1066FC009001A3F0900172F0900170F0A3F0900162
:10670C0073F090017912456A0000000012696F90D5
:10671C000401E0FCA3E0FDA3E0FEA3E0FF90041362
:10672C0012455EE490016EF0A3F0900175F0A3F0B9
:10673C0074FF900129F0A3F09003DFE4F0A3F0A321
:10674C00F0900423F0900422F09003F204F0E49013
:10675C0003EEF0A3F0900409F0900494F09001A5DE
:0D676C00F0900035F09003FCF090040AF06E
:0167790022FD
:046B5B008E2A8F2BC4
:106B5F00756FAA904B9675F00FEF1245D0EE75F04A
:106B6F000FA42583F583E493FE740193FF1274340D
:106B7F00E4F56FE52B700DE52A7009752C01752D65
:106B8F0001752E32904B9675F00FE52B1245D0E51F
:106B9F002A75F00FA42583F583E493F530740193E0
:106BAF00F531E4F52F904B9875F00FE52B1245D08A
:106BBF00E52A75F00FA42583F583E493FF3395E061
:106BCF00FEC3E52F9FEE6480F87480984003026C3B
:106BDF006B756FAAAB2CAA2DA92E1241C8FDAF3130
:106BEF00AE30127303AF31AE30120026AE07AB2CAE
:106BFF00AA2DA92E1241C86E6007900171E04420A2
:106C0F00F07401252EF52EE4352DF52D0531E531E6
:106C1F0070020530AB2CAA2DA92E1241C8FDAF3141
:106C2F00AE30127303AF31AE30120026AE07AB2C6D
:106C3F00AA2DA92E1241C86E6007900171E0442061
:106C4F00F07401252EF52EE4352DF52D0531E531A6
:0F6C5F0070020530E4F56F052F026BB475650107
:016C6E002203
:1073EC00EF14601814601D14602214602714602CB4
:1073FC00240570337BFF7A48791F80267BFF7A48FF
:10740C007925801E7BFF7A48792B80167BFF7A4882
:10741C007931800E7BFF7A48793780067BFF7A487A
:08742C00793DE4FD1271B72265
:10004600A2A4E4335401FF900129E0FCA3E054FE8E
:10005600FDECFEED4FFF900129EEF0A3EFF0A2A319
:10006600E433540125E0FFE433FE900129E0FCA3CC
:10007600E054FDFDEC4EFEED4FFF900129EEF0A39E
:10008600EFF0A2A2E4FE3354017802C333CE33CE9E
:10009600D8F9FF900129E0FCA3E054FBFDEC4EFEED
:1000A600ED4FFF900129EEF0A3EFF0A2A1E4FE339D
:1000B60054017803C333CE33CED8F9FF900129E03B
:1000C600FCA3E054F7FDEC4EFEED4FFF900129EE48
:1000D600F0A3EFF0A2A0E4335401C4F8540FC868AB
:1000E600FFE4C454F048FE900129E0FCA3E054EF7D
:1000F600FDEC4EFEED4FFF900129EEF0A3EFF0A2CE
:10010600B5E4FE3354017805C333CE33CED8F9FFB8
:10011600900129E0FCA3E054DFFDEC4EFEED4FFF1D
:10012600900129EEF0A3EFF0A2B3E4FE3354017878
:1001360006C333CE33CED8F9FF900129E0FCA3E005
:1001460054BFFDEC4EFEED4FFF900129EEF0A3EFFC
:10015600F0A2B2E4FE3354017807C333CE33CED8CF
:10016600F9FF900129E0FCA3E0547FFDEC4EFEED83
:100176004FFF900129EEF0A3EFF0A2A6E43354015D
:10018600FE900129E054FEFCA3E0FDEC4EFFED904D
:100196000129CFF0A3EFF0A2A7E433540125E0FE36
:1001A600900129E054FDFCA3E0FDEC4EFFED90012B
:1001B60029CFF0A3EFF0A292E433540125E025E025
:1001C600FE900129E054FBFCA3E0FDEC4EFFED9010
:1001D6000129CFF0A3EFF0A293E433540133333374
:1001E60054F8FE900129E054F7FCA3E0FDEC4EFF25
:1001F600ED900129CFF0A3EFF0A296E4335401C4A9
:1002060054F0FE900129E054EFFCA3E0FDEC4EFF14
:10021600ED900129CFF0A3EFF0A297E4335401C487
:100226003354E0FE900129E054DFFCA3E0FDEC4EE0
:10023600FFED900129CFF0A3EFF0A2CCE4335401F7
:10024600C4333354C0FE900129E054BFFCA3E0FD43
:10025600EC4EFFED900129CFF0A3EFF0A2CDE433F1
:100266005401C43333335480FE900129E0547FFC9B
:10027600A3E0FDEC4EFFED900129CFF0A3EFF09047
:100286000129E0FFA3E090000CCFF0A3EFF0A294C9
:100296009209900010E0FEA3E0FF90000CE0FCA3A2
:1002A600E0FDB5070FECB5060BA209300B01B34014
:1002B6000302034190016EE0FEA3E0FF90001DEEF5
:1002C600F0A3EFF0900019E07002A3E07011900027
:1002D60025EEF0A3EFF0900000E04401F0800790D7
:1002E6000000E054FEF0900015E0FEA3E0FF900150
:1002F6006EE0FAA3E0FBC39FFFEA9EFED3EF9428CD
:10030600EE94004033A209300B01B35006A20992C5
:100316000B8008900010ECF0A3EDF0900013EAF0CB
:10032600A3EBF0E4900017F0A3F0A3F0A3F0900085
:1003360029F0A304F002062302061A900025E0FE27
:10034600A3E0FF90016EE0FCA3E0FDC39FFFEC9EDF
:10035600FED3EF9432EE94004007900000E054FE86
:10036600F090001DE0FEA3E0FFC3ED9FFFEC9EFEB4
:10037600D3EF9430EE9475500302058590016EE03C
:10038600FFA3E090001DCFF0A3EFF0900023E070F4
:1003960002A3E06003020585E51B6411451A70039C
:1003A600020585751A00751B01E4900021F0A3F083
:1003B600E51B6403451A6033E51B6404451A602B8C
:1003C600E51B6402451A602390040AE06401601B81
:1003D600900031E0640160139003FCE06401600B5F
:1003E600900422E0640160030205859003E7E06063
:1003F60006900423E070147BFF7A4779FD12000310
:100406007F537E007D007C001273A890040AE0B43E
:100416000102E4F0900408E06002E4F0900422E0B7
:10042600B4010CE4F090049404F0E4900012F0900F
:1004360003FCE0B4010CE4F090049404F0E49000B2
:1004460012F0900417E0700302050490048B74FF09
:10045600F0A37448F0A37443F090048EE4F0A3F084
:10046600A3F0F9900491C9F0A3F0A3E9F0E4900495
:100476000DF0A3F0900410F0A3F090041312456A57
:1004860000000000E49003F2F090002DE0700204FA
:10049600F0E49001FCF0900423E060030205857B04
:1004A600FF7A4879471200037F537E007D007C0067
:1004B6001273A87F107E277D007C001273A87F1020
:1004C6007E277D007C001273A87536FF7537487548
:1004D60038599003EEE0F539A3E0F53A7B017A044A
:1004E60079261250BD7B017A0479261200037F53C8
:1004F6007E007D007C001273A8900423807E7BFF23
:100506007A4879071200037F537E007D007C001233
:1005160073A87F107E277D007C001273A890048B41
:1005260074FFF0A37448F0A37412F090048E74FF65
:10053600F0A37448F0A37417F090049174FFF0A32D
:100546007448F0A3741BF090040BE0FFA3E0900442
:100556000DCFF0A3EFF09003E3E0FFA3E0900410CB
:10056600CFF0A3EFF0900401E0FCA3E0FDA3E0FED2
:10057600A3E0FF90041312455E9003F27401F0901D
:100586000013E0FEA3E0FF90016EE0FCA3E0FDC3D4
:100596009FFFEC9EFED3EF9428EE940040769000E9
:1005A60015ECF0A3EDF090000CE0FEA3E0F4700271
:1005B600EEF4600A900019E07002A3E0600D2009D5
:1005C6005C900019E07002A3E07052900018E004FD
:1005D600F07006900017E004F0D3900018E0940A3B
:1005E600900017E0648094804033900019E4F0A3F3
:1005F60004F0900029E4F0A304F0E4900027F0A3AF
:10060600F090001BECF0A3EDF0900017E4F0A3745B
:100616000AF08009E490000CF0A3F0D209900019CA
:10062600E07002A3E0605D90001BE0FEA3E0FF9097
:10063600016EE0FCA3E0FDC39FFFEC9EFED3EF94AA
:1006460064EE9400403E900028E004F070069000AE
:1006560027E004F0900027E0FEA3E0FFD39432EEFB
:10066600648094804007A3E4F0A3740AF0EF4E6020
:100676000890001BECF0A3EDF090000EE4F0A374DC
:10068600FFF0D20A90000CE0FEA3E0FF4E700320BC
:10069600095390000EE0FCA3E0FDB5070CEEB5048F
:1006A60008A209300A01B3501D90000CE0FEA3E039
:1006B600FF6D7002EE6C6008A3EEF0A3EFF08025EC
:1006C600A209920A801F90000EE0FEA3E0FF9000B0
:1006D6000CE0B5060EA3E0B50709E490000CF0A304
:1006E600F08002D20A90000CE0FEA3E0FFF4700353
:1006F600EE64FD600FEFF47003EE64FB6006BEF778
:1007060014BFFF117575019001A0EEF0A3EFF090F4
:10071600012D7402F090000CE07002A3E0700A2034
:10072600090790000CF0A304F0E51A600302323DBD
:10073600E51B24FE7003021DBC147003022319146A
:1007460070030227A024FB700302320424F970030D
:1007560002211C1470030220692410600302323D3A
:1007660090000CE0FEA3E08EF012465219D500016F
:100776000BA87FFF0AC1BFFF17ADDFFF17FCEFFF16
:100786001762F7FF171BFBFF1987FDFF1938FEFFDE
:1007960018E9FF7F1636FFBF184BFFDF189AFFEFE9
:1007A6000C98FFF70A03FFFB0A9CFFFD07BAFFFE42
:1007B60000001A24E4900030F0900021E07002A3BB
:1007C600E060030208789001EC7430F0A3F0A3F027
:1007D600A3F0A3F09001A27404F07B017A0179ECF6
:1007E600E4FD1271B7751A00751B027BFF7A477913
:1007F600FD1200037F537E007D007C001273A87FEC
:10080600107E277D007C001273A8E4900417F07B0D
:10081600FF7A4879791200037F537E007D007C00C1
:100826001273A890048B74FFF0A37447F0A3746648
:10083600F090048E74FFF0A37448F0A37484F090D3
:10084600049174FFF0A37447F0A37466F0E4900477
:100856000DF0A3F0900410F0A3F090041312456A73
:1008660000000000E49003F2F07BFF7A48799002E2
:100876002405900035E0B40114E4F09003FCE0B4E4
:100886000102E4F0E490002DF09001FCF090040ADF
:10089600E06002E4F0900408E06002E4F09003E215
:1008A600E06002E4F07BFF7A4779FD1200037F5394
:1008B6007E007D007C001273A8900417E07003028E
:1008C600097490048B74FFF0A37448F0A37443F08A
:1008D60090048EE4F0A3F0A3F0F9900491C9F0A37C
:1008E600F0A3E9F0E490040DF0A3F0900410F0A357
:1008F600F090041312456A00000000E49003F2F041
:10090600900021F0A3F090002DE0700204F0E49036
:1009160001FCF07BFF7A4879471200037F537E0083
:100926007D007C001273A87F107E277D007C00125C
:1009360073A87536FF7537487538599003EEE0F59C
:1009460039A3E0F53A7B017A0479261250BD7B0182
:100956007A0479261200037F537E007D007C001204
:1009660073A89004237401F090049402311B7BFF5A
:100976007A4879071200037F537E007D007C0012BF
:1009860073A87F107E277D007C001273A890048BCD
:1009960074FFF0A37448F0A37412F090048E74FFF1
:1009A600F0A37448F0A37417F090049174FFF0A3B9
:1009B6007448F0A3741BF090040BE0FFA3E09004CE
:1009C6000DCFF0A3EFF09003E3E0FFA3E090041057
:1009D600CFF0A3EFF0900401E0FCA3E0FDA3E0FE5E
:1009E600A3E0FF90041312455EE4900021F0A3F00B
:1009F6009003F204F0E49003E7F0021A24E4900076
:100A060030F0900019E07002A3E06078900021E0D9
:100A16007002A3E0706EFFFEFDFC900181E0F8A37A
:100A2600E0F9A3E0FAA3E0FBC312449960569001F3
:100A36008112456A0000000090017D12456A00009F
:100A4600000090017912456A00000000900401122E
:100A5600456A00000000756FAA7F007E4412743458
:100A66007F007E461274347F007E481274347F0005
:100A76007E4A1274347F007E4C127434E4F56F752E
:100A86006E01F57890012EE064016003021A247568
:100A96006801F0021A24E4900030F090016EE0FF45
:100AA600A3E090001FCFF0A3EFF090012EE06003CB
:100AB600021A2475680104F0021A24E4900030F04A
:100AC600900021E07002A3E0600B900417E064013F
:100AD6006003021A24900417E06002E4F0900032EA
:100AE600E0FBA3E0FAA3E0F99000011245FC9000B8
:100AF60036EBF0A3EAF0A3E9F0E4900243F0A3F0AA
:100B0600A304F0E490012FF090000104F090012B73
:100B1600E09002DAF0D3648094804006751A00757E
:100B26001B037BFF7A4779FD1200037F537E007D0E
:100B3600007C001273A87BFF7A4879AA1200037F13
:100B4600537E007D007C001273A890048B74FFF026
:100B5600A37447F0A37467F090048E74FFF0A37437
:100B660048F0A37412F0E490040DF0A3F090041082
:100B7600F0A3F090041312456A00000000E490030D
:100B8600E2F090003104F0E49003F2F090040AE001
:100B96006002E4F0900408E07003021A24E4F00214
:100BA6001A24E4900030F0900021E07002A3E06087
:100BB6000B900417E064016003021A24900417E006
:100BC6006002E4F0900032E0FBA3E0FAA3E0F990C3
:100BD60000011245FC900036EBF0A3EAF0A3E9F021
:100BE600E4900243F0A304F0A3F090012FF09000EC
:100BF60001F090012BE09002DAF0D36480948040FB
:100C060006751A00751B037BFF7A4779FD120003F0
:100C16007F537E007D007C001273A87F107E277DA7
:100C2600007C001273A87BFF7A4879B51200037F17
:100C3600537E007D007C001273A890048B74FFF035
:100C4600A37447F0A3746AF090048E74FFF0A37443
:100C560048F0A37417F0E490040DF0A3F09004108C
:100C6600F0A3F090041312456A00000000E490031C
:100C7600E2F090003104F0E49003F2F090040AE010
:100C86006002E4F0900408E07003021A24E4F00223
:100C96001A24E4900408F0900035E060030214CDB5
:100CA60090040AE064016003021101F0900021F053
:100CB600A3F07BFF7A4779FD1200037F537E007D08
:100CC600007C001273A8900417E07003020D6E906A
:100CD600048B74FFF0A37448F0A37443F090048E61
:100CE600E4F0A3F0A3F0F9900491C9F0A3F0A3E90E
:100CF600F0E490040DF0A3F0900410F0A3F090043B
:100D06001312456A00000000E4900422F09003F2FA
:100D1600F090002DE0700204F0E49001FCF07BFFFF
:100D26007A4879471200037F537E007D007C0012CB
:100D360073A87F107E277D007C001273A890042381
:100D46007401F07536FF7537487538599003EEE033
:100D5600F539A3E0F53A7B017A0479261250BD7B7A
:100D6600017A0479260224057BFF7A487907120066
:100D7600037F537E007D007C001273A87F107E27C0
:100D86007D007C001273A890048B74FFF0A3744856
:100D9600F0A37412F090048E74FFF0A37448F0A3CD
:100DA6007417F090049174FFF0A37448F0A3741BB9
:100DB600F090040BE0FFA3E090040DCFF0A3EFF05A
:100DC6009003E3E0FFA3E0900410CFF0A3EFF090D0
:100DD6000401E0FCA3E0FDA3E0FEA3E0FF90041302
:100DE60012455E9003F27401F0E49003E7F0900080
:100DF6002DF09001FCF07BFF7A4879C01200037F4A
:100E0600537E007D007C001273A87536FF75374847
:100E16007538CB90040DE0F539A3E0F53A7B017AFD
:100E26000479261250BD7B017A0479261200037FCD
:100E3600537E007D007C001273A87BFF7A4879E21E
:100E46001200037F537E007D007C001273A87BFF97
:100E56007A4879EE1200037F537E007D007C0012F3
:100E660073A87536FF7537487538F9900410E0F5A4
:100E760039A3E0F53A7B017A0479261250BD7B014D
:100E86007A0479261200037F537E007D007C0012CF
:100E960073A87BFF7A4879E21200037F537E007DB8
:100EA600007C001273A87B807A967998780090046B
:100EB60013E0FCA3E0FDA3E0FEA3E0FF1243E3EF93
:100EC60024309003F3F0900413E0FCA3E0FDA3E0CC
:100ED600FEA3E0FF7B807A96799878001243E3AC14
:100EE60000AD01AE02AF0390041312455E7B407A5B
:100EF60042790F7800900413E0FCA3E0FDA3E0FE26
:100F0600A3E0FF1243E3EF24309003F4F0900413C0
:100F1600E0FCA3E0FDA3E0FEA3E0FF7B407A42797C
:100F26000F78001243E3AC00AD01AE02AF039004AC
:100F36001312455E7BA07A8679017800900413E04F
:100F4600FCA3E0FDA3E0FEA3E0FF1243E3EF2430A1
:100F56009003F5F0900413E0FCA3E0FDA3E0FEA3EC
:100F6600E0FF7BA07A86790178001243E3AC00ADFE
:100F760001AE02AF0390041312455EE47B107A279C
:100F8600F9F8900413E0FCA3E0FDA3E0FEA3E0FF64
:100F96001243E3EF24309003F6F0900413E0FCA331
:100FA600E0FDA3E0FEA3E0FFE47B107A27F9F81248
:100FB60043E3AC00AD01AE02AF0390041312455EED
:100FC600E47BE87A03F9F8900413E0FCA3E0FDA3C0
:100FD600E0FEA3E0FF1243E3EF24309003F7F09026
:100FE6000413E0FCA3E0FDA3E0FEA3E0FFE47BE83E
:100FF6007A03F9F81243E3AC00AD01AE02AF0390F9
:10100600041312455EE47B64FAF9F8900413E0FCDD
:10101600A3E0FDA3E0FEA3E0FF1243E3EF2430903C
:1010260003F8F0900413E0FCA3E0FDA3E0FEA3E0C8
:10103600FFE47B64FAF9F81243E3AC00AD01AE02BB
:10104600AF0390041312455EE47B0AFAF9F89004A4
:1010560013E0FCA3E0FDA3E0FEA3E0FF1243E3EFF1
:1010660024309003F9F0900413E0FCA3E0FDA3E024
:10107600FEA3E0FFE47B0AFAF9F81243E3AC00AD05
:1010860001AE02AF0390041312455E900413A3A3AE
:10109600A3E024309003FAF0E4A3F0900401E0FC0E
:1010A600A3E0FDA3E0FEA3E0FF90041312455E7BE0
:1010B600FF7A4979101200037F537E007D007C0081
:1010C6001273A87536FF75374975381B7539017562
:1010D6003A03753BF37B017A0479261250BD7B01F6
:1010E6007A0479261200037F537E007D007C00126D
:1010F60073A87BFF7A4879E2022405900019E07014
:1011060002A3E06010900030E0C3648094A8500A07
:10111600E004F08005E4900030F090016EE0FFA35B
:10112600E090001FCFF0A3EFF0A3E4F0A37402F069
:1011360090040A14F07BFF7A4779FD1200037F536F
:101146007E007D007C001273A87BFF7A49793212FB
:1011560000037F537E007D007C001273A87F107E03
:10116600277D007C001273A890048B74FFF0A37493
:1011760049F0A3743DF090048E74FFF0A37449F017
:10118600A37442F090049174FFF0A37448F0A37422
:101196001BF09003E5E0FEA3E0FF90040DEEF0A344
:1011A600EFF04E701490040D7458F0A374ACF090E8
:1011B60003E57458F0A374ACF0900424E0FFA3E0B8
:1011C600900410CFF0A3EFF09003F0E0FEA3E0FF51
:1011D600E4FCFD90041312455EE49003F2F07BFFFD
:1011E6007A4879C01200037F537E007D007C00128E
:1011F60073A87BFF7A4979471200037F537E007DEF
:10120600007C001273A87BFF7A4879E21200037F04
:10121600537E007D007C001273A87BFF7A497961BA
:101226001200037F537E007D007C001273A8753682
:10123600FF75374975386C900410E0F539A3E0F571
:101246003A7B017A0479261250BD7B017A0479260D
:101256001200037F537E007D007C001273A87BFF83
:101266007A4879E21200037F537E007D007C0012EB
:1012760073A87B807A9679987800900413E0FCA393
:10128600E0FDA3E0FEA3E0FF1243E3EF243090036A
:10129600F3F0900413E0FCA3E0FDA3E0FEA3E0FF5F
:1012A6007B807A96799878001243E3AC00AD01AE64
:1012B60002AF0390041312455E7B407A42790F78A1
:1012C60000900413E0FCA3E0FDA3E0FEA3E0FF1200
:1012D60043E3EF24309003F4F0900413E0FCA3E022
:1012E600FDA3E0FEA3E0FF7B407A42790F7800126F
:1012F60043E3AC00AD01AE02AF0390041312455EAA
:101306007BA07A8679017800900413E0FCA3E0FDC7
:10131600A3E0FEA3E0FF1243E3EF24309003F5F0D1
:10132600900413E0FCA3E0FDA3E0FEA3E0FF7BA096
:101336007A86790178001243E3AC00AD01AE02AFC4
:101346000390041312455EE47B107A27F9F89004A3
:1013560013E0FCA3E0FDA3E0FEA3E0FF1243E3EFEE
:1013660024309003F6F0900413E0FCA3E0FDA3E024
:10137600FEA3E0FFE47B107A27F9F81243E3AC0002
:10138600AD01AE02AF0390041312455EE47BE87A2A
:1013960003F9F8900413E0FCA3E0FDA3E0FEA3E04C
:1013A600FF1243E3EF24309003F7F0900413E0FCC0
:1013B600A3E0FDA3E0FEA3E0FFE47BE87A03F9F8EF
:1013C6001243E3AC00AD01AE02AF03900413124525
:1013D6005EE47B64FAF9F8900413E0FCA3E0FDA355
:1013E600E0FEA3E0FF1243E3EF24309003F8F09011
:1013F6000413E0FCA3E0FDA3E0FEA3E0FFE47B64AE
:10140600FAF9F81243E3AC00AD01AE02AF03900463
:101416001312455EE47B0AFAF9F8900413E0FCA384
:10142600E0FDA3E0FEA3E0FF1243E3EF24309003C8
:10143600F9F0900413E0FCA3E0FDA3E0FEA3E0FFB7
:10144600E47B0AFAF9F81243E3AC00AD01AE02AF51
:101456000390041312455E900413A3A3A3E0243063
:101466009003FAF0E4A3F09003EAE0FCA3E0FDA306
:10147600E0FEA3E0FF90041312455E7BFF7A4879F5
:10148600EE1200037F537E007D007C001273A87568
:1014960036FF75374975381B753901753A03753B43
:1014A600F37B017A0479261250BD7B017A047926F2
:1014B6001200037F537E007D007C001273A87BFF21
:1014C6007A4879E20224057575019001A074FFF04F
:1014D600A374BFF090012D7402F0E4900021F0A3F4
:1014E600F0900035F09003FCF07BFF7A4779FD120F
:1014F60000037F537E007D007C001273A8900417C2
:10150600E070030215A590048B74FFF0A37448F0F5
:10151600A37443F090048EE4F0A3F0A3F0F99004D2
:1015260091C9F0A3F0A3E9F0E490040DF0A3F090C4
:101536000410F0A3F090041312456A00000000E4C2
:10154600900422F09003F2F090002DE0700204F077
:10155600E49001FCF07BFF7A4879471200037F5341
:101566007E007D007C001273A87F107E277D007CA4
:10157600001273A89004237401F07536FF7537487E
:101586007538599003EEE0F539A3E0F53A7B017A18
:101596000479261250BD7B017A0479260224057B44
:1015A600FF7A4879071200037F537E007D007C0096
:1015B6001273A87F107E277D007C001273A890040A
:1015C6008B74FFF0A37448F0A37412F090048E7429
:1015D600FFF0A37448F0A37417F090049174FFF021
:1015E600A37448F0A3741BF090040BE0FFA3E090F3
:1015F600040DCFF0A3EFF09003E3E0FFA3E0900427
:1016060010CFF0A3EFF0900401E0FCA3E0FDA3E00F
:10161600FEA3E0FF90041312455E9003F27401F0FE
:10162600E49003E7F090002DF09001FCF0021A24FC
:101636009003FEE4F0A3F0A3F090040AE0B40102E4
:10164600E4F0900408E0B40102E4F0E4900407F04A
:10165600900035F07014E07011756201900021F071
:10166600A37404F09000357401F09003FCE0600769
:10167600900417E0B401319003FC7401F09000353A
:10168600F0900417E06002E4F07BFF7A4779FD12E0
:1016960000037F537E007D007C001273A87F107EBE
:1016A600277D007C001273A8E490040DF0A3F0904F
:1016B6000410F0A3F090041312456A000000009095
:1016C600048BE4F0A3F0A3F090048E74FFF0A374EF
:1016D60049F0A37483F0900491E4F0A3F0A3F09092
:1016E60003F2F07BFF7A4979921200037F537E0062
:1016F6007D007C001273A87F107E277D007C00127F
:1017060073A87F107E277D007C001273A890049436
:10171600740102311B1271AF9003FE74FFF0A374C3
:1017260049F0A374A3F0900417E0B401069003F205
:10173600E0601F90040AE064016017900408E0640A
:1017460001600F900035E0640160079003FCE0B48F
:101756000107E4900021F0A3F0021A217A4979A842
:101766001271B39003FE74FFF0A37449F0A374AE34
:10177600F0900417E0B401069003F2E0601F9004B5
:101786000AE064016017900408E06401600F9000AD
:1017960035E0640160079003FCE0B40107E49000C3
:1017A60021F0A3F0021A217BFF7A4979B3E4FD12F6
:1017B60071B79003FE74FFF0A37449F0A374B9F0F7
:1017C600900417E0B401069003F2E0601F90040A4B
:1017D600E064016017900408E06401600F90003532
:1017E600E0640160079003FCE0B40107E490002187
:1017F600F0A3F0021A217BFF7A4979BEE4FD12714B
:10180600B79003FE74FFF0A37449F0A374C4F0907C
:101816000417E0B401069003F2E0601F90040AE0AA
:1018260064016017900408E06401600F900035E0E1
:10183600640160079003FCE0B40107E4900021F026
:10184600A3F0021A217BFF7A4979C9E4FD1271B728
:101856009003FE74FFF0A37449F0A374CFF09004D4
:1018660017E0B401069003F2E0601F90040AE064FA
:10187600016017900408E06401600F900035E06491
:101886000160079003FCE0B40107E4900021F0A397
:10189600F0021A217BFF7A4979D4E4FD1271B790E0
:1018A60003FE74FFF0A37449F0A374DAF0900417F2
:1018B600E0B401069003F2E0601F90040AE06401C0
:1018C6006017900408E06401600F900035E0640141
:1018D60060079003FCE0B40107E4900021F0A3F058
:1018E600021A217BFF7A4979DFE4FD1271B7900372
:1018F600FE74FFF0A37449F0A374E5F0900417E0BA
:10190600B401069003F2E0601F90040AE0640160EF
:1019160017900408E06401600F900035E0640160F0
:10192600079003FCE0B40107E4900021F0A3F00265
:101936001A217BFF7A4979EAE4FD1271B79003FE1A
:1019460074FFF0A37449F0A374F0F0900417E0B4A8
:1019560001069003F2E0601F90040AE0640160173C
:10196600900408E06401600F900035E064016007B0
:101976009003FCE0B40107E4900021F0A3F0021A02
:10198600217BFF7A4979F5E4FD1271B79003FE7465
:10199600FFF0A37449F0A374FBF0900417E0B401C0
:1019A600069003F2E0601F90040AE064016017905D
:1019B6000408E06401600F900035E0640160079060
:1019C60003FCE0B40107E4900021F0A3F0804C7B17
:1019D600FF7A4A7900E4FD1271B79003FE74FFF0B6
:1019E600A3744AF0A37406F0900417E0B4010690BD
:1019F60003F2E0601F90040AE06401601790040897
:101A0600E06401600F900035E0640160079003FC1C
:101A1600E0B40107E4900021F0A3F0126F7C90007F
:101A260021E07002A3E06003021C699001E4E0FF7C
:101A3600900004E4F0A3EFF090012FE0F52290016E
:101A460070E07002A3E06003021AE8900172E07091
:101A56004DA3E0B401109001FC7401F090002DE05C
:101A6600700B04F08007900000E054FDF01263470D
:101A7600127069900008E0FCA3E0FDA3E0FEA3E07D
:101A8600FF90041312455E900413E0FCA3E0FDA34F
:101A9600E0FEA3E0FF90040112455E021C347BFFCA
:101AA6007A4A790BE4FD1271B7900172E0FB547F1C
:101AB600FF3395E0FEFDFC90000812455EEB30E733
:101AC6000890002DE0700204F012635B8F237B0107
:101AD6007A0179F47D031270739001FC7401F002AF
:101AE6001C34900170E0FEA3E0FF640B4E6006EF2D
:101AF600640C4E7027900173E0B401109001FC74E1
:101B060001F090002DE0700B04F08007900000E0DB
:101B160054FDF0126347127069021C349004177466
:101B260001F0900170E0FEA3E0FF9003EEEEF0A35B
:101B3600EFF0900422E064017003021C2790042356
:101B4600E06003021C279003F2E064016003021CBC
:101B5600279003EEEEF0A3EFF0E49003F2F07BFFA4
:101B66007A4A790F1200037F537E007D007C0012B3
:101B760073A87BFF7A4879471200037F537E007D66
:101B8600007C001273A87F107E277D007C001273F4
:101B9600A89004237401F07F107E277D007C00123C
:101BA60073A890002D7401F0E49001FCF07536FFE7
:101BB60075374A75381B9003EEE0F539A3E0F53A20
:101BC6007B017A0479261250BD7B017A04792612AC
:101BD60000037F537E007D007C001273A89004945E
:101BE6007401F0E4900012F090048B74FFF0A3747B
:101BF60048F0A37443F090048EE4F0A3F0A3F0F948
:101C0600900491C9F0A3F0A3E9F0E490040DF0A3C9
:101C1600F0900410F0A3F090041312456A0000003F
:101C26000090002DE0700204F0E49001FCF09001B9
:101C3600A3E07003021DA09001E3E0FF9001EBE03A
:101C460004FEF0D3EF6480F8EE6480985003021D22
:101C5600A0E4F090012FE004F0E4900004F0A3F07B
:101C6600021DA0900021E07004A3E064026003025C
:101C76001D01900177E0FEA3E0FF900424EEF0A39F
:101C8600EFF09003E5E0FDA3E090040DCDF0A3EDA9
:101C9600F0900410EEF0A3EFF0900175E0FFA3E0E2
:101CA6009003F0CFF0A3EFF09003EAE0FCA3E0FD91
:101CB600A3E0FEA3E0FF90041312455E90040AE041
:101CC600700204F0E4900408F090001FE0FEA3E028
:101CD600FFC390016FE09FFF90016EE09EFED3EF81
:101CE60094D2EE94075003021DA0900021E4F0A3C5
:101CF6007403F0E4900408F0021DA0900021E07047
:101D060004A3E064037062900175E0FEA3E0FF9017
:101D160003F0EEF0A3EFF0E4FCFD90041312455E31
:101D2600900408E0703C04F07BFF7A4779FD1200CE
:101D3600037F537E007D007C001273A87BFF7A4AE6
:101D4600793B1200037F537E007D007C001273A84E
:101D56007F107E277D007C001273A87F107E2702ED
:101D6600240CE4900423F08031900021E07004A359
:101D7600E06404702590002DE0700204F09001FCF0
:101D86007401F0900422E0700204F0900422E0B4A2
:101D960001089003F2E0700204F0900030E064283D
:101DA6006003023243F0F51A751B10900021F0A370
:101DB6007404F00221C690000CE0FEA3E08EF0123F
:101DC60046521F6FFFF71F29FFFB1F3FFFFD1DDC5C
:101DD600FFFE0000203FE490012FF0F51A751B016D
:101DE6007BFF7A4779FD1200037F537E007D007CDE
:101DF600001273A8900417E07003021EA090048BD3
:101E060074FFF0A37448F0A37443F090048EE4F0DA
:101E1600A3F0A3F0F9900491C9F0A3F0A3E9F0E4CC
:101E260090040DF0A3F0900410F0A3F090041312A8
:101E3600456A00000000E49003F2F090002DE07087
:101E46000204F0E49001FCF07BFF7A487947120027
:101E5600037F537E007D007C001273A890042374D8
:101E660001F07536FF7537487538599003EEE0F581
:101E760039A3E0F53A7B017A0479261250BD7B013D
:101E86007A0479261200037F537E007D007C0012BF
:101E960073A8900494740102311B7BFF7A4879077A
:101EA6001200037F537E007D007C001273A87F1012
:101EB6007E277D007C001273A890048B74FFF0A32C
:101EC6007448F0A37412F090048E74FFF0A3744863
:101ED600F0A37417F090049174FFF0A37448F0A374
:101EE600741BF090040BE0FFA3E090040DCFF0A369
:101EF600EFF09003E3E0FFA3E0900410CFF0A3EF30
:101F0600F0900401E0FCA3E0FDA3E0FEA3E0FF9057
:101F1600041312455E9003F27401F0E49003E7F0B7
:101F260002203F9001A2E014F0C364809480400335
:101F360002203F7404F002203F9001A2E0FF339597
:101F4600E0FE74EC2FF58274013EF583E004F0D3D5
:101F5600648094B9500302203F74EC2FF58274011B
:101F66003EF5837430F002203F9001ECE06431606E
:101F76000302203FA3E06430600302203FA3E06435
:101F860031600302203FA3E06430600302203FA3D8
:101F9600E06431600302203F900032E0FBA3E0FAE8
:101FA600A3E0F99000011245FC900036EBF0A3EA9D
:101FB600F0A3E9F09002437401F0E4A3F0A304F067
:101FC60090012BE090012FF09001FBE09002DAF0F7
:101FD600D3648094804006751A00751B039003E253
:101FE6007401F07BFF7A4779FD1200037F537E0070
:101FF6007D007C001273A89001A5740AF0FF126D93
:102006008290048B74FFF0A37447F0A37467F0907A
:10201600048E74FFF0A3744AF0A37446F0E49004AF
:102026000DF0A3F0900410F0A3F090041312456A8B
:1020360000000000E49003F2F0900006E07002A3B6
:10204600E0600F900019E07002A3E0700512735370
:10205600800B7B017A0179ECE4FD1271B712349D95
:1020660002324390000CE0FEA3E08EF012465220AE
:102076007DFFFE000020AEE4900021F0A3F0900169
:10208600A27404F0E49001EBF09002437478F090AF
:1020960002457401F0E490012FF0F51A751B0190CA
:1020A600002DF09001FCF022900170E0FEA3E0FF0D
:1020B600640B4E6006EF640C4E7044EF640B4E707A
:1020C600147BFF7A4A7953FD1271B790002DE070A8
:1020D6002504F08021900170E07004A3E0640C6098
:1020E600030232437BFF7A4A7959FD1271B7900099
:1020F6002DE0700204F09001FC7401F00232437B83
:10210600FF7A4A795FE4FD1271B7E490002DF090F2
:1021160001FCF002324390000CE0FEA3E08EF012C8
:10212600465222FD7FFF22E1BFFF2201DFFF221D73
:10213600EFFF21E5F7FF21D1FBFF22A9FDFF228D4D
:10214600FEFF2271FF7F22C5FFBF2239FFDF225526
:10215600FFEF21B5FFFB2190FFFD2168FFFE000088
:102166003243E4900021F0A3F09001A27404F0E45D
:102176009001EBF09002437478F09002457401F000
:10218600E490012FF0F51A0232409001E2E0C364B8
:102196008094815006E004F07576019001E2E0FF3C
:1021A6001273EC9001E2E0D3648094800232439093
:1021B60001E2E0D3648094804006E014F075760175
:1021C6009001E2E0FF1273EC0232431271AF90030A
:1021D600FE74FFF0A37449F0A374A3F00232437BAC
:1021E600FF7A4979A8E4FD1271B79003FE74FFF0F7
:1021F600A37449F0A374AEF00232437BFF7A4979A7
:10220600B3E4FD1271B79003FE74FFF0A37449F0B6
:10221600A374B9F00232437BFF7A4979BEE4FD121A
:1022260071B79003FE74FFF0A37449F0A374C4F071
:102236000232437BFF7A4979C9E4FD1271B79003F4
:10224600FE74FFF0A37449F0A374CFF00232437B0F
:10225600FF7A4979D4E4FD1271B79003FE74FFF05A
:10226600A37449F0A374DAF00232437BFF7A49790A
:10227600DFE4FD1271B79003FE74FFF0A37449F01A
:10228600A374E5F00232437BFF7A4979EAE4FD1252
:1022960071B79003FE74FFF0A37449F0A374F0F0D5
:1022A6000232437BFF7A4979F5E4FD1271B7900358
:1022B600FE74FFF0A37449F0A374FBF00232437B73
:1022C600FF7A4A7900E4FD1271B79003FE74FFF0BD
:1022D600A3744AF0A37465F00232437BFF7A4A790D
:1022E6006AE4FD1271B79003FE74FFF0A37448F020
:1022F600A37412F00232437BFF7A4A7970E4FD122E
:1023060071B79003FE74FFF0A37448F0A37417F03E
:1023160002324390000CE0FEA3E08EF012465225F6
:102326008CFFF724A6FFFB250FFFFD2339FFFE00D8
:10233600002592E4900021F0A3F09001A27404F02D
:10234600E49001EBF09002437478F090024574013A
:10235600F0E490012FF0F51A751B017BFF7A47799F
:10236600FD1200037F537E007D007C001273A8904F
:102376000417E0700302241390048B74FFF0A37417
:1023860048F0A37443F090048EE4F0A3F0A3F0F9B0
:10239600900491C9F0A3F0A3E9F0E490040DF0A332
:1023A600F0900410F0A3F090041312456A000000A8
:1023B60000E49003F2F090002DE0700204F0E49047
:1023C60001FCF07BFF7A4879471200037F537E00B9
:1023D6007D007C001273A89004237401F07536FF0B
:1023E60075374A7538769003EEE0F539A3E0F53A8D
:1023F6007B017A0479261250BD7B017A0479261274
:1024060000037F537E007D007C000273A87BFF7A69
:102416004879071200037F537E007D007C0012730B
:10242600A87F107E277D007C001273A890048B7411
:10243600FFF0A37448F0A37412F090048E74FFF0BA
:10244600A37448F0A37417F090049174FFF0A3747A
:1024560048F0A3741BF090040BE0FFA3E090040D7A
:10246600CFF0A3EFF09003E3E0FFA3E0900410CFDA
:10247600F0A3EFF0900401E0FCA3E0FDA3E0FEA3CF
:10248600E0FF90041312455EE4900021F0A3F09063
:1024960003F204F0E49003E7F0900423F00225929F
:1024A600900243E0FD701390012FE0FE14F0EE70F1
:1024B600099002DAE01490012FF0EDB401199001B1
:1024C6002BE0FF90012FE0FE14F0EEB50709900215
:1024D600DAE01490012FF090012FE0900244F0A36F
:1024E6007401F07BFF7A4779FD1200037F537E006B
:1024F6007D007C001273A89001A5E0FF14F0EFD3D5
:10250600940A5078741DF08073900243E0FF7019AE
:102516009002DAE0FE90012FE004FDF0C3EE648045
:10252600F8ED6480984002E4F0EFB4011F9002DAFF
:10253600E0FF90012FE004FEF0C3EF6480F8EE6444
:102546008098400890012BE090012FF090012FE039
:10255600900244F0A37401F07BFF7A4779FD1200E4
:10256600037F537E007D007C001273A89001A5E0D6
:10257600FF04F0EFC3941D4003740AF09001A5E038
:10258600FF126D8280069000017405F0900243E010
:102596007008900001E0600204F0900001E064051C
:1025A60060030226DBF090012FE0F5229001A27471
:1025B60004F09001307402F090024BE0FBA3E0FAC5
:1025C600A3E0F91245DC1242A9FFAEF0EE3395E026
:1025D600FDFC90019C12455E751A00751B04AF2226
:1025E600EF3395E0FEEF7803C333CE33CED8F9FF51
:1025F600900036E0FBA3E0FAA3E02FF9EA3EFA905A
:10260600024BEBF0A3EAF0A3E9F09001307402F07C
:102616001245DC752A03E4F52B752C01752D017521
:102626002EF1F52F7530027D021263778F2390010C
:10263600A47403F09001EC7430F0A3F074031460FA
:102646006A1460421460030226CFAF23EF3395E08D
:10265600FE74F12FF58274013EF583E0FF9001EEE2
:10266600F0BF20037430F0AF23EF3395E0FE74F231
:102676002FF58274013EF583E0FD9001EFF0BD2059
:10268600037430F080349001EE7420F0AF23EF3302
:1026960095E0FE74F22FF58274013EF583E0FD901D
:1026A60001EFF0BD20037430F0800F9001EE74202E
:1026B600F0A3F0AF23EF3395E0FE74F32FF58274A9
:1026C600013EF583E09001F0F0E490002BF0A3F0DA
:1026D600F51A751B04D3900005E09400900004E001
:1026E6009400400FA3E024FFF0900004E034FFF0D4
:1026F6000232439001E4E0FF900004E4F0A3EFF01F
:1027060090012FE0FF3395E0FEEF7803C333CE331D
:10271600CED8F9FF900036E0FBA3E0FAA3E02FF94C
:10272600EA3EFA90024BEBF0A3EAF0A3E9F0124579
:10273600DC1242A9FFAEF0EE3395E0FDFC90019C61
:1027460012455E900243E0700890012FE0FF12569A
:10275600E2900243E0B401031256D6752A03E4F56B
:102766002B752C01752D01752EF1F52F7530027A1A
:1027760001799C1263738F2374F12FF9E43401FA03
:102786007B017D0212707390000CE0F47004A3E0EC
:1027960064FE70030232430231EB90000CE0FEA3AC
:1027A600E08EF01246522AA2FFF7294CFFFB29FCC5
:1027B600FFFD27C0FFFE00003128900243E06003C2
:1027C600023122900021F0A3F09001A27404F0E4FB
:1027D6009001EBF09002437478F09002457401F09A
:1027E600E490012FF0F51A751B01900031E06002AC
:1027F600E4F07BFF7A4779FD1200037F537E007D6C
:10280600007C001273A8900417E070030228BD90A4
:10281600048B74FFF0A37448F0A37443F090048E05
:10282600E4F0A3F0A3F0F9900491C9F0A3F0A3E9B2
:10283600F0E490040DF0A3F0900410F0A3F09004DF
:102846001312456A00000000E49003F2F090002D98
:10285600E0700204F0E49001FCF07BFF7A487947CF
:102866001200037F537E007D007C001273A87F1048
:102876007E277D007C001273A89004237401F075F6
:1028860036FF7537487538599003EEE0F539A3E001
:10289600F53A7B017A0479261250BD7B017A0479D8
:1028A600261200037F537E007D007C001273A890E1
:1028B6000494740102311B7BFF7A487907120003E6
:1028C6007F537E007D007C001273A87F107E277DDB
:1028D600007C001273A890048B74FFF0A37448F078
:1028E600A37412F090048E74FFF0A37448F0A374DE
:1028F60017F090049174FFF0A37448F0A3741BF0D2
:1029060090040BE0FFA3E090040DCFF0A3EFF0904E
:1029160003E3E0FFA3E0900410CFF0A3EFF09004F0
:1029260001E0FCA3E0FDA3E0FEA3E0FF9004131288
:10293600455EE4900021F0A3F09003F204F0E490E9
:1029460003E7F002312890012FE0FF3395E0FEEF18
:102956007803C333CE33CED8F9FF900036E0FBA31D
:10296600E0FAA3E02FF9EA3EFA9000071241E130BF
:10297600E00302312890019CE0FCA3E0FDA3E0FE09
:10298600A3E0FFC006C007900029E0FEA3E0FBAA73
:1029960006EA3395E0F9F8D007D006C3EF9BFFEEC1
:1029A6009AFEED99FDEC98FC90019C12455E900212
:1029B6004BE0FBA3E0FAA3E0F99000051242D4FF36
:1029C600AEF0EE3395E0FDFC90019CE0F8A3E0F953
:1029D600A3E0FAA3E0FBC31244834003023128902C
:1029E600024BE0FBA3E0FAA3E0F99000051242D403
:1029F600FFAEF0022A9390012FE0FF3395E0FEEF41
:102A06007803C333CE33CED8F9FF900036E0FBA36C
:102A1600E0FAA3E02FF9EA3EFA9000071241E1300E
:102A2600E00302312890019CE0F8A3E0F9A3E0FA64
:102A3600A3E0FB900029E0FEA3E0FFEE3395E0FD66
:102A4600FCEB2FFFEA3EFEE93DFDE83CFC90019CD5
:102A560012455E90024BE0FBA3E0FAA3E0F990007A
:102A6600031242D4F52585F024AE24FFEE3395E01B
:102A7600FDFC90019CE0F8A3E0F9A3E0FAA3E0FBDB
:102A8600D31244835003023128AE24AF25EE33958A
:102A9600E0FDFC90019C12455E023128900019E091
:102AA6007002A3E06003022BB87B017A0179EC90F7
:102AB6000130E0F52A7D05126E8690019C12455E76
:102AC60090024BE0FBA3E0FAA3E0F9900003124268
:102AD600D4FFAEF0EE3395E0FDFC90019CE0F8A348
:102AE600E0F9A3E0FAA3E0FBD31244834003022BF0
:102AF600B890024BE0FBA3E0FAA3E0F990000512C0
:102B060042D4FFAEF0EE3395E0FDFC90019CE0F878
:102B1600A3E0F9A3E0FAA3E0FBC312448350030247
:102B26002BB87E007F02E47066EF146048146025BF
:102B360024FE705B90019CE0FCA3E0FDA3E0FEA3F5
:102B4600E0FF90024BE0FBA3E0FAA3E0F91245DCBC
:102B5600124520803A90019CA3A3E0FEA3E0FF90DB
:102B6600024BE0FBA3E0FAA3E0F91245DCEE8FF09E
:102B760012430C801A90019CA3A3A3E0FF90024B82
:102B8600E0FBA3E0FAA3E0F91245DCEF12420E9057
:102B960001EEE0B4300B7420F0A3E0B430037420EF
:102BA600F07B017A0179EE7D02127073E4FFFE126A
:102BB6006B5B900243E06003023122900021F0A398
:102BC600F09001A27404F0E49001EBF090024374DB
:102BD60078F09002457401F0E490012FF0F51A7533
:102BE6001B019003E2F0900031E0B40102E4F07BB7
:102BF600FF7A4779FD1200037F537E007D007C003B
:102C06001273A8900417E07003022CBA90048B7418
:102C1600FFF0A37448F0A37443F090048EE4F0A38D
:102C2600F0A3F0F9900491C9F0A3F0A3E9F0E490C1
:102C3600040DF0A3F0900410F0A3F09004131245D5
:102C46006A00000000E49003F2F090002DE07002AC
:102C560004F0E49001FCF07BFF7A48794712000308
:102C66007F537E007D007C001273A87F107E277D37
:102C7600007C001273A89004237401F07536FF756A
:102C860037487538599003EEE0F539A3E0F53A7BFD
:102C9600017A0479261250BD7B017A047926120046
:102CA600037F537E007D007C001273A89004947409
:102CB6000102311B7BFF7A4879071200037F537E9E
:102CC600007D007C001273A87F107E277D007C00AB
:102CD6001273A890048B74FFF0A37448F0A37412C7
:102CE600F090048E74FFF0A37448F0A37417F0906C
:102CF600049174FFF0A37448F0A3741BF09000369F
:102D0600E0FBA3E0FAA3E0F990024BEBF0A3EAF0B4
:102D1600A3E9F01245DC1242A9FFAEF090040BEED7
:102D2600F0A3EFF090040DEEF0A3EFF0900036E084
:102D3600FBA3E0FAA3E02408F9E43AFA90024BEB8D
:102D4600F0A3EAF0A3E9F01245DC1242A9FFAEF0C7
:102D56009003E3EEF0A3EFF0900410EEF0A3EFF093
:102D6600900401E0FCA3E0FDA3E0FEA3E0FF9004D5
:102D76001312455EE4900021F0A3F09003F204F0F4
:102D8600E49003E7F0700204F07BFF7A4879C01202
:102D960000037F537E007D007C001273A87536FF0A
:102DA6007537487538CB90040DE0F539A3E0F53A50
:102DB6007B017A0479261250BD7B017A04792612AA
:102DC60000037F537E007D007C001273A87BFF7A90
:102DD6004879E21200037F537E007D007C00127367
:102DE600A87BFF7A4879EE1200037F537E007D00B0
:102DF6007C001273A87536FF7537487538F990044C
:102E060010E0F539A3E0F53A7B017A0479261250F1
:102E1600BD7B017A0479261200037F537E007D0074
:102E26007C001273A87BFF7A4879E21200037F5375
:102E36007E007D007C001273A87B807A9679987854
:102E460000900413E0FCA3E0FDA3E0FEA3E0FF1264
:102E560043E3EF24309003F3F0900413E0FCA3E087
:102E6600FDA3E0FEA3E0FF7B807A967998780012B6
:102E760043E3AC00AD01AE02AF0390041312455E0E
:102E86007B407A42790F7800900413E0FCA3E0FDC2
:102E9600A3E0FEA3E0FF1243E3EF24309003F4F037
:102EA600900413E0FCA3E0FDA3E0FEA3E0FF7B405B
:102EB6007A42790F78001243E3AC00AD01AE02AF5F
:102EC6000390041312455E7BA07A86790178009000
:102ED6000413E0FCA3E0FDA3E0FEA3E0FF1243E33E
:102EE600EF24309003F5F0900413E0FCA3E0FDA37B
:102EF600E0FEA3E0FF7BA07A86790178001243E327
:102F0600AC00AD01AE02AF0390041312455EE47B44
:102F1600107A27F9F8900413E0FCA3E0FDA3E0FE85
:102F2600A3E0FF1243E3EF24309003F6F09004137E
:102F3600E0FCA3E0FDA3E0FEA3E0FFE47B107A271C
:102F4600F9F81243E3AC00AD01AE02AF03900413EF
:102F560012455EE47BE87A03F9F8900413E0FCA3DB
:102F6600E0FDA3E0FEA3E0FF1243E3EF243090036D
:102F7600F7F0900413E0FCA3E0FDA3E0FEA3E0FF5E
:102F8600E47BE87A03F9F81243E3AC00AD01AE0244
:102F9600AF0390041312455EE47B64FAF9F89004DB
:102FA60013E0FCA3E0FDA3E0FEA3E0FF1243E3EF82
:102FB60024309003F8F0900413E0FCA3E0FDA3E0B6
:102FC600FEA3E0FFE47B64FAF9F81243E3AC00AD3C
:102FD60001AE02AF0390041312455EE47B0AFAF9D0
:102FE600F8900413E0FCA3E0FDA3E0FEA3E0FF12CB
:102FF60043E3EF24309003F9F0900413E0FCA3E0E0
:10300600FDA3E0FEA3E0FFE47B0AFAF9F81243E32E
:10301600AC00AD01AE02AF0390041312455E9004FE
:1030260013A3A3A3E024309003FAF0E4A3F09004E2
:1030360001E0FCA3E0FDA3E0FEA3E0FF9004131271
:10304600455E7BFF7A4979101200037F537E007D2F
:10305600007C001273A87536FF75374975381B75E5
:103066003901753A03753BF37B017A0479261250D0
:10307600BD7B017A0479261200037F537E007D0012
:103086007C001273A87BFF7A4879E21200037F5313
:103096007E007D007C001273A87BFF7A497961125D
:1030A60000037F537E007D007C001273A89003FE10
:1030B600E0FBA3E0FAA3E04A4B60367536FF7537AE
:1030C6004A7538969003FEE0FBA3E0FAA3E08B393D
:1030D6008A3AF53B7B017A0479261250BD7B017A48
:1030E6000479261200037F537E007D007C00127354
:1030F600A87BFF7A4879E21200037F537E007D00A9
:103106007C001273A87F107E277D007C001273A8B6
:103116009004947401F0E4900012F022751A007580
:103126001B03900006E07002A3E06010900019E017
:103136007002A3E07006127353023243900243E01A
:10314600700890012FE0FF1256E2900243E0B401AE
:10315600031256D6752A05E4F52B752C01752D013B
:10316600752EF1F52F7530027B017A01799C7D046D
:103176001263778F23EF3395E0FE74F12FF5827497
:10318600013EF583E0FF9001EEF0BF20037430F0BE
:10319600AF23EF3395E0FE74F22FF58274013EF50E
:1031A60083E0FD9001EFF0BD20037430F074F32F3F
:1031B600F58274013EF583E09001F0F07B017A011F
:1031C60079EE7D0212707390000CE0FEA3E0FF64BE
:1031D600FE7002EEF46066BEFF0BBFF7089000318A
:1031E600E064016058E490040DF0A3F0900410F040
:1031F600A3F090041312456A00000000803F90027D
:1032060049E0FEA3E0FFC390016FE09FFF90016ECF
:10321600E09EFED3EF94E8EE9403400E900247E062
:10322600FF3395E0F51A8F1B80137BFF7A4A79AD41
:10323600E4FD1271B78006751A00751B0190001225
:10324600E0701304F090016EE0FFA3E0900002CF5F
:10325600F0A3EFF0805D900002E0FEA3E0FFC390D4
:10326600016FE09FFF90016EE09EFED3EF9432EE79
:103276009400403F900006E07002A3E070047F01D6
:1032860080027F00900006E4F0A3EFF0E4900012C5
:10329600F0900409E070047F0180027F0090040929
:1032A600EFF0900494E070047F0180027F009004A8
:1032B60094EFF090002DE024F6603124F66071243E
:1032C600F6700302336B241D600302339290016E85
:1032D600E0FFA3E090002ECFF0A3EFF0900000E017
:1032E6004402F090002D740AF00233929001FCE043
:1032F60070067E017FF480047E007F3290002EE00F
:10330600FCA3E0FD90016EE0FAA3E0FBC39DFDEA9D
:103316009CFCD3ED9FEC9E407390002EEAF0A3EB4D
:10332600F0900000E054FDF090002D7414F0805CE5
:103336009001FCE07E077FD090002EE0FCA3E0FD2C
:1033460090016EE0FAA3E0FBC39DFDEA9CFCD3ED81
:103356009FEC9E403790002EEAF0A3EBF090002DF4
:10336600741EF08027900170E07002A3E070179041
:103376000172E05480FF3395E04F700AA3E07006B7
