:03000000023D03BB
:0C3D0300787FE4F6D8FD758179023D4A16
:103630000170000267000001717F02720000026DDC
:103640000000026B000001780001740001660001B7
:103650007700016A00016900016300016F000179D0
:1036600001017600017500026400004E040B100099
:103670000378000000000000000000004E045F20FE
:10368000000378000000000000000000004E04511C
:1036900000100378000000000000000000004E044D
:1036A0004300200378000000000000000000004EEE
:1036B0000435004003780000000000000000000016
:1036C0004E04190080037800000000000000000094
:1036D000004E0427010003780000000000000000F5
:0236E0000000E8
:10000E00438E80E4F589758A67758CFCD28CD2A9F3
:03001E00D2AF223C
:1042FC00E4F5957596207580FF7590FF75A0FF7598
:08430C00B0FF12000E02434055
:104314007E007FEC7D007B017A02791D121BD9900F
:0643240002197401F022F1
:102D53008B608A61896290000212182EFFAEF0E543
:102D6300F06003022F47EF24F6604C24F670030251
:102D73002E2124F67003022E97241E6003022F4790
:102D830090000CE4F5F0121885121803FF90021559
:102D9300E055F0FEA3E05F4E6003022F47AB60AA4D
:102DA30061A96290000275F00A121885900004125E
:102DB3001AF50000000022AB60AA61A96212180391
:102DC300FF900215E055F0FEA3E05F4E70379000D0
:102DD30004121A4AEF2401FFE43EFEE43DFDE43C05
:102DE300FC900004121A94900004121A4AE47B1413
:102DF300FAF9F8C31219F34003022F47AB60AA6133
:102E0300A962022F3DAB60AA61A962900004121A65
:102E1300F500000000900002E4F5F0022F44AB60DF
:102E2300AA61A962900004121A4AEF2401FFE43E4A
:102E3300FEE43DFDE43CFC900004121A94121803D6
:102E4300FF900215E055F0FEA3E05F4E601AAB6001
:102E5300AA61A962900002E475F01E121885900021
:102E630008121AF500000000AB60AA61A962900085
:102E730004121A4AE47B907A01F9F8C31219F34059
:102E830003022F47AB60AA61A96290000CE475F0BE
:102E930001022F44AB60AA61A962900004121A4A8E
:102EA300EF2401FFE43EFEE43DFDE43CFC9000041E
:102EB300121A94121803FF900215E055F0FEA3E0D6
:102EC3005F4E6066AB60AA61A962900008121A4A5D
:102ED300EF2401FFE43EFEE43DFDE43CFC900008EA
:102EE300121A94900008121A4AE47B14FAF9F8C3F0
:102EF3001219F3504FAB60AA61A96290000C12182B
:102F03002E640145F090000C700575F0038004E415
:102F130075F002121885900004121AF500000000E3
:102F2300900002740375F0788017AB60AA61A96200
:102F3300900008121AF500000000900002E475F0FA
:052F43001412188522A4
:10422C007B017A047951122D537B017A0479431264
:10423C002D537B017A047919122D537B017A047961
:10424C0027122D537B017A04790B122D537B017AA3
:06425C0004795F022D53FE
:1042BA00E4900453F0A3F0900445F0A3F090041B9B
:1042CA00F0A3F0900429F0A3F090040DF0A3F0906D
:0642DA000461F0A3F022D4
:102F4800900417E0FEA3E0FF4E604690030D74EF77
:102F5800F0A374FFF0EF64014E701290021804F0B1
:102F6800E5654564702BF5647565018021EF6402A1
:102F78004E9002187004740280027403F0E4900406
:102F880017F0A3F090040DF0A3F0F564F5657576DD
:102F98000190046BE0FEA3E0FF4E604690030D74C1
:102FA800DFF0A374FFF0EF64014E70129002180472
:102FB800F0E5654564702BF5647565018021EF6463
:102FC800024E9002187004740280027403F0E490B8
:102FD800046BF0A3F0900461F0A3F0F564F5657557
:102FE800760190045DE0FEA3E0FF4E604690030D7D
:102FF80074FFF0A374EFF0EF64014E7012900218A2
:1030080004F0E5654564702BF5647565018021EF72
:1030180064024E9002187004740280027403F0E493
:1030280090045DF0A3F0900453F0A3F0F564F56507
:1030380075760190044FE0FEA3E0FF4E60469003D2
:103048000D74FFF0A374DFF0EF64014E701290026C
:103058001804F0E5654564702BF5647565018021F9
:10306800EF64024E9002187004740280027403F038
:10307800E490044FF0A3F0900445F0A3F0F564F554
:1030880065757601900425E0FEA3E0FF4E6046904A
:10309800030D74FFF0A3747FF0EF64014E7012907B
:1030A800021804F0E5654564702BF56475650180C8
:1030B80021EF64024E9002187004740280027403B7
:1030C800F0E4900425F0A3F090041BF0A3F0F5645D
:1030D800F565757601900433E0FEA3E0FF4E604588
:1030E80090030D74FEF0A304F0EF64014E7012908B
:1030F800021804F0E5654564702BF5647565018078
:1031080021EF64024E900218700474028002740366
:10311800F0E4900433F0A3F0900429F0A3F0F564F0
:06312800F5657576012239
:03000B000242624C
:10426200C0E0C0F0C083C082C0D075D0089002CE3A
:10427200E004F070069002CDE004F012428E124289
:0C4282002CD0D0D082D083D0F0D0E0321D
:103E6700E4F5701242FC1243141232FC9002CDE0CA
:103E7700F572A3E0F573E575702AC39002CEE0955D
:103E870073FF9002CDE09572FED3EF94F4EE9401A8
:103E97004012E0FEA3E08E72F5738E6DF56E12424E
:103EA700BA757501E575B401CD1200269002E3E0FD
:103EB700B4020C1220559002E37403F0E4A3F0124D
:073EC7001CAA122F4880AF76
:0D36E2004A046D00FF00FF00FF00FF00FF25
:0C3FF300C290C2907F007E007D007C0028
:083FFF008F2D8E2C8D2B8C2AD6
:10400700E4F531F530F52FF52EAF2DAE2CAD2BACF9
:104017002AAB31AA30A92FA82EC31219DD501C00D4
:10402700E4FAF9F8E5312401F531EA3530F530E9FC
:0B403700352FF52FE8352EF52E80CE3A
:01404200225B
:10435600D290D290D291D291123FF7C291C29122BD
:10432A00123FF3C291C291123FF7D290D290123F3C
:06433A00F7D291D291229E
:0F436600123FF3D290D290123FF7C290C2902232
:0441F1008E278F285E
:1041F500E4F529123FF7123FF3E52830E006D291A6
:10420500D2918004C291C291123FF7E527C313F5FD
:1042150027E52813F528D290D290123FF70529E516
:0642250029C3940840CDFE
:01422B002270
:103D8F0012438B1243567F407E001241F112000303
:103D9F0012436612438B12432A1243567FC07E0092
:103DAF001241F112000312436612438BE4F526E52C
:103DBF002625E0246DF582E43404F583E0FEA3E0CC
:103DCF00FF1241F112000312436612438B0526E5E1
:103DDF0026C3940540D912432A1243567F8C7E0086
:0F3DEF001241F112000312436612438B02432A62
:05000300C294D2952219
:05438B00D294D295223E
:1028BE003030303030003130313031003130313065
:1028CE00320031303130330031303130340032307B
:1028DE003130310000312D00322D00332D00342DDA
:1028EE0000352D00362D00372D00382D00392D00E6
:1028FE0031300031310031320031330031340031AA
:10290E003500313600313700313800313900323080
:10291E0000323100323200323300323400323500B0
:10292E003236003237003238003239003330002070
:10293E002020413100202020413200202020413330
:10294E00002020204134002020204135002020206E
:10295E004136002020204137002020204138002021
:10296E0020204139002020413130003630323138BC
:10297E000020462D2D300020462D2D310020462DD5
:10298E002D320020462D2D330020462D2D340020D3
:10299E00462D2D3500502D2D00452D2D0051322D5B
:1029AE002D2D00502D2D203100502D2D2032005078
:1029BE002D2D2030002020203131002020203132DA
:1029CE000020202031330020202031340020202010
:1029DE0031350020202031360020202031370020D4
:1029EE0020203138002020203139002020203230A4
:1029FE0000202020323100202020323200202045BD
:102A0E007272000001003DFF28BE1000020000019E
:102A1E00032B0101004DFF28C41200150000010315
:102A2E002D020100FDFF28CA14000E000001032E26
:102A3E000301016DFF28D016000E000001032F04C4
:102A4E000101DDFF28D61C0007000001033005013F
:102A5E0000F5FF28DC1A0001000001033100000020
:102A6E00000000000000000000000000FF28E2400F
:102A7E000000000102DC0405000001869F0000003A
:102A8E000000000000000000000000000000000038
:102A9E000000000000000000000000000000000028
:102AAE000000000000000000000000000000000018
:102ABE0000000000000000FEB0EDF9B3DBDFF0FF18
:102ACE00FB00004080003F065B4F666D7D077F6F09
:102ADE00771F4E3D4F47FB771F4E3D7971FB3706F3
:102AEE000E07386A761D7367055B313E1C5C313B01
:102AFE00ED000000620800771F4E3D4F47FB370682
:102B0E0038070E6A151D6773505B783E1C5C313BAF
:062B1E00ED0000000000C4
:1036EF0041021C00410331004103120046032B022B
:1036FF00150E0701004803130402FF2A7AFF2A114F
:10370F0042030D0000410218004102190141003926
:10371F00004100000041000100420006000042008D
:10372F000C000042000E0000420010000041001289
:10373F000042001300004200150000420017000075
:10374F00420019000042001B000042001D00004211
:10375F00001F000042002100004200230000420031
:10376F00270000420029000141002D0042002E00D9
:0F377F00004100300042003100004200330000E2
:043ECE007BFFE4FD95
:103ED2008B268A2789288D29AB260528E528AA273B
:103EE2007002052714F9121722FF3395E0FE74A41D
:103EF2002FF582742A3EF583E493FD3395E0FCAFFF
:103F0200290529EF3395E0FEEF25E0FFEE33FE743D
:103F12006D2FF58274043EF583ECF0A3EDF0C3E55A
:103F220029648094865009AA27A92812172270A80A
:013F3200226C
:10238E00E4F529EF121B86241100241D01242902D5
:10239E00243503244104244D0524590624650724BD
:1023AE007108247D0924890A24950B24A10C24ADDF
:1023BE000D24B90E24C50F24D11024DD1124E912E9
:1023CE0024F513250114250D152519162525172578
:1023DE003118253D1925491A25551B25611C256CDB
:1023EE001D257750258251258D5225985325A354AE
:1023FE0025AE5525B95625C45725CF5825DA59008F
:10240E000025E37526FF7527287528E30225E37559
:10241E0026FF7527287528E60225E37526FF752702
:10242E00287528E90225E37526FF7527287528ECFF
:10243E000225E37526FF7527287528EF0225E3751B
:10244E0026FF7527287528F20225E37526FF7527C6
:10245E00287528F50225E37526FF7527287528F8B7
:10246E000225E37526FF7527287528FB0225E375DF
:10247E0026FF7527287528FE0225E37526FF75278A
:10248E00297528010225E37526FF7527297528046D
:10249E000225E37526FF7527297528070225E375A2
:1024AE0026FF75272975280A0225E37526FF75274D
:1024BE002975280D0225E37526FF75272975281025
:1024CE000225E37526FF7527297528130225E37566
:1024DE0026FF7527297528160225E37526FF752711
:1024EE00297528190225E37526FF75272975281CDD
:1024FE000225E37526FF75272975281F0225E3752A
:10250E0026FF7527297528220225E37526FF7527D4
:10251E00297528250225E37526FF75272975282894
:10252E000225E37526FF75272975282B0225E375ED
:10253E0026FF75272975282E0225E37526FF752798
:10254E00297528310225E37526FF7527297528344C
:10255E000225E37526FF752729752837807775269E
:10256E00FF75272975283A806C7526FF7527297502
:10257E00283D80617526FF7527297528438056757D
:10258E0026FF752729752849804B7526FF75272943
:10259E0075284F80407526FF75272975285580357B
:1025AE007526FF75272975285B802A7526FF7527E6
:1025BE0029752861801F7526FF7527297528678064
:1025CE00147526FF75272975286D80097526FF75E8
:1025DE002729752873AB260528E528AA277002053A
:1025EE002714F9121722FF3395E0FE74A42FF582FB
:1025FE00742A3EF583E493FD3395E0FCAF2905295B
:10260E00EF3395E0FEEF25E0FFEE33FE746D2FF510
:10261E008274043EF583ECF0A3EDF0C3E5296480EB
:0D262E0094865009AA27A92812172270A827
:01263B00227C
:04416900AC07A905F1
:10416D00AD04E9FF3395E0FEECFB3395E0FAEB2F60
:10417D00FFEA3EFEEDFB3395E0FAC3EB9FEE648064
:10418D00F8EA6480985018EB25E0FFEA33FE746D71
:0F419D002FF58274043EF583E4F0A3F00D80C388
:0141AC0022F0
:0A3AD1008F237B017A037921E4FDC5
:083ADB008B268A2789288D291A
:103AE300E4F52AAB26AA27A92890000112173BB4B4
:103AF3002E05E52AB40148AB260528E528AA277038
:103B030002052714F9121722FF3395E0FE74A42F40
:103B1300F582742A3EF583E493FD3395E0FCAF29E7
:103B23000529EF3395E0FEEF25E0FFEE33FE746DDC
:103B33002FF58274043EF583ECF0A3EDF08056ABD1
:103B4300260528E528AA277002052714F91217224B
:103B5300FF3395E0FE74A42FF582742A3EF583E4C7
:103B6300934480FD3395E0FCAF290529EF3395E0BD
:103B7300FEEF25E0FFEE33FE746D2FF58274043EF5
:103B8300F583ECF0A3EDF0752A0174012528F528DF
:103B9300E43527F527C3E529648094865003023A68
:013BA300E63B
:013BA40022FE
:1034BB00E4FDEDFF3395E0FEEF25E0FFEE33FE7408
:1034CB001D2FF974023EFA7B01EDFF3395E0FEEF01
:1034DB007803C333CE33CED8F9243DF58274003E46
:1034EB00F583EBF0A3EAF0A3E9F00DBD02C4E4FD14
:1034FB00EDFF3395E0FEEF25E0FFEE33FE74232F57
:10350B00F974023EFA7B01EDFF3395E0FEEF780391
:10351B00C333CE33CED8F9244DF58274003EF583F8
:10352B00EBF0A3EAF0A3E9F00DBD15C4E4FDEDFF4C
:10353B003395E0FEEF25E0FFEE33FE744F2FF97469
:10354B00023EFA7B01EDFF3395E0FEEF7803C333C8
:10355B00CE33CED8F924FDF58274003EF583EBF023
:10356B00A3EAF0A3E9F00DBD0EC4E4FDEDFF339526
:10357B00E0FEEF25E0FFEE33FE746D2FF974023E93
:10358B00FA7B01EDFF3395E0FEEF7803C333CE33C7
:10359B00CED8F9246DF58274013EF583EBF0A3EAE6
:1035AB00F0A3E9F00DBD0EC4E4FDEDFF3395E0FE95
:1035BB00EF25E0FFEE33FE748B2FF974023EFA7B9E
:1035CB0001EDFF3395E0FEEF7803C333CE33CED856
:1035DB00F924DDF58274013EF583EBF0A3EAF0A349
:1035EB00E9F00DBD07C4E4FDEDFF3395E0FEEF25DB
:1035FB00E0FFEE33FE749B2FF974023EFA7B01ED74
:10360B00FF3395E0FEEF7803C333CE33CED8F924E6
:10361B00F5F58274003EF583EBF0A3EAF0A3E9F035
:04362B000DBD01C40C
:01362F002278
:02263C008F22EB
:10263E00EF3395E0FE902A1B75F00FEF121B2AEE7A
:10264E0075F00FA42583F583E493F527740193F5B4
:10265E00280528E528AE277002052714FF1242E050
:10266E008F26E4F529F52AAF22EF3395E0FE902A66
:10267E001A75F00FEF121B2AEE75F00FA42583F5D5
:10268E0083E493FD3395E0FCC3E52A9DEC6480F86A
:10269E00E529648098400302279DE522B404399011
:1026AE002A1275F00F121B2AEE75F00FA42583F572
:1026BE0083E493FB740193FA740293F9E52AAE292D
:1026CE007803C333CE33CED8F929F9EA3EFA900017
:1026DE0003740175F0C2803FAF22EF3395E0FE9098
:1026EE002A1275F00FEF121B2AEE75F00FA4258338
:1026FE00F583E493FB740193FA740293F9E52AAE21
:10270E00297803C333CE33CED8F929F9EA3EFA90AD
:10271E000003740375F0E7121885E522FD3395E08A
:10272E00FC902A1275F00FED121B2AEC75F00FA417
:10273E002583F583E493FB740193FA740293F9E510
:10274E002AAE297803C333CE33CED8F9FF29F9EA5E
:10275E003EFA900005E4F5F0121885902A1275F0F5
:10276E000FED121B2AEC75F00FA42583F583E4936D
:10277E00FB740193FA7402932FF9EA3EFA90000764
:10278E00E412177A052AE52A7002052902267590A9
:10279E002A4EE493FB740193FA740293F99000337A
:1027AE00740175F0F4121885E52214601B14602371
:1027BE0014602B14603314603B24057040752301A4
:1027CE0075240275251D8035752301752402752526
:1027DE0023802A75230175240275254F801F7523CA
:1027EE000175240275256D801475230175240275FB
:1027FE00258B800975230175240275259BAF22EF69
:10280E003395E0FE902A1875F00FEF121B2AEE7525
:10281E00F00FA42583F583E493F527740193F5282F
:10282E00E4F529F52AAF22EF3395E0FE902A1A75CA
:10283E00F00FEF121B2AEE75F00FA42583F583E43B
:10284E0093FF3395E0FEEF2401FFE43EFEC3E52A3D
:10285E009FEE6480F8E52964809850530528E5289A
:10286E00AE277002052714FF1242E0AB23AA24A95B
:10287E0025EF12176874012525F525E43524F52476
:10288E000528E528AE277002052714FF1242E0AB9B
:10289E0023AA24A925EF12176874012525F525E42E
:0F28AE003524F524052AE52A700205290228336E
:0128BD0022F8
:103F3300E4FDEDFF3395E0FEEF25E0FFEE33FE7485
:103F43001D2FF58274023EF583E0FAA3E0FB749F14
:103F53002FF58274023EF583EAF0A3EBF00DBD0268
:103F6300D1E4FDEDFF3395E0FEEF25E0FFEE33FEF8
:103F730074232FF58274023EF583E0FAA3E0FB7409
:103F8300A32FF58274023EF583EAF0A3EBF00DBD97
:023F930015D146
:013F95002209
:103C73007BF97A7FE4FF0BEBAC0270010A14F58247
:103C83008C83E493FE74222FF8A6060FBF07E7AFD9
:103C930027EF3395E09002F7F0A3EFF0E0F8E4F0BC
:103CA300E89002F7F0AF28E0F0A3E04FF09002F7BE
:103CB300E0FEA3E0FF7C077DD01217AEA3ECF0A3D8
:103CC300EDF0E4FAFBE025E0FF9002F9E033FE12A9
:103CD30042E08F229002FAE025E0FF9002F9E03300
:103CE300FEEF2401FFE43EFE1242E08F23AF229059
:0F3CF30002FBE4F0A3EFF0AF23A3E4F0A3EFF0A4
:013D0200229E
:1032FC00C2A57A297979123ECE123D8F900315E042
:10330C00F9A3E0FAA3E09003A3C9F0A3EAF0A3E9C0
:10331C00F0E4F5219003A3E0FBA3E0FAA3E0F9AFFE
:10332C0021EF3395E08F82F5837415121B19121B54
:10333C0056EA494B6004052180DA900396E521F0AA
:10334C00900318E0FBA3E0FAA3E0F9900036EBF051
:10335C00A3EAF0A3E9F0900001121B5690003AEB9F
:10336C00F0A3EAF0A3E9F0E4F521900036E0FBA32A
:10337C00E0FAA3E0F9AF21EF3395E08F82F5837487
:10338C000F121B1912173BB5210712263C05218081
:10339C00D9900217E521F0123F331234BBE49003AD
:1033AC001BF090021AF0F517751801900310F090AD
:1033BC0002D1F09002CFF0A3F09002D2F09002D89C
:1033CC00121AC400000000E49002F5F0123C739055
:1033DC0002FBE0FFA3E0900285CFF0A3EFF0900298
:1033EC00FDE0FFA3E0900287CFF0A3EFF0E49002A2
:1033FC00F6F0F521AF21EF3395E0FEEF7802C33301
:10340C00CE33CED8F9FF246DF58274023EF583E0FD
:10341C00FCA3E04C7028746F2FF58274023EF58388
:10342C00E0FEA3E04E70179002F6E0FFAE217401AF
:10343C00A806088002C333D8FC4F9002F6F0AF21E7
:10344C00EF3395E0FEEF7802C333CE33CED8F9FFDD
:10345C00244FF58274023EF583E4F0A3F074512FEF
:10346C00F58274023EF583E4F0A3F00521E52164B6
:10347C0007708112312E123BA5E47B107A27F9F8E4
:10348C009002FFE0FCA3E0FDA3E0FEA3E0FF121915
:10349C003D90029BEEF0A3EFF0E49002CDF0A3F090
:0E34AC009002D4F0A3F074FF900215F0A3F08C
:0134BA0022EF
:04379D008E268F27BE
:1037A1007570AA902A1875F00FEF121B2AEE75F0AA
:1037B1000FA42583F583E493FE740193FF12412442
:1037C100E4F570E5267055E52714601B1460231499
:1037D100602B14603314603B24057040752801751B
:1037E1002902752A1D8035752801752902752A233C
:1037F100802A752801752902752A4F801F752801B5
:10380100752902752A6D8014752801752902752A9A
:103811008B8009752801752902752A9B902A1875D4
:10382100F00FE527121B2AE52675F00FA42583F575
:1038310083E493F52C740193F52DE4F52B902A1A6A
:1038410075F00FE527121B2AE52675F00FA42583D5
:10385100F583E493FF3395E0FEEF2401FFE43EFEA0
:10386100C3E52B9FEE6480F874809840030238FC16
:103871007570AAAB28AA29A92A121722FDAF2DAE6D
:103881002C124043AF2DAE2C1242E0AE07AB28AA5A
:1038910029A92A1217226E60079002D0E04420F075
:1038A1007401252AF52AE43529F529052DE52D7020
:1038B10002052CAB28AA29A92A121722FDAF2DAE89
:1038C1002C124043AF2DAE2C1242E0AE07AB28AA1A
:1038D10029A92A1217226E60079002D0E04420F035
:1038E1007401252AF52AE43529F529052DE52D70E0
:1038F10002052CE4F570052B02383E123F33756644
:0139010001C4
:0139020022A2
:1040DC00EF14601814601D14602214602714602CF7
:1040EC00240570337BFF7A29797F80267BFF7A2920
:1040FC007985801E7BFF7A29798B80167BFF7A2944
:10410C007991800E7BFF7A29799780067BFF7A293B
:08411C00799DE4FD123ED22260
:10002600A2A4E4335401FF900215E0FCA3E054FEC1
:10003600FDECFEED4FFF900215EEF0A3EFF0A2A34C
:10004600E433540125E0FFE433FE900215E0FCA3FF
:10005600E054FDFDEC4EFEED4FFF900215EEF0A3D1
:10006600EFF0A2A2E4FE3354017802C333CE33CEBE
:10007600D8F9FF900215E0FCA3E054FBFDEC4EFE20
:10008600ED4FFF900215EEF0A3EFF0A2A1E4FE33D0
:1000960054017803C333CE33CED8F9FF900215E06E
:1000A600FCA3E054F7FDEC4EFEED4FFF900215EE7B
:1000B600F0A3EFF0A2A0E4335401C4F8540FC868CB
:1000C600FFE4C454F048FE900215E0FCA3E054EFB0
:1000D600FDEC4EFEED4FFF900215EEF0A3EFF0A201
:1000E600B5E4FE3354017805C333CE33CED8F9FFD9
:1000F600900215E0FCA3E054DFFDEC4EFEED4FFF51
:10010600900215EEF0A3EFF0A2B3E4FE33540178AB
:1001160006C333CE33CED8F9FF900215E0FCA3E038
:1001260054BFFDEC4EFEED4FFF900215EEF0A3EF2F
:10013600F0A2B2E4FE3354017807C333CE33CED8EF
:10014600F9FF900215E0FCA3E0547FFDEC4EFEEDB6
:100156004FFF900215EEF0A3EFF0A2A6E433540190
:10016600FE900215E054FEFCA3E0FDEC4EFFED9080
:100176000215CFF0A3EFF0A2A7E433540125E0FE69
:10018600900215E054FDFCA3E0FDEC4EFFED90025D
:1001960015CFF0A3EFF0A292E433540125E025E059
:1001A600FE900215E054FBFCA3E0FDEC4EFFED9043
:1001B6000215CFF0A3EFF0A293E4335401333333A7
:1001C60054F8FE900215E054F7FCA3E0FDEC4EFF58
:1001D600ED900215CFF0A3EFF0A296E4335401C4DC
:1001E60054F0FE900215E054EFFCA3E0FDEC4EFF48
:1001F600ED900215CFF0A3EFF0A297E4335401C4BB
:100206003354E0FE900215E054DFFCA3E0FDEC4E13
:10021600FFED900215CFF0A3EFF0A2CCE43354012A
:10022600C4333354C0FE900215E054BFFCA3E0FD76
:10023600EC4EFFED900215CFF0A3EFF0A2CDE43324
:100246005401C43333335480FE900215E0547FFCCE
:10025600A3E0FDEC4EFFED900215CFF0A3EFF0907A
:100266000215E0FFA3E090000CCFF0A3EFF09000A2
:1002760010E0FEA3E0FF90000CE0FCA3E0FD6F7031
:1002860002EC6E60799002CDE0FEA3E0FF90001DC7
:10029600EEF0A3EFF0900019E07002A3E070119069
:1002A6000025EEF0A3EFF0900000E04401F0800797
:1002B600900000E054FEF0900015E0FEA3E0FF90F1
:1002C60002CDE0FAA3E0FBC39FFFEA9EFED3EF94C4
:1002D60032EE94004025900010ECF0A3EDF0900073
:1002E60013EAF0A3EBF0E4900017F0A3F0A3F0A359
:1002F600F0900029F0A304F00203FF0203F8900037
:1003060025E0FEA3E0FF9002CDE0FCA3E0FDC39F45
:10031600FFEC9EFED3EF9432EE940040079000006F
:10032600E054FEF090001DE0FEA3E0FFC3ED9FFF4A
:10033600EC9EFED3EF9430EE9475402E9002CDE005
:10034600FFA3E090001DCFF0A3EFF0900023E07034
:1003560002A3E07015E51864114517600D751700C6
:10036600751801E4900021F0A3F0900013E0FEA3BD
:10037600E0FF9002CDE0FCA3E0FDC39FFFEC9EFEF4
:10038600D3EF9432EE94004069900015ECF0A3EDA3
:10039600F090000CE0FEA3E0F47002EEF4605A90D8
:1003A6000019E07002A3E07050900018E004F070AD
:1003B60006900017E004F0D3900018E094649000D3
:1003C60017E0648094804031900019E4F0A304F0B3
:1003D600900029E4F0A304F0E4900027F0A3F09045
:1003E600001BECF0A3EDF0900017E4F0A3740AF004
:1003F6008007E490000CF0A3F0900019E07002A3CF
:10040600E0605B90001BE0FEA3E0FF9002CDE0FC05
:10041600A3E0FDC39FFFEC9EFED3EF9464EE940031
:10042600403C900028E004F07006900027E004F0BD
:10043600900027E0FEA3E0FFD39432EE6480948020
:100446004007A3E4F0A3740AF0EF4E600890001B87
:10045600ECF0A3EDF090000EE4F0A374FFF0900032
:100466000CE0FEA3E0FF4E6021A3E0FCA3E0FDEF5D
:100476006D7002EE6C600C90000CA3A3EEF0A3EF7F
:10048600F08007E490000CF0A3F090000CE0FEA3CF
:10049600E0FFF47003EE64FD6012EFF47003EE64A7
:1004A600FB6009EFF47003EE64F7703F9002F5E02D
:1004B600FF602090000CE0B4FB19A3E0B4FF14EF3A
:1004C6003395E0FEEF2414FFE43E9002CFF0A3EF55
:1004D600F0801875760190000CE0FFA3E090030D04
:1004E600CFF0A3EFF09002187402F0900033E0FE14
:1004F600A3E0FFEE7073EF24F6602524F6604D242A
:10050600147066209463900033E4F0A3740AF090AC
:1005160002CDE0FFA3E0900031CFF0A3EFF08049D9
:1005260020943F900031E0FEA3E0FFC39002CEE0AE
:100536009FFF9002CDE09EFED3EF9464EE940040C0
:1005460028900033E4F0A37414F0801D30941A75DB
:10055600760190030D74FFF0A374EEF09002187408
:1005660002F0E4900033F0A3F0E51760030215DF14
:10057600E51824FE7003020A41147003020DF914F3
:10058600700302114F24FB70030215A624F97003B1
:10059600020CD8147003020C25241060030215DF28
:1005A60090000CE0FEA3E08EF0121BAC07287FFF44
:1005B60006B1BFFF0802FFBF079DFFF70622FFFB3C
:1005C6000685FFFD05D2FFFE00000819E490003005
:1005D600F0900021E07002A3E0702690031C7430B6
:1005E600F0A3F0A3F0A3F0A3F090030F7404F07B44
:1005F600017A03791CE4FD123ED2751700751802C4
:1006060022900039E0B4010AE4F090002DF0900346
:1006160031F0E4900021F0A3F0020819E4900030D4
:10062600F0900019E07002A3E06042900021E070B3
:1006360002A3E070389002FFE0FCA3E0FDA3E0FE19
:10064600A3E0FFA3E0F8A3E0F9A3E0FAA3E0FBC36D
:100656001219F360189002FFE0FCA3E0FDA3E0FE90
:10066600A3E0FFA3121AB8756F01123DFE9002199E
:10067600E064016003020819756901F0020819E4D3
:10068600900030F09002CDE0FFA3E090001FCFF085
:10069600A3EFF0A3E4F0A37405F0900219E0600361
:1006A60002081975690104F0020819E4900030F097
:1006B600900021E07002A3E0600302081990003662
:1006C600E0FBA3E0FAA3E0F9900001121B569000AC
:1006D6003AEBF0A3EAF0A3E9F0E4900397F0A3F075
:1006E600A304F0E490021AF090000104F0E49000F4
:1006F60023F0A3F0FC7D0FFFFE12179C900036E05E
:10070600FBA3E0FAA3E02FF9EA3EFA9000091217DC
:100716003B9003A6F0D36480948050030217210215
:100726000BF9E4900030F0900021E07002A3E06045
:1007360003020819900036E0FBA3E0FAA3E0F99063
:100746000001121B5690003AEBF0A3EAF0A3E9F081
:10075600E4900397F0A304F0A3F090021AF090003F
:1007660001F0E4900023F0A3F0FC7D0FFFFE1217CA
:100776009C900036E0FBA3E0FAA3E02FF9EA3EFAEC
:1007860090000912173B9003A6F0D3648094805022
:1007960003021721020BF9900039E0703790001917
:1007A600E07002A3E06010900030E0C3648094A87B
:1007B600500AE004F08005E4900030F09002CDE0AD
:1007C600FFA3E090001FCFF0A3EFF0A3E4F0A37423
:1007D60002F0803F75760190030D74FFF0A374BF9D
:1007E600F09002187402F0E4900021F0A3F090005B
:1007F60039F090002DF0900331F08017900039E029
:100806007011756301900021F0A37404F090003913
:100816007401F0900021E07002A3E0600302097FFA
:10082600900314E0FF900004E4F0A3EFF090021AA6
:10083600E0F5229002CFE07002A3E060030208D840
:100846009002D1E0704CA3E0B40110900331740122
:10085600F090002DE0700B04F08007900000E0544B
:10086600FDF0900303E0F8A3E0F9A3E0FAA3E0FBB0
:100876009002FFE0FCA3E0FDA3E0FEA3E0C39BFF24
:10088600EE9AFEED99FDEC98FC9002DC121AB80285
:1008960009097A2979A3123ECE9002D1E0FB547F52
:1008A600FF3395E0FEFDFC900008121AB8EB30E726
:1008B6000890002DE0700204F0122B328F237B018A
:1008C6007A0379247D03123ADB9003317401F00236
:1008D600094A9002CFE0FEA3E0FF640B4E6006EFEC
:1008E600640C4E70349002D2E0B40110900331745F
:1008F60001F090002DE0700B04F08007900000E0FE
:1009060054FDF09002DCE0FCA3E0FDA3E0FEA3E0D2
:10091600FF122B2C123AD1802B7BFF7A2979A7E480
:10092600FD123ED290002DE0700204F09002CF122C
:100936002B248F237B017A0379247D03123ADBE48F
:10094600900331F0900310E07003020A2590031320
:10095600E0FF90031BE004FEF0D3EF6480F8EE6442
:1009660080985003020A25E4F090021AE004F0E4AD
:10097600900004F0A3F0020A25900021E07004A381
:10098600E0640270339002D6122B24123AD1900002
:100996001FE0FEA3E0FFC39002CEE09FFF9002CDD2
:1009A600E09EFED3EF94D0EE94074073900021E4CE
:1009B600F0A37403F0020A25900021E07004A3E07E
:1009C600640370059002D48035900021E07004A382
:1009D600E06404701A7BFF7A2979ABFD123ED2904F
:1009E600002DE0700204F09003317401F080309025
:1009F6000021E07004A3E0640570249002F7E0FE95
:100A0600A3E0FFE4FCFD900008121AB8900008A3CA
:100A1600A3E0FEA3E0FFE4FDFC122B2C123AD190DA
:100A26000030E0642860030215E5F0F5177518102C
:100A3600900021F0A37404F0020D8290000CE0FEF9
:100A4600A3E08EF0121BAC0AB2FFF70A6CFFFB0A9A
:100A560082FFFD0A61FFFE00000C05E490021AF019
:100A6600F5177518012290030FE014F0C364809403
:100A7600804003020C057404F0020C0590030FE09D
:100A8600FF3395E0FE741C2FF58274033EF583E078
:100A960004F0D3648094B95003020C05741C2FF53E
:100AA6008274033EF5837430F0020C0575210190C3
:100AB6000217E0C36480F8E52164809840030217BA
:100AC60021900036E0FBA3E0FAA3E0F9E52175F0FA
:100AD6000FA4FFE92FF9E43AFA900004121B56120C
:100AE6001722FF90031CE06F6003020C00AF21EF9A
:100AF6003395E0FE7C007D0F12179C900036E0FBDC
:100B0600A3E0FAA3E02FF9EA3EFA900004121B567E
:100B160090000112173BFF90031DE06F6003020C6B
:100B26000090000212173BFF90031EE06F60030265
:100B36000C0090000312173BFF90031FE06F600349
:100B4600020C0090000412173BFF900320E06F6038
:100B560003020C00E521B40428900281E07002A390
:100B6600E0700A900283E07002A3E060149002F63F
:100B7600E020E50D900297E07002A3E06003021703
:100B860021AF21EF3395E0FE900023F0A3EFF07C38
:100B9600007D0F12179C900036E0FBA3E0FAA3E05D
:100BA6002FF9EA3EFA900001121B5690003AEBF03C
:100BB600A3EAF0A3E9F0900023E0FEA3E0FF900390
:100BC60097F0E4A3F0A304F0E490021AF012179C45
:100BD600900036E0FBA3E0FAA3E02FF9EA3EFA9094
:100BE600000912173B9003A6F0D36480948050034B
:100BF600021721751700751803220521020AB59000
:100C06000006E07002A3E0600D900019E07002A3F8
:100C1600E0700302151C7B017A03791C0215D8903B
:100C2600000CE0FEA3E08EF0121BAC0C39FFFE00B8
:100C3600000C6AE4900021F0A3F090030F7404F016
:100C4600E490031BF09003977478F0900399740175
:100C5600F0E490021AF0F51775180190002DF09047
:100C66000331F0229002CFE0FEA3E0FF640B4E605A
:100C760006EF640C4E7044EF640B4E70147BFF7AE3
:100C86002979B1FD123ED290002DE0702504F08046
:100C9600219002CFE07004A3E0640C60030215E526
:100CA6007BFF7A2979B7FD123ED290002DE07002C3
:100CB60004F09003317401F00215E57BFF7A29797F
:100CC600BDE4FD123ED2E490002DF0900331F00217
:100CD60015E590000CE0FEA3E08EF0121BAC0DF0C3
:100CE6007FFF0DE7BFFF0D9FDFFF0DA8EFFF0D96FE
:100CF600F7FF0D8DFBFF0DD5FDFF0DCCFEFF0DC3E0
:100D0600FF7F0DDEFFBF0DB1FFDF0DBAFFEF0D71E7
:100D1600FFFB0D4CFFFD0D24FFFE000015E5E490E2
:100D26000021F0A3F090030F7404F0E490031BF08D
:100D36009003977478F09003997401F0E490021A86
:100D4600F0F5170215E2900312E0C3648094815017
:100D560006E004F0757701900312E0FF1240DC9084
:100D66000312E0D3648094800215E5900312E0D369
:100D7600648094804006E014F0757701900312E0D9
:100D8600FF1240DC0215E57BFF7A2979C30215D8EC
:100D96007BFF7A2979C90215D87BFF7A2979CF0298
:100DA60015D87BFF7A2979D50215D87BFF7A297960
:100DB600DB0215D87BFF7A2979E10215D87BFF7A09
:100DC6002979E70215D87BFF7A2979ED0215D87BB8
:100DD600FF7A2979F30215D87BFF7A2979F902156A
:100DE600D87BFF7A2979FF0215D87BFF7A2A790505
:100DF6000215D890000CE0FEA3E08EF0121BAC0E9C
:100E060088FFF70E44FFFB0E61FFFD0E19FFFE0083
:100E1600000EEBE4900021F0A3F090030F7404F0B1
:100E2600E490031BF09003977478F0900399740193
:100E3600F0E490021AF0F517751801020EEB900215
:100E46001AE0FF14F0EF70099003A6E01490021A5E
:100E5600F090021AE0900398F080209003A6E0FF3D
:100E660090021AE004FEF0C3EF6480F8EE64809806
:100E76004002E4F090021AE0900398F0A37401F0A7
:100E86008063900397E0FDB4042790021AE0FF7494
:100E9600017E00A807088005C333CE33CED8F9FFFC
:100EA6009002F6E0FB3395E05EFEEF5B4E60368027
:100EB6002EEDB4032A90021AE0A2E713FF74017E16
:100EC60000A807088005C333CE33CED8F9FF9002B9
:100ED600F6E0FD3395E05EFEEF5D4E600880009023
:100EE60000017405F0900397E0FF7008900001E0A0
:100EF600600204F0900001E06405600302106BF0EC
:100F060090021AE0FEF52290030F7404F090021B83
:100F16007402F0EFB40331EEA2E713FF74017E0012
:100F2600A807088005C333CE33CED8F9FF9002F662
:100F3600E0FD3395E05EFEEF5D4E700C9003091206
:100F46001AC400000000802090039FE0FBA3E0FA93
:100F5600A3E0F9121B36121803FFAEF0EE3395E04C
:100F6600FDFC900309121AB8751700751804AF2214
:100F7600EF3395E0FEEF7803C333CE33CED8F9FFD7
:100F860090003AE0FBA3E0FAA3E02FF9EA3EFA90DC
:100F9600039FEBF0A3EAF0A3E9F090021B7402F0C2
:100FA600121B36752A03E4F52B752C01752D037576
:100FB6002E21F52F7530027D02122B4E8F239003C2
:100FC600117403F090031C7430F0A3F074031460E2
:100FD6006A14604214600302105FAF23EF3395E09A
:100FE600FE74212FF58274033EF583E0FF90031E05
:100FF600F0BF20037430F0AF23EF3395E0FE742288
:101006002FF58274033EF583E0FD90031FF0BD20AB
:10101600037430F0803490031E7420F0AF23EF3356
:1010260095E0FE74222FF58274033EF583E0FD9071
:10103600031FF0BD20037430F0800F90031E742050
:10104600F0A3F0AF23EF3395E0FE74232FF58274FF
:10105600033EF583E0900320F0E490002BF0A3F02C
:10106600F517751804D3900005E09400900004E08D
:101076009400400FA3E024FFF0900004E034FFF05A
:101086000215E5900314E0FF900004E4F0A3EFF0EE
:1010960090021AE0FDFF3395E0FEEF7803C333CEEE
:1010A60033CED8F9FF90003AE0FBA3E0FAA3E02F95
:1010B600F9EA3EFA90039FEBF0A3EAF0A3E9F09079
:1010C6000397E0B40331EDA2E713FF74017E00A895
:1010D60007088005C333CE33CED8F9FF9002F6E079
:1010E600FD3395E05EFEEF5D4E700C900309121A1B
:1010F600C400000000802090039FE0FBA3E0FAA359
:10110600E0F9121B36121803FFAEF0EE3395E0FD40
:10111600FC900309121AB890021AE0FF12238E758A
:101126002A03E4F52B752C01752D03752E21F52F59
:101136007530027A037909122B4A8F2374212FF90D
:10114600E43403FA7B0102159F90000CE0FEA3E055
:101156008EF0121BAC12D1FFF7117BFFFB122BFF97
:10116600FD116FFFFE00001508900397E060030273
:1011760015020214D990021AE0FF3395E0FEEF78CB
:1011860003C333CE33CED8F9FF90003AE0FBA3E099
:10119600FAA3E02FF9EA3EFA90000712173B30E077
:1011A60003021508900309E0FCA3E0FDA3E0FEA3FB
:1011B600E0FFC006C007900029E0FEA3E0FBAA06F8
:1011C600EA3395E0F9F8D007D006C3EF9BFFEE9A15
:1011D600FEED99FDEC98FC900309121AB890039F56
:1011E600E0FBA3E0FAA3E0F990000512182EFFAE8B
:1011F600F0EE3395E0FDFC900309E0F8A3E0F9A3D7
:10120600E0FAA3E0FBC31219DD40030215089003C0
:101216009FE0FBA3E0FAA3E0F990000512182EFF69
:10122600AEF00212C290021AE0FF3395E0FEEF78AC
:1012360003C333CE33CED8F9FF90003AE0FBA3E0E8
:10124600FAA3E02FF9EA3EFA90000712173B30E0C6
:1012560003021508900309E0F8A3E0F9A3E0FAA356
:10126600E0FB900029E0FEA3E0FFEE3395E0FDFCF5
:10127600EB2FFFEA3EFEE93DFDE83CFC9003091238
:101286001AB890039FE0FBA3E0FAA3E0F9900003ED
:1012960012182EF52585F024AE24FFEE3395E0FDD9
:1012A600FC900309E0F8A3E0F9A3E0FAA3E0FBD37E
:1012B6001219DD5003021508AE24AF25EE3395E072
:1012C600FDFC900309121AB8021508900019E07087
:1012D60002A3E060030214D37B017A03791C900217
:1012E6001BE0F52A7D05123903900309121AB890FE
:1012F600039FE0FBA3E0FAA3E0F990000312182E87
:10130600FFAEF0EE3395E0FDFC900309E0F8A3E0B4
:10131600F9A3E0FAA3E0FBD31219DD40030214D3CC
:1013260090039FE0FBA3E0FAA3E0F99000051218F2
:101336002EFFAEF0EE3395E0FDFC900309E0F8A336
:10134600E0F9A3E0FAA3E0FBC31219DD500302148F
:10135600D37E007F02E47066EF1460481460252493
:10136600FE705B900309E0FCA3E0FDA3E0FEA3E0B2
:10137600FF90039FE0FBA3E0FAA3E0F9121B3612ED
:101386001A7A803A900309A3A3E0FEA3E0FF900334
:101396009FE0FBA3E0FAA3E0F9121B36EE8FF012F2
:1013A6001866801A900309A3A3A3E0FF90039FE0A9
:1013B600FBA3E0FAA3E0F9121B36EF1217689003BD
:1013C6001EE0B4300B7420F0A3E0B430037420F0B8
:1013D6007B017A03791E7D02123ADB900397E06463
:1013E6000260030214C790021AE0A2E713FDFF335E
:1013F60095E0FEEF7802C333CE33CED8F9FF244F03
:10140600F58274023EF583E0FAA3E0FB746D2FF5D6
:101416008274023EF583E0FEA3E06B7002EE6A6022
:10142600030214BFEDFF3395E0FEEF7802C333CE1F
:1014360033CED8F9FF2451F58274023EF583E0FAE3
:10144600A3E0FB746F2FF58274023EF583E0FEA3E2
:10145600E06B7002EE6A70619002F6E0FF7401A81C
:1014660005088002C333D8FC4F9002F6F0EDFF3337
:1014760095E0FEEF25E0FFEE33FE748B2FF58274C8
:10148600023EF583E4F0A3F0FCC3ED6480F8EC645F
:101496008098501EECFF3395E0FEEF25E0FFEE331B
:1014A600FE748B2FF58274023EF583E4F0A3F00CF4
:1014B60080D77F047E0012379D751700751803804C
:1014C6000C900397E0FF3395E0FE12379D9003974B
:1014D600E07029900021F0A3F090030F7404F0E46B
:1014E60090031BF09003977478F09003997401F0C1
:1014F600E490021AF0F51775180180067517007545
:101506001803900006E07002A3E06017900019E04F
:101516007002A3E0700D90030FE0FF7D0112416998
:101526000215E590021AE0FF12238E752A05E4F5EE
:101536002B752C01752D03752E21F52F7530027B29
:10154600017A0379097D04122B4E8F23EF3395E040
:10155600FE74212FF58274033EF583E0FF90031E8F
:10156600F0BF20037430F0AF23EF3395E0FE742212
:101576002FF58274033EF583E0FD90031FF0BD2036
:10158600037430F074232FF58274033EF583E090E4
:101596000320F07B017A03791E7D02123ADB803F3D
:1015A60090039DE0FEA3E0FFC39002CEE09FFF9074
:1015B60002CDE09EFED3EF94E8EE9403400E900336
:1015C6009BE0FF3395E0F5178F1880137BFF7A2A8F
:1015D600790BE4FD123ED28006751700751801904E
:1015E6000012E0701304F09002CDE0FFA3E090003B
:1015F60002CFF0A3EFF0803B900002E0FEA3E0FFF5
:10160600C39002CEE09FFF9002CDE09EFED3EF9402
:1016160064EE9400401D900006E07002A3E07004A2
:101626007F0180027F00900006E4F0A3EFF0E490D3
:101636000012F090002DE024F6603124F66071244B
:10164600F670030216EB241D60030217129002CDFA
:10165600E0FFA3E090002ECFF0A3EFF0900000E0B3
:101666004402F090002D740AF0021712900331E044
:1016760070067E017FF480047E007F3290002EE0AB
:10168600FCA3E0FD9002CDE0FAA3E0FBC39DFDEADA
:101696009CFCD3ED9FEC9E407390002EEAF0A3EBEA
:1016A600F0900000E054FDF090002D7414F0805C82
:1016B600900331E07E077FD090002EE0FCA3E0FD92
:1016C6009002CDE0FAA3E0FBC39DFDEA9CFCD3EDBE
:1016D6009FEC9E403790002EEAF0A3EBF090002D91
:1016E600741EF080279002CFE07002A3E07017907E
:1016F60002D1E05480FF3395E04F700AA3E07006F4
:1017060090002DF0800690002D7401F0900000E00E
:0B1716006004D2A58002C2A5123D8F26
:0117210022A5
:102B2400E0FEA3E0FFE4FCFD900008121AB8752A49
:102B340005E4F52B752C01752D03752E21F52F75E4
:0A2B440030027A0079087B017D045D
:022B4E008D29CF
:102B5000E5296007D36480948440037F002215290F
:102B6000E4F538F534F533F532F531E529B40319D8
:102B7000E5386008121A2A1219CF8003121A2A8F18
:102B8000348E338D328C31803FE529B4011FE53816
:102B90006011121803FFAEF0C3E49FF532E49EF516
:102BA000318025121803F53285F031801BE529703C
:102BB00014E5386009121722F404F531800A12175F
:102BC00022F53180037F0022E53024FE6018146076
:102BD0001A24FB601124F8600D24D06009243F7092
:102BE0000D753702800875370A8003753710E52B9D
:102BF000252AFFC374039FF5358F36C3E5366480FD
:102C00009483500CC374039536252AF52A75360330
:102C1000E536B52A04E52F6052AF37AB07EB3395A5
:102C2000E0FAF9F8AF34AE33AD32AC311241ADEB6E
:102C30002430FFAB2CAA2DA92EE536FD3395E08D6F
:102C400082F583EF12177AAF34AE33AD32AC31C0B8
:102C500007AF37AB07EB3395E0FAF9F8D00712412D
:102C6000AD8F348E338D328C318025E52BAB2CAA81
:102C70002DA92EAF36600CEF3395E08F82F583746B
:102C80002E800AEF3395E08F82F583742012177A35
:102C9000AF361536D3EF648094804003022C10E5E4
:102CA0002F6025E538601EC3E53564809483501598
:102CB000AB2CAA2DA92EAF35EF3395E08F82F5838B
:102CC000742D12177A7F0022E4F536F535AB2CAA65
:102CD0002DA92EAF36EF3395E08F82F58312173B87
:102CE00064307035EF3395E0FEEF2401FFE43EFEE3
:102CF000AD2AED3395E0FCC3EF9DEC6480F8EE6403
:102D000080985015AF36EF3395E08F82F5837420AD
:102D100012177A0535053680B4E5386017AB2CAA52
:102D20002DA92E1535AF35EF3395E08F82F58374DD
:102D30002D12177AE52B252AC39535F536C3648005
:102D40009483500CC374039536FFC3E5359FF53566
:022D5000AF359D
:012D5200225E
:083903008B268A278928AB05F9
:10390B00E52A24FE600C14600E2402700D7534023F
:10391B00800875340A8003753410E4F52EF52DF507
:10392B002CF52B753201F531F530F52F8B33D3E5B3
:10393B00336480948050030239C51533AB26AA2714
:10394B00A928AF33EF3395E08F82F58312173BFF36
:10395B00C3648094B040D7D3EF648094BF50CFAF93
:10396B0033EF3395E08F82F58312173BFF3395E0EE
:10397B00FEEF24D0FFEE34FFFEE4FCFDAB32AA31A8
:10398B00A930A82F1218B2E52E2FF52EE52D3EF5F6
:10399B002DE52C3DF52CE52B3CF52BAB32AA31A9B3
:1039AB0030A82FAF34EF3395E0FEFDFC1218B28F29
:1039BB00328E318D308C2F023939AB26AA27A928AC
:1039CB00121722642D601390000112173B642D60B7
:1039DB000990000212173BB42D0BAF2EAE2DAD2C60
:0D39EB00AC2B0219CFAF2EAE2DAD2CAC2BA6
:0139F80022AC
:0D437500E4F5C7F5C5F5C675C380F5C42293
:1042E000C2AF75C78375C5018FC48EC375C65A75B5
:0B42F000C6A50000AFC2124375D2AF9C
:0142FB0022A0
:10404300E570FB7A0064AA7046C2AFEB64AA700302
:1040530075C783EB64AA4A700375C502EB64AA4A69
:1040630070028FC4EB64AA4A70028EC3AF707E00E5
:10407300EF64AA70028DC2EF64AA4E700375C65A2C
:10408300EF64AA4E700375C6A500124375D2AF2222
:10412400AD707C00ED64AA703BC2AFED64AA70036D
:1041340075C783ED64AA4C700375C503ED64AA4C7E
:1041440070028FC4ED64AA4C70028EC3E57064AA39
:10415400700375C65AE57064AA700375C6A500128B
:054164004375D2AF22FB
:1039F900755644755700E4FBFA9002FFE0FCA3E01A
:103A0900FDA3E0FEA3E024FFF55BEE34FFF55AEDDC
:103A190034FFF559EC34FFF558AF5BAE5AAD59FC9C
:103A29007807121A047C007D051217AEAA04AB05AB
:103A3900E55B547FFFE4FDFCEF70157570AAEB257B
:103A4900E0FEE42400FFEE3444FE124124E4F57064
:103A5900AF5BAE5AAD59AC587802121A178F5F8E08
:103A69005E8D5D8C5CE4FB7A0AF9F812193DAC00B5
:103A7900AD01AE02AF038F5F8E5E8D5D8C5CEF256D
:103A890057F557EE3556F55675520175530275546B
:103A9900FF7570AAE4F555AB52AA53A9541217221F
:103AA900FDAF57AE5612404374012554F554E43521
:103AB90053F5530557E557700205560555E555C3A6
:073AC900940440D3E4F57002
:013AD00022D3
:10312E00752644752700E4F537F536F535F5347513
:10313E003B10753A27F539F538F550F551E551AE96
:10314E00507802C333CE33CED8F92400F527EE34AF
:10315E0044F526752200752300752428AF27FE122C
:10316E0042E0AB22AA23A924EF121768740125248A
:10317E00F524E43523F523E5272401FFE43526FE67
:10318E001242E0AB22AA23A924EF1217687401257C
:10319E0024F524E43523F523E5272402FFE4352620
:1031AE00FE1242E0AB22AA23A924EF121768740183
:1031BE002524F524E43523F523E5272403FFE43500
:1031CE0026FE1242E0AB22AA23A924EF121768852D
:1031DE00433F85423E85413D85403C852B43852AB4
:1031EE0042852941852840E551B47F11E550B4024E
:1031FE000C852B47852A4685294585284474FFFF73
:10320E00FEFD7C7FAB2BAA2AA929A828D31219F37D
:10321E00505BAF37AE36AD35AC34A8281219F3403B
:10322E004C853F4B853E4A853D49853C4885434FFD
:10323E0085424E85414D85404C852B37852A3685F6
:10324E002935852834E485513B85503AF539F538D2
:10325E00FFFEFDFCAB3BAA3AA939A8381219F37050
:10326E000C85474B85464A854549854448852B2F15
:10327E00852A2E85292D85282C0551E551700205AC
:10328E0050C39480E5509402500302314BE49002F7
:10329E00F5F07F107E27FDFCAB3BAA3AA939A83882
:1032AE00C31219F3603AC3E54F954BFFE54E954AAD
:1032BE00FEE54D9549FDE54C9548FCE47B01FAF998
:1032CE00F8C31219F3700EAF37AE36AD35AC34907D
:1032DE0002FF021AB89002FF121AC4000000002268
:0D32EE009002FF121AC4000000001239F90E
:0132FB0022B0
:103BA500752526752600752201752303752403AF37
:103BB50026AE251242E0AB22AA23A924EF121768EC
:103BC50074012524F524E43523F523E5262401FF96
:103BD500E43525FE1242E0AB22AA23A924EF1217F1
:103BE5006874012524F524E43523F523E52624020C
:103BF500FFE43525FE1242E0AB22AA23A924EF12E9
:103C0500176874012524F524E43523F523E52624D6
:103C150003FFE43525FE1242E0AB22AA23A924EFD7
:103C2500121768900303E0F8A3E0F9A3E0FAA3E014
:103C3500FB9002FFE0FCA3E0FDA3E0FEA3E0C39B35
:103C4500FFEE9AFEED99FDEC98FC7B9F7A86790153
:103C55007800C31219F350159002FFE0FCA3E0FDB4
:0D3C6500A3E0FEA3E0FFA3121AB8123DFE7B
:013C7200222F
:103DFE00752D26752E00E4F537F5387570AAFF7E01
:103E0E0026124124E4F5709002FFE0FCA3E0FDA32E
:103E1E00E0FEA3E0FFA3121AB8752901752A0375F7
:103E2E002B037570AAE4F52CAB29AA2AA92B12171D
:103E3E0022FDAF2EAE2D1240437401252BF52BE43F
:103E4E00352AF52A052EE52E7002052D052CE52CBA
:083E5E00C3940440D3E4F570A5
:013E66002239
:0E378E0003140103A701100101110001120034
:10434000759850758E40E4F589758BE0758DFED2B9
:064350008ED2ACD2AF22B8
:0300230002409305
:10409300C0E0C083C082C0D075D00830982BC298CE
:1040A3009002E4E0FF04F074A72FF582E43403F5F3
:1040B30083E599F09002E37401F09002CDE0FFA351
:1040C300E09002E0CFF0A3EFF0309904C299C20070
:0940D300D0D0D082D083D0E032BD
:10428E009002E3E0B401249002E0E0FEA3E0FFC35D
:10429E009002CEE09FFF9002CDE09EFED3EF940AF7
:0C42AE00EE940040069002E37402F0223F
:094382002000FDEFD200F59922A4
:083F9600A3F07B017A037932EC
:063F9E008B258A2689270D
:103FA400E4F528FDFCAB25AA26A9279000011217E9
:103FB4003BFF3395E0FEEF2402FFE43EFEC3ED9F9A
:103FC400EE6480F8EC64809850168D828C8312170E
:103FD4003BFF2528F5281243820DBD00010C80C546
:0E3FE400AF281243820510E51070037510011E
:013FF20022AC
:102055007522007523007524009003A7E0FF752104
:10206500019002E4E0FE14C36480F8E521648098E1
:102075005018AD21ED3395E0FC74A72DF58274035E
:102085003CF583E02FFF052180D774A62EF582E469
:102095003403F583E06F600B9002CFE4F0A3741E68
:1020A5000223899003A7E024F6B40B004003022322
:1020B5008D9020C475F003A4C58325F0C5837302F4
:1020C50020E50221250222E002237802237802235B
:1020D5007A02237802237802237802237802238167
:1020E50075220175230275249FE4F521AF21EF3395
:1020F50095E0FE74AA2FF58274033EF583E0FFABED
:1021050022AA23A924E521FD3395E08D82F583EFED
:1021150012177A0521E521B42ED2757801022376AE
:10212500E4F521AF21EF3395E0FEEF25E0FFEE3337
:10213500FE748B2FF58274023EF583E0FEA3E0FF6B
:10214500D39400EE64809480402BEE3395E0FDFC43
:10215500E47B107A27F9F81218B29002FFE0F8A391
:10216500E0F9A3E0FAA3E0FBD31219F34007E52158
:10217500049002F5F00521E521B407A7900297E048
:102185007002A3E070049002F5F09003AAE0FE90BF
:1021950003A9E0FDEDFF9002D6EEF0A3EFF090036A
:1021A500ACE0FE9003ABE0FDEDFF9002D4EEF0A3B2
:1021B500EFF09003AEE0FE9003ADE0FDEDFF900281
:1021C500CFEEF0A3EFF09003B0E0FFE4FCFDFE7866
:1021D50008121A17A804A905AA06AB079003AFE0D1
:1021E500FFEB4FFFEAFEE9FDE8FCC004C005C006B1
:1021F500C0079003B2E0FFE4FCFDFE7818121A1741
:10220500D003D002D001D000EF4BFFEE4AFEED49DE
:10221500FDEC48FCC004C005C006C0079003B1E052
:10222500FFE4FCFDFE7810121A17D003D002D0018E
:10223500D000EF4BF528EE4AF527ED49F526EC4899
:10224500F5259002D8E0FCA3E0FDA3E0FEA3E0FFA6
:10225500AB28AA27A926A825C31219F3607AAF28A7
:10226500AE27AD26AC259002D8121AB89002FFE031
:10227500FCA3E0FDA3E0FEA3E02401FFE43EFEE4B1
:102285003DFDE43CFC9002FF121AB8900303E0F810
:10229500A3E0F9A3E0FAA3E0FB9002FFE0FCA3E0D2
:1022A500FDA3E0FEA3E0C39BFFEE9AFEED99FDECD6
:1022B50098FC7B9F7A8679017800C31219F3501533
:1022C5009002FFE0FCA3E0FDA3E0FEA3E0FFA31264
:1022D5001AB8123DFE1239F9022376E4F52190036E
:1022E500A8E01313543FC36480F8E5216480985037
:1022F5007BE52125E025E0FD24A9F582E43403F5FD
:1023050083E0FE74AA2DF582E43403F583E0FDEE47
:10231500FCAF21EF3395E0FEEF7803C333CE33CE28
:10232500D8F9FF902A12E493FB740193FA7402938F
:102335002FF9EA3EFA900005EC8DF0121885E5219B
:1023450025E025E0FD24ABF582E43403F583E0FECA
:1023550074AC2DF582E43403F583E0FDEDFF9000C8
:1023650003EE8FF012188505210222E375740180B2
:102375000980078005757901800B80099002CFE4FB
:08238500F0A37428F075717FCC
:01238D00222D
:101CAA00752100752200752300C39002CEE095735A
:101CBA00FF9002CDE09572FED3EF94E8EE940340D4
:101CCA0016E5667008E571B47F037571019002CD5F
:101CDA00E0F572A3E0F5739002D6E07002A3E0701B
:101CEA0003021DCAE5786003021DCAE571647F60BC
:101CFA0003021DCA90024DE064557004A3E064AA71
:101D0A007003021DC190021D7401F0A37436F0A382
:101D1A007401F0A3742CF0900223E4F0A37402F08F
:101D2A00A3E4F0A3740FF0A3E4F0A3740FF0E4A308
:101D3A00F0A3F0A3F0A3F0A304F0A37440F0A3E48B
:101D4A00F0A37459F0A37401F0A37490F0A3E4F023
:101D5A00A37414F0A3E4F0A37454F0A3E4F0A374FE
:101D6A0002F0A3E4F0A37478F0A3E4F0A3740AF0F9
:101D7A00A3E4F0A304F0A3E4F0A37449F0A3E4F00D
:101D8A00A37450F0A3E4F0A304F0A3E4F0A304F0D6
:101D9A00A3E4F0A304F0A3E4F0A304F0A3E4F0A303
:101DAA0004F0A37455F0A374AAF0E4FFFE12379D61
:101DBA007F017E0012379D75660175780175717F06
:101DCA00E578B4010CE5747008E571B47F037571A8
:101DDA0002E5666008E571B47F03757103E56A6020
:101DEA0008E571B47F03757107E5636008E571B4AE
:101DFA007F03757109E5776008E571B47F03757132
:101E0A0004E5696008E571B47F03757108E56F60E0
:101E1A0008E571B47F03757105E5766008E571B46C
:101E2A007F03757106E571B40A00400302205490DD
:101E3A001E40F8282873021E5E021E83021EA60296
:101E4A001ECA021F36021FE202200B021F63021F74
:101E5A008C021FB97E007F647D007B017A03793290
:101E6A00121BD9E4900332F0A304F0E4A3F0A30414
:101E7A00F0FB123F9A757132227E007F647D007BEF
:101E8A00017A037932121BD99003327401F0A3F05C
:101E9A00E4A3F07402123F96757133227E007F64C8
:101EAA007D007B017A037932121BD99003327402C6
:101EBA00F0A314F0E4A3F07404123F96757134226F
:101ECA007E007F647D007B017A037932121BD990F0
:101EDA0003327403F0A3742EF07521017522027582
:101EEA00239F900332E0242EF524E4FFFEAB21AABF
:101EFA0022A9238F828E8312173BFD74342FF58219
:101F0A0074033EF583EDF08F828E8312173B2524EE
:101F1A00F5240FBF00010EEF642E4E70D0900362BD
:101F2A00E524123F97757135E4F566227E007F64D9
:101F3A007D007B017A037932121BD9900332740433
:101F4A00F0A37401F0900312E0900334F024051218
:101F5A003F96757136E4F577227E007F647D007BBB
:101F6A00017A037932121BD99003327407F0A374F1
:101F7A0001F0E4A3F0A37408123F97757139E4F5F0
:101F8A006A227E007F647D007B017A037932121B0C
:101F9A00D99003327408F0A37401F0900219E0900A
:101FAA000334F02409123F9675713AE4F569227EEA
:101FBA00007F647D007B017A037932121BD990037A
:101FCA00327409F0A37401F0E4A3F0A3740A123F77
:101FDA009775713BE4F563227E007F647D007B0187
:101FEA007A037932121BD99003327405F0A3740173
:101FFA00F0E4A3F0A37406123F97757137E4F56F06
:10200A00227E007F647D007B017A037932121BD91C
:10201A009003327406F0A37403F090030DE0FEA35C
:10202A00E0900334F0EEFFA3EFF0900218E0FF9087
:10203A000336F0900334E02409FEA3E02E2F900328
:0A204A0037123F97757138E4F57600
:012054002269
:103D0F00023E67E493A3F8E493A34003F68001F225
:103D1F0008DFF48029E493A3F85407240CC8C333B5
:103D2F00C4540F4420C8834004F456800146F6DF84
:103D3F00E4800B0102040810204080903630E47EAE
:103D4F00019360BCA3FF543F30E509541FFEE49379
:103D5F00A360010ECF54C025E060A840B8E493A340
:103D6F00FAE493A3F8E493A3C8C582C8CAC583CA6B
:103D7F00F0A3C8C582C8CAC583CADFE9DEE780BE23
:01379C00002C
:10172200BB010689828A83E0225002E722BBFE02C5
:09173200E32289828A83E49322F8
:10173B00BB010CE58229F582E5833AF583E0225063
:10174B0006E92582F8E622BBFE06E92582F8E222AD
:0D175B00E58229F582E5833AF583E49322C7
:10176800BB010689828A83F0225002F722BBFE0160
:02177800F3225A
:10177A00F8BB010DE58229F582E5833AF583E8F0A5
:10178A00225006E92582C8F622BBFE05E92582C851
:02179A00F22239
:10179C00EF8DF0A4A8F0CF8CF0A428CE8DF0A42E61
:0217AC00FE221B
:1017AE00BC000BBE0029EF8DF084FFADF022E4CC1F
:1017BE00F875F008EF2FFFEE33FEEC33FCEE9DECE8
:1017CE00984005FCEE9DFE0FD5F0E9E4CEFD22ED2E
:1017DE00F8F5F0EE8420D21CFEADF075F008EF2F78
:1017EE00FFED33FD4007985006D5F0F222C398FD69
:0517FE000FD5F0EA2206
:10180300BB010A89828A83E0F5F0A3E022500687B0
:10181300F009E71922BBFE07E3F5F009E319228972
:0B182300828A83E493F5F074019322A5
:10182E00BB0110E58229F582E5833AF583E0F5F0F8
:10183E00A3E0225009E92582F886F008E622BBFED5
:10184E000AE92582F8E2F5F008E222E5832AF5831B
:08185E00E993F5F0A3E99322E0
:10186600BB010A89828A83F0E5F0A3F0225006F7CD
:0F18760009A7F01922BBFE06F3E5F009F31922CA
:10188500F8BB0111E58229F582E5833AF583E8F095
:10189500E5F0A3F0225009E92582C8F608A6F02252
:0D18A500BBFE09E92582C8F2E5F008F22239
:1018B200E88FF0A4CC8BF0A42CFCE98EF0A42CFCD5
:1018C2008AF0EDA42CFCEA8EF0A4CDA8F08BF0A453
:1018D2002DCC3825F0FDE98FF0A42CCD35F0FCEBB2
:1018E2008EF0A4FEA9F0EB8FF0A4CFC5F02ECD3977
:0F18F200FEE43CFCEAA42DCE35F0FDE43CFC22E4
:1019010075F008758200EF2FFFEE33FECD33CDCC9D
:1019110033CCC58233C5829BED9AEC99E582984020
:101921000CF582EE9BFEED9AFDEC99FC0FD5F0D6FD
:10193100E4CEFBE4CDFAE4CCF9A88222B800C1B927
:101941000059BA002DEC8BF084CFCECDFCE5F0CB65
:10195100F97818EF2FFFEE33FEED33FDEC33FCEB9E
:1019610033FB10D703994004EB99FB0FD8E5E4F959
:10197100FA227818EF2FFFEE33FEED33FDEC33FC46
:10198100C933C910D7059BE99A4007EC9BFCE99A3A
:10199100F90FD8E0E4C9FAE4CCFB2275F010EF2F7F
:1019A100FFEE33FEED33FDCC33CCC833C810D7077F
:1019B1009BEC9AE899400AED9BFDEC9AFCE899F8BA
:0E19C1000FD5F0DAE4CDFBE4CCFAE4C8F9224D
:1041AD00C2D5E830E70FB2D5E4C39BFBE49AFAE43D
:1041BD0099F9E498F8EC30E717B2D51241E31219EA
:1041CD003DE4C39BFBE49AFAE499F9E498F8800383
:1041DD0012193D30D50DE4C39FFFE49EFEE49DFD15
:0441ED00E49CFC2230
:0E19CF00C3E49FFFE49EFEE49DFDE49CFC2229
:1019DD00EB9FF5F0EA9E42F0E99D42F0EC6480C881
:0619ED0064809845F02221
:1019F300EB9FF5F0EA9E42F0E99D42F0E89C45F04A
:011A030022C0
:101A0400E8600FECC313FCED13FDEE13FEEF13FFC0
:031A1400D8F122E4
:101A1700E8600FEFC333FFEE33FEED33FDEC33FC2D
:031A2700D8F122D1
:101A2A00BB010789828A83021C115005E9F8021C4E
:101A3A0005BBFE05E9F8021C1D89828A83021C295E
:101A4A00BB010DE58229F582E5833AF583021C1173
:101A5A005007E92582F8021C05BBFE07E92582F832
:101A6A00021C1DE58229F582E5833AF583021C29C9
:101A7A00BB010789828A83021AB85005E9F8021C59
:0A1A8A0039BBFE05E9F8021C4522F5
:101A9400BB010DE58229F582E5833AF583021AB884
:101AA4005007E92582F8021C39BBFE07E92582F8B4
:041AB400021C4522A9
:0C1AB800ECF0A3EDF0A3EEF0A3EFF022A1
:101AC400A8828583F0D083D082121ADB121ADB122B
:101AD4001ADB121ADBE473E493A3C583C5F0C58350
:101AE400C8C582C8F0A3C583C5F0C583C8C582C86C
:011AF40022CF
:101AF500BB010DE58229F582E5833AF583021AC417
:101B05005007E92582F8021C51BBFE07E92582F83A
:041B1500021C6A2222
:101B1900F5F0C582A4C582C5F0C583A42583F583E4
:011B29002299
:0C1B2A00A42582F582E5F03583F58322C6
:101B3600BB010789828A83021C8C5005E9F8021CC6
:101B460083BBFE05E9F8021C9589828A83021C9EE6
:101B5600BB010DE58229F582E5833AF583021C8CEB
:101B66005007E92582F8021C83BBFE07E92582F8A7
:101B7600021C95E58229F582E5833AF583021C9ECF
:101B8600D083D082F8E4937012740193700DA3A3EE
:101B960093F8740193F5828883E473740293686002
:061BA600EFA3A3A380DF02
:101BAC00D083D082F8E4937012740193700DA3A3C8
:101BBC0093F8740193F5828883E473740293B5F0FF
:0D1BCC00067403936860E9A3A3A3A380D867
:101BD900EF4E6012EF60010EEDBB010B89828A8323
:101BE900F0A3DFFCDEFA2289F05007F709DFFCA930
:0C1BF900F022BBFEFCF309DFFCA9F02287
:0C1C0500E6FC08E6FD08E6FE08E6FF220B
:0C1C1100E0FCA3E0FDA3E0FEA3E0FF2246
:0C1C1D00E2FC08E2FD08E2FE08E2FF2203
:101C2900E493FC740193FD740293FE740393FF2201
:0C1C3900ECF608EDF608EEF608EFF622D7
:0C1C4500ECF208EDF208EEF208EFF222DB
:101C5100D083D082E493F608740193F6087402935A
:091C6100F608740393F674047391
:101C6A00D083D082E493F208740193F20874029349
:091C7A00F208740393F274047380
:091C8300E6FB08E6FA08E6F92286
:091C8C00E0FBA3E0FAA3E0F92259
:091C9500E2FB08E2FA08E2F92280
:0C1C9E00E493FB740193FA740293F922A2
:00000001FF
