:03000000025E1D80
:0C5E1D00787FE4F6D8FD758121025E64F8
:10542E004105B80042058500004105B97F4205BA25
:10543E0000004205B5000042058900004105C0008C
:10544E004105BC00410584004105BF0041058800AF
:10545E0041058700410565004105B7004105C101C1
:10546E004105BE004105BD0042056600004E0557D0
:10547E0010000378000000000000000000004E0540
:10548E00C220000378000000000000000000004E63
:10549E0005A70010037800000000000000000000C7
:1054AE004E05990020037800000000000000000067
:1054BE00004E058B00400378000000000000000045
:1054CE0000004E0568008003780000000000000018
:1054DE000000004E05760100037800000000000079
:0454EE0000000000BA
:10654F00438E80E4F589758A67758CFCD28CD2A94D
:03655F00D2AF2296
:1064C400E4F5957596207580FF7590FF75A0FF75AE
:0B64D400B0FF12654F1264DF02000EE3
:10650E007E017F107D007B017A0279751233C8906F
:06651E00026E7401F02280
:104E2100900554EBF0A3EAF0A3E9F0900554E0FB00
:104E3100A3E0FAA3E0F990000212301DFFAEF0E505
:104E4100F06003025062EF24F6605224F670030210
:104E51004F1424F67003024F9E241E600302506219
:104E610090000CE4F5F0123074122FF2FF900267FB
:104E7100E055F0FEA3E05F4E6003025062900554DE
:104E8100E0FBA3E0FAA3E0F9900002E475F00A1256
:104E910030749000041232E40000000022900554A6
:104EA100E0FBA3E0FAA3E0F9122FF2FF900267E022
:104EB10055F0FEA3E05F4E703C900004123239EFD2
:104EC1002401FFE43EFEE43DFDE43CFC90000412BD
:104ED1003283900004123239E47B14FAF9F8C312D8
:104EE10031E24003025062900554E0FBA3E0FAA3D3
:104EF100E0F9025058900554E0FBA3E0FAA3E0F971
:104F01009000041232E400000000900002E4F5F089
:104F110002505F900554E0FBA3E0FAA3E0F9900092
:104F210004123239EF2401FFE43EFEE43DFDE43C8E
:104F3100FC900004123283122FF2FF900267E055B9
:104F4100F0FEA3E05F4E601F900554E0FBA3E0FA82
:104F5100A3E0F9900002E475F01E1230749000088D
:104F61001232E400000000900554E0FBA3E0FAA334
:104F7100E0F9900004123239E47B907A01F9F8C328
:104F81001231E24003025062900554E0FBA3E0FAC3
:104F9100A3E0F990000CE475F00102505F90055414
:104FA100E0FBA3E0FAA3E0F9900004123239EF2408
:104FB10001FFE43EFEE43DFDE43CFC9000041232BE
:104FC10083122FF2FF900267E055F0FEA3E05F4EDF
:104FD1006070900554E0FBA3E0FAA3E0F9900008AB
:104FE100123239EF2401FFE43EFEE43DFDE43CFCD6
:104FF100900008123283900008123239E47B14FACF
:10500100F9F8C31231E25059900554E0FBA3E0FADC
:10501100A3E0F990000C12301D640145F090000CE2
:10502100700575F0038004E475F00212307490008D
:10503100041232E400000000900002740375F0785D
:10504100801C900554E0FBA3E0FAA3E0F99000086E
:105051001232E400000000900002E475F0141230F6
:025061007422B7
:1063E9007B017A0579A7124E217B017A05799912E9
:1063F9004E217B017A057968124E217B017A057954
:1064090076124E217B017A057957124E217B017A4A
:066419000579C2024E21CC
:10649E00E49005A9F0A3F090059BF0A3F090056A97
:1064AE00F0A3F0900578F0A3F0900559F0A3F090CA
:0664BE0005C4F0A3F0226A
:104BC400900563E0FEA3E0FF4E605A90038974EF02
:104BD400F0A374FFF0EF64014E701C90026B04F0BC
:104BE400900566E07002A3E0703B900566F0A304B4
:104BF400F09005BEF0802E900563E07004A3E0649D
:104C04000290026B7004740280027403F0E4900555
:104C140063F0A3F0900559F0A3F0900566F0A3F0BB
:104C24009005BE04F09005CEE0FEA3E0FF4E605A6E
:104C340090038974DFF0A374FFF0EF64014E701CDD
:104C440090026B04F0900566E07002A3E0703B9064
:104C54000566F0A304F09005BEF0802E9005CEE02A
:104C64007004A3E0640290026B7004740280027406
:104C740003F0E49005CEF0A3F09005C4F0A3F09007
:104C84000566F0A3F09005BE04F09005B3E0FEA322
:104C9400E0FF4E605A90038974FFF0A374EFF0EFC5
:104CA40064014E701C90026B04F0900566E0700283
:104CB400A3E0703B900566F0A304F09005BEF0807D
:104CC4002E9005B3E07004A3E0640290026B7004BC
:104CD400740280027403F0E49005B3F0A3F090052D
:104CE400A9F0A3F0900566F0A3F09005BE04F0903F
:104CF40005A5E0FEA3E0FF4E605A90038974FFF01F
:104D0400A374DFF0EF64014E701C90026B04F0900A
:104D14000566E07002A3E0703B900566F0A304F022
:104D24009005BEF0802E9005A5E07004A3E0640217
:104D340090026B7004740280027403F0E49005A581
:104D4400F0A3F090059BF0A3F0900566F0A3F0901B
:104D540005BE04F0900574E0FEA3E0FF4E605A9097
:104D6400038974FFF0A3747FF0EF64014E701C900C
:104D7400026B04F0900566E07002A3E0703B9005BE
:104D840066F0A304F09005BEF0802E900574E070E8
:104D940004A3E0640290026B700474028002740342
:104DA400F0E4900574F0A3F090056AF0A3F0900588
:104DB40066F0A3F09005BE04F0900582E0FEA3E047
:104DC400FF4E605890038974FEF0A304F0EF640171
:104DD4004E701B90026B04F0900566E07002A3E035
:104DE400703A900566F0A304F09005BEF022900599
:104DF40082E07004A3E0640290026B700474028089
:104E0400027403F0E4900582F0A3F0900578F0A317
:0D4E1400F0900566F0A3F09005BE04F022BA
:03000B0002641F6D
:10641F00C0E0C0F0C083C082C0D075D00890034ADE
:10642F00E004F07006900349E004F012644B12632D
:0C643F00E9D0D0D082D083D0F0D0E03281
:105EA900E49005B8F01264C412650E1250639003B1
:105EB90049E0FFA3E09005BACFF0A3EFF09005BD4C
:105EC900E0703C9005BAE0FEA3E0FFC390034AE00E
:105ED9009FFF900349E09EFED3EF94F4EE940140B6
:105EE9001EE0FEA3E0FF9005BAEEF0A3EFF09005E7
:105EF900B5EEF0A3EFF012649E9005BD7401F09029
:105F090005BDE0B401B712004690035FE0B4020C8E
:105F19001238E190035F7403F0E4A3F01234B9126C
:045F29004BC480994C
:0D54F2004A064800FF00FF00FF00FF00FF1A
:0C608D00C290C2907F007E007D007C006D
:0660990090052C1232A755
:10609F009005301232B30000000090052CE0FCA3F5
:1060AF00E0FDA3E0FEA3E0FFA3E0F8A3E0F9A3E087
:1060BF00FAA3E0FBC31231CC502800900530E0FC6E
:1060CF00A3E0FDA3E0FEA3E0FFE4FAF9F8EF24015B
:1060DF00FFEA3EFEE93DFDE83CFC9005301232A799
:0260EF0080B877
:0160F100228C
:10656200D290D290D291D291126091C291C29122D4
:1065240012608DC291C291126091D290D290126089
:0665340091D291D29122E8
:0F65720012608DD290D290126091C290C290228E
:0862E000900652EEF0A3EFF06E
:1062E800E4A3F012609112608D900653E030E0064E
:1062F800D291D2918004C291C291126091900652BB
:10630800E0C313F0A3E013F0D290D2901260919002
:0B6318000654E004F0E0C3940840C805
:016323002257
:105F2D001265AC1265627F407E001262E0120003C2
:105F3D001265721265AC1265241265627FC07E0017
:105F4D001262E01200031265721265ACE4900658FD
:105F5D00F0900658E0FFC394055025EF25E0244846
:105F6D00F582E43406F583E0FEA3E0FF1262E01251
:105F7D0000031265721265AC900658E004F080D1F2
:105F8D001265241265627F8C7E001262E01200039E
:095F9D001265721265AC02652464
:05000300C294D2952219
:0565AC00D294D29522FB
:1026FB00303030303000313031303100313031302A
:10270B00320031303130330031303130340032303F
:10271B003130310000312D00322D00332D00342D9E
:10272B0000352D00362D00372D00382D00392D00AA
:10273B00313000313100313200313300313400316E
:10274B003500313600313700313800313900323045
:10275B000032310032320032330032340032350075
:10276B003236003237003238003239003330002035
:10277B0020204131002020204132002020204133F5
:10278B000020202041340020202041350020202033
:10279B0041360020202041370020202041380020E6
:1027AB00202041390020204131300036303430397F
:1027BB000020462D2D300020462D2D310020462D9A
:1027CB002D320020462D2D330020462D2D34002098
:1027DB00462D2D3500BDF8D6BD00CDCBD6BD00CFD7
:1027EB00C2C1CF00B4EACCF500CDA3D6BD00C6F470
:1027FB00B6AF00CDA3D6B900B7A2D6BD00CAD5D609
:10280B00BD00B4F2BDBA00502D2D00452D2D005149
:10281B00322D2D2D00502D2D203100502D2D2032FD
:10282B0000502D2D20300020202031310020202081
:10283B003132002020203133002020203134002081
:10284B002020313500202020313600202020313748
:10285B00002020203138002020203139002020207A
:10286B003230002020203231002020203232002054
:10287B002045727200D6BDB3A400C0A6CAFD00D716
:10288B00DCCAFD005738444628352C332C27313110
:10289B003136363232323636333333333327293B04
:1028AB000D0A0057384D5528302C302C38302C3829
:1028BB00302C312C32293B0D0A0057385545283125
:1028CB00293B0D0A004453363428312C322C272552
:1028DB0073272C3135293B0D0A0053585928302CBE
:1028EB0030290D0A00573855452833293B0D0A006E
:1028FB00573855452834293B0D0A004453363428A4
:10290B00312C312C272573272C3135293B0D0A000F
:10291B004453343828312C38362C27C7EBCAE4C83B
:10292B00EBC3DCC2EB3A272C3135293B0D0A0044B3
:10293B0053363428312C3130302C272573272C314A
:10294B0035293B0D0A00434C532830293B0D0A0017
:10295B00256400445334382833302C3139302C273C
:10296B002573272C31293B0D0A004453363428326A
:10297B0030302C3130302C272573272C3135293B27
:10298B000D0A00B4FAC2EBCAE4C8EBBBADC3E60058
:10299B00B4EDCEF3CCE1CABE00D6B1BDD3B5F7B220
:1029AB00CECAFD00B5C8B4FDB7B5D0A3BDE1B9FB28
:1029BB0000D1D3CAB1CFD4CABED0DEB8C4B3F6B43B
:1029CB00ED00B2E2CAD4B2CECAFDC9E8D6C300D17B
:1029DB00A7CFB0C4A3CABD00573855452832293BF1
:1029EB000D0A004453323428332C32302C272573F4
:1029FB00272C3135293B0D0A00D6F7BFD8B0E5B4EB
:102A0B00EDCEF3A3BA00B2D9D7F7B0E5B4EDCEF360
:102A1B00A3BA004453343828352C38302C27452D95
:102A2B002D2564272C31293B0D0A004453343828BB
:102A3B00352C38302C27452D2D2564272C31352965
:102A4B003B0D0A005358592830293B0D0A004453BB
:102A5B0034382832302C36302C272573272C31353F
:102A6B00293B0D0A00445334382832302C36302C95
:102A7B00272573272C31293B0D0A00445336342864
:102A8B003133302C322C272573272C3135293B0D34
:102A9B000A0044533634283133302C312C2725731C
:102AAB00272C3135293B0D0A00445336342831335A
:102ABB00302C312C272564272C3135293B0D0A006E
:102ACB00535047283537293B0D0A00257300313603
:102ADB002D352D313200535047283630293B0D0A06
:102AEB0000535047283632293B0D0A0053504728D4
:102AFB003633293B0D0A00445334382833302C31FC
:102B0B0039302C2725732020272C31293B0D0A0027
:102B1B00535047283331293B0D0A00535047283374
:102B2B0032293B0D0A00535047283333293B0D0AFA
:102B3B0000535047283334293B0D0A005350472884
:102B4B003335293B0D0A00535047283336293B0DAB
:102B5B000A00535047283337293B0D0A005350477F
:102B6B00283338293B0D0A00535047283339293B6A
:102B7B000D0A00535047283430293B0D0A0053509F
:102B8B0047283431293B0D0A00535047283432294A
:102B9B003B0D0A00535047283433293B0D0A005391
:102BAB005047283434293B0D0A00535047283435FD
:102BBB00293B0D0A00535047283436293B0D0A0098
:102BCB00535047283437293B0D0A005350472834BC
:102BDB0038293B0D0A00535047283439293B0D0A3D
:102BEB0000535047283530293B0D0A00434C5328DE
:102BFB002564293B0D0A0000010047FF26FB10004E
:102C0B000200000103AF01010057FF270112001E54
:102C1B0000000103B10201014FFF270714000E0052
:102C2B00000103B2030101BFFF270D16000E0000C8
:102C3B000103B30401022FFF27131C00070000013F
:102C4B0003B405010147FF27191A00010000010316
:102C5B00B5000000000000000000000000000000B4
:102C6B00FF271F40000000010358040500000186E8
:102C7B009F000000000000000000000000000000AA
:102C8B000000000000000000000000000000000039
:102C9B000000000000000000000000000000000029
:102CAB000000000000000000000000FEB0EDF9B3D2
:102CBB00DBDFF0FFFB00004080003F065B4F666DE3
:102CCB007D077F6F771F4E3D4F47FB771F4E3D793B
:102CDB0071FB37060E07386A761D7367055B313E4D
:102CEB001C5C313BED000000620800771F4E3D4F2E
:102CFB0047FB370638070E6A151D6773505B783E26
:102D0B001C5C313BED0000000000000000000000E7
:102D1B0000000000000000000000000000000000A8
:102D2B000000000000000000000000000000000098
:102D3B000000000000000000000000000000000088
:102D4B000000000000000000000000000000000078
:102D5B000000000000000000000000000000000068
:102D6B000000000000000000000000000000000058
:102D7B000000000000000000000000000000000048
:102D8B000000000000000000000000000000000038
:102D9B000000000000000000000000000000000028
:102DAB000000000000000000000000000000000018
:102DBB000000000000000000000000000000000008
:102DCB0000000000000000000000000000000000F8
:102DDB0000000000000000000000000000000000E8
:042DEB0000000000E4
:1054FF004102740042026C00004103B50041039069
:10550F00004603AF021E0E0701004803910402FF7D
:10551F002C6BFF2C02420389000041026B004102F9
:10552F006E014100430042039A00004203A30000B2
:10553F0043027100000041000A0041000B004200CD
:10554F001000004200160000420018000042001A2E
:10555F00000041001C0042001D000042001F00001F
:10556F0042002100004200230000420025000042BB
:10557F0000270000420029000042002B00004200DB
:10558F002D0000420031000042003300014100377E
:10559F0000420038000041003A0042003B00004248
:1055AF00003D0000420000000042000200004200E7
:0D55BF000400004200060000420008000049
:045FA6007BFFE4FD9C
:105FAA00900516EBF0A3EAF0A3E9F0A3EDF0900553
:105FBA0016E0FBA3E475F001122FDCA9F0FA122E09
:105FCA00E5FF3395E0FE74952FF582742C3EF58338
:105FDA00E493FD3395E0FC900519E0FF04F0EF33FC
:105FEA0095E0FEEF25E0FFEE33FE74482FF582744C
:105FFA00063EF583ECF0A3EDF0900519E0C364804A
:10600A0094865010900516E0FBA3E0FAA3E0F9127B
:05601A002EE5709A2242
:103C7000E4900519F0EF1233753CF5003D06013D67
:103C800017023D28033D39043D4A053D5B063D6C66
:103C9000073D7D083D8E093D9F0A3DB00B3DC10C9F
:103CA0003DD20D3DE30E3DF40F3E05103E16113E94
:103CB00027123E38133E49143E5A153E6B163E7C81
:103CC000173E8D183E9E193EAF1A3EC01B3ED11CBA
:103CD0003EE21D3EF3503F04513F14523F24533FF8
:103CE00034543F44553F54563F64573F74583F84C3
:103CF0005900003F9290051674FFF0A37427F0A3BB
:103D00007420F0023F9290051674FFF0A37427F020
:103D1000A37423F0023F9290051674FFF0A374275A
:103D2000F0A37426F0023F9290051674FFF0A3747E
:103D300027F0A37429F0023F9290051674FFF0A3B8
:103D40007427F0A3742CF0023F9290051674FFF0D4
:103D5000A37427F0A3742FF0023F9290051674FF0E
:103D6000F0A37427F0A37432F0023F92900516740A
:103D7000FFF0A37427F0A37435F0023F929005166C
:103D800074FFF0A37427F0A37438F0023F929005FB
:103D90001674FFF0A37427F0A3743BF0023F9290D7
:103DA000051674FFF0A37427F0A3743EF0023F924F
:103DB00090051674FFF0A37427F0A37441F0023F3E
:103DC0009290051674FFF0A37427F0A37444F002D8
:103DD0003F9290051674FFF0A37427F0A37447F088
:103DE000023F9290051674FFF0A37427F0A3744A63
:103DF000F0023F9290051674FFF0A37427F0A374AD
:103E00004DF0023F9290051674FFF0A37427F0A3C3
:103E10007450F0023F9290051674FFF0A37427F0DF
:103E2000A37453F0023F9290051674FFF0A3742719
:103E3000F0A37456F0023F9290051674FFF0A3743D
:103E400027F0A37459F0023F9290051674FFF0A377
:103E50007427F0A3745CF0023F9290051674FFF093
:103E6000A37427F0A3745FF0023F9290051674FFCD
:103E7000F0A37427F0A37462F0023F9290051674C9
:103E8000FFF0A37427F0A37465F0023F929005162B
:103E900074FFF0A37427F0A37468F0023F929005BA
:103EA0001674FFF0A37427F0A3746BF0023F929096
:103EB000051674FFF0A37427F0A3746EF0023F920E
:103EC00090051674FFF0A37427F0A37471F0023FFD
:103ED0009290051674FFF0A37427F0A37474F00297
:103EE0003F9290051674FFF0A37427F0A37477F047
:103EF000023F9290051674FFF0A37427F0A3747A22
:103F0000F0023F9290051674FFF0A37427F0A3749B
:103F100080F0807E90051674FFF0A37427F0A374E0
:103F200086F0806E90051674FFF0A37427F0A374DA
:103F30008CF0805E90051674FFF0A37427F0A374D4
:103F400092F0804E90051674FFF0A37427F0A374CE
:103F500098F0803E90051674FFF0A37427F0A374C8
:103F60009EF0802E90051674FFF0A37427F0A374C2
:103F7000A4F0801E90051674FFF0A37427F0A374BC
:103F8000AAF0800E90051674FFF0A37427F0A374B6
:103F9000B0F0900516E0FBA3E475F001122FDCA948
:103FA000F0FA122EE5FF3395E0FE74952FF582743A
:103FB0002C3EF583E493FD3395E0FC900519E0FF7A
:103FC00004F0EF3395E0FEEF25E0FFEE33FE74489A
:103FD0002FF58274063EF583ECF0A3EDF090051901
:103FE000E0C3648094865010900516E0FBA3E0FACD
:083FF000A3E0F9122EE5709A1E
:013FF80022A6
:04632400AC07A90514
:10632800AD04E9FF3395E0FEECFB3395E0FAEB2F83
:10633800FFEA3EFEEDFB3395E0FAC3EB9FEE648087
:10634800F8EA6480985018EB25E0FFEA33FE7448B9
:0F6358002FF58274063EF583E4F0A3F00D80C3A9
:016367002213
:0D5BDF0090042DEFF07B017A0379A5E4FD21
:0E5BEC00900516EBF0A3EAF0A3E9F0A3EDF0AC
:105BFA00E4A3F0900516E0FBA3E0FAA3E0F9900015
:105C0A0001122EFEB42E0790051AE0B4014D90053C
:105C1A0016E0FBA3E475F001122FDCA9F0FA122EAC
:105C2A00E5FF3395E0FE74952FF582742C3EF583DB
:105C3A00E493FD3395E0FC900519E0FF04F0EF339F
:105C4A0095E0FEEF25E0FFEE33FE74482FF58274EF
:105C5A00063EF583ECF0A3EDF0805D900516E0FBBF
:105C6A00A3E475F001122FDCA9F0FA122EE5FF3336
:105C7A0095E0FE74952FF582742C3EF583E49344E7
:105C8A0080FD3395E0FC900519E0FF04F0EF3395B1
:105C9A00E0FEEF25E0FFEE33FE74482FF58274062E
:105CAA003EF583ECF0A3EDF090051A7401F090052F
:105CBA0017E475F001122FC6900519E0C3648094A9
:065CCA00865003025BFDA1
:015CD00022B1
:1055E500E4FDEDFF3395E0FEEF25E0FFEE33FE74BD
:1055F500752FF974023EFA7B01EDFF3395E0FEEF5E
:105605007803C333CE33CED8F92447F58274003EF0
:10561500F583EBF0A3EAF0A3E9F00DEDB402C3E4E2
:10562500FDEDFF3395E0FEEF25E0FFEE33FE747BE5
:105635002FF974023EFA7B01EDFF3395E0FEEF781A
:1056450003C333CE33CED8F92457F58274003EF523
:1056550083EBF0A3EAF0A3E9F00DEDB41EC3E4FD7E
:10566500EDFF3395E0FEEF25E0FFEE33FE74B92F35
:10567500F974023EFA7B01EDFF3395E0FEEF780306
:10568500C333CE33CED8F9244FF58274013EF5836A
:10569500EBF0A3EAF0A3E9F00DEDB40EC3E4FDEDE4
:1056A500FF3395E0FEEF25E0FFEE33FE74D72FF9CB
:1056B50074023EFA7B01EDFF3395E0FEEF7803C3FC
:1056C50033CE33CED8F924BFF58274013EF583EB92
:1056D500F0A3EAF0A3E9F00DEDB40EC3E4FDEDFF90
:1056E5003395E0FEEF25E0FFEE33FE74F52FF974F8
:1056F500023EFA7B01EDFF3395E0FEEF7803C333FD
:10570500CE33CED8F9242FF58274023EF583EBF023
:10571500A3EAF0A3E9F00DEDB407C3E4FDEDFF3313
:1057250095E0FEEF25E0FFEE33FE74052FF97403D7
:105735003EFA7B01EDFF3395E0FEEF7803C333CEF0
:1057450033CED8F92447F58274013EF583EBF0A3F7
:0A575500EAF0A3E9F00DEDB401C382
:01575F002227
:05435E0090042CEFF0BB
:104363003395E0FE902C0C75F00FEF123319EE75B8
:10437300F00FA42583F583E493FF74019390043134
:10438300CFF0A3EFF0900431E475F001122FDCAF0E
:10439300F0FE120026900430EFF0E4900433F0A313
:1043A300F090042CE0FFFD3395E0FC902C0B75F0AE
:1043B3000FED123319EC75F00FA42583F583E49305
:1043C300FB3395E0FA900433E0FCA3E0FDC39BEAE2
:1043D3006480F8EC6480984003024504EFB4044918
:1043E3003395E0FE902C0375F00FEF123319EE7541
:1043F300F00FA42583F583E493FB740193FA74020D
:1044030093F9C003C002C001EDAE047803C333CEF9
:1044130033CED8F9D001D002D00329F9EA3EFA907D
:104423000003740175F0C2804C90042CE0FF3395B7
:10443300E0FE902C0375F00FEF123319EE75F00FB9
:10444300A42583F583E493FB740193FA740293F92F
:10445300C003C002C001EDAE047803C333CE33CE34
:10446300D8F9D001D002D00329F9EA3EFA9000032B
:10447300740375F0E712307490042CE0FF3395E079
:10448300FE902C0375F00FEF123319EE75F00FA4A5
:104493002583F583E493FB740193FA740293F990F3
:1044A3000433E0FEA3E07803C333CE33CED8F9FF61
:1044B30029F9EA3EFA900005E4F5F012307490040D
:1044C3002CE0FD3395E0FC902C0375F00FED1233D7
:1044D30019EC75F00FA42583F583E493FB74019322
:1044E300FA7402932FF9EA3EFA900007E4122F3D83
:1044F300900434E004F07006900433E004F00243C7
:10450300A4902C3FE493FB740193FA740293F99003
:104513000033740175F0F412307490042CE01460CD
:104523002014602D14603A146047146054240570FD
:104533005E90042D7401F0A37402F0A37475F080EF
:104543004E90042D7401F0A37402F0A3747BF080E9
:104553003E90042D7401F0A37402F0A374B9F080AB
:104563002E90042D7401F0A37402F0A374D7F0808D
:104573001E90042D7401F0A37402F0A374F5F0806F
:104583000E90042D7401F0A37403F0A37405F0904E
:10459300042CE0FF3395E0FE902C0975F00FEF1229
:1045A3003319EE75F00FA42583F583E493FF7401AB
:1045B30093900431CFF0A3EFF0E4A3F0A3F09004C1
:1045C3002CE0FF3395E0FE902C0B75F00FEF1233C8
:1045D30019EE75F00FA42583F583E493FF3395E07B
:1045E300FEEF2401FFE43EFEC3900434E09FEE643B
:1045F30080F8900433E06480985063900431E4754C
:10460300F001122FDCAFF0FE12002690042DE0FB28
:10461300A3E0FAA3E0F9EF122F2B90042EE475F038
:1046230001122FC6900431E475F001122FDCAFF0B4
:10463300FE12002690042DE0FBA3E0FAA3E0F9EFBD
:10464300122F2B90042EE475F001122FC690043420
:0E465300E004F07006900433E004F00245C16C
:014661002236
:1060F200E4FDEDFF3395E0FEEF25E0FFEE33FE74A5
:10610200752FF58274023EF583E0FAA3E0FB740971
:106112002FF58274033EF583EAF0A3EBF00DEDB4A4
:1061220002D0E4FDEDFF3395E0FEEF25E0FFEE3314
:10613200FE747B2FF58274023EF583E0FAA3E0FB46
:10614200740D2FF58274033EF583EAF0A3EBF00D94
:04615200EDB41ED0BA
:016156002226
:105CD10090042C747FF0A374F9F0E4FF90042CE499
:105CE10075F001122FDC85F082F583E493FEEFFD60
:105CF1003395E0FC742E2DF58274043CF583EEF0AF
:105D01000FEFB407D7900433E0FE3395E0900373AF
:105D1100F0A3CEF0E07F00FE900373F0A3EFF090CC
:105D21000434E0FDEDFF900373EEF0A3EFF07C0788
:105D31007DD0122F71A3ECF0A3EDF0E490042CF0D0
:105D4100A3F0900376E025E0FF900375E033FE12A7
:105D5100002690042EEFF0900376E025E0FF9003FB
:105D610075E033FEEF2401FFE43EFE1200269004AD
:105D71002FEFF0FB90042EE0FDAF05900377E4F0E8
:0B5D8100A3EFF0EBFFA3E4F0A3EFF0B2
:015D8C0022F4
:10506300C2A57A2779B6125FA6900393E0F9A3E06D
:10507300FAA3E0900427C9F0A3EAF0A3E9F0E490CF
:10508300042BF0900427E0FBA3E0FAA3E0F99004DB
:105093002BE0FFFD3395E08D82F583741512330801
:1050A300123345EA494B600890042BE004F080D3A7
:1050B30090041AEFF0900396E0FBA3E0FAA3E0F963
:1050C300900040EBF0A3EAF0A3E9F0900001123363
:1050D30045900044EBF0A3EAF0A3E9F0E490042B3D
:1050E300F0900040E0FBA3E0FAA3E0F990042BE08A
:1050F300FFFD3395E08D82F583740F123308122E72
:10510300FEB5070B12435E90042BE004F080D290AF
:10511300042BE0900269F01260F21255E5E490036B
:1051230099F090026FF09003A1F0A304F0E49003D0
:105133008CF090034DF090034BF0A3F090034EF0EE
:105143009003541232B300000000E4900371F01294
:105153005CD1900377E0FFA3E09002EFCFF0A3EFE1
:10516300F0900379E0FFA3E09002F1CFF0A3EFF01A
:10517300E4900372F090042BF090042BE0FFC364DF
:10518300809487400302520EEF3395E0FEEF7802DE
:10519300C333CE33CED8F9FF24D7F58274023EF55C
:1051A30083E0FCA3E04C702B74D92FF58274023E8C
:1051B300F583E0FEA3E04E701A900372E0FF9004C3
:1051C3002BE0FE7401A806088002C333D8FC4F907D
:1051D3000372F090042BE0FF3395E0FEEF7802C3F7
:1051E30033CE33CED8F9FF24B9F58274023EF5836A
:1051F300E4F0A3F074BB2FF58274023EF583E4F070
:10520300A3F090042BE004F002517C124936125AA9
:10521300E8E47B107A27F9F890037BE0FCA3E0FD38
:10522300A3E0FEA3E0FF12312C900305EEF0A3EF01
:10523300F0E4900349F0A3F0900350F0A3F074FF5F
:06524300900267F0A3F0E9
:015249002242
:08524A00900516EEF0A3EFF051
:105252009005B874AAF0900516E0FEA3E0902C0920
:1052620075F00F123319EE75F00FA42583F583E460
:1052720093FE740193FF126200E49005B8F090056A
:1052820016E0FEA3E0FFEE7072EF14602014602DB2
:1052920014603A1460471460542405705E90051837
:1052A2007401F0A37402F0A37475F0804E90051897
:1052B2007401F0A37402F0A3747BF0803E90051891
:1052C2007401F0A37402F0A374B9F0802E90051853
:1052D2007401F0A37402F0A374D7F0801E90051835
:1052E2007401F0A37402F0A374F5F0800E90051817
:1052F2007401F0A37403F0A37405F0900516E0FEA8
:10530200A3E0902C0975F00F123319EE75F00FA47B
:105312002583F583E493FF74019390051CCFF0A3DA
:10532200EFF0E490051BF0900516E0FEA3E0902C50
:105332000B75F00F123319EE75F00FA42583F58368
:10534200E493FF3395E0FEEF2401FFE43EFE900577
:105352001BE0C39FEE6480F87480984003025424DB
:105362009005B874AAF090051CE0FEA3E0FF90053A
:1053720018E0FBA3E0FAA3E0F9122EE5FD12615753
:1053820090051CE0FEA3E0FF120026AE0790051870
:10539200E0FBA3E0FAA3E0F9122EE56E60079003AA
:1053A2004CE04420F0900519E475F001122FC690EC
:1053B200051DE004F0700690051CE004F090051C49
:1053C200E0FEA3E0FF900518E0FBA3E0FAA3E0F9FA
:1053D200122EE5FD12615790051CE0FEA3E0FF12BC
:1053E2000026AE07900518E0FBA3E0FAA3E0F9124D
:1053F2002EE56E600790034CE04420F0900519E41E
:1054020075F001122FC690051DE004F0700690059C
:105412001CE004F0E49005B8F090051BE004F002F3
:0B54220053291260F29005847401F021
:01542D00225C
:10629800EF14601814601D14602214602714602C19
:1062A800240570337BFF7A2779BC80267BFF7A2709
:1062B80079C2801E7BFF7A2779C880167BFF7A27F0
:1062C80079CE800E7BFF7A2779D480067BFF7A27E8
:0862D80079DAE4FD125FAA224D
:1000460078317C047D017BFF7A2D79157E007F64F3
:10005600122EBFE4900496F0A3F0A3F0A3F0789FCD
:100066007C047D017BFF7A2D7979FE7F06122EBFF7
:1000760078A57C047D017BFF7A2D797F7E007F0643
:10008600122EBF78AB7C047D017BFF7A2D79857EAD
:10009600007F06122EBFA2A4E4335401FF9002672C
:1000A600E0FCA3E054FEFDECFEED4FFF900267EE90
:1000B600F0A3EFF0A2A3E433540125E0FFE433FEFE
:1000C600900267E0FCA3E054FDFDEC4EFEED4FFF11
:1000D600900267EEF0A3EFF0A2A2E4FE335401789B
:1000E60002C333CE33CED8F9FF900267E0FCA3E01B
:1000F60054FBFDEC4EFEED4FFF900267EEF0A3EFD2
:10010600F0A2A1E4FE3354017803C333CE33CED834
:10011600F9FF900267E0FCA3E054F7FDEC4EFEED1C
:100126004FFF900267EEF0A3EFF0A2A0E433540174
:10013600C4F8540FC868FFE4C454F048FE90026740
:10014600E0FCA3E054EFFDEC4EFEED4FFF9002679E
:10015600EEF0A3EFF0A2B5E4FE3354017805C33305
:10016600CE33CED8F9FF900267E0FCA3E054DFFD62
:10017600EC4EFEED4FFF900267EEF0A3EFF0A2B358
:10018600E4FE3354017806C333CE33CED8F9FF905C
:100196000267E0FCA3E054BFFDEC4EFEED4FFF907E
:1001A6000267EEF0A3EFF0A2B2E4FE335401780743
:1001B600C333CE33CED8F9FF900267E0FCA3E054F8
:1001C6007FFDEC4EFEED4FFF900267EEF0A3EFF0E1
:1001D600A2A6E4335401FE900267E054FEFCA3E0BD
:1001E600FDEC4EFFED900267CFF0A3EFF0A2A7E47F
:1001F60033540125E0FE900267E054FDFCA3E0FDC8
:10020600EC4EFFED900267CFF0A3EFF0A292E4333D
:10021600540125E025E0FE900267E054FBFCA3E0D4
:10022600FDEC4EFFED900267CFF0A3EFF0A293E452
:1002360033540133333354F8FE900267E054F7FC2D
:10024600A3E0FDEC4EFFED900267CFF0A3EFF0A226
:1002560096E4335401C454F0FE900267E054EFFC78
:10026600A3E0FDEC4EFFED900267CFF0A3EFF0A206
:1002760097E4335401C43354E0FE900267E054DF40
:10028600FCA3E0FDEC4EFFED900267CFF0A3EFF08C
:10029600A2CCE4335401C4333354C0FE900267E069
:1002A60054BFFCA3E0FDEC4EFFED900267CFF0A338
:1002B600EFF0A2CDE4335401C43333335480FE90BF
:1002C6000267E0547FFCA3E0FDEC4EFFED90026771
:1002D600CFF0A3EFF0900267E0FFA3E0900016CF07
:1002E600F0A3EFF090001AE0FEA3E0FF900016E006
:1002F600FCA3E0FD6F7002EC6E6079900349E0FEAE
:10030600A3E0FF900027EEF0A3EFF0900023E0704B
:1003160002A3E0701190002FEEF0A3EFF090000A18
:10032600E04401F0800790000AE054FEF090001FC0
:10033600E0FEA3E0FF900349E0FAA3E0FBC39FFFC2
:10034600EA9EFED3EF9432EE9400402590001AEC1C
:10035600F0A3EDF090001DEAF0A3EBF0E49000218D
:10036600F0A3F0A3F0A3F0900033F0A304F002048E
:100376007B02047490002FE0FEA3E0FF900349E0A7
:10038600FCA3E0FDC39FFFEC9EFED3EF9432EE94F8
:1003960000400790000AE054FEF0900027E0FEA31C
:1003A600E0FFC3ED9FFFEC9EFED3EF9430EE947515
:1003B6004034900349E0FFA3E0900027CFF0A3EF7D
:1003C600F090002DE07002A3E0701B9003A1E07096
:1003D60004A3E06411600F9003A1E4F0A304F0E429
:1003E60090002BF0A3F090001DE0FEA3E0FF900329
:1003F60049E0FCA3E0FDC39FFFEC9EFED3EF9432E1
:10040600EE9400406990001FECF0A3EDF09000160A
:10041600E0FEA3E0F47002EEF4605A900023E07070
:1004260002A3E07050900022E004F07006900021D4
:10043600E004F0D3900022E09464900021E0648010
:1004460094804031900023E4F0A304F0900033E45C
:10045600F0A304F0E4900031F0A3F0900025ECF056
:10046600A3EDF0900021E4F0A3740AF08007E49075
:100476000016F0A3F0900023E07002A3E0605B900A
:100486000025E0FEA3E0FF900349E0FCA3E0FDC3E6
:100496009FFFEC9EFED3EF9464EE9400403C9000E8
:1004A60032E004F07006900031E004F0900031E094
:1004B600FEA3E0FFD39432EE648094804007A3E469
:1004C600F0A3740AF0EF4E6008900025ECF0A3ED5F
:1004D600F0900018E4F0A374FFF0900016E0FEA37D
:1004E600E0FF4E6021A3E0FCA3E0FDEF6D7002EE9D
:1004F6006C600C900016A3A3EEF0A3EFF08007E467
:10050600900016F0A3F0900016E0FEA3E0FFF47052
:1005160003EE64FD6012EFF47003EE64FB6009EF16
:10052600F47003EE64F77042900371E0FF60209070
:100536000016E0B4FB19A3E0B4FF14EF3395E0FE18
:10054600EF2414FFE43E90034BF0A3EFF0801B90E2
:1005560005BE7401F0900016E0FFA3E0900389CF7A
:10056600F0A3EFF090026B7402F090003DE0FEA362
:10057600E0FFEE7076EF24F6602524F6604D241435
:10058600706920946690003DE4F0A3740AF090032D
:1005960049E0FFA3E090003BCFF0A3EFF0804C20B2
:1005A600944290003BE0FEA3E0FFC390034AE09F25
:1005B600FF900349E09EFED3EF9464EE9400402B37
:1005C60090003DE4F0A37414F0802030941D900553
:1005D600BE7401F090038974FFF0A374EEF09002EC
:1005E6006B7402F0E490003DF0A3F090026CE0FE24
:1005F600A3E0FF64084E7003020766900016E0FC55
:10060600A3E08CF012339B0748DFFF0738EFFF07A4
:1006160028F7FF0718FBFF0708FDFF06F8FEFF0691
:10062600E8FF7F06DDFFBF06CCFFDF0758FFEE06BB
:10063600BBFFEF0666FFF70645FFFE00000766EF05
:1006460064024E600F90026CE07004A3E0640360E5
:1006560003020766E490038EF0A3F090026C8029F3
:1006660090026CE0FEA3E0FF64024E6012EF6403AA
:100676004E701C9003A1E07004A3E064017010E4C6
:1006860090026CF0A3F090038EF0A3F00207669040
:10069600026CE07002A3E060030207669003A1E02B
:1006A6007004A3E06401600302076690026CF0A385
:1006B60004F002076690027174FFF0A37427F0A39A
:1006C60074E0F002076690027174FFF0A37427F0DD
:1006D600A374E5F002076690026CE4F0A37408F0D8
:1006E600807E90027174FFF0A37427F0A374EAF081
:1006F600806E90027174FFF0A37427F0A374EFF07C
:10070600805E90027174FFF0A37427F0A374F4F076
:10071600804E90027174FFF0A37427F0A374F9F071
:10072600803E90027174FFF0A37427F0A374FEF06C
:10073600802E90027174FFF0A37428F0A37403F066
:10074600801E90027174FFF0A37428F0A37408F061
:10075600800E90027174FFF0A37428F0A3740DF05C
:100766009003A1E0FEA3E0FFEE60030218ADEF24C4
:10077600FE7003020C611470030210481470030229
:1007860013F224FB700302187124F97003020F2080
:10079600147003020E6A241060030218AD9000164E
:1007A600E0FEA3E08EF012339B092F7FFF08B9BF4E
:1007B600FF0A13FFBF09ABFFF70822FFFB0889FFFB
:1007C600FD07CFFFFE00000A2DE490003AF09000EE
:1007D6002BE07002A3E0702990039C7430F0A3F024
:1007E600A3F0A3F0A3F090038B7404F07B017A03CB
:1007F600799CE4FD125FAA9003A1E4F0A37402F0D1
:1008060022900043E0B4010AE4F0900037F0900330
:10081600B5F0E490002BF0A3F0020A2DE490003A24
:10082600F0900023E07002A3E0604590002BE0709A
:1008360002A3E0703B90037BE0FCA3E0FDA3E0FE97
:10084600A3E0FFA3E0F8A3E0F9A3E0FAA3E0FBC36B
:100856001231E2601B90037BE0FCA3E0FDA3E0FE07
:10086600A3E0FFA31232A79005B77401F0125D8DC5
:1008760090026EE064016003020A2D90058704F081
:10088600E48029E490003AF0900349E0FFA3E09069
:100896000029CFF0A3EFF0A3E4F0A37405F09002D3
:1008A6006EE06003020A2D90058704F090026EF058
:1008B600020A2DE490003AF090002BE07002A3E0CB
:1008C6006003020A2D900040E0FBA3E0FAA3E0F9E2
:1008D600900001123345900044EBF0A3EAF0A3E93F
:1008E600F0E490041BF0A3F0A304F0E490026FF090
:1008F60090000B04F0E490002DF0A3F0FC7D0FFFB8
:10090600FE122F5F900040E0FBA3E0FAA3E02FF970
:10091600EA3EFA900009122EFE90042AF0D3648073
:10092600948050030226FA8072E490003AF0900018
:100936002BE07002A3E06003020A2D900040E0FB6A
:10094600A3E0FAA3E0F9900001123345900044EBCE
:10095600F0A3EAF0A3E9F0E490041BF0A304F0A3EB
:10096600F090026FF090000BF0E490002DF0A3F0F1
:10097600FC7D0FFFFE122F5F900040E0FBA3E0FA24
:10098600A3E02FF9EA3EFA900009122EFE90042AFF
:10099600F0D36480948050030226FA9003A1E4F019
:1009A600A37403F022900043E07037900023E070B8
:1009B60002A3E0601090003AE0C3648094A8500A55
:1009C600E004F08005E490003AF0900349E0FFA3CC
:1009D600E0900029CFF0A3EFF0A3E4F0A37402F0B7
:1009E60080459005BE7401F090038974FFF0A374EE
:1009F600BFF090026B7402F0E490002BF0A3F0902D
:100A06000043F0900037F09003B5F0801A90004351
:100A1600E0701490056504F090002BE4F0A37404D4
:100A2600F09000437401F090002BE07002A3E060A8
:100A360003020B9B900392E0FF90000EE4F0A3EFFD
:100A4600F090026FE090042CF090034BE07002A34C
:100A5600E06003020AF190034DE0704CA3E0B4019C
:100A6600109003B57401F0900037E0700B04F0802D
:100A76000790000AE054FDF090037FE0F8A3E0F948
:100A8600A3E0FAA3E0FB90037BE0FCA3E0FDA3E078
:100A9600FEA3E0C39BFFEE9AFEED99FDEC98FC9059
:100AA60003581232A7020B227A287912125FA690F7
:100AB600034DE0FB547FFF3395E0FEFDFC900012F2
:100AC6001232A7EB30E708900037E0700204F0120C
:100AD600467090042DEFF07B017A0379A87D03120E
:100AE6005BEC9003B57401F0020B6690034BE0FEDD
:100AF600A3E0FF640B4E6006EF640C4E7034900367
:100B06004EE0B401109003B57401F0900037E07028
:100B16000B04F0800790000AE054FDF0900358E0C3
:100B2600FCA3E0FDA3E0FEA3E0FF12466A125BDF32
:100B3600802E7BFF7A287916E4FD125FAA90003793
:100B4600E0700204F090034B12466290042DEFF021
:100B56007B017A0379A87D03125BECE49003B5F080
:100B660090038CE07003020C41900391E0FF900328
:100B760099E004FEF0D3EF6480F8EE6480985003A9
:100B8600020C41E4F090026FE004F0E490000EF0F5
:100B9600A3F0020C4190002BE07004A3E064027005
:100BA60033900352124662125BDF900029E0FEA3E7
:100BB600E0FFC390034AE09FFF900349E09EFED307
:100BC600EF94D0EE9407407390002BE4F0A37403E7
:100BD600F0020C4190002BE07004A3E06403700562
:100BE600900350803590002BE07004A3E0640470FD
:100BF6001A7BFF7A28791AFD125FAA900037E070F7
:100C06000204F09003B57401F0803090002BE07080
:100C160004A3E064057024900373E0FEA3E0FFE400
:100C2600FCFD9000121232A7900012A3A3E0FEA3CF
:100C3600E0FFE4FDFC12466A125BDF90003AE064D6
:100C46002860030218B5F09003A1F0A37410F09089
:100C5600002BE4F0A37404F0020FD1900016E0FE1E
:100C6600A3E08EF012339B0CD4FFF70C8EFFFB0C27
:100C7600A4FFFD0C81FFFE00000E4AE490026FF017
:100C86009003A1F0A304F02290038BE014F0C36458
:100C96008094804003020E4A7404F0020E4A9003C8
:100CA6008BE0FF3395E0FE749C2FF58274033EF5CE
:100CB60083E004F0D3648094B95003020E4A749C16
:100CC6002FF58274033EF5837430F0020E4A9004C9
:100CD6002B7401F0900269E0FF90042BE0FEC3EF55
:100CE6006480F8EE64809840030226FA900040E0A3
:100CF600FBA3E0FAA3E0F9EE75F00FA4FFE92FF9E4
:100D0600E43AFA900004123345122EE5FF90039C54
:100D1600E06F6003020E4190042BE0FF3395E0FE86
:100D26007C007D0F122F5F900040E0FBA3E0FAA34A
:100D3600E02FF9EA3EFA90000412334590000112C2
:100D46002EFEFF90039DE06F6003020E41900002AD
:100D5600122EFEFF90039EE06F6003020E4190008C
:100D660003122EFEFF90039FE06F6003020E419078
:100D76000004122EFEFF9003A0E06F6003020E41F6
:100D860090042BE0FFB404289002EBE07002A3E08D
:100D9600700A9002EDE07002A3E06014900372E026
:100DA60020E50D900301E07002A3E060030226FA3D
:100DB600EF3395E0FE90002DF0A3EFF07C007D0F61
:100DC600122F5F900040E0FBA3E0FAA3E02FF9EAC0
:100DD6003EFA900001123345900044EBF0A3EAF08E
:100DE600A3E9F090002DE0FEA3E0FF90041BF0E4E1
:100DF600A3F0A304F0E490026FF0122F5F9000407E
:100E0600E0FBA3E0FAA3E02FF9EA3EFA900009120C
:100E16002EFE90042AF0D36480948040099003A1AA
:100E2600E4F0A37403F090042AE0D3648094944021
:100E3600037414F0900495740AF02290042BE004D5
:100E4600F0020CDA900010E07002A3E0600D900052
:100E560023E07002A3E070030217DC7B017A0379BA
:100E66009C0218A6900016E0FEA3E08EF012339BBB
:100E76000E7EFFFE00000EB2E490002BF0A3F09071
:100E8600038B7404F0E4900399F090041B7478F0DB
:100E960090041D7401F0E490026FF09003A1F0A39A
:100EA60004F0E4900037F09003B5F02290034BE095
:100EB600FEA3E0FF640B4E6006EF640C4E7044EF39
:100EC600640B4E70147BFF7A287920FD125FAA907E
:100ED6000037E0702504F0802190034BE07004A3F6
:100EE600E0640C60030218B57BFF7A287926FD12B0
:100EF6005FAA900037E0700204F09003B57401F029
:100F06000218B57BFF7A28792CE4FD125FAAE490DB
:100F16000037F09003B5F00218B5900016E0FEA376
:100F2600E08EF012339B103F7FFF1036BFFF0FEEAF
:100F3600DFFF0FF7EFFF0FE5F7FF0FDCFBFF1024D6
:100F4600FDFF101BFEFF1012FF7F102DFFBF1000CC
:100F5600FFDF1009FFEF0FBDFFFB0F95FFFD0F6CC5
:100F6600FFFE000018B5E490002BF0A3F090038B71
:100F76007404F0E4900399F090041B7478F09004E4
:100F86001D7401F0E490026FF09003A10218B19075
:100F96000390E0C3648094815009E004F09005BF9B
:100FA6007401F0900390E0FF126298900390E0D3F2
:100FB600648094800218B5900390E0D36480948096
:100FC6004009E014F09005BF7401F0900390E0FF33
:100FD6001262980218B57BFF7A2879320218A67B2E
:100FE600FF7A2879380218A67BFF7A28793E0218FC
:100FF600A67BFF7A2879440218A67BFF7A28794ACD
:101006000218A67BFF7A2879500218A67BFF7A2859
:1010160079560218A67BFF7A28795C0218A67BFF10
:101026007A2879620218A67BFF7A2879680218A6C0
:101036007BFF7A28796E0218A67BFF7A28797402DC
:1010460018A6900016E0FEA3E08EF012339B110264
:10105600FFF71095FFFB10CBFFFD1068FFFE0000A9
:101066001165E490002BF0A3F090038B7404F0E478
:10107600900399F090041B7478F090041D7401F0AD
:10108600E490026FF09003A1F0A304F002116590C2
:10109600026FE0FF14F0EF700990042AE01490024A
:1010A6006FF090026FE090041CF0F0A37401F090D2
:1010B6000495E0FF14F0EFD3940A4003021165741F
:1010C6001DF002116590042AE0FF90026FE004FE15
:1010D600F0C3EF6480F8EE6480984002E4F090027A
:1010E6006FE090041CF0A37401F0900495E0FF04F7
:1010F600F0EFC3941D4068740AF0806390041BE00F
:10110600FDB4042790026FE0FF74017E00A8070873
:101116008005C333CE33CED8F9FF900372E0FB339C
:1011260095E05EFEEF5B4E6036802EEDB4032A90AE
:10113600026FE0A2E713FF74017E00A8070880058E
:10114600C333CE33CED8F9FF900372E0FD3395E07A
:101156005EFEEF5D4E6008800090000B7405F09017
:10116600041BE0FF700890000BE0600204F09000A2
:101176000BE064056003021301F090026FE0FE903D
:10118600042CF090038B7404F09002707402F0EF5C
:10119600B40331EEA2E713FF74017E00A8070880AE
:1011A60005C333CE33CED8F9FF900372E0FD3395F5
:1011B600E05EFEEF5D4E700C9003851232B30000C8
:1011C60000008020900423E0FBA3E0FAA3E0F912DC
:1011D6003325122FF2FFAEF0EE3395E0FDFC9003BF
:1011E600851232A79003A1E4F0A37404F090042CB6
:1011F600E0FF3395E0FEEF7803C333CE33CED8F964
:10120600FF900044E0FBA3E0FAA3E02FF9EA3EFAE0
:10121600900423EBF0A3EAF0A3E9F09002707402C5
:10122600F0123325C00390051A7403F0E4A3F0A36B
:1012360004F0A37403F0A374A5F0E4A3F0A374026E
:10124600F0D003FD12469390042DEFF090038D74B9
:1012560003F090039C7430F0A3F0740314606D14D3
:1012660060431460030212F290042DE0FFFD3395F3
:10127600E0FC74A52DF58274033CF583E0FE900333
:101286009EF0BE20037430F0EF3395E0FE74A62F77
:10129600F58274033EF583E0FD90039FF0BD2003C5
:1012A6007430F0803890039E7420F090042DE0FF97
:1012B6003395E0FE74A62FF58274033EF583E0FDB8
:1012C60090039FF0BD20037430F0801190039E744C
:1012D60020F0A3F090042DE0FF3395E0FE74A72FD5
:1012E600F58274033EF583E09003A0F0E4900035A8
:1012F600F0A3F09003A1F0A37404F0D390000FE0E4
:10130600940090000EE09400400FA3E024FFF090BC
:10131600000EE034FFF00218B5900392E0FF900053
:101326000EE4F0A3EFF090026FE0FDFF3395E0FED0
:10133600EF7803C333CE33CED8F9FF900044E0FBF9
:10134600A3E0FAA3E02FF9EA3EFA900423EBF0A318
:10135600EAF0A3E9F090041BE0B40331EDA2E71331
:10136600FF74017E00A807088005C333CE33CED8AC
:10137600F9FF900372E0FD3395E05EFEEF5D4E707F
:101386000C9003851232B3000000008020900423E5
:10139600E0FBA3E0FAA3E0F9123325122FF2FFAE29
:1013A600F0EE3395E0FDFC9003851232A790026FB4
:1013B600E0FF123C7090051A7403F0E4A3F07B0181
:1013C600A304F0A37403F0A374A5F0E4A3F0A3743C
:1013D60002F07A0379857D0412469390042DEFF08E
:1013E60024A5F9E43403FA7B0102186A900016E09A
:1013F600FEA3E08EF012339B157BFFF7141EFFFB56
:1014060014CEFFFD1412FFFE000017C890041BE067
:1014160060030217BF02179490026FE0FF3395E056
:10142600FEEF7803C333CE33CED8F9FF900044E005
:10143600FBA3E0FAA3E02FF9EA3EFA900007122E8A
:10144600FE30E0030217C8900385E0FCA3E0FDA38D
:10145600E0FEA3E0FFC006C007900033E0FEA3E075
:10146600FBAA06EA3395E0F9F8D007D006C3EF9B4E
:10147600FFEE9AFEED99FDEC98FC9003851232A7DB
:10148600900423E0FBA3E0FAA3E0F99000051230F4
:101496001DFFAEF0EE3395E0FDFC900385E0F8A36A
:1014A600E0F9A3E0FAA3E0FBC31231CC4003021734
:1014B600C8900423E0FBA3E0FAA3E0F9900005122C
:1014C600301DFFAEF002156C90026FE0FF3395E021
:1014D600FEEF7803C333CE33CED8F9FF900044E055
:1014E600FBA3E0FAA3E02FF9EA3EFA900007122EDA
:1014F600FE30E0030217C8900385E0F8A3E0F9A3E5
:10150600E0FAA3E0FB900033E0FEA3E0FFEE3395A4
:10151600E0FDFCEB2FFFEA3EFEE93DFDE83CFC90DA
:1015260003851232A7900423E0FBA3E0FAA3E0F9B7
:1015360090000312301DFFAEF090042FEEF0A3EFE3
:10154600F0EE3395E0FDFC900385E0F8A3E0F9A307
:10155600E0FAA3E0FBD31231CC50030217C8900483
:101566002FE0FEA3E0FFEE3395E0FDFC900385122D
:1015760032A70217C8900023E07002A3E0600302BE
:10158600178E7B017A03799C900270E090051AF021
:101596007D051257609003851232A7900423E0FB65
:1015A600A3E0FAA3E0F990000312301DFFAEF0EEBF
:1015B6003395E0FDFC900385E0F8A3E0F9A3E0FA9B
:1015C600A3E0FBD31231CC400302178E900423E034
:1015D600FBA3E0FAA3E0F990000512301DFFAEF080
:1015E600EE3395E0FDFC900385E0F8A3E0F9A3E077
:1015F600FAA3E0FBC31231CC500302178E7E007FA4
:1016060002E47066EF14604814602524FE705B9057
:101616000385E0FCA3E0FDA3E0FEA3E0FF90042326
:10162600E0FBA3E0FAA3E0F9123325123269803A0F
:10163600900385A3A3E0FEA3E0FF900423E0FBA3B1
:10164600E0FAA3E0F9123325EE8FF0123055801A36
:10165600900385A3A3A3E0FF900423E0FBA3E0FA95
:10166600A3E0F9123325EF122F2B90039EE0B4303E
:101676000B7420F0A3E0B430037420F07B017A03EE
:10168600799E7D02125BEC90041BE064026003020B
:10169600178290026FE0A2E713FDFF3395E0FEEF9D
:1016A6007802C333CE33CED8F9FF24B9F58274025B
:1016B6003EF583E0FAA3E0FB74D72FF58274023E71
:1016C600F583E0FEA3E06B7002EE6A600302177713
:1016D600EDFF3395E0FEEF7802C333CE33CED8F973
:1016E600FF24BBF58274023EF583E0FAA3E0FB74A7
:1016F600D92FF58274023EF583E0FEA3E06B7002FB
:10170600EE6A706D900372E0FF7401A8050880020E
:10171600C333D8FC4F900372F0EDFF3395E0FEEF34
:1017260025E0FFEE33FE74F52FF58274023EF58355
:10173600E4F0A3F090042EF090042EE0FFC3ED64D5
:1017460080F8EF6480985022EF3395E0FEEF25E0B5
:10175600FFEE33FE74F52FF58274023EF583E4F056
:10176600A3F090042EE004F080CE7F047E00125297
:101776004A9003A1E4F0A37403F0800C90041BE0EC
:10178600FF3395E0FE12524A90041BE0702B900046
:101796002BF0A3F090038B7404F0E4900399F0907F
:1017A600041B7478F090041D7401F0E490026FF04D
:1017B6009003A1F0A304F080099003A1E4F0A374C0
:1017C60003F0900010E07002A3E06017900023E0A1
:1017D6007002A3E0700D90038BE0FF7D011263247D
:1017E6000218B590026FE0FF123C7090051A74055E
:1017F600F0E4A3F07B01A304F0A37403F0A374A5A3
:10180600F0E4A3F0A37402F07A0379857D0412460E
:101816009390042DEFF03395E0FE74A52FF58274B6
:10182600033EF583E0FF90039EF0BF20037430F083
:1018360090042DE0FF3395E0FE74A62FF582740325
:101846003EF583E0FD90039FF0BD20037430F074F5
:10185600A72FF58274033EF583E09003A0F07B0189
:101866007A03799E7D02125BEC8044900421E0FEAF
:10187600A3E0FFC390034AE09FFF900349E09EFE6A
:10188600D3EF94E8EE9403401190041FE0FE3395E5
:10189600E09003A1F0A3CEF080157BFF7A28797A39
:1018A600E4FD125FAA80089003A1E4F0A304F0907F
:1018B60003A1E0FEA3E0FF90038EE06E7003A3E0B9
:0618C6006F7003021D4ECD
:1018CC009004B174FFF0A37428F0A37480F0A37497
:1018DC00FFF0A37428F0A37485F0A374FFF0A37435
:1018EC0028F0A3748AF09003A1E0FEA3E0FF90031C
:1018FC008EEEF0A3EFF0EE6003021D4EEF12337587
:10190C00192E011A63021A7A031BD2051C20061C1D
:10191C0050071C80081CB0091CDF101D0E110000A4
:10192C001D4E1261B07BFF7A28798F1263AC7F5306
:10193C007E007D007C001260997BFF7A2879AE12C4
:10194C0063AC7F537E007D007C001260997BFF7A34
:10195C002879C51263AC7BFF7A2879C51263AC7FFA
:10196C00537E007D007C0012609990052F74FFF06F
:10197C00A37428F0A374D0F09004B1E0F9A3E0FABA
:10198C00A3E0900532C9F0A3EAF0A3E9F07B017A59
:10199C0004793112405E7B017A0479311263AC7F99
:1019AC00537E007D007C001260997BFF7A2879E5DC
:1019BC001263AC7BFF7A2879F01263AC7F537E0004
:1019CC007D007C0012609990052F74FFF0A37428A1
:1019DC00F0A374D0F09004B4E0F9A3E0FAA3E09083
:1019EC000532C9F0A3EAF0A3E9F07B017A0479315E
:1019FC0012405E7B017A0479311263AC7BFF7A284A
:101A0C0079E51263AC7F537E007D007C00126099F7
:101A1C007BFF7A2879FB1263AC90052F74FFF0A33F
:101A2C007429F0A37406F09004B7E0F9A3E0FAA3CC
:101A3C00E0900532C9F0A3EAF0A3E9F07B017A0447
:101A4C00793112405E7B017A0479311263AC7BFFF1
:101A5C007A2879E5021C0F1261B07F537E007D005D
:101A6C007C001260997BFF7A29791B021C0FE4FF22
:101A7C00FE1261B390041BE0704EA3E0704A900517
:101A8C002F74FFF0A37429F0A37406F0A374FFF075
:101A9C00A37427F0A37420F07B017A0479311240EF
:101AAC005E7B017A0479311263AC7F537E007D003A
:101ABC007C0012609990052F74FFF0A37429F0A399
:101ACC00743AF09004B1804990041BE07057A3E085
:101ADC006401705190052F74FFF0A37429F0A37466
:101AEC0006F0A374FFF0A37427F0A37423F07B011A
:101AFC007A04793112405E7B017A0479311263AC3D
:101B0C0090052F74FFF0A37429F0A3743AF090049D
:101B1C00B4E0F9A3E0FAA3E0900532C9F0A3EAF02F
:101B2C00A3E9021D3B7BFF7A2979511263AC900427
:101B3C001CE0240AFF1259E190041CE0FF3395E0ED
:101B4C00FEEF7803C333CE33CED8F9FF900044E0D8
:101B5C00FBA3E0FAA3E02FF9EA3EFA90049CEBF029
:101B6C00A3EAF0A3E9F0123325122FF2FFAEF0EE48
:101B7C003395E0FDFC9003851232A7900385A3A357
:101B8C00E0FEA3E0FF900498EEF0A3EFF090052F99
:101B9C0074FFF0A37429F0A3745BF0A3EEF0A3EF31
:101BAC00F07B017A04799F12405E90052F74FFF050
:101BBC00A37429F0A3745EF0A37401F0A37404F071
:101BCC00A3749F021D3B7BFF7A2979511263AC7F72
:101BDC00537E007D007C0012609990052F74FFF0FD
:101BEC00A37429F0A37475F0A374FFF0A37429F007
:101BFC00A3748EF07B017A04793112405E7B017AFA
:101C0C000479311263AC7F537E007D007C0012603E
:101C1C0099021D4E7BFF7A2979511263AC7F537E5A
:101C2C00007D007C0012609990052F74FFF0A37466
:101C3C0029F0A37475F0A374FFF0A37429F0A374B6
:101C4C009B021D3B7BFF7A2979511263AC7F537E3B
:101C5C00007D007C0012609990052F74FFF0A37436
:101C6C0029F0A37475F0A374FFF0A37429F0A37486
:101C7C00A4021D3B7BFF7A2979511263AC7F537E02
:101C8C00007D007C0012609990052F74FFF0A37406
:101C9C0029F0A37475F0A374FFF0A37429F0A37456
:101CAC00AF021D3B7BFF7A2979511263AC7F537EC7
:101CBC00007D007C0012609990052F74FFF0A374D6
:101CCC0029F0A37475F0A374FFF0A37429F0A37426
:101CDC00BC805C7BFF7A2979511263AC7F537E0008
:101CEC007D007C0012609990052F74FFF0A374297D
:101CFC00F0A37475F0A374FFF0A37429F0A374CD52
:101D0C00802D7BFF7A2979511263AC7F537E007D45
:101D1C00007C0012609990052F74FFF0A37429F0D9
:101D2C00A37475F0A374FFF0A37429F0A374DAF014
:101D3C007B017A04793112405E7B017A047931128D
:021D4C0063AC86
:101D4E0090034BE07002A3E07003021E6290039AB0
:101D5E00E0FEA3E0FFC390034AE09FFF900349E03B
:0E1D6E009EFED3EF94F4EE94015003021F305A
:101D7C00900271E0FBA3E0FAA3E0F9EA494B60188A
:101D8C00E490026CF0A3F090038EF0A3F0F99002B3
:101D9C0071C9F0A3F0A3E9F07BFF7A2979E3126310
:101DAC00ACD390034CE0940F90034BE0940090055F
:101DBC002F74FF4016F0A37429F0A374EEF0A374F3
:101DCC00FFF0A3742AF0A374048014F0A37429F018
:101DDC00A374EEF0A374FFF0A3742AF0A37411F0B3
:101DEC007B017A04793112405E7B017A04793112DD
:101DFC0063AC900000E07002A3E090052F600C74BF
:101E0C00FFF0A3742AF0A3741E800A74FFF0A3746D
:101E1C002AF0A37436F090034BE0FFA3E090053258
:101E2C00CFF0A3EFF07B017A04793112405E7B0195
:101E3C007A0479311263AC7BFF7A2A794F1263AC46
:101E4C00900000E07002A3E070047F0180027F002C
:031E5C00900000F3
:101E5F00021F2B900271E0FBA3E0FAA3E0F9EA491D
:101E6F004B7003021F3090026CE07002A3E060031E
:101E7F00021F309003A1E07004A3E064016003022D
:101E8F001F3090039AE0FEA3E0FF900349E0FCA30C
:101E9F00E0FDC39FFFEC9EFED3EF94F4EE94015050
:041EAF0003021F30DB
:101EB30090039AECF0A3EDF07BFF7A2979E31263A8
:101EC300AC900002E07002A3E090052F600C74FF59
:101ED300F0A3742AF0A37459800A74FFF0A3742A40
:101EE300F0A37470F0900271E0F9A3E0FAA3E0901C
:101EF3000532C9F0A3EAF0A3E9F07B017A04793152
:101F030012405E7B017A0479311263AC7BFF7A2A3B
:101F1300794F1263AC900002E07002A3E070047F7B
:0D1F23000180027F00900002E4F0A3EFF0C7
:101F30009003A1E0FEA3E0FFEE600302243DEF2446
:101F4000FE700302234714700302238014700302FF
:101F500023A62403600302243D90026CE0FEA3E06C
:101F6000FFEE600302243DEF14700302211314708E
:101F70000302224614700302229624FB70030222FD
:101F8000BD2408600302243D9003A3E0FEA3E0FF0C
:101F9000C390034AE09FFF900349E09EFED3EF9475
:101FA000F4EE9401500302243DE0FFA3E09003A36C
:101FB000CFF0A3EFF0900040E0FBA3E0FAA3E0F93C
:101FC00090000112334590049CEBF0A3EAF0A3E9E2
:101FD000F0123325122FF2FF900496E5F0F0A3EFF4
:101FE000F090052F74FFF0A37429F0A3745BF090B8
:101FF0000496E0FFA3E0900532CFF0A3EFF07B0161
:102000007A0479A512405E900040E0FBA3E0FAA3B9
:10201000E0F9900001123345E92408F9E43AFA9016
:10202000049CEBF0A3EAF0A3E9F0123325122FF29F
:10203000FF900498E5F0F0A3EFF090052F74FFF007
:10204000A37429F0A3745BF0900498E0FFA3E090E0
:102050000532CFF0A3EFF07B017A0479AB12405E3A
:102060007BFF7A2879C51263AC90052F74FFF0A32B
:10207000742AF0A37486F0A37401F0A37404F0A38F
:1020800074A5F07B017A04793112405E7B017A04F9
:1020900079311263AC7BFF7A2879F01263AC90053A
:1020A0002F74FFF0A3742AF0A3749DF0A37401F0C1
:1020B000A37404F0A374ABF07B017A04793112406D
:1020C0005E7B017A0479311263AC7BFF7A2879FB5D
:1020D0001263AC90052F74FFF0A3742AF0A374B4BC
:1020E000F0900358E0FCA3E0FDA3E0FEA3E0FF9026
:1020F00005321232A77B017A04793112405E7B01EE
:102100007A0479311263AC7BFF7A2879E51263ACEB
:1021100002243DE4FFFE1261B37BFF7A2A79CB12E1
:1021200063AC7F107E277D007C001260997BFF7A74
:102130002879C51263AC90052F74FFF0A3742AF0C0
:10214000A374D6F0A374FFF0A3742AF0A374D9F09B
:102150007B017A0479AB12405E90052F74FFF0A3E7
:10216000742AF0A37486F0A37401F0A37404F0A39E
:1021700074ABF07B017A04793112405E7B017A0402
:1021800079311263AC7BFF7A2979E31263AC900555
:102190002F74FFF0A37429F0A3745BF0900352E056
:1021A000FFA3E0900532CFF0A3EFF07B017A047932
:1021B000AB12405E90052F74FFF0A3742AF0A37455
:1021C0009DF0A37401F0A37404F0A374ABF07B0141
:1021D0007A04793112405E7B017A0479311263AC62
:1021E0007BFF7A2879F01263AC90052F74FFF0A37F
:1021F000742AF0A374B4F0900358E0FCA3E0FDA3AC
:10220000E0FEA3E0FF9005321232A77B017A047949
:102210003112405E7B017A0479311263AC7BFF7A24
:102220002879E51263AC900349E0FFA3E09003A393
:10223000CFF0A3EFF090026DE004F0705690026CC6
:10224000E004F002243D9003A3E0FEA3E0FFC3906E
:10225000034AE09FFF900349E09EFED3EF94D0EE47
:102260009407500302243DE4FFFE1261B37BFF7A22
:102270002A79E11263AC900349E0FFA3E09003A345
:10228000CFF0A3EFF090026DE004F0700690026CC6
:10229000E004F002243D9003A3E0FEA3E0FFC3901E
:1022A000034AE09FFF900349E09EFED3EF9488EE3F
:1022B0009413500302243DE49003A3807C90039A7E
:1022C000E0FEA3E0FF900349E0FCA3E0FDC39FFF15
:0C22D000EC9EFED3EF94F4EE9401403F2E
:1022DC0090039AECF0A3EDF0E4FFFE1261B39000D2
:1022EC0004E07002A3E07BFF60067A2A79EC80049C
:1022FC007A2A79F71263AC900004E07002A3E070C4
:0F230C00047F0180027F00900004E4F0A3EFF053
:10231B00900016E0FEA3E08EF012339B2333FFF701
:10232B00233EFFFE0000243D900271E4F0A3F0A3D6
:10233B00F08001E490026CF0A3F08056E490042E40
:10234B00F090042EE0FFC364809485400302243D8B
:10235B00EF3395E0FE749C2FF58274033EF583E01A
:10236B00FD749F2FF58274043EF583EDF090042EDF
:10237B00E004F080CC900016E0FEA3E0FF64FB705D
:10238B0002EEF4600CEF64FD7002EEF460030224C5
:10239B003DE490038EF0A3F002243D90041BE0FF7C
:1023AB00702CA3E07028900044E0FBA3E0FAA3E0BC
:1023BB00F990049CEBF0A3EAF0A3E9F01233251299
:1023CB002FF2FD900496E5F0F0A3EDF08035EF7061
:1023DB003290041CE0B4012B900044E0FBA3E0FA24
:1023EB00A3E02408F9E43AFA90049CEBF0A3EAF09A
:1023FB00A3E9F0123325122FF2FF900498E5F0F0C9
:10240B00A3EFF0900385A3A3E0FEA3E0FF90049855
:10241B00EEF0A3EFF090052F74FFF0A37429F0A357
:10242B00745BF0A3EEF0A3EFF07B017A04799F12BB
:10243B00405E9003A1E0FEA3E0FF64024E6009EF53
:08244B0064044E60030225BC8D
:1024530078B17C047D017BFF7A2D798B7E007F64CC
:10246300122EBF90039AE0FEA3E0FF900349E0FC25
:10247300A3E0FDC39FFFEC9EFED3EF942CEE9401EB
:0524830050030225BC1E
:1024880090039AECF0A3EDF0900006E07002A3E050
:1024980060557B017A04799F12653AD3900009E070
:1024A8009FEE6480F8900008E064809890052F748F
:1024B800FF500AF0A37429F0A3745E8008F0A37497
:1024C8002BF0A37402F0A37401F0A37404F0A374B6
:1024D8009FF07B017A0479B112405E7B017A04791E
:1024E800B11263AC0225A49003A1E07004A3E064D8
:1024F80002700590038B8029E490042EF090042E3E
:10250800E0FF3395E0FE749F2FF58274043EF58357
:10251800E0600890042EE004F080E290042EE014BD
:10252800F0E0FF3395E0FE749F2FF58274043EF5CA
:1025380083E0900515F0749F2FF58274043EF583AF
:10254800745FF090052F74FFF0A3742BF0A374024E
:10255800F0A37401F0A37404F0A3749FF07B017AD4
:102568000479B112405E7B017A0479B11263AC90B0
:1025780003A1E07004A3E064029005157007E0FF72
:1025880090038B8005E0FF90042EE0FD3395E0FC7E
:10259800749F2DF58274043CF583EFF0900006E0FB
:1025A8007002A3E070047F0180027F00900006E4BF
:0425B800F0A3EFF0AD
:1025BC0090001CE0701304F0900349E0FFA3E0903E
:1025CC00000CCFF0A3EFF0803B90000CE0FEA3E0FA
:1025DC00FFC390034AE09FFF900349E09EFED3EFB8
:1025EC009464EE9400401D900010E07002A3E07023
:1025FC00047F0180027F00900010E4F0A3EFF0E470
:10260C0090001CF0900037E024F6603124F66074E2
:10261C0024F670030226C8241D60030226EF9003E3
:10262C0049E0FFA3E0900038CFF0A3EFF090000A50
:10263C00E04402F0900037740AF00226EF9003B5E4
:10264C00E070067E017FF480047E007F32900038BB
:10265C00E0FCA3E0FDC390034AE09DFD900349E03C
:10266C009CFCD3ED9FEC9E407AE0FFA3E0900038F9
:10267C00CFF0A3EFF090000AE054FDF09000377417
:10268C0014F0805F9003B5E07E077FD0900038E0B7
:10269C00FCA3E0FDC390034AE09DFD900349E09C40
:1026AC00FCD3ED9FEC9E403BE0FFA3E0900038CFC5
:1026BC00F0A3EFF0900037741EF0802790034BE0EE
:1026CC007002A3E0701790034DE05480FF3395E047
:1026DC004F700AA3E07006900037F0800690003728
:0E26EC007401F090000AE06003D2A522C2A59E
:0126FA0022BD
:10466200E0FEA3E0FFE4FCFD9000121232A79005E9
:104672001A7405F0E4A3F07B01A304F0A37403F021
:10468200A374A5F0E4A3F0A37402F07A0079127D7A
:014692000423
:05469300900519EDF097
:104698006008E0D36480948440037F002290051969
:1046A800E014F0E4900528F09005211232B30000E0
:1046B8000000900519E0B40319900528E06008127D
:1046C80032191231BE80031232199005211232A715
:1046D800804D900519E0FFB40129900528E0601489
:1046E800122FF2FDC3E49DFCE495F0900521F0A3A0
:1046F800CCF0802B122FF2FD900521E5F0F0A3ED10
:10470800F0801CEF7016900528E06007122EE5F483
:10471800048003122EE5900521F080037F0022908B
:104728000520E024FE601B14602024FB601424F89C
:10473800601024D0600C243F70169005277402F096
:10474800800E900527740AF080069005277410F0F3
:1047580090051AE0FFA3E02FFFC374039F9005257F
:10476800F0A3EFF0C3648094835013E0FFC3740395
:104778009FFF90051AE02FF09005267403F090052E
:104788001AE0FF900526E0B5070690051FE0606374
:10479800900527E0FB3395E0FAF9F8900521E0FC55
:1047A800A3E0FDA3E0FEA3E0FF126368EB2430FF63
:1047B80090051CE0FBA3E0FAA3E0F9900526E0FDD4
:1047C8003395E08D82F583EF122F3D900521E0FCB3
:1047D800A3E0FDA3E0FEA3E0FFC007900527E0FBF0
:1047E8003395E0FAF9F8D007126368900521123280
:1047F800A7803B90051BE06019A3E0FBA3E0FAA3A8
:10480800E0F9900526E0FF3395E08F82F583742E5A
:10481800801990051CE0FBA3E0FAA3E0F9900526B7
:10482800E0FF3395E08F82F5837420122F3D9005C9
:1048380026E0FF14F0D3EF6480948040030247869B
:1048480090051FE0602D900528E06024900525E084
:10485800FFC364809483501890051CE0FBA3E0FA22
:10486800A3E0F9EF3395E08F82F583742D122F3D85
:104878007F0022E4900526F0900525F090051CE0C5
:10488800FBA3E0FAA3E0F9900526E0FFFD3395E0ED
:104898008D82F583122EFE64307041EF3395E0FE71
:1048A800EF2401FFE43EFE90051AE0FD3395E0FC9D
:1048B800C3EF9DEC6480F8EE648098501F90052645
:1048C800E0FF3395E08F82F5837420122F3D900529
:1048D80025E004F0900526E004F080A0900528E08B
:1048E800601E90051CE0FBA3E0FAA3E0F990052503
:1048F800E014FFF03395E08F82F583742D122F3D7D
:1049080090051AE0FFA3E02FFF900525E0FEC3EF16
:104918009EA3F0C364809483500EE0FFC374039F8A
:0D492800FFC3EE9F900525F0900525E0FFF0
:01493500225F
:0D576000900516EBF0A3EAF0A3E9F0AB050D
:10576D0090051AE024FE600F146014240270169048
:10577D0005247402F0800E900524740AF0800690C2
:10578D0005247410F090051B1232B3000000009038
:10579D00051F1232B300000001900523EBF09005B8
:1057AD0023E0D3648094805003025876E014F09087
:1057BD000516E0FBA3E0FAA3E0F9900523E0FF3323
:1057CD0095E08F82F583122EFEFFC3648094B04066
:1057DD00CDD3EF648094BF50C590051BE0F8A3E0D6
:1057ED00F9A3E0FAA3E0FBC000C001C002C0039022
:1057FD000516E0FBA3E0FAA3E0F9900523E0FF33E3
:10580D0095E08F82F583122EFEFF3395E0FEEF2497
:10581D00D0FFEE34FFFEE4FCFD90051FE0F8A3E0A1
:10582D00F9A3E0FAA3E0FB1230A1D003D002D0011E
:10583D00D000EB2FFFEA3EFEE93DFDE83CFC900574
:10584D001B1232A790051FE0F8A3E0F9A3E0FAA31D
:10585D00E0FB900524E0FF3395E0FEFDFC1230A146
:10586D0090051F1232A70257AB900516E0FBA3E07F
:10587D00FAA3E0F9122EE5642D6013900001122EAB
:10588D00FE642D6009900002122EFEB42D119005BC
:10589D001BE0FCA3E0FDA3E0FEA3E0FF0231BE9000
:0D58AD00051BE0FCA3E0FDA3E0FEA3E0FF6F
:0158BA0022CB
:1059E100EF24F6B414004003025AD49059FA75F02A
:1059F10003A4C58325F0C58373025A36025A3902BE
:105A01005A42025A4B025A54025A5C025A64025ACE
:105A11006C025A74025A7C025A84025A8C025A94B9
:105A2100025A9C025AA4025AAC025AB4025ABC024B
:105A31005AC4025ACC025AD47BFF7A2B7926025AD5
:105A4100DA7BFF7A2B7931025ADA7BFF7A2B793CA8
:105A5100025ADA7BFF7A2B7947807E7BFF7A2B799A
:105A61005280767BFF7A2B795D806E7BFF7A2B7972
:105A71006880667BFF7A2B7973805E7BFF7A2B7956
:105A81007E80567BFF7A2B7989804E7BFF7A2B793A
:105A91009480467BFF7A2B799F803E7BFF7A2B791E
:105AA100AA80367BFF7A2B79B5802E7BFF7A2B7902
:105AB100C080267BFF7A2B79CB801E7BFF7A2B79E6
:105AC100D680167BFF7A2B79E1800E7BFF7A2B79CA
:105AD100EC80067BFF7A2B791B1263AC7F107E274B
:075AE1007D007C00026099CA
:0361B000E4FFFE0B
:0861B300900516EEF0A3EFF0D9
:1061BB007FE87E037D007C0012609990052F74FFB1
:1061CB00F0A3742BF0A374F7F0900516E0FFA3E097
:1061DB00900532CFF0A3EFF07B017A0579181240CE
:1061EB005E7B017A0579181263AC7FE87E037D0034
:0561FB007C0002609928
:0C658E00900655EBF0A3EAF0A3E9F02220
:0D658100E4F5C7F5C5F5C675C380F5C42265
:10002600C2AF75C78375C5018FC4EEF5C375C65AD1
:0C00360075C6A50000AFC2126581D2AFF4
:01004200229B
:106157009005B8E0FB7A0064AA704DC2AFEB64AA61
:10616700700375C783EB64AA4A700375C502EB64B5
:10617700AA4A70028FC49005B8E064AA7003EEF5CE
:10618700C39005B8E0FF7E0064AA70028DC2EF6479
:10619700AA4E700375C65A9005B8E064AA700375D5
:0961A700C6A500126581D2AF22E9
:106200009005B8E0FD7C0064AA7043C2AFED64AABB
:10621000700375C783ED64AA4C700375C503ED6404
:10622000AA4C70028FC49005B8E064AA7003EEF522
:10623000C39005B8E0FF7E0064AA700375C65AEFEC
:0F62400064AA4E700375C6A500126581D2AF2205
:1058BB009004607444F0A3E4F0FBFA90037BE0FCEB
:1058CB00A3E0FDA3E0FEA3E024FFFFEE34FFFEED1B
:1058DB0034FFFDEC34FFFC9004621232A79004629B
:1058EB00E0FCA3E0FDA3E0FEA3E0FF78071231F399
:1058FB007C007D05122F71AA04AB05900462A3A353
:10590B00A3E0547FFFE4FDFCEF701C9005B874AA74
:10591B00F0AF03EF25E0FEE42400FFEE3444FE126B
:10592B006200E49005B8F0900462E0FCA3E0FDA3F4
:10593B00E0FEA3E0FF7802123206A31232A7900416
:10594B0066E0FCA3E0FDA3E0FEA3E0FFE4FB7A0A24
:10595B00F9F812312CAC00AD01AE02AF0390046626
:10596B001232A7900466A3A3E0FEA3E0FF900461AC
:10597B00E02FF0900460E03EF090045C7401F0A323
:10598B007403F0A3747BF09005B874AAF0E4900450
:10599B005FF0900460E0FEA3E0FF90045CE0FBA3EB
:1059AB00E0FAA3E0F9122EE5FD12615790045DE4D5
:1059BB0075F001122FC6900461E004F0700690049C
:1059CB0060E004F090045FE004F0E0C3940440C294
:0559DB00E49005B8F0A6
:0159E00022A4
:104936009004307444F0A3E4F090043E1232B300C5
:104946000000009004421232B300002710E49004E5
:104956005AF0A3F090045AE0FEA3E0FFC39480EE61
:1049660094024003024B47EF7802C333CE33CED8CE
:10497600F92400FFEE3444900430F0A3EFF09004E5
:104986002C7401F0A37404F0A37432F0900430E0A8
:10499600FEA3E0FF12002690042CE0FBA3E0FAA39E
:1049A600E0F9EF122F2B90042DE475F001122FC6BB
:1049B600900431E02401FF900430E03400FE120040
:1049C6002690042CE0FBA3E0FAA3E0F9EF122F2BCC
:1049D60090042DE475F001122FC6900431E02402F4
:1049E600FF900430E03400FE12002690042CE0FB19
:1049F600A3E0FAA3E0F9EF122F2B90042DE475F053
:104A060001122FC6900431E02403FF900430E034F5
:104A160000FE12002690042CE0FBA3E0FAA3E0F9C6
:104A2600EF122F2B90044AE0FCA3E0FDA3E0FEA3C7
:104A3600E0FF9004461232A7900432E0FCA3E0FDAA
:104A4600A3E0FEA3E0FF90044A1232A790045AE0C6
:104A5600B40219A3E0B47F14900432E0FCA3E0FD95
:104A6600A3E0FEA3E0FF90044E1232A774FFFFFE00
:104A7600FD7C7F900432E0F8A3E0F9A3E0FAA3E01E
:104A8600FBD31231E24003024B2490043EE0FCA328
:104A9600E0FDA3E0FEA3E0FF900432E0F8A3A3A3A9
:104AA600E01231E24078900446E0FCA3E0FDA3E08A
:104AB600FEA3E0FF9004521232A790044AE0FCA342
:104AC600E0FDA3E0FEA3E0FF9004561232A7900497
:104AD60032E0FCA3E0FDA3E0FEA3E0FF90043E125B
:104AE60032A790045AE0FEA3E0FFE4FCFD900442E6
:104AF6001232A7E4FFFEFDFC900442E0F8A3E0F9C1
:104B0600A3E0FAA3E0FBC31231E2701290044EE078
:104B1600FCA3E0FDA3E0FEA3E0FFA31232A79004EE
:104B260032E0FCA3E0FDA3E0FEA3E0FFA31232A760
:104B360090045BE004F0700690045AE004F0024929
:104B46005AE4900371F07F107E27FDFC900442E04A
:104B5600F8A3E0F9A3E0FAA3E0FBC31231E2605048
:104B6600900452E0F8A3E0F9A3E0FAA3E0FBA3E087
:104B7600FCA3E0FDA3E0FEA3E0C39BFFEE9AFEEDDF
:104B860099FDEC98FCE47B01FAF9F8C31231E27066
:104B96001490043EE0FCA3E0FDA3E0FEA3E0FF903A
:104BA600037B0232A790037B1232B300000000227F
:0D4BB60090037B1232B3000000001258BBC8
:014BC30022CF
:105AE80090042F7426F0A3E4F07B0190042C04F0BA
:105AF800A37403F0A3747FF07F007E261200269023
:105B0800042CE0FBA3E0FAA3E0F9EF122F2B90049A
:105B18002DE475F001122FC6900430E02401FF90A7
:105B2800042FE03400FE12002690042CE0FBA3E0D2
:105B3800FAA3E0F9EF122F2B90042DE475F001126F
:105B48002FC6900430E02402FF90042FE03400FEBA
:105B580012002690042CE0FBA3E0FAA3E0F9EF1270
:105B68002F2B90042DE475F001122FC6900430E01D
:105B78002403FF90042FE03400FE12002690042C2A
:105B8800E0FBA3E0FAA3E0F9EF122F2B90037FE0EC
:105B9800F8A3E0F9A3E0FAA3E0FB90037BE0FCA301
:105BA800E0FDA3E0FEA3E0C39BFFEE9AFEED99FDA6
:105BB800EC98FC7B9F7A8679017800C31231E25019
:105BC8001590037BE0FCA3E0FDA3E0FEA3E0FFA3A8
:065BD8001232A7125D8DE0
:015BDE0022A4
:105D8D0090051A7426F0A3E4F0900524F0A3F0908A
:105D9D0005B874AAF07F007E26126200E49005B863
:105DAD00F090037BE0FCA3E0FDA3E0FEA3E0FFA3E6
:105DBD001232A79005167401F0A37403F0A3747F3B
:105DCD00F09005B874AAF0E4900519F090051AE06A
:105DDD00FEA3E0FF900516E0FBA3E0FAA3E0F912A5
:105DED002EE5FD126157900517E475F001122FC6CF
:105DFD0090051BE004F0700690051AE004F0900584
:0F5E0D0019E004F0E0C3940440C2E49005B8F03B
:015E1C002263
:1055CC004306380105D443064501063B4105D0018D
:0855DC004105D1004105D20098
:1064DF00759850758E40E4F589758BE0758DFED2F9
:0864EF008ED2ACD2AFD2BC2268
:10000E00438E04759A5075D7E075D6FE438E104315
:05001E00AF01D2AF228A
:0300230002624F27
:10624F00C0E0C083C082C0D075D00830982BC298F0
:10625F00900360E0FF04F074D42FF582E43405F569
:10626F0083E599F090035F7401F0900349E0FFA379
:10627F00E090035CCFF0A3EFF0309904C299C2090C
:09628F00D0D0D082D083D0E032DF
:030043000264F75D
:1064F700C0E0E59A30E003539AFEE59A30E1055390
:076507009AFDC20AD0E03248
:10644B0090035FE0B4012490035CE0FEA3E0FFC384
:10645B0090034AE09FFF900349E09EFED3EF940A1E
:0C646B00EE9400400690035F7402F022E3
:09659A002009FDEFD209F5992258
:08601F00A3F07B017A0379B6BE
:0B60270090042FEBF0A3EAF0A3E9F0D7
:10603200E4A3F0FDFC90042FE0FBA3E0FAA3E0F957
:10604200900001122EFEFF3395E0FEEF2402FFE4E2
:106052003EFEC3ED9FEE6480F8EC64809850188D8C
:10606200828C83122EFEFF900432E02FF012659A8A
:106072000DBD00010C80BE900432E0FF12659A90C3
:0A60820005D0E004F0E0700204F025
:01608C0022F1
:1063AC0090052CEBF0A3EAF0A3E9F090052CE0FBB0
:1063BC00A3E0FAA3E0F9122EE5FF60201265A3908A
:1063CC00052CE0FBA3E0FAA3E0F9E4122F2B9005D7
:0D63DC002D75F001122FC6300AD180FB2272
:0965A300200AFDEFD20AF59B224B
:1038E10090042CE4F0A3F0A3F09005D4E0FF900441
:1038F1002B7401F0900360E0FE14FD90042BE0FCBA
:10390100C3ED6480F8EC648098501BECFD3395E0C6
:10391100FC74D42DF58274053CF583E02FFF9004EF
:103921002BE004F080CE74D32EF582E43405F583C8
:10393100E06F600B90034BE4F0A3741E023C6890AF
:1039410005D4E024F6B40B004003023C6F90395CCF
:1039510075F003A4C58325F0C5837302397D02394F
:10396100CF023BAA023C57023C57023C59023C574A
:10397100023C57023C57023C57023C6090042C74B5
:1039810001F0A37403F0A37409F0E490042BF09008
:10399100042BE0FFFD3395E0FC74D72DF58274050F
:1039A1003CF583E0FE90042CE0FBA3E0FAA3E0F9F0
:1039B100EF3395E08D82F583EE122F3D90042BE0DD
:1039C10004F0E0B440C99005C07401023C68E49081
:1039D100042BF090042BE0FFC364809487505AEFCE
:1039E1003395E0FEEF25E0FFEE33FE74F52FF5820F
:1039F10074023EF583E0FEA3E0FFD39400EE648001
:103A01009480402DEE3395E0FDFCE47B107A27F99C
:103A1100F81230A190037BE0F8A3E0F9A3E0FAA348
:103A2100E0FBD31231E2400990042BE004900371D2
:103A3100F090042BE004F0809A900301E07002A35F
:103A4100E07004900371F09005D7E0FE9005D6E098
:103A5100FDEDFF900352EEF0A3EFF09005D9E0FEEB
:103A61009005D8E0FDEDFF900350EEF0A3EFF0904C
:103A710005DBE0FE9005DAE0FDEDFF90034BEEF093
:103A8100A3EFF09005DDE0FFE4FCFDFE78081232C3
:103A910006A804A905AA06AB079005DCE0FFEB4FD9
:103AA100FFEAFEE9FDE8FCC004C005C006C00790BE
:103AB10005DFE0FFE4FCFDFE7818123206D003D0EA
:103AC10002D001D000EF4BFFEE4AFEED49FDEC487C
:103AD100FCC004C005C006C0079005DEE0FFE4FCA1
:103AE100FDFE7810123206D003D002D001D000EFD3
:103AF1004BFFEE4AFEED49FDEC48FC90042F1232DB
:103B0100A7900354E0FCA3E0FDA3E0FEA3E0FF9037
:103B1100042FE0F8A3E0F9A3E0FAA3E0FBC312311C
:103B2100E27003023C6990042FE0FCA3E0FDA3E0F6
:103B3100FEA3E0FF9003541232A790037BE0FCA3A5
:103B4100E0FDA3E0FEA3E02401FFE43EFEE43DFD31
:103B5100E43CFC90037B1232A790037FE0F8A3E0E2
:103B6100F9A3E0FAA3E0FB90037BE0FCA3E0FDA353
:103B7100E0FEA3E0C39BFFEE9AFEED99FDEC98FCFD
:103B81007B9F7A8679017800C31231E25015900348
:103B91007BE0FCA3E0FDA3E0FEA3E0FFA31232A7BC
:103BA100125D8D1258BB023C69E490042BF0900524
:103BB100D5E01313543FFF90042BE0FEC3EF648064
:103BC100F8EE6480984003023C50E0FD25E025E0DA
:103BD100FC24D6F582E43405F583E0FE74D72CF598
:103BE10082E43405F583E0FBEBFFC007C006EDFF7F
:103BF1003395E0FEEF7803C333CE33CED8F9FF908F
:103C01002C03E493FB740193FA7402932FF9EA3EB7
:103C1100FA900005D0E0D0F012307490042BE0252A
:103C2100E025E0FD24D8F582E43405F583E0FE7457
:103C3100D92DF582E43405F583E0FDEDFF90000315
:103C4100EE8FF012307490042BE004F0023BAF9041
:103C510005BC7401801180109005C1740180089029
:0E3C6100034BE4F0A37428F09005B9747FF0D3
:013C6F002232
:1034B90090042BE4F0A3F0A3F09005BAE0FEA3E09A
:1034C900FFC390034AE09FFF900349E09EFED3EFBC
:1034D90094E8EE9403401F900584E0700A9005B9C2
:1034E900E0B47F037401F0900349E0FFA3E0900585
:1034F900BACFF0A3EFF0900352E07002A3E070039B
:103509000235F59005C0E060030235F59005B9E094
:10351900647F60030235F59002B7E064557004A337
:10352900E064AA70030235E59002757401F0A37492
:1035390036F0A37401F0A3742CF090027BE4F0A39D
:103549007402F0A3E4F0A3740FF0A3E4F0A3740FE2
:10355900F0E4A3F0A3F0A3F0A3F0A304F0A3744054
:10356900F0A3E4F0A37459F0A37401F0A37490F0EC
:10357900A3E4F0A37414F0A3E4F0A37454F0A3E457
:10358900F0A37402F0A3E4F0A37478F0A3E4F0A329
:10359900740AF0A3E4F0A304F0A3E4F0A37449F0DF
:1035A900A3E4F0A37450F0A3E4F0A304F0A3E4F0BF
:1035B900A304F0A3E4F0A304F0A3E4F0A304F0A3AC
:1035C900E4F0A304F09002B77455F0A374AAF0E4F0
:1035D900FFFE12524A7F017E0012524A90058474FE
:1035E90001F09005C0F09005B9747FF09005C0E036
:1035F900B401109005BCE0700A9005B9E0B47F03EE
:103609007402F0900584E0600A9005B9E0B47F0384
:103619007403F0900588E0600A9005B9E0B47F036F
:103629007407F0900565E0600A9005B9E0B47F037E
:103639007409F09005BFE0600A9005B9E0B47F0312
:103649007404F0900587E0600A9005B9E0B47F033F
:103659007408F09005B7E0600A9005B9E0B47F03FB
:103669007405F09005BEE0600A9005B9E0B47F03E7
:103679007406F09005B9E0B40A0040030238E090FE
:10368900368FF82828730236AD0236D50236FB028A
:1036990037220237A40238640238920237D6023838
:1036A900040238367E007F647D007B017A0379B697
:1036B9001233C8E49003B6F0A304F0E4A3F0A30422
:1036C900F0FB1260239005B97432F0227E007F640A
:1036D9007D007B017A0379B61233C89003B6740171
:1036E900F0A3F0E4A3F0740212601F9005B97433DB
:1036F900F0227E007F647D007B017A0379B6123364
:10370900C89003B67402F0A314F0E4A3F074041291
:10371900601F9005B97434F0227E007F647D007BC0
:10372900017A0379B61233C89003B67403F0A3740F
:1037390040F090042B7401F0A37403F0A37409F012
:103749009003B6E0244090042EF0E4FFFE90042B91
:10375900E0FBA3E0FAA3E0F98F828E83122EFEFD2F
:1037690074B82FF58274033EF583EDF08F828E8352
:10377900122EFEFD90042EE02DF00FBF00010EEF7A
:1037890064404E70C890042EE09003F812602090B7
:1037990005B97435F0E4900584F0227E007F647DDC
:1037A900007B017A0379B61233C89003B67404F02A
:1037B900A37401F0900390E09003B8F0240512601F
:1037C9001F9005B97436F0E49005BFF0227E007FA2
:1037D900647D007B017A0379B61233C89003B6740D
:1037E90007F0A37401F0E4A3F0A374081260209019
:1037F90005B97439F0E4900588F0227E007F647D74
:10380900007B017A0379B61233C89003B67408F0C5
:10381900A37401F090026EE09003B8F024091260DD
:103829001F9005B9743AF0E4900587F0227E007F75
