:03000000025E0598
:0C5E0500787FE4F6D8FD758121025E4C28
:105416004105B80042058500004105B97F4205BA3D
:1054260000004205B5000042058900004105C000A4
:105436004105BC00410584004105BF0041058800C7
:1054460041058700410565004105B7004105C101D9
:105456004105BE004105BD0042056600004E0557E8
:1054660010000378000000000000000000004E0558
:10547600C220000378000000000000000000004E7B
:1054860005A70010037800000000000000000000DF
:105496004E0599002003780000000000000000007F
:1054A600004E058B0040037800000000000000005D
:1054B60000004E0568008003780000000000000030
:1054C6000000004E05760100037800000000000091
:0454D60000000000D2
:10653700438E80E4F589758A67758CFCD28CD2A965
:03654700D2AF22AE
:1064AC00E4F5957596207580FF7590FF75A0FF75C6
:0B64BC00B0FF1265371264C702000E2B
:1064F6007E017F107D007B017A0279751233B090A0
:06650600026E7401F02298
:104E0900900554EBF0A3EAF0A3E9F0900554E0FB18
:104E1900A3E0FAA3E0F9900002123005FFAEF0E535
:104E2900F0600302504AEF24F6605224F670030240
:104E39004EFC24F67003024F86241E600302504A7A
:104E490090000CE4F5F012305C122FDAFF90026743
:104E5900E055F0FEA3E05F4E600302504A9005540E
:104E6900E0FBA3E0FAA3E0F9900002E475F00A126E
:104E7900305C9000041232CC0000000022900554EE
:104E8900E0FBA3E0FAA3E0F9122FDAFF900267E052
:104E990055F0FEA3E05F4E703C900004123221EF02
:104EA9002401FFE43EFEE43DFDE43CFC90000412D5
:104EB900326B900004123221E47B14FAF9F8C31220
:104EC90031CA400302504A900554E0FBA3E0FAA31B
:104ED900E0F9025040900554E0FBA3E0FAA3E0F9A1
:104EE9009000041232CC00000000900002E4F5F0BA
:104EF900025047900554E0FBA3E0FAA3E0F99000C3
:104F090004123221EF2401FFE43EFEE43DFDE43CBE
:104F1900FC90000412326B122FDAFF900267E05501
:104F2900F0FEA3E05F4E601F900554E0FBA3E0FA9A
:104F3900A3E0F9900002E475F01E12305C900008BD
:104F49001232CC00000000900554E0FBA3E0FAA364
:104F5900E0F9900004123221E47B907A01F9F8C358
:104F69001231CA400302504A900554E0FBA3E0FA0B
:104F7900A3E0F990000CE475F00102504790055444
:104F8900E0FBA3E0FAA3E0F9900004123221EF2438
:104F990001FFE43EFEE43DFDE43CFC9000041232D6
:104FA9006B122FDAFF900267E055F0FEA3E05F4E27
:104FB9006070900554E0FBA3E0FAA3E0F9900008C3
:104FC900123221EF2401FFE43EFEE43DFDE43CFC06
:104FD90090000812326B900008123221E47B14FA17
:104FE900F9F8C31231CA5059900554E0FBA3E0FA0D
:104FF900A3E0F990000C123005640145F090000C13
:10500900700575F0038004E475F00212305C9000BD
:10501900041232CC00000000900002740375F0788D
:10502900801C900554E0FBA3E0FAA3E0F990000886
:105039001232CC00000000900002E475F014123026
:025049005C22E7
:1063D1007B017A0579A7124E097B017A0579991219
:1063E1004E097B017A057968124E097B017A05799C
:1063F10076124E097B017A057957124E097B017A93
:066401000579C2024E09FC
:10648600E49005A9F0A3F090059BF0A3F090056AAF
:10649600F0A3F0900578F0A3F0900559F0A3F090E2
:0664A60005C4F0A3F02282
:104BAC00900563E0FEA3E0FF4E605A90038974EF1A
:104BBC00F0A374FFF0EF64014E701C90026B04F0D4
:104BCC00900566E07002A3E0703B900566F0A304CC
:104BDC00F09005BEF0802E900563E07004A3E064B5
:104BEC000290026B7004740280027403F0E490056E
:104BFC0063F0A3F0900559F0A3F0900566F0A3F0D4
:104C0C009005BE04F09005CEE0FEA3E0FF4E605A86
:104C1C0090038974DFF0A374FFF0EF64014E701CF5
:104C2C0090026B04F0900566E07002A3E0703B907C
:104C3C000566F0A304F09005BEF0802E9005CEE042
:104C4C007004A3E0640290026B700474028002741E
:104C5C0003F0E49005CEF0A3F09005C4F0A3F0901F
:104C6C000566F0A3F09005BE04F09005B3E0FEA33A
:104C7C00E0FF4E605A90038974FFF0A374EFF0EFDD
:104C8C0064014E701C90026B04F0900566E070029B
:104C9C00A3E0703B900566F0A304F09005BEF08095
:104CAC002E9005B3E07004A3E0640290026B7004D4
:104CBC00740280027403F0E49005B3F0A3F0900545
:104CCC00A9F0A3F0900566F0A3F09005BE04F09057
:104CDC0005A5E0FEA3E0FF4E605A90038974FFF037
:104CEC00A374DFF0EF64014E701C90026B04F09023
:104CFC000566E07002A3E0703B900566F0A304F03B
:104D0C009005BEF0802E9005A5E07004A3E064022F
:104D1C0090026B7004740280027403F0E49005A599
:104D2C00F0A3F090059BF0A3F0900566F0A3F09033
:104D3C0005BE04F0900574E0FEA3E0FF4E605A90AF
:104D4C00038974FFF0A3747FF0EF64014E701C9024
:104D5C00026B04F0900566E07002A3E0703B9005D6
:104D6C0066F0A304F09005BEF0802E900574E07000
:104D7C0004A3E0640290026B70047402800274035A
:104D8C00F0E4900574F0A3F090056AF0A3F09005A0
:104D9C0066F0A3F09005BE04F0900582E0FEA3E05F
:104DAC00FF4E605890038974FEF0A304F0EF640189
:104DBC004E701B90026B04F0900566E07002A3E04D
:104DCC00703A900566F0A304F09005BEF0229005B1
:104DDC0082E07004A3E0640290026B7004740280A1
:104DEC00027403F0E4900582F0A3F0900578F0A330
:0D4DFC00F0900566F0A3F09005BE04F022D3
:03000B0002640785
:10640700C0E0C0F0C083C082C0D075D00890034AF6
:10641700E004F07006900349E004F012643312635D
:0C642700D1D0D0D082D083D0F0D0E032B1
:105E9100E49005B8F01264AC1264F612504B900312
:105EA10049E0FFA3E09005BACFF0A3EFF09005BD64
:105EB100E0703C9005BAE0FEA3E0FFC390034AE026
:105EC1009FFF900349E09EFED3EF94F4EE940140CE
:105ED1001EE0FEA3E0FF9005BAEEF0A3EFF09005FF
:105EE100B5EEF0A3EFF01264869005BD7401F09059
:105EF10005BDE0B401B712004690035FE0B4020CA7
:105F01001238C990035F7403F0E4A3F01234A112B4
:045F11004BAC80997C
:0D54DA004A064800FF00FF00FF00FF00FF32
:0C607500C290C2907F007E007D007C0085
:0660810090052C12328F85
:1060870090053012329B0000000090052CE0FCA325
:10609700E0FDA3E0FEA3E0FFA3E0F8A3E0F9A3E09F
:1060A700FAA3E0FBC31231B4502800900530E0FC9E
:1060B700A3E0FDA3E0FEA3E0FFE4FAF9F8EF240173
:1060C700FFEA3EFEE93DFDE83CFC90053012328FC9
:0260D70080B88F
:0160D90022A4
:10654A00D290D290D291D291126079C291C2912204
:10650C00126075C291C291126079D290D2901260D1
:06651C0079D291D2912218
:0F655A00126075D290D290126079C290C29022D6
:0862C800900652EEF0A3EFF086
:1062D000E4A3F0126079126075900653E030E00696
:1062E000D291D2918004C291C291126079900652EB
:1062F000E0C313F0A3E013F0D290D2901260799033
:0B6300000654E004F0E0C3940840C81D
:01630B00226F
:105F150012659412654A7F407E001262C812000322
:105F250012655A12659412650C12654A7FC07E008F
:105F35001262C812000312655A126594E49006585D
:105F4500F0900658E0FFC394055025EF25E024485E
:105F5500F582E43406F583E0FEA3E0FF1262C81281
:105F6500000312655A126594900658E004F080D13A
:105F750012650C12654A7F8C7E001262C8120003FE
:095F850012655A12659402650CC4
:05000300C294D2952219
:05659400D294D2952213
:1026E3003030303030003130313031003130313042
:1026F3003200313031303300313031303400323058
:102703003130310000312D00322D00332D00342DB6
:1027130000352D00362D00372D00382D00392D00C2
:102723003130003131003132003133003134003186
:10273300350031360031370031380031390032305D
:10274300003231003232003233003234003235008D
:10275300323600323700323800323900333000204D
:10276300202041310020202041320020202041330D
:10277300002020204134002020204135002020204B
:1027830041360020202041370020202041380020FE
:102793002020413900202041313000363034303997
:1027A3000020462D2D300020462D2D310020462DB2
:1027B3002D320020462D2D330020462D2D340020B0
:1027C300462D2D3500502D2D00452D2D0051322D38
:1027D3002D2D00502D2D203100502D2D2032005055
:1027E3002D2D2030002020203131002020203132B7
:1027F30000202020313300202020313400202020ED
:1028030031350020202031360020202031370020B0
:102813002020313800202020313900202020323080
:102823000020202032310020202032320020204599
:10283300727200D6BDB3A400C0A6CAFD00D7DCCA1D
:10284300FD005738444628352C332C273131313697
:10285300363232323636333333333327293B0D0A9C
:102863000057384D5528302C302C38302C38302C2C
:10287300312C32293B0D0A00573855452831293B65
:102883000D0A004453363428312C322C2725732764
:102893002C3135293B0D0A0053585928302C302947
:1028A3000D0A00573855452833293B0D0A00573880
:1028B30055452834293B0D0A004453363428312C1E
:1028C300312C272573272C3135293B0D0A0044531E
:1028D300343828312C38362C27C7EBCAE4C8EBC36D
:1028E300DCC2EB3A272C3135293B0D0A0044533621
:1028F3003428312C3130302C272573272C313529BE
:102903003B0D0A00434C532830293B0D0A00256434
:1029130000445334382833302C3139302C27257375
:10292300272C31293B0D0A004453363428323030EA
:102933002C3130302C272573272C3135293B0D0AB8
:1029430000B4FAC2EBCAE4C8EBBBADC3E600B4ED16
:10295300CEF3CCE1CABE00D6B1BDD3B5F7B2CECA71
:10296300FD00B5C8B4FDB7B5D0A3BDE1B9FB00D137
:10297300D3CAB1CFD4CABED0DEB8C4B3F6B4ED0067
:10298300B2E2CAD4B2CECAFDC9E8D6C300D1A7CF3A
:10299300B0C4A3CABD00573855452832293B0D0A98
:1029A300004453323428332C32302C272573272C00
:1029B3003135293B0D0A00D6F7BFD8B0E5B4EDCECB
:1029C300F3A3BA00B2D9D7F7B0E5B4EDCEF3A3BA07
:1029D300004453343828352C38302C27452D2D25E9
:1029E30064272C31293B0D0A004453343828352CF5
:1029F30038302C27452D2D2564272C3135293B0DC7
:102A03000A005358592830293B0D0A0044533438DF
:102A13002832302C36302C272573272C3135293B8F
:102A23000D0A00445334382832302C36302C2725F5
:102A330073272C31293B0D0A00BDF8D6BD00CDCB41
:102A4300D6BD00CFC2C1CF00B4EACCF500CDA3D62A
:102A5300BD00C6F4B6AF00CDA3D6B900B7A2D6BDAC
:102A630000CAD5D6BD00B4F2BDBA004453363428EB
:102A73003133302C322C272573272C3135293B0D4C
:102A83000A0044533634283133302C312C27257334
:102A9300272C3135293B0D0A004453363428313372
:102AA300302C312C272564272C3135293B0D0A0086
:102AB300535047283537293B0D0A0025730031361B
:102AC3002D352D313200535047283630293B0D0A1E
:102AD30000535047283632293B0D0A0053504728EC
:102AE3003633293B0D0A00445334382833302C3114
:102AF30039302C2725732020272C31293B0D0A0040
:102B0300535047283331293B0D0A0053504728338C
:102B130032293B0D0A00535047283333293B0D0A12
:102B230000535047283334293B0D0A00535047289C
:102B33003335293B0D0A00535047283336293B0DC3
:102B43000A00535047283337293B0D0A0053504797
:102B5300283338293B0D0A00535047283339293B82
:102B63000D0A00535047283430293B0D0A005350B7
:102B730047283431293B0D0A005350472834322962
:102B83003B0D0A00535047283433293B0D0A0053A9
:102B93005047283434293B0D0A0053504728343515
:102BA300293B0D0A00535047283436293B0D0A00B0
:102BB300535047283437293B0D0A005350472834D4
:102BC30038293B0D0A00535047283439293B0D0A55
:102BD30000535047283530293B0D0A00434C5328F6
:102BE3002564293B0D0A0000010047FF26E310007E
:102BF3000200000103AF01010057FF26E912001E86
:102C030000000103B10201014FFF26EF14000E0083
:102C1300000103B2030101BFFF26F516000E0000F9
:102C23000103B30401022FFF26FB1C000700000170
:102C330003B405010147FF27011A00010000010346
:102C4300B5000000000000000000000000000000CC
:102C5300FF27074000000001035804050000018618
:102C63009F000000000000000000000000000000C2
:102C73000000000000000000000000000000000051
:102C83000000000000000000000000000000000041
:102C93000000000000000000000000FEB0EDF9B3EA
:102CA300DBDFF0FFFB00004080003F065B4F666DFB
:102CB3007D077F6F771F4E3D4F47FB771F4E3D7953
:102CC30071FB37060E07386A761D7367055B313E65
:102CD3001C5C313BED000000620800771F4E3D4F46
:102CE30047FB370638070E6A151D6773505B783E3E
:102CF3001C5C313BED000000000000000000000000
:102D030000000000000000000000000000000000C0
:102D130000000000000000000000000000000000B0
:102D230000000000000000000000000000000000A0
:102D33000000000000000000000000000000000090
:102D43000000000000000000000000000000000080
:102D53000000000000000000000000000000000070
:102D63000000000000000000000000000000000060
:102D73000000000000000000000000000000000050
:102D83000000000000000000000000000000000040
:102D93000000000000000000000000000000000030
:102DA3000000000000000000000000000000000020
:102DB3000000000000000000000000000000000010
:102DC3000000000000000000000000000000000000
:042DD30000000000FC
:1054E7004102740042026C00004103B50041039081
:1054F700004603AF021E0E0701004803910402FF96
:105507002C53FF2BEA420389000041026B00410242
:105517006E014100430042039A00004203A30000CA
:1055270043027100000041000A0041000B004200E5
:105537001000004200160000420018000042001A46
:10554700000041001C0042001D000042001F000037
:1055570042002100004200230000420025000042D3
:1055670000270000420029000042002B00004200F3
:105577002D00004200310000420033000141003796
:1055870000420038000041003A0042003B00004260
:10559700003D0000420000000042000200004200FF
:0D55A7000400004200060000420008000061
:045F8E007BFFE4FDB4
:105F9200900516EBF0A3EAF0A3E9F0A3EDF090056B
:105FA20016E0FBA3E475F001122FC4A9F0FA122E39
:105FB200CDFF3395E0FE747D2FF582742C3EF58380
:105FC200E493FD3395E0FC900519E0FF04F0EF3314
:105FD20095E0FEEF25E0FFEE33FE74482FF5827464
:105FE200063EF583ECF0A3EDF0900519E0C3648062
:105FF20094865010900516E0FBA3E0FAA3E0F91294
:056002002ECD709A2272
:103C5800E4900519F0EF12335D3CDD003CEE013CC9
:103C6800FF023D10033D21043D32053D43063D540E
:103C7800073D65083D76093D870A3D980B3DA90C2F
:103C88003DBA0D3DCB0E3DDC0F3DED103DFE113E26
:103C98000F123E20133E31143E42153E53163E6429
:103CA800173E75183E86193E971A3EA81B3EB91C4A
:103CB8003ECA1D3EDB503EEC513EFC523F0C533F8A
:103CC8001C543F2C553F3C563F4C573F5C583F6C6B
:103CD8005900003F7A90051674FFF0A37427F0A3EB
:103CE8007408F0023F7A90051674FFF0A37427F069
:103CF800A3740BF0023F7A90051674FFF0A37427A3
:103D0800F0A3740EF0023F7A90051674FFF0A374C6
:103D180027F0A37411F0023F7A90051674FFF0A300
:103D28007427F0A37414F0023F7A90051674FFF01C
:103D3800A37427F0A37417F0023F7A90051674FF56
:103D4800F0A37427F0A3741AF0023F7A9005167452
:103D5800FFF0A37427F0A3741DF0023F7A900516B4
:103D680074FFF0A37427F0A37420F0023F7A900543
:103D78001674FFF0A37427F0A37423F0023F7A901F
:103D8800051674FFF0A37427F0A37426F0023F7A97
:103D980090051674FFF0A37427F0A37429F0023F6E
:103DA8007A90051674FFF0A37427F0A3742CF00220
:103DB8003F7A90051674FFF0A37427F0A3742FF0D0
:103DC800023F7A90051674FFF0A37427F0A37432AB
:103DD800F0023F7A90051674FFF0A37427F0A374DD
:103DE80035F0023F7A90051674FFF0A37427F0A30C
:103DF8007438F0023F7A90051674FFF0A37427F028
:103E0800A3743BF0023F7A90051674FFF0A3742761
:103E1800F0A3743EF0023F7A90051674FFF0A37485
:103E280027F0A37441F0023F7A90051674FFF0A3BF
:103E38007427F0A37444F0023F7A90051674FFF0DB
:103E4800A37427F0A37447F0023F7A90051674FF15
:103E5800F0A37427F0A3744AF0023F7A9005167411
:103E6800FFF0A37427F0A3744DF0023F7A90051673
:103E780074FFF0A37427F0A37450F0023F7A900502
:103E88001674FFF0A37427F0A37453F0023F7A90DE
:103E9800051674FFF0A37427F0A37456F0023F7A56
:103EA80090051674FFF0A37427F0A37459F0023F2D
:103EB8007A90051674FFF0A37427F0A3745CF002DF
:103EC8003F7A90051674FFF0A37427F0A3745FF08F
:103ED800023F7A90051674FFF0A37427F0A374626A
:103EE800F0023F7A90051674FFF0A37427F0A374CC
:103EF80068F0807E90051674FFF0A37427F0A37411
:103F08006EF0806E90051674FFF0A37427F0A3740A
:103F180074F0805E90051674FFF0A37427F0A37404
:103F28007AF0804E90051674FFF0A37427F0A374FE
:103F380080F0803E90051674FFF0A37427F0A374F8
:103F480086F0802E90051674FFF0A37427F0A374F2
:103F58008CF0801E90051674FFF0A37427F0A374EC
:103F680092F0800E90051674FFF0A37427F0A374E6
:103F780098F0900516E0FBA3E475F001122FC4A990
:103F8800F0FA122ECDFF3395E0FE747D2FF5827482
:103F98002C3EF583E493FD3395E0FC900519E0FF92
:103FA80004F0EF3395E0FEEF25E0FFEE33FE7448B2
:103FB8002FF58274063EF583ECF0A3EDF090051919
:103FC800E0C3648094865010900516E0FBA3E0FAE5
:083FD800A3E0F9122ECD709A4E
:013FE00022BE
:04630C00AC07A9052C
:10631000AD04E9FF3395E0FEECFB3395E0FAEB2F9B
:10632000FFEA3EFEEDFB3395E0FAC3EB9FEE64809F
:10633000F8EA6480985018EB25E0FFEA33FE7448D1
:0F6340002FF58274063EF583E4F0A3F00D80C3C1
:01634F00222B
:0D5BC70090042DEFF07B017A0379A5E4FD39
:0E5BD400900516EBF0A3EAF0A3E9F0A3EDF0C4
:105BE200E4A3F0900516E0FBA3E0FAA3E0F990002D
:105BF20001122EE6B42E0790051AE0B4014D90056D
:105C020016E0FBA3E475F001122FC4A9F0FA122EDC
:105C1200CDFF3395E0FE747D2FF582742C3EF58323
:105C2200E493FD3395E0FC900519E0FF04F0EF33B7
:105C320095E0FEEF25E0FFEE33FE74482FF5827407
:105C4200063EF583ECF0A3EDF0805D900516E0FBD7
:105C5200A3E475F001122FC4A9F0FA122ECDFF337E
:105C620095E0FE747D2FF582742C3EF583E4934417
:105C720080FD3395E0FC900519E0FF04F0EF3395C9
:105C8200E0FEEF25E0FFEE33FE74482FF582740646
:105C92003EF583ECF0A3EDF090051A7401F0900547
:105CA20017E475F001122FAE900519E0C3648094D9
:065CB200865003025BE5D1
:015CB80022C9
:1055CD00E4FDEDFF3395E0FEEF25E0FFEE33FE74D5
:1055DD00752FF974023EFA7B01EDFF3395E0FEEF76
:1055ED007803C333CE33CED8F92447F58274003E09
:1055FD00F583EBF0A3EAF0A3E9F00DEDB402C3E4FB
:10560D00FDEDFF3395E0FEEF25E0FFEE33FE747BFD
:10561D002FF974023EFA7B01EDFF3395E0FEEF7832
:10562D0003C333CE33CED8F92457F58274003EF53B
:10563D0083EBF0A3EAF0A3E9F00DEDB41EC3E4FD96
:10564D00EDFF3395E0FEEF25E0FFEE33FE74B92F4D
:10565D00F974023EFA7B01EDFF3395E0FEEF78031E
:10566D00C333CE33CED8F9244FF58274013EF58382
:10567D00EBF0A3EAF0A3E9F00DEDB40EC3E4FDEDFC
:10568D00FF3395E0FEEF25E0FFEE33FE74D72FF9E3
:10569D0074023EFA7B01EDFF3395E0FEEF7803C314
:1056AD0033CE33CED8F924BFF58274013EF583EBAA
:1056BD00F0A3EAF0A3E9F00DEDB40EC3E4FDEDFFA8
:1056CD003395E0FEEF25E0FFEE33FE74F52FF97410
:1056DD00023EFA7B01EDFF3395E0FEEF7803C33315
:1056ED00CE33CED8F9242FF58274023EF583EBF03C
:1056FD00A3EAF0A3E9F00DEDB407C3E4FDEDFF332C
:10570D0095E0FEEF25E0FFEE33FE74052FF97403EF
:10571D003EFA7B01EDFF3395E0FEEF7803C333CE08
:10572D0033CED8F92447F58274013EF583EBF0A30F
:0A573D00EAF0A3E9F00DEDB401C39A
:01574700223F
:0543460090042CEFF0D3
:10434B003395E0FE902BF475F00FEF123301EE7501
:10435B00F00FA42583F583E493FF7401939004314C
:10436B00CFF0A3EFF0900431E475F001122FC4AF3E
:10437B00F0FE120026900430EFF0E4900433F0A32B
:10438B00F090042CE0FFFD3395E0FC902BF375F0DF
:10439B000FED123301EC75F00FA42583F583E49335
:1043AB00FB3395E0FA900433E0FCA3E0FDC39BEAFA
:1043BB006480F8EC64809840030244ECEFB4044949
:1043CB003395E0FE902BEB75F00FEF123301EE758A
:1043DB00F00FA42583F583E493FB740193FA740225
:1043EB0093F9C003C002C001EDAE047803C333CE12
:1043FB0033CED8F9D001D002D00329F9EA3EFA9096
:10440B000003740175F0C2804C90042CE0FF3395CF
:10441B00E0FE902BEB75F00FEF123301EE75F00F02
:10442B00A42583F583E493FB740193FA740293F947
:10443B00C003C002C001EDAE047803C333CE33CE4C
:10444B00D8F9D001D002D00329F9EA3EFA90000343
:10445B00740375F0E712305C90042CE0FF3395E0A9
:10446B00FE902BEB75F00FEF123301EE75F00FA4EE
:10447B002583F583E493FB740193FA740293F9900B
:10448B000433E0FEA3E07803C333CE33CED8F9FF79
:10449B0029F9EA3EFA900005E4F5F012305C90043D
:1044AB002CE0FD3395E0FC902BEB75F00FED123308
:1044BB0001EC75F00FA42583F583E493FB74019352
:1044CB00FA7402932FF9EA3EFA900007E4122F25B3
:1044DB00900434E004F07006900433E004F00243DF
:1044EB008C902C27E493FB740193FA740293F9904C
:1044FB000033740175F0F412305C90042CE01460FE
:10450B002014602D14603A14604714605424057015
:10451B005E90042D7401F0A37402F0A37475F08007
:10452B004E90042D7401F0A37402F0A3747BF08001
:10453B003E90042D7401F0A37402F0A374B9F080C3
:10454B002E90042D7401F0A37402F0A374D7F080A5
:10455B001E90042D7401F0A37402F0A374F5F08087
:10456B000E90042D7401F0A37403F0A37405F09066
:10457B00042CE0FF3395E0FE902BF175F00FEF125A
:10458B003301EE75F00FA42583F583E493FF7401DB
:10459B0093900431CFF0A3EFF0E4A3F0A3F09004D9
:1045AB002CE0FF3395E0FE902BF375F00FEF1233F9
:1045BB0001EE75F00FA42583F583E493FF3395E0AB
:1045CB00FEEF2401FFE43EFEC3900434E09FEE6453
:1045DB0080F8900433E06480985063900431E47564
:1045EB00F001122FC4AFF0FE12002690042DE0FB59
:1045FB00A3E0FAA3E0F9EF122F1390042EE475F069
:10460B0001122FAE900431E475F001122FC4AFF0FC
:10461B00FE12002690042DE0FBA3E0FAA3E0F9EFD5
:10462B00122F1390042EE475F001122FAE90043468
:0E463B00E004F07006900433E004F00245A99C
:01464900224E
:1060DA00E4FDEDFF3395E0FEEF25E0FFEE33FE74BD
:1060EA00752FF58274023EF583E0FAA3E0FB74098A
:1060FA002FF58274033EF583EAF0A3EBF00DEDB4BD
:10610A0002D0E4FDEDFF3395E0FEEF25E0FFEE332C
:10611A00FE747B2FF58274023EF583E0FAA3E0FB5E
:10612A00740D2FF58274033EF583EAF0A3EBF00DAC
:04613A00EDB41ED0D2
:01613E00223E
:105CB90090042C747FF0A374F9F0E4FF90042CE4B1
:105CC90075F001122FC485F082F583E493FEEFFD90
:105CD9003395E0FC742E2DF58274043CF583EEF0C7
:105CE9000FEFB407D7900433E0FE3395E0900373C8
:105CF900F0A3CEF0E07F00FE900373F0A3EFF090E5
:105D09000434E0FDEDFF900373EEF0A3EFF07C07A0
:105D19007DD0122F59A3ECF0A3EDF0E490042CF000
:105D2900A3F0900376E025E0FF900375E033FE12BF
:105D3900002690042EEFF0900376E025E0FF900313
:105D490075E033FEEF2401FFE43EFE1200269004C5
:105D59002FEFF0FB90042EE0FDAF05900377E4F000
:0B5D6900A3EFF0EBFFA3E4F0A3EFF0CA
:015D7400220C
:10504B00C2A57A27799E125F8E900393E0F9A3E0B5
:10505B00FAA3E0900427C9F0A3EAF0A3E9F0E490E7
:10506B00042BF0900427E0FBA3E0FAA3E0F99004F3
:10507B002BE0FFFD3395E08D82F58374151232F032
:10508B0012332DEA494B600890042BE004F080D3D7
:10509B0090041AEFF0900396E0FBA3E0FAA3E0F97B
:1050AB00900040EBF0A3EAF0A3E9F090000112337B
:1050BB002D900044EBF0A3EAF0A3E9F0E490042B6D
:1050CB00F0900040E0FBA3E0FAA3E0F990042BE0A2
:1050DB00FFFD3395E08D82F583740F1232F0122EA3
:1050EB00E6B5070B12434690042BE004F080D290F8
:1050FB00042BE0900269F01260DA1255CDE49003B4
:10510B0099F090026FF09003A1F0A304F0E49003E8
:10511B008CF090034DF090034BF0A3F090034EF006
:10512B0090035412329B00000000E4900371F012C4
:10513B005CB9900377E0FFA3E09002EFCFF0A3EF11
:10514B00F0900379E0FFA3E09002F1CFF0A3EFF032
:10515B00E4900372F090042BF090042BE0FFC364F7
:10516B0080948740030251F6EF3395E0FEEF78020F
:10517B00C333CE33CED8F9FF24D7F58274023EF574
:10518B0083E0FCA3E04C702B74D92FF58274023EA4
:10519B00F583E0FEA3E04E701A900372E0FF9004DB
:1051AB002BE0FE7401A806088002C333D8FC4F9095
:1051BB000372F090042BE0FF3395E0FEEF7802C30F
:1051CB0033CE33CED8F9FF24B9F58274023EF58382
:1051DB00E4F0A3F074BB2FF58274023EF583E4F088
:1051EB00A3F090042BE004F002516412491E125AF2
:1051FB00D0E47B107A27F9F890037BE0FCA3E0FD69
:10520B00A3E0FEA3E0FF123114900305EEF0A3EF31
:10521B00F0E4900349F0A3F0900350F0A3F074FF77
:06522B00900267F0A3F001
:01523100225A
:08523200900516EEF0A3EFF069
:10523A009005B874AAF0900516E0FEA3E0902BF151
:10524A0075F00F123301EE75F00FA42583F583E490
:10525A0093FE740193FF1261E8E49005B8F090059B
:10526A0016E0FEA3E0FFEE7072EF14602014602DCA
:10527A0014603A1460471460542405705E9005184F
:10528A007401F0A37402F0A37475F0804E900518AF
:10529A007401F0A37402F0A3747BF0803E900518A9
:1052AA007401F0A37402F0A374B9F0802E9005186B
:1052BA007401F0A37402F0A374D7F0801E9005184D
:1052CA007401F0A37402F0A374F5F0800E9005182F
:1052DA007401F0A37403F0A37405F0900516E0FEC0
:1052EA00A3E0902BF175F00F123301EE75F00FA4C5
:1052FA002583F583E493FF74019390051CCFF0A3F3
:10530A00EFF0E490051BF0900516E0FEA3E0902B69
:10531A00F375F00F123301EE75F00FA42583F583B0
:10532A00E493FF3395E0FEEF2401FFE43EFE90058F
:10533A001BE0C39FEE6480F8748098400302540C0B
:10534A009005B874AAF090051CE0FEA3E0FF900552
:10535A0018E0FBA3E0FAA3E0F9122ECDFD12613F9B
:10536A0090051CE0FEA3E0FF120026AE0790051888
:10537A00E0FBA3E0FAA3E0F9122ECD6E60079003DA
:10538A004CE04420F0900519E475F001122FAE901C
:10539A00051DE004F0700690051CE004F090051C61
:1053AA00E0FEA3E0FF900518E0FBA3E0FAA3E0F912
:1053BA00122ECDFD12613F90051CE0FEA3E0FF1204
:1053CA000026AE07900518E0FBA3E0FAA3E0F91265
:1053DA002ECD6E600790034CE04420F0900519E44E
:1053EA0075F001122FAE90051DE004F070069005CD
:1053FA001CE004F0E49005B8F090051BE004F0020C
:0B540A0053111260DA9005847401F069
:015415002274
:10628000EF14601814601D14602214602714602C31
:10629000240570337BFF7A2779A480267BFF7A2739
:1062A00079AA801E7BFF7A2779B080167BFF7A2738
:1062B00079B6800E7BFF7A2779BC80067BFF7A2730
:0862C00079C2E4FD125F922295
:1000460078317C047D017BFF7A2C79FD7E007F640C
:10005600122EA7E4900496F0A3F0A3F0A3F0789FE5
:100066007C047D017BFF7A2D7961FE7F06122EA727
:1000760078A57C047D017BFF7A2D79677E007F065B
:10008600122EA778AB7C047D017BFF7A2D796D7EDD
:10009600007F06122EA7A2A4E4335401FF90026744
:1000A600E0FCA3E054FEFDECFEED4FFF900267EE90
:1000B600F0A3EFF0A2A3E433540125E0FFE433FEFE
:1000C600900267E0FCA3E054FDFDEC4EFEED4FFF11
:1000D600900267EEF0A3EFF0A2A2E4FE335401789B
:1000E60002C333CE33CED8F9FF900267E0FCA3E01B
:1000F60054FBFDEC4EFEED4FFF900267EEF0A3EFD2
:10010600F0A2A1E4FE3354017803C333CE33CED834
:10011600F9FF900267E0FCA3E054F7FDEC4EFEED1C
:100126004FFF900267EEF0A3EFF0A2A0E433540174
:10013600C4F8540FC868FFE4C454F048FE90026740
:10014600E0FCA3E054EFFDEC4EFEED4FFF9002679E
:10015600EEF0A3EFF0A2B5E4FE3354017805C33305
:10016600CE33CED8F9FF900267E0FCA3E054DFFD62
:10017600EC4EFEED4FFF900267EEF0A3EFF0A2B358
:10018600E4FE3354017806C333CE33CED8F9FF905C
:100196000267E0FCA3E054BFFDEC4EFEED4FFF907E
:1001A6000267EEF0A3EFF0A2B2E4FE335401780743
:1001B600C333CE33CED8F9FF900267E0FCA3E054F8
:1001C6007FFDEC4EFEED4FFF900267EEF0A3EFF0E1
:1001D600A2A6E4335401FE900267E054FEFCA3E0BD
:1001E600FDEC4EFFED900267CFF0A3EFF0A2A7E47F
:1001F60033540125E0FE900267E054FDFCA3E0FDC8
:10020600EC4EFFED900267CFF0A3EFF0A292E4333D
:10021600540125E025E0FE900267E054FBFCA3E0D4
:10022600FDEC4EFFED900267CFF0A3EFF0A293E452
:1002360033540133333354F8FE900267E054F7FC2D
:10024600A3E0FDEC4EFFED900267CFF0A3EFF0A226
:1002560096E4335401C454F0FE900267E054EFFC78
:10026600A3E0FDEC4EFFED900267CFF0A3EFF0A206
:1002760097E4335401C43354E0FE900267E054DF40
:10028600FCA3E0FDEC4EFFED900267CFF0A3EFF08C
:10029600A2CCE4335401C4333354C0FE900267E069
:1002A60054BFFCA3E0FDEC4EFFED900267CFF0A338
:1002B600EFF0A2CDE4335401C43333335480FE90BF
:1002C6000267E0547FFCA3E0FDEC4EFFED90026771
:1002D600CFF0A3EFF0900267E0FFA3E0900016CF07
:1002E600F0A3EFF090001AE0FEA3E0FF900016E006
:1002F600FCA3E0FD6F7002EC6E6079900349E0FEAE
:10030600A3E0FF900027EEF0A3EFF0900023E0704B
:1003160002A3E0701190002FEEF0A3EFF090000A18
:10032600E04401F0800790000AE054FEF090001FC0
:10033600E0FEA3E0FF900349E0FAA3E0FBC39FFFC2
:10034600EA9EFED3EF9432EE9400402590001AEC1C
:10035600F0A3EDF090001DEAF0A3EBF0E49000218D
:10036600F0A3F0A3F0A3F0900033F0A304F002048E
:100376007B02047490002FE0FEA3E0FF900349E0A7
:10038600FCA3E0FDC39FFFEC9EFED3EF9432EE94F8
:1003960000400790000AE054FEF0900027E0FEA31C
:1003A600E0FFC3ED9FFFEC9EFED3EF9430EE947515
:1003B6004034900349E0FFA3E0900027CFF0A3EF7D
:1003C600F090002DE07002A3E0701B9003A1E07096
:1003D60004A3E06411600F9003A1E4F0A304F0E429
:1003E60090002BF0A3F090001DE0FEA3E0FF900329
:1003F60049E0FCA3E0FDC39FFFEC9EFED3EF9432E1
:10040600EE9400406990001FECF0A3EDF09000160A
:10041600E0FEA3E0F47002EEF4605A900023E07070
:1004260002A3E07050900022E004F07006900021D4
:10043600E004F0D3900022E09464900021E0648010
:1004460094804031900023E4F0A304F0900033E45C
:10045600F0A304F0E4900031F0A3F0900025ECF056
:10046600A3EDF0900021E4F0A3740AF08007E49075
:100476000016F0A3F0900023E07002A3E0605B900A
:100486000025E0FEA3E0FF900349E0FCA3E0FDC3E6
:100496009FFFEC9EFED3EF9464EE9400403C9000E8
:1004A60032E004F07006900031E004F0900031E094
:1004B600FEA3E0FFD39432EE648094804007A3E469
:1004C600F0A3740AF0EF4E6008900025ECF0A3ED5F
:1004D600F0900018E4F0A374FFF0900016E0FEA37D
:1004E600E0FF4E6021A3E0FCA3E0FDEF6D7002EE9D
:1004F6006C600C900016A3A3EEF0A3EFF08007E467
:10050600900016F0A3F0900016E0FEA3E0FFF47052
:1005160003EE64FD6012EFF47003EE64FB6009EF16
:10052600F47003EE64F77042900371E0FF60209070
:100536000016E0B4FB19A3E0B4FF14EF3395E0FE18
:10054600EF2414FFE43E90034BF0A3EFF0801B90E2
:1005560005BE7401F0900016E0FFA3E0900389CF7A
:10056600F0A3EFF090026B7402F090003DE0FEA362
:10057600E0FFEE7076EF24F6602524F6604D241435
:10058600706920946690003DE4F0A3740AF090032D
:1005960049E0FFA3E090003BCFF0A3EFF0804C20B2
:1005A600944290003BE0FEA3E0FFC390034AE09F25
:1005B600FF900349E09EFED3EF9464EE9400402B37
:1005C60090003DE4F0A37414F0802030941D900553
:1005D600BE7401F090038974FFF0A374EEF09002EC
:1005E6006B7402F0E490003DF0A3F09003A1E0FEEE
:1005F600A3E0FFEE6003021738EF24FE7003020A41
:10060600EC147003020ED314700302127D24FB70E7
:10061600030216FC24F97003020DAB147003020CDE
:10062600F524106003021738900016E0FEA3E08E52
:10063600F012338307BA7FFF0744BFFF089EFFBF50
:100646000836FFF706ADFFFB0714FFFD065AFFFE4F
:10065600000008B8E490003AF090002BE07002A386
:10066600E0702990039C7430F0A3F0A3F0A3F0A3EC
:10067600F090038B7404F07B017A03799CE4FD12FD
:100686005F929003A1E4F0A37402F022900043E08D
:10069600B4010AE4F0900037F09003B5F0E490005E
:1006A6002BF0A3F00208B8E490003AF0900023E0A3
:1006B6007002A3E0604590002BE07002A3E0703B5F
:1006C60090037BE0FCA3E0FDA3E0FEA3E0FFA3E034
:1006D600F8A3E0F9A3E0FAA3E0FBC31231CA601B5A
:1006E60090037BE0FCA3E0FDA3E0FEA3E0FFA312E2
:1006F600328F9005B77401F0125D7590026EE0645A
:100706000160030208B890058704F0E48029E490AC
:10071600003AF0900349E0FFA3E0900029CFF0A350
:10072600EFF0A3E4F0A37405F090026EE06003021C
:1007360008B890058704F090026EF00208B8E490BD
:10074600003AF090002BE07002A3E060030208B8C4
:10075600900040E0FBA3E0FAA3E0F9900001123319
:100766002D900044EBF0A3EAF0A3E9F0E490041B1B
:10077600F0A3F0A304F0E490026FF090000B04F0F5
:10078600E490002DF0A3F0FC7D0FFFFE122F4790A2
:100796000040E0FBA3E0FAA3E02FF9EA3EFA90005E
:1007A60009122EE690042AF0D36480948050030246
:1007B60026E28072E490003AF090002BE07002A3EB
:1007C600E060030208B8900040E0FBA3E0FAA3E073
:1007D600F990000112332D900044EBF0A3EAF0A348
:1007E600E9F0E490041BF0A304F0A3F090026FF08C
:1007F60090000BF0E490002DF0A3F0FC7D0FFFFEBF
:10080600122F47900040E0FBA3E0FAA3E02FF9EA9D
:100816003EFA900009122EE690042AF0D3648094E2
:100826008050030226E29003A1E4F0A37403F022B1
:10083600900043E07037900023E07002A3E0601060
:1008460090003AE0C3648094A8500AE004F0800562
:10085600E490003AF0900349E0FFA3E0900029CF2E
:10086600F0A3EFF0A3E4F0A37402F080459005BE78
:100876007401F090038974FFF0A374BFF090026BCB
:100886007402F0E490002BF0A3F0900043F0900087
:1008960037F09003B5F0801A900043E0701490058D
:1008A6006504F090002BE4F0A37404F09000437408
:1008B60001F090002BE07002A3E06003020A26908C
:1008C6000392E0FF90000EE4F0A3EFF090026FE0D9
:1008D60090042CF090034BE07002A3E06003020941
:1008E6007C90034DE0704CA3E0B401109003B57406
:1008F60001F0900037E0700B04F0800790000AE0EA
:1009060054FDF090037FE0F8A3E0F9A3E0FAA3E03A
:10091600FB90037BE0FCA3E0FDA3E0FEA3E0C39B0A
:10092600FFEE9AFEED99FDEC98FC90035812328F7B
:100936000209AD7A2779C8125F8E90034DE0FB5409
:100946007FFF3395E0FEFDFC90001212328FEB30F4
:10095600E708900037E0700204F012465890042D24
:10096600EFF07B017A0379A87D03125BD49003B57F
:100976007401F00209F190034BE0FEA3E0FF640B63
:100986004E6006EF640C4E703490034EE0B40110D6
:100996009003B57401F0900037E0700B04F0800707
:1009A60090000AE054FDF0900358E0FCA3E0FDA39C
:1009B600E0FEA3E0FF124652125BC7802E7BFF7A51
:1009C6002779CCE4FD125F92900037E0700204F0C4
:1009D60090034B12464A90042DEFF07B017A03797F
:1009E600A87D03125BD4E49003B5F090038CE0700D
:1009F60003020ACC900391E0FF900399E004FEF015
:100A0600D3EF6480F8EE6480985003020ACCE4F0D9
:100A160090026FE004F0E490000EF0A3F0020ACC1E
:100A260090002BE07004A3E064027033900352122E
:100A3600464A125BC7900029E0FEA3E0FFC390037D
:100A46004AE09FFF900349E09EFED3EF94D0EE94D8
:100A560007407390002BE4F0A37403F0020ACC90D5
:100A6600002BE07004A3E06403700590035080350A
:100A760090002BE07004A3E06404701A7BFF7A27D1
:100A860079D0FD125F92900037E0700204F0900377
:100A9600B57401F0803090002BE07004A3E064058B
:100AA6007024900373E0FEA3E0FFE4FCFD900012C7
:100AB60012328F900012A3A3E0FEA3E0FFE4FDFC38
:100AC600124652125BC790003AE064286003021790
:100AD60040F09003A1F0A37410F090002BE4F0A373
:100AE6007404F0020E5C900016E0FEA3E08EF01295
:100AF60033830B5FFFF70B19FFFB0B2FFFFD0B0C6F
:100B0600FFFE00000CD5E490026FF09003A1F0A365
:100B160004F02290038BE014F0C3648094804003B9
:100B2600020CD57404F0020CD590038BE0FF3395CC
:100B3600E0FE749C2FF58274033EF583E004F0D347
:100B4600648094B95003020CD5749C2FF58274030B
:100B56003EF5837430F0020CD590042B7401F090AE
:100B66000269E0FF90042BE0FEC3EF6480F8EE64B8
:100B7600809840030226E2900040E0FBA3E0FAA33F
:100B8600E0F9EE75F00FA4FFE92FF9E43AFA9000C8
:100B96000412332D122ECDFF90039CE06F600302EA
:100BA6000CCC90042BE0FF3395E0FE7C007D0F1209
:100BB6002F47900040E0FBA3E0FAA3E02FF9EA3EBE
:100BC600FA90000412332D900001122EE6FF9003D6
:100BD6009DE06F6003020CCC900002122EE6FF909F
:100BE600039EE06F6003020CCC900003122EE6FF1A
:100BF60090039FE06F6003020CCC900004122EE677
:100C0600FF9003A0E06F6003020CCC90042BE0FF82
:100C1600B404289002EBE07002A3E0700A9002EDA3
:100C2600E07002A3E06014900372E020E50D9003EB
:100C360001E07002A3E060030226E2EF3395E0FED6
:100C460090002DF0A3EFF07C007D0F122F4790004F
:100C560040E0FBA3E0FAA3E02FF9EA3EFA90000198
:100C660012332D900044EBF0A3EAF0A3E9F09000D4
:100C76002DE0FEA3E0FF90041BF0E4A3F0A304F034
:100C8600E490026FF0122F47900040E0FBA3E0FAD9
:100C9600A3E02FF9EA3EFA900009122EE690042A04
:100CA600F0D36480948040099003A1E4F0A3740318
:100CB600F090042AE0D36480949440037414F09076
:100CC6000495740AF02290042BE004F0020B659060
:100CD6000010E07002A3E0600D900023E07002A314
:100CE600E070030216677B017A03799C0217319044
:100CF6000016E0FEA3E08EF01233830D09FFFE001E
:100D0600000D3DE490002BF0A3F090038B7404F0EB
:100D1600E4900399F090041B7478F090041D74011C
:100D2600F0E490026FF09003A1F0A304F0E49000C9
:100D360037F09003B5F02290034BE0FEA3E0FF648A
:100D46000B4E6006EF640C4E7044EF640B4E70144D
:100D56007BFF7A2779D6FD125F92900037E07025E7
:100D660004F0802190034BE07004A3E0640C600360
:100D76000217407BFF7A2779DCFD125F92900037DD
:100D8600E0700204F09003B57401F00217407BFF97
:100D96007A2779E2E4FD125F92E4900037F090033F
:100DA600B5F0021740900016E0FEA3E08EF0123375
:100DB600830ECA7FFF0EC1BFFF0E79DFFF0E82EFE3
:100DC600FF0E70F7FF0E67FBFF0EAFFDFF0EA6FED0
:100DD600FF0E9DFF7F0EB8FFBF0E8BFFDF0E94FF49
:100DE600EF0E48FFFB0E20FFFD0DF7FFFE0000177C
:100DF60040E490002BF0A3F090038B7404F0E49091
:100E06000399F090041B7478F090041D7401F0E4CB
:100E160090026FF09003A102173C900390E0C36428
:100E26008094815009E004F09005BF7401F09003AE
:100E360090E0FF126280900390E0D3648094800279
:100E46001740900390E0D3648094804009E014F04A
:100E56009005BF7401F0900390E0FF1262800217C4
:100E6600407BFF7A2779E80217317BFF7A2779EEF4
:100E76000217317BFF7A2779F40217317BFF7A2735
:100E860079FA0217317BFF7A2879000217317BFF46
:100E96007A2879060217317BFF7A28790C021731F6
:100EA6007BFF7A2879120217317BFF7A287918029C
:100EB60017317BFF7A28791E0217317BFF7A287952
:100EC600240217317BFF7A28792A021731900016FF
:100ED600E0FEA3E08EF01233830F8DFFF70F20FFA5
:100EE600FB0F56FFFD0EF3FFFE00000FF0E490002F
:100EF6002BF0A3F090038B7404F0E4900399F09028
:100F0600041B7478F090041D7401F0E490026FF0F5
:100F16009003A1F0A304F0020FF090026FE0FF141B
:100F2600F0EF700990042AE01490026FF090026FBF
:100F3600E090041CF0F0A37401F0900495E0FF1417
:100F4600F0EFD3940A4003020FF0741DF0020FF085
:100F560090042AE0FF90026FE004FEF0C3EF648085
:100F6600F8EE6480984002E4F090026FE090041C72
:100F7600F0A37401F0900495E0FF04F0EFC3941D14
:100F86004068740AF0806390041BE0FDB404279067
:100F9600026FE0FF74017E00A807088005C333CE08
:100FA60033CED8F9FF900372E0FB3395E05EFEEF97
:100FB6005B4E6036802EEDB4032A90026FE0A2E706
:100FC60013FF74017E00A807088005C333CE33CE15
:100FD600D8F9FF900372E0FD3395E05EFEEF5D4EBB
:100FE6006008800090000B7405F090041BE0FF7011
:100FF6000890000BE0600204F090000BE0640560CE
:101006000302118CF090026FE0FE90042CF0900326
:101016008B7404F09002707402F0EFB40331EEA208
:10102600E713FF74017E00A807088005C333CE339B
:10103600CED8F9FF900372E0FD3395E05EFEEF5DDA
:101046004E700C90038512329B00000000802090A9
:101056000423E0FBA3E0FAA3E0F912330D122FDA22
:10106600FFAEF0EE3395E0FDFC90038512328F90D3
:1010760003A1E4F0A37404F090042CE0FF3395E0A0
:10108600FEEF7803C333CE33CED8F9FF900044E0A9
:10109600FBA3E0FAA3E02FF9EA3EFA900423EBF073
:1010A600A3EAF0A3E9F09002707402F012330DC0C7
:1010B6000390051A7403F0E4A3F0A304F0A37403E9
:1010C600F0A374A5F0E4A3F0A37402F0D003FD121C
:1010D600467B90042DEFF090038D7403F090039CF3
:1010E6007430F0A3F0740314606D1460431460034D
:1010F60002117D90042DE0FFFD3395E0FC74A52DD3
:10110600F58274033CF583E0FE90039EF0BE200357
:101116007430F0EF3395E0FE74A62FF58274033E2B
:10112600F583E0FD90039FF0BD20037430F0803816
:1011360090039E7420F090042DE0FF3395E0FE743A
:10114600A62FF58274033EF583E0FD90039FF0BD64
:1011560020037430F0801190039E7420F0A3F09069
:10116600042DE0FF3395E0FE74A72FF58274033E4D
:10117600F583E09003A0F0E4900035F0A3F090032F
:10118600A1F0A37404F0D390000FE0940090000E39
:10119600E09400400FA3E024FFF090000EE034FF3F
:1011A600F0021740900392E0FF90000EE4F0A3EFE8
:1011B600F090026FE0FDFF3395E0FEEF7803C33356
:1011C600CE33CED8F9FF900044E0FBA3E0FAA3E0CB
:1011D6002FF9EA3EFA900423EBF0A3EAF0A3E9F034
:1011E60090041BE0B40331EDA2E713FF74017E0007
:1011F600A807088005C333CE33CED8F9FF90037213
:10120600E0FD3395E05EFEEF5D4E700C90038512B7
:10121600329B000000008020900423E0FBA3E0FA4C
:10122600A3E0F912330D122FDAFFAEF0EE3395E09C
:10123600FDFC90038512328F90026FE0FF123C583E
:1012460090051A7403F0E4A3F07B01A304F0A374E1
:1012560003F0A374A5F0E4A3F0A37402F07A037973
:10126600857D0412467B90042DEFF024A5F9E43425
:1012760003FA7B010216F5900016E0FEA3E08EF05D
:101286001233831406FFF712A9FFFB1359FFFD1251
:101296009DFFFE0000165390041BE0600302164AF1
:1012A60002161F90026FE0FF3395E0FEEF7803C34E
:1012B60033CE33CED8F9FF900044E0FBA3E0FAA387
:1012C600E02FF9EA3EFA900007122EE630E003021C
:1012D6001653900385E0FCA3E0FDA3E0FEA3E0FF28
:1012E600C006C007900033E0FEA3E0FBAA06EA337F
:1012F60095E0F9F8D007D006C3EF9BFFEE9AFEED16
:1013060099FDEC98FC90038512328F900423E0FB44
:10131600A3E0FAA3E0F9900005123005FFAEF0EE67
:101326003395E0FDFC900385E0F8A3E0F9A3E0FA2D
:10133600A3E0FBC31231B44003021653900423E02A
:10134600FBA3E0FAA3E0F9900005123005FFAEF02A
:101356000213F790026FE0FF3395E0FEEF7803C3C8
:1013660033CE33CED8F9FF900044E0FBA3E0FAA3D6
:10137600E02FF9EA3EFA900007122EE630E003026B
:101386001653900385E0F8A3E0F9A3E0FAA3E0FB87
:10139600900033E0FEA3E0FFEE3395E0FDFCEB2F7B
:1013A600FFEA3EFEE93DFDE83CFC90038512328FE4
:1013B600900423E0FBA3E0FAA3E0F99000031230C7
:1013C60005FFAEF090042FEEF0A3EFF0EE3395E0BC
:1013D600FDFC900385E0F8A3E0F9A3E0FAA3E0FBA7
:1013E600D31231B4500302165390042FE0FEA3E04B
:1013F600FFEE3395E0FDFC90038512328F02165303
:10140600900023E07002A3E060030216197B017AC4
:1014160003799C900270E090051AF07D05125748FA
:1014260090038512328F900423E0FBA3E0FAA3E039
:10143600F9900003123005FFAEF0EE3395E0FDFCA7
:10144600900385E0F8A3E0F9A3E0FAA3E0FBD3124A
:1014560031B44003021619900423E0FBA3E0FAA37B
:10146600E0F9900005123005FFAEF0EE3395E0FD91
:10147600FC900385E0F8A3E0F9A3E0FAA3E0FBC340
:101486001231B450030216197E007F02E47066EF33
:1014960014604814602524FE705B900385E0FCA36D
:1014A600E0FDA3E0FEA3E0FF900423E0FBA3E0FA47
:1014B600A3E0F912330D123251803A900385A3A3AB
:1014C600E0FEA3E0FF900423E0FBA3E0FAA3E0F92B
:1014D60012330DEE8FF012303D801A900385A3A3D0
:1014E600A3E0FF900423E0FBA3E0FAA3E0F91233A4
:1014F6000DEF122F1390039EE0B4300B7420F0A36F
:10150600E0B430037420F07B017A03799E7D0212E9
:101516005BD490041BE06402600302160D90026F18
:10152600E0A2E713FDFF3395E0FEEF7802C333CE6A
:1015360033CED8F9FF24B9F58274023EF583E0FA7A
:10154600A3E0FB74D72FF58274023EF583E0FEA379
:10155600E06B7002EE6A6003021602EDFF3395E05F
:10156600FEEF7802C333CE33CED8F9FF24BBF58223
:1015760074023EF583E0FAA3E0FB74D92FF582747A
:10158600023EF583E0FEA3E06B7002EE6A706D909A
:101596000372E0FF7401A805088002C333D8FC4F2C
:1015A600900372F0EDFF3395E0FEEF25E0FFEE339A
:1015B600FE74F52FF58274023EF583E4F0A3F090F5
:1015C600042EF090042EE0FFC3ED6480F8EF6480F3
:1015D600985022EF3395E0FEEF25E0FFEE33FE74E0
:1015E600F52FF58274023EF583E4F0A3F090042E05
:1015F600E004F080CE7F047E001252329003A1E414
:10160600F0A37403F0800C90041BE0FF3395E0FE1A
:1016160012523290041BE0702B90002BF0A3F09036
:10162600038B7404F0E4900399F090041B7478F033
:1016360090041D7401F0E490026FF09003A1F0A3F2
:1016460004F080099003A1E4F0A37403F090001065
:10165600E07002A3E06017900023E07002A3E07040
:101666000D90038BE0FF7D0112630C021740900280
:101676006FE0FF123C5890051A7405F0E4A3F07B66
:1016860001A304F0A37403F0A374A5F0E4A3F0A3EC
:101696007402F07A0379857D0412467B90042DEF5F
:1016A600F03395E0FE74A52FF58274033EF583E0D2
:1016B600FF90039EF0BF20037430F090042DE0FFEE
:1016C6003395E0FE74A62FF58274033EF583E0FDA4
:1016D60090039FF0BD20037430F074A72FF5827439
:1016E600033EF583E09003A0F07B017A03799E7DAB
:1016F60002125BD48044900421E0FEA3E0FFC39075
:10170600034AE09FFF900349E09EFED3EF94E8EE84
:101716009403401190041FE0FE3395E09003A1F07E
:10172600A3CEF080157BFF7A287930E4FD125F9214
:1017360080089003A1E4F0A304F09003A1E0FEA3C7
:10174600E0FF90038EE06E7003A3E06F7003021B50
:01175600D9B9
:101757009004B174FFF0A37428F0A37436F0A37457
:10176700FFF0A37428F0A3743BF0A374FFF0A374F5
:1017770028F0A37440F09003A1E0FEA3E0FF9003DC
:101787008EEEF0A3EFF0EE6003021BD9EF12335D8C
:1017970017B90118EE021905031A5D051AAB061AE7
:1017A700DB071B0B081B3B091B6A101B9911000069
:1017B7001BD91261987BFF7A2879451263947F536E
:1017C7007E007D007C001260817BFF7A287964129D
:1017D70063947F537E007D007C001260817BFF7ADB
:1017E70028797B1263947BFF7A28797B1263947F35
:1017F700537E007D007C0012608190052F74FFF0FE
:10180700A37428F0A37486F09004B1E0F9A3E0FA7A
:10181700A3E0900532C9F0A3EAF0A3E9F07B017ACF
:101827000479311240467B017A0479311263947F3F
:10183700537E007D007C001260817BFF7A28799BB4
:101847001263947BFF7A2879A61263947F537E00F4
:101857007D007C0012608190052F74FFF0A374282F
:10186700F0A37486F09004B4E0F9A3E0FAA3E09043
:101877000532C9F0A3EAF0A3E9F07B017A047931D4
:101887001240467B017A0479311263947BFF7A28F0
:10189700799B1263947F537E007D007C00126081E8
:1018A7007BFF7A2879B112639490052F74FFF0A318
:1018B7007428F0A374BCF09004B7E0F9A3E0FAA38E
:1018C700E0900532C9F0A3EAF0A3E9F07B017A04BE
:1018D70079311240467B017A0479311263947BFF98
:1018E7007A28799B021A9A1261987F537E007D00AD
:1018F7007C001260817BFF7A2879D1021A9AE4FF73
:10190700FE12619B90041BE0704EA3E0704A9005A5
:101917002F74FFF0A37428F0A374BCF0A374FFF036
:10192700A37427F0A37408F07B017A04793112407D
:10193700467B017A0479311263947F537E007D00E0
:101947007C0012608190052F74FFF0A37428F0A328
:1019570074F0F09004B1804990041BE07057A3E045
:101967006401705190052F74FFF0A37428F0A374DD
:10197700BCF0A374FFF0A37427F0A3740BF07B01F2
:101987007A0479311240467B017A047931126394E3
:1019970090052F74FFF0A37428F0A374F0F090045F
:1019A700B4E0F9A3E0FAA3E0900532C9F0A3EAF0A6
:1019B700A3E9021BC67BFF7A297907126394900477
:1019C7001CE0240AFF1259C990041CE0FF3395E07C
:1019D700FEEF7803C333CE33CED8F9FF900044E04F
:1019E700FBA3E0FAA3E02FF9EA3EFA90049CEBF0A0
:1019F700A3EAF0A3E9F012330D122FDAFFAEF0EEEF
:101A07003395E0FDFC90038512328F900385A3A3E5
:101A1700E0FEA3E0FF900498EEF0A3EFF090052F0F
:101A270074FFF0A37429F0A37411F0A3EEF0A3EFF1
:101A3700F07B017A04799F12404690052F74FFF0DE
:101A4700A37429F0A37414F0A37401F0A37404F031
:101A5700A3749F021BC67BFF7A2979071263947FC1
:101A6700537E007D007C0012608190052F74FFF08B
:101A7700A37429F0A3742BF0A374FFF0A37429F0C7
:101A8700A37444F07B017A0479311240467B017AD2
:101A97000479311263947F537E007D007C001260CD
:101AA70081021BD97BFF7A2979071263947F537EC2
:101AB700007D007C0012608190052F74FFF0A374F5
:101AC70029F0A3742BF0A374FFF0A37429F0A37477
:101AD70051021BC67BFF7A2979071263947F537ED5
:101AE700007D007C0012608190052F74FFF0A374C5
:101AF70029F0A3742BF0A374FFF0A37429F0A37447
:101B07005A021BC67BFF7A2979071263947F537E9B
:101B1700007D007C0012608190052F74FFF0A37494
:101B270029F0A3742BF0A374FFF0A37429F0A37416
:101B370065021BC67BFF7A2979071263947F537E60
:101B4700007D007C0012608190052F74FFF0A37464
:101B570029F0A3742BF0A374FFF0A37429F0A374E6
:101B670072805C7BFF7A2979071263947F537E002A
:101B77007D007C0012608190052F74FFF0A374290B
:101B8700F0A3742BF0A374FFF0A37429F0A374835C
:101B9700802D7BFF7A2979071263947F537E007D1E
:101BA700007C0012608190052F74FFF0A37429F068
:101BB700A3742BF0A374FFF0A37429F0A37490F01F
:101BC7007B017A0479311240467B017A047931121C
:021BD700639415
:101BD90090034BE07002A3E07003021CED90039A9E
:101BE900E0FEA3E0FFC390034AE09FFF900349E0B2
:0E1BF9009EFED3EF94F4EE94015003021DBB48
:101C0700900271E0FBA3E0FAA3E0F9EA494B601800
:101C1700E490026CF0A3F090038EF0A3F0F9900229
:101C270071C9F0A3F0A3E9F07BFF7A2979991263D0
:101C370094D390034CE0940F90034BE094009005ED
:101C47002F74FF4016F0A37429F0A374A4F0A374B3
:101C5700FFF0A37429F0A374BA8014F0A37429F0D9
:101C6700A374A4F0A374FFF0A37429F0A374C7F0BE
:101C77007B017A0479311240467B017A047931126B
:101C87006394900000E07002A3E090052F600C744D
:101C9700FFF0A37429F0A374D4800A74FFF0A3742F
:101CA70029F0A374ECF090034BE0FFA3E09005321A
:101CB700CFF0A3EFF07B017A0479311240467B0124
:101CC7007A0479311263947BFF7A2A790512639437
:101CD700900000E07002A3E070047F0180027F00A3
:031CE7009000006A
:101CEA00021DB6900271E0FBA3E0FAA3E0F9EA490B
:101CFA004B7003021DBB90026CE07002A3E060030C
:101D0A00021DBB9003A1E07004A3E064016003021A
:101D1A001DBB90039AE0FEA3E0FF900349E0FCA3F9
:101D2A00E0FDC39FFFEC9EFED3EF94F4EE940150C6
:041D3A0003021DBBC8
:101D3E0090039AECF0A3EDF07BFF7A297999126368
:101D4E0094900002E07002A3E090052F600C74FFE7
:101D5E00F0A3742AF0A3740F800A74FFF0A3742A00
:101D6E00F0A37426F0900271E0F9A3E0FAA3E090DC
:101D7E000532C9F0A3EAF0A3E9F07B017A047931C8
:101D8E001240467B017A0479311263947BFF7A2AE2
:101D9E007905126394900002E07002A3E070047F54
:0D1DAE000180027F00900002E4F0A3EFF03E
:101DBB0090026CE0FEA3E0FF64084E7003021F1854
:101DCB00900016E0FCA3E08CF01233831EFADFFFC9
:101DDB001EEAEFFF1EDAF7FF1ECAFBFF1EBAFDFF5E
:101DEB001EAAFEFF1E9AFF7F1E8FFFBF1E7EFFDF08
:101DFB001F0AFFEE1E6DFFEF1E2AFFF71E0FFFFEE1
:101E0B0000001F18EF64024E600F90026CE070042C
:101E1B00A3E064036003021F18E490026C801D9022
:101E2B00026CE0FEA3E0FF64024E6006EF64034E1B
:101E3B007010E490026CF0A3F090038EF0A3F0020C
:101E4B001F18EF4E6003021F189003A1E07004A34C
:101E5B00E064016003021F1890026CF0A304F0020F
:101E6B001F1890027174FFF0A3742AF0A3743CF056
:101E7B00021F1890027174FFF0A3742AF0A374412F
:101E8B00F0021F1890026CE4F0A37408F0807E90AF
:101E9B00027174FFF0A3742AF0A37446F0806E9065
:101EAB00027174FFF0A3742AF0A3744BF0805E9060
:101EBB00027174FFF0A3742AF0A37450F0804E905B
:101ECB00027174FFF0A3742AF0A37455F0803E9056
:101EDB00027174FFF0A3742AF0A3745AF0802E9051
:101EEB00027174FFF0A3742AF0A3745FF0801E904C
:101EFB00027174FFF0A3742AF0A37464F0800E9047
:101F0B00027174FFF0A3742AF0A37469F09003A11B
:101F1B00E0FEA3E0FFEE6003022425EF24FE700336
:101F2B0002232F14700302236814700302238E24E0
:101F3B0003600302242590026CE0FEA3E0FFEE6039
:101F4B0003022425EF1470030220FB1470030222FA
:101F5B002E14700302227E24FB70030222A5240898
:101F6B0060030224259003A3E0FEA3E0FFC39003CC
:101F7B004AE09FFF900349E09EFED3EF94F4EE946A
:101F8B00015003022425E0FFA3E09003A3CFF0A3AD
:101F9B00EFF0900040E0FBA3E0FAA3E0F990000122
:101FAB0012332D90049CEBF0A3EAF0A3E9F012336B
:101FBB000D122FDAFF900496E5F0F0A3EFF09005E9
:101FCB002F74FFF0A37429F0A37411F0900496E022
:101FDB00FFA3E0900532CFF0A3EFF07B017A0479F9
:101FEB00A5124046900040E0FBA3E0FAA3E0F99075
:101FFB00000112332DE92408F9E43AFA90049CEB22
:10200B00F0A3EAF0A3E9F012330D122FDAFF9004DC
:10201B0098E5F0F0A3EFF090052F74FFF0A374296F
:10202B00F0A37411F0900498E0FFA3E0900532CF79
:10203B00F0A3EFF07B017A0479AB1240467BFF7A79
:10204B0028797B12639490052F74FFF0A3742AF008
:10205B00A3746EF0A37401F0A37404F0A374A5F041
:10206B007B017A0479311240467B017A0479311273
:10207B0063947BFF7A2879A612639490052F74FFE3
:10208B00F0A3742AF0A37485F0A37401F0A3740475
:10209B00F0A374ABF07B017A0479311240467B01DB
:1020AB007A0479311263947BFF7A2879B1126394A5
:1020BB0090052F74FFF0A3742AF0A3749CF0900387
:1020CB0058E0FCA3E0FDA3E0FEA3E0FF9005321275
:1020DB00328F7B017A0479311240467B017A047985
:1020EB00311263947BFF7A28799B12639402242527
:1020FB00E4FFFE12619B7BFF7A2A79B31263947F14
:10210B00107E277D007C001260817BFF7A28797B13
:10211B0012639490052F74FFF0A3742AF0A374BE7E
:10212B00F0A374FFF0A3742AF0A374C1F07B017ABF
:10213B000479AB12404690052F74FFF0A3742AF07C
:10214B00A3746EF0A37401F0A37404F0A374ABF04A
:10215B007B017A0479311240467B017A0479311282
:10216B0063947BFF7A29799912639490052F74FFFE
:10217B00F0A37429F0A37411F0900352E0FFA3E0D5
:10218B00900532CFF0A3EFF07B017A0479AB1240CC
:10219B004690052F74FFF0A3742AF0A37485F0A367
:1021AB007401F0A37404F0A374ABF07B017A04798F
:1021BB00311240467B017A0479311263947BFF7AAA
:1021CB002879A612639490052F74FFF0A3742AF05C
:1021DB00A3749CF0900358E0FCA3E0FDA3E0FEA3E6
:1021EB00E0FF90053212328F7B017A047931124075
:1021FB00467B017A0479311263947BFF7A28799BB1
:10220B00126394900349E0FFA3E09003A3CFF0A3E4
:10221B00EFF090026DE004F0705690026CE004F069
:10222B000224259003A3E0FEA3E0FFC390034AE042
:10223B009FFF900349E09EFED3EF94D0EE9407509E
:10224B0003022425E4FFFE12619B7BFF7A2A79C9E6
:10225B00126394900349E0FFA3E09003A3CFF0A394
:10226B00EFF090026DE004F0700690026CE004F069
:10227B000224259003A3E0FEA3E0FFC390034AE0F2
:10228B009FFF900349E09EFED3EF9488EE9413508A
:10229B0003022425E49003A3807C90039AE0FEA321
:1022AB00E0FF900349E0FCA3E0FDC39FFFEC9EFE23
:0922BB00D3EF94F4EE9401403FCE
:1022C40090039AECF0A3EDF0E4FFFE12619B900002
:1022D40004E07002A3E07BFF60067A2A79D48004CC
:1022E4007A2A79DF126394900004E07002A3E0700C
:0F22F400047F0180027F00900004E4F0A3EFF06C
:10230300900016E0FEA3E08EF0123383231BFFF749
:102313002326FFFE00002425900271E4F0A3F0A31E
:10232300F08001E490026CF0A3F08056E490042E58
:10233300F090042EE0FFC3648094854003022425BB
:10234300EF3395E0FE749C2FF58274033EF583E032
:10235300FD749F2FF58274043EF583EDF090042EF7
:10236300E004F080CC900016E0FEA3E0FF64FB7075
:1023730002EEF4600CEF64FD7002EEF460030224DD
:1023830025E490038EF0A3F002242590041BE0FFC4
:10239300702CA3E07028900044E0FBA3E0FAA3E0D4
:1023A300F990049CEBF0A3EAF0A3E9F012330D12C9
:1023B3002FDAFD900496E5F0F0A3EDF08035EF7091
:1023C3003290041CE0B4012B900044E0FBA3E0FA3C
:1023D300A3E02408F9E43AFA90049CEBF0A3EAF0B2
:1023E300A3E9F012330D122FDAFF900498E5F0F011
:1023F300A3EFF0900385A3A3E0FEA3E0FF9004986E
:10240300EEF0A3EFF090052F74FFF0A37429F0A36F
:102413007411F0A3EEF0A3EFF07B017A04799F121D
:1024230040469003A1E0FEA3E0FF64024E6009EF83
:0824330064044E60030225A4BD
:10243B0078B17C047D017BFF7A2D79737E007F64FC
:10244B00122EA790039AE0FEA3E0FF900349E0FC55
:10245B00A3E0FDC39FFFEC9EFED3EF942CEE940103
:05246B0050030225A44E
:1024700090039AECF0A3EDF0900006E07002A3E068
:1024800060557B017A04799F126522D3900009E0A0
:102490009FEE6480F8900008E064809890052F74A7
:1024A000FF500AF0A37429F0A374148008F0A374F9
:1024B0002AF0A374EAF0A37401F0A37404F0A374E7
:1024C0009FF07B017A0479B11240467B017A04794E
:1024D000B112639402258C9003A1E07004A3E06420
:1024E00002700590038B8029E490042EF090042E56
:1024F000E0FF3395E0FE749F2FF58274043EF58370
:10250000E0600890042EE004F080E290042EE014D5
:10251000F0E0FF3395E0FE749F2FF58274043EF5E2
:1025200083E0900515F0749F2FF58274043EF583C7
:10253000745FF090052F74FFF0A3742AF0A374EA7F
:10254000F0A37401F0A37404F0A3749FF07B017AEC
:102550000479B11240467B017A0479B112639490F8
:1025600003A1E07004A3E064029005157007E0FF8A
:1025700090038B8005E0FF90042EE0FD3395E0FC96
:10258000749F2DF58274043CF583EFF0900006E013
:102590007002A3E070047F0180027F00900006E4D7
:0425A000F0A3EFF0C5
:1025A40090001CE0701304F0900349E0FFA3E09056
:1025B400000CCFF0A3EFF0803B90000CE0FEA3E012
:1025C400FFC390034AE09FFF900349E09EFED3EFD0
:1025D4009464EE9400401D900010E07002A3E0703B
:1025E400047F0180027F00900010E4F0A3EFF0E488
:1025F40090001CF0900037E024F6603124F66074FB
:1026040024F670030226B0241D60030226D790032B
:1026140049E0FFA3E0900038CFF0A3EFF090000A68
:10262400E04402F0900037740AF00226D79003B514
:10263400E070067E017FF480047E007F32900038D3
:10264400E0FCA3E0FDC390034AE09DFD900349E054
:102654009CFCD3ED9FEC9E407AE0FFA3E090003811
:10266400CFF0A3EFF090000AE054FDF0900037742F
:1026740014F0805F9003B5E07E077FD0900038E0CF
:10268400FCA3E0FDC390034AE09DFD900349E09C58
:10269400FCD3ED9FEC9E403BE0FFA3E0900038CFDD
:1026A400F0A3EFF0900037741EF0802790034BE006
:1026B4007002A3E0701790034DE05480FF3395E05F
:1026C4004F700AA3E07006900037F0800690003740
:0E26D4007401F090000AE06003D2A522C2A5B6
:0126E20022D5
:10464A00E0FEA3E0FFE4FCFD90001212328F900519
:10465A001A7405F0E4A3F07B01A304F0A37403F039
:10466A00A374A5F0E4A3F0A37402F07A0079127D92
:01467A00043B
:05467B00900519EDF0AF
:104680006008E0D36480948440037F002290051981
:10469000E014F0E4900528F090052112329B000010
:1046A0000000900519E0B40319900528E060081295
:1046B00032011231A6800312320190052112328F8D
:1046C000804D900519E0FFB40129900528E06014A1
:1046D000122FDAFDC3E49DFCE495F0900521F0A3D0
:1046E000CCF0802B122FDAFD900521E5F0F0A3ED40
:1046F000F0801CEF7016900528E06007122ECDF4B4
:10470000048003122ECD900521F080037F002290BB
:104710000520E024FE601B14602024FB601424F8B4
:10472000601024D0600C243F70169005277402F0AE
:10473000800E900527740AF080069005277410F00B
:1047400090051AE0FFA3E02FFFC374039F90052597
:10475000F0A3EFF0C3648094835013E0FFC37403AD
:104760009FFF90051AE02FF09005267403F0900546
:104770001AE0FF900526E0B5070690051FE060638C
:10478000900527E0FB3395E0FAF9F8900521E0FC6D
:10479000A3E0FDA3E0FEA3E0FF126350EB2430FF93
:1047A00090051CE0FBA3E0FAA3E0F9900526E0FDEC
:1047B0003395E08D82F583EF122F25900521E0FCE3
:1047C000A3E0FDA3E0FEA3E0FFC007900527E0FB08
:1047D0003395E0FAF9F8D0071263509005211232B0
:1047E0008F803B90051BE06019A3E0FBA3E0FAA3D8
:1047F000E0F9900526E0FF3395E08F82F583742E73
:10480000801990051CE0FBA3E0FAA3E0F9900526CF
:10481000E0FF3395E08F82F5837420122F259005F9
:1048200026E0FF14F0D3EF64809480400302476ECB
:1048300090051FE0602D900528E06024900525E09C
:10484000FFC364809483501890051CE0FBA3E0FA3A
:10485000A3E0F9EF3395E08F82F583742D122F25B5
:104860007F0022E4900526F0900525F090051CE0DD
:10487000FBA3E0FAA3E0F9900526E0FFFD3395E005
:104880008D82F583122EE664307041EF3395E0FEA1
:10489000EF2401FFE43EFE90051AE0FD3395E0FCB5
:1048A000C3EF9DEC6480F8EE648098501F9005265D
:1048B000E0FF3395E08F82F5837420122F25900559
:1048C00025E004F0900526E004F080A0900528E0A3
:1048D000601E90051CE0FBA3E0FAA3E0F99005251B
:1048E000E014FFF03395E08F82F583742D122F25AD
:1048F00090051AE0FFA3E02FFF900525E0FEC3EF2F
:104900009EA3F0C364809483500EE0FFC374039FA2
:0D491000FFC3EE9F900525F0900525E0FF08
:01491D002277
:0D574800900516EBF0A3EAF0A3E9F0AB0525
:1057550090051AE024FE600F146014240270169060
:1057650005247402F0800E900524740AF0800690DA
:1057750005247410F090051B12329B000000009068
:10578500051F12329B00000001900523EBF09005E8
:1057950023E0D364809480500302585EE014F090B7
:1057A5000516E0FBA3E0FAA3E0F9900523E0FF333B
:1057B50095E08F82F583122EE6FFC3648094B04096
:1057C500CDD3EF648094BF50C590051BE0F8A3E0EE
:1057D500F9A3E0FAA3E0FBC000C001C002C003903A
:1057E5000516E0FBA3E0FAA3E0F9900523E0FF33FB
:1057F50095E08F82F583122EE6FF3395E0FEEF24C8
:10580500D0FFEE34FFFEE4FCFD90051FE0F8A3E0B9
:10581500F9A3E0FAA3E0FB123089D003D002D0014E
:10582500D000EB2FFFEA3EFEE93DFDE83CFC90058C
:105835001B12328F90051FE0F8A3E0F9A3E0FAA34D
:10584500E0FB900524E0FF3395E0FEFDFC12308976
:1058550090051F12328F025793900516E0FBA3E0C7
:10586500FAA3E0F9122ECD642D6013900001122EDB
:10587500E6642D6009900002122EE6B42D11900504
:105885001BE0FCA3E0FDA3E0FEA3E0FF0231A69030
:0D589500051BE0FCA3E0FDA3E0FEA3E0FF87
:0158A20022E3
:1059C900EF24F6B414004003025ABC9059E275F072
:1059D90003A4C58325F0C58373025A1E025A210206
:1059E9005A2A025A33025A3C025A44025A4C025A5F
:1059F90054025A5C025A64025A6C025A74025A7C62
:105A0900025A84025A8C025A94025A9C025AA402DB
:105A19005AAC025AB4025ABC7BFF7A2B790E025A4D
:105A2900C27BFF7A2B7919025AC27BFF7A2B792420
:105A3900025AC27BFF7A2B792F807E7BFF7A2B79E2
:105A49003A80767BFF7A2B7945806E7BFF7A2B79BA
:105A59005080667BFF7A2B795B805E7BFF7A2B799E
:105A69006680567BFF7A2B7971804E7BFF7A2B7982
:105A79007C80467BFF7A2B7987803E7BFF7A2B7966
:105A89009280367BFF7A2B799D802E7BFF7A2B794A
:105A9900A880267BFF7A2B79B3801E7BFF7A2B792E
:105AA900BE80167BFF7A2B79C9800E7BFF7A2B7912
:105AB900D480067BFF7A2B79031263947F107E27AB
:075AC9007D007C00026081FA
:03619800E4FFFE23
:08619B00900516EEF0A3EFF0F1
:1061A3007FE87E037D007C0012608190052F74FFE1
:1061B300F0A3742BF0A374DFF0900516E0FFA3E0C7
:1061C300900532CFF0A3EFF07B017A0579181240E6
:1061D300467B017A0579181263947FE87E037D007C
:0561E3007C0002608158
:0C657600900655EBF0A3EAF0A3E9F02238
:0D656900E4F5C7F5C5F5C675C380F5C4227D
:10002600C2AF75C78375C5018FC4EEF5C375C65AD1
:0C00360075C6A50000AFC2126569D2AF0C
:01004200229B
:10613F009005B8E0FB7A0064AA704DC2AFEB64AA79
:10614F00700375C783EB64AA4A700375C502EB64CD
:10615F00AA4A70028FC49005B8E064AA7003EEF5E6
:10616F00C39005B8E0FF7E0064AA70028DC2EF6491
:10617F00AA4E700375C65A9005B8E064AA700375ED
:09618F00C6A500126569D2AF2219
:1061E8009005B8E0FD7C0064AA7043C2AFED64AAD4
:1061F800700375C783ED64AA4C700375C503ED641D
:10620800AA4C70028FC49005B8E064AA7003EEF53A
:10621800C39005B8E0FF7E0064AA700375C65AEF04
:0F62280064AA4E700375C6A500126569D2AF2235
:1058A3009004607444F0A3E4F0FBFA90037BE0FC03
:1058B300A3E0FDA3E0FEA3E024FFFFEE34FFFEED33
:1058C30034FFFDEC34FFFC90046212328F900462CB
:1058D300E0FCA3E0FDA3E0FEA3E0FF78071231DBC9
:1058E3007C007D05122F59AA04AB05900462A3A383
:1058F300A3E0547FFFE4FDFCEF701C9005B874AA8D
:10590300F0AF03EF25E0FEE42400FFEE3444FE1283
:1059130061E8E49005B8F0900462E0FCA3E0FDA325
:10592300E0FEA3E0FF78021231EEA312328F90045F
:1059330066E0FCA3E0FDA3E0FEA3E0FFE4FB7A0A3C
:10594300F9F8123114AC00AD01AE02AF0390046656
:1059530012328F900466A3A3E0FEA3E0FF900461DC
:10596300E02FF0900460E03EF090045C7401F0A33B
:105973007403F0A3747BF09005B874AAF0E4900468
:105983005FF0900460E0FEA3E0FF90045CE0FBA303
:10599300E0FAA3E0F9122ECDFD12613F90045DE41D
:1059A30075F001122FAE900461E004F070069004CC
:1059B30060E004F090045FE004F0E0C3940440C2AC
:0559C300E49005B8F0BE
:0159C80022BC
:10491E009004307444F0A3E4F090043E12329B00F5
:10492E0000000090044212329B00002710E4900415
:10493E005AF0A3F090045AE0FEA3E0FFC39480EE79
:10494E0094024003024B2FEF7802C333CE33CED8FE
:10495E00F92400FFEE3444900430F0A3EFF09004FD
:10496E002C7401F0A37404F0A37432F0900430E0C0
:10497E00FEA3E0FF12002690042CE0FBA3E0FAA3B6
:10498E00E0F9EF122F1390042DE475F001122FAE03
:10499E00900431E02401FF900430E03400FE120058
:1049AE002690042CE0FBA3E0FAA3E0F9EF122F13FC
:1049BE0090042DE475F001122FAE900431E0240224
:1049CE00FF900430E03400FE12002690042CE0FB31
:1049DE00A3E0FAA3E0F9EF122F1390042DE475F083
:1049EE0001122FAE900431E02403FF900430E03426
:1049FE0000FE12002690042CE0FBA3E0FAA3E0F9DF
:104A0E00EF122F1390044AE0FCA3E0FDA3E0FEA3F7
:104A1E00E0FF90044612328F900432E0FCA3E0FDDA
:104A2E00A3E0FEA3E0FF90044A12328F90045AE0F6
:104A3E00B40219A3E0B47F14900432E0FCA3E0FDAD
:104A4E00A3E0FEA3E0FF90044E12328F74FFFFFE30
:104A5E00FD7C7F900432E0F8A3E0F9A3E0FAA3E036
:104A6E00FBD31231CA4003024B0C90043EE0FCA370
:104A7E00E0FDA3E0FEA3E0FF900432E0F8A3A3A3C1
:104A8E00E01231CA4078900446E0FCA3E0FDA3E0BA
:104A9E00FEA3E0FF90045212328F90044AE0FCA372
:104AAE00E0FDA3E0FEA3E0FF90045612328F9004C7
:104ABE0032E0FCA3E0FDA3E0FEA3E0FF90043E1273
:104ACE00328F90045AE0FEA3E0FFE4FCFD90044216
:104ADE0012328FE4FFFEFDFC900442E0F8A3E0F9F1
:104AEE00A3E0FAA3E0FBC31231CA701290044EE0A9
:104AFE00FCA3E0FDA3E0FEA3E0FFA312328F90041F
:104B0E0032E0FCA3E0FDA3E0FEA3E0FFA312328F90
:104B1E0090045BE004F0700690045AE004F0024941
:104B2E0042E4900371F07F107E27FDFC900442E07A
:104B3E00F8A3E0F9A3E0FAA3E0FBC31231CA605078
:104B4E00900452E0F8A3E0F9A3E0FAA3E0FBA3E09F
:104B5E00FCA3E0FDA3E0FEA3E0C39BFFEE9AFEEDF7
:104B6E0099FDEC98FCE47B01FAF9F8C31231CA7096
:104B7E001490043EE0FCA3E0FDA3E0FEA3E0FF9052
:104B8E00037B02328F90037B12329B0000000022C7
:0D4B9E0090037B12329B000000001258A310
:014BAB0022E7
:105AD00090042F7426F0A3E4F07B0190042C04F0D2
:105AE000A37403F0A3747FF07F007E26120026903B
:105AF000042CE0FBA3E0FAA3E0F9EF122F139004CB
:105B00002DE475F001122FAE900430E02401FF90D7
:105B1000042FE03400FE12002690042CE0FBA3E0EA
:105B2000FAA3E0F9EF122F1390042DE475F001129F
:105B30002FAE900430E02402FF90042FE03400FEEA
:105B400012002690042CE0FBA3E0FAA3E0F9EF1288
:105B50002F1390042DE475F001122FAE900430E065
:105B60002403FF90042FE03400FE12002690042C42
:105B7000E0FBA3E0FAA3E0F9EF122F1390037FE01C
:105B8000F8A3E0F9A3E0FAA3E0FB90037BE0FCA319
:105B9000E0FDA3E0FEA3E0C39BFFEE9AFEED99FDBE
:105BA000EC98FC7B9F7A8679017800C31231CA5049
:105BB0001590037BE0FCA3E0FDA3E0FEA3E0FFA3C0
:065BC00012328F125D7528
:015BC60022BC
:105D750090051A7426F0A3E4F0900524F0A3F090A2
:105D850005B874AAF07F007E261261E8E49005B894
:105D9500F090037BE0FCA3E0FDA3E0FEA3E0FFA3FE
:105DA50012328F9005167401F0A37403F0A3747F6B
:105DB500F09005B874AAF0E4900519F090051AE082
:105DC500FEA3E0FF900516E0FBA3E0FAA3E0F912BD
:105DD5002ECDFD12613F900517E475F001122FAE2F
:105DE50090051BE004F0700690051AE004F090059C
:0F5DF50019E004F0E0C3940440C2E49005B8F054
:015E0400227B
:1055B4004306380105D443064501063B4105D001A5
:0855C4004105D1004105D200B0
:1064C700759850758E40E4F589758BE0758DFED211
:0864D7008ED2ACD2AFD2BC2280
:10000E00438E04759A5075D7E075D6FE438E104315
:05001E00AF01D2AF228A
:030023000262373F
:10623700C0E0C083C082C0D075D00830982BC29808
:10624700900360E0FF04F074D42FF582E43405F581
:1062570083E599F090035F7401F0900349E0FFA391
:10626700E090035CCFF0A3EFF0309904C299C20924
:09627700D0D0D082D083D0E032F7
:030043000264DF75
:1064DF00C0E0E59A30E003539AFEE59A30E10553A8
:0764EF009AFDC20AD0E03261
:1064330090035FE0B4012490035CE0FEA3E0FFC39C
:1064430090034AE09FFF900349E09EFED3EF940A36
:0C645300EE9400400690035F7402F022FB
:096582002009FDEFD209F5992270
:08600700A3F07B017A0379B6D6
:0B600F0090042FEBF0A3EAF0A3E9F0EF
:10601A00E4A3F0FDFC90042FE0FBA3E0FAA3E0F96F
:10602A00900001122EE6FF3395E0FEEF2402FFE412
:10603A003EFEC3ED9FEE6480F8EC64809850188DA4
:10604A00828C83122EE6FF900432E02FF0126582D2
:10605A000DBD00010C80BE900432E0FF12658290F3
:0A606A0005D0E004F0E0700204F03D
:016074002209
:1063940090052CEBF0A3EAF0A3E9F090052CE0FBC8
:1063A400A3E0FAA3E0F9122ECDFF602012658B90D2
:1063B400052CE0FBA3E0FAA3E0F9E4122F13900507
:0D63C4002D75F001122FAE300AD180FB22A2
:09658B00200AFDEFD20AF59B2263
:1038C90090042CE4F0A3F0A3F09005D4E0FF900459
:1038D9002B7401F0900360E0FE14FD90042BE0FCD2
:1038E900C3ED6480F8EC648098501BECFD3395E0DF
:1038F900FC74D42DF58274053CF583E02FFF900408
:103909002BE004F080CE74D32EF582E43405F583E0
:10391900E06F600B90034BE4F0A3741E023C5090DF
:1039290005D4E024F6B40B004003023C5790394417
:1039390075F003A4C58325F0C5837302396502397F
:10394900B7023B92023C3F023C3F023C41023C3FF2
:10395900023C3F023C3F023C3F023C4890042C742D
:1039690001F0A37403F0A37409F0E490042BF09020
:10397900042BE0FFFD3395E0FC74D72DF582740527
:103989003CF583E0FE90042CE0FBA3E0FAA3E0F908
:10399900EF3395E08D82F583EE122F2590042BE00D
:1039A90004F0E0B440C99005C07401023C50E490B1
:1039B900042BF090042BE0FFC364809487505AEFE6
:1039C9003395E0FEEF25E0FFEE33FE74F52FF58227
:1039D90074023EF583E0FEA3E0FFD39400EE648019
:1039E9009480402DEE3395E0FDFCE47B107A27F9B5
:1039F900F812308990037BE0F8A3E0F9A3E0FAA379
:103A0900E0FBD31231CA400990042BE00490037102
:103A1900F090042BE004F0809A900301E07002A377
:103A2900E07004900371F09005D7E0FE9005D6E0B0
:103A3900FDEDFF900352EEF0A3EFF09005D9E0FE03
:103A49009005D8E0FDEDFF900350EEF0A3EFF09064
:103A590005DBE0FE9005DAE0FDEDFF90034BEEF0AB
:103A6900A3EFF09005DDE0FFE4FCFDFE78081231DC
:103A7900EEA804A905AA06AB079005DCE0FFEB4F09
:103A8900FFEAFEE9FDE8FCC004C005C006C00790D6
:103A990005DFE0FFE4FCFDFE78181231EED003D01B
:103AA90002D001D000EF4BFFEE4AFEED49FDEC4894
:103AB900FCC004C005C006C0079005DEE0FFE4FCB9
:103AC900FDFE78101231EED003D002D001D000EF04
:103AD9004BFFEE4AFEED49FDEC48FC90042F1232F3
:103AE9008F900354E0FCA3E0FDA3E0FEA3E0FF9068
:103AF900042FE0F8A3E0F9A3E0FAA3E0FBC3123135
:103B0900CA7003023C5190042FE0FCA3E0FDA3E03E
:103B1900FEA3E0FF90035412328F90037BE0FCA3D5
:103B2900E0FDA3E0FEA3E02401FFE43EFEE43DFD49
:103B3900E43CFC90037B12328F90037FE0F8A3E012
:103B4900F9A3E0FAA3E0FB90037BE0FCA3E0FDA36B
:103B5900E0FEA3E0C39BFFEE9AFEED99FDEC98FC15
:103B69007B9F7A8679017800C31231CA5015900378
:103B79007BE0FCA3E0FDA3E0FEA3E0FFA312328FEC
:103B8900125D751258A3023C51E490042BF0900584
:103B9900D5E01313543FFF90042BE0FEC3EF64807C
:103BA900F8EE6480984003023C38E0FD25E025E00A
:103BB900FC24D6F582E43405F583E0FE74D72CF5B0
:103BC90082E43405F583E0FBEBFFC007C006EDFF97
:103BD9003395E0FEEF7803C333CE33CED8F9FF90A7
:103BE9002BEBE493FB740193FA7402932FF9EA3EE9
:103BF900FA900005D0E0D0F012305C90042BE0255B
:103C0900E025E0FD24D8F582E43405F583E0FE746F
:103C1900D92DF582E43405F583E0FDEDFF9000032D
:103C2900EE8FF012305C90042BE004F0023B979089
:103C390005BC7401801180109005C1740180089041
:0E3C4900034BE4F0A37428F09005B9747FF0EB
:013C5700224A
:1034A10090042BE4F0A3F0A3F09005BAE0FEA3E0B2
:1034B100FFC390034AE09FFF900349E09EFED3EFD4
:1034C10094E8EE9403401F900584E0700A9005B9DA
:1034D100E0B47F037401F0900349E0FFA3E090059D
:1034E100BACFF0A3EFF0900352E07002A3E07003B3
:1034F1000235DD9005C0E060030235DD9005B9E0DD
:10350100647F60030235DD9002B7E064557004A367
:10351100E064AA70030235CD9002757401F0A374C2
:1035210036F0A37401F0A3742CF090027BE4F0A3B5
:103531007402F0A3E4F0A3740FF0A3E4F0A3740FFA
:10354100F0E4A3F0A3F0A3F0A3F0A304F0A374406C
:10355100F0A3E4F0A37459F0A37401F0A37490F004
:10356100A3E4F0A37414F0A3E4F0A37454F0A3E46F
:10357100F0A37402F0A3E4F0A37478F0A3E4F0A341
:10358100740AF0A3E4F0A304F0A3E4F0A37449F0F7
:10359100A3E4F0A37450F0A3E4F0A304F0A3E4F0D7
:1035A100A304F0A3E4F0A304F0A3E4F0A304F0A3C4
:1035B100E4F0A304F09002B77455F0A374AAF0E408
:1035C100FFFE1252327F017E001252329005847446
:1035D10001F09005C0F09005B9747FF09005C0E04E
:1035E100B401109005BCE0700A9005B9E0B47F0306
:1035F1007402F0900584E0600A9005B9E0B47F039D
:103601007403F0900588E0600A9005B9E0B47F0387
:103611007407F0900565E0600A9005B9E0B47F0396
:103621007409F09005BFE0600A9005B9E0B47F032A
:103631007404F0900587E0600A9005B9E0B47F0357
:103641007408F09005B7E0600A9005B9E0B47F0313
:103651007405F09005BEE0600A9005B9E0B47F03FF
:103661007406F09005B9E0B40A0040030238C8902E
:103671003677F82828730236950236BD0236E30202
:10368100370A02378C02384C02387A0237BE0237C9
:10369100EC02381E7E007F647D007B017A0379B6DF
:1036A1001233B0E49003B6F0A304F0E4A3F0A30452
:1036B100F0FB12600B9005B97432F0227E007F643A
:1036C1007D007B017A0379B61233B09003B67401A1
:1036D100F0A3F0E4A3F074021260079005B974330B
:1036E100F0227E007F647D007B017A0379B612337C
:1036F100B09003B67402F0A314F0E4A3F0740412C2
:1037010060079005B97434F0227E007F647D007BF0
:10371100017A0379B61233B09003B67403F0A3743F
:1037210040F090042B7401F0A37403F0A37409F02A
:103731009003B6E0244090042EF0E4FFFE90042BA9
:10374100E0FBA3E0FAA3E0F98F828E83122EE6FD5F
:1037510074B82FF58274033EF583EDF08F828E836A
:10376100122EE6FD90042EE02DF00FBF00010EEFAA
:1037710064404E70C890042EE09003F812600890E7
:1037810005B97435F0E4900584F0227E007F647DF4
:10379100007B017A0379B61233B09003B67404F05A
:1037A100A37401F0900390E09003B8F02405126037
:1037B100079005B97436F0E49005BFF0227E007FD2
:1037C100647D007B017A0379B61233B09003B6743D
:1037D10007F0A37401F0E4A3F0A374081260089049
:1037E10005B97439F0E4900588F0227E007F647D8C
:1037F100007B017A0379B61233B09003B67408F0F6
:10380100A37401F090026EE09003B8F024091260F5
:10381100079005B9743AF0E4900587F0227E007FA5
:10382100647D007B017A0379B61233B09003B674DC
