:030000000268EBA8
:0C68EB00787FE4F6D8FD75812102693247
:105E1C004105CE0042059B00004105CF7F4205D0D5
:105E2C0000004205CB000042059F00004105D60052
:105E3C004105D20041059A004105D50041059E005F
:105E4C0041059D0041057B004105CD004105D70171
:105E5C004105D4004105D30042057C00004E056D80
:105E6C0010000378000000000000000000004E0548
:105E7C00D820000378000000000000000000004E55
:105E8C0005BD0010037800000000000000000000B9
:105E9C004E05AF0020037800000000000000000059
:105EAC00004E05A100400378000000000000000037
:105EBC0000004E057E00800378000000000000000A
:105ECC000000004E058C010003780000000000006B
:045EDC0000000000C2
:106F9900438E80E4F589758A67758CFCD28CD2A9F9
:036FA900D2AF2242
:106F0E00E4F5957596207580FF7590FF75A0FF7559
:0B6F1E00B0FF126F99126F2902000EE5
:106F58007E017F107D007B017A027975123BD99002
:066F6800026E7401F0222C
:1056320090056AEBF0A3EAF0A3E9F090056AE0FBBB
:10564200A3E0FAA3E0F990000212382EFFAEF0E5D3
:10565200F06003025873EF24F6605224F6700302DE
:10566200572524F670030257AF241E6003025873B5
:1056720090000CE4F5F0123885123803FF900267AF
:10568200E055F0FEA3E05F4E600302587390056A96
:10569200E0FBA3E0FAA3E0F9900002E475F00A123D
:1056A2003885900004123AF5000000002290056A45
:1056B200E0FBA3E0FAA3E0F9123803FF900267E0EF
:1056C20055F0FEA3E05F4E703C900004123A4AEFA0
:1056D2002401FFE43EFEE43DFDE43CFC90000412A4
:1056E2003A94900004123A4AE47B14FAF9F8C3128D
:1056F20039F3400302587390056AE0FBA3E0FAA372
:10570200E0F902586990056AE0FBA3E0FAA3E0F928
:10571200900004123AF500000000900002E4F5F057
:1057220002587090056AE0FBA3E0FAA3E0F990004A
:1057320004123A4AEF2401FFE43EFEE43DFDE43C5C
:10574200FC900004123A94123803FF900267E0556D
:10575200F0FEA3E05F4E601F90056AE0FBA3E0FA53
:10576200A3E0F9900002E475F01E1238859000085B
:10577200123AF50000000090056AE0FBA3E0FAA3EC
:10578200E0F9900004123A4AE47B907A01F9F8C3F6
:105792001239F3400302587390056AE0FBA3E0FA62
:1057A200A3E0F990000CE475F00102587090056ACC
:1057B200E0FBA3E0FAA3E0F9900004123A4AEF24D6
:1057C20001FFE43EFEE43DFDE43CFC900004123A9D
:1057D20094123803FF900267E055F0FEA3E05F4E9B
:1057E200607090056AE0FBA3E0FAA3E0F99000087C
:1057F200123A4AEF2401FFE43EFEE43DFDE43CFCA4
:10580200900008123A94900008123A4AE47B14FA83
:10581200F9F8C31239F3505990056AE0FBA3E0FA94
:10582200A3E0F990000C12382E640145F090000CB0
:10583200700575F0038004E475F00212388590005B
:1058420004123AF500000000900002740375F0782B
:10585200801C90056AE0FBA3E0FAA3E0F99000083F
:10586200123AF500000000900002E475F0141238BC
:0258720085228D
:106E33007B017A0579BD1256327B017A0579AF124F
:106E430056327B017A05797E1256327B017A0579B7
:106E53008C1256327B017A05796D1256327B017A98
:066E63000579D802563249
:106EE800E49005BFF0A3F09005B1F0A3F090058001
:106EF800F0A3F090058EF0A3F090056FF0A3F0904A
:066F080005DAF0A3F022FF
:1053D500900579E0FEA3E0FF4E605A90038974EFD3
:1053E500F0A374FFF0EF64014E701C90026B04F0A3
:1053F50090057CE07002A3E0703B90057CF0A3046F
:10540500F09005D4F0802E900579E07004A3E06457
:105415000290026B7004740280027403F0E490053C
:1054250079F0A3F090056FF0A3F090057CF0A3F060
:105435009005D404F09005E4E0FEA3E0FF4E605A29
:1054450090038974DFF0A374FFF0EF64014E701CC4
:1054550090026B04F090057CE07002A3E0703B9035
:10546500057CF0A304F09005D4F0802E9005E4E0CF
:105475007004A3E0640290026B70047402800274ED
:1054850003F0E49005E4F0A3F09005DAF0A3F090C2
:10549500057CF0A3F09005D404F09005C9E0FEA3C7
:1054A500E0FF4E605A90038974FFF0A374EFF0EFAC
:1054B50064014E701C90026B04F090057CE0700254
:1054C500A3E0703B90057CF0A304F09005D4F08038
:1054D5002E9005C9E07004A3E0640290026B70048D
:1054E500740280027403F0E49005C9F0A3F09005FE
:1054F500BFF0A3F090057CF0A3F09005D404F090E4
:1055050005BBE0FEA3E0FF4E605A90038974FFF0EF
:10551500A374DFF0EF64014E701C90026B04F090F1
:10552500057CE07002A3E0703B90057CF0A304F0DD
:105535009005D4F0802E9005BBE07004A3E06402D2
:1055450090026B7004740280027403F0E49005BB52
:10555500F0A3F09005B1F0A3F090057CF0A3F090D6
:1055650005D404F090058AE0FEA3E0FF4E605A9052
:10557500038974FFF0A3747FF0EF64014E701C90F3
:10558500026B04F090057CE07002A3E0703B90058F
:105595007CF0A304F09005D4F0802E90058AE0708D
:1055A50004A3E0640290026B700474028002740329
:1055B500F0E490058AF0A3F0900580F0A3F0900543
:1055C5007CF0A3F09005D404F0900598E0FEA3E0EC
:1055D500FF4E605890038974FEF0A304F0EF640158
:1055E5004E701B90026B04F090057CE07002A3E006
:1055F500703A90057CF0A304F09005D4F022900554
:1056050098E07004A3E0640290026B700474028059
:10561500027403F0E4900598F0A3F090058EF0A3D2
:0D562500F090057CF0A3F09005D404F02275
:03000B00026E6919
:106E6900C0E0C0F0C083C082C0D075D00890034A8A
:106E7900E004F07006900349E004F0126E95126E7A
:0C6E890033D0D0D082D083D0F0D0E032E3
:1066CE00E49005CEF0126F0E126F581258749003AC
:0D66DE0049E0FFA3E09005D0CFF0A3EFF05E
:1066EB00900433123AC400000000E47FE87E03FDFF
:1066FB00FC900433E0F8A3E0F9A3E0FAA3E0FBC3BA
:10670B001239DD502800900433E0FCA3E0FDA3E038
:10671B00FEA3E0FFE4FAF9F8EF2401FFEA3EFEE9FD
:0D672B003DFDE83CFC900433123AB880BDFF
:106738009005D3E0703C9005D0E0FEA3E0FFC39045
:10674800034AE09FFF900349E09EFED3EF94F4EEE6
:106758009401401EE0FEA3E0FF9005D0EEF0A3EF09
:10676800F09005CBEEF0A3EFF0126EE89005D3742D
:1067780001F09005D3E0B401B712004690035FE042
:10678800B4020C1240F290035F7403F0E4A3F01219
:076798003CCA1253D58099A1
:0D5EE0004A065E00FF00FF00FF00FF00FF0C
:0C6AD700C290C2907F007E007D007C0019
:066AE300900542123AB8D2
:106AE900900546123AC400000000900542E0FCA35C
:106AF900E0FDA3E0FEA3E0FFA3E0F8A3E0F9A3E033
:106B0900FAA3E0FBC31239DD502800900546E0FCEA
:106B1900A3E0FDA3E0FEA3E0FFE4FAF9F8EF240106
:106B2900FFEA3EFEE93DFDE83CFC900546123AB815
:026B390080B822
:016B3B002237
:106FAC00D290D290D291D291126ADBC291C291222C
:106F6E00126AD7C291C291126ADBD290D290126A83
:066F7E00DBD291D291224A
:0F6FBC00126AD7D290D290126ADBC290C2902292
:086D2A00900668EEF0A3EFF003
:106D3200E4A3F0126ADB126AD7900669E030E0063B
:106D4200D291D2918004C291C291126ADB900668FC
:106D5200E0C313F0A3E013F0D290D290126ADB905A
:0B6D6200066AE004F0E0C3940840C89B
:016D6D002203
:10697700126FF6126FAC7F407E00126D2A12000371
:10698700126FBC126FF6126F6E126FAC7FC07E0073
:10699700126D2A120003126FBC126FF6E490066E96
:1069A700F090066EE0FFC394055025EF25E0245EC6
:1069B700F582E43406F583E0FEA3E0FF126D2A12A8
:1069C7000003126FBC126FF690066EE004F080D1E0
:1069D700126F6E126FAC7F8C7E00126D2A1200034D
:0969E700126FBC126FF6026F6E14
:05000300C294D2952219
:056FF600D294D29522A7
:102BD500303030303000313031303100313031304B
:102BE5003200313031303300313031303400323061
:102BF5003130310000312D00322D00332D00342DC0
:102C050000352D00362D00372D00382D00392D00CB
:102C1500313000313100313200313300313400318F
:102C25003500313600313700313800313900323066
:102C35000032310032320032330032340032350096
:102C45003236003237003238003239003330002056
:102C55002020413100202020413200202020413316
:102C65000020202041340020202041350020202054
:102C75004136002020204137002020204138002007
:102C850020204139002020413130003630343039A0
:102C95000020462D2D300020462D2D310020462DBB
:102CA5002D320020462D2D330020462D2D340020B9
:102CB500462D2D3500B4F2BDBA00B4EACCF500BD01
:102CC500F8D6BD00CDCBD6BD00CFC2C1CF00CDA3B8
:102CD500D6BD00C6F4B6AF00CDA3D6B900B7A2D60F
:102CE500BD00CAD5D6BD00502D2D00452D2D005156
:102CF500322D2D2D00502D2D203100502D2D20321F
:102D050000502D2D203000202020313100202020A2
:102D150031320020202031330020202031340020A2
:102D25002020313500202020313600202020313769
:102D3500002020203138002020203139002020209B
:102D45003230002020203231002020203232002075
:102D55002045727200D6BDB3A400C0A6CAFD00D737
:102D6500DCCAFD005738444628352C332C27313131
:102D75003136363232323636333333333327293B25
:102D85000D0A0057384D5528302C302C38302C384A
:102D9500302C312C32293B0D0A0057385545283146
:102DA500293B0D0A004453363428312C382C27256D
:102DB50073272C3135293B0D0A0053585928302CDF
:102DC50030290D0A00573855452833293B0D0A008F
:102DD500573855452834293B0D0A004453343828C3
:102DE500312C38362C27C7EBCAE4C8EBC3DCC2EB61
:102DF5003A272C3135293B0D0A0044533634283106
:102E05002C312C272573272C3135293B0D0A0044FD
:102E150053363428312C3130302C272573272C316B
:102E250035293B0D0A00434C532830293B0D0A0038
:102E3500256400445334382833302C3139302C275D
:102E45002573272C31293B0D0A004453363428328B
:102E550030302C3130302C272573272C3135293B48
:102E65000D0A00B4FAC2EBCAE4C8EBBBADC3E60079
:102E7500B4EDCEF3CCE1CABE00D6B1BDD3B5F7B241
:102E8500CECAFD00B5C8B4FDB7B5D0A3BDE1B9FB49
:102E950000D1D3CAB1CFD4CABED0DEB8C4B3F6B45C
:102EA500ED00B2E2CAD4B2CECAFDC9E8D6C300D19C
:102EB500A7CFB0C4A3CABD00445336342831343239
:102EC5002C382C272573272C3135293B0D0A002555
:102ED5006C6400573855452832293B0D0A00445388
:102EE50034382832302C36302C272573272C3135B1
:102EF500293B0D0A00445334382832302C36302C07
:102F0500272573272C31293B0D0A005358592830A2
:102F1500293B0D0A00445334382832302C36302CE6
:102F25002720202020272C31293B0D0A005350470C
:102F3500283537293B0D0A0025730031362D352DEF
:102F450031320044533634283133302C322C272586
:102F550073272C3135293B0D0A004453363428316B
:102F650033302C312C272573272C3135293B0D0A7D
:102F75000044533634283133302C312C27256C64EA
:102F8500272C3135293B0D0A005350472836302967
:102F95003B0D0A00535047283632293B0D0A005392
:102FA5005047283633293B0D0A0042504943283102
:102FB5002C302C302C31293B0D0A0050533332284C
:102FC500312C312C312C27CDEAB3C9D2BBC0A62C6C
:102FD500C7EBC0A6CCF5272C3135293B0D0A00429D
:102FE50050494328322C302C302C32293B0D0A0015
:102FF500424F58283132302C3138302C3135302C75
:10300500313938293B0D0A005053333228322C31DF
:103015002C312C27B4EACCF5BBFACFC2C1CFB4A66C
:10302500CEDEB8CBC7A5B1A8B4ED272C3135293BE9
:103035000D0A004250494328332C302C302C3329BB
:103045003B0D0A00424F58283130302C38302C3295
:1030550030302C313630293B0D0A0050533332289D
:10306500332C312C312C27B4EACCF5BBFAB5AFC6DD
:10307500ACB4A6CEDEB8CBC7A5B1A8B4ED272C312C
:1030850035293B0D0A004250494328342C302C3059
:103095002C34293B0D0A005053333228342C312C63
:1030A500312C27C7D0B5B6B6C2D6BDB9E2B5E7B49F
:1030B500ABB8D0C6F7B1A8B4ED272C3135293B0DF7
:1030C5000A004250494328352C302C302C35293BF9
:1030D5000D0A005053333228352C312C312C27CF93
:1030E500C2C1CFB6C2D6BDB9E2B5E7B4ABB8D0C69A
:1030F500F7B1A8B4EDA1A3272C3135293B0D0A0062
:103105004250494328362C302C302C36293B0D0AA9
:1031150000424F58283238302C38302C3239382C70
:10312500313030293B0D0A005053333228362C31CB
:103135002C312C27C7D0B5B6C1E3CEBBBDD3BDFC62
:10314500B4ABB8D0C6F7B1A8B4EDA1A3272C3135DF
:10315500293B0D0A004250494328372C302C302C8E
:1031650037293B0D0A00424F58283134302C343072
:103175002C3138302C3538293B0D0A005053333269
:1031850028372C312C312C27B4A2D6BDB8D0D3A6E4
:10319500B5BDCEDED6BDBBF2D6BDB6E0A1A3272C0C
:1031A5003135293B0D0A004250494328382C302C33
:1031B500302C38293B0D0A00424F58283130302C2D
:1031C5003137302C3133392C323130293B0D0A005F
:1031D5005053333228382C312C312C27B4EACCF516
:1031E500D6DCC6DABDD3BDFCB4ABB8D0C6F7B1A842
:1031F500B4EDA1A3272C3135293B0D0A00425049D6
:103205004328392C302C302C31293B0D0A005053E2
:10321500333228392C312C312C27B4F2BDBAB5BD47
:10322500CEBBB8D0D3A6C6F7B1A8B4EDA1A3272CC1
:103235003135293B0D0A004250494328302C302CAA
:10324500302C31293B0D0A00505333322825642C8C
:1032550025642C25642C27452564272C31293B0D15
:103265000A00505333322825642C25642C25642C00
:1032750027452564272C3135293B0D0A0044533455
:10328500382833302C3139302C2725732020272C32
:1032950031293B0D0A00535047283331293B0D0A8C
:1032A50000535047283332293B0D0A005350472815
:1032B5003333293B0D0A00535047283334293B0D3E
:1032C5000A00535047283335293B0D0A0053504710
:1032D500283336293B0D0A00535047283337293BFD
:1032E5000D0A00535047283338293B0D0A00535027
:1032F50047283339293B0D0A0053504728343029D4
:103305003B0D0A00535047283431293B0D0A005321
:103315005047283432293B0D0A005350472834338F
:10332500293B0D0A00535047283434293B0D0A0028
:10333500535047283435293B0D0A0053504728344C
:1033450036293B0D0A00535047283437293B0D0ACF
:1033550000535047283438293B0D0A00535047285D
:103365003439293B0D0A00535047283530293B0D88
:103375000A00434C53282564293B0D0A005738554C
:1033850045282564293B0D0A004349524628363510
:103395002C35352C31352C31293B0D0A004349524A
:1033A500462836352C35352C31352C32293B0D0A3E
:1033B5000043495246283136352C35352C31352CCC
:1033C50031293B0D0A0043495246283136352C3503
:1033D500352C31352C32293B0D0A005358592830EC
:1033E5002C30293B0D0A0000010047FF2BD51000AA
:1033F5000200000103B501010057FF2BDB12001E7F
:1034050000000103B70201014FFF2BE114000E007C
:10341500000103B8030101BFFF2BE716000E0000F2
:103425000103B90401022FFF2BED1C000700000169
:1034350003BA05010147FF2BF31A00010000010340
:10344500BB000000000000000000000000000000BC
:10345500FF2BF94000000001035804050000018618
:103465009F000000000000000000000000000000B8
:103475000000000000000000000000000000000047
:103485000000000000000000000000000000000037
:103495000000000000000000000000FEB0EDF9B3E0
:1034A500DBDFF0FFFB00004080003F065B4F666DF1
:1034B5007D077F6F771F4E3D4F47FB771F4E3D7949
:1034C50071FB37060E07386A761D7367055B313E5B
:1034D5001C5C313BED000000620800771F4E3D4F3C
:1034E50047FB370638070E6A151D6773505B783E34
:1034F5001C5C313BED0000000000000000000000F6
:1035050000000000000000000000000000000000B6
:1035150000000000000000000000000000000000A6
:103525000000000000000000000000000000000096
:103535000000000000000000000000000000000086
:103545000000000000000000000000000000000076
:103555000000000000000000000000000000000066
:103565000000000000000000000000000000000056
:103575003000000000000000000000000000000016
:103585000000000000000000000000000000000036
:103595000000000000000000000000000000000026
:1035A5000000000000000000000000000000000016
:1035B5000000000000000000000000000000000006
:1035C50000000000000000000000000000000000F6
:1035D50000000000000000000000000000000000E6
:1035E50000000000000000000000000000000000D6
:0B35F5000000000000000000000000CB
:105EED004102740042026C00004103BB0041039467
:105EFD00004603B5021E0E0701004803950402FF7C
:105F0D003455FF33EC420389000041026B0041021E
:105F1D006E0141004300420431000042039E000027
:105F2D004203A700004302710000004203B30000CA
:105F3D00420390000041000A0041000B0042001096
:105F4D0000004200160000420018000042001A0036
:105F5D000041001C0042001D000042001F000042D5
:105F6D0000210000420023000042002500004200F5
:105F7D00270000420029000042002B000042002DA6
:105F8D0000004200310000420033000141003700A3
:105F9D00420038000041003A0042003B0000420040
:105FAD003D000042000000004200020000420004DB
:0C5FBD0000004200060000420008000046
:0469F0007BFFE4FD48
:1069F400900520EBF0A3EAF0A3E9F0A3EDF09005F5
:106A040020E0FBA3E475F0011237EDA9F0FA123689
:106A1400F6FF3395E0FE747F2FF58274343EF583E0
:106A2400E493FD3395E0FC900523E0FF04F0EF339D
:106A340095E0FEEF25E0FFEE33FE745E2FF58274E1
:106A4400063EF583ECF0A3EDF0900523E0C36480EB
:106A540094865010900520E0FBA3E0FAA3E0F9121D
:056A640036F6709A22D5
:10448100E4900523F0EF123B8645060045170145F0
:104491002802453903454A04455B05456C06457DBF
:1044A10007458E08459F0945B00A45C10B45D20C09
:1044B10045E30D45F40E46050F46161046271146F5
:1044C1003812464913465A14466B15467C16468DDA
:1044D10017469E1846AF1946C01A46D11B46E21C24
:1044E10046F31D4704504715514725524735534759
:1044F100455447555547655647755747855847951C
:1045010059000047A390052074FFF0A3742BF0A37A
:1045110074FAF00247A390052074FFF0A3742BF006
:10452100A374FDF00247A390052074FFF0A3742C3F
:10453100F0A37400F00247A390052074FFF0A37468
:104541002CF0A37403F00247A390052074FFF0A39D
:10455100742CF0A37406F00247A390052074FFF0B9
:10456100A3742CF0A37409F00247A390052074FFF3
:10457100F0A3742CF0A3740CF00247A390052074EF
:10458100FFF0A3742CF0A3740FF00247A390052051
:1045910074FFF0A3742CF0A37412F00247A39005EA
:1045A1002074FFF0A3742CF0A37415F00247A390BC
:1045B100052074FFF0A3742CF0A37418F00247A334
:1045C10090052074FFF0A3742CF0A3741BF0024734
:1045D100A390052074FFF0A3742CF0A3741EF002C5
:1045E10047A390052074FFF0A3742CF0A37421F06D
:1045F1000247A390052074FFF0A3742CF0A3742448
:10460100F00247A390052074FFF0A3742CF0A3746B
:1046110027F00247A390052074FFF0A3742CF0A3A8
:10462100742AF00247A390052074FFF0A3742CF0C4
:10463100A3742DF00247A390052074FFF0A3742CFE
:10464100F0A37430F00247A390052074FFF0A37427
:104651002CF0A37433F00247A390052074FFF0A35C
:10466100742CF0A37436F00247A390052074FFF078
:10467100A3742CF0A37439F00247A390052074FFB2
:10468100F0A3742CF0A3743CF00247A390052074AE
:10469100FFF0A3742CF0A3743FF00247A390052010
:1046A10074FFF0A3742CF0A37442F00247A39005A9
:1046B1002074FFF0A3742CF0A37445F00247A3907B
:1046C100052074FFF0A3742CF0A37448F00247A3F3
:1046D10090052074FFF0A3742CF0A3744BF00247F3
:1046E100A390052074FFF0A3742CF0A3744EF00284
:1046F10047A390052074FFF0A3742CF0A37451F02C
:104701000247A390052074FFF0A3742CF0A3745406
:10471100F00247A390052074FFF0A3742CF0A3745A
:104721005AF0807E90052074FFF0A3742CF0A374DE
:1047310060F0806E90052074FFF0A3742CF0A374D8
:1047410066F0805E90052074FFF0A3742CF0A374D2
:104751006CF0804E90052074FFF0A3742CF0A374CC
:1047610072F0803E90052074FFF0A3742CF0A374C6
:1047710078F0802E90052074FFF0A3742CF0A374C0
:104781007EF0801E90052074FFF0A3742CF0A374BA
:1047910084F0800E90052074FFF0A3742CF0A374B4
:1047A1008AF0900520E0FBA3E475F0011237EDA932
:1047B100F0FA1236F6FF3395E0FE747F2FF582741E
:1047C100343EF583E493FD3395E0FC900523E0FF4F
:1047D10004F0EF3395E0FEEF25E0FFEE33FE745E6B
:1047E1002FF58274063EF583ECF0A3EDF0900523DE
:1047F100E0C3648094865010900520E0FBA3E0FAAA
:08480100A3E0F91236F6709AEB
:01480900228C
:046D6E00AC07A905C0
:106D7200AD04E9FF3395E0FEECFB3395E0FAEB2F2F
:106D8200FFEA3EFEEDFB3395E0FAC3EB9FEE648033
:106D9200F8EA6480985018EB25E0FFEA33FE745E4F
:0F6DA2002FF58274063EF583E4F0A3F00D80C355
:016DB10022BF
:0D65DC00900439EFF07B017A0379A9E4FD0A
:0E65E900900520EBF0A3EAF0A3E9F0A3EDF09B
:1065F700E4A3F0900520E0FBA3E0FAA3E0F9900004
:106607000112370FB42E07900524E0B4014D900511
:1066170020E0FBA3E475F0011237EDA9F0FA12367A
:10662700F6FF3395E0FE747F2FF58274343EF583D1
:10663700E493FD3395E0FC900523E0FF04F0EF338E
:1066470095E0FEEF25E0FFEE33FE745E2FF58274D2
:10665700063EF583ECF0A3EDF0805D900520E0FBAE
:10666700A3E475F0011237EDA9F0FA1236F6FF33FD
:1066770095E0FE747F2FF58274343EF583E49344EE
:1066870080FD3395E0FC900523E0FF04F0EF3395A0
:10669700E0FEEF25E0FFEE33FE745E2FF582740611
:1066A7003EF583ECF0A3EDF09005247401F090051E
:1066B70021E475F0011237D7900523E0C364809475
:0666C7008650030265FA93
:0166CD0022AA
:105FE200E4FDEDFF3395E0FEEF25E0FFEE33FE74B6
:105FF200752FF974023EFA7B01EDFF3395E0FEEF57
:106002007803C333CE33CED8F92447F58274003EE9
:10601200F583EBF0A3EAF0A3E9F00DEDB402C3E4DB
:10602200FDEDFF3395E0FEEF25E0FFEE33FE747BDE
:106032002FF974023EFA7B01EDFF3395E0FEEF7813
:1060420003C333CE33CED8F92457F58274003EF51C
:1060520083EBF0A3EAF0A3E9F00DEDB41EC3E4FD77
:10606200EDFF3395E0FEEF25E0FFEE33FE74B92F2E
:10607200F974023EFA7B01EDFF3395E0FEEF7803FF
:10608200C333CE33CED8F9244FF58274013EF58363
:10609200EBF0A3EAF0A3E9F00DEDB40EC3E4FDEDDD
:1060A200FF3395E0FEEF25E0FFEE33FE74D72FF9C4
:1060B20074023EFA7B01EDFF3395E0FEEF7803C3F5
:1060C20033CE33CED8F924BFF58274013EF583EB8B
:1060D200F0A3EAF0A3E9F00DEDB40EC3E4FDEDFF89
:1060E2003395E0FEEF25E0FFEE33FE74F52FF974F1
:1060F200023EFA7B01EDFF3395E0FEEF7803C333F6
:10610200CE33CED8F9242FF58274023EF583EBF01C
:10611200A3EAF0A3E9F00DEDB407C3E4FDEDFF330C
:1061220095E0FEEF25E0FFEE33FE74052FF97403D0
:106132003EFA7B01EDFF3395E0FEEF7803C333CEE9
:1061420033CED8F92447F58274013EF583EBF0A3F0
:0A615200EAF0A3E9F00DEDB401C37B
:01615C002220
:054B6F00900438EFF096
:104B74003395E0FE9033F675F00FEF123B2AEE7595
:104B8400F00FA42583F583E493FF74019390043D0F
:104B9400CFF0A3EFF090043DE475F0011237EDAFD0
:104BA400F0FE12002690043CEFF0E490043FF0A3E2
:104BB400F0900438E0FFFD3395E0FC9033F575F098
:104BC4000FED123B2AEC75F00FA42583F583E493D3
:104BD400FB3395E0FA90043FE0FCA3E0FDC39BEABD
:104BE4006480F8EC6480984003024D15EFB40449E6
:104BF4003395E0FE9033ED75F00FEF123B2AEE751E
:104C0400F00FA42583F583E493FB740193FA7402F3
:104C140093F9C003C002C001EDAE047803C333CEE0
:104C240033CED8F9D001D002D00329F9EA3EFA9064
:104C34000003740175F0C2804C900438E0FF339592
:104C4400E0FE9033ED75F00FEF123B2AEE75F00F96
:104C5400A42583F583E493FB740193FA740293F916
:104C6400C003C002C001EDAE047803C333CE33CE1B
:104C7400D8F9D001D002D00329F9EA3EFA90000312
:104C8400740375F0E7123885900438E0FF3395E03B
:104C9400FE9033ED75F00FEF123B2AEE75F00FA482
:104CA4002583F583E493FB740193FA740293F990DA
:104CB400043FE0FEA3E07803C333CE33CED8F9FF3C
:104CC40029F9EA3EFA900005E4F5F01238859004DB
:104CD40038E0FD3395E0FC9033ED75F00FED123BB9
:104CE4002AEC75F00FA42583F583E493FB740193F8
:104CF400FA7402932FF9EA3EFA900007E412374E51
:104D0400900440E004F0700690043FE004F0024B8D
:104D1400B5903429E493FB740193FA740293F990E7
:104D24000033740175F0F4123885900438E014608F
:104D34002014602D14603A146047146054240570E4
:104D44005E9004397401F0A37402F0A37475F080CA
:104D54004E9004397401F0A37402F0A3747BF080C4
:104D64003E9004397401F0A37402F0A374B9F08086
:104D74002E9004397401F0A37402F0A374D7F08068
:104D84001E9004397401F0A37402F0A374F5F0804A
:104D94000E9004397401F0A37403F0A37405F09029
:104DA4000438E0FF3395E0FE9033F375F00FEF1213
:104DB4003B2AEE75F00FA42583F583E493FF740179
:104DC4009390043DCFF0A3EFF0E4A3F0A3F090049C
:104DD40038E0FF3395E0FE9033F575F00FEF123BAA
:104DE4002AEE75F00FA42583F583E493FF3395E051
:104DF400FEEF2401FFE43EFEC3900440E09FEE6416
:104E040080F890043FE0648098506390043DE4751A
:104E1400F0011237EDAFF0FE120026900439E0FBEA
:104E2400A3E0FAA3E0F9EF12373C90043AE475F0FA
:104E3400011237D790043DE475F0011237EDAFF05D
:104E4400FE120026900439E0FBA3E0FAA3E0F9EF98
:104E540012373C90043AE475F0011237D7900440BD
:0E4E6400E004F0700690043FE004F0024DD22E
:014E7200221D
:106B3C00E4FDEDFF3395E0FEEF25E0FFEE33FE7450
:106B4C00752FF58274023EF583E0FAA3E0FB74091D
:106B5C002FF58274033EF583EAF0A3EBF00DEDB450
:106B6C0002D0E4FDEDFF3395E0FEEF25E0FFEE33C0
:106B7C00FE747B2FF58274023EF583E0FAA3E0FBF2
:106B8C00740D2FF58274033EF583EAF0A3EBF00D40
:046B9C00EDB41ED066
:016BA00022D2
:10679F00900438747FF0A374F9F0E4FF900438E4A8
:1067AF0075F0011237ED85F082F583E493FEEFFD6E
:1067BF003395E0FC743A2DF58274043CF583EEF0CA
:1067CF000FEFB407D790043FE0FE3395E0900373CB
:1067DF00F0A3CEF0E07F00FE900373F0A3EFF090F4
:1067EF000440E0FDEDFF900373EEF0A3EFF07C07A4
:1067FF007DD0123782A3ECF0A3EDF0E4900438F0D3
:10680F00A3F0900376E025E0FF900375E033FE12CE
:10681F00002690043AEFF0900376E025E0FF900316
:10682F0075E033FEEF2401FFE43EFE1200269004D4
:10683F003BEFF0FB90043AE0FDAF05900377E4F0F7
:0B684F00A3EFF0EBFFA3E4F0A3EFF0D9
:01685A00221B
:10587400C2A57A2C79901269F0900397E0F9A3E01D
:10588400FAA3E090042DC9F0A3EAF0A3E9F0E490B0
:105894000437F090042DE0FBA3E0FAA3E0F99004B0
:1058A40037E0FFFD3395E08D82F5837415123B19C3
:1058B400123B56EA494B6008900437E004F080D369
:1058C400900420EFF090039AE0FBA3E0FAA3E0F940
:1058D400900040EBF0A3EAF0A3E9F0900001123B42
:1058E40056900044EBF0A3EAF0A3E9F0E490043707
:1058F400F0900040E0FBA3E0FAA3E0F9900437E065
:10590400FFFD3395E08D82F583740F123B19123736
:105914000FB5070B124B6F900437E004F080D29060
:105924000437E0900269F0126B3C125FE2E49003EA
:105934009DF090026FF09003A5F0A304F0E49003AF
:105944008CF090034DF090034BF0A3F090034EF0D5
:10595400900354123AC400000000E4900371F01262
:10596400679F900377E0FFA3E09002EFCFF0A3EFEF
:10597400F0900379E0FFA3E09002F1CFF0A3EFF001
:10598400E4900372F0900437F0900437E0FFC364AE
:105994008094874003025A1FEF3395E0FEEF7802AC
:1059A400C333CE33CED8F9FF24D7F58274023EF543
:1059B40083E0FCA3E04C702B74D92FF58274023E73
:1059C400F583E0FEA3E04E701A900372E0FF9004AA
:1059D40037E0FE7401A806088002C333D8FC4F9058
:1059E4000372F0900437E0FF3395E0FEEF7802C3D2
:1059F40033CE33CED8F9FF24B9F58274023EF58351
:105A0400E4F0A3F074BB2FF58274023EF583E4F056
:105A1400A3F0900437E004F002598D125147126448
:105A2400E5E47B107A27F9F890037BE0FCA3E0FD22
:105A3400A3E0FEA3E0FF12393D900305EEF0A3EFCF
:105A4400F0E4900349F0A3F0900350F0A3F074FF46
:065A5400900267F0A3F0D0
:015A5A002229
:085A5B00900520EEF0A3EFF02E
:105A63009005CE74AAF0900520E0FEA3E09033F3F6
:105A730075F00F123B2AEE75F00FA42583F583E42E
:105A830093FE740193FF126C4AE49005CEF09005E7
:105A930020E0FEA3E0FFEE7072EF14602014602D8F
:105AA30014603A1460471460542405705E90052214
:105AB3007401F0A37402F0A37475F0804E90052274
:105AC3007401F0A37402F0A3747BF0803E9005226E
:105AD3007401F0A37402F0A374B9F0802E90052230
:105AE3007401F0A37402F0A374D7F0801E90052212
:105AF3007401F0A37402F0A374F5F0800E900522F4
:105B03007401F0A37403F0A37405F0900520E0FE84
:105B1300A3E09033F375F00F123B2AEE75F00FA458
:105B23002583F583E493FF740193900526CFF0A3B7
:105B3300EFF0E4900525F0900520E0FEA3E090331C
:105B4300F575F00F123B2AEE75F00FA42583F5834C
:105B5300E493FF3395E0FEEF2401FFE43EFE90055E
:105B630025E0C39FEE6480F87480984003025C359F
:105B73009005CE74AAF0900526E0FEA3E0FF900501
:105B830022E0FBA3E0FAA3E0F91236F6FD126BA1C3
:105B9300900526E0FEA3E0FF120026AE0790052243
:105BA300E0FBA3E0FAA3E0F91236F66E6007900378
:105BB3004CE04420F0900523E475F0011237D790B0
:105BC3000527E004F07006900526E004F090052612
:105BD300E0FEA3E0FF900522E0FBA3E0FAA3E0F9D7
:105BE3001236F6FD126BA1900526E0FEA3E0FF122C
:105BF3000026AE07900522E0FBA3E0FAA3E0F9122A
:105C030036F66E600790034CE04420F0900523E4E1
:105C130075F0011237D7900527E004F07006900560
:105C230026E004F0E49005CEF0900525E004F002B0
:0B5C33005B3A126B3C90059A7401F084
:015C3E002243
:106CE200EF14601814601D14602214602714602CC5
:106CF200240570337BFF7A2C799680267BFF7A2CD1
:106D0200799C801E7BFF7A2C79A280167BFF7A2CDD
:106D120079A8800E7BFF7A2C79AE80067BFF7A2CD5
:086D220079B4E4FD1269F422CA
:10004600783D7C047D017BFF7A3479FF7E007F64F6
:100056001236D0E49004A2F0A3F0A3F0A3F078A99E
:100066007C047D017BFF7A357963FE7F061236D0EC
:1000760078AF7C047D017BFF7A3579697E007F0647
:100086001236D078B57C047D017BFF7A35796F7E98
:10009600007F061236D0A2A4E4335401FF90026713
:1000A600E0FCA3E054FEFDECFEED4FFF900267EE90
:1000B600F0A3EFF0A2A3E433540125E0FFE433FEFE
:1000C600900267E0FCA3E054FDFDEC4EFEED4FFF11
:1000D600900267EEF0A3EFF0A2A2E4FE335401789B
:1000E60002C333CE33CED8F9FF900267E0FCA3E01B
:1000F60054FBFDEC4EFEED4FFF900267EEF0A3EFD2
:10010600F0A2A1E4FE3354017803C333CE33CED834
:10011600F9FF900267E0FCA3E054F7FDEC4EFEED1C
:100126004FFF900267EEF0A3EFF0A2A0E433540174
:10013600C4F8540FC868FFE4C454F048FE90026740
:10014600E0FCA3E054EFFDEC4EFEED4FFF9002679E
:10015600EEF0A3EFF0A2B5E4FE3354017805C33305
:10016600CE33CED8F9FF900267E0FCA3E054DFFD62
:10017600EC4EFEED4FFF900267EEF0A3EFF0A2B358
:10018600E4FE3354017806C333CE33CED8F9FF905C
:100196000267E0FCA3E054BFFDEC4EFEED4FFF907E
:1001A6000267EEF0A3EFF0A2B2E4FE335401780743
:1001B600C333CE33CED8F9FF900267E0FCA3E054F8
:1001C6007FFDEC4EFEED4FFF900267EEF0A3EFF0E1
:1001D600A2A6E4335401FE900267E054FEFCA3E0BD
:1001E600FDEC4EFFED900267CFF0A3EFF0A2A7E47F
:1001F60033540125E0FE900267E054FDFCA3E0FDC8
:10020600EC4EFFED900267CFF0A3EFF0A292E4333D
:10021600540125E025E0FE900267E054FBFCA3E0D4
:10022600FDEC4EFFED900267CFF0A3EFF0A293E452
:1002360033540133333354F8FE900267E054F7FC2D
:10024600A3E0FDEC4EFFED900267CFF0A3EFF0A226
:1002560096E4335401C454F0FE900267E054EFFC78
:10026600A3E0FDEC4EFFED900267CFF0A3EFF0A206
:1002760097E4335401C43354E0FE900267E054DF40
:10028600FCA3E0FDEC4EFFED900267CFF0A3EFF08C
:10029600A2CCE4335401C4333354C0FE900267E069
:1002A60054BFFCA3E0FDEC4EFFED900267CFF0A338
:1002B600EFF0A2CDE4335401C43333335480FE90BF
:1002C6000267E0547FFCA3E0FDEC4EFFED90026771
:1002D600CFF0A3EFF0900267E0FFA3E0900016CF07
:1002E600F0A3EFF090001AE0FEA3E0FF900016E006
:1002F600FCA3E0FD6F7002EC6E6079900349E0FEAE
:10030600A3E0FF900027EEF0A3EFF0900023E0704B
:1003160002A3E0701190002FEEF0A3EFF090000A18
:10032600E04401F0800790000AE054FEF090001FC0
:10033600E0FEA3E0FF900349E0FAA3E0FBC39FFFC2
:10034600EA9EFED3EF9432EE9400402590001AEC1C
:10035600F0A3EDF090001DEAF0A3EBF0E49000218D
:10036600F0A3F0A3F0A3F0900033F0A304F002048E
:100376007B02047490002FE0FEA3E0FF900349E0A7
:10038600FCA3E0FDC39FFFEC9EFED3EF9432EE94F8
:1003960000400790000AE054FEF0900027E0FEA31C
:1003A600E0FFC3ED9FFFEC9EFED3EF9430EE947515
:1003B6004034900349E0FFA3E0900027CFF0A3EF7D
:1003C600F090002DE07002A3E0701B9003A5E07092
:1003D60004A3E06411600F9003A5E4F0A304F0E425
:1003E60090002BF0A3F090001DE0FEA3E0FF900329
:1003F60049E0FCA3E0FDC39FFFEC9EFED3EF9432E1
:10040600EE9400406990001FECF0A3EDF09000160A
:10041600E0FEA3E0F47002EEF4605A900023E07070
:1004260002A3E07050900022E004F07006900021D4
:10043600E004F0D3900022E09464900021E0648010
:1004460094804031900023E4F0A304F0900033E45C
:10045600F0A304F0E4900031F0A3F0900025ECF056
:10046600A3EDF0900021E4F0A3740AF08007E49075
:100476000016F0A3F0900023E07002A3E0605B900A
:100486000025E0FEA3E0FF900349E0FCA3E0FDC3E6
:100496009FFFEC9EFED3EF9464EE9400403C9000E8
:1004A60032E004F07006900031E004F0900031E094
:1004B600FEA3E0FFD39432EE648094804007A3E469
:1004C600F0A3740AF0EF4E6008900025ECF0A3ED5F
:1004D600F0900018E4F0A374FFF0900016E0FEA37D
:1004E600E0FF4E6021A3E0FCA3E0FDEF6D7002EE9D
:1004F6006C600C900016A3A3EEF0A3EFF08007E467
:10050600900016F0A3F0900016E0FEA3E0FFF47052
:1005160003EE64FD6012EFF47003EE64FB6009EF16
:10052600F47003EE64F77042900371E0FF60209070
:100536000016E0B4FB19A3E0B4FF14EF3395E0FE18
:10054600EF2414FFE43E90034BF0A3EFF0801B90E2
:1005560005D47401F0900016E0FFA3E0900389CF64
:10056600F0A3EFF090026B7402F090003DE0FEA362
:10057600E0FFEE6003020607EF24F6602524F6602E
:10058600562414707C20947990003DE4F0A3740AFC
:10059600F0900349E0FFA3E090003BCFF0A3EFF01B
:1005A600805F20942990003BE0FEA3E0FFC3900308
:1005B6004AE09FFF900349E09EFED3EF9464EE94D9
:1005C60000403E90003DE4F0A37414F08033E490C4
:1005D600003DF0A3F0802A3094279005D47401F0F2
:1005E60090038974FFF0A374EEF090026B7402F02E
:1005F600E490003DF0A3F090039274FFF0A374EE34
:10060600F090026CE0FEA3E0FF64084E700302085F
:1006160022900016E0FCA3E08CF0123BAC066B00C7
:100626000007FF7FFF07F1BFFF07E1DFFF07D1EFFD
:10063600FF07C1F7FF07B1FBFF07A1FDFF0775FE27
:10064600FF0764FF7F0745FFBF0734FFDF0814FF7E
:10065600EE0723FFEF06D5FFF70699FFFE066BFFB1
:10066600FF00000822900392E0B4FF0FA3E0B4EE6F
:100676000AE4900392F0A3F0020814900431E070AB
:1006860004A3E064019002717003020789E4F0A3F9
:1006960002079BEF64024E600C90026CE07004A3AC
:1006A600E0640370189003A5E07004A3E064017091
:1006B6000C90038EF0A3F090026CF0A3F09003B3BD
:1006C600E07004A3E06401600302082202080B90B4
:1006D600026CE0FEA3E0FF64024E6006EF64034E88
:1006E600700C9003A5E07004A3E06401601D900205
:1006F6006CE07002A3E070139003A5E07004A3E021
:100706006401700790026CF0A304F09003B3E070EC
:1007160004A3E06401600302082202080B90027140
:1007260074FFF0A3742CF0A374C4F00208229002A4
:100736007174FFF0A3742CF0A374C9F00208229020
:1007460003B3E07004A3E064017007900390F0A384
:1007560004F090026CE4F0A37408F0020822900200
:100766007174FFF0A3742CF0A374CEF002082290EB
:100776000431E07002A3E07018900431F0A304F095
:1007860090027174FFF0A3742CF0A374BFF00208FA
:1007960022E4900431F0A3F002082290027174FF63
:1007A600F0A3742CF0A374D3F0807190027174FFDF
:1007B600F0A3742CF0A374D8F0806190027174FFDA
:1007C600F0A3742CF0A374DDF0805190027174FFD5
:1007D600F0A3742CF0A374E2F0804190027174FFD0
:1007E600F0A3742CF0A374E7F080319003B3E070AB
:1007F60004A3E064017025800C9003B3E07004A3A9
:10080600E064017017900390F0A304F0800E90024C
:100816007174FFF0A3742CF0A374BAF09003A5E0F2
:10082600FEA3E0FFEE6003021969EF24FE700302E7
:100836000D1D1470030211041470030214AE24FB80
:10084600700302192D24F97003020FDC14700302E1
:100856000F2624106003021969900016E0FEA3E03B
:100866008EF0123BAC09EB7FFF0975BFFF0ACFFF85
:10087600BF0A67FFF708DEFFFB0945FFFD088BFF90
:10088600FE00000AE9E490003AF090002BE07002C6
:10089600A3E070299003A07430F0A3F0A3F0A3F0B6
:1008A600A3F090038B7404F07B017A0379A0E4FD36
:1008B6001269F49003A5E4F0A37402F022900043B9
:1008C600E0B4010AE4F0900037F09003BBF0E49046
:1008D600002BF0A3F0020AE9E490003AF09000231E
:1008E600E07002A3E0604590002BE07002A3E07088
:1008F6003B90037BE0FCA3E0FDA3E0FEA3E0FFA3A7
:10090600E0F8A3E0F9A3E0FAA3E0FBC31239F36031
:100916001B90037BE0FCA3E0FDA3E0FEA3E0FFA3A6
:10092600123AB89005CD7401F012685B90026EE041
:1009360064016003020AE990059D04F0E48029E45D
:1009460090003AF0900349E0FFA3E0900029CFF031
:10095600A3EFF0A3E4F0A37405F090026EE0600349
:10096600020AE990059D04F090026EF0020AE9E49D
:1009760090003AF090002BE07002A3E06003020AB8
:10098600E9900040E0FBA3E0FAA3E0F99000011231
:100996003B56900044EBF0A3EAF0A3E9F0E49004A0
:1009A60021F0A3F0A304F0E490026FF090000B0492
:1009B600F0E490002DF0A3F0FC7D0FFFFE123770DF
:1009C600900040E0FBA3E0FAA3E02FF9EA3EFA909C
:1009D600000912370F900430F0D3648094805003DE
:1009E600022BD48072E490003AF090002BE0700263
:1009F600A3E06003020AE9900040E0FBA3E0FAA34B
:100A0600E0F9900001123B56900044EBF0A3EAF0A7
:100A1600A3E9F0E4900421F0A304F0A3F090026FA0
:100A2600F090000BF0E490002DF0A3F0FC7D0FFF9A
:100A3600FE123770900040E0FBA3E0FAA3E02FF926
:100A4600EA3EFA90000912370F900430F0D3648022
:100A560094805003022BD49003A5E4F0A37403F012
:100A660022900043E07037900023E07002A3E0601C
:100A76001090003AE0C3648094A8500AE004F08025
:100A860005E490003AF0900349E0FFA3E0900029C6
:100A9600CFF0A3EFF0A3E4F0A37402F08045900535
:100AA600D47401F090038974FFF0A374BFF0900230
:100AB6006B7402F0E490002BF0A3F0900043F090EA
:100AC6000037F09003BBF0801A900043E07014905A
:100AD600057B04F090002BE4F0A37404F09000432F
:100AE6007401F090002BE07002A3E06003020C5743
:100AF600900396E0FF90000EE4F0A3EFF090026FF3
:100B0600E0900438F090034BE07002A3E06003022B
:100B16000BAD90034DE0704CA3E0B401109003BB05
:100B26007401F0900037E0700B04F0800790000A23
:100B3600E054FDF090037FE0F8A3E0F9A3E0FAA308
:100B4600E0FB90037BE0FCA3E0FDA3E0FEA3E0C393
:100B56009BFFEE9AFEED99FDEC98FC900358123A35
:100B6600B8020BDE7A2C79EC1269F090034DE0FBAB
:100B7600547FFF3395E0FEFDFC900012123AB8EB6D
:100B860030E708900037E0700204F0124E819004BE
:100B960039EFF07B017A0379AC7D031265E99003A6
:100BA600BB7401F0020C2290034BE0FEA3E0FF644D
:100BB6000B4E6006EF640C4E703490034EE0B401A9
:100BC600109003BB7401F0900037E0700B04F080C6
:100BD6000790000AE054FDF0900358E0FCA3E0FD06
:100BE600A3E0FEA3E0FF124E7B1265DC802E7BFFA6
:100BF6007A2C79F0E4FD1269F4900037E070020473
:100C0600F090034B124E73900439EFF07B017A0398
:100C160079AC7D031265E9E49003BBF090038CE0A8
:100C26007003020CFD900395E0FF90039DE004FE27
:100C3600F0D3EF6480F8EE6480985003020CFDE474
:100C4600F090026FE004F0E490000EF0A3F0020CC6
:100C5600FD90002BE07004A3E06402703390035211
:100C6600124E731265DC900029E0FEA3E0FFC390EC
:100C7600034AE09FFF900349E09EFED3EF94D0EE37
:100C86009407407390002BE4F0A37403F0020CFD6C
:100C960090002BE07004A3E064037005900350807D
:100CA6003590002BE07004A3E06404701A7BFF7A91
:100CB6002C79F4FD1269F4900037E0700204F0908C
:100CC60003BB7401F0803090002BE07004A3E06455
:100CD600057024900373E0FEA3E0FFE4FCFD9000A2
:100CE60012123AB8900012A3A3E0FEA3E0FFE4FDBF
:100CF600FC124E7B1265DC90003AE0642860030229
:100D06001971F09003A5F0A37410F090002BE4F095
:100D1600A37404F002108D900016E0FEA3E08EF09E
:100D2600123BAC0D90FFF70D4AFFFB0D60FFFD0D6A
:100D36003DFFFE00000F06E490026FF09003A5F061
:100D4600A304F02290038BE014F0C36480948040E7
:100D560003020F067404F0020F0690038BE0FF33C4
:100D660095E0FE74A02FF58274033EF583E004F04F
:100D7600D3648094B95003020F0674A02FF58274D1
:100D8600033EF5837430F0020F069004377401F0C9
:100D9600900269E0FF900437E0FEC3EF6480F8EE4E
:100DA6006480984003022BD4900040E0FBA3E0FA55
:100DB600A3E0F9EE75F00FA4FFE92FF9E43AFA90F3
:100DC6000004123B561236F6FF9003A0E06F600354
:100DD600020EFD900437E0FF3395E0FE7C007D0FA8
:100DE600123770900040E0FBA3E0FAA3E02FF9EA87
:100DF6003EFA900004123B5690000112370FFF9006
:100E060003A1E06F6003020EFD90000212370FFF90
:100E16009003A2E06F6003020EFD90000312370FED
:100E2600FF9003A3E06F6003020EFD9000041237EB
:100E36000FFF9003A4E06F6003020EFD900437E0FD
:100E4600FFB404289002EBE07002A3E0700A90025F
:100E5600EDE07002A3E06014900372E020E50D90CF
:100E66000301E07002A3E06003022BD4EF3395E0A8
:100E7600FE90002DF0A3EFF07C007D0F12377090EE
:100E86000040E0FBA3E0FAA3E02FF9EA3EFA900067
:100E960001123B56900044EBF0A3EAF0A3E9F09070
:100EA600002DE0FEA3E0FF900421F0E4A3F0A304EC
:100EB600F0E490026FF0123770900040E0FBA3E080
:100EC600FAA3E02FF9EA3EFA90000912370F9004D0
:100ED60030F0D36480948040099003A5E4F0A374B5
:100EE60003F0900430E0D36480949440037414F0CB
:100EF6009004A1740AF022900437E004F0020D96E3
:100F0600900010E07002A3E0600D900023E07002F4
:100F1600A3E070030218987B017A0379A002196294
:100F2600900016E0FEA3E08EF0123BAC0F3AFFFEF7
:100F360000000F6EE490002BF0A3F090038B740476
:100F4600F0E490039DF09004217478F090042374EB
:100F560001F0E490026FF09003A5F0A304F0E49092
:100F66000037F09003BBF02290034BE0FEA3E0FFB6
:100F7600640B4E6006EF640C4E7044EF640B4E70CB
:100F8600147BFF7A2C79FAFD1269F4900037E07031
:100F96002504F0802190034BE07004A3E0640C600C
:100FA600030219717BFF7A2D7900FD1269F4900016
:100FB60037E0700204F09003BB7401F00219717BF4
:100FC600FF7A2D7906E4FD1269F4E4900037F0907B
:100FD60003BBF0021971900016E0FEA3E08EF0123A
:100FE6003BAC10FB7FFF10F2BFFF10AADFFF10B370
:100FF600EFFF10A1F7FF1098FBFF10E0FDFF10D7E1
:10100600FEFF10CEFF7F10E9FFBF10BCFFDF10C54B
:10101600FFEF1079FFFB1051FFFD1028FFFE0000C7
:101026001971E490002BF0A3F090038B7404F0E4A4
:1010360090039DF09004217478F09004237401F0DD
:10104600E490026FF09003A502196D900394E0C33B
:10105600648094815009E004F09005D57401F09005
:101066000394E0FF126CE2900394E0D364809480D2
:10107600021971900394E0D3648094804009E014CF
:10108600F09005D57401F0900394E0FF126CE20233
:1010960019717BFF7A2D790C0219627BFF7A2D7903
:1010A600120219627BFF7A2D79180219627BFF7A88
:1010B6002D791E0219627BFF7A2D79240219627B33
:1010C600FF7A2D792A0219627BFF7A2D793002196F
:1010D600627BFF7A2D79360219627BFF7A2D793C85
:1010E6000219627BFF7A2D79420219627BFF7A2D03
:1010F60079480219627BFF7A2D794E0219629000B7
:1011060016E0FEA3E08EF0123BAC11BEFFF71151C4
:10111600FFFB1187FFFD1124FFFE00001221E49062
:10112600002BF0A3F090038B7404F0E490039DF081
:101136009004217478F09004237401F0E490026F17
:10114600F09003A5F0A304F002122190026FE0FFD5
:1011560014F0EF7009900430E01490026FF09002E2
:101166006FE0900422F0F0A37401F09004A1E0FF78
:1011760014F0EFD3940A4003021221741DF00212F8
:1011860021900430E0FF90026FE004FEF0C3EF64AC
:1011960080F8EE6480984002E4F090026FE09004DC
:1011A60022F0A37401F09004A1E0FF04F0EFC394D1
:1011B6001D4068740AF08063900421E0FDB40427A2
:1011C60090026FE0FF74017E00A807088005C33314
:1011D600CE33CED8F9FF900372E0FB3395E05EFE86
:1011E600EF5B4E6036802EEDB4032A90026FE0A2CC
:1011F600E713FF74017E00A807088005C333CE33CA
:10120600CED8F9FF900372E0FD3395E05EFEEF5D08
:101216004E6008800090000B7405F0900421E0FFFA
:10122600700890000BE0600204F090000BE064058B
:1012360060030213BDF090026FE0FE900438F09058
:10124600038B7404F09002707402F0EFB40331EE75
:10125600A2E713FF74017E00A807088005C333CEFA
:1012660033CED8F9FF900372E0FD3395E05EFEEFD2
:101276005D4E700C900385123AC400000000802079
:10128600900429E0FBA3E0FAA3E0F9123B361238FA
:1012960003FFAEF0EE3395E0FDFC900385123AB8FD
:1012A6009003A5E4F0A37404F0900438E0FF3395AE
:1012B600E0FEEF7803C333CE33CED8F9FF90004477
:1012C600E0FBA3E0FAA3E02FF9EA3EFA900429EB4B
:1012D600F0A3EAF0A3E9F09002707402F0123B3634
:1012E600C0039005247403F0E4A3F0A304F0A374F0
:1012F60003F0A374A9F0E4A3F0A37402F0D003FDF5
:10130600124EA4900439EFF090038D7403F090030D
:10131600A07430F0A3F0740314606D14604314607D
:10132600030213AE900439E0FFFD3395E0FC74A987
:101336002DF58274033CF583E0FE9003A2F0BE20F7
:10134600037430F0EF3395E0FE74AA2FF582740330
:101356003EF583E0FD9003A3F0BD20037430F080DA
:10136600389003A27420F0900439E0FF3395E0FE34
:1013760074AA2FF58274033EF583E0FD9003A3F073
:10138600BD20037430F080119003A27420F0A3F006
:10139600900439E0FF3395E0FE74AB2FF5827403B9
:1013A6003EF583E09003A4F0E4900035F0A3F090BE
:1013B60003A5F0A37404F0D390000FE0940090000E
:1013C6000EE09400400FA3E024FFF090000EE034FE
:1013D600FFF0021971900396E0FF90000EE4F0A36F
:1013E600EFF090026FE0FDFF3395E0FEEF7803C368
:1013F60033CE33CED8F9FF900044E0FBA3E0FAA346
:10140600E02FF9EA3EFA900429EBF0A3EAF0A3E90B
:10141600F0900421E0B40331EDA2E713FF74017EDE
:1014260000A807088005C333CE33CED8F9FF900352
:1014360072E0FD3395E05EFEEF5D4E700C90038525
:10144600123AC4000000008020900429E0FBA3E0CB
:10145600FAA3E0F9123B36123803FFAEF0EE3395ED
:10146600E0FDFC900385123AB890026FE0FF12444B
:10147600819005247403F0E4A3F07B01A304F0A398
:101486007403F0A374A9F0E4A3F0A37402F07A0342
:1014960079857D04124EA4900439EFF024A9F9E46D
:1014A6003403FA7B01021926900016E0FEA3E08EB3
:1014B600F0123BAC1637FFF714DAFFFB158AFFFD77
:1014C60014CEFFFE00001884900421E06003021889
:1014D6007B02185090026FE0FF3395E0FEEF780331
:1014E600C333CE33CED8F9FF900044E0FBA3E0FA35
:1014F600A3E02FF9EA3EFA90000712370F30E00317
:10150600021884900385E0FCA3E0FDA3E0FEA3E0BF
:10151600FFC006C007900033E0FEA3E0FBAA06EA80
:101526003395E0F9F8D007D006C3EF9BFFEE9AFE9D
:10153600ED99FDEC98FC900385123AB8900429E0E9
:10154600FBA3E0FAA3E0F990000512382EFFAEF0F7
:10155600EE3395E0FDFC900385E0F8A3E0F9A3E007
:10156600FAA3E0FBC31239DD400302188490042974
:10157600E0FBA3E0FAA3E0F990000512382EFFAED7
:10158600F002162890026FE0FF3395E0FEEF780335
:10159600C333CE33CED8F9FF900044E0FBA3E0FA84
:1015A600A3E02FF9EA3EFA90000712370F30E00366
:1015B600021884900385E0F8A3E0F9A3E0FAA3E01B
:1015C600FB900033E0FEA3E0FFEE3395E0FDFCEB7D
:1015D6002FFFEA3EFEE93DFDE83CFC900385123A0A
:1015E600B8900429E0FBA3E0FAA3E0F99000031207
:1015F600382EFFAEF090043BEEF0A3EFF0EE3395FD
:10160600E0FDFC900385E0F8A3E0F9A3E0FAA3E08F
:10161600FBD31239DD500302188490043BE0FEA38D
:10162600E0FFEE3395E0FDFC900385123AB8021810
:1016360084900023E07002A3E0600302184A7B0155
:101646007A0379A0900270E0900524F07D0512617E
:101656005D900385123AB8900429E0FBA3E0FAA353
:10166600E0F990000312382EFFAEF0EE3395E0FD60
:10167600FC900385E0F8A3E0F9A3E0FAA3E0FBD32E
:101686001239DD400302184A900429E0FBA3E0FA70
:10169600A3E0F990000512382EFFAEF0EE3395E088
:1016A600FDFC900385E0F8A3E0F9A3E0FAA3E0FBD4
:1016B600C31239DD500302184A7E007F02E47066C9
:1016C600EF14604814602524FE705B900385E0FCEF
:1016D600A3E0FDA3E0FEA3E0FF900429E0FBA3E066
:1016E600FAA3E0F9123B36123A7A803A900385A3C0
:1016F600A3E0FEA3E0FF900429E0FBA3E0FAA3E049
:10170600F9123B36EE8FF0123866801A900385A3E5
:10171600A3A3E0FF900429E0FBA3E0FAA3E0F912FB
:101726003B36EF12373C9003A2E0B4300B7420F046
:10173600A3E0B430037420F07B017A0379A27D0222
:101746001265E9900421E06402600302183E9002EB
:101756006FE0A2E713FDFF3395E0FEEF7802C33397
:10176600CE33CED8F9FF24B9F58274023EF583E074
:10177600FAA3E0FB74D72FF58274023EF583E0FEF0
:10178600A3E06B7002EE6A6003021833EDFF339537
:10179600E0FEEF7802C333CE33CED8F9FF24BBF593
:1017A6008274023EF583E0FAA3E0FB74D92FF5823A
:1017B60074023EF583E0FEA3E06B7002EE6A706D84
:1017C600900372E0FF7401A805088002C333D8FCB9
:1017D6004F900372F0EDFF3395E0FEEF25E0FFEE4C
:1017E60033FE74F52FF58274023EF583E4F0A3F020
:1017F60090043AF090043AE0FFC3ED6480F8EF6499
:1018060080985022EF3395E0FEEF25E0FFEE33FEA1
:1018160074F52FF58274023EF583E4F0A3F090048C
:101826003AE004F080CE7F047E00125A5B9003A556
:10183600E4F0A37403F0800C900421E0FF3395E0FC
:10184600FE125A5B900421E0702B90002BF0A3F05F
:1018560090038B7404F0E490039DF0900421747857
:10186600F09004237401F0E490026FF09003A5F069
:10187600A304F080099003A5E4F0A37403F090009C
:1018860010E07002A3E06017900023E07002A3E06E
:10189600700D90038BE0FF7D01126D6E0219719041
:1018A600026FE0FF1244819005247405F0E4A3F072
:1018B6007B01A304F0A37403F0A374A9F0E4A3F0DE
:1018C600A37402F07A0379857D04124EA49004393C
:1018D600EFF03395E0FE74A92FF58274033EF5838D
:1018E600E0FF9003A2F0BF20037430F0900439E0CB
:1018F600FF3395E0FE74AA2FF58274033EF583E06C
:10190600FD9003A3F0BD20037430F074AB2FF58275
:1019160074033EF583E09003A4F07B017A0379A279
:101926007D021265E98044900427E0FEA3E0FFC330
:1019360090034AE09FFF900349E09EFED3EF94E8B0
:10194600EE94034011900425E0FE3395E09003A544
:10195600F0A3CEF080157BFF7A2D7954E4FD126951
:10196600F480089003A5E4F0A304F09003A5E0FE3C
:10197600A3E0FF90038EE06E7003A3E06F70030296
:021986001E2918
:101988009004BB74FFF0A3742DF0A3745AF0A374F1
:10199800FFF0A3742DF0A3745FF0A374FFF0A37499
:1019A8002DF0A37464F09003B3E07004A3E0640125
:1019B8007007900390F0A304F09003A5E0FEA3E065
:1019C800FF90038EEEF0A3EFF0EE6003021E29EF06
:1019D800123B8619FD011B41021B58031CAD051C57
:1019E800FB061D2B071D5B081D8B091DBA101DE981
:1019F8001100001E2990034BE07002A3E06003026F
:101A08001E29FFFE126BFD7BFF7A2D7969126DF698
:101A18007F537E007D007C00126AE37BFF7A2D797C
:101A280088126DF67F537E007D007C00126AE37B8E
:101A3800FF7A2D799F126DF67BFF7A2D799F126DB3
:101A4800F67F537E007D007C00126AE390054574A2
:101A5800FFF0A3742DF0A374AAF09004BBE0F9A3DF
:101A6800E0FAA3E0900548C9F0A3EAF0A3E9F07B07
:101A7800017A04793D12486F7B017A04793D126D31
:101A8800F67F537E007D007C00126AE37BFF7A2D8F
:101A980079BF126DF67BFF7A2D79CA126DF67F53E6
:101AA8007E007D007C00126AE390054574FFF0A378
:101AB800742DF0A374AAF09004BEE0F9A3E0FAA391
:101AC800E0900548C9F0A3EAF0A3E9F07B017A04A5
:101AD800793D12486F7B017A04793D126DF67BFFE0
:101AE8007A2D79BF126DF67F537E007D007C00123F
:101AF8006AE37BFF7A2D79D5126DF690054574FF60
:101B0800F0A3742DF0A374AAF09004C1E0F9A3E047
:101B1800FAA3E0900548C9F0A3EAF0A3E9F07B0135
:101B28007A04793D12486F7B017A04793D126DF68B
:101B38007BFF7A2D79BF021CEA126BFA7F537E0075
:101B48007D007C00126AE37BFF7A2D79E0021CEAB3
:101B5800126BFA900421E0704EA3E0704A9005459C
:101B680074FFF0A3742DF0A374FFF0A374FFF0A327
:101B7800742BF0A374FAF07B017A04793D12486F54
:101B88007B017A04793D126DF67F537E007D007CDF
:101B980000126AE390054574FFF0A3742EF0A37455
:101BA80014F09004BB8049900421E07057A3E064CE
:101BB80001705190054574FFF0A3742DF0A374FFD4
:101BC800F0A374FFF0A3742BF0A374FDF07B017AEB
:101BD80004793D12486F7B017A04793D126DF690C5
:101BE800054574FFF0A3742EF0A37414F09004BE9E
:101BF800E0F9A3E0FAA3E0900548C9F0A3EAF0A34E
:101C0800E9021E167BFF7A2E792B126DF6900422BC
:101C1800E0240AFF1263DE900422E0FF3395E0FE21
:101C2800EF7803C333CE33CED8F9FF900044E0FBFE
:101C3800A3E0FAA3E02FF9EA3EFA9004A6EBF0A39A
:101C4800EAF0A3E9F0123B36123803FFAEF0EE33A8
:101C580095E0FDFC900385123AB8900385A3A3E0B4
:101C6800FEA3E0FF9004A4EEF0A3EFF09005457406
:101C7800FFF0A3742EF0A37435F0A3EEF0A3EFF0F9
:101C88007B017A0479A912486F90054574FFF0A387
:101C9800742EF0A37438F0A37401F0A37404F0A3B5
:101CA80074A9021E167BFF7A2E792B126DF67F53CC
:101CB8007E007D007C00126AE390054574FFF0A366
:101CC800742EF0A3744FF0A374FFF0A3742EF0A346
:101CD8007468F07B017A04793D12486F7B017A04BD
:101CE800793D126DF67F537E007D007C00126AE319
:101CF800021E297BFF7A2E792B126DF67F537E0008
:101D08007D007C00126AE390054574FFF0A3742EF1
:101D1800F0A3744FF0A374FFF0A3742EF0A37475AE
:101D2800021E167BFF7A2E792B126DF67F537E00EA
:101D38007D007C00126AE390054574FFF0A3742EC1
:101D4800F0A3744FF0A374FFF0A3742EF0A3747E75
:101D5800021E167BFF7A2E792B126DF67F537E00BA
:101D68007D007C00126AE390054574FFF0A3742E91
:101D7800F0A3744FF0A374FFF0A3742EF0A374893A
:101D8800021E167BFF7A2E792B126DF67F537E008A
:101D98007D007C00126AE390054574FFF0A3742E61
:101DA800F0A3744FF0A374FFF0A3742EF0A37496FD
:101DB800805C7BFF7A2E792B126DF67F537E007D37
:101DC800007C00126AE390054574FFF0A3742EF0BE
:101DD800A3744FF0A374FFF0A3742EF0A374A7802C
:101DE8002D7BFF7A2E792B126DF67F537E007D00B6
:101DF8007C00126AE390054574FFF0A3742EF0A3EB
:101E0800744FF0A374FFF0A3742EF0A374B4F07BA6
:101E1800017A04793D12486F7B017A04793D126D8D
:011E2800F6C3
:101E29009003A5E0FEA3E0FFEE600302256DEF2419
:101E3900FE70030224771470030224B014700302A5
:101E490024D62403600302256D90026CE0FEA3E012
:101E5900FFEE600302256DEF14700302222F147048
:101E6900030223621470030223BD24FB70030223BF
:101E7900ED2408600302256D9003A7E0FEA3E0FFAF
:101E8900C390034AE09FFF900349E09EFED3EF947D
:101E9900F4EE940150030220FC9003B3E07002A316
:061EA900E060030220FCD2
:101EAF0078BB7C047D017BFF7A357975FE7F091243
:101EBF0036D0E49004C4F0A3F0900349E0FFA3E010
:101ECF009003A7CFF0A3EFF0900040E0FBA3E0FA60
:101EDF00A3E0F9900001123B569004A6EBF0A3EAA1
:101EEF00F0A3E9F0123B36123803FF9004A2E5F09D
:101EFF00F0A3EFF090054574FFF0A3742EF0A374D8
:101F0F0035F09004A2E0FFA3E0900548CFF0A3EFD7
:101F1F00F07B017A0479AF12486F900040E0FBA389
:101F2F00E0FAA3E0F9900001123B56E92408F9E426
:101F3F003AFA9004A6EBF0A3EAF0A3E9F0123B36CD
:101F4F00123803FF9004A4E5F0F0A3EFF0900545DD
:101F5F0074FFF0A3742EF0A37435F09004A4E0FF87
:101F6F00A3E0900548CFF0A3EFF07B017A0479B599
:101F7F0012486F7BFF7A2D799F126DF6900545748D
:101F8F00FFF0A3742EF0A374BDF0A37401F0A3743B
:101F9F0004F0A374AFF07B017A04793D12486F7B94
:101FAF00017A04793D126DF67BFF7A2D79CA126D95
:101FBF00F690054574FFF0A3742EF0A374BDF0A343
:101FCF007401F0A37404F0A374B5F07B017A047963
:101FDF003D12486F7B017A04793D126DF67BFF7AD3
:101FEF002D79D5126DF690054574FFF0A3742EF080
:101FFF00A374D4F0900358E0FCA3E0FDA3E0FEA38C
:10200F00E0FF900548123AB87B017A04793D1248F7
:10201F006F7B017A04793D126F849004C4EEF0A3B4
:10202F00EFF0E490043AF090043AE0FFC364809438
:10203F0089501AEF3395E0FE74BB2FF58274043E7E
:10204F00F5837430F090043AE004F080DAE4900401
:10205F003AF090043AE0FFFD3395E0FC9004C4E0C1
:10206F00FAA3E0FBD39DEC6480F8EA6480984043C8
:10207F00EF64809488503C90043AE03395E0FC7410
:10208F003D2DF58274043CF583E0FEC374089BFD7F
:10209F00E49AFCEFFB3395E0FAED2BFDEC3AFC7480
:1020AF00BB2DF58274043CF583EEF090043AE00406
:1020BF00F0809FE49004C3F090054574FFF0A37483
:1020CF002EF0A374BDF0A37401F0A37404F0A374F5
:1020DF00BBF07B017A04793D12486F7B017A04795A
:0D20EF003D126DF67BFF7A2D79BF126DF664
:1020FC00900271E0FBA3E0FAA3E0F9EA494B70030C
:10210C000221BE9003B3E07002A3E060030221BE83
:10211C0090039EE0FEA3E0FF900349E0FCA3E0FDEA
:10212C00C39FFFEC9EFED3EF94F4EE940150030298
:02213C00256D0F
:10213E0090039EECF0A3EDF07BFF7A2E79D8126D12
:10214E00F6900000E07002A3E0900545600C74FF6D
:10215E00F0A3742EF0A374E3800A74FFF0A3742E20
:10216E00F0A374FAF0900271E0F9A3E0FAA3E09004
:10217E000548C9F0A3EAF0A3E9F07B017A04793DA2
:10218E0012486F7B017A04793D126DF67BFF7A2F30
:10219E007910126DF6900000E07002A3E070047FDB
:0D21AE000180027F00900000E4F0A3EFF03C
:1021BB0002256D900271A3E0FAA3E04A60030225A9
:1021CB006D9003B3E07002A3E0600302256D9003F2
:1021DB009EE0FEA3E0FFC390034AE09FFF900349FC
:1021EB00E09EFED3EF94F4EE9401500302256D7B39
:1021FB00FF7A2E79D8126DF690054574FFF0A37413
:10220B002FF0A3741AF07B017A04793D12486F7B8F
:10221B00017A04793D126DF67BFF7A2F7910126DDE
:10222B00F602256DE4FFFE126BFD7BFF7A2F7932F0
:10223B00126DF67F107E277D007C00126AE37BFF18
:10224B007A2D799F126DF690054574FFF0A3742FCC
:10225B00F0A3743DF0A374FFF0A3742FF0A37440AC
:10226B00F07B017A0479B512486F90054574FFF045
:10227B00A3742FF0A37448F0A37401F0A37404F0BB
:10228B00A374B5F07B017A04793D12486F7B017A18
:10229B0004793D126DF67BFF7A2E79D8126DF6908C
:1022AB00054574FFF0A3742EF0A37435F090035220
:1022BB00E0FFA3E0900548CFF0A3EFF07B017A0499
:1022CB0079B512486F90054574FFF0A3742FF0A3F6
:1022DB00745FF0A37401F0A37404F0A374B5F07BE6
:1022EB00017A04793D12486F7B017A04793D126DB6
:1022FB00F67BFF7A2D79CA126DF690054574FFF0C7
:10230B00A3742FF0A37476F0900358E0FCA3E0FDC8
:10231B00A3E0FEA3E0FF900548123AB87B017A04D4
:10232B00793D12486F7B017A04793D126DF67BFF84
:10233B007A2D79BF126DF6900349E0FFA3E090036D
:10234B00A7CFF0A3EFF090026DE004F07061900264
:10235B006CE004F002256D9003A7E0FEA3E0FFC341
:10236B0090034AE09FFF900349E09EFED3EF94D089
:10237B00EE9407500302256DE4FFFE126BFD7BFF0D
:10238B007A2F798E126DF67F107E277D007C0012DE
:10239B006AE3900349E0FFA3E09003A7CFF0A3EF1C
:1023AB00F090026DE004F0700690026CE004F00215
:1023BB00256D90039EE0FEA3E0FF900349E0FCA394
:1023CB00E0FDC39FFFEC9EFED3EF94C8EE9400504C
:1023DB000302256D90039EECF0A3EDF0125C3F021F
:1023EB00256D90039EE0FEA3E0FF900349E0FCA364
:1023FB00E0FDC39FFFEC9EFED3EF94F4EE940140FF
:01240B003F91
:10240C0090039EECF0A3EDF0E4FFFE126BFD900048
:10241C0002E07002A3E07BFF60067A2F79998004BA
:10242C007A2F79A4126DF6900002E07002A3E0708E
:0F243C00047F0180027F00900002E4F0A3EFF024
:10244B00900016E0FEA3E08EF0123BAC2463FFF786
:10245B00246EFFFE0000256D900271E4F0A3F0A343
:10246B00F08001E490026CF0A3F08056E490043A03
:10247B00F090043AE0FFC364809485400302256D1D
:10248B00EF3395E0FE74A02FF58274033EF583E0E5
:10249B00FD74A92FF58274043EF583EDF090043A98
:1024AB00E004F080CC900016E0FEA3E0FF64FB702C
:1024BB0002EEF4600CEF64FD7002EEF46003022593
:1024CB006DE490038EF0A3F002256D900421E0FFE4
:1024DB00702CA3E07028900044E0FBA3E0FAA3E08B
:1024EB00F99004A6EBF0A3EAF0A3E9F0123B361245
:1024FB003803FD9004A2E5F0F0A3EDF08035EF700A
:10250B0032900422E0B4012B900044E0FBA3E0FAEC
:10251B00A3E02408F9E43AFA9004A6EBF0A3EAF05E
:10252B00A3E9F0123B36123803FF9004A4E5F0F058
:10253B00A3EFF0900385A3A3E0FEA3E0FF9004A418
:10254B00EEF0A3EFF090054574FFF0A3742EF0A30B
:10255B007435F0A3EEF0A3EFF07B017A0479A912A6
:10256B00486F90034BE07002A3E070030228EF90DA
:10257B0003A5E07004A3E0640160030228EF90025E
:0B258B006CE07002A3E060030228EF88
:102596009003B3E07002A3E0600F900390E0700434
:1025A600A3E0640160030228209003B3E4F0A304CF
:1025B600F0E4900390F0A3F0FFFE126BFD90034B46
:1025C600E0FEA3E0FFEE6003022803EF123B862540
:1025D600FD0126330226700326AD0426E1052717E2
:1025E6000627550727920827CE0927171027171AF7
:1025F600271724000028039004BB7401F0A374403D
:10260600F0A3E4F0A374C8F07BFF7A2F79AF126DC4
:10261600F67F887E137D007C00126AE39004BFE497
:10262600F0A304F07BFF7A2F79C002281D9004BB2B
:10263600E4F0A374C8F0A3E4F0A37450F0A3E4F0AC
:10264600A37402F07BFF7A2F79E4126DF67F887E01
:10265600137D007C00126AE37BFF7A2F79F5126DF9
:10266600F67BFF7A30790D02281D9004BBE4F0A3B7
:1026760074C8F0A3E4F0A37450F0A3E4F0A37403C9
:10268600F07BFF7A307938126DF67FAC7E0D7D00D7
:102696007C00126AE37BFF7A307949126DF67BFF84
:1026A6007A30796002281D9004BBE4F0A37464F0CC
:1026B600A3E4F0A374AAF0A3E4F0A37404F07BFFF0
:1026C6007A30798B126DF67FAC7E0D7D007C001220
:1026D6006AE37BFF7A30799C02281D9004BBE4F004
:1026E600A374B4F0A3E4F0A37422F07BFF7A3079EC
:1026F600C7126DF67FAC7E0D7D007C00126AE390FA
:1027060004BFE4F0A37405F07BFF7A3079D8022881
:102716001D9004BB7401F0A3742CF0A3E4F0A37421
:1027260064F0A3E4F0A37406F07BFF7A3179051216
:102736006DF67FAC7E0D7D007C00126AE37BFF7A2E
:10274600317916126DF67BFF7A31792D02281D90AC
:1027560004BBE4F0A374A0F0A3E4F0A3743CF0A3DC
:10276600E4F0A37407F07BFF7A31795A126DF67F95
:10277600AC7E0D7D007C00126AE37BFF7A31796BBB
:10278600126DF67BFF7A31798102281D9004BBE435
:10279600F0A3748CF0A3E4F0A374C8F0A3E4F0A350
:1027A6007408F07BFF7A3179AC126DF67FAC7E0D42
:1027B6007D007C00126AE37BFF7A3179BD126DF6EB
:1027C6007BFF7A3179D5804F9004BBE4F0A374B4D3
:1027D600F0A3E4F0A37422F07BFF7A327902126D43
:1027E600F67FAC7E0D7D007C00126AE39004BFE4A8
:1027F600F0A37409F07BFF7A327913801A9004BB38
:10280600E4F0A374B4F0A3E4F0A304F0E4A3F0A30B
:10281600F07BFF7A32793C126DF690039EE0FEA3C0
:10282600E0FF900349E0FCA3E0FDC39FFFEC9EFEA2
:0C283600D3EF94F4EE9401500302291734
:10284200900271E0FBA3E0FAA3E0F9EA494B6009C8
:10285200900271E4F0A3F0A3F090039EECF0A3EDDC
:10286200F0900004E07002A3E0900545600C74FF54
:10287200F0A37432F0A3744D800A74FFF0A3743293
:10288200F0A37467F09004BFE0FFA3E0900548CF87
:10289200F0A3EFF09004BBE0FFA3E090054ACFF075
:1028A200A3EFF09004BDE0FFA3E090054CCFF0A3AE
:1028B200EFF090034BE0FFA3E090054ECFF0A3EFC3
:1028C200F07B017A04793D12486F7B017A04793DED
:1028D200126DF6900004E07002A3E070047F0180A4
:0B28E200027F00900004E4F0A3EFF080
:1028ED00802890034BE07002A3E0701E9003B3E0CC
:1028FD007004A3E06401701290038EF0A3F09002B7
:10290D006CF0A3F09003B3F0A3F09003A5E0FEA349
:10291D00E0FF64024E6009EF64044E6003022A96E4
:10292D0078BB7C047D017BFF7A35797E7E007F64E8
:10293D001236D090039EE0FEA3E0FF900349E0FC29
:10294D00A3E0FDC39FFFEC9EFED3EF942CEE94010C
:05295D005003022A9660
:1029620090039EECF0A3EDF0900006E07002A3E06D
:1029720060557B017A0479A9126F84D3900009E033
:102982009FEE6480F8900008E0648098900545749A
:10299200FF500AF0A3742EF0A374388008F0A374D9
:1029A20032F0A37482F0A37401F0A37404F0A37450
:1029B200A9F07B017A0479BB12486F7B017A047912
:1029C200BB126DF6022A7E9003A5E07004A3E064B8
:1029D20002700590038B8029E490043AF090043A47
:1029E200E0FF3395E0FE74A92FF58274043EF5836F
:1029F200E0600890043AE004F080E290043AE014C7
:102A0200F0E0FF3395E0FE74A92FF58274043EF5E1
:102A120083E090051FF074A92FF58274043EF583BC
:102A2200745FF090054574FFF0A37432F0A37482D2
:102A3200F0A37401F0A37404F0A374A9F07B017AEB
:102A42000479BB12486F7B017A0479BB126DF69050
:102A520003A5E07004A3E0640290051F7007E0FF85
:102A620090038B8005E0FF90043AE0FD3395E0FC93
:102A720074A92DF58274043CF583EFF0900006E012
:102A82007002A3E070047F0180027F00900006E4E0
:042A9200F0A3EFF0CE
:102A960090001CE0701304F0900349E0FFA3E0905F
:102AA600000CCFF0A3EFF0803B90000CE0FEA3E01B
:102AB600FFC390034AE09FFF900349E09EFED3EFD9
:102AC6009464EE9400401D900010E07002A3E07044
:102AD600047F0180027F00900010E4F0A3EFF0E491
:102AE60090001CF0900037E024F6603124F6607404
:102AF60024F67003022BA2241D6003022BC9900347
:102B060049E0FFA3E0900038CFF0A3EFF090000A71
:102B1600E04402F0900037740AF0022BC99003BB20
:102B2600E070067E017FF480047E007F32900038DC
:102B3600E0FCA3E0FDC390034AE09DFD900349E05D
:102B46009CFCD3ED9FEC9E407AE0FFA3E09000381A
:102B5600CFF0A3EFF090000AE054FDF09000377438
:102B660014F0805F9003BBE07E077FD0900038E0D2
:102B7600FCA3E0FDC390034AE09DFD900349E09C61
:102B8600FCD3ED9FEC9E403BE0FFA3E0900038CFE6
:102B9600F0A3EFF0900037741EF0802790034BE00F
:102BA6007002A3E0701790034DE05480FF3395E068
:102BB6004F700AA3E07006900037F0800690003749
:0E2BC6007401F090000AE06003D2A522C2A5BF
:012BD40022DE
:104E7300E0FEA3E0FFE4FCFD900012123AB89005B7
:104E8300247405F0E4A3F07B01A304F0A37403F0FE
:104E9300A374A9F0E4A3F0A37402F07A0079127D5D
:014EA300040A
:054EA400900523EDF074
:104EA9006008E0D36480948440037F002290052346
:104EB900E014F0E4900532F090052B123AC400009A
:104EC9000000900523E0B40319900532E060081250
:104ED9003A2A1239CF8003123A2A90052B123AB88E
:104EE900804D900523E0FFB40129900532E060145C
:104EF900123803FDC3E49DFCE495F090052BF0A363
:104F0900CCF0802B123803FD90052BE5F0F0A3EDD2
:104F1900F0801CEF7016900532E060071236F6F447
:104F29000480031236F690052BF080037F0022904F
:104F3900052AE024FE601B14602024FB601424F879
:104F4900601024D0600C243F70169005317402F073
:104F5900800E900531740AF080069005317410F0C6
:104F6900900524E0FFA3E02FFFC374039F90052F52
:104F7900F0A3EFF0C3648094835013E0FFC374037C
:104F89009FFF900524E02FF09005307403F0900501
:104F990024E0FF900530E0B50706900529E060633D
:104FA900900531E0FB3395E0FAF9F890052BE0FC28
:104FB900A3E0FDA3E0FEA3E0FF126DB2EB2430FFF6
:104FC900900526E0FBA3E0FAA3E0F9900530E0FDA7
:104FD9003395E08D82F583EF12374E90052BE0FC77
:104FE900A3E0FDA3E0FEA3E0FFC007900531E0FBCD
:104FF9003395E0FAF9F8D007126DB290052B123A01
:10500900B8803B900525E06019A3E0FBA3E0FAA373
:10501900E0F9900530E0FF3395E08F82F583742E37
:105029008019900526E0FBA3E0FAA3E0F99005308A
:10503900E0FF3395E08F82F583742012374E900597
:1050490030E0FF14F0D3EF648094804003024F975F
:10505900900529E0602D900532E0602490052FE04D
:10506900FFC3648094835018900526E0FBA3E0FAFF
:10507900A3E0F9EF3395E08F82F583742D12374E53
:105089007F0022E4900530F090052FF0900526E08E
:10509900FBA3E0FAA3E0F9900530E0FFFD3395E0CA
:1050A9008D82F58312370F64307041EF3395E0FE3E
:1050B900EF2401FFE43EFE900524E0FD3395E0FC7A
:1050C900C3EF9DEC6480F8EE648098501F90053022
:1050D900E0FF3395E08F82F583742012374E9005F7
:1050E9002FE004F0900530E004F080A0900532E054
:1050F900601E900526E0FBA3E0FAA3E0F990052FD6
:10510900E014FFF03395E08F82F583742D12374E4A
:10511900900524E0FFA3E02FFF90052FE0FEC3EFE9
:105129009EA3F0C364809483500EE0FFC374039F71
:0D513900FFC3EE9F90052FF090052FE0FFC3
:015146002246
:0D615D00900520EBF0A3EAF0A3E9F0AB05FC
:10616A00900524E024FE600F146014240270169037
:10617A00052E7402F0800E90052E740AF0800690A7
:10618A00052E7410F0900525123AC4000000009004
:10619A000529123AC40000000190052DEBF0900584
:1061AA002DE0D3648094805003026273E014F0906F
:1061BA000520E0FBA3E0FAA3E0F990052DE0FF3308
:1061CA0095E08F82F58312370FFFC3648094B04045
:1061DA00CDD3EF648094BF50C5900525E0F8A3E0C5
:1061EA00F9A3E0FAA3E0FBC000C001C002C003901B
:1061FA000520E0FBA3E0FAA3E0F990052DE0FF33C8
:10620A0095E08F82F58312370FFF3395E0FEEF2476
:10621A00D0FFEE34FFFEE4FCFD900529E0F8A3E090
:10622A00F9A3E0FAA3E0FB1238B2D003D002D001FE
:10623A00D000EB2FFFEA3EFEE93DFDE83CFC90056D
:10624A0025123AB8900529E0F8A3E0F9A3E0FAA3E9
:10625A00E0FB90052EE0FF3395E0FEFDFC1238B21C
:10626A00900529123AB80261A8900520E0FBA3E044
:10627A00FAA3E0F91236F6642D6013900001123782
:10628A000F642D600990000212370FB42D1190058A
:10629A0025E0FCA3E0FDA3E0FEA3E0FF0239CF90D6
:0D62AA000525E0FCA3E0FDA3E0FEA3E0FF5E
:0162B70022C4
:1063DE00EF24F6B4140040030264D19063F775F015
:1063EE0003A4C58325F0C5837302643302643602A9
:1063FE00643F02644802645102645902646102649B
:10640E006902647102647902648102648902649192
:10641E000264990264A10264A90264B10264B90221
:10642E0064C10264C90264D17BFF7A3279A6026428
:10643E00D77BFF7A3279B10264D77BFF7A3279BC8F
:10644E000264D77BFF7A3279C7807E7BFF7A3279FE
:10645E00D280767BFF7A3279DD806E7BFF7A32795D
:10646E00E880667BFF7A3279F3805E7BFF7A327941
:10647E00FE80567BFF7A337909804E7BFF7A337923
:10648E001480467BFF7A33791F803E7BFF7A337907
:10649E002A80367BFF7A337935802E7BFF7A3379EB
:1064AE004080267BFF7A33794B801E7BFF7A3379CF
:1064BE005680167BFF7A337961800E7BFF7A3379B3
:1064CE006C80067BFF7A32799B126DF67F107E27E9
:0764DE007D007C00026AE36F
:036BFA00E4FFFEB7
:086BFD00900520EEF0A3EFF07B
:106C05007FE87E037D007C00126AE390054574FFF2
:106C1500F0A37433F0A37477F0900520E0FFA3E0B0
:106C2500900548CFF0A3EFF07B017A057922124851
:106C35006F7B017A057922126DF67FE87E037D0070
:056C45007C00026AE37F
:0C6FD80090066BEBF0A3EAF0A3E9F022B6
:105C3F00E4900520F0A3F0A3F0A304F078247C05F2
:105C4F00FD7BFF7A3579E27E007F1E1236D09005FC
:105C5F0020E4F0A304F0900520E0FEA3E0FFC3943E
:105C6F0005EE648094804003025D3C90054574FF0F
:105C7F00F0A37433F0A37482F0A3EEF0A3EFF07BE4
:105C8F00017A05792412486F7B017A057924126D08
:105C9F00F6900520A3E01425E0FFA3E0FEA3E0A803
:105CAF0007088005C333CE33CED8F9FF900350E0F9
:105CBF005EFEA3E05F4E7BFF70067A33798E800421
:105CCF007A3379A2126DF67F537E007D007C00122D
:105CDF006AE3900520A3E025E014FFA3E0FEA3E014
:105CEF00A807088005C333CE33CED8F9FF900350F1
:105CFF00E05EFEA3E05F4E7BFF70067A3379B680DD
:105D0F00047A3379CB126DF67BFF7A3379E0126D1B
:105D1F00F67F537E007D007C00126AE3900521E040
:105D2F0004F07006900520E004F0025C65900520F9
:105D3F00E4F0A37405F0900520E0FEA3E0FFC39408
:105D4F0007EE648094804003025E1B90054574FF4C
:105D5F00F0A37433F0A37482F0A3EEF0A3EFF07B03
:105D6F00017A05792412486F7B017A057924126D27
:105D7F00F6900520A3E025E0FFA3E0FEA3E0A8072F
:105D8F00088005C333CE33CED8F9FF900350E05EC1
:105D9F00FEA3E05F4E7BFF70067A33798E80047A24
:105DAF003379A2126DF67F537E007D007C00126A5C
:105DBF00E3900520A3E025E004FFA3E0FEA3E0A805
:105DCF0007088005C333CE33CED8F9FF900350E0D8
:105DDF005EFEA3E05F4E7BFF70067A3379B68004D8
:105DEF007A3379CB126DF67BFF7A3379E0126DF649
:105DFF007F537E007D007C00126AE3900521E00452
:0C5E0F00F07006900520E004F0025D45F4
:015E1B002264
:0D6FCB00E4F5C7F5C5F5C675C380F5C42211
:10002600C2AF75C78375C5018FC4EEF5C375C65AD1
:0C00360075C6A50000AFC2126FCBD2AFA0
:01004200229B
:106BA1009005CEE0FB7A0064AA704DC2AFEB64AAF7
:106BB100700375C783EB64AA4A700375C502EB6461
:106BC100AA4A70028FC49005CEE064AA7003EEF564
:106BD100C39005CEE0FF7E0064AA70028DC2EF640F
:106BE100AA4E700375C65A9005CEE064AA7003756B
:096BF100C6A500126FCBD2AF2241
:106C4A009005CEE0FD7C0064AA7043C2AFED64AA51
:106C5A00700375C783ED64AA4C700375C503ED64B0
:106C6A00AA4C70028FC49005CEE064AA7003EEF5B8
:106C7A00C39005CEE0FF7E0064AA700375C65AEF82
:0F6C8A0064AA4E700375C6A500126FCBD2AF225D
:1062B80090046C7444F0A3E4F0FBFA90037BE0FCD8
:1062C800A3E0FDA3E0FEA3E024FFFFEE34FFFEED14
:1062D80034FFFDEC34FFFC90046E123AB890046E63
:1062E800E0FCA3E0FDA3E0FEA3E0FF7807123A0478
:1062F8007C007D05123782AA04AB0590046EA3A327
:10630800A3E0547FFFE4FDFCEF701C9005CE74AA57
:10631800F0AF03EF25E0FEE42400FFEE3444FE1264
:106328006C4AE49005CEF090046EE0FCA3E0FDA377
:10633800E0FEA3E0FF7802123A17A3123AB89004DD
:1063480072E0FCA3E0FDA3E0FEA3E0FFE4FB7A0A11
:10635800F9F812393DAC00AD01AE02AF03900472FA
:10636800123AB8900472A3A3E0FEA3E0FF90046D74
:10637800E02FF090046CE03EF09004687401F0A304
:106388007403F0A3747BF09005CE74AAF0E4900433
:106398006BF090046CE0FEA3E0FF900468E0FBA3C0
:1063A800E0FAA3E0F91236F6FD126BA1900469E455
:1063B80075F0011237D790046DE004F07006900470
:1063C8006CE004F090046BE004F0E0C3940440C275
:0563D800E49005CEF089
:0163DD00229D
:1051470090043C7444F0A3E4F090044A123AC4007B
:1051570000000090044E123AC400002710E49004A7
:1051670066F0A3F0900466E0FEA3E0FFC39480EE30
:1051770094024003025358EF7802C333CE33CED89C
:10518700F92400FFEE344490043CF0A3EFF09004C0
:10519700387401F0A37404F0A3743EF090043CE06B
:1051A700FEA3E0FF120026900438E0FBA3E0FAA379
:1051B700E0F9EF12373C900439E475F0011237D764
:1051C70090043DE02401FF90043CE03400FE12000F
:1051D70026900438E0FBA3E0FAA3E0F9EF12373C8E
:1051E700900439E475F0011237D790043DE02402AA
:1051F700FF90043CE03400FE120026900438E0FBE8
:10520700A3E0FAA3E0F9EF12373C900439E475F014
:10521700011237D790043DE02403FF90043CE034AB
:1052270000FE120026900438E0FBA3E0FAA3E0F9A1
:10523700EF12373C900456E0FCA3E0FDA3E0FEA389
:10524700E0FF900452123AB890043EE0FCA3E0FD60
:10525700A3E0FEA3E0FF900456123AB8900466E07C
:10526700B40219A3E0B47F1490043EE0FCA3E0FD70
:10527700A3E0FEA3E0FF90045A123AB874FFFFFEC2
:10528700FD7C7F90043EE0F8A3E0F9A3E0FAA3E0F9
:10529700FBD31239F3400302533590044AE0FCA3D1
:1052A700E0FDA3E0FEA3E0FF90043EE0F8A3A3A384
:1052B700E01239F34078900452E0FCA3E0FDA3E04C
:1052C700FEA3E0FF90045E123AB8900456E0FCA3F8
:1052D700E0FDA3E0FEA3E0FF900462123AB8900459
:1052E7003EE0FCA3E0FDA3E0FEA3E0FF90044A122A
:1052F7003AB8900466E0FEA3E0FFE4FCFD90044E9C
:10530700123AB8E4FFFEFDFC90044EE0F8A3E0F982
:10531700A3E0FAA3E0FBC31239F3701290045AE03A
:10532700FCA3E0FDA3E0FEA3E0FFA3123AB89004BC
:105337003EE0FCA3E0FDA3E0FEA3E0FFA3123AB822
:10534700900467E004F07006900466E004F00251F0
:105357006BE4900371F07F107E27FDFC90044EE014
:10536700F8A3E0F9A3E0FAA3E0FBC31239F3605016
:1053770090045EE0F8A3E0F9A3E0FAA3E0FBA3E062
:10538700FCA3E0FDA3E0FEA3E0C39BFFEE9AFEEDC6
:1053970099FDEC98FCE47B01FAF9F8C31239F37034
:1053A7001490044AE0FCA3E0FDA3E0FEA3E0FF9015
:1053B700037B023AB890037B123AC4000000002234
:0D53C70090037B123AC4000000001262B88F
:0153D40022B6
