:030000000240318A
:0C403100787FE4F6D8FD758179024078B4
:103855000170000267000001717F02720000026DB5
:103865000000026B00000178000174000166000190
:103875007700016A00016900016300016F000179A9
:1038850001017600017500026400004E0414100069
:103895000378000000000000000000004E046820CE
:1038A500000378000000000000000000004E045AEC
:1038B50000100378000000000000000000004E0426
:1038C5004C00200378000000000000000000004EBE
:1038D500043E0040037800000000000000000000E6
:1038E5004E04220080037800000000000000000064
:1038F500004E0430010003780000000000000000C5
:023905000000C0
:1046A900438E80E4F589758A67758CFCD28CD2A912
:0346B900D2AF225B
:10463300E4F5957596207580FF7590FF75A0FF755D
:0B464300B0FF1246A912464E02000E06
:10467D007E017F107D007B017A027966121CDD9030
:06468D0002627401F0223C
:102F78008B608A618962900002121932FFAEF0E517
:102F8800F0600302316CEF24F6604C24F670030203
:102F9800304624F670030230BC241E600302316CF4
:102FA80090000CE4F5F0121989121907FF90025DE0
:102FB800E055F0FEA3E05F4E600302316CAB60AAFF
:102FC80061A96290000275F00A1219899000041232
:102FD8001BF90000000022AB60AA61A96212190760
:102FE800FF90025DE055F0FEA3E05F4E7037900061
:102FF80004121B4EEF2401FFE43EFEE43DFDE43CD9
:10300800FC900004121B98900004121B4EE47B14E1
:10301800FAF9F8C3121AF7400302316CAB60AA61DF
:10302800A962023162AB60AA61A962900004121B16
:10303800F900000000900002E4F5F0023169AB608D
:10304800AA61A962900004121B4EEF2401FFE43E1E
:10305800FEE43DFDE43CFC900004121B98121907A5
:10306800FF90025DE055F0FEA3E05F4E601AAB6092
:10307800AA61A962900002E475F01E1219899000F5
:1030880008121BF900000000AB60AA61A962900059
:1030980004121B4EE47B907A01F9F8C3121AF74028
:1030A8000302316CAB60AA61A96290000CE475F070
:1030B80001023169AB60AA61A962900004121B4E3B
:1030C800EF2401FFE43EFEE43DFDE43CFC900004F7
:1030D800121B98121907FF90025DE055F0FEA3E05D
:1030E8005F4E6066AB60AA61A962900008121B4E31
:1030F800EF2401FFE43EFEE43DFDE43CFC900008C3
:10310800121B98900008121B4EE47B14FAF9F8C3BE
:10311800121AF7504FAB60AA61A96290000C1219FD
:1031280032640145F090000C700575F0038004E4EA
:1031380075F002121989900004121BF900000000B2
:10314800900002740375F0788017AB60AA61A962D9
:10315800900008121BF900000000900002E475F0CE
:05316800141219892278
:10455A007B017A04795A122F787B017A04794C12FA
:10456A002F787B017A047922122F787B017A0479D9
:10457A0030122F787B017A047914122F787B017A12
:06458A00047968022F789D
:1045E800E490045CF0A3F090044EF0A3F09004244F
:1045F800F0A3F0900432F0A3F0900416F0A3F0902A
:06460800046AF0A3F02299
:10316D00900420E0FEA3E0FF4E604690037A74EFDA
:10317D00F0A374FFF0EF64014E701290026104F041
:10318D00E5654564702BF5647565018021EF64027A
:10319D004E9002617004740280027403F0E4900496
:1031AD0020F0A3F0900416F0A3F0F564F5657576A4
:1031BD0001900474E0FEA3E0FF4E604690037A7424
:1031CD00DFF0A374FFF0EF64014E70129002610402
:1031DD00F0E5654564702BF5647565018021EF643C
:1031ED00024E9002617004740280027403F0E49048
:1031FD000474F0A3F090046AF0A3F0F564F565751E
:10320D007601900466E0FEA3E0FF4E604690037ADF
:10321D0074FFF0A374EFF0EF64014E701290026131
:10322D0004F0E5654564702BF5647565018021EF4B
:10323D0064024E9002617004740280027403F0E423
:10324D00900466F0A3F090045CF0A3F0F564F565CE
:10325D00757601900458E0FEA3E0FF4E60469003A2
:10326D007A74FFF0A374DFF0EF64014E70129002D8
:10327D006104F0E5654564702BF564756501802189
:10328D00EF64024E9002617004740280027403F0C8
:10329D00E4900458F0A3F090044EF0A3F0F564F51B
:1032AD006575760190042EE0FEA3E0FF4E6046901A
:1032BD00037A74FFF0A3747FF0EF64014E701290E7
:1032CD00026104F0E5654564702BF5647565018058
:1032DD0021EF64024E900261700474028002740347
:1032ED00F0E490042EF0A3F0900424F0A3F0F56424
:1032FD00F56575760190043CE0FEA3E0FF4E604558
:10330D0090037A74FEF0A304F0EF64014E701290F6
:10331D00026104F0E5654564702BF5647565018007
:10332D0021EF64024E9002617004740280027403F6
:10333D00F0E490043CF0A3F0900432F0A3F0F564B7
:06334D00F5657576012212
:03000B000245901B
:10459000C0E0C0F0C083C082C0D075D00890033B9B
:1045A000E004F0700690033AE004F01245BC1245B6
:0C45B0005AD0D0D082D083D0F0D0E032BE
:10419500E4F57012463312467D12352190033AE05C
:1041A500F572A3E0F573E575702AC390033BE095BE
:1041B50073FF90033AE09572FED3EF94F4EE940109
:1041C5004012E0FEA3E08E72F5738E6DF56E12451A
:1041D500E8757501E575B401CD120046900350E010
:1041E500B4020C1225009003507403F0E4A3F012FE
:0741F5001DAE12316D80AF19
:0D3907004A049A00FF00FF00FF00FF00FFD0
:0C432100C290C2907F007E007D007C00F6
:08432D008F2D8E2C8D2B8C2AA4
:10433500E4F531F530F52FF52EAF2DAE2CAD2BACC8
:104345002AAB31AA30A92FA82EC3121AE1501C009E
:10435500E4FAF9F8E5312401F531EA3530F530E9CB
:0B436500352FF52FE8352EF52E80CE09
:01437000222A
:1046BC00D290D290D291D291124325C291C2912222
:10469300124321C291C291124325D290D290124368
:0646A30025D291D2912204
:0F46CC00124321D290D290124325C290C2902265
:04451F008E278F282C
:10452300E4F529124325124321E52830E006D29110
:10453300D2918004C291C291124325E527C313F59A
:1045430027E52813F528D290D2901243250529E5B3
:0645530029C3940840CDCD
:01455900223F
:1040BD001246FA1246BC7F407E0012451F120003C5
:1040CD001246CC1246FA1246931246BC7FC07E00B1
:1040DD0012451F1200031246CC1246FAE4F526E5EE
:1040ED002625E0249AF582E43404F583E0FEA3E06E
:1040FD00FF12451F1200031246CC1246FA0526E5A3
:10410D0026C3940540D91246931246BC7F8C7E007F
:0F411D0012451F1200031246CC1246FA024693B7
:05000300C294D2952219
:0546FA00D294D29522CC
:1021840030303030300031303130310031303130A6
:1021940032003130313033003130313034003230BC
:1021A4003130310000312D00322D00332D00342D1B
:1021B40000352D00362D00372D00382D00392D0027
:1021C40031300031310031320031330031340031EB
:1021D40035003136003137003138003139003230C2
:1021E40000323100323200323300323400323500F2
:1021F40032360032370032380032390033300020B2
:102204002020413100202020413200202020413371
:1022140000202020413400202020413500202020AF
:102224004136002020204137002020204138002062
:1022340020204139002020413130003630343039FB
:102244000020462D2D300020462D2D310020462D16
:102254002D320020462D2D330020462D2D34002014
:10226400462D2D3500502D2D00452D2D0051322D9C
:102274002D2D00502D2D203100502D2D20320050B9
:102284002D2D20300020202031310020202031321B
:102294000020202031330020202031340020202051
:1022A4003135002020203136002020203137002015
:1022B40020203138002020203139002020203230E5
:1022C40000202020323100202020323200202045FE
:1022D400727200434C532830293B0D0A0053504777
:1022E400283532293B0D0A00535047283237293B01
:1022F4000D0A00445334382832302C3137342C271B
:102304003030303030272C30293B0D0A00535047F1
:10231400283331293B0D0A00535047283332293BD7
:102324000D0A00535047283333293B0D0A005350FC
:1023340047283334293B0D0A0053504728333529A5
:102344003B0D0A00535047283336293B0D0A0053EE
:102354005047283337293B0D0A0053504728333858
:10236400293B0D0A00535047283339293B0D0A00F5
:10237400535047283430293B0D0A00535047283422
:1023840031293B0D0A00535047283432293B0D0AAA
:1023940000535047283433293B0D0A005350472833
:1023A4003434293B0D0A00535047283435293B0D5A
:1023B4000A00535047283436293B0D0A005350472E
:1023C400283437293B0D0A00535047283438293B19
:1023D4000D0A00535047283439293B0D0A00535045
:1023E40047283530293B0D0A000001003DFF2184B8
:1023F40010000200000103980101004DFF218A1220
:10240400001E000001039A02010145FF21901400FF
:102414000E000001039B030101B5FF219616000E77
:10242400000001039C04010225FF219C1C000700FD
:102434000001039D0501013DFF21A21A00010000D6
:1024440001039E00000000000000000000000000E6
:102454000000FF21A840000000010349040500001A
:1024640001869F0000000000000000000000000042
:102474000000000000000000000000000000000058
:102484000000000000000000000000000000000048
:1024940000000000000000000000000000FEB0ED9D
:1024A400F9B3DBDFF0FFFB00004080003F065B4F29
:1024B400666D7D077F6F771F4E3D4F47FB771F4E3D
:1024C4003D7971FB37060E07386A761D7367055B25
:1024D400313E1C5C313BED000000620800771F4E6A
:1024E4003D4F47FB370638070E6A151D6773505B6F
:0C24F400783E1C5C313BED000000000055
:103914004102650041039E0041037F004603980273
:103924001E0E0701004803800402FF2456FF23ED06
:1039340042037A0000410261004102620141003900
:103944000041000000410001004200060000420066
:103954000C000042000E0000420010000041001262
:10396400004200130000420015000042001700004E
:10397400420019000042001B000042001D000042EA
:10398400001F00004200210000420023000042000A
:10399400270000420029000141002D0042002E00B2
:0F39A400004100300042003100004200330000BB
:0441FC007BFFE4FD64
:104200008B268A2789288D29AB260528E528AA2709
:104210007002052714F9121826FF3395E0FE74800A
:104220002FF58274243EF583E493FD3395E0FCAFD3
:10423000290529EF3395E0FEEF25E0FFEE33FE740C
:104240009A2FF58274043EF583ECF0A3EDF0C3E5FC
:1042500029648094865009AA27A92812182670A8D4
:01426000223B
:10281900E4F529EF121C8A289C0028A80128B40293
:1028290028C00328CC0428D80528E40628F007285E
:10283900FC0829080929140A29200B292C0C2938F4
:102849000D29440E29500F295C1029681129741289
:10285900298013298C1429981529A41629B0172918
:10286900BC1829C81929D41A29E01B29EC1C29F7F5
:102879001D2A02502A0D512A18522A23532A2E544E
:102889002A39552A44562A4F572A5A582A6559002F
:10289900002A6E7526FF7527217528A9022A6E75EB
:1028A90026FF7527217528AC022A6E7526FF752724
:1028B900217528AF022A6E7526FF7527217528B262
:1028C900022A6E7526FF7527217528B5022A6E75AD
:1028D90026FF7527217528B8022A6E7526FF7527E8
:1028E900217528BB022A6E7526FF7527217528BE1A
:1028F900022A6E7526FF7527217528C1022A6E7571
:1029090026FF7527217528C4022A6E7526FF7527AB
:10291900217528C7022A6E7526FF7527217528CAD1
:10292900022A6E7526FF7527217528CD022A6E7534
:1029390026FF7527217528D0022A6E7526FF75276F
:10294900217528D3022A6E7526FF7527217528D689
:10295900022A6E7526FF7527217528D9022A6E75F8
:1029690026FF7527217528DC022A6E7526FF752733
:10297900217528DF022A6E7526FF7527217528E241
:10298900022A6E7526FF7527217528E5022A6E75BC
:1029990026FF7527217528E8022A6E7526FF7527F7
:1029A900217528EB022A6E7526FF7527217528EEF9
:1029B900022A6E7526FF7527217528F1022A6E7580
:1029C90026FF7527217528F4022A6E7526FF7527BB
:1029D900217528F7022A6E7526FF7527217528FAB1
:1029E900022A6E7526FF7527217528FD80777526C1
:1029F900FF752722752800806C7526FF75272275BB
:102A0900280380617526FF75272275280980567568
:102A190026FF75272275280F804B7526FF752722FB
:102A290075281580407526FF75272275281B803566
:102A39007526FF752722752821802A7526FF752797
:102A490022752827801F7526FF75272275282D8056
:102A5900147526FF75272275283380097526FF7599
:102A69002722752839AB260528E528AA27700205EB
:102A79002714F9121826FF3395E0FE74802FF5828A
:102A890074243EF583E493FD3395E0FCAF290529D1
:102A9900EF3395E0FEEF25E0FFEE33FE749A2FF554
:102AA9008274043EF583ECF0A3EDF0C3E52964805C
:0D2AB90094865009AA27A92812182670A893
:012AC60022ED
:04449700AC07A905C0
:10449B00AD04E9FF3395E0FEECFB3395E0FAEB2F2F
:1044AB00FFEA3EFEEDFB3395E0FAC3EB9FEE648033
:1044BB00F8EA6480985018EB25E0FFEA33FE749A13
:0F44CB002FF58274043EF583E4F0A3F00D80C357
:0144DA0022BF
:0A3DFF008F237B017A03798EE4FD27
:083E09008B268A2789288D29E8
:103E1100E4F52AAB26AA27A92890000112183FB47D
:103E21002E05E52AB40148AB260528E528AA277006
:103E310002052714F9121826FF3395E0FE74802F2E
:103E4100F58274243EF583E493FD3395E0FCAF29BC
:103E51000529EF3395E0FEEF25E0FFEE33FE749A7E
:103E61002FF58274043EF583ECF0A3EDF08056ABA0
:103E7100260528E528AA277002052714F912182615
:103E8100FF3395E0FE74802FF58274243EF583E4C0
:103E9100934480FD3395E0FCAF290529EF3395E08C
:103EA100FEEF25E0FFEE33FE749A2FF58274043E97
:103EB100F583ECF0A3EDF0752A0174012528F528AE
:103EC100E43527F527C3E529648094865003023E33
:013ED10014DC
:013ED20022CD
:1036E000E4FDEDFF3395E0FEEF25E0FFEE33FE74E1
:1036F000662FF974023EFA7B01EDFF3395E0FEEF91
:103700007803C333CE33CED8F9243DF58274003E1E
:10371000F583EBF0A3EAF0A3E9F00DBD02C4E4FDEC
:10372000EDFF3395E0FEEF25E0FFEE33FE746C2FE6
:10373000F974023EFA7B01EDFF3395E0FEEF78036A
:10374000C333CE33CED8F9244DF58274003EF583D1
:10375000EBF0A3EAF0A3E9F00DBD1EC4E4FDEDFF1C
:103760003395E0FEEF25E0FFEE33FE74AA2FF974E7
:10377000023EFA7B01EDFF3395E0FEEF7803C333A1
:10378000CE33CED8F92445F58274013EF583EBF0B3
:10379000A3EAF0A3E9F00DBD0EC4E4FDEDFF3395FF
:1037A000E0FEEF25E0FFEE33FE74C82FF974023E11
:1037B000FA7B01EDFF3395E0FEEF7803C333CE33A0
:1037C000CED8F924B5F58274013EF583EBF0A3EA77
:1037D000F0A3E9F00DBD0EC4E4FDEDFF3395E0FE6E
:1037E000EF25E0FFEE33FE74E62FF974023EFA7B1C
:1037F00001EDFF3395E0FEEF7803C333CE33CED82F
:10380000F92425F58274023EF583EBF0A3EAF0A3D8
:10381000E9F00DBD07C4E4FDEDFF3395E0FEEF25B3
:10382000E0FFEE33FE74F62FF974023EFA7B01EDF1
:10383000FF3395E0FEEF7803C333CE33CED8F924BF
:103840003DF58274013EF583EBF0A3EAF0A3E9F0C5
:043850000DBD01C4E5
:013854002251
:022AC7008F225C
:102AC900EF3395E0FE9023F775F00FEF121C2EEE11
:102AD90075F00FA42583F583E493F527740193F525
:102AE900280528E528AE277002052714FF120026BD
:102AF9008F26E4F529F52AAF22EF3395E0FE9023DE
:102B0900F675F00FEF121C2EEE75F00FA42583F564
:102B190083E493FD3395E0FCC3E52A9DEC6480F8DA
:102B2900E5296480984003022C28E522B4043990F1
:102B390023EE75F00F121C2EEE75F00FA42583F508
:102B490083E493FB740193FA740293F9E52AAE299D
:102B59007803C333CE33CED8F929F9EA3EFA900087
:102B690003740175F0C2803FAF22EF3395E0FE9008
:102B790023EE75F00FEF121C2EEE75F00FA42583CE
:102B8900F583E493FB740193FA740293F9E52AAE91
:102B9900297803C333CE33CED8F929F9EA3EFA901E
:102BA9000003740375F0E7121989E522FD3395E0F6
:102BB900FC9023EE75F00FED121C2EEC75F00FA4AE
:102BC9002583F583E493FB740193FA740293F9E581
:102BD9002AAE297803C333CE33CED8F9FF29F9EACF
:102BE9003EFA900005E4F5F01219899023EE75F08C
:102BF9000FED121C2EEC75F00FA42583F583E493D9
:102C0900FB740193FA7402932FF9EA3EFA900007D4
:102C1900E412187E052AE52A70020529022B009084
:102C2900242AE493FB740193FA740293F990003314
:102C3900740175F0F4121989E52214601B146023DC
:102C490014602B14603314603B2405704075230114
:102C5900752402752566803575230175240275254D
:102C69006C802A7523017524027525AA801F752396
:102C7900017524027525C880147523017524027510
:102C890025E680097523017524027525F6AF22EF23
:102C99003395E0FE9023F475F00FEF121C2EEE75BC
:102CA900F00FA42583F583E493F527740193F528A0
:102CB900E4F529F52AAF22EF3395E0FE9023F67566
:102CC900F00FEF121C2EEE75F00FA42583F583E4A7
:102CD90093FF3395E0FEEF2401FFE43EFEC3E52AAE
:102CE9009FEE6480F8E52964809850530528E5280B
:102CF900AE277002052714FF120026AB23AA24A9C8
:102D090025EF12186C74012525F525E43524F524E1
:102D19000528E528AE277002052714FF120026AB07
:102D290023AA24A925EF12186C74012525F525E499
:0F2D39003524F524052AE52A70020529022CBE4F
:012D48002268
:10426100E4FDEDFF3395E0FEEF25E0FFEE33FE7454
:10427100662FF58274023EF583E0FAA3E0FB74FA3F
:104281002FF58274023EF583EAF0A3EBF00DBD0237
:10429100D1E4FDEDFF3395E0FEEF25E0FFEE33FEC7
:1042A100746C2FF58274023EF583E0FAA3E0FB748F
:1042B100FE2FF58274023EF583EAF0A3EBF00DBD0B
:0242C1001ED10C
:0142C30022D8
:103FA1007BF97A7FE4FF0BEBAC0270010A14F58216
:103FB1008C83E493FE74222FF8A6060FBF07E7AFA8
:103FC10027EF3395E0900364F0A3EFF0E0F8E4F01D
:103FD100E8900364F0AF28E0F0A3E04FF0900364B1
:103FE100E0FEA3E0FF7C077DD01218B2A3ECF0A3A2
:103FF100EDF0E4FAFBE025E0FF900366E033FE120A
:1040010000268F22900367E025E0FF900366E033EE
:10401100FEEF2401FFE43EFE1200268F23AF229023
:0F4021000368E4F0A3EFF0AF23A3E4F0A3EFF004
:01403000226D
:10352100C2A57A22793F1241FC1240BD900382E08C
:10353100F9A3E0FAA3E0900410C9F0A3EAF0A3E92B
:10354100F0E4F521900410E0FBA3E0FAA3E0F9AF69
:1035510021EF3395E08F82F5837415121C1D121C27
:103561005AEA494B6004052180DA900403E521F011
:10357100900385E0FBA3E0FAA3E0F9900036EBF0BD
:10358100A3EAF0A3E9F0900001121C5A90003AEB73
:10359100F0A3EAF0A3E9F0E4F521900036E0FBA303
:1035A100E0FAA3E0F9AF21EF3395E08F82F5837460
:1035B1000F121C1D12183FB52107122AC7052180C1
:1035C100D990025FE521F01242611236E0E49003E6
:1035D10088F0900263F0F51C751D0190037DF09059
:1035E100033EF090033CF0A3F090033FF0900345BD
:1035F100121BC800000000E4900362F0123FA1908A
:103601000368E0FFA3E09002E0CFF0A3EFF09003A6
:103611006AE0FFA3E09002E2CFF0A3EFF0E49003B1
:1036210063F0F521AF21EF3395E0FEEF7802C3336C
:10363100CE33CED8F9FF24C8F58274023EF583E07B
:10364100FCA3E04C702874CA2FF58274023EF58306
:10365100E0FEA3E04E7017900363E0FFAE2174011A
:10366100A806088002C333D8FC4F900363F0AF2152
:10367100EF3395E0FEEF7802C333CE33CED8F9FFB6
:1036810024AAF58274023EF583E4F0A3F074AC2F12
:10369100F58274023EF583E4F0A3F00521E521648F
:1036A100077081123353123ED3E47B107A27F9F865
:1036B10090036CE0FCA3E0FDA3E0FEA3E0FF121A7F
:1036C100419002F6EEF0A3EFF0E490033AF0A3F09C
:0E36D100900341F0A3F074FF90025DF0A3F0AF
:0136DF0022C8
:0439C7008E298F2A8C
:1039CB007570AA9023F475F00FEF121C2EEE75F0A4
:1039DB000FA42583F583E493FE740193FF124452E5
:1039EB00E4F570E5297055E52A14601B1460231467
:1039FB00602B14603314603B24057040752B0175EC
:103A0B002C02752D668035752B01752C02752D6C6E
:103A1B00802A752B01752C02752DAA801F752B0121
:103A2B00752C02752DC88014752B01752C02752D04
:103A3B00E68009752B01752C02752DF69023F47514
:103A4B00F00FE52A121C2EE52975F00FA42583F53E
:103A5B0083E493F52F740193F530E4F52E9023F660
:103A6B0075F00FE52A121C2EE52975F00FA425839E
:103A7B00F583E493FF3395E0FEEF2401FFE43EFE74
:103A8B00C3E52E9FEE6480F87480984003023B26BA
:103A9B007570AAAB2BAA2CA92D121826FDAF30AE30
:103AAB002F124371AF30AE2F120026AE07AB2BAAED
:103ABB002CA92D1218266E600790033DE04420F0D0
:103ACB007401252DF52DE4352CF52C0530E53070E2
:103ADB0002052FAB2BAA2CA92D121826FDAF30AE49
:103AEB002F124371AF30AE2F120026AE07AB2BAAAD
:103AFB002CA92D1218266E600790033DE04420F090
:103B0B007401252DF52DE4352CF52C0530E53070A1
:103B1B0002052FE4F570052E023A681242617566B4
:013B2B000198
:013B2C002276
:10440A00EF14601814601D14602214602714602CC5
:10441A00240570337BFF7A22794580267BFF7A2236
:10442A00794B801E7BFF7A22795180167BFF7A2294
:10443A007957800E7BFF7A22795D80067BFF7A228C
:08444A007963E4FD1242002237
:10004600A2A4E4335401FF90025DE0FCA3E054FE59
:10005600FDECFEED4FFF90025DEEF0A3EFF0A2A3E4
:10006600E433540125E0FFE433FE90025DE0FCA397
:10007600E054FDFDEC4EFEED4FFF90025DEEF0A369
:10008600EFF0A2A2E4FE3354017802C333CE33CE9E
:10009600D8F9FF90025DE0FCA3E054FBFDEC4EFEB8
:1000A600ED4FFF90025DEEF0A3EFF0A2A1E4FE3368
:1000B60054017803C333CE33CED8F9FF90025DE006
:1000C600FCA3E054F7FDEC4EFEED4FFF90025DEE13
:1000D600F0A3EFF0A2A0E4335401C4F8540FC868AB
:1000E600FFE4C454F048FE90025DE0FCA3E054EF48
:1000F600FDEC4EFEED4FFF90025DEEF0A3EFF0A299
:10010600B5E4FE3354017805C333CE33CED8F9FFB8
:1001160090025DE0FCA3E054DFFDEC4EFEED4FFFE8
:1001260090025DEEF0A3EFF0A2B3E4FE3354017843
:1001360006C333CE33CED8F9FF90025DE0FCA3E0D0
:1001460054BFFDEC4EFEED4FFF90025DEEF0A3EFC7
:10015600F0A2B2E4FE3354017807C333CE33CED8CF
:10016600F9FF90025DE0FCA3E0547FFDEC4EFEED4E
:100176004FFF90025DEEF0A3EFF0A2A6E433540128
:10018600FE90025DE054FEFCA3E0FDEC4EFFED9018
:10019600025DCFF0A3EFF0A2A7E433540125E0FE01
:1001A60090025DE054FDFCA3E0FDEC4EFFED9002F5
:1001B6005DCFF0A3EFF0A292E433540125E025E0F1
:1001C600FE90025DE054FBFCA3E0FDEC4EFFED90DB
:1001D600025DCFF0A3EFF0A293E43354013333333F
:1001E60054F8FE90025DE054F7FCA3E0FDEC4EFFF0
:1001F600ED90025DCFF0A3EFF0A296E4335401C474
:1002060054F0FE90025DE054EFFCA3E0FDEC4EFFDF
:10021600ED90025DCFF0A3EFF0A297E4335401C452
:100226003354E0FE90025DE054DFFCA3E0FDEC4EAB
:10023600FFED90025DCFF0A3EFF0A2CCE4335401C2
:10024600C4333354C0FE90025DE054BFFCA3E0FD0E
:10025600EC4EFFED90025DCFF0A3EFF0A2CDE433BC
:100266005401C43333335480FE90025DE0547FFC66
:10027600A3E0FDEC4EFFED90025DCFF0A3EFF09012
:10028600025DE0FFA3E090000CCFF0A3EFF090003A
:1002960010E0FEA3E0FF90000CE0FCA3E0FD6F7011
:1002A60002EC6E607990033AE0FEA3E0FF90001D39
:1002B600EEF0A3EFF0900019E07002A3E070119049
:1002C6000025EEF0A3EFF0900000E04401F0800777
:1002D600900000E054FEF0900015E0FEA3E0FF90D1
:1002E600033AE0FAA3E0FBC39FFFEA9EFED3EF9436
:1002F60032EE94004025900010ECF0A3EDF0900053
:1003060013EAF0A3EBF0E4900017F0A3F0A3F0A338
:10031600F0900029F0A304F002041F0204189000D4
:1003260025E0FEA3E0FF90033AE0FCA3E0FDC39FB7
:10033600FFEC9EFED3EF9432EE940040079000004F
:10034600E054FEF090001DE0FEA3E0FFC3ED9FFF2A
:10035600EC9EFED3EF9430EE9475402E90033AE077
:10036600FFA3E090001DCFF0A3EFF0900023E07014
:1003760002A3E07015E51D6411451C600D751C0097
:10038600751D01E4900021F0A3F0900013E0FEA398
:10039600E0FF90033AE0FCA3E0FDC39FFFEC9EFE66
:1003A600D3EF9432EE94004069900015ECF0A3ED83
:1003B600F090000CE0FEA3E0F47002EEF4605A90B8
:1003C6000019E07002A3E07050900018E004F0708D
:1003D60006900017E004F0D3900018E094649000B3
:1003E60017E0648094804031900019E4F0A304F093
:1003F600900029E4F0A304F0E4900027F0A3F09025
:10040600001BECF0A3EDF0900017E4F0A3740AF0E3
:100416008007E490000CF0A3F0900019E07002A3AE
:10042600E0605B90001BE0FEA3E0FF90033AE0FC77
:10043600A3E0FDC39FFFEC9EFED3EF9464EE940011
:10044600403C900028E004F07006900027E004F09D
:10045600900027E0FEA3E0FFD39432EE6480948000
:100466004007A3E4F0A3740AF0EF4E600890001B67
:10047600ECF0A3EDF090000EE4F0A374FFF0900012
:100486000CE0FEA3E0FF4E6021A3E0FCA3E0FDEF3D
:100496006D7002EE6C600C90000CA3A3EEF0A3EF5F
:1004A600F08007E490000CF0A3F090000CE0FEA3AF
:1004B600E0FFF47003EE64FD6012EFF47003EE6487
:1004C600FB6009EFF47003EE64F7703F900362E09F
:1004D600FF602090000CE0B4FB19A3E0B4FF14EF1A
:1004E6003395E0FEEF2414FFE43E90033CF0A3EFC7
:1004F600F0801875760190000CE0FFA3E090037A77
:10050600CFF0A3EFF09002617402F0900033E0FEAA
:10051600A3E0FFEE7073EF24F6602524F6604D2409
:10052600147066209463900033E4F0A3740AF0908C
:10053600033AE0FFA3E0900031CFF0A3EFF080494B
:1005460020943F900031E0FEA3E0FFC390033BE020
:100556009FFF90033AE09EFED3EF9464EE94004032
:1005660028900033E4F0A37414F0801D30941A75BB
:10057600760190037A74FFF0A374EEF09002617432
:1005860002F0E4900033F0A3F0E51C6003021628A5
:10059600E51D24FE7003020A61147003020E19148D
:1005A600700302119824FB70030215EF24F97003FF
:1005B600020CF8147003020C45241060030216287E
:1005C60090000CE0FEA3E08EF0121CB007487FFFFF
:1005D60006D1BFFF0822FFBF07BDFFF70642FFFB9C
:1005E60006A5FFFD05F2FFFE00000839E490003085
:1005F600F0900021E07002A3E07026900389743029
:10060600F0A3F0A3F0A3F0A3F090037C7404F07BB6
:10061600017A037989E4FD124200751C00751D02FA
:1006260022900039E0B4010AE4F090002DF0900326
:100636009EF0E4900021F0A3F0020839E490003027
:10064600F0900019E07002A3E06042900021E07093
:1006560002A3E0703890036CE0FCA3E0FDA3E0FE8B
:10066600A3E0FFA3E0F8A3E0F9A3E0FAA3E0FBC34D
:10067600121AF7601890036CE0FCA3E0FDA3E0FEFD
:10068600A3E0FFA3121BBC756F0112412C900262FE
:10069600E064016003020839756901F0020839E473
:1006A600900030F090033AE0FFA3E090001FCFF0F7
:1006B600A3EFF0A3E4F0A37405F0900262E06003F8
:1006C60002083975690104F0020839E4900030F037
:1006D600900021E07002A3E0600302083990003622
:1006E600E0FBA3E0FAA3E0F9900001121C5A900087
:1006F6003AEBF0A3EAF0A3E9F0E4900404F0A3F0E7
:10070600A304F0E4900263F090000104F0E490008A
:1007160023F0A3F0FC7D0FFFFE1218A0900036E038
:10072600FBA3E0FAA3E02FF9EA3EFA9000091218BB
:100736003F900413F0D3648094805003021825027E
:100746000C19E4900030F0900021E07002A3E06004
:1007560003020839900036E0FBA3E0FAA3E0F99023
:100766000001121C5A90003AEBF0A3EAF0A3E9F05C
:10077600E4900404F0A304F0A3F0900263F0900068
:1007860001F0E4900023F0A3F0FC7D0FFFFE1218A9
:10079600A0900036E0FBA3E0FAA3E02FF9EA3EFAC8
:1007A60090000912183F900413F0D364809480508F
:1007B60003021825020C19900039E07037900019D1
:1007C600E07002A3E06010900030E0C3648094A85B
:1007D600500AE004F08005E4900030F090033AE01F
:1007E600FFA3E090001FCFF0A3EFF0A3E4F0A37403
:1007F60002F0803F75760190037A74FFF0A374BF10
:10080600F09002617402F0E4900021F0A3F09000F1
:1008160039F090002DF090039EF08017900039E09B
:100826007011756301900021F0A37404F0900039F3
:100836007401F0900021E07002A3E0600302099FBA
:10084600900381E0FF900004E4F0A3EFF0900263D0
:10085600E0F52290033CE07002A3E060030208F892
:1008660090033EE0704CA3E0B4011090039E740127
:10087600F090002DE0700B04F08007900000E0542B
:10088600FDF0900370E0F8A3E0F9A3E0FAA3E0FB23
:1008960090036CE0FCA3E0FDA3E0FEA3E0C39BFF96
:1008A600EE9AFEED99FDEC98FC900349121BBC02F2
:1008B60009297A2279691241FC90033EE0FB547FB4
:1008C600FF3395E0FEFDFC900008121BBCEB30E701
:1008D6000890002DE0700204F0122D578F237B0143
:1008E6007A0379917D03123E0990039E7401F0020A
:1008F600096A90033CE0FEA3E0FF640B4E6006EF3E
:10090600640C4E703490033FE0B4011090039E7463
:1009160001F090002DE0700B04F08007900000E0DD
:1009260054FDF0900349E0FCA3E0FDA3E0FEA3E044
:10093600FF122D51123DFF802B7BFF7A22796DE449
:10094600FD12420090002DE0700204F090033C126C
:100956002D498F237B017A0379917D03123E09E4A9
:1009660090039EF090037DE07003020A4590038099
:10097600E0FF900388E004FEF0D3EF6480F8EE64B5
:1009860080985003020A45E4F0900263E004F0E424
:10099600900004F0A3F0020A45900021E07004A341
:1009A600E064027033900343122D49123DFF90001C
:1009B6001FE0FEA3E0FFC390033BE09FFF90033AD6
:1009C600E09EFED3EF94D0EE94074073900021E4AE
:1009D600F0A37403F0020A45900021E07004A3E03E
:1009E600640370059003418035900021E07004A3F4
:1009F600E06404701A7BFF7A227971FD124200903E
:100A0600002DE0700204F090039E7401F080309097
:100A16000021E07004A3E064057024900364E0FE06
:100A2600A3E0FFE4FCFD900008121BBC900008A3A5
:100A3600A3E0FEA3E0FFE4FDFC122D51123DFF9062
:100A46000030E06428600302162EF0F51C751D10B8
:100A5600900021F0A37404F0020DA290000CE0FEB9
:100A6600A3E08EF0121CB00AD2FFF70A8CFFFB0A35
:100A7600A2FFFD0A81FFFE00000C25E4900263F050
:100A8600F51C751D012290037CE014F0C36480946C
:100A9600804003020C257404F0020C2590037CE0D0
:100AA600FF3395E0FE74892FF58274033EF583E0EB
:100AB60004F0D3648094B95003020C2574892FF591
:100AC6008274033EF5837430F0020C257521019083
:100AD600025FE0C36480F8E5216480984003021851
:100AE60025900036E0FBA3E0FAA3E0F9E52175F0D6
:100AF6000FA4FFE92FF9E43AFA900004121C5A12E7
:100B06001826FF900389E06F6003020C20AF21EFE7
:100B16003395E0FE7C007D0F1218A0900036E0FBB6
:100B2600A3E0FAA3E02FF9EA3EFA900004121C5A59
:100B360090000112183FFF90038AE06F6003020CD9
:100B46002090000212183FFF90038BE06F600302B3
:100B56000C2090000312183FFF90038CE06F600397
:100B6600020C2090000412183FFF90038DE06F6086
:100B760003020C20E521B404289002DCE07002A3F5
:100B8600E0700A9002DEE07002A3E0601490036356
:100B9600E020E50D9002F2E07002A3E06003021887
:100BA60025AF21EF3395E0FE900023F0A3EFF07C14
:100BB600007D0F1218A0900036E0FBA3E0FAA3E038
:100BC6002FF9EA3EFA900001121C5A90003AEBF017
:100BD600A3EAF0A3E9F0900023E0FEA3E0FF90046F
:100BE60004F0E4A3F0A304F0E4900263F01218A06A
:100BF600900036E0FBA3E0FAA3E02FF9EA3EFA9074
:100C0600000912183F900413F0D3648094805003B7
:100C1600021825751C00751D03220521020AD590B0
:100C26000006E07002A3E0600D900019E07002A3D8
:100C3600E070030215657B017A037989021621901B
:100C4600000CE0FEA3E08EF0121CB00C59FFFE0073
:100C5600000C8AE4900021F0A3F090037C7404F069
:100C6600E4900388F09004047478F090040674010C
:100C7600F0E4900263F0F51C751D0190002DF090D4
:100C8600039EF02290033CE0FEA3E0FF640B4E605F
:100C960006EF640C4E7044EF640B4E70147BFF7AC3
:100CA600227977FD12420090002DE0702504F08035
:100CB6002190033CE07004A3E0640C600302162E4E
:100CC6007BFF7A22797DFD12420090002DE07002B2
:100CD60004F090039E7401F002162E7BFF7A2279AF
:100CE60083E4FD124200E490002DF090039EF00292
:100CF600162E90000CE0FEA3E08EF0121CB00E1033
:100D06007FFF0E07BFFF0DBFDFFF0DC8EFFF0DB65C
:100D1600F7FF0DADFBFF0DF5FDFF0DECFEFF0DE33F
:100D2600FF7F0DFEFFBF0DD1FFDF0DDAFFEF0D9147
:100D3600FFFB0D6CFFFD0D44FFFE0000162EE49038
:100D46000021F0A3F090037C7404F0E4900388F093
:100D56009004047478F09004067401F0E490026341
:100D6600F0F51C02162B90037FE0C364809481503B
:100D760006E004F075770190037FE0FF12440A90C5
:100D8600037FE0D36480948002162E90037FE0D325
:100D9600648094804006E014F075770190037FE04C
:100DA600FF12440A02162E7BFF7A22798902162147
:100DB6007BFF7A22798F0216217BFF7A22799502B0
:100DC60016217BFF7A22799B0216217BFF7A2279F4
:100DD600A10216217BFF7A2279A70216217BFF7AD0
:100DE6002279AD0216217BFF7A2279B30216217B86
:100DF600FF7A2279B90216217BFF7A2279BF021681
:100E0600217BFF7A2279C50216217BFF7A2279CBD4
:100E160002162190000CE0FEA3E08EF0121CB00E2C
:100E2600D1FFF70E64FFFB0E9AFFFD0E39FFFE00A1
:100E3600000F34E4900021F0A3F090037C7404F0DA
:100E4600E4900388F09004047478F090040674012A
:100E5600F0E4900263F0F51C751D01020F34900258
:100E660063E0FF14F0EF7009900413E0149002633E
:100E7600F0900263E0900405F0F0A37401F0900492
:100E8600A4E0FF14F0EFD3940A4003020F34741D5C
:100E9600F0020F34900413E0FF900263E004FEF0CA
:100EA600C3EF6480F8EE6480984002E4F090026339
:100EB600E0900405F0A37401F09004A4E0FF04F0B0
:100EC600EFC3941D4068740AF08063900404E0FD4B
:100ED600B40427900263E0FF74017E00A80708802F
:100EE60005C333CE33CED8F9FF900363E0FB3395C9
:100EF600E05EFEEF5B4E6036802EEDB4032A900274
:100F060063E0A2E713FF74017E00A807088005C30B
:100F160033CE33CED8F9FF900363E0FD3395E05E20
:100F2600FEEF5D4E600880009000017405F09004AD
:100F360004E0FF7008900001E0600204F0900001F8
:100F4600E0640560030210B4F0900263E0FEF5224F
:100F560090037C7404F09002647402F0EFB40331E1
:100F6600EEA2E713FF74017E00A807088005C333CD
:100F7600CE33CED8F9FF900363E0FD3395E05EFEF5
:100F8600EF5D4E700C900376121BC80000000080C7
:100F96002090040CE0FBA3E0FAA3E0F9121C3A123D
:100FA6001907FFAEF0EE3395E0FDFC900376121BB9
:100FB600BC751C00751D04AF22EF3395E0FEEF787B
:100FC60003C333CE33CED8F9FF90003AE0FBA3E05B
:100FD600FAA3E02FF9EA3EFA90040CEBF0A3EAF04C
:100FE600A3E9F09002647402F0121C3A752A03E435
:100FF600F52B752C01752D03752E8EF52F75300288
:101006007D02122D738F2390037E7403F090038963
:101016007430F0A3F0740314606A14604214600321
:101026000210A8AF23EF3395E0FE748E2FF582747D
:10103600033EF583E0FF90038BF0BF20037430F08E
:10104600AF23EF3395E0FE748F2FF58274033EF5E0
:1010560083E0FD90038CF0BD20037430F080349063
:10106600038B7420F0AF23EF3395E0FE748F2FF5DA
:101076008274033EF583E0FD90038CF0BD2003747B
:1010860030F0800F90038B7420F0A3F0AF23EF3382
:1010960095E0FE74902FF58274033EF583E090038D
:1010A6008DF0E490002BF0A3F0F51C751D04D39091
:1010B6000005E09400900004E09400400FA3E024B3
:1010C600FFF0900004E034FFF002162E900381E05A
:1010D600FF900004E4F0A3EFF0900263E0FDFF331D
:1010E60095E0FEEF7803C333CE33CED8F9FF9000F8
:1010F6003AE0FBA3E0FAA3E02FF9EA3EFA90040CEB
:10110600EBF0A3EAF0A3E9F0900404E0B40331EDB8
:10111600A2E713FF74017E00A807088005C333CE3B
:1011260033CED8F9FF900363E0FD3395E05EFEEF22
:101136005D4E700C900376121BC8000000008020E4
:1011460090040CE0FBA3E0FAA3E0F9121C3A121992
:1011560007FFAEF0EE3395E0FDFC900376121BBC64
:10116600900263E0FF122819752A03E4F52B752C0B
:1011760001752D03752E8EF52F7530027A0379765B
:10118600122D6F8F23748E2FF9E43403FA7B01023C
:1011960015E890000CE0FEA3E08EF0121CB0131AC6
:1011A600FFF711C4FFFB1274FFFD11B8FFFE00002C
:1011B6001551900404E0600302154B0215229002BB
:1011C60063E0FF3395E0FEEF7803C333CE33CED82A
:1011D600F9FF90003AE0FBA3E0FAA3E02FF9EA3E1C
:1011E600FA90000712183F30E0030215519003767B
:1011F600E0FCA3E0FDA3E0FEA3E0FFC006C007906D
:101206000029E0FEA3E0FBAA06EA3395E0F9F8D050
:1012160007D006C3EF9BFFEE9AFEED99FDEC98FC16
:10122600900376121BBC90040CE0FBA3E0FAA3E04B
:10123600F9900005121932FFAEF0EE3395E0FDFC91
:10124600900376E0F8A3E0F9A3E0FAA3E0FBC3126B
:101256001AE1400302155190040CE0FBA3E0FAA347
:10126600E0F9900005121932FFAEF002130B90025E
:1012760063E0FF3395E0FEEF7803C333CE33CED879
:10128600F9FF90003AE0FBA3E0FAA3E02FF9EA3E6B
:10129600FA90000712183F30E003021551900376CA
:1012A600E0F8A3E0F9A3E0FAA3E0FB900029E0FE52
:1012B600A3E0FFEE3395E0FDFCEB2FFFEA3EFEE9EF
:1012C6003DFDE83CFC900376121BBC90040CE0FB51
:1012D600A3E0FAA3E0F9900003121932F52585F090
:1012E60024AE24FFEE3395E0FDFC900376E0F8A3F0
:1012F600E0F9A3E0FAA3E0FBD3121AE150030215CA
:1013060051AE24AF25EE3395E0FDFC900376121B1B
:10131600BC021551900019E07002A3E060030215AB
:101326001C7B017A037989900264E0F52A7D051217
:101336003C31900376121BBC90040CE0FBA3E0FA50
:10134600A3E0F9900003121932FFAEF0EE3395E0F8
:10135600FDFC900376E0F8A3E0F9A3E0FAA3E0FB36
:10136600D3121AE1400302151C90040CE0FBA3E023
:10137600FAA3E0F9900005121932FFAEF0EE3395AC
:10138600E0FDFC900376E0F8A3E0F9A3E0FAA3E021
:10139600FBC3121AE1500302151C7E007F02E470A3
:1013A60066EF14604814602524FE705B900376E0B7
:1013B600FCA3E0FDA3E0FEA3E0FF90040CE0FBA38A
:1013C600E0FAA3E0F9121C3A121B7E803A900376EB
:1013D600A3A3E0FEA3E0FF90040CE0FBA3E0FAA3C6
:1013E600E0F9121C3AEE8FF012196A801A90037611
:1013F600A3A3A3E0FF90040CE0FBA3E0FAA3E0F9AB
:10140600121C3AEF12186C90038BE0B4300B742068
:10141600F0A3E0B430037420F07B017A03798B7D6E
:1014260002123E09900404E0640260030215109063
:101436000263E0A2E713FDFF3395E0FEEF7802C3F7
:1014460033CE33CED8F9FF24AAF58274023EF58353
:10145600E0FAA3E0FB74C82FF58274023EF583E040
:10146600FEA3E06B7002EE6A6003021508EDFF331F
:1014760095E0FEEF7802C333CE33CED8F9FF24AC25
:10148600F58274023EF583E0FAA3E0FB74CA2FF5F9
:101496008274023EF583E0FEA3E06B7002EE6A7092
:1014A60061900363E0FF7401A805088002C333D886
:1014B600FC4F900363F0EDFF3395E0FEEF25E0FF70
:1014C600EE33FE74E62FF58274023EF583E4F0A354
:1014D600F0FCC3ED6480F8EC648098501EECFF339A
:1014E60095E0FEEF25E0FFEE33FE74E62FF58274FD
:1014F600023EF583E4F0A3F00C80D77F047E001251
:1015060039C7751C00751D03800C900404E0FF3379
:1015160095E0FE1239C7900404E07029900021F08E
:10152600A3F090037C7404F0E4900388F090040424
:101536007478F09004067401F0E4900263F0F51CF0
:10154600751D018006751C00751D03900006E07070
:1015560002A3E06017900019E07002A3E0700D90FE
:10156600037CE0FF7D0112449702162E900263E091
:10157600FF122819752A05E4F52B752C01752D0324
:10158600752E8EF52F7530027B017A0379767D04F0
:10159600122D738F23EF3395E0FE748E2FF5827430
:1015A600033EF583E0FF90038BF0BF20037430F019
:1015B600AF23EF3395E0FE748F2FF58274033EF56B
:1015C60083E0FD90038CF0BD20037430F074902FFF
:1015D600F58274033EF583E090038DF07B017A0378
:1015E600798B7D02123E09803F90040AE0FEA3E05B
:1015F600FFC390033BE09FFF90033AE09EFED3EFCC
:1016060094E8EE9403400E900408E0FF3395E0F56D
:101616001C8F1D80137BFF7A2279D1E4FD124200D4
:101626008006751C00751D01E51B651D7004E51A15
:10163600651C70030216E9851C1A851D1BE51A60D8
:10164600030216E9E51B24FE603414607A24026066
:10165600030216E97BFF7A2279D712460E7F537E64
:10166600007D007C0012432D7F107E277D007C00CC
:1016760012432D7BFF7A2279E112460E80657BFFAD
:101686007A2279D712460E7F537E007D007C0012A7
:10169600432D7F107E277D007C0012432D7BFF7A31
:1016A6002279EC12460E7F537E007D007C001243A9
:1016B6002D7BFF7A2279F712460E7F537E007D003E
:1016C6007C0012432D801C7BFF7A2279D712460EAE
:1016D6007F537E007D007C0012432D9004A4E0FF22
:1016E600123B2D900012E0701304F090033AE0FFD5
:1016F600A3E0900002CFF0A3EFF0803B900002E061
:10170600FEA3E0FFC390033BE09FFF90033AE09EF9
:10171600FED3EF9464EE9400401D900006E0700244
:10172600A3E070047F0180027F00900006E4F0A32E
:10173600EFF0E4900012F090002DE024F6603124E2
:10174600F6607124F670030217EF241D6003021879
:101756001690033AE0FFA3E090002ECFF0A3EFF03F
:10176600900000E04402F090002D740AF002181672
:1017760090039EE070067E017FF480047E007F3237
:1017860090002EE0FCA3E0FD90033AE0FAA3E0FB14
:10179600C39DFDEA9CFCD3ED9FEC9E407390002E0A
:1017A600EAF0A3EBF0900000E054FDF090002D74F9
:1017B60014F0805C90039EE07E077FD090002EE0C0
:1017C600FCA3E0FD90033AE0FAA3E0FBC39DFDEA2B
:1017D6009CFCD3ED9FEC9E403790002EEAF0A3EBE5
:1017E600F090002D741EF0802790033CE07002A359
:1017F600E0701790033EE05480FF3395E04F700A87
:10180600A3E0700690002DF0800690002D7401F084
:0F181600900000E06004D2A58002C2A51240BD80
:0118250022A0
:102D4900E0FEA3E0FFE4FCFD900008121BBC752A1D
:102D590005E4F52B752C01752D03752E8EF52F7550
:0A2D690030027A0079087B017D0436
:022D73008D29A8
:102D7500E5296007D36480948440037F00221529E8
:102D8500E4F538F534F533F532F531E529B40319B1
:102D9500E5386008121B2E121AD38003121B2E8FE2
:102DA500348E338D328C31803FE529B4011FE538EF
:102DB5006011121907FFAEF0C3E49FF532E49EF5EA
:102DC500318025121907F53285F031801BE5297010
:102DD50014E5386009121826F404F531800A121832
:102DE50026F53180037F0022E53024FE601814604B
:102DF5001A24FB601124F8600D24D06009243F706B
:102E05000D753702800875370A8003753710E52B75
:102E1500252AFFC374039FF5358F36C3E5366480D5
:102E25009483500CC374039536252AF52A75360309
:102E3500E536B52A04E52F6052AF37AB07EB33957E
:102E4500E0FAF9F8AF34AE33AD32AC311244DBEB16
:102E55002430FFAB2CAA2DA92EE536FD3395E08D48
:102E650082F583EF12187EAF34AE33AD32AC31C08C
:102E750007AF37AB07EB3395E0FAF9F8D007124403
:102E8500DB8F348E338D328C318025E52BAB2CAA2C
:102E95002DA92EAF36600CEF3395E08F82F5837444
:102EA5002E800AEF3395E08F82F583742012187E09
:102EB500AF361536D3EF648094804003022E35E596
:102EC5002F6025E538601EC3E53564809483501571
:102ED500AB2CAA2DA92EAF35EF3395E08F82F58364
:102EE500742D12187E7F0022E4F536F535AB2CAA39
:102EF5002DA92EAF36EF3395E08F82F58312183F5B
:102F050064307035EF3395E0FEEF2401FFE43EFEBB
:102F1500AD2AED3395E0FCC3EF9DEC6480F8EE64DB
:102F250080985015AF36EF3395E08F82F583742086
:102F350012187E0535053680B4E5386017AB2CAA26
:102F45002DA92E1535AF35EF3395E08F82F58374B6
:102F55002D12187EE52B252AC39535F536C36480D9
:102F65009483500CC374039536FFC3E5359FF5353F
:022F7500AF3576
:012F77002237
:083C31008B268A278928AB05C8
:103C3900E52A24FE600C14600E2402700D7534020E
:103C4900800875340A8003753410E4F52EF52DF5D6
:103C59002CF52B753201F531F530F52F8B33D3E582
:103C690033648094805003023CF31533AB26AA27B2
:103C7900A928AF33EF3395E08F82F58312183FFF00
:103C8900C3648094B040D7D3EF648094BF50CFAF62
:103C990033EF3395E08F82F58312183FFF3395E0B8
:103CA900FEEF24D0FFEE34FFFEE4FCFDAB32AA3177
:103CB900A930A82F1219B6E52E2FF52EE52D3EF5C0
:103CC9002DE52C3DF52CE52B3CF52BAB32AA31A982
:103CD90030A82FAF34EF3395E0FEFDFC1219B68FF3
:103CE900328E318D308C2F023C67AB26AA27A9284A
:103CF900121826642D601390000112183F642D607C
:103D09000990000212183FB42D0BAF2EAE2DAD2C29
:0D3D1900AC2B021AD3AF2EAE2DAD2CAC2B6F
:013D2600227A
:103B2D00EF24F6B414004003023C26903B4675F09A
:103B3D0003A4C58325F0C58373023B82023B8B0230
:103B4D003B94023B9D023BA5023BAD023BB5023BC4
:103B5D00BD023BC5023BCD023BD5023BDD023BE541
:103B6D00023BED023BF5023BFD023C05023C0D0222
:103B7D003C15023C1D7BFF7A237911023C237BFF10
:103B8D007A23791C023C237BFF7A237927023C237D
:103B9D007BFF7A237932807E7BFF7A23793D807695
:103BAD007BFF7A237948806E7BFF7A237953806679
:103BBD007BFF7A23795E805E7BFF7A23796980565D
:103BCD007BFF7A237974804E7BFF7A23797F804641
:103BDD007BFF7A23798A803E7BFF7A237995803625
:103BED007BFF7A2379A0802E7BFF7A2379AB802609
:103BFD007BFF7A2379B6801E7BFF7A2379C18016ED
:103C0D007BFF7A2379CC800E7BFF7A2379D78006D0
:103C1D007BFF7A2379E212460E7F107E277D007C92
:043C2D000002432D21
:0D46DB00E4F5C7F5C5F5C675C380F5C4222A
:10002600C2AF75C78375C5018FC48EC375C65A75B1
:0B003600C6A50000AFC21246DBD2AF2F
:01004100229C
:10437100E570FB7A0064AA7046C2AFEB64AA7003D1
:1043810075C783EB64AA4A700375C502EB64AA4A38
:1043910070028FC4EB64AA4A70028EC3AF707E00B4
:1043A100EF64AA70028DC2EF64AA4E700375C65AFB
:1043B100EF64AA4E700375C6A5001246DBD2AF2288
:10445200AD707C00ED64AA703BC2AFED64AA70033C
:1044620075C783ED64AA4C700375C503ED64AA4C4D
:1044720070028FC4ED64AA4C70028EC3E57064AA08
:10448200700375C65AE57064AA700375C6A500125A
:0544920046DBD2AF2261
:103D2700755644755700E4FBFA90036CE0FCA3E07A
:103D3700FDA3E0FEA3E024FFF55BEE34FFF55AEDAB
:103D470034FFF559EC34FFF558AF5BAE5AAD59FC6B
:103D57007807121B087C007D051218B2AA04AB0570
:103D6700E55B547FFFE4FDFCEF70157570AAEB254A
:103D7700E0FEE42400FFEE3444FE124452E4F57002
:103D8700AF5BAE5AAD59AC587802121B1B8F5F8ED2
:103D97005E8D5D8C5CE4FB7A0AF9F8121A41AC007F
:103DA700AD01AE02AF038F5F8E5E8D5D8C5CEF253C
:103DB70057F557EE3556F556755201755303755439
:103DC7006C7570AAE4F555AB52AA53A9541218267C
:103DD700FDAF57AE5612437174012554F554E435BF
:103DE70053F5530557E557700205560555E555C375
:073DF700940440D3E4F570D1
:013DFE0022A2
:10335300752644752700E4F537F536F535F53475EC
:103363003B10753A27F539F538F550F551E551AE6F
:10337300507802C333CE33CED8F92400F527EE3488
:1033830044F526752200752300752428AF27FE1205
:103393000026AB22AA23A924EF12186C740125245A
:1033A300F524E43523F523E5272401FFE43526FE40
:1033B300120026AB22AA23A924EF12186C7401254C
:1033C30024F524E43523F523E5272402FFE43526F9
:1033D300FE120026AB22AA23A924EF12186C740153
:1033E3002524F524E43523F523E5272403FFE435D9
:1033F30026FE120026AB22AA23A924EF12186C85FD
:10340300433F85423E85413D85403C852B43852A8C
:1034130042852941852840E551B47F11E550B40226
:103423000C852B47852A4685294585284474FFFF4B
:10343300FEFD7C7FAB2BAA2AA929A828D3121AF751
:10344300505BAF37AE36AD35AC34A828121AF7400F
:103453004C853F4B853E4A853D49853C4885434FD6
:1034630085424E85414D85404C852B37852A3685CF
:103473002935852834E485513B85503AF539F538AB
:10348300FFFEFDFCAB3BAA3AA939A838121AF77024
:103493000C85474B85464A854549854448852B2FEE
:1034A300852A2E85292D85282C0551E55170020585
:1034B30050C39480E55094025003023370E49003A8
:1034C30062F07F107E27FDFCAB3BAA3AA939A838EE
:1034D300C3121AF7603AC3E54F954BFFE54E954A81
:1034E300FEE54D9549FDE54C9548FCE47B01FAF971
:1034F300F8C3121AF7700EAF37AE36AD35AC349051
:10350300036C021BBC90036C121BC800000000225A
:0D35130090036C121BC800000000123D2741
:013520002288
:103ED300752526752600752201752303752470AF99
:103EE30026AE25120026AB22AA23A924EF12186CB2
:103EF30074012524F524E43523F523E5262401FF65
:103F0300E43525FE120026AB22AA23A924EF1218BA
:103F13006C74012524F524E43523F523E5262402D6
:103F2300FFE43525FE120026AB22AA23A924EF12B3
:103F3300186C74012524F524E43523F523E52624A0
:103F430003FFE43525FE120026AB22AA23A924EFA2
:103F530012186C900370E0F8A3E0F9A3E0FAA3E071
:103F6300FB90036CE0FCA3E0FDA3E0FEA3E0C39B96
:103F7300FFEE9AFEED99FDEC98FC7B9F7A86790122
:103F83007800C3121AF7501590036CE0FCA3E0FD10
:0D3F9300A3E0FEA3E0FFA3121BBC12412C13
:013FA00022FE
:10412C00752B26752C00E4F535F5367570AAFF7ED7
:10413C0026124452E4F57090036CE0FCA3E0FDA35E
:10414C00E0FEA3E0FFA3121BBC75270175280375C5
:10415C0029707570AAE4F52AAB27AA28A929121888
:10416C0026FDAF2CAE2B12437174012529F529E4E1
:10417C003528F528052CE52C7002052B052AE52A97
:08418C00C3940440D3E4F57074
:014194002208
:1039B30003140104760317010488011001011100A7
:0339C300011200EE
:10464E00759850758E40E4F589758BE0758DFED2A8
:08465E008ED2ACD2AFD2BC2217
:10000E00438E04759A5075D7E075D6FE438E104315
:05001E00AF01D2AF228A
:030023000243C1D4
:1043C100C0E0C083C082C0D075D00830982BC2989D
:1043D100900351E0FF04F074762FF582E43404F584
:1043E10083E599F09003507401F090033AE0FFA344
:1043F100E090034DCFF0A3EFF0309904C299C200D1
:09440100D0D0D082D083D0E0328B
:030043000246660C
:10466600C0E0E59A30E003539AFEE59A30E105533F
:074676009AFDC201D0E03201
:1045BC00900350E0B4012490034DE0FEA3E0FFC350
:1045CC0090033BE09FFF90033AE09EFED3EF940AEA
:0C45DC00EE940040069003507402F022A0
:0946E8002000FDEFD200F599223B
:0842C400A3F07B017A03799F4E
:0642CC008B258A268927DC
:1042D200E4F528FDFCAB25AA26A9279000011218B7
:1042E2003FFF3395E0FEEF2402FFE43EFEC3ED9F65
:1042F200EE6480F8EC64809850168D828C831218DC
:104302003FFF2528F5281246E80DBD00010C80C5A7
:0E431200AF281246E80510E510700375100183
:01432000227A
:10460E008B268A278928AB26AA27A9281218266066
:10461E00130528E5287002052714F9121826FF1233
:05462E0046F180E222CC
:0946F1002001FDEFD201F59B222E
:10250000752200752300752400900476E0FF752184
:1025100001900351E0FE14C36480F8E521648098C3
:102520005018AD21ED3395E0FC74762DF5827404DE
:102530003CF583E02FFF052180D774752EF582E4EA
:102540003404F583E06F600B90033CE4F0A3741E49
:10255000022814900476E024F6B40B00400302280D
:102560001890256F75F003A4C58325F0C583730209
:10257000259002260702276B02280302280302285F
:102580000502280302280302280302280302280C5C
:10259000900478E0FF900477E0FD2FFFE433A2E79A
:1025A00013EF13900398F0EDC313900260F07522BF
:1025B000017523027524FAE4F521900398E0FF33B6
:1025C00095E0FEEF25E0FFEE33FEAD21ED3395E023
:1025D000FCC3ED9FEE6480F8EC648098502374791E
:1025E0002DF58274043CF583E0FFAB22AA23A924D5
:1025F000E5213395E08D82F583EF12187E05218069
:10260000B9757801022801900479E0FE900478E021
:10261000FDEDFF900343EEF0A3EFF0900000EEF02D
:10262000A3EFF04E700A9000007430F0A37439F0FC
:1026300090047BE0FE90047AE0FDEDFF900341EE14
:10264000F0A3EFF0900000EEF0A3EFF090047DE037
:10265000FE90047CE0FDEDFF90033CEEF0A3EFF074
:1026600090047FE0FFE4FCFDFE7808121B1BA80429
:10267000A905AA06AB0790047EE0FFEB4FFFEAFE38
:10268000E9FDE8FCC004C005C006C007900481E075
:10269000FFE4FCFDFE7818121B1BD003D002D00112
:1026A000D000EF4BFFEE4AFEED49FDEC48FCC004C4
:1026B000C005C006C007900480E0FFE4FCFDFE7882
:1026C00010121B1BD003D002D001D000EF4BF52815
:1026D000EE4AF527ED49F526EC48F525AF28AE275B
:1026E000AD26FC900000121BBCE579602D900345DF
:1026F000E0FCA3E0FDA3E0FEA3E0FFAB28AA27A92E
:1027000026A825C3121AF76011AF28AE27AD26AC54
:1027100025900345121BBC120000900343E0B42B2C
:1027200020A3E0B4671BE5117017E528FFE527FE3D
:10273000900310EEF0A3EFF0E4FFFE1239C775111D
:1027400001900343E0B45620A3E0B4CE1BE5127021
:1027500017E528FFE527FE900310EEF0A3EFF0E465
:10276000FFFE1239C7751201022801E4F521900419
:1027700077E01313543FC36480F8E52164809850D8
:102780007BE52125E025E0FD2478F582E43404F59D
:1027900083E0FE74792DF582E43404F583E0FDEEE8
:1027A000FCAF21EF3395E0FEEF7803C333CE33CE99
:1027B000D8F9FF9023EEE493FB740193FA7402932B
:1027C0002FF9EA3EFA900005EC8DF0121989E52107
:1027D00025E025E0FD247AF582E43404F583E0FE6B
:1027E000747B2DF582E43404F583E0FDEDFF900069
:1027F00003EE8FF0121989052102276E757401808E
:102800000980078005757901800B800990033CE4FD
:08281000F0A37428F075717F3C
:01281800229D
:101DAE00752100752200752300C390033BE09573E7
:101DBE00FF90033AE09572FED3EF94E8EE94034061
:101DCE0016E5667008E571B47F0375710190033AEC
:101DDE00E0F572A3E0F573900343E07002A3E070A8
:101DEE0003021ECCE5786003021ECCE571647F60B1
:101DFE0003021ECC9003987416F09002607402F0E9
:101E0E009002FCE064557004A3E064AA7003021E05
:101E1E00C39002FA7401F0A37436F0A37401F0A318
:101E2E00742CF0A3E4F0A37402F0A3E4F0A3740FF7
:101E3E00F0A3E4F0A3740FF0E4A3F0A3F0A3F0A3D7
:101E4E00F0A304F0A37440F0A3E4F0A37459F0A33C
:101E5E007401F0A37490F0A3E4F0A37414F0A3E45F
:101E6E00F0A37454F0A3E4F0A37402F0A3E4F0A37F
:101E7E007478F0A3E4F0A3740AF0A3E4F0A304F0E2
:101E8E00A3E4F0A37449F0A3E4F0A304F0A3E4F0F8
:101E9E00A304F0A3E4F0A304F0A3E4F0A304F0A3DE
:101EAE00E4F0A304F09002FC7455F0A374AAF0E4DD
:101EBE00FFFE1239C775660175780175717FE57879
:101ECE00B4010CE5747008E571B47F03757102E519
:101EDE00666008E571B47F03757103E56A6008E515
:101EEE0071B47F03757107E5636008E571B47F0314
:101EFE00757109E5776008E571B47F03757104E5C6
:101F0E00696008E571B47F03757108E56F6008E5D7
:101F1E0071B47F03757105E5766008E571B47F03D2
:101F2E00757106E571B40A004003022183901F42C9
:101F3E00F8282873021F60021F85021FA8021FCCFB
:101F4E0002206502211102213A0220920220BB02D8
:101F5E0020E87E007F0E7D007B017A03799F121CA4
:101F6E00DDE490039FF0A304F0E4A3F0A304F0FBE0
:101F7E001242C8757132227E007F0E7D007B017A7F
:101F8E0003799F121CDD90039F7401F0A3F0E4A36C
:101F9E00F074021242C4757133227E007F0E7D00F2
:101FAE007B017A03799F121CDD90039F7402F0A3CC
:101FBE0014F0E4A3F074041242C4757134227E004E
:101FCE007F0E7D007B017A03799F121CDD90039FAB
:101FDE007403F0900398E025E09003A0F0752101C2
:101FEE007522027523FAE0FF90039FE02FF524E49B
:101FFE00FDFC900398E0FF3395E0FEEF25E0FFEE49
:10200E0033FEC3ED9FEE6480F8EC648098502CABE9
:10201E0021AA22A9238D828C8312183FFF74A12D31
:10202E00F58274033CF583EFF08D828C8312183F9A
:10203E002524F5240DBD00010C80B7900398E0FF18
:10204E0025E024A1F582E43403F583E5241242C58C
:10205E00757135E4F566227E007F0E7D007B017A78
:10206E0003799F121CDD90039F7404F0A37401F09A
:10207E0090037FE09003A1F024051242C4757136DF
:10208E00E4F577227E007F0E7D007B017A03799F37
:10209E00121CDD90039F7407F0A37401F0E4A3F00B
:1020AE00A374081242C5757139E4F56A227E007F69
:1020BE000E7D007B017A03799F121CDD90039F74C5
:1020CE0008F0A37401F0900262E09003A1F02409DD
:1020DE001242C475713AE4F569227E007F0E7D00CE
:1020EE007B017A03799F121CDD90039F7409F0A384
:1020FE007401F0E4A3F0A3740A1242C575713BE4B7
:10210E00F563227E007F0E7D007B017A03799F129C
:10211E001CDD90039F7405F0A37401F0E4A3F0A3FB
:10212E0074061242C5757137E4F56F227E007F0E7C
:10213E007D007B017A03799F121CDD90039F74064C
:10214E00F0A37403F090037AE0FEA3E09003A1F0F5
:10215E00EEFFA3EFF0900261E0FF9003A3F0900377
:10216E00A1E02409FEA3E02E2F9003A41242C57510
:05217E007138E4F57664
:012183002239
:10403D00024195E493A3F8E493A34003F68001F2C3
:10404D0008DFF48029E493A3F85407240CC8C33384
:10405D00C4540F4420C8834004F456800146F6DF53
:10406D00E4800B0102040810204080903855E47E56
:10407D00019360BCA3FF543F30E509541FFEE49348
:10408D00A360010ECF54C025E060A840B8E493A30F
:10409D00FAE493A3F8E493A3C8C582C8CAC583CA3A
:1040AD00F0A3C8C582C8CAC583CADFE9DEE780BEF2
:0139C6000000
:10182600BB010689828A83E0225002E722BBFE02C0
:09183600E32289828A83E49322F3
:10183F00BB010CE58229F582E5833AF583E022505E
:10184F0006E92582F8E622BBFE06E92582F8E222A8
:0D185F00E58229F582E5833AF583E49322C2
:10186C00BB010689828A83F0225002F722BBFE015B
:02187C00F32255
:10187E00F8BB010DE58229F582E5833AF583E8F0A0
:10188E00225006E92582C8F622BBFE05E92582C84C
:02189E00F22234
:1018A000EF8DF0A4A8F0CF8CF0A428CE8DF0A42E5C
:0218B000FE2216
:1018B200BC000BBE0029EF8DF084FFADF022E4CC1A
:1018C200F875F008EF2FFFEE33FEEC33FCEE9DECE3
:1018D200984005FCEE9DFE0FD5F0E9E4CEFD22ED29
:1018E200F8F5F0EE8420D21CFEADF075F008EF2F73
:1018F200FFED33FD4007985006D5F0F222C398FD64
:051902000FD5F0EA2200
:10190700BB010A89828A83E0F5F0A3E022500687AB
:10191700F009E71922BBFE07E3F5F009E31922896D
:0B192700828A83E493F5F074019322A0
:10193200BB0110E58229F582E5833AF583E0F5F0F3
:10194200A3E0225009E92582F886F008E622BBFED0
:101952000AE92582F8E2F5F008E222E5832AF58316
:08196200E993F5F0A3E99322DB
:10196A00BB010A89828A83F0E5F0A3F0225006F7C8
:0F197A0009A7F01922BBFE06F3E5F009F31922C5
:10198900F8BB0111E58229F582E5833AF583E8F090
:10199900E5F0A3F0225009E92582C8F608A6F0224D
:0D19A900BBFE09E92582C8F2E5F008F22234
:1019B600E88FF0A4CC8BF0A42CFCE98EF0A42CFCD0
:1019C6008AF0EDA42CFCEA8EF0A4CDA8F08BF0A44E
:1019D6002DCC3825F0FDE98FF0A42CCD35F0FCEBAD
:1019E6008EF0A4FEA9F0EB8FF0A4CFC5F02ECD3972
:0F19F600FEE43CFCEAA42DCE35F0FDE43CFC22DF
:101A050075F008758200EF2FFFEE33FECD33CDCC98
:101A150033CCC58233C5829BED9AEC99E58298401B
:101A25000CF582EE9BFEED9AFDEC99FC0FD5F0D6F8
:101A3500E4CEFBE4CDFAE4CCF9A88222B800C1B922
:101A45000059BA002DEC8BF084CFCECDFCE5F0CB60
:101A5500F97818EF2FFFEE33FEED33FDEC33FCEB99
:101A650033FB10D703994004EB99FB0FD8E5E4F954
:101A7500FA227818EF2FFFEE33FEED33FDEC33FC41
:101A8500C933C910D7059BE99A4007EC9BFCE99A35
:101A9500F90FD8E0E4C9FAE4CCFB2275F010EF2F7A
:101AA500FFEE33FEED33FDCC33CCC833C810D7077A
:101AB5009BEC9AE899400AED9BFDEC9AFCE899F8B5
:0E1AC5000FD5F0DAE4CDFBE4CCFAE4C8F92248
:1044DB00C2D5E830E70FB2D5E4C39BFBE49AFAE40C
:1044EB0099F9E498F8EC30E717B2D5124511121A86
:1044FB0041E4C39BFBE49AFAE499F9E498F880034E
:10450B00121A4130D50DE4C39FFFE49EFEE49DFDDE
:04451B00E49CFC22FE
:0E1AD300C3E49FFFE49EFEE49DFDE49CFC2224
:101AE100EB9FF5F0EA9E42F0E99D42F0EC6480C87C
:061AF10064809845F0221C
:101AF700EB9FF5F0EA9E42F0E99D42F0E89C45F045
:011B070022BB
:101B0800E8600FECC313FCED13FDEE13FEEF13FFBB
:031B1800D8F122DF
:101B1B00E8600FEFC333FFEE33FEED33FDEC33FC28
:031B2B00D8F122CC
:101B2E00BB010789828A83021D155005E9F8021D43
:101B3E0009BBFE05E9F8021D2189828A83021D2D4B
:101B4E00BB010DE58229F582E5833AF583021D1569
:101B5E005007E92582F8021D09BBFE07E92582F828
:101B6E00021D21E58229F582E5833AF583021D2DBA
:101B7E00BB010789828A83021BBC5005E9F8021D4E
:0A1B8E003DBBFE05E9F8021D4922E7
:101B9800BB010DE58229F582E5833AF583021BBC7A
:101BA8005007E92582F8021D3DBBFE07E92582F8AA
:041BB800021D49229F
:0C1BBC00ECF0A3EDF0A3EEF0A3EFF0229C
:101BC800A8828583F0D083D082121BDF121BDF121C
:101BD8001BDF121BDFE473E493A3C583C5F0C58341
:101BE800C8C582C8F0A3C583C5F0C583C8C582C867
:011BF80022CA
:101BF900BB010DE58229F582E5833AF583021BC80D
:101C09005007E92582F8021D55BBFE07E92582F830
:041C1900021D6E2218
:101C1D00F5F0C582A4C582C5F0C583A42583F583DF
:011C2D002294
:0C1C2E00A42582F582E5F03583F58322C1
:101C3A00BB010789828A83021D905005E9F8021DBB
:101C4A0087BBFE05E9F8021D9989828A83021DA2D3
:101C5A00BB010DE58229F582E5833AF583021D90E1
:101C6A005007E92582F8021D87BBFE07E92582F89D
:101C7A00021D99E58229F582E5833AF583021DA2C0
:101C8A00D083D082F8E4937012740193700DA3A3E9
:101C9A0093F8740193F5828883E4737402936860FD
:061CAA00EFA3A3A380DFFD
:101CB000D083D082F8E4937012740193700DA3A3C3
:101CC00093F8740193F5828883E473740293B5F0FA
:0D1CD000067403936860E9A3A3A3A380D862
:101CDD00EF4E6012EF60010EEDBB010B89828A831E
:101CED00F0A3DFFCDEFA2289F05007F709DFFCA92B
:0C1CFD00F022BBFEFCF309DFFCA9F02282
:0C1D0900E6FC08E6FD08E6FE08E6FF2206
:0C1D1500E0FCA3E0FDA3E0FEA3E0FF2241
:0C1D2100E2FC08E2FD08E2FE08E2FF22FE
:101D2D00E493FC740193FD740293FE740393FF22FC
:0C1D3D00ECF608EDF608EEF608EFF622D2
:0C1D4900ECF208EDF208EEF208EFF222D6
:101D5500D083D082E493F608740193F60874029355
:091D6500F608740393F67404738C
:101D6E00D083D082E493F208740193F20874029344
:091D7E00F208740393F27404737B
:091D8700E6FB08E6FA08E6F92281
:091D9000E0FBA3E0FAA3E0F92254
:091D9900E2FB08E2FA08E2F9227B
:0C1DA200E493FB740193FA740293F9229D
:00000001FF
