:03000000023D05B9
:0C3D0500787FE4F6D8FD758179023D4C12
:103632000170000267000001717F02720000026DDA
:103642000000026B000001780001740001660001B5
:103652007700016A00016900016300016F000179CE
:1036620001017600017500026400004E047710002B
:103672000378000000000000000000004E04CB2090
:10368200000378000000000000000000004E04BDAE
:1036920000100378000000000000000000004E044B
:1036A200AF00200378000000000000000000004E80
:1036B20004A10040037800000000000000000000A8
:1036C2004E04850080037800000000000000000026
:1036D200004E049301000378000000000000000087
:0236E2000000E6
:10000E00438E80E4F589758A67758CFCD28CD2A9F3
:03001E00D2AF223C
:1042FE00E4F5957596207580FF7590FF75A0FF7596
:08430E00B0FF12000E02434251
:104316007E017F107D007B017A027965121BD990A0
:0643260002617401F022A7
:102D55008B608A61896290000212182EFFAEF0E541
:102D6500F06003022F49EF24F6604C24F67003024D
:102D75002E2324F67003022E99241E6003022F4988
:102D850090000CE4F5F0121885121803FF90025D0F
:102D9500E055F0FEA3E05F4E6003022F49AB60AA49
:102DA50061A96290000275F00A121885900004125C
:102DB5001AF50000000022AB60AA61A9621218038F
:102DC500FF90025DE055F0FEA3E05F4E7037900086
:102DD50004121A4AEF2401FFE43EFEE43DFDE43C03
:102DE500FC900004121A94900004121A4AE47B1411
:102DF500FAF9F8C31219F34003022F49AB60AA612F
:102E0500A962022F3FAB60AA61A962900004121A61
:102E1500F500000000900002E4F5F0022F46AB60DB
:102E2500AA61A962900004121A4AEF2401FFE43E48
:102E3500FEE43DFDE43CFC900004121A94121803D4
:102E4500FF90025DE055F0FEA3E05F4E601AAB60B7
:102E5500AA61A962900002E475F01E12188590001F
:102E650008121AF500000000AB60AA61A962900083
:102E750004121A4AE47B907A01F9F8C31219F34057
:102E850003022F49AB60AA61A96290000CE475F0BA
:102E950001022F46AB60AA61A962900004121A4A8A
:102EA500EF2401FFE43EFEE43DFDE43CFC9000041C
:102EB500121A94121803FF90025DE055F0FEA3E08C
:102EC5005F4E6066AB60AA61A962900008121A4A5B
:102ED500EF2401FFE43EFEE43DFDE43CFC900008E8
:102EE500121A94900008121A4AE47B14FAF9F8C3EE
:102EF5001219F3504FAB60AA61A96290000C121829
:102F05002E640145F090000C700575F0038004E413
:102F150075F002121885900004121AF500000000E1
:102F2500900002740375F0788017AB60AA61A962FE
:102F3500900008121AF500000000900002E475F0F8
:052F45001412188522A2
:10422E007B017A0479BD122D557B017A0479AF1288
:10423E002D557B017A047985122D557B017A0479EF
:10424E0093122D557B017A047977122D557B017AC5
:06425E000479CB022D558E
:1042BC00E49004BFF0A3F09004B1F0A3F090048755
:1042CC00F0A3F0900495F0A3F0900479F0A3F09093
:0642DC0004CDF0A3F02266
:102F4A00900483E0FEA3E0FF4E604690037974EF9D
:102F5A00F0A374FFF0EF64014E701290026004F067
:102F6A00E5654564702BF5647565018021EF64029F
:102F7A004E9002607004740280027403F0E49004BC
:102F8A0083F0A3F0900479F0A3F0F564F565757603
:102F9A00019004D7E0FEA3E0FF4E604690037974E7
:102FAA00DFF0A374FFF0EF64014E70129002600428
:102FBA00F0E5654564702BF5647565018021EF6461
:102FCA00024E9002607004740280027403F0E4906E
:102FDA0004D7F0A3F09004CDF0A3F0F564F565757D
:102FEA0076019004C9E0FEA3E0FF4E6046900379A3
:102FFA0074FFF0A374EFF0EF64014E701290026058
:10300A0004F0E5654564702BF5647565018021EF70
:10301A0064024E9002607004740280027403F0E449
:10302A009004C9F0A3F09004BFF0A3F0F564F5652D
:10303A007576019004BBE0FEA3E0FF4E6046900364
:10304A007974FFF0A374DFF0EF64014E70129002FE
:10305A006004F0E5654564702BF5647565018021AF
:10306A00EF64024E9002607004740280027403F0EE
:10307A00E49004BBF0A3F09004B1F0A3F0F564F57A
:10308A0065757601900491E0FEA3E0FF4E604690DC
:10309A00037974FFF0A3747FF0EF64014E7012900D
:1030AA00026004F0E5654564702BF564756501807E
:1030BA0021EF64024E90026070047402800274036D
:1030CA00F0E4900491F0A3F0900487F0A3F0F56483
:1030DA00F56575760190049FE0FEA3E0FF4E60451A
:1030EA0090037974FEF0A304F0EF64014E7012901D
:1030FA00026004F0E5654564702BF564756501802E
:10310A0021EF64024E90026070047402800274031C
:10311A00F0E490049FF0A3F0900495F0A3F0F56416
:06312A00F5657576012237
:03000B000242644A
:10426400C0E0C0F0C083C082C0D075D00890033ACB
:10427400E004F07006900339E004F0124290124218
:0C4284002ED0D0D082D083D0F0D0E03219
:103E6900E4F5701242FE1243161232FE900339E055
:103E7900F572A3E0F573E575702AC390033AE095EE
:103E890073FF900339E09572FED3EF94F4EE940139
:103E99004012E0FEA3E08E72F5738E6DF56E12424C
:103EA900BC757501E575B401CD12002690034FE08C
:103EB900B4020C12205790034F7403F0E4A3F012DC
:073EC9001CAA122F4A80AF72
:0D36E4004A04D900FF00FF00FF00FF00FFB7
:0C3FF500C290C2907F007E007D007C0026
:084001008F2D8E2C8D2B8C2AD3
:10400900E4F531F530F52FF52EAF2DAE2CAD2BACF7
:104019002AAB31AA30A92FA82EC31219DD501C00D2
:10402900E4FAF9F8E5312401F531EA3530F530E9FA
:0B403900352FF52FE8352EF52E80CE38
:014044002259
:10435800D290D290D291D291123FF9C291C29122B9
:10432C00123FF5C291C291123FF9D290D290123F36
:06433C00F9D291D291229A
:0F436800123FF5D290D290123FF9C290C290222C
:0441F3008E278F285C
:1041F700E4F529123FF9123FF5E52830E006D291A0
:10420700D2918004C291C291123FF9E527C313F5F9
:1042170027E52813F528D290D290123FF90529E512
:0642270029C3940840CDFC
:01422D00226E
:103D910012438D1243587F407E001241F3120003FB
:103DA10012436812438D12432C1243587FC07E0088
:103DB1001241F312000312436812438DE4F526E524
:103DC1002625E024D9F582E43404F583E0FEA3E05E
:103DD100FF1241F312000312436812438D0526E5D9
:103DE10026C3940540D912432C1243587F8C7E0080
:0F3DF1001241F312000312436812438D02432C58
:05000300C294D2952219
:05438D00D294D295223C
:1028C0003030303030003130313031003130313063
:1028D0003200313031303300313031303400323079
:1028E0003130310000312D00322D00332D00342DD8
:1028F00000352D00362D00372D00382D00392D00E4
:1029000031300031310031320031330031340031A7
:10291000350031360031370031380031390032307E
:1029200000323100323200323300323400323500AE
:10293000323600323700323800323900333000206E
:10294000202041310020202041320020202041332E
:10295000002020204134002020204135002020206C
:10296000413600202020413700202020413800201F
:1029700020204139002020413130003630343039B8
:102980000020462D2D300020462D2D310020462DD3
:102990002D320020462D2D330020462D2D340020D1
:1029A000462D2D3500502D2D00452D2D0051322D59
:1029B0002D2D00502D2D203100502D2D2032005076
:1029C0002D2D2030002020203131002020203132D8
:1029D000002020203133002020203134002020200E
:1029E00031350020202031360020202031370020D2
:1029F00020203138002020203139002020203230A2
:102A000000202020323100202020323200202045BA
:102A10007272000001003DFF28C01000020000019A
:102A200003970101004DFF28C612001E000001039C
:102A30009902010145FF28CC14000E000001039A01
:102A4000030101B5FF28D216000E000001039B040C
:102A5000010225FF28D81C0007000001039C050186
:102A6000013DFF28DE1A0001000001039D00000067
:102A7000000000000000000000000000FF28E4400B
:102A80000000000103480405000001869F000000CB
:102A90000000000000000000000000000000000036
:102AA0000000000000000000000000000000000026
:102AB0000000000000000000000000000000000016
:102AC00000000000000000FEB0EDF9B3DBDFF0FF16
:102AD000FB00004080003F065B4F666D7D077F6F07
:102AE000771F4E3D4F47FB771F4E3D7971FB3706F1
:102AF0000E07386A761D7367055B313E1C5C313BFF
:102B0000ED000000620800771F4E3D4F47FB37067F
:102B100038070E6A151D6773505B783E1C5C313BAD
:062B2000ED0000000000C2
:1036F1004102640041039D0041037E00460397029D
:103701001E0E07010048037F0402FF2A7CFF2A13D3
:103711004203790000410260004102610141003928
:10372100004100000041000100420006000042008B
:103731000C000042000E0000420010000041001287
:103741000042001300004200150000420017000073
:10375100420019000042001B000042001D0000420F
:10376100001F00004200210000420023000042002F
:10377100270000420029000141002D0042002E00D7
:0F378100004100300042003100004200330000E0
:043ED0007BFFE4FD93
:103ED4008B268A2789288D29AB260528E528AA2739
:103EE4007002052714F9121722FF3395E0FE74A619
:103EF4002FF582742A3EF583E493FD3395E0FCAFFD
:103F0400290529EF3395E0FEEF25E0FFEE33FE743B
:103F1400D92FF58274043EF583ECF0A3EDF0C3E5EC
:103F240029648094865009AA27A92812172270A808
:013F3400226A
:10239000E4F529EF121B86241300241F01242B02CD
:1023A000243703244304244F05245B0624670724B1
:1023B0007308247F09248B0A24970B24A30C24AFD1
:1023C0000D24BB0E24C70F24D31024DF1124EB12DD
:1023D00024F713250314250F15251B16252717256C
:1023E0003318253F19254B1A25571B25631C256ECD
:1023F0001D257950258451258F52259A5325A554A2
:1024000025B05525BB5625C65725D15825DC590082
:102410000025E57526FF7527287528E50225E57551
:1024200026FF7527287528E80225E57526FF7527FC
:10243000287528EB0225E57526FF7527287528EEF7
:102440000225E57526FF7527287528F10225E57513
:1024500026FF7527287528F40225E57526FF7527C0
:10246000287528F70225E57526FF7527287528FAAF
:102470000225E57526FF7527287528FD0225E575D7
:1024800026FF7527297528000225E57526FF752783
:10249000297528030225E57526FF75272975280665
:1024A0000225E57526FF7527297528090225E5759A
:1024B00026FF75272975280C0225E57526FF752747
:1024C0002975280F0225E57526FF7527297528121D
:1024D0000225E57526FF7527297528150225E5755E
:1024E00026FF7527297528180225E57526FF75270B
:1024F0002975281B0225E57526FF75272975281ED5
:102500000225E57526FF7527297528210225E57521
:1025100026FF7527297528240225E57526FF7527CE
:10252000297528270225E57526FF75272975282A8C
:102530000225E57526FF75272975282D0225E575E5
:1025400026FF7527297528300225E57526FF752792
:10255000297528330225E57526FF75272975283644
:102560000225E57526FF7527297528398077752698
:10257000FF75272975283C806C7526FF75272975FE
:10258000283F80617526FF75272975284580567577
:1025900026FF75272975284B804B7526FF7527293F
:1025A00075285180407526FF752729752857803575
:1025B0007526FF75272975285D802A7526FF7527E2
:1025C00029752863801F7526FF752729752869805E
:1025D000147526FF75272975286F80097526FF75E4
:1025E0002729752875AB260528E528AA2770020536
:1025F0002714F9121722FF3395E0FE74A62FF582F7
:10260000742A3EF583E493FD3395E0FCAF29052958
:10261000EF3395E0FEEF25E0FFEE33FE74D92FF5A2
:102620008274043EF583ECF0A3EDF0C3E5296480E9
:0D26300094865009AA27A92812172270A825
:01263D00227A
:04416B00AC07A905EF
:10416F00AD04E9FF3395E0FEECFB3395E0FAEB2F5E
:10417F00FFEA3EFEEDFB3395E0FAC3EB9FEE648062
:10418F00F8EA6480985018EB25E0FFEA33FE74D903
:0F419F002FF58274043EF583E4F0A3F00D80C386
:0141AE0022EE
:0A3AD3008F237B017A03798DE4FD57
:083ADD008B268A2789288D2918
:103AE500E4F52AAB26AA27A92890000112173BB4B2
:103AF5002E05E52AB40148AB260528E528AA277036
:103B050002052714F9121722FF3395E0FE74A62F3C
:103B1500F582742A3EF583E493FD3395E0FCAF29E5
:103B25000529EF3395E0FEEF25E0FFEE33FE74D96E
:103B35002FF58274043EF583ECF0A3EDF08056ABCF
:103B4500260528E528AA277002052714F912172249
:103B5500FF3395E0FE74A62FF582742A3EF583E4C3
:103B6500934480FD3395E0FCAF290529EF3395E0BB
:103B7500FEEF25E0FFEE33FE74D92FF58274043E87
:103B8500F583ECF0A3EDF0752A0174012528F528DD
:103B9500E43527F527C3E529648094865003023A66
:013BA500E837
:013BA60022FC
:1034BD00E4FDEDFF3395E0FEEF25E0FFEE33FE7406
:1034CD00652FF974023EFA7B01EDFF3395E0FEEFB7
:1034DD007803C333CE33CED8F9243DF58274003E44
:1034ED00F583EBF0A3EAF0A3E9F00DBD02C4E4FD12
:1034FD00EDFF3395E0FEEF25E0FFEE33FE746B2F0D
:10350D00F974023EFA7B01EDFF3395E0FEEF78038F
:10351D00C333CE33CED8F9244DF58274003EF583F6
:10352D00EBF0A3EAF0A3E9F00DBD1EC4E4FDEDFF41
:10353D003395E0FEEF25E0FFEE33FE74A92FF9740D
:10354D00023EFA7B01EDFF3395E0FEEF7803C333C6
:10355D00CE33CED8F92445F58274013EF583EBF0D8
:10356D00A3EAF0A3E9F00DBD0EC4E4FDEDFF339524
:10357D00E0FEEF25E0FFEE33FE74C72FF974023E37
:10358D00FA7B01EDFF3395E0FEEF7803C333CE33C5
:10359D00CED8F924B5F58274013EF583EBF0A3EA9C
:1035AD00F0A3E9F00DBD0EC4E4FDEDFF3395E0FE93
:1035BD00EF25E0FFEE33FE74E52FF974023EFA7B42
:1035CD0001EDFF3395E0FEEF7803C333CE33CED854
:1035DD00F92425F58274023EF583EBF0A3EAF0A3FE
:1035ED00E9F00DBD07C4E4FDEDFF3395E0FEEF25D9
:1035FD00E0FFEE33FE74F52FF974023EFA7B01ED18
:10360D00FF3395E0FEEF7803C333CE33CED8F924E4
:10361D003DF58274013EF583EBF0A3EAF0A3E9F0EA
:04362D000DBD01C40A
:013631002276
:02263E008F22E9
:10264000EF3395E0FE902A1D75F00FEF121B2AEE76
:1026500075F00FA42583F583E493F527740193F5B2
:10266000280528E528AE277002052714FF1242E24C
:102670008F26E4F529F52AAF22EF3395E0FE902A64
:102680001C75F00FEF121B2AEE75F00FA42583F5D1
:1026900083E493FD3395E0FCC3E52A9DEC6480F868
:1026A000E529648098400302279FE522B40439900D
:1026B0002A1475F00F121B2AEE75F00FA42583F56E
:1026C00083E493FB740193FA740293F9E52AAE292B
:1026D0007803C333CE33CED8F929F9EA3EFA900015
:1026E00003740175F0C2803FAF22EF3395E0FE9096
:1026F0002A1475F00FEF121B2AEE75F00FA4258334
:10270000F583E493FB740193FA740293F9E52AAE1E
:10271000297803C333CE33CED8F929F9EA3EFA90AB
:102720000003740375F0E7121885E522FD3395E088
:10273000FC902A1475F00FED121B2AEC75F00FA413
:102740002583F583E493FB740193FA740293F9E50E
:102750002AAE297803C333CE33CED8F9FF29F9EA5C
:102760003EFA900005E4F5F0121885902A1475F0F1
:102770000FED121B2AEC75F00FA42583F583E4936B
:10278000FB740193FA7402932FF9EA3EFA90000762
:10279000E412177A052AE52A7002052902267790A5
:1027A0002A50E493FB740193FA740293F990003376
:1027B000740175F0F4121885E52214601B1460236F
:1027C00014602B14603314603B24057040752301A2
:1027D00075240275256580357523017524027525DC
:1027E0006B802A7523017524027525A9801F752326
:1027F000017524027525C78014752301752402759F
:1028000025E580097523017524027525F5AF22EFB2
:102810003395E0FE902A1A75F00FEF121B2AEE7521
:10282000F00FA42583F583E493F527740193F5282D
:10283000E4F529F52AAF22EF3395E0FE902A1C75C6
:10284000F00FEF121B2AEE75F00FA42583F583E439
:1028500093FF3395E0FEEF2401FFE43EFEC3E52A3B
:102860009FEE6480F8E52964809850530528E52898
:10287000AE277002052714FF1242E2AB23AA24A957
:1028800025EF12176874012525F525E43524F52474
:102890000528E528AE277002052714FF1242E2AB97
:1028A00023AA24A925EF12176874012525F525E42C
:0F28B0003524F524052AE52A700205290228356A
:0128BF0022F6
:103F3500E4FDEDFF3395E0FEEF25E0FFEE33FE7483
:103F4500652FF58274023EF583E0FAA3E0FB74F970
:103F55002FF58274023EF583EAF0A3EBF00DBD0266
:103F6500D1E4FDEDFF3395E0FEEF25E0FFEE33FEF6
:103F7500746B2FF58274023EF583E0FAA3E0FB74BF
:103F8500FD2FF58274023EF583EAF0A3EBF00DBD3B
:023F95001ED13B
:013F97002207
:103C75007BF97A7FE4FF0BEBAC0270010A14F58245
:103C85008C83E493FE74222FF8A6060FBF07E7AFD7
:103C950027EF3395E0900363F0A3EFF0E0F8E4F04D
:103CA500E8900363F0AF28E0F0A3E04FF0900363E2
:103CB500E0FEA3E0FF7C077DD01217AEA3ECF0A3D6
:103CC500EDF0E4FAFBE025E0FF900365E033FE123A
:103CD50042E28F22900366E025E0FF900365E03322
:103CE500FEEF2401FFE43EFE1242E28F23AF229055
:0F3CF5000367E4F0A3EFF0AF23A3E4F0A3EFF035
:013D0400229C
:1032FE00C2A57A29797B123ED0123D91900381E0CE
:10330E00F9A3E0FAA3E090040FC9F0A3EAF0A3E951
:10331E00F0E4F52190040FE0FBA3E0FAA3E0F9AF8F
:10332E0021EF3395E08F82F5837415121B19121B52
:10333E0056EA494B6004052180DA900402E521F03B
:10334E00900384E0FBA3E0FAA3E0F9900036EBF0E3
:10335E00A3EAF0A3E9F0900001121B5690003AEB9D
:10336E00F0A3EAF0A3E9F0E4F521900036E0FBA328
:10337E00E0FAA3E0F9AF21EF3395E08F82F5837485
:10338E000F121B1912173BB5210712263E0521807D
:10339E00D990025FE521F0123F351234BDE490035F
:1033AE0087F0900262F0F51775180190037CF0908B
:1033BE00033DF090033BF0A3F090033EF0900344E6
:1033CE00121AC400000000E4900361F0123C7590E4
:1033DE000367E0FFA3E09002DFCFF0A3EFF09003CE
:1033EE0069E0FFA3E09002E1CFF0A3EFF0E49003D9
:1033FE0062F0F521AF21EF3395E0FEEF7802C33393
:10340E00CE33CED8F9FF24C7F58274023EF583E0A1
:10341E00FCA3E04C702874C92FF58274023EF5832C
:10342E00E0FEA3E04E7017900362E0FFAE21740140
:10343E00A806088002C333D8FC4F900362F0AF2178
:10344E00EF3395E0FEEF7802C333CE33CED8F9FFDB
:10345E0024A9F58274023EF583E4F0A3F074AB2F39
:10346E00F58274023EF583E4F0A3F00521E52164B4
:10347E00077081123130123BA7E47B107A27F9F8DE
:10348E0090036BE0FCA3E0FDA3E0FEA3E0FF1219A6
:10349E003D9002F5EEF0A3EFF0E4900339F0A3F0C7
:0E34AE00900340F0A3F074FF90025DF0A3F0D5
:0134BC0022ED
:04379F008E268F27BC
:1037A3007570AA902A1A75F00FEF121B2AEE75F0A6
:1037B3000FA42583F583E493FE740193FF1241263E
:1037C300E4F570E5267055E52714601B1460231497
:1037D300602B14603314603B240570407528017519
:1037E3002902752A658035752801752902752A6BAA
:1037F300802A752801752902752AA9801F75280159
:10380300752902752AC78014752801752902752A3E
:10381300E58009752801752902752AF5902A1A751C
:10382300F00FE527121B2AE52675F00FA42583F573
:1038330083E493F52C740193F52DE4F52B902A1C66
:1038430075F00FE527121B2AE52675F00FA42583D3
:10385300F583E493FF3395E0FEEF2401FFE43EFE9E
:10386300C3E52B9FEE6480F874809840030238FE12
:103873007570AAAB28AA29A92A121722FDAF2DAE6B
:103883002C124045AF2DAE2C1242E2AE07AB28AA54
:1038930029A92A1217226E600790033CE04420F006
:1038A3007401252AF52AE43529F529052DE52D701E
:1038B30002052CAB28AA29A92A121722FDAF2DAE87
:1038C3002C124045AF2DAE2C1242E2AE07AB28AA14
:1038D30029A92A1217226E600790033CE04420F0C6
:1038E3007401252AF52AE43529F529052DE52D70DE
:1038F30002052CE4F570052B023840123F3575663E
:0139030001C2
:0139040022A0
:1040DE00EF14601814601D14602214602714602CF5
:1040EE00240570337BFF7A29798180267BFF7A291C
:1040FE007987801E7BFF7A29798D80167BFF7A293E
:10410E007993800E7BFF7A29799980067BFF7A2935
:08411E00799FE4FD123ED4225A
:10002600A2A4E4335401FF90025DE0FCA3E054FE79
:10003600FDECFEED4FFF90025DEEF0A3EFF0A2A304
:10004600E433540125E0FFE433FE90025DE0FCA3B7
:10005600E054FDFDEC4EFEED4FFF90025DEEF0A389
:10006600EFF0A2A2E4FE3354017802C333CE33CEBE
:10007600D8F9FF90025DE0FCA3E054FBFDEC4EFED8
:10008600ED4FFF90025DEEF0A3EFF0A2A1E4FE3388
:1000960054017803C333CE33CED8F9FF90025DE026
:1000A600FCA3E054F7FDEC4EFEED4FFF90025DEE33
:1000B600F0A3EFF0A2A0E4335401C4F8540FC868CB
:1000C600FFE4C454F048FE90025DE0FCA3E054EF68
:1000D600FDEC4EFEED4FFF90025DEEF0A3EFF0A2B9
:1000E600B5E4FE3354017805C333CE33CED8F9FFD9
:1000F60090025DE0FCA3E054DFFDEC4EFEED4FFF09
:1001060090025DEEF0A3EFF0A2B3E4FE3354017863
:1001160006C333CE33CED8F9FF90025DE0FCA3E0F0
:1001260054BFFDEC4EFEED4FFF90025DEEF0A3EFE7
:10013600F0A2B2E4FE3354017807C333CE33CED8EF
:10014600F9FF90025DE0FCA3E0547FFDEC4EFEED6E
:100156004FFF90025DEEF0A3EFF0A2A6E433540148
:10016600FE90025DE054FEFCA3E0FDEC4EFFED9038
:10017600025DCFF0A3EFF0A2A7E433540125E0FE21
:1001860090025DE054FDFCA3E0FDEC4EFFED900215
:100196005DCFF0A3EFF0A292E433540125E025E011
:1001A600FE90025DE054FBFCA3E0FDEC4EFFED90FB
:1001B600025DCFF0A3EFF0A293E43354013333335F
:1001C60054F8FE90025DE054F7FCA3E0FDEC4EFF10
:1001D600ED90025DCFF0A3EFF0A296E4335401C494
:1001E60054F0FE90025DE054EFFCA3E0FDEC4EFF00
:1001F600ED90025DCFF0A3EFF0A297E4335401C473
:100206003354E0FE90025DE054DFFCA3E0FDEC4ECB
:10021600FFED90025DCFF0A3EFF0A2CCE4335401E2
:10022600C4333354C0FE90025DE054BFFCA3E0FD2E
:10023600EC4EFFED90025DCFF0A3EFF0A2CDE433DC
:100246005401C43333335480FE90025DE0547FFC86
:10025600A3E0FDEC4EFFED90025DCFF0A3EFF09032
:10026600025DE0FFA3E090000CCFF0A3EFF090005A
:1002760010E0FEA3E0FF90000CE0FCA3E0FD6F7031
:1002860002EC6E6079900339E0FEA3E0FF90001D5A
:10029600EEF0A3EFF0900019E07002A3E070119069
:1002A6000025EEF0A3EFF0900000E04401F0800797
:1002B600900000E054FEF0900015E0FEA3E0FF90F1
:1002C6000339E0FAA3E0FBC39FFFEA9EFED3EF9457
:1002D60032EE94004025900010ECF0A3EDF0900073
:1002E60013EAF0A3EBF0E4900017F0A3F0A3F0A359
:1002F600F0900029F0A304F00203FF0203F8900037
:1003060025E0FEA3E0FF900339E0FCA3E0FDC39FD8
:10031600FFEC9EFED3EF9432EE940040079000006F
:10032600E054FEF090001DE0FEA3E0FFC3ED9FFF4A
:10033600EC9EFED3EF9430EE9475402E900339E098
:10034600FFA3E090001DCFF0A3EFF0900023E07034
:1003560002A3E07015E51864114517600D751700C6
:10036600751801E4900021F0A3F0900013E0FEA3BD
:10037600E0FF900339E0FCA3E0FDC39FFFEC9EFE87
:10038600D3EF9432EE94004069900015ECF0A3EDA3
:10039600F090000CE0FEA3E0F47002EEF4605A90D8
:1003A6000019E07002A3E07050900018E004F070AD
:1003B60006900017E004F0D3900018E094649000D3
:1003C60017E0648094804031900019E4F0A304F0B3
:1003D600900029E4F0A304F0E4900027F0A3F09045
:1003E600001BECF0A3EDF0900017E4F0A3740AF004
:1003F6008007E490000CF0A3F0900019E07002A3CF
:10040600E0605B90001BE0FEA3E0FF900339E0FC98
:10041600A3E0FDC39FFFEC9EFED3EF9464EE940031
:10042600403C900028E004F07006900027E004F0BD
:10043600900027E0FEA3E0FFD39432EE6480948020
:100446004007A3E4F0A3740AF0EF4E600890001B87
:10045600ECF0A3EDF090000EE4F0A374FFF0900032
:100466000CE0FEA3E0FF4E6021A3E0FCA3E0FDEF5D
:100476006D7002EE6C600C90000CA3A3EEF0A3EF7F
:10048600F08007E490000CF0A3F090000CE0FEA3CF
:10049600E0FFF47003EE64FD6012EFF47003EE64A7
:1004A600FB6009EFF47003EE64F7703F900361E0C0
:1004B600FF602090000CE0B4FB19A3E0B4FF14EF3A
:1004C6003395E0FEEF2414FFE43E90033BF0A3EFE8
:1004D600F0801875760190000CE0FFA3E090037998
:1004E600CFF0A3EFF09002607402F0900033E0FECC
:1004F600A3E0FFEE7073EF24F6602524F6604D242A
:10050600147066209463900033E4F0A3740AF090AC
:100516000339E0FFA3E0900031CFF0A3EFF080496C
:1005260020943F900031E0FEA3E0FFC390033AE041
:100536009FFF900339E09EFED3EF9464EE94004053
:1005460028900033E4F0A37414F0801D30941A75DB
:10055600760190037974FFF0A374EEF09002607454
:1005660002F0E4900033F0A3F0E51760030215DF14
:10057600E51824FE7003020A41147003020DF914F3
:10058600700302114F24FB70030215A624F97003B1
:10059600020CD8147003020C25241060030215DF28
:1005A60090000CE0FEA3E08EF0121BAC07287FFF44
:1005B60006B1BFFF0802FFBF079DFFF70622FFFB3C
:1005C6000685FFFD05D2FFFE00000819E490003005
:1005D600F0900021E07002A3E0702690038874304A
:1005E600F0A3F0A3F0A3F0A3F090037B7404F07BD8
:1005F600017A037988E4FD123ED475170075180256
:1006060022900039E0B4010AE4F090002DF0900346
:100616009DF0E4900021F0A3F0020819E490003068
:10062600F0900019E07002A3E06042900021E070B3
:1006360002A3E0703890036BE0FCA3E0FDA3E0FEAC
:10064600A3E0FFA3E0F8A3E0F9A3E0FAA3E0FBC36D
:100656001219F3601890036BE0FCA3E0FDA3E0FE23
:10066600A3E0FFA3121AB8756F01123E0090026153
:10067600E064016003020819756901F0020819E4D3
:10068600900030F0900339E0FFA3E090001FCFF018
:10069600A3EFF0A3E4F0A37405F0900261E0600319
:1006A60002081975690104F0020819E4900030F097
:1006B600900021E07002A3E0600302081990003662
:1006C600E0FBA3E0FAA3E0F9900001121B569000AC
:1006D6003AEBF0A3EAF0A3E9F0E4900403F0A3F008
:1006E600A304F0E4900262F090000104F0E49000AC
:1006F60023F0A3F0FC7D0FFFFE12179C900036E05E
:10070600FBA3E0FAA3E02FF9EA3EFA9000091217DC
:100716003B900412F0D364809480500302172102A8
:100726000BF9E4900030F0900021E07002A3E06045
:1007360003020819900036E0FBA3E0FAA3E0F99063
:100746000001121B5690003AEBF0A3EAF0A3E9F081
:10075600E4900403F0A304F0A3F0900262F090008A
:1007660001F0E4900023F0A3F0FC7D0FFFFE1217CA
:100776009C900036E0FBA3E0FAA3E02FF9EA3EFAEC
:1007860090000912173B900412F0D36480948050B5
:1007960003021721020BF9900039E0703790001917
:1007A600E07002A3E06010900030E0C3648094A87B
:1007B600500AE004F08005E4900030F0900339E040
:1007C600FFA3E090001FCFF0A3EFF0A3E4F0A37423
:1007D60002F0803F75760190037974FFF0A374BF31
:1007E600F09002607402F0E4900021F0A3F0900013
:1007F60039F090002DF090039DF08017900039E0BD
:100806007011756301900021F0A37404F090003913
:100816007401F0900021E07002A3E0600302097FFA
:10082600900380E0FF900004E4F0A3EFF0900262F2
:10083600E0F52290033BE07002A3E060030208D8D3
:1008460090033DE0704CA3E0B4011090039D740149
:10085600F090002DE0700B04F08007900000E0544B
:10086600FDF090036FE0F8A3E0F9A3E0FAA3E0FB44
:1008760090036BE0FCA3E0FDA3E0FEA3E0C39BFFB7
:10088600EE9AFEED99FDEC98FC900348121AB80218
:1008960009097A2979A5123ED090033DE0FB547FE1
:1008A600FF3395E0FEFDFC900008121AB8EB30E726
:1008B6000890002DE0700204F0122B348F237B0188
:1008C6007A0379907D03123ADD90039D7401F0025C
:1008D600094A90033BE0FEA3E0FF640B4E6006EF7F
:1008E600640C4E703490033EE0B4011090039D7486
:1008F60001F090002DE0700B04F08007900000E0FE
:1009060054FDF0900348E0FCA3E0FDA3E0FEA3E065
:10091600FF122B2E123AD3802B7BFF7A2979A9E47A
:10092600FD123ED490002DE0700204F090033B12BD
:100936002B268F237B017A0379907D03123ADDE41F
:1009460090039DF090037CE07003020A2590037FDC
:10095600E0FF900387E004FEF0D3EF6480F8EE64D6
:1009660080985003020A25E4F0900262E004F0E465
:10097600900004F0A3F0020A25900021E07004A381
:10098600E064027033900342122B26123AD3900091
:100996001FE0FEA3E0FFC390033AE09FFF900339F8
:1009A600E09EFED3EF94D0EE94074073900021E4CE
:1009B600F0A37403F0020A25900021E07004A3E07E
:1009C600640370059003408035900021E07004A315
:1009D600E06404701A7BFF7A2979ADFD123ED4904B
:1009E600002DE0700204F090039D7401F0803090B9
:1009F6000021E07004A3E064057024900363E0FE28
:100A0600A3E0FFE4FCFD900008121AB8900008A3CA
:100A1600A3E0FEA3E0FFE4FDFC122B2E123AD390D6
:100A26000030E0642860030215E5F0F5177518102C
:100A3600900021F0A37404F0020D8290000CE0FEF9
:100A4600A3E08EF0121BAC0AB2FFF70A6CFFFB0A9A
:100A560082FFFD0A61FFFE00000C05E4900262F0D1
:100A6600F5177518012290037BE014F0C364809497
:100A7600804003020C057404F0020C0590037BE031
:100A8600FF3395E0FE74882FF58274033EF583E00C
:100A960004F0D3648094B95003020C0574882FF5D2
:100AA6008274033EF5837430F0020C0575210190C3
:100AB600025FE0C36480F8E5216480984003021772
:100AC60021900036E0FBA3E0FAA3E0F9E52175F0FA
:100AD6000FA4FFE92FF9E43AFA900004121B56120C
:100AE6001722FF900388E06F6003020C00AF21EF2E
:100AF6003395E0FE7C007D0F12179C900036E0FBDC
:100B0600A3E0FAA3E02FF9EA3EFA900004121B567E
:100B160090000112173BFF900389E06F6003020CFF
:100B26000090000212173BFF90038AE06F600302F9
:100B36000C0090000312173BFF90038BE06F6003DD
:100B4600020C0090000412173BFF90038CE06F60CC
:100B560003020C00E521B404289002DBE07002A336
:100B6600E0700A9002DDE07002A3E0601490036278
:100B7600E020E50D9002F1E07002A3E060030217A9
:100B860021AF21EF3395E0FE900023F0A3EFF07C38
:100B9600007D0F12179C900036E0FBA3E0FAA3E05D
:100BA6002FF9EA3EFA900001121B5690003AEBF03C
:100BB600A3EAF0A3E9F0900023E0FEA3E0FF90048F
:100BC60003F0E4A3F0A304F0E4900262F012179C91
:100BD600900036E0FBA3E0FAA3E02FF9EA3EFA9094
:100BE600000912173B900412F0D3648094805003DE
:100BF600021721751700751803220521020AB59000
:100C06000006E07002A3E0600D900019E07002A3F8
:100C1600E0700302151C7B017A0379880215D890CF
:100C2600000CE0FEA3E08EF0121BAC0C39FFFE00B8
:100C3600000C6AE4900021F0A3F090037B7404F0AA
:100C4600E4900387F09004037478F090040574012F
:100C5600F0E4900262F0F51775180190002DF090FF
:100C6600039DF02290033BE0FEA3E0FF640B4E6081
:100C760006EF640C4E7044EF640B4E70147BFF7AE3
:100C86002979B3FD123ED490002DE0702504F08042
:100C96002190033BE07004A3E0640C60030215E5B9
:100CA6007BFF7A2979B9FD123ED490002DE07002BF
:100CB60004F090039D7401F00215E57BFF7A297913
:100CC600BFE4FD123ED4E490002DF090039DF002A7
:100CD60015E590000CE0FEA3E08EF0121BAC0DF0C3
:100CE6007FFF0DE7BFFF0D9FDFFF0DA8EFFF0D96FE
:100CF600F7FF0D8DFBFF0DD5FDFF0DCCFEFF0DC3E0
:100D0600FF7F0DDEFFBF0DB1FFDF0DBAFFEF0D71E7
:100D1600FFFB0D4CFFFD0D24FFFE000015E5E490E2
:100D26000021F0A3F090037B7404F0E4900387F0B5
:100D36009004037478F09004057401F0E490026264
:100D4600F0F5170215E290037EE0C36480948150AB
:100D560006E004F075770190037EE0FF1240DE9016
:100D6600037EE0D3648094800215E590037EE0D391
:100D7600648094804006E014F075770190037EE06D
:100D8600FF1240DE0215E57BFF7A2979C50215D8E8
:100D96007BFF7A2979CB0215D87BFF7A2979D10294
:100DA60015D87BFF7A2979D70215D87BFF7A29795E
:100DB600DD0215D87BFF7A2979E30215D87BFF7A05
:100DC6002979E90215D87BFF7A2979EF0215D87BB4
:100DD600FF7A2979F50215D87BFF7A2979FB021566
:100DE600D87BFF7A2A79010215D87BFF7A2A790700
:100DF6000215D890000CE0FEA3E08EF0121BAC0E9C
:100E060088FFF70E44FFFB0E61FFFD0E19FFFE0083
:100E1600000EEBE4900021F0A3F090037B7404F045
:100E2600E4900387F09004037478F090040574014D
:100E3600F0E4900262F0F517751801020EEB9002CD
:100E460062E0FF14F0EF7009900412E01490026261
:100E5600F0900262E0900404F08020900412E0FF1B
:100E6600900262E004FEF0C3EF6480F8EE648098BE
:100E76004002E4F0900262E0900404F0A37401F0F2
:100E86008063900403E0FDB40427900262E0FF74DF
:100E9600017E00A807088005C333CE33CED8F9FFFC
:100EA600900362E0FB3395E05EFEEF5B4E603680BA
:100EB6002EEDB4032A900262E0A2E713FF74017ECE
:100EC60000A807088005C333CE33CED8F9FF9003B8
:100ED60062E0FD3395E05EFEEF5D4E6008800090B7
:100EE60000017405F0900403E0FF7008900001E033
:100EF600600204F0900001E06405600302106BF0EC
:100F0600900262E0FEF52290037B7404F090026387
:100F16007402F0EFB40331EEA2E713FF74017E0012
:100F2600A807088005C333CE33CED8F9FF900362F5
:100F3600E0FD3395E05EFEEF5D4E700C900375129A
:100F46001AC400000000802090040BE0FBA3E0FA26
:100F5600A3E0F9121B36121803FFAEF0EE3395E04C
:100F6600FDFC900375121AB8751700751804AF22A8
:100F7600EF3395E0FEEF7803C333CE33CED8F9FFD7
:100F860090003AE0FBA3E0FAA3E02FF9EA3EFA90DC
:100F9600040BEBF0A3EAF0A3E9F09002637402F00D
:100FA600121B36752A03E4F52B752C01752D037576
:100FB6002E8DF52F7530027D02122B508F23900354
:100FC6007D7403F09003887430F0A3F0740314600A
:100FD6006A14604214600302105FAF23EF3395E09A
:100FE600FE748D2FF58274033EF583E0FF90038A2D
:100FF600F0BF20037430F0AF23EF3395E0FE748E1C
:101006002FF58274033EF583E0FD90038BF0BD203F
:10101600037430F0803490038A7420F0AF23EF33EA
:1010260095E0FE748E2FF58274033EF583E0FD9005
:10103600038BF0BD20037430F0800F90038A742078
:10104600F0A3F0AF23EF3395E0FE748F2FF5827493
:10105600033EF583E090038CF0E490002BF0A3F0C0
:10106600F517751804D3900005E09400900004E08D
:101076009400400FA3E024FFF0900004E034FFF05A
:101086000215E5900380E0FF900004E4F0A3EFF082
:10109600900262E0FDFF3395E0FEEF7803C333CEA6
:1010A60033CED8F9FF90003AE0FBA3E0FAA3E02F95
:1010B600F9EA3EFA90040BEBF0A3EAF0A3E9F0900C
:1010C6000403E0B40331EDA2E713FF74017E00A828
:1010D60007088005C333CE33CED8F9FF900362E00C
:1010E600FD3395E05EFEEF5D4E700C900375121AAF
:1010F600C400000000802090040BE0FBA3E0FAA3EC
:10110600E0F9121B36121803FFAEF0EE3395E0FD40
:10111600FC900375121AB8900262E0FF12239075D4
:101126002A03E4F52B752C01752D03752E8DF52FED
:101136007530027A037975122B4C8F23748D2FF933
:10114600E43403FA7B0102159F90000CE0FEA3E055
:101156008EF0121BAC12D1FFF7117BFFFB122BFF97
:10116600FD116FFFFE00001508900403E060030206
:1011760015020214D9900262E0FF3395E0FEEF7883
:1011860003C333CE33CED8F9FF90003AE0FBA3E099
:10119600FAA3E02FF9EA3EFA90000712173B30E077
:1011A60003021508900375E0FCA3E0FDA3E0FEA38F
:1011B600E0FFC006C007900029E0FEA3E0FBAA06F8
:1011C600EA3395E0F9F8D007D006C3EF9BFFEE9A15
:1011D600FEED99FDEC98FC900375121AB890040B7D
:1011E600E0FBA3E0FAA3E0F990000512182EFFAE8B
:1011F600F0EE3395E0FDFC900375E0F8A3E0F9A36B
:10120600E0FAA3E0FBC31219DD40030215089004BF
:101216000BE0FBA3E0FAA3E0F990000512182EFFFD
:10122600AEF00212C2900262E0FF3395E0FEEF7864
:1012360003C333CE33CED8F9FF90003AE0FBA3E0E8
:10124600FAA3E02FF9EA3EFA90000712173B30E0C6
:1012560003021508900375E0F8A3E0F9A3E0FAA3EA
:10126600E0FB900029E0FEA3E0FFEE3395E0FDFCF5
:10127600EB2FFFEA3EFEE93DFDE83CFC90037512CC
:101286001AB890040BE0FBA3E0FAA3E0F990000380
:1012960012182EF52585F024AE24FFEE3395E0FDD9
:1012A600FC900375E0F8A3E0F9A3E0FAA3E0FBD312
:1012B6001219DD5003021508AE24AF25EE3395E072
:1012C600FDFC900375121AB8021508900019E0701B
:1012D60002A3E060030214D37B017A0379889002AB
:1012E60063E0F52A7D05123905900375121AB89048
:1012F600040BE0FBA3E0FAA3E0F990000312182E1A
:10130600FFAEF0EE3395E0FDFC900375E0F8A3E048
:10131600F9A3E0FAA3E0FBD31219DD40030214D3CC
:1013260090040BE0FBA3E0FAA3E0F9900005121885
:101336002EFFAEF0EE3395E0FDFC900375E0F8A3CA
:10134600E0F9A3E0FAA3E0FBC31219DD500302148F
:10135600D37E007F02E47066EF1460481460252493
:10136600FE705B900375E0FCA3E0FDA3E0FEA3E046
:10137600FF90040BE0FBA3E0FAA3E0F9121B361280
:101386001A7A803A900375A3A3E0FEA3E0FF9004C7
:101396000BE0FBA3E0FAA3E0F9121B36EE8FF01286
:1013A6001866801A900375A3A3A3E0FF90040BE0D0
:1013B600FBA3E0FAA3E0F9121B36EF1217689003BD
:1013C6008AE0B4300B7420F0A3E0B430037420F04C
:1013D6007B017A03798A7D02123ADD900403E06488
:1013E6000260030214C7900262E0A2E713FDFF3316
:1013F60095E0FEEF7802C333CE33CED8F9FF24A9A9
:10140600F58274023EF583E0FAA3E0FB74C72FF57C
:101416008274023EF583E0FEA3E06B7002EE6A6022
:10142600030214BFEDFF3395E0FEEF7802C333CE1F
:1014360033CED8F9FF24ABF58274023EF583E0FA89
:10144600A3E0FB74C92FF58274023EF583E0FEA388
:10145600E06B7002EE6A7061900362E0FF7401A8AF
:1014660005088002C333D8FC4F900362F0EDFF33CA
:1014760095E0FEEF25E0FFEE33FE74E52FF582746E
:10148600023EF583E4F0A3F0FCC3ED6480F8EC645F
:101496008098501EECFF3395E0FEEF25E0FFEE331B
:1014A600FE74E52FF58274023EF583E4F0A3F00C9A
:1014B60080D77F047E0012379F751700751803804A
:1014C6000C900403E0FF3395E0FE12379F9004036F
:1014D600E07029900021F0A3F090037B7404F0E4FF
:1014E600900387F09004037478F09004057401F07B
:1014F600E4900262F0F517751801800675170075FD
:101506001803900006E07002A3E06017900019E04F
:101516007002A3E0700D90037BE0FF7D0112416B2A
:101526000215E5900262E0FF122390752A05E4F5A4
:101536002B752C01752D03752E8DF52F7530027BBD
:10154600017A0379757D04122B508F23EF3395E0D2
:10155600FE748D2FF58274033EF583E0FF90038AB7
:10156600F0BF20037430F0AF23EF3395E0FE748EA6
:101576002FF58274033EF583E0FD90038BF0BD20CA
:10158600037430F0748F2FF58274033EF583E09078
:10159600038CF07B017A03798A7D02123ADD803F63
:1015A600900409E0FEA3E0FFC390033AE09FFF909A
:1015B6000339E09EFED3EF94E8EE9403400E9004C8
:1015C60007E0FF3395E0F5178F1880137BFF7A2A23
:1015D600790DE4FD123ED48006751700751801904A
:1015E6000012E0701304F0900339E0FFA3E09000CE
:1015F60002CFF0A3EFF0803B900002E0FEA3E0FFF5
:10160600C390033AE09FFF900339E09EFED3EF9428
:1016160064EE9400401D900006E07002A3E07004A2
:101626007F0180027F00900006E4F0A3EFF0E490D3
:101636000012F090002DE024F6603124F66071244B
:10164600F670030216EB241D60030217129003398D
:10165600E0FFA3E090002ECFF0A3EFF0900000E0B3
:101666004402F090002D740AF002171290039DE0D8
:1016760070067E017FF480047E007F3290002EE0AB
:10168600FCA3E0FD900339E0FAA3E0FBC39DFDEA6D
:101696009CFCD3ED9FEC9E407390002EEAF0A3EBEA
:1016A600F0900000E054FDF090002D7414F0805C82
:1016B60090039DE07E077FD090002EE0FCA3E0FD26
:1016C600900339E0FAA3E0FBC39DFDEA9CFCD3ED51
:1016D6009FEC9E403790002EEAF0A3EBF090002D91
:1016E600741EF0802790033BE07002A3E070179011
:1016F600033DE05480FF3395E04F700AA3E0700687
:1017060090002DF0800690002D7401F0900000E00E
:0B1716006004D2A58002C2A5123D9124
:0117210022A5
:102B2600E0FEA3E0FFE4FCFD900008121AB8752A47
:102B360005E4F52B752C01752D03752E8DF52F7576
:0A2B460030027A0079087B017D045B
:022B50008D29CD
:102B5200E5296007D36480948440037F002215290D
:102B6200E4F538F534F533F532F531E529B40319D6
:102B7200E5386008121A2A1219CF8003121A2A8F16
:102B8200348E338D328C31803FE529B4011FE53814
:102B92006011121803FFAEF0C3E49FF532E49EF514
:102BA200318025121803F53285F031801BE529703A
:102BB20014E5386009121722F404F531800A12175D
:102BC20022F53180037F0022E53024FE6018146074
:102BD2001A24FB601124F8600D24D06009243F7090
:102BE2000D753702800875370A8003753710E52B9B
:102BF200252AFFC374039FF5358F36C3E5366480FB
:102C02009483500CC374039536252AF52A7536032E
:102C1200E536B52A04E52F6052AF37AB07EB3395A3
:102C2200E0FAF9F8AF34AE33AD32AC311241AFEB6A
:102C32002430FFAB2CAA2DA92EE536FD3395E08D6D
:102C420082F583EF12177AAF34AE33AD32AC31C0B6
:102C520007AF37AB07EB3395E0FAF9F8D00712412B
:102C6200AF8F348E338D328C318025E52BAB2CAA7D
:102C72002DA92EAF36600CEF3395E08F82F5837469
:102C82002E800AEF3395E08F82F583742012177A33
:102C9200AF361536D3EF648094804003022C12E5E0
:102CA2002F6025E538601EC3E53564809483501596
:102CB200AB2CAA2DA92EAF35EF3395E08F82F58389
:102CC200742D12177A7F0022E4F536F535AB2CAA63
:102CD2002DA92EAF36EF3395E08F82F58312173B85
:102CE20064307035EF3395E0FEEF2401FFE43EFEE1
:102CF200AD2AED3395E0FCC3EF9DEC6480F8EE6401
:102D020080985015AF36EF3395E08F82F5837420AB
:102D120012177A0535053680B4E5386017AB2CAA50
:102D22002DA92E1535AF35EF3395E08F82F58374DB
:102D32002D12177AE52B252AC39535F536C3648003
:102D42009483500CC374039536FFC3E5359FF53564
:022D5200AF359B
:012D5400225C
:083905008B268A278928AB05F7
:10390D00E52A24FE600C14600E2402700D7534023D
:10391D00800875340A8003753410E4F52EF52DF505
:10392D002CF52B753201F531F530F52F8B33D3E5B1
:10393D00336480948050030239C71533AB26AA2710
:10394D00A928AF33EF3395E08F82F58312173BFF34
:10395D00C3648094B040D7D3EF648094BF50CFAF91
:10396D0033EF3395E08F82F58312173BFF3395E0EC
:10397D00FEEF24D0FFEE34FFFEE4FCFDAB32AA31A6
:10398D00A930A82F1218B2E52E2FF52EE52D3EF5F4
:10399D002DE52C3DF52CE52B3CF52BAB32AA31A9B1
:1039AD0030A82FAF34EF3395E0FEFDFC1218B28F27
:1039BD00328E318D308C2F02393BAB26AA27A928A8
:1039CD00121722642D601390000112173B642D60B5
:1039DD000990000212173BB42D0BAF2EAE2DAD2C5E
:0D39ED00AC2B0219CFAF2EAE2DAD2CAC2BA4
:0139FA0022AA
:0D437700E4F5C7F5C5F5C675C380F5C42291
:1042E200C2AF75C78375C5018FC48EC375C65A75B3
:0B42F200C6A50000AFC2124377D2AF98
:0142FD00229E
:10404500E570FB7A0064AA7046C2AFEB64AA700300
:1040550075C783EB64AA4A700375C502EB64AA4A67
:1040650070028FC4EB64AA4A70028EC3AF707E00E3
:10407500EF64AA70028DC2EF64AA4E700375C65A2A
:10408500EF64AA4E700375C6A500124377D2AF221E
:10412600AD707C00ED64AA703BC2AFED64AA70036B
:1041360075C783ED64AA4C700375C503ED64AA4C7C
:1041460070028FC4ED64AA4C70028EC3E57064AA37
:10415600700375C65AE57064AA700375C6A5001289
:054166004377D2AF22F7
:1039FB00755644755700E4FBFA90036BE0FCA3E0AB
:103A0B00FDA3E0FEA3E024FFF55BEE34FFF55AEDDA
:103A1B0034FFF559EC34FFF558AF5BAE5AAD59FC9A
:103A2B007807121A047C007D051217AEAA04AB05A9
:103A3B00E55B547FFFE4FDFCEF70157570AAEB2579
:103A4B00E0FEE42400FFEE3444FE124126E4F57060
:103A5B00AF5BAE5AAD59AC587802121A178F5F8E06
:103A6B005E8D5D8C5CE4FB7A0AF9F812193DAC00B3
:103A7B00AD01AE02AF038F5F8E5E8D5D8C5CEF256B
:103A8B0057F557EE3556F556755201755303755468
:103A9B006B7570AAE4F555AB52AA53A954121722B1
:103AAB00FDAF57AE5612404574012554F554E4351D
:103ABB0053F5530557E557700205560555E555C3A4
:073ACB00940440D3E4F57000
:013AD20022D1
:10313000752644752700E4F537F536F535F5347511
:103140003B10753A27F539F538F550F551E551AE94
:10315000507802C333CE33CED8F92400F527EE34AD
:1031600044F526752200752300752428AF27FE122A
:1031700042E2AB22AA23A924EF1217687401252486
:10318000F524E43523F523E5272401FFE43526FE65
:103190001242E2AB22AA23A924EF12176874012578
:1031A00024F524E43523F523E5272402FFE435261E
:1031B000FE1242E2AB22AA23A924EF12176874017F
:1031C0002524F524E43523F523E5272403FFE435FE
:1031D00026FE1242E2AB22AA23A924EF1217688529
:1031E000433F85423E85413D85403C852B43852AB2
:1031F00042852941852840E551B47F11E550B4024C
:103200000C852B47852A4685294585284474FFFF70
:10321000FEFD7C7FAB2BAA2AA929A828D31219F37B
:10322000505BAF37AE36AD35AC34A8281219F34039
:103230004C853F4B853E4A853D49853C4885434FFB
:1032400085424E85414D85404C852B37852A3685F4
:103250002935852834E485513B85503AF539F538D0
:10326000FFFEFDFCAB3BAA3AA939A8381219F3704E
:103270000C85474B85464A854549854448852B2F13
:10328000852A2E85292D85282C0551E551700205AA
:1032900050C39480E5509402500302314DE49003F2
:1032A00061F07F107E27FDFCAB3BAA3AA939A83814
:1032B000C31219F3603AC3E54F954BFFE54E954AAB
:1032C000FEE54D9549FDE54C9548FCE47B01FAF996
:1032D000F8C31219F3700EAF37AE36AD35AC34907B
:1032E000036B021AB890036B121AC400000000228C
:0D32F00090036B121AC4000000001239FB9D
:0132FD0022AE
:103BA70075252675260075220175230375246FAFC9
:103BB70026AE251242E2AB22AA23A924EF121768E8
:103BC70074012524F524E43523F523E5262401FF94
:103BD700E43525FE1242E2AB22AA23A924EF1217ED
:103BE7006874012524F524E43523F523E52624020A
:103BF700FFE43525FE1242E2AB22AA23A924EF12E5
:103C0700176874012524F524E43523F523E52624D4
:103C170003FFE43525FE1242E2AB22AA23A924EFD3
:103C270012176890036FE0F8A3E0F9A3E0FAA3E0A6
:103C3700FB90036BE0FCA3E0FDA3E0FEA3E0C39BC6
:103C4700FFEE9AFEED99FDEC98FC7B9F7A86790151
:103C57007800C31219F3501590036BE0FCA3E0FD45
:0D3C6700A3E0FEA3E0FFA3121AB8123E0076
:013C7400222D
:103E0000752D26752E00E4F537F5387570AAFF7EFE
:103E100026124126E4F57090036BE0FCA3E0FDA3BD
:103E2000E0FEA3E0FFA3121AB8752901752A0375F5
:103E30002B6F7570AAE4F52CAB29AA2AA92B1217AF
:103E400022FDAF2EAE2D1240457401252BF52BE43B
:103E5000352AF52A052EE52E7002052D052CE52CB8
:083E6000C3940440D3E4F570A3
:013E68002237
:0E3790000314010413011001011100011200C5
:10434200759850758E40E4F589758BE0758DFED2B7
:064352008ED2ACD2AF22B6
:0300230002409503
:10409500C0E0C083C082C0D075D00830982BC298CC
:1040A500900350E0FF04F074132FF582E43404F517
:1040B50083E599F090034F7401F0900339E0FFA375
:1040C500E090034CCFF0A3EFF0309904C299C20001
:0940D500D0D0D082D083D0E032BB
:1042900090034FE0B4012490034CE0FEA3E0FFC381
:1042A00090033AE09FFF900339E09EFED3EF940A1B
:0C42B000EE9400400690034F7402F022D0
:094384002000FDEFD200F59922A2
:083F9800A3F07B017A03799E7E
:063FA0008B258A2689270B
:103FA600E4F528FDFCAB25AA26A9279000011217E7
:103FB6003BFF3395E0FEEF2402FFE43EFEC3ED9F98
:103FC600EE6480F8EC64809850168D828C8312170C
:103FD6003BFF2528F5281243840DBD00010C80C542
:0E3FE600AF281243840510E51070037510011A
:013FF40022AA
:10205700752200752300752400900413E0FF752195
:1020670001900350E0FE14C36480F8E52164809872
:102077005018AD21ED3395E0FC74132DF5827404EF
:102087003CF583E02FFF052180D774122EF582E4FB
:102097003404F583E06F600B90033BE4F0A3741EF8
:1020A70002238B900413E024F6B40B0040030223B1
:1020B7008F9020C675F003A4C58325F0C5837302EE
:1020C70020E70221270222E202237A02237A02234F
:1020D7007C02237A02237A02237A02237A02238359
:1020E7007522017523027524F9E4F521AF21EF3339
:1020F70095E0FE74162FF58274043EF583E0FFAB7E
:1021070022AA23A924E521FD3395E08D82F583EFEB
:1021170012177A0521E521B440D275780102237898
:10212700E4F521AF21EF3395E0FEEF25E0FFEE3335
:10213700FE74E52FF58274023EF583E0FEA3E0FF0F
:10214700D39400EE64809480402BEE3395E0FDFC41
:10215700E47B107A27F9F81218B290036BE0F8A322
:10216700E0F9A3E0FAA3E0FBD31219F34007E52156
:1021770004900361F00521E521B407A79002F1E07F
:102187007002A3E07004900361F0900416E0FE90E3
:102197000415E0FDEDFF900342EEF0A3EFF090048D
:1021A70018E0FE900417E0FDEDFF900340EEF0A36A
:1021B700EFF090041AE0FE900419E0FDEDFF9003A4
:1021C7003BEEF0A3EFF090041CE0FFE4FCFDFE788B
:1021D70008121A17A804A905AA06AB0790041BE062
:1021E700FFEB4FFFEAFEE9FDE8FCC004C005C006AF
:1021F700C00790041EE0FFE4FCFDFE7818121A17D2
:10220700D003D002D001D000EF4BFFEE4AFEED49DC
:10221700FDEC48FCC004C005C006C00790041DE0E3
:10222700FFE4FCFDFE7810121A17D003D002D0018C
:10223700D000EF4BF528EE4AF527ED49F526EC4897
:10224700F525900344E0FCA3E0FDA3E0FEA3E0FF37
:10225700AB28AA27A926A825C31219F3607AAF28A5
:10226700AE27AD26AC25900344121AB890036BE055
:10227700FCA3E0FDA3E0FEA3E02401FFE43EFEE4AF
:102287003DFDE43CFC90036B121AB890036FE0F835
:10229700A3E0F9A3E0FAA3E0FB90036BE0FCA3E063
:1022A700FDA3E0FEA3E0C39BFFEE9AFEED99FDECD4
:1022B70098FC7B9F7A8679017800C31219F3501531
:1022C70090036BE0FCA3E0FDA3E0FEA3E0FFA312F5
:1022D7001AB8123E001239FB022378E4F521900464
:1022E70014E01313543FC36480F8E52164809850C9
:1022F7007BE52125E025E0FD2415F582E43404F58E
:1023070083E0FE74162DF582E43404F583E0FDEED8
:10231700FCAF21EF3395E0FEEF7803C333CE33CE26
:10232700D8F9FF902A14E493FB740193FA7402938B
:102337002FF9EA3EFA900005EC8DF0121885E52199
:1023470025E025E0FD2417F582E43404F583E0FE5B
:1023570074182DF582E43404F583E0FDEDFF900059
:1023670003EE8FF012188505210222E575740180AE
:102377000980078005757901800B800990033BE48C
:08238700F0A37428F075717FCA
:01238F00222B
:101CAA00752100752200752300C390033AE09573ED
:101CBA00FF900339E09572FED3EF94E8EE94034067
:101CCA0016E5667008E571B47F03757101900339F2
:101CDA00E0F572A3E0F573900342E07002A3E070AE
:101CEA0003021DCCE5786003021DCCE571647F60B8
:101CFA0003021DCC9002A7E064557004A3E064AA15
:101D0A007003021DC39002657401F0A37436F0A338
:101D1A007401F0A3742CF090026BE4F0A37402F047
:101D2A00A3E4F0A3740FF0A3E4F0A3740FF0E4A308
:101D3A00F0A3F0A3F0A3F0A304F0A37440F0A3E48B
:101D4A00F0A37459F0A37401F0A37490F0A3E4F023
:101D5A00A37414F0A3E4F0A37454F0A3E4F0A374FE
:101D6A0002F0A3E4F0A37478F0A3E4F0A3740AF0F9
:101D7A00A3E4F0A304F0A3E4F0A37449F0A3E4F00D
:101D8A00A37450F0A3E4F0A304F0A3E4F0A304F0D6
:101D9A00A3E4F0A304F0A3E4F0A304F0A3E4F0A303
:101DAA0004F09002A77455F0A374AAF0E4FFFE129F
:101DBA00379F7F017E0012379F756601757801751E
:101DCA00717FE578B4010CE5747008E571B47F039E
:101DDA00757102E5666008E571B47F03757103E504
:101DEA006A6008E571B47F03757107E5636008E509
:101DFA0071B47F03757109E5776008E571B47F03F3
:101E0A00757104E5696008E571B47F03757108E5C9
:101E1A006F6008E571B47F03757105E5766008E5C2
:101E2A0071B47F03757106E571B40A00400302209C
:101E3A0056901E42F8282873021E60021E85021E52
:101E4A00A8021ECC021F38021FE402200D021F65E1
:101E5A00021F8E021FBB7E007F647D007B017A0316
:101E6A00799E121BD9E490039EF0A304F0E4A3F038
:101E7A00A304F0FB123F9C757132227E007F647DC1
:101E8A00007B017A03799E121BD990039E7401F09C
:101E9A00A3F0E4A3F07402123F98757133227E0016
:101EAA007F647D007B017A03799E121BD990039E81
:101EBA007402F0A314F0E4A3F07404123F9875714D
:101ECA0034227E007F647D007B017A03799E121B97
:101EDA00D990039E7403F0A37440F0752101752212
:101EEA00027523F990039EE02440F524E4FFFEAB3B
:101EFA0021AA22A9238F828E8312173BFD74A02F59
:101F0A00F58274033EF583EDF08F828E8312173BC0
:101F1A002524F5240FBF00010EEF64404E70D090C7
:101F2A0003E0E524123F99757135E4F566227E00D7
:101F3A007F647D007B017A03799E121BD990039EF0
:101F4A007404F0A37401F090037EE09003A0F024DF
:101F5A0005123F98757136E4F577227E007F647D1D
:101F6A00007B017A03799E121BD990039E7407F0B5
:101F7A00A37401F0E4A3F0A37408123F99757139B0
:101F8A00E4F56A227E007F647D007B017A03799EF4
:101F9A00121BD990039E7408F0A37401F090026199
:101FAA00E09003A0F02409123F9875713AE4F569AC
:101FBA00227E007F647D007B017A03799E121BD901
:101FCA0090039E7409F0A37401F0E4A3F0A3740AC9
:101FDA00123F9975713BE4F563227E007F647D00B0
:101FEA007B017A03799E121BD990039E7405F0A394
:101FFA007401F0E4A3F0A37406123F99757137E4F3
:10200A00F56F227E007F647D007B017A03799E1240
:10201A001BD990039E7406F0A37403F0900379E031
:10202A00FEA3E09003A0F0EEFFA3EFF0900260E0C1
:10203A00FF9003A2F09003A0E02409FEA3E02E2F54
:0C204A009003A3123F99757138E4F576FD
:012056002267
:103D1100023E69E493A3F8E493A34003F68001F221
:103D210008DFF48029E493A3F85407240CC8C333B3
:103D3100C4540F4420C8834004F456800146F6DF82
:103D4100E4800B0102040810204080903632E47EAA
:103D5100019360BCA3FF543F30E509541FFEE49377
:103D6100A360010ECF54C025E060A840B8E493A33E
:103D7100FAE493A3F8E493A3C8C582C8CAC583CA69
:103D8100F0A3C8C582C8CAC583CADFE9DEE780BE21
:01379E00002A
:10172200BB010689828A83E0225002E722BBFE02C5
:09173200E32289828A83E49322F8
:10173B00BB010CE58229F582E5833AF583E0225063
:10174B0006E92582F8E622BBFE06E92582F8E222AD
:0D175B00E58229F582E5833AF583E49322C7
:10176800BB010689828A83F0225002F722BBFE0160
:02177800F3225A
:10177A00F8BB010DE58229F582E5833AF583E8F0A5
:10178A00225006E92582C8F622BBFE05E92582C851
:02179A00F22239
:10179C00EF8DF0A4A8F0CF8CF0A428CE8DF0A42E61
:0217AC00FE221B
:1017AE00BC000BBE0029EF8DF084FFADF022E4CC1F
:1017BE00F875F008EF2FFFEE33FEEC33FCEE9DECE8
:1017CE00984005FCEE9DFE0FD5F0E9E4CEFD22ED2E
:1017DE00F8F5F0EE8420D21CFEADF075F008EF2F78
:1017EE00FFED33FD4007985006D5F0F222C398FD69
:0517FE000FD5F0EA2206
:10180300BB010A89828A83E0F5F0A3E022500687B0
:10181300F009E71922BBFE07E3F5F009E319228972
:0B182300828A83E493F5F074019322A5
:10182E00BB0110E58229F582E5833AF583E0F5F0F8
:10183E00A3E0225009E92582F886F008E622BBFED5
:10184E000AE92582F8E2F5F008E222E5832AF5831B
:08185E00E993F5F0A3E99322E0
:10186600BB010A89828A83F0E5F0A3F0225006F7CD
:0F18760009A7F01922BBFE06F3E5F009F31922CA
:10188500F8BB0111E58229F582E5833AF583E8F095
:10189500E5F0A3F0225009E92582C8F608A6F02252
:0D18A500BBFE09E92582C8F2E5F008F22239
:1018B200E88FF0A4CC8BF0A42CFCE98EF0A42CFCD5
:1018C2008AF0EDA42CFCEA8EF0A4CDA8F08BF0A453
:1018D2002DCC3825F0FDE98FF0A42CCD35F0FCEBB2
:1018E2008EF0A4FEA9F0EB8FF0A4CFC5F02ECD3977
:0F18F200FEE43CFCEAA42DCE35F0FDE43CFC22E4
:1019010075F008758200EF2FFFEE33FECD33CDCC9D
:1019110033CCC58233C5829BED9AEC99E582984020
:101921000CF582EE9BFEED9AFDEC99FC0FD5F0D6FD
:10193100E4CEFBE4CDFAE4CCF9A88222B800C1B927
:101941000059BA002DEC8BF084CFCECDFCE5F0CB65
:10195100F97818EF2FFFEE33FEED33FDEC33FCEB9E
:1019610033FB10D703994004EB99FB0FD8E5E4F959
:10197100FA227818EF2FFFEE33FEED33FDEC33FC46
:10198100C933C910D7059BE99A4007EC9BFCE99A3A
:10199100F90FD8E0E4C9FAE4CCFB2275F010EF2F7F
:1019A100FFEE33FEED33FDCC33CCC833C810D7077F
:1019B1009BEC9AE899400AED9BFDEC9AFCE899F8BA
:0E19C1000FD5F0DAE4CDFBE4CCFAE4C8F9224D
:1041AF00C2D5E830E70FB2D5E4C39BFBE49AFAE43B
:1041BF0099F9E498F8EC30E717B2D51241E51219E6
:1041CF003DE4C39BFBE49AFAE499F9E498F8800381
:1041DF0012193D30D50DE4C39FFFE49EFEE49DFD13
:0441EF00E49CFC222E
:0E19CF00C3E49FFFE49EFEE49DFDE49CFC2229
:1019DD00EB9FF5F0EA9E42F0E99D42F0EC6480C881
:0619ED0064809845F02221
:1019F300EB9FF5F0EA9E42F0E99D42F0E89C45F04A
:011A030022C0
:101A0400E8600FECC313FCED13FDEE13FEEF13FFC0
:031A1400D8F122E4
:101A1700E8600FEFC333FFEE33FEED33FDEC33FC2D
:031A2700D8F122D1
:101A2A00BB010789828A83021C115005E9F8021C4E
:101A3A0005BBFE05E9F8021C1D89828A83021C295E
:101A4A00BB010DE58229F582E5833AF583021C1173
:101A5A005007E92582F8021C05BBFE07E92582F832
:101A6A00021C1DE58229F582E5833AF583021C29C9
:101A7A00BB010789828A83021AB85005E9F8021C59
:0A1A8A0039BBFE05E9F8021C4522F5
:101A9400BB010DE58229F582E5833AF583021AB884
:101AA4005007E92582F8021C39BBFE07E92582F8B4
:041AB400021C4522A9
:0C1AB800ECF0A3EDF0A3EEF0A3EFF022A1
:101AC400A8828583F0D083D082121ADB121ADB122B
:101AD4001ADB121ADBE473E493A3C583C5F0C58350
:101AE400C8C582C8F0A3C583C5F0C583C8C582C86C
:011AF40022CF
:101AF500BB010DE58229F582E5833AF583021AC417
:101B05005007E92582F8021C51BBFE07E92582F83A
:041B1500021C6A2222
:101B1900F5F0C582A4C582C5F0C583A42583F583E4
:011B29002299
:0C1B2A00A42582F582E5F03583F58322C6
:101B3600BB010789828A83021C8C5005E9F8021CC6
:101B460083BBFE05E9F8021C9589828A83021C9EE6
:101B5600BB010DE58229F582E5833AF583021C8CEB
:101B66005007E92582F8021C83BBFE07E92582F8A7
:101B7600021C95E58229F582E5833AF583021C9ECF
:101B8600D083D082F8E4937012740193700DA3A3EE
:101B960093F8740193F5828883E473740293686002
:061BA600EFA3A3A380DF02
:101BAC00D083D082F8E4937012740193700DA3A3C8
:101BBC0093F8740193F5828883E473740293B5F0FF
:0D1BCC00067403936860E9A3A3A3A380D867
:101BD900EF4E6012EF60010EEDBB010B89828A8323
:101BE900F0A3DFFCDEFA2289F05007F709DFFCA930
:0C1BF900F022BBFEFCF309DFFCA9F02287
:0C1C0500E6FC08E6FD08E6FE08E6FF220B
:0C1C1100E0FCA3E0FDA3E0FEA3E0FF2246
:0C1C1D00E2FC08E2FD08E2FE08E2FF2203
:101C2900E493FC740193FD740293FE740393FF2201
:0C1C3900ECF608EDF608EEF608EFF622D7
:0C1C4500ECF208EDF208EEF208EFF222DB
:101C5100D083D082E493F608740193F6087402935A
:091C6100F608740393F674047391
:101C6A00D083D082E493F208740193F20874029349
:091C7A00F208740393F274047380
:091C8300E6FB08E6FA08E6F92286
:091C8C00E0FBA3E0FAA3E0F92259
:091C9500E2FB08E2FA08E2F92280
:0C1C9E00E493FB740193FA740293F922A2
:00000001FF
