:030000000262FC9D
:0C62FC00787FE4F6D8FD75812102634331
:10580C004105C40042059100004105C57F4205C613
:10581C0000004205C1000042059500004105CC0086
:10582C004105C800410590004105CB00410594009D
:10583C0041059300410571004105C3004105CD01AF
:10584C004105CA004105C90042057200004E0563BE
:10585C0010000378000000000000000000004E055E
:10586C00CE20000378000000000000000000004E75
:10587C0005B30010037800000000000000000000D9
:10588C004E05A50020037800000000000000000079
:10589C00004E059700400378000000000000000057
:1058AC0000004E057400800378000000000000002A
:1058BC000000004E0582010003780000000000008B
:0458CC0000000000D8
:106A2E00438E80E4F589758A67758CFCD28CD2A969
:036A3E00D2AF22B2
:1069A300E4F5957596207580FF7590FF75A0FF75CA
:0B69B300B0FF126A2E1269BE02000E37
:1069ED007E017F107D007B017A0279751237A690AA
:0669FD00026E7401F0229D
:1051FF00900560EBF0A3EAF0A3E9F0900560E0FB07
:10520F00A3E0FAA3E0F99000021233FBFFAEF0E542
:10521F00F06003025440EF24F6605224F67003024C
:10522F0052F224F6700302537C241E600302544092
:10523F0090000CE4F5F01234521233D0FF90026755
:10524F00E055F0FEA3E05F4E60030254409005600E
:10525F00E0FBA3E0FAA3E0F9900002E475F00A1274
:10526F0034529000041236C20000000022900560F4
:10527F00E0FBA3E0FAA3E0F91233D0FF900267E05E
:10528F0055F0FEA3E05F4E703C900004123617EF0E
:10529F002401FFE43EFEE43DFDE43CFC90000412DB
:1052AF003661900004123617E47B14FAF9F8C31232
:1052BF0035C04003025440900560E0FBA3E0FAA321
:1052CF00E0F9025436900560E0FBA3E0FAA3E0F9A1
:1052DF009000041236C200000000900002E4F5F0C6
:1052EF0002543D900560E0FBA3E0FAA3E0F99000C3
:1052FF0004123617EF2401FFE43EFEE43DFDE43CCB
:10530F00FC9000041236611233D0FF900267E05513
:10531F00F0FEA3E05F4E601F900560E0FBA3E0FA94
:10532F00A3E0F9900002E475F01E123452900008C9
:10533F001236C200000000900560E0FBA3E0FAA364
:10534F00E0F9900004123617E47B907A01F9F8C364
:10535F001235C04003025440900560E0FBA3E0FA11
:10536F00A3E0F990000CE475F00102543D90056044
:10537F00E0FBA3E0FAA3E0F9900004123617EF2444
:10538F0001FFE43EFEE43DFDE43CFC9000041236D8
:10539F00611233D0FF900267E055F0FEA3E05F4E3D
:1053AF006070900560E0FBA3E0FAA3E0F9900008BD
:1053BF00123617EF2401FFE43EFEE43DFDE43CFC12
:1053CF00900008123661900008123617E47B14FA29
:1053DF00F9F8C31235C05059900560E0FBA3E0FA0D
:1053EF00A3E0F990000C1233FB640145F090000C20
:1053FF00700575F0038004E475F0021234529000CA
:10540F00041236C200000000900002740375F07899
:10541F00801C900560E0FBA3E0FAA3E0F990000880
:10542F001236C200000000900002E475F01412342E
:02543F005222F7
:1068C8007B017A0579B31251FF7B017A0579A5120C
:1068D80051FF7B017A0579741251FF7B017A0579A2
:1068E800821251FF7B017A0579631251FF7B017A8D
:0668F8000579CE0251FFFC
:10697D00E49005B5F0A3F09005A7F0A3F09005768F
:10698D00F0A3F0900584F0A3F0900565F0A3F090CE
:06699D0005D0F0A3F0227A
:104FA20090056FE0FEA3E0FF4E605A90038974EF14
:104FB200F0A374FFF0EF64014E701C90026B04F0DA
:104FC200900572E07002A3E0703B900572F0A304BA
:104FD200F09005CAF0802E90056FE07004A3E064A3
:104FE2000290026B7004740280027403F0E4900574
:104FF2006FF0A3F0900565F0A3F0900572F0A3F0B6
:105002009005CA04F09005DAE0FEA3E0FF4E605A74
:1050120090038974DFF0A374FFF0EF64014E701CFB
:1050220090026B04F0900572E07002A3E0703B9076
:105032000572F0A304F09005CAF0802E9005DAE024
:105042007004A3E0640290026B7004740280027424
:1050520003F0E49005DAF0A3F09005D0F0A3F0900D
:105062000572F0A3F09005CA04F09005BFE0FEA31C
:10507200E0FF4E605A90038974FFF0A374EFF0EFE3
:1050820064014E701C90026B04F0900572E0700295
:10509200A3E0703B900572F0A304F09005CAF08083
:1050A2002E9005BFE07004A3E0640290026B7004CE
:1050B200740280027403F0E49005BFF0A3F090053F
:1050C200B5F0A3F0900572F0A3F09005CA04F09039
:1050D20005B1E0FEA3E0FF4E605A90038974FFF031
:1050E200A374DFF0EF64014E701C90026B04F09029
:1050F2000572E07002A3E0703B900572F0A304F029
:105102009005CAF0802E9005B1E07004A3E064021D
:1051120090026B7004740280027403F0E49005B193
:10512200F0A3F09005A7F0A3F0900572F0A3F09021
:1051320005CA04F0900580E0FEA3E0FF4E605A909D
:10514200038974FFF0A3747FF0EF64014E701C902A
:10515200026B04F0900572E07002A3E0703B9005D0
:1051620072F0A304F09005CAF0802E900580E070E2
:1051720004A3E0640290026B700474028002740360
:10518200F0E4900580F0A3F0900576F0A3F090058E
:1051920072F0A3F09005CA04F090058EE0FEA3E041
:1051A200FF4E605890038974FEF0A304F0EF64018F
:1051B2004E701B90026B04F0900572E07002A3E047
:1051C200703A900572F0A304F09005CAF02290059F
:1051D2008EE07004A3E0640290026B70047402809B
:1051E200027403F0E490058EF0A3F0900584F0A31E
:0D51F200F0900572F0A3F09005CA04F022C1
:03000B000268FE8A
:1068FE00C0E0C0F0C083C082C0D075D00890034AFB
:10690E00E004F07006900349E004F012692A126860
:0C691E00C8D0D0D082D083D0F0D0E032BE
:10638800E49005C4F01269A31269ED125441900318
:1063980049E0FFA3E09005C6CFF0A3EFF09005C950
:1063A800E0703C9005C6E0FEA3E0FFC390034AE01E
:1063B8009FFF900349E09EFED3EF94F4EE940140D2
:1063C8001EE0FEA3E0FF9005C6EEF0A3EFF09005F7
:1063D800C1EEF0A3EFF012697D9005C97401F09049
:1063E80005C9E0B401B712004690035FE0B4020C9F
:1063F800123CBF90035F7403F0E4A3F012389712C5
:046408004FA2809986
:0D58D0004A065400FF00FF00FF00FF00FF2C
:0C656C00C290C2907F007E007D007C0089
:0665780090053812368583
:10657E0090053C12369100000000900538E0FCA317
:10658E00E0FDA3E0FEA3E0FFA3E0F8A3E0F9A3E0A3
:10659E00FAA3E0FBC31235AA50280090053CE0FC9C
:1065AE00A3E0FDA3E0FEA3E0FFE4FAF9F8EF240177
:1065BE00FFEA3EFEE93DFDE83CFC90053C123685C7
:0265CE0080B893
:0165D00022A8
:106A4100D290D290D291D291126570C291C291220C
:106A030012656CC291C291126570D290D2901265D8
:066A130070D291D2912225
:0F6A510012656CD290D290126570C290C29022E2
:0867BF0090065EEEF0A3EFF07E
:1067C700E4A3F012657012656C90065FE030E00696
:1067D700D291D2918004C291C29112657090065EE7
:1067E700E0C313F0A3E013F0D290D290126570903B
:0B67F7000660E004F0E0C3940840C816
:016802002273
:10640C00126A8B126A417F407E001267BF12000332
:10641C00126A51126A8B126A03126A417FC07E00A3
:10642C001267BF120003126A51126A8BE490066461
:10643C00F0900664E0FFC394055025EF25E024544A
:10644C00F582E43406F583E0FEA3E0FF1267BF1289
:10645C000003126A51126A8B900664E004F080D13A
:10646C00126A03126A417F8C7E001267BF1200030E
:09647C00126A51126A8B026A03D4
:05000300C294D2952219
:056A8B00D294D2952217
:1028A800303030303000313031303100313031307B
:1028B8003200313031303300313031303400323091
:1028C8003130310000312D00322D00332D00342DF0
:1028D80000352D00362D00372D00382D00392D00FC
:1028E80031300031310031320031330031340031C0
:1028F8003500313600313700313800313900323097
:1029080000323100323200323300323400323500C6
:102918003236003237003238003239003330002086
:102928002020413100202020413200202020413346
:102938000020202041340020202041350020202084
:102948004136002020204137002020204138002037
:1029580020204139002020413130003630343039D0
:102968000020462D2D300020462D2D310020462DEB
:102978002D320020462D2D330020462D2D340020E9
:10298800462D2D3500BDF8D6BD00CDCBD6BD00CF28
:10299800C2C1CF00B4EACCF500CDA3D6BD00C6F4C1
:1029A800B6AF00CDA3D6B900B7A2D6BD00CAD5D65A
:1029B800BD00B4F2BDBA00502D2D00452D2D00519B
:1029C800322D2D2D00502D2D203100502D2D20324F
:1029D80000502D2D203000202020313100202020D3
:1029E80031320020202031330020202031340020D3
:1029F800202031350020202031360020202031379A
:102A080000202020313800202020313900202020CB
:102A180032300020202032310020202032320020A5
:102A28002045727200D6BDB3A400C0A6CAFD00D767
:102A3800DCCAFD005738444628352C332C27313161
:102A48003136363232323636333333333327293B55
:102A58000D0A0057384D5528302C302C38302C387A
:102A6800302C312C32293B0D0A0057385545283176
:102A7800293B0D0A004453363428312C322C2725A3
:102A880073272C3135293B0D0A0053585928302C0F
:102A980030290D0A00573855452833293B0D0A00BF
:102AA800573855452834293B0D0A004453363428F5
:102AB800312C312C272573272C3135293B0D0A0061
:102AC8004453343828312C38362C27C7EBCAE4C88D
:102AD800EBC3DCC2EB3A272C3135293B0D0A004405
:102AE80053363428312C3130302C272573272C319C
:102AF80035293B0D0A00434C532830293B0D0A0069
:102B0800256400445334382833302C3139302C278D
:102B18002573272C31293B0D0A00445336342832BB
:102B280030302C3130302C272573272C3135293B78
:102B38000D0A00B4FAC2EBCAE4C8EBBBADC3E600A9
:102B4800B4EDCEF3CCE1CABE00D6B1BDD3B5F7B271
:102B5800CECAFD00B5C8B4FDB7B5D0A3BDE1B9FB79
:102B680000D1D3CAB1CFD4CABED0DEB8C4B3F6B48C
:102B7800ED00B2E2CAD4B2CECAFDC9E8D6C300D1CC
:102B8800A7CFB0C4A3CABD0044533634283133306C
:102B98002C322C272573272C3135293B0D0A00446C
:102BA800533634283133302C312C272573272C31D8
:102BB80035293B0D0A0044533634283133302C3143
:102BC8002C27256C64272C3135293B0D0A005738F2
:102BD80055452832293B0D0A0044533438283230F1
:102BE8002C36302C272573272C3135293B0D0A002C
:102BF800445334382832302C36302C272573272C70
:102C080031293B0D0A005358592830293B0D0A0039
:102C1800535047283537293B0D0A002573003136B4
:102C28002D352D313200535047283630293B0D0AB7
:102C380000535047283632293B0D0A005350472885
:102C48003633293B0D0A0050494328302C302C31AB
:102C580038293B0D0A004453333228312C33322CA7
:102C680027CDEAB3C9C9E8B6A8CDB2CAFDB4EDCE3E
:102C7800F3272C3135293B0D0A00445333322831D0
:102C88002C33322C27B4EACCF5BBFACFC2C1CFB46F
:102C9800A6CEDEB8CBC7A5B1A8B4ED272C3135290F
:102CA8003B0D0A004453333228312C33322C27B4DD
:102CB800EACCF5BBFAB5AFC6ACB4A6CEDEB8CBC786
:102CC800A5B1A8B4ED272C3135293B0D0A00445392
:102CD800333228312C33322C27C7D0B5B6B6C2D6FA
:102CE800BDB9E2B5E7B4ABB8D0C6F7B1A8B4ED2723
:102CF8002C3135293B0D0A004453333228312C330B
:102D0800322C27CFC2C1CFB6C2D6BDB9E2B5E7B41F
:102D1800ABB8D0C6F7B1A8B4EDA1A3272C3135299B
:102D28003B0D0A004453333228312C33322C27C749
:102D3800D0B5B6C1E3CEBBBDD3BDFCB4ABB8D0C62D
:102D4800F7B1A8B4EDA1A3272C3135293B0D0A0012
:102D58004453333228312C33322C27B4A2D6BDB990
:102D6800E2B5E7B4ABB8D0C6F7B8D0D3A6B5BDCEF8
:102D7800DED6BDA1A3272C3135293B0D0A004453CB
:102D8800333228312C33322C27B4EACCF5D6DCC6C2
:102D9800DABDD3BDFCB4ABB8D0C6F7B1A8B4EDA1C9
:102DA800A3272C3135293B0D0A00445333322831EF
:102DB8002C33322C27B4F2BDBAB5BDCEBBB8D0D3B4
:102DC800A6C6F7B1A8B4EDA1A3272C3135293B0D30
:102DD8000A004453343828352C3133302C273078C6
:102DE80025582C2564272C3135293B0D0A004453DE
:102DF800333228332C312C272573272C3135293BA6
:102E08000D0A00D6F7BFD8B0E5B4EDCEF3A3BA00EB
:102E1800B2D9D7F7B0E5B4EDCEF3A3BA0044533333
:102E280032283138302C312C27452D2D2564272C7C
:102E380031293B0D0A0044533332283138302C31C4
:102E48002C27452D2D2564272C3135293B0D0A00CB
:102E5800445334382833302C3139302C272573200B
:102E680020272C31293B0D0A00535047283331299C
:102E78003B0D0A00535047283332293B0D0A0053B3
:102E88005047283333293B0D0A0053504728333421
:102E9800293B0D0A00535047283335293B0D0A00BA
:102EA800535047283336293B0D0A005350472833DF
:102EB80037293B0D0A00535047283338293B0D0A60
:102EC80000535047283339293B0D0A0053504728EF
:102ED8003430293B0D0A00535047283431293B0D23
:102EE8000A00535047283432293B0D0A00535047F3
:102EF800283433293B0D0A00535047283434293BE2
:102F08000D0A00535047283435293B0D0A00535009
:102F180047283436293B0D0A0053504728343729AF
:102F28003B0D0A00535047283438293B0D0A0053FB
:102F38005047283439293B0D0A005350472835306B
:102F4800293B0D0A00434C53282564293B0D0A00F0
:102F580057385545282564293B0D0A0043495246F0
:102F68002836352C35352C31352C31293B0D0A00C6
:102F7800434952462836352C35352C31352C3229E3
:102F88003B0D0A0043495246283136352C35352C3D
:102F980031352C31293B0D0A004349524628313638
:102FA800352C35352C31352C32293B0D0A00535838
:102FB8005928302C30293B0D0A0000010047FF2812
:102FC800A810000200000103B301010057FF28AE5A
:102FD80012001E00000103B50201014FFF28B414BE
:102FE800000E00000103B6030101BFFF28BA160056
:102FF8000E00000103B70401022FFF28C01C0007C0
:1030080000000103B805010147FF28C61A000100A6
:10301800000103B9000000000000000000000000EB
:10302800000000FF28CC4000000001035804050000
:103038000001869F00000000000000000000000062
:103048000000000000000000000000000000000078
:103058000000000000000000000000000000000068
:103068000000000000000000000000000000FEB0AA
:10307800EDF9B3DBDFF0FFFB00004080003F065BAB
:103088004F666D7D077F6F771F4E3D4F47FB771F5C
:103098004E3D7971FB37060E07386A761D73670552
:1030A8005B313E1C5C313BED000000620800771F7D
:1030B8004E3D4F47FB370638070E6A151D6773509C
:1030C8005B783E1C5C313BED000000000000000016
:1030D80000000000000000000000000000000000E8
:1030E80000000000000000000000000000000000D8
:1030F80000000000000000000000000000000000C8
:1031080000000000000000000000000000000000B7
:1031180000000000000000000000000000000000A7
:103128000000000000000000000000000000000097
:103138000000000000000000000000000000000087
:103148000000000000000000000000000000000077
:103158000000000000000000000000000000000067
:103168000000000000000000000000000000000057
:103178000000000000000000000000000000000047
:103188000000000000000000000000000000000037
:103198000000000000000000000000000000000027
:1031A8000000000000000000000000000000000017
:1031B8000000000000000000000000000000000007
:0531C800000000000002
:1058DD004102740042026C00004103B90041039281
:1058ED00004603B3021E0E0701004803930402FF96
:1058FD00302BFF2FC2420389000041026B00410291
:10590D006E014100430042039C00004203A50000CC
:10591D004302710000004203B100004203900000F9
:10592D0041000A0041000B00420010000042001629
:10593D000000420018000042001A000041001C0047
:10594D0042001D000042001F0000420021000042E5
:10595D000023000042002500004200270000420005
:10596D0029000042002B000042002D0000420031B2
:10597D0000004200330001410037004200380000B2
:10598D0041003A0042003B000042003D0000420051
:10599D000000004200020000420004000042000628
:0759AD0000004200080000A9
:046485007BFFE4FDB8
:10648900900518EBF0A3EAF0A3E9F0A3EDF090056D
:1064990018E0FBA3E475F0011233BAA9F0FA12323D
:1064A900C3FF3395E0FE74552FF58274303EF583B2
:1064B900E493FD3395E0FC90051BE0FF04F0EF3316
:1064C90095E0FEEF25E0FFEE33FE74542FF582745C
:1064D900063EF583ECF0A3EDF090051BE0C3648064
:1064E90094865010900518E0FBA3E0FAA3E0F91296
:0564F90032C3709A227D
:10404E00E490051BF0EF12375340D30040E40140DB
:10405E00F502410603411704412805413906414A3C
:10406E0007415B08416C09417D0A418E0B419F0C53
:10407E0041B00D41C10E41D20F41E31041F4114246
:10408E000512421613422714423815424916425A57
:10409E0017426B18427C19428D1A429E1B42AF1C6E
:1040AE0042C01D42D15042E25142F25243025343AA
:1040BE001254432255433256434257435258436299
:1040CE00590000437090051874FFF0A37428F0A3F4
:1040DE0074CDF002437090051874FFF0A37428F0AD
:1040EE00A374D0F002437090051874FFF0A37428E7
:1040FE00F0A374D3F002437090051874FFF0A3740C
:10410E0028F0A374D6F002437090051874FFF0A344
:10411E007428F0A374D9F002437090051874FFF060
:10412E00A37428F0A374DCF002437090051874FF9A
:10413E00F0A37428F0A374DFF00243709005187496
:10414E00FFF0A37428F0A374E2F0024370900518F8
:10415E0074FFF0A37428F0A374E5F0024370900589
:10416E001874FFF0A37428F0A374E8F00243709063
:10417E00051874FFF0A37428F0A374EBF0024370DB
:10418E0090051874FFF0A37428F0A374EEF00243A8
:10419E007090051874FFF0A37428F0A374F1F00268
:1041AE00437090051874FFF0A37428F0A374F4F014
:1041BE0002437090051874FFF0A37428F0A374F7EF
:1041CE00F002437090051874FFF0A37428F0A374E6
:1041DE00FAF002437090051874FFF0A37428F0A350
:1041EE0074FDF002437090051874FFF0A37429F06B
:1041FE00A37400F002437090051874FFF0A37429A5
:10420E00F0A37403F002437090051874FFF0A374CA
:10421E0029F0A37406F002437090051874FFF0A302
:10422E007429F0A37409F002437090051874FFF01E
:10423E00A37429F0A3740CF002437090051874FF58
:10424E00F0A37429F0A3740FF00243709005187454
:10425E00FFF0A37429F0A37412F0024370900518B6
:10426E0074FFF0A37429F0A37415F0024370900547
:10427E001874FFF0A37429F0A37418F00243709021
:10428E00051874FFF0A37429F0A3741BF002437099
:10429E0090051874FFF0A37429F0A3741EF0024366
:1042AE007090051874FFF0A37429F0A37421F00226
:1042BE00437090051874FFF0A37429F0A37424F0D2
:1042CE0002437090051874FFF0A37429F0A37427AD
:1042DE00F002437090051874FFF0A37429F0A374D4
:1042EE002DF0807E90051874FFF0A37429F0A3744E
:1042FE0033F0806E90051874FFF0A37429F0A37448
:10430E0039F0805E90051874FFF0A37429F0A37441
:10431E003FF0804E90051874FFF0A37429F0A3743B
:10432E0045F0803E90051874FFF0A37429F0A37435
:10433E004BF0802E90051874FFF0A37429F0A3742F
:10434E0051F0801E90051874FFF0A37429F0A37429
:10435E0057F0800E90051874FFF0A37429F0A37423
:10436E005DF0900518E0FBA3E475F0011233BAA9D5
:10437E00F0FA1232C3FF3395E0FE74552FF58274B6
:10438E00303EF583E493FD3395E0FC90051BE0FF92
:10439E0004F0EF3395E0FEEF25E0FFEE33FE7454AC
:1043AE002FF58274063EF583ECF0A3EDF090051B1D
:1043BE00E0C3648094865010900518E0FBA3E0FAE9
:0843CE00A3E0F91232C3709A5A
:0143D60022C4
:04680300AC07A90530
:10680700AD04E9FF3395E0FEECFB3395E0FAEB2F9F
:10681700FFEA3EFEEDFB3395E0FAC3EB9FEE6480A3
:10682700F8EA6480985018EB25E0FFEA33FE7454C9
:0F6837002FF58274063EF583E4F0A3F00D80C3C5
:01684600222F
:0D60BE00900431EFF07B017A0379A7E4FD37
:0E60CB00900518EBF0A3EAF0A3E9F0A3EDF0C6
:1060D900E4A3F0900518E0FBA3E0FAA3E0F990002F
:1060E900011232DCB42E0790051CE0B4014D900575
:1060F90018E0FBA3E475F0011233BAA9F0FA1232E1
:10610900C3FF3395E0FE74552FF58274303EF58355
:10611900E493FD3395E0FC90051BE0FF04F0EF33B9
:1061290095E0FEEF25E0FFEE33FE74542FF58274FF
:10613900063EF583ECF0A3EDF0805D900518E0FBD9
:10614900A3E475F0011233BAA9F0FA1232C3FF338E
:1061590095E0FE74552FF58274303EF583E493443F
:1061690080FD3395E0FC90051BE0FF04F0EF3395CB
:10617900E0FEEF25E0FFEE33FE74542FF58274063E
:106189003EF583ECF0A3EDF090051C7401F0900549
:1061990019E475F0011233A490051BE0C3648094DF
:0661A9008650030260DCD9
:0161AF0022CD
:1059CD00E4FDEDFF3395E0FEEF25E0FFEE33FE74D1
:1059DD00752FF974023EFA7B01EDFF3395E0FEEF72
:1059ED007803C333CE33CED8F92447F58274003E05
:1059FD00F583EBF0A3EAF0A3E9F00DEDB402C3E4F7
:105A0D00FDEDFF3395E0FEEF25E0FFEE33FE747BF9
:105A1D002FF974023EFA7B01EDFF3395E0FEEF782E
:105A2D0003C333CE33CED8F92457F58274003EF537
:105A3D0083EBF0A3EAF0A3E9F00DEDB41EC3E4FD92
:105A4D00EDFF3395E0FEEF25E0FFEE33FE74B92F49
:105A5D00F974023EFA7B01EDFF3395E0FEEF78031A
:105A6D00C333CE33CED8F9244FF58274013EF5837E
:105A7D00EBF0A3EAF0A3E9F00DEDB40EC3E4FDEDF8
:105A8D00FF3395E0FEEF25E0FFEE33FE74D72FF9DF
:105A9D0074023EFA7B01EDFF3395E0FEEF7803C310
:105AAD0033CE33CED8F924BFF58274013EF583EBA6
:105ABD00F0A3EAF0A3E9F00DEDB40EC3E4FDEDFFA4
:105ACD003395E0FEEF25E0FFEE33FE74F52FF9740C
:105ADD00023EFA7B01EDFF3395E0FEEF7803C33311
:105AED00CE33CED8F9242FF58274023EF583EBF038
:105AFD00A3EAF0A3E9F00DEDB407C3E4FDEDFF3328
:105B0D0095E0FEEF25E0FFEE33FE74052FF97403EB
:105B1D003EFA7B01EDFF3395E0FEEF7803C333CE04
:105B2D0033CED8F92447F58274013EF583EBF0A30B
:0A5B3D00EAF0A3E9F00DEDB401C396
:015B4700223B
:05473C00900430EFF0D5
:104741003395E0FE902FCC75F00FEF1236F7EE7532
:10475100F00FA42583F583E493FF7401939004354E
:10476100CFF0A3EFF0900435E475F0011233BAAF46
:10477100F0FE120026900434EFF0E4900437F0A329
:10478100F0900430E0FFFD3395E0FC902FCB75F005
:104791000FED1236F7EC75F00FA42583F583E49342
:1047A100FB3395E0FA900437E0FCA3E0FDC39BEAFC
:1047B1006480F8EC64809840030248E2EFB4044955
:1047C1003395E0FE902FC375F00FEF1236F7EE75BB
:1047D100F00FA42583F583E493FB740193FA74022B
:1047E10093F9C003C002C001EDAE047803C333CE18
:1047F10033CED8F9D001D002D00329F9EA3EFA909C
:104801000003740175F0C2804C900430E0FF3395D1
:10481100E0FE902FC375F00FEF1236F7EE75F00F33
:10482100A42583F583E493FB740193FA740293F94D
:10483100C003C002C001EDAE047803C333CE33CE52
:10484100D8F9D001D002D00329F9EA3EFA90000349
:10485100740375F0E7123452900430E0FF3395E0B1
:10486100FE902FC375F00FEF1236F7EE75F00FA41F
:104871002583F583E493FB740193FA740293F99011
:104881000437E0FEA3E07803C333CE33CED8F9FF7B
:1048910029F9EA3EFA900005E4F5F0123452900449
:1048A10030E0FD3395E0FC902FC375F00FED12362B
:1048B100F7EC75F00FA42583F583E493FB74019362
:1048C100FA7402932FF9EA3EFA900007E412331BBF
:1048D100900438E004F07006900437E004F00247D9
:1048E10082902FFFE493FB740193FA740293F99081
:1048F1000033740175F0F4123452900430E0146006
:104901002014602D14603A1460471460542405701B
:104911005E9004317401F0A37402F0A37475F08009
:104921004E9004317401F0A37402F0A3747BF08003
:104931003E9004317401F0A37402F0A374B9F080C5
:104941002E9004317401F0A37402F0A374D7F080A7
:104951001E9004317401F0A37402F0A374F5F08089
:104961000E9004317401F0A37403F0A37405F09068
:104971000430E0FF3395E0FE902FC975F00FEF1280
:1049810036F7EE75F00FA42583F583E493FF7401E8
:1049910093900435CFF0A3EFF0E4A3F0A3F09004DB
:1049A10030E0FF3395E0FE902FCB75F00FEF12361C
:1049B100F7EE75F00FA42583F583E493FF3395E0BB
:1049C100FEEF2401FFE43EFEC3900438E09FEE6455
:1049D10080F8900437E06480985063900435E47562
:1049E100F0011233BAAFF0FE120026900431E0FB61
:1049F100A3E0FAA3E0F9EF123309900432E475F071
:104A0100011233A4900435E475F0011233BAAFF00A
:104A1100FE120026900431E0FBA3E0FAA3E0F9EFD7
:104A2100123309900432E475F0011233A490043872
:0E4A3100E004F07006900437E004F002499FA4
:014A3F002254
:1065D100E4FDEDFF3395E0FEEF25E0FFEE33FE74C1
:1065E100752FF58274023EF583E0FAA3E0FB74098E
:1065F1002FF58274033EF583EAF0A3EBF00DEDB4C1
:1066010002D0E4FDEDFF3395E0FEEF25E0FFEE3330
:10661100FE747B2FF58274023EF583E0FAA3E0FB62
:10662100740D2FF58274033EF583EAF0A3EBF00DB0
:04663100EDB41ED0D6
:016635002242
:1061B000900430747FF0A374F9F0E4FF900430E4AD
:1061C00075F0011233BA85F082F583E493FEEFFD9A
:1061D0003395E0FC74322DF58274043CF583EEF0C7
:1061E0000FEFB407D7900437E0FE3395E0900373C8
:1061F000F0A3CEF0E07F00FE900373F0A3EFF090E9
:106200000438E0FDEDFF900373EEF0A3EFF07C07A0
:106210007DD012334FA3ECF0A3EDF0E4900430F006
:10622000A3F0900376E025E0FF900375E033FE12C3
:106230000026900432EFF0900376E025E0FF900313
:1062400075E033FEEF2401FFE43EFE1200269004C9
:1062500033EFF0FB900432E0FDAF05900377E4F0FC
:0B626000A3EFF0EBFFA3E4F0A3EFF0CE
:01626B002210
:10544100C2A57A297963126485900395E0F9A3E0F6
:10545100FAA3E090042BC9F0A3EAF0A3E9F0E490E9
:10546100042FF090042BE0FBA3E0FAA3E0F99004F1
:105471002FE0FFFD3395E08D82F58374151236E63A
:10548100123723EA494B600890042FE004F080D3DF
:1054910090041EEFF0900398E0FBA3E0FAA3E0F97B
:1054A100900040EBF0A3EAF0A3E9F090000112377D
:1054B10023900044EBF0A3EAF0A3E9F0E490042F79
:1054C100F0900040E0FBA3E0FAA3E0F990042FE0A4
:1054D100FFFD3395E08D82F583740F1236E61232AB
:1054E100DCB5070B12473C90042FE004F080D2900A
:1054F100042FE0900269F01265D11259CDE49003B6
:105501009BF090026FF09003A3F0A304F0E49003EA
:105511008CF090034DF090034BF0A3F090034EF00C
:1055210090035412369100000000E4900371F012D0
:1055310061B0900377E0FFA3E09002EFCFF0A3EF1B
:10554100F0900379E0FFA3E09002F1CFF0A3EFF038
:10555100E4900372F090042FF090042FE0FFC364F5
:1055610080948740030255ECEF3395E0FEEF78021B
:10557100C333CE33CED8F9FF24D7F58274023EF57A
:1055810083E0FCA3E04C702B74D92FF58274023EAA
:10559100F583E0FEA3E04E701A900372E0FF9004E1
:1055A1002FE0FE7401A806088002C333D8FC4F9097
:1055B1000372F090042FE0FF3395E0FEEF7802C311
:1055C10033CE33CED8F9FF24B9F58274023EF58388
:1055D100E4F0A3F074BB2FF58274023EF583E4F08E
:1055E100A3F090042FE004F002555A124D14125FFB
:1055F100C7E47B107A27F9F890037BE0FCA3E0FD78
:10560100A3E0FEA3E0FF12350A900305EEF0A3EF3D
:10561100F0E4900349F0A3F0900350F0A3F074FF7D
:06562100900267F0A3F007
:015627002260
:08562800900518EEF0A3EFF06D
:105630009005C474AAF0900518E0FEA3E0902FC96D
:1056400075F00F1236F7EE75F00FA42583F583E49D
:1056500093FE740193FF1266DFE49005C4F0900599
:1056600018E0FEA3E0FFEE7072EF14602014602DCE
:1056700014603A1460471460542405705E90051A53
:105680007401F0A37402F0A37475F0804E90051AB3
:105690007401F0A37402F0A3747BF0803E90051AAD
:1056A0007401F0A37402F0A374B9F0802E90051A6F
:1056B0007401F0A37402F0A374D7F0801E90051A51
:1056C0007401F0A37402F0A374F5F0800E90051A33
:1056D0007401F0A37403F0A37405F0900518E0FEC4
:1056E000A3E0902FC975F00F1236F7EE75F00FA4F6
:1056F0002583F583E493FF74019390051ECFF0A3F7
:10570000EFF0E490051DF0900518E0FEA3E0902F67
:10571000CB75F00F1236F7EE75F00FA42583F583E5
:10572000E493FF3395E0FEEF2401FFE43EFE900595
:105730001DE0C39FEE6480F8748098400302580215
:105740009005C474AAF090051EE0FEA3E0FF90054A
:105750001AE0FBA3E0FAA3E0F91232C3FD126636A9
:1057600090051EE0FEA3E0FF120026AE0790051A8A
:10577000E0FBA3E0FAA3E0F91232C36E60079003E6
:105780004CE04420F090051BE475F0011233A49026
:10579000051FE004F0700690051EE004F090051E61
:1057A000E0FEA3E0FF90051AE0FBA3E0FAA3E0F916
:1057B0001232C3FD12663690051EE0FEA3E0FF1212
:1057C0000026AE0790051AE0FBA3E0FAA3E0F91269
:1057D00032C36E600790034CE04420F090051BE458
:1057E00075F0011233A490051FE004F070069005D7
:1057F0001EE004F0E49005C4F090051DE004F00202
:0B58000057071265D19005907401F06D
:01580B00227A
:10677700EF14601814601D14602214602714602C35
:10678700240570337BFF7A29796980267BFF7A2974
:10679700796F801E7BFF7A29797580167BFF7A29AE
:1067A700797B800E7BFF7A29798180067BFF7A29A6
:0867B7007987E4FD12648922D8
:1000460078357C047D017BFF7A3079D57E007F642C
:1000560012329DE490049AF0A3F0A3F0A3F078A1E5
:100066007C047D017BFF7A317939FE7F0612329D51
:1000760078A77C047D017BFF7A31793F7E007F067D
:1000860012329D78AD7C047D017BFF7A3179457E05
:10009600007F0612329DA2A4E4335401FF9002674A
:1000A600E0FCA3E054FEFDECFEED4FFF900267EE90
:1000B600F0A3EFF0A2A3E433540125E0FFE433FEFE
:1000C600900267E0FCA3E054FDFDEC4EFEED4FFF11
:1000D600900267EEF0A3EFF0A2A2E4FE335401789B
:1000E60002C333CE33CED8F9FF900267E0FCA3E01B
:1000F60054FBFDEC4EFEED4FFF900267EEF0A3EFD2
:10010600F0A2A1E4FE3354017803C333CE33CED834
:10011600F9FF900267E0FCA3E054F7FDEC4EFEED1C
:100126004FFF900267EEF0A3EFF0A2A0E433540174
:10013600C4F8540FC868FFE4C454F048FE90026740
:10014600E0FCA3E054EFFDEC4EFEED4FFF9002679E
:10015600EEF0A3EFF0A2B5E4FE3354017805C33305
:10016600CE33CED8F9FF900267E0FCA3E054DFFD62
:10017600EC4EFEED4FFF900267EEF0A3EFF0A2B358
:10018600E4FE3354017806C333CE33CED8F9FF905C
:100196000267E0FCA3E054BFFDEC4EFEED4FFF907E
:1001A6000267EEF0A3EFF0A2B2E4FE335401780743
:1001B600C333CE33CED8F9FF900267E0FCA3E054F8
:1001C6007FFDEC4EFEED4FFF900267EEF0A3EFF0E1
:1001D600A2A6E4335401FE900267E054FEFCA3E0BD
:1001E600FDEC4EFFED900267CFF0A3EFF0A2A7E47F
:1001F60033540125E0FE900267E054FDFCA3E0FDC8
:10020600EC4EFFED900267CFF0A3EFF0A292E4333D
:10021600540125E025E0FE900267E054FBFCA3E0D4
:10022600FDEC4EFFED900267CFF0A3EFF0A293E452
:1002360033540133333354F8FE900267E054F7FC2D
:10024600A3E0FDEC4EFFED900267CFF0A3EFF0A226
:1002560096E4335401C454F0FE900267E054EFFC78
:10026600A3E0FDEC4EFFED900267CFF0A3EFF0A206
:1002760097E4335401C43354E0FE900267E054DF40
:10028600FCA3E0FDEC4EFFED900267CFF0A3EFF08C
:10029600A2CCE4335401C4333354C0FE900267E069
:1002A60054BFFCA3E0FDEC4EFFED900267CFF0A338
:1002B600EFF0A2CDE4335401C43333335480FE90BF
:1002C6000267E0547FFCA3E0FDEC4EFFED90026771
:1002D600CFF0A3EFF0900267E0FFA3E0900016CF07
:1002E600F0A3EFF090001AE0FEA3E0FF900016E006
:1002F600FCA3E0FD6F7002EC6E6079900349E0FEAE
:10030600A3E0FF900027EEF0A3EFF0900023E0704B
:1003160002A3E0701190002FEEF0A3EFF090000A18
:10032600E04401F0800790000AE054FEF090001FC0
:10033600E0FEA3E0FF900349E0FAA3E0FBC39FFFC2
:10034600EA9EFED3EF9432EE9400402590001AEC1C
:10035600F0A3EDF090001DEAF0A3EBF0E49000218D
:10036600F0A3F0A3F0A3F0900033F0A304F002048E
:100376007B02047490002FE0FEA3E0FF900349E0A7
:10038600FCA3E0FDC39FFFEC9EFED3EF9432EE94F8
:1003960000400790000AE054FEF0900027E0FEA31C
:1003A600E0FFC3ED9FFFEC9EFED3EF9430EE947515
:1003B6004034900349E0FFA3E0900027CFF0A3EF7D
:1003C600F090002DE07002A3E0701B9003A3E07094
:1003D60004A3E06411600F9003A3E4F0A304F0E427
:1003E60090002BF0A3F090001DE0FEA3E0FF900329
:1003F60049E0FCA3E0FDC39FFFEC9EFED3EF9432E1
:10040600EE9400406990001FECF0A3EDF09000160A
:10041600E0FEA3E0F47002EEF4605A900023E07070
:1004260002A3E07050900022E004F07006900021D4
:10043600E004F0D3900022E09464900021E0648010
:1004460094804031900023E4F0A304F0900033E45C
:10045600F0A304F0E4900031F0A3F0900025ECF056
:10046600A3EDF0900021E4F0A3740AF08007E49075
:100476000016F0A3F0900023E07002A3E0605B900A
:100486000025E0FEA3E0FF900349E0FCA3E0FDC3E6
:100496009FFFEC9EFED3EF9464EE9400403C9000E8
:1004A60032E004F07006900031E004F0900031E094
:1004B600FEA3E0FFD39432EE648094804007A3E469
:1004C600F0A3740AF0EF4E6008900025ECF0A3ED5F
:1004D600F0900018E4F0A374FFF0900016E0FEA37D
:1004E600E0FF4E6021A3E0FCA3E0FDEF6D7002EE9D
:1004F6006C600C900016A3A3EEF0A3EFF08007E467
:10050600900016F0A3F0900016E0FEA3E0FFF47052
:1005160003EE64FD6012EFF47003EE64FB6009EF16
:10052600F47003EE64F77042900371E0FF60209070
:100536000016E0B4FB19A3E0B4FF14EF3395E0FE18
:10054600EF2414FFE43E90034BF0A3EFF0801B90E2
:1005560005CA7401F0900016E0FFA3E0900389CF6E
:10056600F0A3EFF090026B7402F090003DE0FEA362
:10057600E0FFEE7076EF24F6602524F6604D241435
:10058600706920946690003DE4F0A3740AF090032D
:1005960049E0FFA3E090003BCFF0A3EFF0804C20B2
:1005A600944290003BE0FEA3E0FFC390034AE09F25
:1005B600FF900349E09EFED3EF9464EE9400402B37
:1005C60090003DE4F0A37414F0802030941D900553
:1005D600CA7401F090038974FFF0A374EEF09002E0
:1005E6006B7402F0E490003DF0A3F090026CE0FE24
:1005F600A3E0FF64084E70030207BB900016E0FC00
:10060600A3E08CF012377907987FFF078ABFFF07B0
:100616007ADFFF076AEFFF075AF7FF074AFBFF0774
:100626003AFDFF0729FEFF0718FF7F06F9FFBF0601
:10063600E8FFDF07ADFFEE06D7FFEF0689FFF706F7
:100646004DFFFE000007BBEF64024E600C90026C8B
:10065600E07004A3E0640370189003A3E07004A3A1
:10066600E06401700C90038EF0A3F090026CF0A38E
:10067600F09003B1E07004A3E0640160030207BBDD
:100686000207A490026CE0FEA3E0FF64024E60063F
:10069600EF64034E700C9003A3E07004A3E06401C2
:1006A600601D90026CE07002A3E070139003A3E05B
:1006B6007004A3E06401700790026CF0A304F0904C
:1006C60003B1E07004A3E0640160030207BB020704
:1006D600A490027174FFF0A37429F0A3748DF00244
:1006E60007BB90027174FFF0A37429F0A37492F013
:1006F6000207BB9003B1E07004A3E06401700790A9
:100706000390F0A304F090026CE4F0A37408F002E6
:1007160007BB90027174FFF0A37429F0A37497F0DD
:100726000207BB90027174FFF0A37429F0A3749CB6
:10073600F00207BB90027174FFF0A37429F0A37452
:10074600A1F0807190027174FFF0A37429F0A37474
:10075600A6F0806190027174FFF0A37429F0A3746F
:10076600ABF0805190027174FFF0A37429F0A3746A
:10077600B0F0804190027174FFF0A37429F0A37465
:10078600B5F080319003B1E07004A3E064017025F8
:10079600800C9003B1E07004A3E06401701790032D
:1007A60090F0A304F0800E90027174FFF0A37429F8
:1007B600F0A374BAF09003A3E0FEA3E0FFEE60039B
:1007C600021902EF24FE7003020CB6147003021025
:1007D6009D14700302144724FB70030218C624F903
:1007E6007003020F75147003020EBF24106003021B
:1007F6001902900016E0FEA3E08EF0123779098404
:100806007FFF090EBFFF0A68FFBF0A00FFF70877E0
:10081600FFFB08DEFFFD0824FFFE00000A82E490CD
:10082600003AF090002BE07002A3E0702990039E3E
:100836007430F0A3F0A3F0A3F0A3F090038B74043C
:10084600F07B017A03799EE4FD1264899003A3E4A8
:10085600F0A37402F022900043E0B4010AE4F090A1
:100866000037F09003B9F0E490002BF0A3F0020AF1
:1008760082E490003AF0900023E07002A3E0604525
:1008860090002BE07002A3E0703B90037BE0FCA39A
:10089600E0FDA3E0FEA3E0FFA3E0F8A3E0F9A3E0F8
:1008A600FAA3E0FBC31235C0601B90037BE0FCA3F8
:1008B600E0FDA3E0FEA3E0FFA31236859005C37416
:1008C60001F012626C90026EE064016003020A821B
:1008D60090059304F0E48029E490003AF0900349EF
:1008E600E0FFA3E0900029CFF0A3EFF0A3E4F0A38C
:1008F6007405F090026EE06003020A82900593048C
:10090600F090026EF0020A82E490003AF090002B1A
:10091600E07002A3E06003020A82900040E0FBA3BD
:10092600E0FAA3E0F9900001123723900044EBF0BF
:10093600A3EAF0A3E9F0E490041FF0A3F0A304F007
:10094600E490026FF090000B04F0E490002DF0A309
:10095600F0FC7D0FFFFE12333D900040E0FBA3E06C
:10096600FAA3E02FF9EA3EFA9000091232DC90046D
:100976002EF0D36480948050030228A78072E490FE
:10098600003AF090002BE07002A3E06003020A82B6
:10099600900040E0FBA3E0FAA3E0F99000011237D3
:1009A60023900044EBF0A3EAF0A3E9F0E490041FDF
:1009B600F0A304F0A3F090026FF090000BF0E49027
:1009C600002DF0A3F0FC7D0FFFFE12333D9000409A
:1009D600E0FBA3E0FAA3E02FF9EA3EFA9000091241
:1009E60032DC90042EF0D36480948050030228A752
:1009F6009003A3E4F0A37403F022900043E0703761
:100A0600900023E07002A3E0601090003AE0C36417
:100A16008094A8500AE004F08005E490003AF09033
:100A26000349E0FFA3E0900029CFF0A3EFF0A3E491
:100A3600F0A37402F080459005CA7401F090038912
:100A460074FFF0A374BFF090026B7402F0E49000A0
:100A56002BF0A3F0900043F0900037F09003B9F02C
:100A6600801A900043E0701490057104F090002BFA
:100A7600E4F0A37404F09000437401F090002BE0BE
:100A86007002A3E06003020BF0900394E0FF900075
:100A96000EE4F0A3EFF090026FE0900430F09003C4
:100AA6004BE07002A3E06003020B4690034DE0703A
:100AB6004CA3E0B401109003B97401F0900037E044
:100AC600700B04F0800790000AE054FDF090037F5D
:100AD600E0F8A3E0F9A3E0FAA3E0FB90037BE0FCD7
:100AE600A3E0FDA3E0FEA3E0C39BFFEE9AFEED9913
:100AF600FDEC98FC900358123685020B777A29791B
:100B0600BF12648590034DE0FB547FFF3395E0FEF2
:100B1600FDFC900012123685EB30E708900037E0B6
:100B2600700204F0124A4E900431EFF07B017A0312
:100B360079AA7D031260CB9003B97401F0020BBB56
:100B460090034BE0FEA3E0FF640B4E6006EF640CDF
:100B56004E703490034EE0B401109003B97401F066
:100B6600900037E0700B04F0800790000AE054FD17
:100B7600F0900358E0FCA3E0FDA3E0FEA3E0FF1223
:100B86004A481260BE802E7BFF7A2979C3E4FD12A3
:100B96006489900037E0700204F090034B124A40DB
:100BA600900431EFF07B017A0379AA7D031260CBC2
:100BB600E49003B9F090038CE07003020C96900366
:100BC60093E0FF90039BE004FEF0D3EF6480F8EE21
:100BD6006480985003020C96E4F090026FE004F0F3
:100BE600E490000EF0A3F0020C9690002BE0700447
:100BF600A3E064027033900352124A401260BE9022
:100C06000029E0FEA3E0FFC390034AE09FFF9003A4
:100C160049E09EFED3EF94D0EE9407407390002BEC
:100C2600E4F0A37403F0020C9690002BE07004A38A
:100C3600E064037005900350803590002BE070044B
:100C4600A3E06404701A7BFF7A2979C7FD126489D0
:100C5600900037E0700204F09003B97401F0803020
:100C660090002BE07004A3E064057024900373E009
:100C7600FEA3E0FFE4FCFD90001212368590001200
:100C8600A3A3E0FEA3E0FFE4FDFC124A481260BE07
:100C960090003AE06428600302190AF09003A3F07A
:100CA600A37410F090002BE4F0A37404F002102655
:100CB600900016E0FEA3E08EF01237790D29FFF7BB
:100CC6000CE3FFFB0CF9FFFD0CD6FFFE00000E9FA8
:100CD600E490026FF09003A3F0A304F02290038B3C
:100CE600E014F0C3648094804003020E9F7404F005
:100CF600020E9F90038BE0FF3395E0FE749E2FF566
:100D06008274033EF583E004F0D3648094B9500303
:100D1600020E9F749E2FF58274033EF5837430F0A5
:100D2600020E9F90042F7401F0900269E0FF900478
:100D36002FE0FEC3EF6480F8EE648098400302283B
:100D4600A7900040E0FBA3E0FAA3E0F9EE75F00FF0
:100D5600A4FFE92FF9E43AFA90000412372312327D
:100D6600C3FF90039EE06F6003020E9690042FE08F
:100D7600FF3395E0FE7C007D0F12333D900040E08E
:100D8600FBA3E0FAA3E02FF9EA3EFA90000412373B
:100D9600239000011232DCFF90039FE06F60030294
:100DA6000E969000021232DCFF9003A0E06F600303
:100DB600020E969000031232DCFF9003A1E06F60F2
:100DC60003020E969000041232DCFF9003A2E06F3D
:100DD6006003020E9690042FE0FFB404289002EB05
:100DE600E07002A3E0700A9002EDE07002A3E060FA
:100DF60014900372E020E50D900301E07002A3E079
:100E060060030228A7EF3395E0FE90002DF0A3EFD4
:100E1600F07C007D0F12333D900040E0FBA3E0FA2A
:100E2600A3E02FF9EA3EFA9000011237239000441E
:100E3600EBF0A3EAF0A3E9F090002DE0FEA3E0FFBB
:100E460090041FF0E4A3F0A304F0E490026FF01204
:100E5600333D900040E0FBA3E0FAA3E02FF9EA3E21
:100E6600FA9000091232DC90042EF0D3648094804C
:100E760040099003A3E4F0A37403F090042EE0D39A
:100E86006480949440037414F0900499740AF022D8
:100E960090042FE004F0020D2F900010E07002A3E2
:100EA600E0600D900023E07002A3E07003021831A9
:100EB6007B017A03799E0218FB900016E0FEA3E000
:100EC6008EF01237790ED3FFFE00000F07E4900074
:100ED6002BF0A3F090038B7404F0E490039BF09046
:100EE600041F7478F09004217401F0E490026FF00E
:100EF6009003A3F0A304F0E4900037F09003B9F058
:100F06002290034BE0FEA3E0FF640B4E6006EF6405
:100F16000C4E7044EF640B4E70147BFF7A2979CD2A
:100F2600FD126489900037E0702504F0802190035B
:100F36004BE07004A3E0640C600302190A7BFF7A9D
:100F46002979D3FD126489900037E0700204F0908D
:100F560003B97401F002190A7BFF7A2979D9E4FDF5
:100F6600126489E4900037F09003B9F002190A90F0
:100F76000016E0FEA3E08EF012377910947FFF1082
:100F86008BBFFF1043DFFF104CEFFF103AF7FF1047
:100F960031FBFF1079FDFF1070FEFF1067FF7F1019
:100FA60082FFBF1055FFDF105EFFEF1012FFFB0F31
:100FB600EAFFFD0FC1FFFE0000190AE490002BF0C6
:100FC600A3F090038B7404F0E490039BF090041F4D
:100FD6007478F09004217401F0E490026FF09003AD
:100FE600A3021906900392E0C3648094815009E03D
:100FF60004F09005CB7401F0900392E0FF1267773E
:10100600900392E0D36480948002190A900392E0E0
:10101600D3648094804009E014F09005CB7401F00D
:10102600900392E0FF12677702190A7BFF7A29790B
:10103600DF0218FB7BFF7A2979E50218FB7BFF7A32
:101046002979EB0218FB7BFF7A2979F10218FB7BE1
:10105600FF7A2979F70218FB7BFF7A2979FD0218B6
:10106600FB7BFF7A2A79030218FB7BFF7A2A790930
:101076000218FB7BFF7A2A790F0218FB7BFF7A2A7C
:1010860079150218FB7BFF7A2A791B0218FB7BFF76
:101096007A2A79210218FB900016E0FEA3E08EF072
:1010A6001237791157FFF710EAFFFB1120FFFD10E9
:1010B600BDFFFE000011BAE490002BF0A3F09003F0
:1010C6008B7404F0E490039BF090041F7478F09006
:1010D60004217401F0E490026FF09003A3F0A304DE
:1010E600F00211BA90026FE0FF14F0EF700990045D
:1010F6002EE01490026FF090026FE0900420F0F062
:10110600A37401F0900499E0FF14F0EFD3940A4021
:10111600030211BA741DF00211BA90042EE0FF907A
:10112600026FE004FEF0C3EF6480F8EE648098403E
:1011360002E4F090026FE0900420F0A37401F090B6
:101146000499E0FF04F0EFC3941D4068740AF08030
:101156006390041FE0FDB4042790026FE0FF740162
:101166007E00A807088005C333CE33CED8F9FF909A
:101176000372E0FB3395E05EFEEF5B4E6036802E39
:10118600EDB4032A90026FE0A2E713FF74017E001C
:10119600A807088005C333CE33CED8F9FF90037273
:1011A600E0FD3395E05EFEEF5D4E60088000900046
:1011B6000B7405F090041FE0FF700890000BE060D0
:1011C6000204F090000BE064056003021356F090F1
:1011D600026FE0FE900430F090038B7404F09002EE
:1011E600707402F0EFB40331EEA2E713FF74017ED0
:1011F60000A807088005C333CE33CED8F9FF900385
:1012060072E0FD3395E05EFEEF5D4E700C90038557
:10121600123691000000008020900427E0FBA3E036
:10122600FAA3E0F91237031233D0FFAEF0EE33958E
:10123600E0FDFC9003851236859003A3E4F0A374C9
:1012460004F0900430E0FF3395E0FEEF7803C333FB
:10125600CE33CED8F9FF900044E0FBA3E0FAA3E03A
:101266002FF9EA3EFA900427EBF0A3EAF0A3E9F09F
:101276009002707402F0123703C00390051C7403C9
:10128600F0E4A3F0A304F0A37403F0A374A7F0E4BE
:10129600A3F0A37402F0D003FD124A71900431EF5B
:1012A600F090038D7403F090039E7430F0A3F074F5
:1012B6000314606D146043146003021347900431F5
:1012C600E0FFFD3395E0FC74A72DF58274033CF531
:1012D60083E0FE9003A0F0BE20037430F0EF339558
:1012E600E0FE74A82FF58274033EF583E0FD9003BB
:1012F600A1F0BD20037430F080389003A07420F074
:10130600900431E0FF3395E0FE74A82FF582740354
:101316003EF583E0FD9003A1F0BD20037430F0801C
:10132600119003A07420F0A3F0900431E0FF3395F0
:10133600E0FE74A92FF58274033EF583E09003A2C4
:10134600F0E4900035F0A3F09003A3F0A37404F04A
:10135600D390000FE0940090000EE09400400FA39D
:10136600E024FFF090000EE034FFF002190A90032B
:1013760094E0FF90000EE4F0A3EFF090026FE0FD22
:10138600FF3395E0FEEF7803C333CE33CED8F9FFB3
:10139600900044E0FBA3E0FAA3E02FF9EA3EFA90BE
:1013A6000427EBF0A3EAF0A3E9F090041FE0B403EE
:1013B60031EDA2E713FF74017E00A807088005C37C
:1013C60033CE33CED8F9FF900372E0FD3395E05E5D
:1013D600FEEF5D4E700C9003851236910000000002
:1013E6008020900427E0FBA3E0FAA3E0F91237037C
:1013F6001233D0FFAEF0EE3395E0FDFC900385127C
:10140600368590026FE0FF12404E90051C7403F083
:10141600E4A3F07B01A304F0A37403F0A374A7F084
:10142600E4A3F0A37402F07A0379857D04124A716D
:10143600900431EFF024A7F9E43403FA7B01021893
:10144600BF900016E0FEA3E08EF012377915D0FFAC
:10145600F71473FFFB1523FFFD1467FFFE0000184A
:101466001D90041FE060030218140217E990026F32
:10147600E0FF3395E0FEEF7803C333CE33CED8F9E1
:10148600FF900044E0FBA3E0FAA3E02FF9EA3EFA5E
:101496009000071232DC30E00302181D900385E04D
:1014A600FCA3E0FDA3E0FEA3E0FFC006C00790009A
:1014B60033E0FEA3E0FBAA06EA3395E0F9F8D0078D
:1014C600D006C3EF9BFFEE9AFEED99FDEC98FC90DB
:1014D6000385123685900427E0FBA3E0FAA3E0F922
:1014E6009000051233FBFFAEF0EE3395E0FDFC9065
:1014F6000385E0F8A3E0F9A3E0FAA3E0FBC3123505
:10150600AA400302181D900427E0FBA3E0FAA3E01B
:10151600F99000051233FBFFAEF00215C190026F81
:10152600E0FF3395E0FEEF7803C333CE33CED8F930
:10153600FF900044E0FBA3E0FAA3E02FF9EA3EFAAD
:101546009000071232DC30E00302181D900385E09C
:10155600F8A3E0F9A3E0FAA3E0FB900033E0FEA3D2
:10156600E0FFEE3395E0FDFCEB2FFFEA3EFEE93DA2
:10157600FDE83CFC900385123685900427E0FBA32A
:10158600E0FAA3E0F99000031233FBFFAEF09004FB
:1015960033EEF0A3EFF0EE3395E0FDFC900385E02B
:1015A600F8A3E0F9A3E0FAA3E0FBD31235AA5003AF
:1015B60002181D900433E0FEA3E0FFEE3395E0FD34
:1015C600FC90038512368502181D900023E07002F8
:1015D600A3E060030217E37B017A03799E90027011
:1015E600E090051CF07D05125B4890038512368558
:1015F600900427E0FBA3E0FAA3E0F990000312337E
:10160600FBFFAEF0EE3395E0FDFC900385E0F8A31A
:10161600E0F9A3E0FAA3E0FBD31235AA40030217D0
:10162600E3900427E0FBA3E0FAA3E0F9900005129B
:1016360033FBFFAEF0EE3395E0FDFC900385E0F85A
:10164600A3E0F9A3E0FAA3E0FBC31235AA50030214
:1016560017E37E007F02E47066EF1460481460258D
:1016660024FE705B900385E0FCA3E0FDA3E0FEA3EF
:10167600E0FF900427E0FBA3E0FAA3E0F9123703AA
:10168600123647803A900385A3A3E0FEA3E0FF90BD
:101696000427E0FBA3E0FAA3E0F9123703EE8FF08C
:1016A600123433801A900385A3A3A3E0FF90042786
:1016B600E0FBA3E0FAA3E0F9123703EF1233099037
:1016C60003A0E0B4300B7420F0A3E0B43003742020
:1016D600F07B017A0379A07D021260CB90041FE0B3
:1016E600640260030217D790026FE0A2E713FDFFC2
:1016F6003395E0FEEF7802C333CE33CED8F9FF241C
:10170600B9F58274023EF583E0FAA3E0FB74D72FA5
:10171600F58274023EF583E0FEA3E06B7002EE6A8A
:1017260060030217CCEDFF3395E0FEEF7802C3337A
:10173600CE33CED8F9FF24BBF58274023EF583E0A2
:10174600FAA3E0FB74D92FF58274023EF583E0FE1E
:10175600A3E06B7002EE6A706D900372E0FF740195
:10176600A805088002C333D8FC4F900372F0EDFF42
:101776003395E0FEEF25E0FFEE33FE74F52FF5829C
:1017860074023EF583E4F0A3F0900432F090043244
:10179600E0FFC3ED6480F8EF6480985022EF339544
:1017A600E0FEEF25E0FFEE33FE74F52FF5827402BE
:1017B6003EF583E4F0A3F0900432E004F080CE7F9F
:1017C600047E001256289003A3E4F0A37403F0806D
:1017D6000C90041FE0FF3395E0FE12562890041F7C
:1017E600E0702B90002BF0A3F090038B7404F0E4D0
:1017F60090039BF090041F7478F09004217401F01C
:10180600E490026FF09003A3F0A304F08009900324
:10181600A3E4F0A37403F0900010E07002A3E0606C
:1018260017900023E07002A3E0700D90038BE0FF99
:101836007D0112680302190A90026FE0FF12404E02
:1018460090051C7405F0E4A3F07B01A304F0A374D7
:1018560003F0A374A7F0E4A3F0A37402F07A03796B
:10186600857D04124A71900431EFF03395E0FE74E1
:10187600A72FF58274033EF583E0FF9003A0F0BF27
:1018860020037430F0900431E0FF3395E0FE74A835
:101896002FF58274033EF583E0FD9003A1F0BD2091
:1018A600037430F074A92FF58274033EF583E0903B
:1018B60003A2F07B017A0379A07D021260CB8044FB
:1018C600900425E0FEA3E0FFC390034AE09FFF904B
:1018D6000349E09EFED3EF94E8EE94034011900492
:1018E60023E0FE3395E09003A3F0A3CEF080157BB2
:1018F600FF7A2A7927E4FD12648980089003A3E41D
:10190600F0A304F09003A3E0FEA3E0FF90038EE0B3
:0B1916006E7003A3E06F7003021DC29F
:101921009004B374FFF0A3742AF0A3742DF0A37490
:10193100FFF0A3742AF0A37432F0A374FFF0A37430
:101941002AF0A37437F09003B1E07004A3E06401BE
:101951007007900390F0A304F09003A3E0FEA3E0CE
:10196100FF90038EEEF0A3EFF0EE6003021DC2EFD5
:101971001237531996011ADA021AF1031C46051C93
:1019810094061CC4071CF4081D24091D53101D8254
:101991001100001DC290034BE07002A3E06003023E
:1019A1001DC2FFFE1266927BFF7A2A793C12688B78
:1019B1007F537E007D007C001265787BFF7A2A7957
:1019C1005B12688B7F537E007D007C001265787B03
:1019D100FF7A2A797212688B7BFF7A2A79721268F0
:1019E1008B7F537E007D007C0012657890053B74EF
:1019F100FFF0A3742AF0A3747DF09004B3E0F9A37F
:101A0100E0FAA3E090053EC9F0A3EAF0A3E9F07B78
:101A1100017A04793512443C7B017A0479351268E4
:101A21008B7F537E007D007C001265787BFF7A2AD4
:101A3100799212688B7BFF7A2A799D12688B7F538A
:101A41007E007D007C0012657890053B74FFF0A359
:101A5100742AF0A3747DF09004B6E0F9A3E0FAA330
:101A6100E090053EC9F0A3EAF0A3E9F07B017A0416
:101A7100793512443C7B017A04793512688B7BFFFE
:101A81007A2A799212688B7F537E007D007C001246
:101A910065787BFF7A2A79A812688B90053B74FFE1
:101AA100F0A3742AF0A374B3F09004B9E0F9A3E0B1
:101AB100FAA3E090053EC9F0A3EAF0A3E9F07B01A7
:101AC1007A04793512443C7B017A04793512688BAA
:101AD1007BFF7A2A7992021C8312668F7F537E00E4
:101AE1007D007C001265787BFF7A2A79C8021C830D
:101AF10012668F90041FE0704EA3E0704A90053B80
:101B010074FFF0A3742AF0A374B3F0A374FFF0A3DD
:101B11007428F0A374CDF07B017A04793512443C2A
:101B21007B017A04793512688B7F537E007D007CBE
:101B31000012657890053B74FFF0A3742AF0A3743A
:101B4100E7F09004B3804990041FE07057A3E0646C
:101B510001705190053B74FFF0A3742AF0A374B394
:101B6100F0A374FFF0A37428F0A374D0F07B017A82
:101B710004793512443C7B017A04793512688B90E3
:101B8100053B74FFF0A3742AF0A374E7F09004B648
:101B9100E0F9A3E0FAA3E090053EC9F0A3EAF0A3BF
:101BA100E9021DAF7BFF7A2A79FE12688B9004202F
:101BB100E0240AFF125DC9900420E0FF3395E0FEA6
:101BC100EF7803C333CE33CED8F9FF900044E0FB66
:101BD100A3E0FAA3E02FF9EA3EFA90049EEBF0A30A
:101BE100EAF0A3E9F01237031233D0FFAEF0EE337F
:101BF10095E0FDFC900385123685900385A3A3E053
:101C0100FEA3E0FF90049CEEF0A3EFF090053B747F
:101C1100FFF0A3742BF0A37408F0A3EEF0A3EFF090
:101C21007B017A0479A112443C90053B74FFF0A337
:101C3100742BF0A3740BF0A37401F0A37404F0A34C
:101C410074A1021DAF7BFF7A2A79FE12688B7F5344
:101C51007E007D007C0012657890053B74FFF0A347
:101C6100742BF0A37422F0A374FFF0A3742BF0A3E0
:101C7100743BF07B017A04793512443C7B017A0490
:101C8100793512688B7F537E007D007C0012657868
:101C9100021DC27BFF7A2A79FE12688B7F537E0078
:101CA1007D007C0012657890053B74FFF0A3742BD6
:101CB100F0A37422F0A374FFF0A3742BF0A3744873
:101CC100021DAF7BFF7A2A79FE12688B7F537E005B
:101CD1007D007C0012657890053B74FFF0A3742BA6
:101CE100F0A37422F0A374FFF0A3742BF0A374513A
:101CF100021DAF7BFF7A2A79FE12688B7F537E002B
:101D01007D007C0012657890053B74FFF0A3742B75
:101D1100F0A37422F0A374FFF0A3742BF0A3745CFE
:101D2100021DAF7BFF7A2A79FE12688B7F537E00FA
:101D31007D007C0012657890053B74FFF0A3742B45
:101D4100F0A37422F0A374FFF0A3742BF0A37469C1
:101D5100805C7BFF7A2A79FE12688B7F537E007D3F
:101D6100007C0012657890053B74FFF0A3742BF0A2
:101D7100A37422F0A374FFF0A3742BF0A3747A80F0
:101D81002D7BFF7A2A79FE12688B7F537E007D00BE
:101D91007C0012657890053B74FFF0A3742BF0A3CF
:101DA1007422F0A374FFF0A3742BF0A37487F07B6B
:101DB100017A04793512443C7B017A047935126841
:011DC1008B96
:101DC2009003A3E0FEA3E0FFEE60030223B2EF2440
:101DD200FE70030222BC1470030222F51470030287
:101DE200231B240360030223B290026CE0FEA3E0F3
:101DF200FFEE60030223B2EF14700302207414702A
:101E0200030221A714700302220224FB70030222A0
:101E120032240860030223B29003A5E0FEA3E0FF90
:101E2200C390034AE09FFF900349E09EFED3EF94E4
:101E3200F4EE94015003021FB29003B1E07002A3CA
:101E4200E06003021FB2900349E0FFA3E09003A504
:101E5200CFF0A3EFF0900040E0FBA3E0FAA3E0F99B
:101E620090000112372390049EEBF0A3EAF0A3E95D
:101E7200F01237031233D0FF90049AE5F0F0A3EF8B
:101E8200F090053B74FFF0A3742BF0A37408F0905C
:101E9200049AE0FFA3E090053ECFF0A3EFF07B01B0
:101EA2007A0479A712443C900040E0FBA3E0FAA335
:101EB200E0F9900001123723E92408F9E43AFA9094
:101EC200049EEBF0A3EAF0A3E9F01237031233D039
:101ED200FF90049CE5F0F0A3EFF090053B74FFF057
:101EE200A3742BF0A37408F090049CE0FFA3E0908D
:101EF200053ECFF0A3EFF07B017A0479AD12443CAA
:101F02007BFF7A2A797212688B90053B74FFF0A3EB
:101F1200742BF0A37490F0A37401F0A37404F0A3E3
:101F220074A7F07B017A04793512443C7B017A0470
:101F3200793512688B7BFF7A2A799D12688B90051E
:101F42003B74FFF0A3742BF0A374A7F0A37401F009
:101F5200A37404F0A374ADF07B017A0479351244C2
:101F62003C7B017A04793512688B7BFF7A2A79A847
:101F720012688B90053B74FFF0A3742BF0A374BE20
:101F8200F0900358E0FCA3E0FDA3E0FEA3E0FF9085
:101F9200053E1236857B017A04793512443C7B0179
:101FA2007A04793512688B7BFF7A2A799212688BD0
:101FB200900271E0FBA3E0FAA3E0F9EA494B700357
:101FC2000223B29003B1E07002A3E060030223B2E5
:101FD20090039CE0FEA3E0FF900349E0FCA3E0FD38
:101FE200C39FFFEC9EFED3EF94F4EE9401500302E4
:021FF20023B218
:101FF40090039CECF0A3EDF07BFF7A2B79D612686A
:102004008B900000E07002A3E090053B600C74FF2D
:10201400F0A3742BF0A374E1800A74FFF0A3742B73
:10202400F0A374F8F0900271E0F9A3E0FAA3E09051
:10203400053EC9F0A3EAF0A3E9F07B017A047935FF
:1020440012443C7B017A04793512688B7BFF7A2C2D
:10205400790E12688B900000E07002A3E070047F98
:0D2064000180027F00900000E4F0A3EFF087
:102071000223B2E4FFFE1266927BFF7A2C791812DA
:10208100688B7F107E277D007C001265787BFF7A4C
:102091002A797212688B90053B74FFF0A3742CF0BF
:1020A100A37423F0A374FFF0A3742CF0A37426F09F
:1020B1007B017A0479AD12443C90053B74FFF0A397
:1020C100742BF0A37490F0A37401F0A37404F0A333
:1020D10074ADF07B017A04793512443C7B017A04BA
:1020E100793512688B7BFF7A2B79D612688B900534
:1020F1003B74FFF0A3742BF0A37408F0900352E03B
:10210100FFA3E090053ECFF0A3EFF07B017A0479C5
:10211100AD12443C90053B74FFF0A3742BF0A37403
:10212100A7F0A37401F0A37404F0A374ADF07B01D4
:102131007A04793512443C7B017A04793512688B33
:102141007BFF7A2A799D12688B90053B74FFF0A37F
:10215100742BF0A374BEF0900358E0FCA3E0FDA340
:10216100E0FEA3E0FF90053E1236857B017A0479FB
:102171003512443C7B017A04793512688B7BFF7AF6
:102181002A799212688B900349E0FFA3E09003A59E
:10219100CFF0A3EFF090026DE004F0706190026C5B
:1021A100E004F00223B29003A5E0FEA3E0FFC39098
:1021B100034AE09FFF900349E09EFED3EF94D0EEE7
:1021C100940750030223B2E4FFFE1266927BFF7A6A
:1021D1002C792E12688B7F107E277D007C00126582
:1021E10078900349E0FFA3E09003A5CFF0A3EFF0BF
:1021F10090026DE004F0700690026CE004F002239E
:10220100B290039CE0FEA3E0FF900349E0FCA3E051
:10221100FDC39FFFEC9EFED3EF94C8EE94005003E4
:102221000223B290039CECF0A3EDF0125ED00223E6
:10223100B290039CE0FEA3E0FF900349E0FCA3E021
:10224100FDC39FFFEC9EFED3EF94F4EE9401403F5B
:1022510090039CECF0A3EDF0E4FFFE126692900077
:1022610002E07002A3E07BFF60067A2C79398004DA
:102271007A2C794412688B900002E07002A3E0701E
:0F228100047F0180027F00900002E4F0A3EFF0E1
:10229000900016E0FEA3E08EF012377922A8FFF737
:1022A00022B3FFFE000023B2900271E4F0A3F0A37A
:1022B000F08001E490026CF0A3F08056E4900432C8
:1022C000F0900432E0FFC36480948540030223B29F
:1022D000EF3395E0FE749E2FF58274033EF583E0A4
:1022E000FD74A12FF58274043EF583EDF090043265
:1022F000E004F080CC900016E0FEA3E0FF64FB70E9
:1023000002EEF4600CEF64FD7002EEF46003022351
:10231000B2E490038EF0A3F00223B290041FE0FF1A
:10232000702CA3E07028900044E0FBA3E0FAA3E047
:10233000F990049EEBF0A3EAF0A3E9F01237031240
:1023400033D0FD90049AE5F0F0A3EDF08035EF7006
:1023500032900420E0B4012B900044E0FBA3E0FAAB
:10236000A3E02408F9E43AFA90049EEBF0A3EAF023
:10237000A3E9F01237031233D0FF90049CE5F0F08C
:10238000A3EFF0900385A3A3E0FEA3E0FF90049CDD
:10239000EEF0A3EFF090053B74FFF0A3742BF0A3D5
:1023A0007408F0A3EEF0A3EFF07B017A0479A11298
:1023B000443C90034BE07002A3E070030225C890F8
:1023C00003A3E07004A3E0640160030225C8900247
:1023D0006CE07002A3E060030225C89003B1E070D6
:1023E00002A3E0600F900390E07004A3E06401603A
:1023F000030224A09003B1E4F0A304F0E49003905E
:10240000F0A3F0FFFE12669290034BE0FEA3E0FF04
:10241000EE6003022497EF14B40900507A90242B45
:1024200075F003A4C58325F0C583730224460224F6
:102430005702245F02246702246F02247702247F5C
:1024400002248702248F7BFF7A2C794F12688B7BC2
:10245000FF7A2C795E80467BFF7A2C7982803E7BE6
:10246000FF7A2C79AC80367BFF7A2C79D6802E7B54
:10247000FF7A2D790080267BFF7A2D792C801E7BB8
:10248000FF7A2D795880167BFF7A2D7986800E7B16
:10249000FF7A2D79B280067BFF7A2C794F12688BF8
:1024A00090039CE0FEA3E0FFC390034AE09FFF90EF
:1024B0000349E09EFED3EF94F4EE9401500302250D
:0124C000EA31
:1024C100900271E0FBA3E0FAA3E0F9EA494B60094D
:1024D100900271E4F0A3F0A3F090053B74FFF0A328
:1024E100742DF0A374DAF09003A3E0FFA3E090054C
:1024F1003ECFF0A3EFF090002BE0FFA3E09005406A
:10250100CFF0A3EFF07B017A04793512443C7B01D3
:102511007A04793512688BD390034CE0940F9003C1
:102521004BE0940090053B74FF4016F0A3742DF02E
:10253100A374F6F0A374FFF0A3742EF0A3740B80C0
:1025410014F0A3742DF0A374F6F0A374FFF0A37438
:102551002EF0A37418F07B017A04793512443C7B88
:10256100017A04793512688B900004E07002A3E0CF
:1025710090053B600C74FFF0A3742EF0A3742580CA
:102581000A74FFF0A3742EF0A3743EF090034BE0A5
:10259100FFA3E090053ECFF0A3EFF07B017A047931
:1025A1003512443C7B017A04793512688B90000422
:1025B100E07002A3E070047F0180027F00900004BC
:0525C100E4F0A3EFF0BF
:1025C600802290034BE07002A3E070189003B1E004
:1025D6007004A3E06401700C90038EF0A3F09003E6
:1025E600B1F0A3F09003A3E0FEA3E0FF64024E6007
:0A25F60009EF64044E600302276938
:1026000078B37C047D017BFF7A31794B7E007F6457
:1026100012329D90039CE0FEA3E0FF900349E0FC92
:10262000A3E0FDC39FFFEC9EFED3EF942CEE94013C
:052630005003022769C0
:1026350090039CECF0A3EDF0900006E07002A3E09F
:1026450060557B017A0479A1126A19D3900009E0DB
:102655009FEE6480F8900008E064809890053B74D4
:10266500FF500AF0A3742BF0A3740B8008F0A37439
:102675002EF0A37458F0A37401F0A37404F0A374AE
:10268500A1F07B017A0479B312443C7B017A047989
:10269500B312688B0227519003A3E07004A3E06492
:1026A50002700590038B8029E4900432F090043287
:1026B500E0FF3395E0FE74A12FF58274043EF583A7
:1026C500E06008900432E004F080E2900432E01407
:1026D500F0E0FF3395E0FE74A12FF58274043EF51A
:1026E50083E0900517F074A12FF58274043EF583FD
:1026F500745FF090053B74FFF0A3742EF0A374583B
:10270500F0A37401F0A37404F0A374A1F07B017A23
:102715000479B312443C7B017A0479B312688B9037
:1027250003A3E07004A3E064029005177007E0FFBF
:1027350090038B8005E0FF900432E0FD3395E0FCCB
:1027450074A12DF58274043CF583EFF0900006E04A
:102755007002A3E070047F0180027F00900006E410
:04276500F0A3EFF0FE
:1027690090001CE0701304F0900349E0FFA3E0908F
:10277900000CCFF0A3EFF0803B90000CE0FEA3E04B
:10278900FFC390034AE09FFF900349E09EFED3EF09
:102799009464EE9400401D900010E07002A3E07074
:1027A900047F0180027F00900010E4F0A3EFF0E4C1
:1027B90090001CF0900037E024F6603124F6607434
:1027C90024F67003022875241D600302289C9003D7
:1027D90049E0FFA3E0900038CFF0A3EFF090000AA2
:1027E900E04402F0900037740AF002289C9003B983
:1027F900E070067E017FF480047E007F329000380D
:10280900E0FCA3E0FDC390034AE09DFD900349E08D
:102819009CFCD3ED9FEC9E407AE0FFA3E09000384A
:10282900CFF0A3EFF090000AE054FDF09000377468
:1028390014F0805F9003B9E07E077FD0900038E004
:10284900FCA3E0FDC390034AE09DFD900349E09C91
:10285900FCD3ED9FEC9E403BE0FFA3E0900038CF16
:10286900F0A3EFF0900037741EF0802790034BE03F
:102879007002A3E0701790034DE05480FF3395E098
:102889004F700AA3E07006900037F0800690003779
:0E2899007401F090000AE06003D2A522C2A5EF
:0128A700220E
:104A4000E0FEA3E0FFE4FCFD900012123685900525
:104A50001C7405F0E4A3F07B01A304F0A37403F03D
:104A6000A374A7F0E4A3F0A37402F07A0079127D96
:014A70000441
:054A710090051BEDF0B3
:104A76006008E0D36480948440037F002290051B85
:104A8600E014F0E490052AF0900523123691000018
:104A9600000090051BE0B4031990052AE060081297
:104AA60035F712359C80031235F7900523123685AB
:104AB600804D90051BE0FFB4012990052AE06014A3
:104AC6001233D0FDC3E49DFCE495F0900523F0A3DA
:104AD600CCF0802B1233D0FD900523E5F0F0A3ED4A
:104AE600F0801CEF701690052AE060071232C3F4BE
:104AF6000480031232C3900523F080037F002290C6
:104B06000522E024FE601B14602024FB601424F8B8
:104B1600601024D0600C243F70169005297402F0B2
:104B2600800E900529740AF080069005297410F00D
:104B360090051CE0FFA3E02FFFC374039F90052799
:104B4600F0A3EFF0C3648094835013E0FFC37403B3
:104B56009FFF90051CE02FF09005287403F0900548
:104B66001CE0FF900528E0B50706900521E060638C
:104B7600900529E0FB3395E0FAF9F8900523E0FC6F
:104B8600A3E0FDA3E0FEA3E0FF126847EB2430FF9D
:104B960090051EE0FBA3E0FAA3E0F9900528E0FDEE
:104BA6003395E08D82F583EF12331B900523E0FCED
:104BB600A3E0FDA3E0FEA3E0FFC007900529E0FB0C
:104BC6003395E0FAF9F8D0071268479005231236B4
:104BD60085803B90051DE06019A3E0FBA3E0FAA3E6
:104BE600E0F9900528E0FF3395E08F82F583742E77
:104BF600801990051EE0FBA3E0FAA3E0F9900528D2
:104C0600E0FF3395E08F82F583742012331B900505
:104C160028E0FF14F0D3EF648094804003024B64D5
:104C2600900521E0602D90052AE06024900527E09C
:104C3600FFC364809483501890051EE0FBA3E0FA3E
:104C4600A3E0F9EF3395E08F82F583742D12331BC1
:104C56007F0022E4900528F0900527F090051EE0DD
:104C6600FBA3E0FAA3E0F9900528E0FFFD3395E009
:104C76008D82F5831232DC64307041EF3395E0FEAD
:104C8600EF2401FFE43EFE90051CE0FD3395E0FCB9
:104C9600C3EF9DEC6480F8EE648098501F90052861
:104CA600E0FF3395E08F82F583742012331B900565
:104CB60027E004F0900528E004F080A090052AE0A3
:104CC600601E90051EE0FBA3E0FAA3E0F99005271D
:104CD600E014FFF03395E08F82F583742D12331BB9
:104CE60090051CE0FFA3E02FFF900527E0FEC3EF31
:104CF6009EA3F0C364809483500EE0FFC374039FA9
:0D4D0600FFC3EE9F900527F0900527E0FF0A
:014D1300227D
:0D5B4800900518EBF0A3EAF0A3E9F0AB051F
:105B550090051CE024FE600F14601424027016905A
:105B650005267402F0800E900526740AF0800690D2
:105B750005267410F090051D123691000000009066
:105B8500052112369100000001900525EBF09005E6
:105B950025E0D3648094805003025C5EE014F090AD
:105BA5000518E0FBA3E0FAA3E0F9900525E0FF3333
:105BB50095E08F82F5831232DCFFC3648094B04098
:105BC500CDD3EF648094BF50C590051DE0F8A3E0E8
:105BD500F9A3E0FAA3E0FBC000C001C002C0039036
:105BE5000518E0FBA3E0FAA3E0F9900525E0FF33F3
:105BF50095E08F82F5831232DCFF3395E0FEEF24CA
:105C0500D0FFEE34FFFEE4FCFD900521E0F8A3E0B3
:105C1500F9A3E0FAA3E0FB12347FD003D002D00150
:105C2500D000EB2FFFEA3EFEE93DFDE83CFC900588
:105C35001D123685900521E0F8A3E0F9A3E0FAA34B
:105C4500E0FB900526E0FF3395E0FEFDFC12347F76
:105C5500900521123685025B93900518E0FBA3E0C1
:105C6500FAA3E0F91232C3642D60139000011232D9
:105C7500DC642D60099000021232DCB42D11900510
:105C85001DE0FCA3E0FDA3E0FEA3E0FF02359C9030
:0D5C9500051DE0FCA3E0FDA3E0FEA3E0FF81
:015CA20022DF
:105DC900EF24F6B414004003025EBC905DE275F066
:105DD90003A4C58325F0C58373025E1E025E2102FA
:105DE9005E2A025E33025E3C025E44025E4C025E43
:105DF90054025E5C025E64025E6C025E74025E7C4A
:105E0900025E84025E8C025E94025E9C025EA402C3
:105E19005EAC025EB4025EBC7BFF7A2E797C025EC8
:105E2900C27BFF7A2E7987025EC27BFF7A2E799236
:105E3900025EC27BFF7A2E799D807E7BFF7A2E7966
:105E4900A880767BFF7A2E79B3806E7BFF7A2E79D4
:105E5900BE80667BFF7A2E79C9805E7BFF7A2E79B8
:105E6900D480567BFF7A2E79DF804E7BFF7A2E799C
:105E7900EA80467BFF7A2E79F5803E7BFF7A2F797F
:105E89000080367BFF7A2F790B802E7BFF7A2F7962
:105E99001680267BFF7A2F7921801E7BFF7A2F7946
:105EA9002C80167BFF7A2F7937800E7BFF7A2F792A
:105EB9004280067BFF7A2E797112688B7F107E27CC
:075EC9007D007C00026578FA
:03668F00E4FFFE27
:08669200900518EEF0A3EFF0F3
:10669A007FE87E037D007C0012657890053B74FFDD
:1066AA00F0A3742FF0A3744DF0900518E0FFA3E057
:1066BA0090053ECFF0A3EFF07B017A05791A1244D8
:1066CA003C7B017A05791A12688B7FE87E037D008C
:0566DA007C0002657860
:0C6A6D00900661EBF0A3EAF0A3E9F02230
:105ED000E4900518F0A3F0781A7C057D017BFF7A29
:105EE0003179AFFE7F1E12329D900518E4F0A304B5
:105EF000F0900518E0FEA3E0FFC39407EE648094E1
:105F0000804003025FC690053B74FFF0A3742FF03E
:105F1000A37458F0A3EEF0A3EFF07B017A05791A91
:105F200012443C7B017A05791A12688B900518A3FC
:105F3000E01425E0FF74017E00A807088005C33344
:105F4000CE33CED8F9FF900350E05EFEA3E05F4E63
:105F50007BFF70067A2F796480047A2F7978126833
:105F60008B7F537E007D007C00126578900518A31E
:105F7000E025E014FF74017E00A807088005C33304
:105F8000CE33CED8F9FF900350E05EFEA3E05F4E23
:105F90007BFF70067A2F798C80047A2F79A11268A2
:105FA0008B7BFF7A2F79B612688B7F537E007D0042
:105FB0007C00126578900519E004F07006900518D1
:065FC000E004F0025EF1B6
:015FC60022B8
:0D6A6000E4F5C7F5C5F5C675C380F5C42281
:10002600C2AF75C78375C5018FC4EEF5C375C65AD1
:0C00360075C6A50000AFC2126A60D2AF10
:01004200229B
:106636009005C4E0FB7A0064AA704DC2AFEB64AA71
:10664600700375C783EB64AA4A700375C502EB64D1
:10665600AA4A70028FC49005C4E064AA7003EEF5DE
:10666600C39005C4E0FF7E0064AA70028DC2EF6489
:10667600AA4E700375C65A9005C4E064AA700375E5
:09668600C6A500126A60D2AF2221
:1066DF009005C4E0FD7C0064AA7043C2AFED64AACC
:1066EF00700375C783ED64AA4C700375C503ED6421
:1066FF00AA4C70028FC49005C4E064AA7003EEF533
:10670F00C39005C4E0FF7E0064AA700375C65AEFFC
:0F671F0064AA4E700375C6A500126A60D2AF223D
:105CA3009004647444F0A3E4F0FBFA90037BE0FCFB
:105CB300A3E0FDA3E0FEA3E024FFFFEE34FFFEED2F
:105CC30034FFFDEC34FFFC900466123685900466C5
:105CD300E0FCA3E0FDA3E0FEA3E0FF78071235D1CB
:105CE3007C007D0512334FAA04AB05900466A3A381
:105CF300A3E0547FFFE4FDFCEF701C9005C474AA7D
:105D0300F0AF03EF25E0FEE42400FFEE3444FE127F
:105D130066DFE49005C4F0900466E0FCA3E0FDA315
:105D2300E0FEA3E0FF78021235E4A3123685900467
:105D33006AE0FCA3E0FDA3E0FEA3E0FFE4FB7A0A34
:105D4300F9F812350AAC00AD01AE02AF0390046A54
:105D530012368590046AA3A3E0FEA3E0FF900465D6
:105D6300E02FF0900464E03EF09004607401F0A32F
:105D73007403F0A3747BF09005C474AAF0E4900458
:105D830063F0900464E0FEA3E0FF900460E0FBA3F3
:105D9300E0FAA3E0F91232C3FD126636900461E41F
:105DA30075F0011233A4900465E004F070069004CA
:105DB30064E004F0900463E004F0E0C3940440C2A0
:055DC300E49005C4F0AE
:015DC80022B8
:104D14009004347444F0A3E4F090044212369100F9
:104D240000000090044612369100002710E490041D
:104D34005EF0A3F090045EE0FEA3E0FFC39480EE77
:104D440094024003024F25EF7802C333CE33CED80A
:104D5400F92400FFEE3444900434F0A3EFF09004FF
:104D6400307401F0A37404F0A37436F0900434E0BA
:104D7400FEA3E0FF120026900430E0FBA3E0FAA3B8
:104D8400E0F9EF123309900431E475F0011233A411
:104D9400900435E02401FF900434E03400FE120056
:104DA40026900430E0FBA3E0FAA3E0F9EF12330904
:104DB400900431E475F0011233A4900435E0240228
:104DC400FF900434E03400FE120026900430E0FB2F
:104DD400A3E0FAA3E0F9EF123309900431E475F08B
:104DE400011233A4900435E02403FF900434E0342A
:104DF40000FE120026900430E0FBA3E0FAA3E0F9E1
:104E0400EF12330990044EE0FCA3E0FDA3E0FEA3FF
:104E1400E0FF90044A123685900436E0FCA3E0FDDE
:104E2400A3E0FEA3E0FF90044E12368590045EE0FA
:104E3400B40219A3E0B47F14900436E0FCA3E0FDAF
:104E4400A3E0FEA3E0FF90045212368574FFFFFE38
:104E5400FD7C7F900436E0F8A3E0F9A3E0FAA3E038
:104E6400FBD31235C04003024F02900442E0FCA37E
:104E7400E0FDA3E0FEA3E0FF900436E0F8A3A3A3C3
:104E8400E01235C0407890044AE0FCA3E0FDA3E0C2
:104E9400FEA3E0FF90045612368590044EE0FCA376
:104EA400E0FDA3E0FEA3E0FF90045A1236859004CF
:104EB40036E0FCA3E0FDA3E0FEA3E0FF9004421271
:104EC400368590045EE0FEA3E0FFE4FCFD9004461A
:104ED400123685E4FFFEFDFC900446E0F8A3E0F9F9
:104EE400A3E0FAA3E0FBC31235C07012900452E0B1
:104EF400FCA3E0FDA3E0FEA3E0FFA312368590042B
:104F040036E0FCA3E0FDA3E0FEA3E0FFA312368598
:104F140090045FE004F0700690045EE004F0024D3B
:104F240038E4900371F07F107E27FDFC900446E086
:104F3400F8A3E0F9A3E0FAA3E0FBC31235C0605084
:104F4400900456E0F8A3E0F9A3E0FAA3E0FBA3E0A1
:104F5400FCA3E0FDA3E0FEA3E0C39BFFEE9AFEEDFD
:104F640099FDEC98FCE47B01FAF9F8C31235C070A2
:104F740014900442E0FCA3E0FDA3E0FEA3E0FF9054
:104F8400037B02368590037B1236910000000022D9
:0D4F940090037B12369100000000125CA318
:014FA10022ED
:105FC7009004337426F0A3E4F07B0190043004F0CE
:105FD700A37403F0A3747FF07F007E26120026903F
:105FE7000430E0FBA3E0FAA3E0F9EF1233099004D1
:105FF70031E475F0011233A4900434E02401FF90DA
:106007000433E03400FE120026900430E0FBA3E0E6
:10601700FAA3E0F9EF123309900431E475F00112A5
:1060270033A4900434E02402FF900433E03400FEEC
:10603700120026900430E0FBA3E0FAA3E0F9EF1288
:106047003309900431E475F0011233A4900434E06D
:106057002403FF900433E03400FE1200269004303E
:10606700E0FBA3E0FAA3E0F9EF12330990037FE026
:10607700F8A3E0F9A3E0FAA3E0FB90037BE0FCA31D
:10608700E0FDA3E0FEA3E0C39BFFEE9AFEED99FDC2
:10609700EC98FC7B9F7A8679017800C31235C05053
:1060A7001590037BE0FCA3E0FDA3E0FEA3E0FFA3C4
:0660B70012368512626C36
:0160BD0022C0
:10626C0090051C7426F0A3E4F0900526F0A3F090A2
:10627C0005C474AAF07F007E261266DFE49005C484
:10628C00F090037BE0FCA3E0FDA3E0FEA3E0FFA302
:10629C001236859005187401F0A37403F0A3747F73
:1062AC00F09005C474AAF0E490051BF090051CE076
:1062BC00FEA3E0FF900518E0FBA3E0FAA3E0F912BF
:1062CC0032C3FD126636900519E475F0011233A441
:1062DC0090051DE004F0700690051CE004F090059C
:0F62EC001BE004F0E0C3940440C2E49005C4F04A
:0162FB002280
:1059B4004306440105E04306510106474105DC0165
:0859C4004105DD004105DE0094
:1069BE00759850758E40E4F589758BE0758DFED215
:0869CE008ED2ACD2AFD2BC2284
:10000E00438E04759A5075D7E075D6FE438E104315
:05001E00AF01D2AF228A
:0300230002672E43
:10672E00C0E0C083C082C0D075D00830982BC2980C
:10673E00900360E0FF04F074E02FF582E43405F579
:10674E0083E599F090035F7401F0900349E0FFA395
:10675E00E090035CCFF0A3EFF0309904C299C20928
:09676E00D0D0D082D083D0E032FB
:030043000269D679
:1069D600C0E0E59A30E003539AFEE59A30E10553AC
:0769E6009AFDC20AD0E03265
:10692A0090035FE0B4012490035CE0FEA3E0FFC3A0
:10693A0090034AE09FFF900349E09EFED3EF940A3A
:0C694A00EE9400400690035F7402F022FF
:096A79002009FDEFD209F5992274
:0864FE00A3F07B017A0379BAD7
:0B650600900433EBF0A3EAF0A3E9F0EF
:10651100E4A3F0FDFC900433E0FBA3E0FAA3E0F96F
:106521009000011232DCFF3395E0FEEF2402FFE41C
:106531003EFEC3ED9FEE6480F8EC64809850188DA8
:10654100828C831232DCFF900436E02FF0126A79DC
:106551000DBD00010C80BE900436E0FF126A7990F7
:0A65610005DCE004F0E0700204F035
:01656B00220D
:10688B00900538EBF0A3EAF0A3E9F0900538E0FBB4
:10689B00A3E0FAA3E0F91232C3FF6020126A8290E0
:1068AB000538E0FBA3E0FAA3E0F9E4123309900505
:0D68BB003975F0011233A4300AD180FB22A0
:096A8200200AFDEFD20AF59B2267
:103CBF00900430E4F0A3F0A3F09005E0E0FF90044F
:103CCF002F7401F0900360E0FE14FD90042FE0FCD0
:103CDF00C3ED6480F8EC648098501BECFD3395E0E5
:103CEF00FC74E02DF58274053CF583E02FFF900402
:103CFF002FE004F080CE74DF2EF582E43405F583D7
:103D0F00E06F600B90034BE4F0A3741E02404690EB
:103D1F0005E0E024F6B40B00400302404D903D3A1D
:103D2F0075F003A4C58325F0C58373023D5B023D87
:103D3F00AD023F8802403502403502403702403520
:103D4F0002403502403502403502403E9004307447
:103D5F0001F0A37403F0A37409F0E490042FF09022
:103D6F00042FE0FFFD3395E0FC74E32DF58274051D
:103D7F003CF583E0FE900430E0FBA3E0FAA3E0F90A
:103D8F00EF3395E08D82F583EE12331B90042FE015
:103D9F0004F0E0B440C99005CC7401024046E490B1
:103DAF00042FF090042FE0FFC364809487505AEFE4
:103DBF003395E0FEEF25E0FFEE33FE74F52FF5822D
:103DCF0074023EF583E0FEA3E0FFD39400EE64801F
:103DDF009480402DEE3395E0FDFCE47B107A27F9BB
:103DEF00F812347F90037BE0F8A3E0F9A3E0FAA385
:103DFF00E0FBD31235C0400990042FE0049003710B
:103E0F00F090042FE004F0809A900301E07002A379
:103E1F00E07004900371F09005E3E0FE9005E2E09E
:103E2F00FDEDFF900352EEF0A3EFF09005E5E0FEFD
:103E3F009005E4E0FDEDFF900350EEF0A3EFF0905E
:103E4F0005E7E0FE9005E6E0FDEDFF90034BEEF099
:103E5F00A3EFF09005E9E0FFE4FCFDFE78081235D2
:103E6F00E4A804A905AA06AB079005E8E0FFEB4F0D
:103E7F00FFEAFEE9FDE8FCC004C005C006C00790DC
:103E8F0005EBE0FFE4FCFDFE78181235E4D003D01B
:103E9F0002D001D000EF4BFFEE4AFEED49FDEC489A
:103EAF00FCC004C005C006C0079005EAE0FFE4FCB3
:103EBF00FDFE78101235E4D003D002D001D000EF10
:103ECF004BFFEE4AFEED49FDEC48FC9004331236F1
:103EDF0085900354E0FCA3E0FDA3E0FEA3E0FF9078
