:03000000025FBBE1
:0C5FBB00787FE4F6D8FD758121026002B9
:060003004452320D0A0018
:105535004105BC0042058900004105BD7F4205BE0D
:1055450000004205B9000042058D00004105C40078
:105555004105C000410588004105C30041058C0097
:1055650041058B00410569004105BB004105C501A9
:105575004105C2004105C10042056A00004E055BB8
:1055850010000378000000000000000000004E0538
:10559500C620000378000000000000000000004E57
:1055A50005AB0010037800000000000000000000BB
:1055B5004E059D002003780000000000000000005B
:1055C500004E058F00400378000000000000000039
:1055D50000004E056C00800378000000000000000C
:1055E5000000004E057A010003780000000000006D
:0455F50000000000B2
:10666900438E80E4F589758A67758CFCD28CD2A932
:03667900D2AF227B
:1065DE00E4F5957596207580FF7590FF75A0FF7593
:0B65EE00B0FF1266691265F902000E92
:106628007E017F107D007B017A0279751234CF904C
:06663800026E7401F02265
:104F2800900558EBF0A3EAF0A3E9F0900558E0FBF0
:104F3800A3E0FAA3E0F9900002123124FFAEF0E5F5
:104F4800F06003025169EF24F6605224F670030200
:104F5800501B24F670030250A5241E6003025169F9
:104F680090000CE4F5F012317B1230F9FF900267E3
:104F7800E055F0FEA3E05F4E6003025169900558CA
:104F8800E0FBA3E0FAA3E0F9900002E475F00A124E
:104F9800317B9000041233EB00000000229005588A
:104FA800E0FBA3E0FAA3E0F91230F9FF900267E012
:104FB80055F0FEA3E05F4E703C900004123340EFC2
:104FC8002401FFE43EFEE43DFDE43CFC90000412B5
:104FD800338A900004123340E47B14FAF9F8C312C0
:104FE80032E94003025169900558E0FBA3E0FAA3B7
:104FF800E0F902515F900558E0FBA3E0FAA3E0F95D
:105008009000041233EB00000000900002E4F5F079
:10501800025166900558E0FBA3E0FAA3E0F990007E
:1050280004123340EF2401FFE43EFEE43DFDE43C7E
:10503800FC90000412338A1230F9FF900267E055A1
:10504800F0FEA3E05F4E601F900558E0FBA3E0FA76
:10505800A3E0F9900002E475F01E12317B9000087D
:105068001233EB00000000900558E0FBA3E0FAA320
:10507800E0F9900004123340E47B907A01F9F8C318
:105088001232E94003025169900558E0FBA3E0FAA7
:10509800A3E0F990000CE475F00102516690055800
:1050A800E0FBA3E0FAA3E0F9900004123340EF24F8
:1050B80001FFE43EFEE43DFDE43CFC9000041233B5
:1050C8008A1230F9FF900267E055F0FEA3E05F4EC8
:1050D8006070900558E0FBA3E0FAA3E0F99000089F
:1050E800123340EF2401FFE43EFEE43DFDE43CFCC6
:1050F80090000812338A900008123340E47B14FAB7
:10510800F9F8C31232E95059900558E0FBA3E0FAC8
:10511800A3E0F990000C123124640145F090000CD2
:10512800700575F0038004E475F00212317B90007D
:10513800041233EB00000000900002740375F0784D
:10514800801C900558E0FBA3E0FAA3E0F990000862
:105158001233EB00000000900002E475F0141231E5
:025168007B22A8
:106503007B017A0579AB124F287B017A05799D12BD
:106513004F287B017A05796C124F287B017A057924
:106523007A124F287B017A05795B124F287B017A17
:066533000579C6024F28A5
:1065B800E49005ADF0A3F090059FF0A3F090056E70
:1065C800F0A3F090057CF0A3F090055DF0A3F090A7
:0665D80005C8F0A3F0224B
:104CCB00900567E0FEA3E0FF4E605A90038974EFF6
:104CDB00F0A374FFF0EF64014E701C90026B04F0B4
:104CEB0090056AE07002A3E0703B90056AF0A304A4
:104CFB00F09005C2F0802E900567E07004A3E0648D
:104D0B000290026B7004740280027403F0E490054D
:104D1B0067F0A3F090055DF0A3F090056AF0A3F0A7
:104D2B009005C204F09005D2E0FEA3E0FF4E605A5E
:104D3B0090038974DFF0A374FFF0EF64014E701CD5
:104D4B0090026B04F090056AE07002A3E0703B9058
:104D5B00056AF0A304F09005C2F0802E9005D2E016
:104D6B007004A3E0640290026B70047402800274FE
:104D7B0003F0E49005D2F0A3F09005C8F0A3F090F7
:104D8B00056AF0A3F09005C204F09005B7E0FEA30E
:104D9B00E0FF4E605A90038974FFF0A374EFF0EFBD
:104DAB0064014E701C90026B04F090056AE0700277
:104DBB00A3E0703B90056AF0A304F09005C2F0806D
:104DCB002E9005B7E07004A3E0640290026B7004B0
:104DDB00740280027403F0E49005B7F0A3F0900521
:104DEB00ADF0A3F090056AF0A3F09005C204F0902B
:104DFB0005A9E0FEA3E0FF4E605A90038974FFF013
:104E0B00A374DFF0EF64014E701C90026B04F09002
:104E1B00056AE07002A3E0703B90056AF0A304F012
:104E2B009005C2F0802E9005A9E07004A3E0640207
:104E3B0090026B7004740280027403F0E49005A975
:104E4B00F0A3F090059FF0A3F090056AF0A3F0900B
:104E5B0005C204F0900578E0FEA3E0FF4E605A9087
:104E6B00038974FFF0A3747FF0EF64014E701C9004
:104E7B00026B04F090056AE07002A3E0703B9005B2
:104E8B006AF0A304F09005C2F0802E900578E070D4
:104E9B0004A3E0640290026B70047402800274033A
:104EAB00F0E4900578F0A3F090056EF0A3F0900578
:104EBB006AF0A3F09005C204F0900586E0FEA3E033
:104ECB00FF4E605890038974FEF0A304F0EF640169
:104EDB004E701B90026B04F090056AE07002A3E029
:104EEB00703A90056AF0A304F09005C2F022900589
:104EFB0086E07004A3E0640290026B70047402807D
:104F0B00027403F0E4900586F0A3F090057CF0A307
:0D4F1B00F090056AF0A3F09005C204F022AA
:03000B0002653952
:10653900C0E0C0F0C083C082C0D075D00890034AC3
:10654900E004F07006900349E004F01265651265F5
:0C65590003D0D0D082D083D0F0D0E0324C
:105F2E00E49005BCF01265DE12662812516A9003E9
:105F3E0049E0FFA3E09005BECFF0A3EFF07BFF7A20
:105F4E000079031264C69005C1E0703C9005BEE076
:105F5E00FEA3E0FFC390034AE09FFF900349E09E3B
:105F6E00FED3EF94F4EE9401401EE0FEA3E0FF900A
:105F7E0005BEEEF0A3EFF09005B9EEF0A3EFF01230
:105F8E0065B89005C17401F09005C1E0B401B71277
:105F9E00004690035FE0B4020C1239E890035F7480
:0D5FAE0003F0E4A3F01235C0124CCB809933
:0D55F9004A064C00FF00FF00FF00FF00FF0E
:0C61A700C290C2907F007E007D007C0052
:0661B3009005301233AE2E
:1061B9009005341233BA00000000900530E0FCA3CA
:1061C900E0FDA3E0FEA3E0FFA3E0F8A3E0F9A3E06C
:1061D900FAA3E0FBC31232D3502800900534E0FC47
:1061E900A3E0FDA3E0FEA3E0FFE4FAF9F8EF240140
:1061F900FFEA3EFEE93DFDE83CFC9005341233AE72
:0262090080B85B
:01620B002270
:10667C00D290D290D291D2911261ABC291C291229E
:10663E001261A7C291C2911261ABD290D290126137
:06664E00ABD291D29122B3
:0F668C001261A7D290D2901261ABC290C290223D
:0863FA00900656EEF0A3EFF04F
:10640200E4A3F01261AB1261A7900657E030E006F8
:10641200D291D2918004C291C2911261AB90065680
:10642200E0C313F0A3E013F0D290D2901261AB90CC
:0B6432000658E004F0E0C3940840C8E6
:01643D00223C
:106047001266CB12667C7F407E001263FA1266C628
:1060570012668C1266CB12663E12667C7FC07E008B
:106067001263FA1266C612668C1266CBE490065C5F
:10607700F090065CE0FFC394055025EF25E0244C23
:10608700F582E43406F583E0FEA3E0FF1263FA121B
:1060970066C612668C1266CB90065CE004F080D16F
:1060A70012663E12667C7F8C7E001263FA1266C609
:0960B70012668C1266CB02663EF3
:0566C600C294D29522F0
:0566CB00D294D29522DB
:1027DA00303030303000313031303100313031304A
:1027EA003200313031303300313031303400323060
:1027FA003130310000312D00322D00332D00342DBF
:10280A0000352D00362D00372D00382D00392D00CA
:10281A00313000313100313200313300313400318E
:10282A003500313600313700313800313900323065
:10283A000032310032320032330032340032350095
:10284A003236003237003238003239003330002055
:10285A002020413100202020413200202020413315
:10286A000020202041340020202041350020202053
:10287A004136002020204137002020204138002006
:10288A00202041390020204131300036303430399F
:10289A000020462D2D300020462D2D310020462DBA
:1028AA002D320020462D2D330020462D2D340020B8
:1028BA00462D2D3500BDF8D6BD00CDCBD6BD00CFF7
:1028CA00C2C1CF00B4EACCF500CDA3D6BD00C6F490
:1028DA00B6AF00CDA3D6B900B7A2D6BD00CAD5D629
:1028EA00BD00B4F2BDBA00502D2D00452D2D00516A
:1028FA00322D2D2D00502D2D203100502D2D20321E
:10290A0000502D2D203000202020313100202020A1
:10291A0031320020202031330020202031340020A1
:10292A002020313500202020313600202020313768
:10293A00002020203138002020203139002020209A
:10294A003230002020203231002020203232002074
:10295A002045727200D6BDB3A400C0A6CAFD00D736
:10296A00DCCAFD005738444628352C332C27313130
:10297A003136363232323636333333333327293B24
:10298A000D0A0057384D5528302C302C38302C3849
:10299A00302C312C32293B0D0A0057385545283145
:1029AA00293B0D0A004453363428312C322C272572
:1029BA0073272C3135293B0D0A0053585928302CDE
:1029CA0030290D0A00573855452833293B0D0A008E
:1029DA00573855452834293B0D0A004453363428C4
:1029EA00312C312C272573272C3135293B0D0A0030
:1029FA004453343828312C38362C27C7EBCAE4C85C
:102A0A00EBC3DCC2EB3A272C3135293B0D0A0044D3
:102A1A0053363428312C3130302C272573272C316A
:102A2A0035293B0D0A00434C532830293B0D0A0037
:102A3A00256400445334382833302C3139302C275C
:102A4A002573272C31293B0D0A004453363428328A
:102A5A0030302C3130302C272573272C3135293B47
:102A6A000D0A00B4FAC2EBCAE4C8EBBBADC3E60078
:102A7A00B4EDCEF3CCE1CABE00D6B1BDD3B5F7B240
:102A8A00CECAFD00B5C8B4FDB7B5D0A3BDE1B9FB48
:102A9A0000D1D3CAB1CFD4CABED0DEB8C4B3F6B45B
:102AAA00ED00B2E2CAD4B2CECAFDC9E8D6C300D19B
:102ABA00A7CFB0C4A3CABD0050494328302C302C3C
:102ACA003138293B0D0A004453343828352C313328
:102ADA00302C2730782558272C3135293B0D0A0010
:102AEA004453323428332C32302C272573272C3187
:102AFA0035293B0D0A00D6F7BFD8B0E5B4EDCEF3C1
:102B0A00A3BA00B2D9D7F7B0E5B4EDCEF3A3BA00B1
:102B1A004453343828352C38302C27452D2D25643C
:102B2A00272C31293B0D0A004453343828352C38D8
:102B3A00302C27452D2D2564272C3135293B0D0AAC
:102B4A000044533634283133302C322C272573274E
:102B5A002C3135293B0D0A004453363428313330A1
:102B6A002C312C272573272C3135293B0D0A00449B
:102B7A00533634283133302C312C272564272C3115
:102B8A0035293B0D0A00573855452832293B0D0A8D
:102B9A0000445334382832302C36302C27257327FA
:102BAA002C3135293B0D0A00445334382832302C55
:102BBA0036302C272573272C31293B0D0A00535810
:102BCA00592830293B0D0A00535047283537293BED
:102BDA000D0A0025730031362D352D313200535040
:102BEA0047283630293B0D0A0053504728363229E8
:102BFA003B0D0A00535047283633293B0D0A00443F
:102C0A005334382833302C3139302C27257320207F
:102C1A00272C31293B0D0A00535047283331293BD1
:102C2A000D0A00535047283332293B0D0A005350EE
:102C3A0047283333293B0D0A005350472833342998
:102C4A003B0D0A00535047283335293B0D0A0053E0
:102C5A005047283336293B0D0A005350472833374B
:102C6A00293B0D0A00535047283338293B0D0A00E7
:102C7A00535047283339293B0D0A0053504728340B
:102C8A0030293B0D0A00535047283431293B0D0A9D
:102C9A0000535047283432293B0D0A005350472825
:102CAA003433293B0D0A00535047283434293B0D4D
:102CBA000A00535047283435293B0D0A0053504720
:102CCA00283436293B0D0A00535047283437293B0C
:102CDA000D0A00535047283438293B0D0A00535037
:102CEA0047283439293B0D0A0053504728353029E3
:102CFA003B0D0A00434C53282564293B0D0A00006A
:102D0A00010047FF27DA10000200000103B30101A6
:102D1A000057FF27E012001E00000103B50201015F
:102D2A004FFF27E614000E00000103B6030101BF9E
:102D3A00FF27EC16000E00000103B70401022FFF63
:102D4A0027F21C000700000103B805010147FF270D
:102D5A00F81A000100000103B90000000000000099
:102D6A000000000000000000FF27FE4000000001F4
:102D7A0003580405000001869F00000000000000BF
:102D8A000000000000000000000000000000000039
:102D9A000000000000000000000000000000000029
:102DAA000000000000000000000000000000000019
:102DBA00000000FEB0EDF9B3DBDFF0FFFB000040DE
:102DCA0080003F065B4F666D7D077F6F771F4E3D24
:102DDA004F47FB771F4E3D7971FB37060E07386A5E
:102DEA00761D7367055B313E1C5C313BED000000CC
:102DFA00620800771F4E3D4F47FB370638070E6AB9
:102E0A00151D6773505B783E1C5C313BED0000007A
:102E1A0000000000000000000000000000000000A8
:102E2A000000000000000000000000000000000098
:102E3A000000000000000000000000000000000088
:102E4A000000000000000000000000000000000078
:102E5A000000000000000000000000000000000068
:102E6A000000000000000000000000000000000058
:102E7A000000000000000000000000000000000048
:102E8A000000000000000000000000000000000038
:102E9A000000000000000000000000000000000028
:102EAA000000000000000000000000000000000018
:102EBA000000000000000000000000000000000008
:102ECA0000000000000000000000000000000000F8
:102EDA0000000000000000000000000000000000E8
:0C2EEA00000000000000000000000000DC
:105606004102740042026C00004103B9004103925A
:10561600004603B3021E0E0701004803930402FF6F
:105626002D72FF2D09420389000041026B004102E1
:105636006E014100430042039C00004203A50000A6
:105646004302710000004203B100004203900000D3
:1056560041000A0041000B00420010000042001603
:105666000000420018000042001A000041001C0021
:1056760042001D000042001F0000420021000042BF
:1056860000230000420025000042002700004200DF
:1056960029000042002B000042002D00004200318C
:1056A600000042003300014100370042003800008C
:1056B60041003A0042003B000042003D000042002B
:1056C6000000004200020000420004000042000602
:0756D6000000420008000083
:0460C0007BFFE4FD81
:1060C40090051AEBF0A3EAF0A3E9F0A3EDF0900534
:1060D4001AE0FBA3E475F0011230E3A9F0FA122FE1
:1060E400ECFF3395E0FE749C2FF582742D3EF5830E
:1060F400E493FD3395E0FC90051DE0FF04F0EF33DD
:1061040095E0FEEF25E0FFEE33FE744C2FF582742C
:10611400063EF583ECF0A3EDF090051DE0C364802A
:106124009486501090051AE0FBA3E0FAA3E0F9125C
:056134002FEC709A221F
:103D7700E490051DF0EF12347C3DFC003E0D013E42
:103D87001E023E2F033E40043E51053E62063E732F
:103D9700073E84083E95093EA60A3EB70B3EC80C6F
:103DA7003ED90D3EEA0E3EFB0F3F0C103F1D113F63
:103DB7002E123F3F133F50143F61153F72163F834A
:103DC700173F94183FA5193FB61A3FC71B3FD81C8A
:103DD7003FE91D3FFA50400B51401B52402B5340C7
:103DE7003B54404B55405B56406B57407B58408B8C
:103DF700590000409990051A74FFF0A37427F0A3A7
:103E070074FFF002409990051A74FFF0A37428F02C
:103E1700A37402F002409990051A74FFF0A3742866
:103E2700F0A37405F002409990051A74FFF0A3748B
:103E370028F0A37408F002409990051A74FFF0A3C4
:103E47007428F0A3740BF002409990051A74FFF0E0
:103E5700A37428F0A3740EF002409990051A74FF1A
:103E6700F0A37428F0A37411F002409990051A7416
:103E7700FFF0A37428F0A37414F002409990051A78
:103E870074FFF0A37428F0A37417F002409990050B
:103E97001A74FFF0A37428F0A3741AF002409990E3
:103EA700051A74FFF0A37428F0A3741DF00240995B
:103EB70090051A74FFF0A37428F0A37420F0024051
:103EC7009990051A74FFF0A37428F0A37423F002E5
:103ED700409990051A74FFF0A37428F0A37426F094
:103EE70002409990051A74FFF0A37428F0A374296F
:103EF700F002409990051A74FFF0A37428F0A37498
:103F07002CF002409990051A74FFF0A37428F0A3CF
:103F1700742FF002409990051A74FFF0A37428F0EB
:103F2700A37432F002409990051A74FFF0A3742825
:103F3700F0A37435F002409990051A74FFF0A3744A
:103F470028F0A37438F002409990051A74FFF0A383
:103F57007428F0A3743BF002409990051A74FFF09F
:103F6700A37428F0A3743EF002409990051A74FFD9
:103F7700F0A37428F0A37441F002409990051A74D5
:103F8700FFF0A37428F0A37444F002409990051A37
:103F970074FFF0A37428F0A37447F00240999005CA
:103FA7001A74FFF0A37428F0A3744AF002409990A2
:103FB700051A74FFF0A37428F0A3744DF00240991A
:103FC70090051A74FFF0A37428F0A37450F0024010
:103FD7009990051A74FFF0A37428F0A37453F002A4
:103FE700409990051A74FFF0A37428F0A37456F053
:103FF70002409990051A74FFF0A37428F0A374592E
:10400700F002409990051A74FFF0A37428F0A37486
:104017005FF0807E90051A74FFF0A37428F0A374F4
:1040270065F0806E90051A74FFF0A37428F0A374EE
:104037006BF0805E90051A74FFF0A37428F0A374E8
:1040470071F0804E90051A74FFF0A37428F0A374E2
:1040570077F0803E90051A74FFF0A37428F0A374DC
:104067007DF0802E90051A74FFF0A37428F0A374D6
:1040770083F0801E90051A74FFF0A37428F0A374D0
:1040870089F0800E90051A74FFF0A37428F0A374CA
:104097008FF090051AE0FBA3E475F0011230E3A955
:1040A700F0FA122FECFF3395E0FE749C2FF5827423
:1040B7002D3EF583E493FD3395E0FC90051DE0FF6D
:1040C70004F0EF3395E0FEEF25E0FFEE33FE744C8E
:1040D7002FF58274063EF583ECF0A3EDF090051DF5
:1040E700E0C364809486501090051AE0FBA3E0FAC1
:0840F700A3E0F9122FEC709A0E
:0140FF00229E
:04643E00AC07A905F9
:10644200AD04E9FF3395E0FEECFB3395E0FAEB2F68
:10645200FFEA3EFEEDFB3395E0FAC3EB9FEE64806C
:10646200F8EA6480985018EB25E0FFEA33FE744C9A
:0F6472002FF58274063EF583E4F0A3F00D80C38E
:0164810022F8
:0D5CF000900431EFF07B017A0379A7E4FD09
:0E5CFD0090051AEBF0A3EAF0A3E9F0A3EDF096
:105D0B00E4A3F090051AE0FBA3E0FAA3E0F99000FE
:105D1B0001123005B42E0790051EE0B4014D90051D
:105D2B001AE0FBA3E475F0011230E3A9F0FA122F8D
:105D3B00ECFF3395E0FE749C2FF582742D3EF583BA
:105D4B00E493FD3395E0FC90051DE0FF04F0EF3389
:105D5B0095E0FEEF25E0FFEE33FE744C2FF58274D9
:105D6B00063EF583ECF0A3EDF0805D90051AE0FBA9
:105D7B00A3E475F0011230E3A9F0FA122FECFF3314
:105D8B0095E0FE749C2FF582742D3EF583E49344CD
:105D9B0080FD3395E0FC90051DE0FF04F0EF33959B
:105DAB00E0FEEF25E0FFEE33FE744C2FF582740618
:105DBB003EF583ECF0A3EDF090051E7401F0900519
:105DCB001BE475F0011230CD90051DE0C364809487
:065DDB00865003025D0E7C
:015DE100229F
:1056F600E4FDEDFF3395E0FEEF25E0FFEE33FE74AB
:10570600752FF974023EFA7B01EDFF3395E0FEEF4B
:105716007803C333CE33CED8F92447F58274003EDE
:10572600F583EBF0A3EAF0A3E9F00DEDB402C3E4D0
:10573600FDEDFF3395E0FEEF25E0FFEE33FE747BD3
:105746002FF974023EFA7B01EDFF3395E0FEEF7808
:1057560003C333CE33CED8F92457F58274003EF511
:1057660083EBF0A3EAF0A3E9F00DEDB41EC3E4FD6C
:10577600EDFF3395E0FEEF25E0FFEE33FE74B92F23
:10578600F974023EFA7B01EDFF3395E0FEEF7803F4
:10579600C333CE33CED8F9244FF58274013EF58358
:1057A600EBF0A3EAF0A3E9F00DEDB40EC3E4FDEDD2
:1057B600FF3395E0FEEF25E0FFEE33FE74D72FF9B9
:1057C60074023EFA7B01EDFF3395E0FEEF7803C3EA
:1057D60033CE33CED8F924BFF58274013EF583EB80
:1057E600F0A3EAF0A3E9F00DEDB40EC3E4FDEDFF7E
:1057F6003395E0FEEF25E0FFEE33FE74F52FF974E6
:10580600023EFA7B01EDFF3395E0FEEF7803C333EA
:10581600CE33CED8F9242FF58274023EF583EBF011
:10582600A3EAF0A3E9F00DEDB407C3E4FDEDFF3301
:1058360095E0FEEF25E0FFEE33FE74052FF97403C5
:105846003EFA7B01EDFF3395E0FEEF7803C333CEDE
:1058560033CED8F92447F58274013EF583EBF0A3E5
:0A586600EAF0A3E9F00DEDB401C370
:015870002215
:05446500900430EFF0AF
:10446A003395E0FE902D1375F00FEF123420EE75A0
:10447A00F00FA42583F583E493FF74019390043528
:10448A00CFF0A3EFF0900435E475F0011230E3AFFA
:10449A00F0FE120026900434EFF0E4900437F0A303
:1044AA00F0900430E0FFFD3395E0FC902D1275F09A
:1044BA000FED123420EC75F00FA42583F583E493F5
:1044CA00FB3395E0FA900437E0FCA3E0FDC39BEAD6
:1044DA006480F8EC648098400302460BEFB4044908
:1044EA003395E0FE902D0A75F00FEF123420EE7529
:1044FA00F00FA42583F583E493FB740193FA740205
:10450A0093F9C003C002C001EDAE047803C333CEF1
:10451A0033CED8F9D001D002D00329F9EA3EFA9075
:10452A000003740175F0C2804C900430E0FF3395AB
:10453A00E0FE902D0A75F00FEF123420EE75F00FA1
:10454A00A42583F583E493FB740193FA740293F927
:10455A00C003C002C001EDAE047803C333CE33CE2C
:10456A00D8F9D001D002D00329F9EA3EFA90000323
:10457A00740375F0E712317B900430E0FF3395E065
:10458A00FE902D0A75F00FEF123420EE75F00FA48D
:10459A002583F583E493FB740193FA740293F990EB
:1045AA000437E0FEA3E07803C333CE33CED8F9FF55
:1045BA0029F9EA3EFA900005E4F5F012317B9004FD
:1045CA0030E0FD3395E0FC902D0A75F00FED1234C2
:1045DA0020EC75F00FA42583F583E493FB74019313
:1045EA00FA7402932FF9EA3EFA900007E412304473
:1045FA00900438E004F07006900437E004F00244B6
:10460A00AB902D46E493FB740193FA740293F990EC
:10461A000033740175F0F412317B900430E01460B9
:10462A002014602D14603A146047146054240570F5
:10463A005E9004317401F0A37402F0A37475F080E3
:10464A004E9004317401F0A37402F0A3747BF080DD
:10465A003E9004317401F0A37402F0A374B9F0809F
:10466A002E9004317401F0A37402F0A374D7F08081
:10467A001E9004317401F0A37402F0A374F5F08063
:10468A000E9004317401F0A37403F0A37405F09042
:10469A000430E0FF3395E0FE902D1075F00FEF1215
:1046AA003420EE75F00FA42583F583E493FF74019B
:1046BA0093900435CFF0A3EFF0E4A3F0A3F09004B5
:1046CA0030E0FF3395E0FE902D1275F00FEF1234B3
:1046DA0020EE75F00FA42583F583E493FF3395E06C
:1046EA00FEEF2401FFE43EFEC3900438E09FEE642F
:1046FA0080F8900437E06480985063900435E4753C
:10470A00F0011230E3AFF0FE120026900431E0FB14
:10471A00A3E0FAA3E0F9EF123032900432E475F024
:10472A00011230CD900435E475F0011230E3AFF098
:10473A00FE120026900431E0FBA3E0FAA3E0F9EFB1
:10474A00123032900432E475F0011230CD90043800
:0E475A00E004F07006900437E004F00246C858
:01476800222E
:10620C00E4FDEDFF3395E0FEEF25E0FFEE33FE7489
:10621C00752FF58274023EF583E0FAA3E0FB740956
:10622C002FF58274033EF583EAF0A3EBF00DEDB489
:10623C0002D0E4FDEDFF3395E0FEEF25E0FFEE33F9
:10624C00FE747B2FF58274023EF583E0FAA3E0FB2B
:10625C00740D2FF58274033EF583EAF0A3EBF00D79
:04626C00EDB41ED09F
:01627000220B
:105DE200900430747FF0A374F9F0E4FF900430E47F
:105DF20075F0011230E385F082F583E493FEEFFD46
:105E02003395E0FC74322DF58274043CF583EEF098
:105E12000FEFB407D7900437E0FE3395E090037399
:105E2200F0A3CEF0E07F00FE900373F0A3EFF090BA
:105E32000438E0FDEDFF900373EEF0A3EFF07C0772
:105E42007DD0123078A3ECF0A3EDF0E4900430F0B2
:105E5200A3F0900376E025E0FF900375E033FE1295
:105E62000026900432EFF0900376E025E0FF9003E5
:105E720075E033FEEF2401FFE43EFE12002690049B
:105E820033EFF0FB900432E0FDAF05900377E4F0CE
:0B5E9200A3EFF0EBFFA3E4F0A3EFF0A0
:015E9D0022E2
:10516A00C2A57A2879951260C0900395E0F9A3E068
:10517A00FAA3E090042BC9F0A3EAF0A3E9F0E490C3
:10518A00042FF090042BE0FBA3E0FAA3E0F99004CB
:10519A002FE0FFFD3395E08D82F583741512340FED
:1051AA0012344CEA494B600890042FE004F080D393
:1051BA0090041EEFF0900398E0FBA3E0FAA3E0F955
:1051CA00900040EBF0A3EAF0A3E9F090000112345A
:1051DA004C900044EBF0A3EAF0A3E9F0E490042F2A
:1051EA00F0900040E0FBA3E0FAA3E0F990042FE07E
:1051FA00FFFD3395E08D82F583740F12340F123060
:10520A0005B5070B12446590042FE004F080D29094
:10521A00042FE0900269F012620C1256F6E4900331
:10522A009BF090026FF09003A3F0A304F0E49003C4
:10523A008CF090034DF090034BF0A3F090034EF0E6
:10524A009003541233BA00000000E4900371F01284
:10525A005DE2900377E0FFA3E09002EFCFF0A3EFC7
:10526A00F0900379E0FFA3E09002F1CFF0A3EFF012
:10527A00E4900372F090042FF090042FE0FFC364CF
:10528A008094874003025315EF3395E0FEEF7802CE
:10529A00C333CE33CED8F9FF24D7F58274023EF554
:1052AA0083E0FCA3E04C702B74D92FF58274023E84
:1052BA00F583E0FEA3E04E701A900372E0FF9004BB
:1052CA002FE0FE7401A806088002C333D8FC4F9071
:1052DA000372F090042FE0FF3395E0FEEF7802C3EB
:1052EA0033CE33CED8F9FF24B9F58274023EF58362
:1052FA00E4F0A3F074BB2FF58274023EF583E4F068
:10530A00A3F090042FE004F0025283124A3D125B8C
:10531A00F9E47B107A27F9F890037BE0FCA3E0FD1F
:10532A00A3E0FEA3E0FF123233900305EEF0A3EFF1
:10533A00F0E4900349F0A3F0900350F0A3F074FF57
:06534A00900267F0A3F0E1
:01535000223A
:0853510090051AEEF0A3EFF045
:105359009005BC74AAF090051AE0FEA3E0902D1008
:1053690075F00F123420EE75F00FA42583F583E450
:1053790093FE740193FF12631AE49005BCF0900543
:105389001AE0FEA3E0FFEE7072EF14602014602DA6
:1053990014603A1460471460542405705E90051C2B
:1053A9007401F0A37402F0A37475F0804E90051C8B
:1053B9007401F0A37402F0A3747BF0803E90051C85
:1053C9007401F0A37402F0A374B9F0802E90051C47
:1053D9007401F0A37402F0A374D7F0801E90051C29
:1053E9007401F0A37402F0A374F5F0800E90051C0B
:1053F9007401F0A37403F0A37405F090051AE0FE9C
:10540900A3E0902D1075F00F123420EE75F00FA463
:105419002583F583E493FF740193900520CFF0A3CE
:10542900EFF0E490051FF090051AE0FEA3E0902D3F
:105439001275F00F123420EE75F00FA42583F58351
:10544900E493FF3395E0FEEF2401FFE43EFE90056F
:105459001FE0C39FEE6480F8748098400302552BC7
:105469009005BC74AAF0900520E0FEA3E0FF90052A
:105479001CE0FBA3E0FAA3E0F9122FECFD12627124
:10548900900520E0FEA3E0FF120026AE0790051C60
:10549900E0FBA3E0FAA3E0F9122FEC6E600790039A
:1054A9004CE04420F090051DE475F0011230CD90D8
:1054B9000521E004F07006900520E004F090052035
:1054C900E0FEA3E0FF90051CE0FBA3E0FAA3E0F9EE
:1054D900122FECFD126271900520E0FEA3E0FF128D
:1054E9000026AE0790051CE0FBA3E0FAA3E0F91241
:1054F9002FEC6E600790034CE04420F090051DE40A
:1055090075F0011230CD900521E004F07006900588
:1055190020E004F0E49005BCF090051FE004F002DF
:0B552900543012620C9005887401F0F1
:015534002254
:1063B200EF14601814601D14602214602714602CFE
:1063C200240570337BFF7A28799B80267BFF7A280D
:1063D20079A1801E7BFF7A2879A780167BFF7A2815
:1063E20079AD800E7BFF7A2879B380067BFF7A280D
:0863F20079B9E4FD1260C42238
:1000460078357C047D017BFF7A2E791C7E007F64E7
:10005600122FC6E490049AF0A3F0A3F0A3F078A3BD
:100066007C047D017BFF7A2E7980FE7F06122FC6E7
:1000760078A97C047D017BFF7A2E79867E007F0637
:10008600122FC678AF7C047D017BFF7A2E798C7E99
:10009600007F06122FC6A2A4E4335401FF90026724
:1000A600E0FCA3E054FEFDECFEED4FFF900267EE90
:1000B600F0A3EFF0A2A3E433540125E0FFE433FEFE
:1000C600900267E0FCA3E054FDFDEC4EFEED4FFF11
:1000D600900267EEF0A3EFF0A2A2E4FE335401789B
:1000E60002C333CE33CED8F9FF900267E0FCA3E01B
:1000F60054FBFDEC4EFEED4FFF900267EEF0A3EFD2
:10010600F0A2A1E4FE3354017803C333CE33CED834
:10011600F9FF900267E0FCA3E054F7FDEC4EFEED1C
:100126004FFF900267EEF0A3EFF0A2A0E433540174
:10013600C4F8540FC868FFE4C454F048FE90026740
:10014600E0FCA3E054EFFDEC4EFEED4FFF9002679E
:10015600EEF0A3EFF0A2B5E4FE3354017805C33305
:10016600CE33CED8F9FF900267E0FCA3E054DFFD62
:10017600EC4EFEED4FFF900267EEF0A3EFF0A2B358
:10018600E4FE3354017806C333CE33CED8F9FF905C
:100196000267E0FCA3E054BFFDEC4EFEED4FFF907E
:1001A6000267EEF0A3EFF0A2B2E4FE335401780743
:1001B600C333CE33CED8F9FF900267E0FCA3E054F8
:1001C6007FFDEC4EFEED4FFF900267EEF0A3EFF0E1
:1001D600A2A6E4335401FE900267E054FEFCA3E0BD
:1001E600FDEC4EFFED900267CFF0A3EFF0A2A7E47F
:1001F60033540125E0FE900267E054FDFCA3E0FDC8
:10020600EC4EFFED900267CFF0A3EFF0A292E4333D
:10021600540125E025E0FE900267E054FBFCA3E0D4
:10022600FDEC4EFFED900267CFF0A3EFF0A293E452
:1002360033540133333354F8FE900267E054F7FC2D
:10024600A3E0FDEC4EFFED900267CFF0A3EFF0A226
:1002560096E4335401C454F0FE900267E054EFFC78
:10026600A3E0FDEC4EFFED900267CFF0A3EFF0A206
:1002760097E4335401C43354E0FE900267E054DF40
:10028600FCA3E0FDEC4EFFED900267CFF0A3EFF08C
:10029600A2CCE4335401C4333354C0FE900267E069
:1002A60054BFFCA3E0FDEC4EFFED900267CFF0A338
:1002B600EFF0A2CDE4335401C43333335480FE90BF
:1002C6000267E0547FFCA3E0FDEC4EFFED90026771
:1002D600CFF0A3EFF0900267E0FFA3E0900016CF07
:1002E600F0A3EFF090001AE0FEA3E0FF900016E006
:1002F600FCA3E0FD6F7002EC6E6079900349E0FEAE
:10030600A3E0FF900027EEF0A3EFF0900023E0704B
:1003160002A3E0701190002FEEF0A3EFF090000A18
:10032600E04401F0800790000AE054FEF090001FC0
:10033600E0FEA3E0FF900349E0FAA3E0FBC39FFFC2
:10034600EA9EFED3EF9432EE9400402590001AEC1C
:10035600F0A3EDF090001DEAF0A3EBF0E49000218D
:10036600F0A3F0A3F0A3F0900033F0A304F002048E
:100376007B02047490002FE0FEA3E0FF900349E0A7
:10038600FCA3E0FDC39FFFEC9EFED3EF9432EE94F8
:1003960000400790000AE054FEF0900027E0FEA31C
:1003A600E0FFC3ED9FFFEC9EFED3EF9430EE947515
:1003B6004034900349E0FFA3E0900027CFF0A3EF7D
:1003C600F090002DE07002A3E0701B9003A3E07094
:1003D60004A3E06411600F9003A3E4F0A304F0E427
:1003E60090002BF0A3F090001DE0FEA3E0FF900329
:1003F60049E0FCA3E0FDC39FFFEC9EFED3EF9432E1
:10040600EE9400406990001FECF0A3EDF09000160A
:10041600E0FEA3E0F47002EEF4605A900023E07070
:1004260002A3E07050900022E004F07006900021D4
:10043600E004F0D3900022E09464900021E0648010
:1004460094804031900023E4F0A304F0900033E45C
:10045600F0A304F0E4900031F0A3F0900025ECF056
:10046600A3EDF0900021E4F0A3740AF08007E49075
:100476000016F0A3F0900023E07002A3E0605B900A
:100486000025E0FEA3E0FF900349E0FCA3E0FDC3E6
:100496009FFFEC9EFED3EF9464EE9400403C9000E8
:1004A60032E004F07006900031E004F0900031E094
:1004B600FEA3E0FFD39432EE648094804007A3E469
:1004C600F0A3740AF0EF4E6008900025ECF0A3ED5F
:1004D600F0900018E4F0A374FFF0900016E0FEA37D
:1004E600E0FF4E6021A3E0FCA3E0FDEF6D7002EE9D
:1004F6006C600C900016A3A3EEF0A3EFF08007E467
:10050600900016F0A3F0900016E0FEA3E0FFF47052
:1005160003EE64FD6012EFF47003EE64FB6009EF16
:10052600F47003EE64F77042900371E0FF60209070
:100536000016E0B4FB19A3E0B4FF14EF3395E0FE18
:10054600EF2414FFE43E90034BF0A3EFF0801B90E2
:1005560005C27401F0900016E0FFA3E0900389CF76
:10056600F0A3EFF090026B7402F090003DE0FEA362
:10057600E0FFEE7076EF24F6602524F6604D241435
:10058600706920946690003DE4F0A3740AF090032D
:1005960049E0FFA3E090003BCFF0A3EFF0804C20B2
:1005A600944290003BE0FEA3E0FFC390034AE09F25
:1005B600FF900349E09EFED3EF9464EE9400402B37
:1005C60090003DE4F0A37414F0802030941D900553
:1005D600C27401F090038974FFF0A374EEF09002E8
:1005E6006B7402F0E490003DF0A3F090026CE0FE24
:1005F600A3E0FF64084E70030207BB900016E0FC00
:10060600A3E08CF01234A207987FFF078ABFFF078A
:100616007ADFFF076AEFFF075AF7FF074AFBFF0774
:100626003AFDFF0729FEFF0718FF7F06FDFFBF06FD
:10063600ECFFDF07ADFFEE06DBFFEF067EFFF706FA
:100646004DFFFE000007BBEF64024E600C90026C8B
:10065600E07004A3E06403700DE490038EF0A3F051
:1006660090026CF0A3F09003B1E07004A3E0640183
:1006760060030207BB0207A490026CE0FEA3E0FF42
:1006860064024E6012EF64034E701B9003A3E07089
:1006960004A3E06401700FE490026CF0A3F09003F1
:1006A6008EF0A3F0801D90026CE07002A3E0701340
:1006B6009003A3E07004A3E06401700790026CF05D
:1006C600A304F09003B1E07004A3E06401600302A8
:1006D60007BB0207A490027174FFF0A37428F0A36D
:1006E60074BFF00207BB90027174FFF0A37428F088
:1006F600A374C4F00207BB9003B1E07004A3E064E6
:100706000170030207A490026CE4F0A37408F002DF
:1007160007BB90027174FFF0A37428F0A374C9F0AC
:100726000207BB90027174FFF0A37428F0A374CE85
:10073600F00207BB90027174FFF0A37428F0A37453
:10074600D3F0807190027174FFF0A37428F0A37443
:10075600D8F0806190027174FFF0A37428F0A3743E
:10076600DDF0805190027174FFF0A37428F0A37439
:10077600E2F0804190027174FFF0A37428F0A37434
:10078600E7F080319003B1E07004A3E064017025C6
:10079600800C9003B1E07004A3E06401701790032D
:1007A60090F0A304F0800E90027174FFF0A37428F9
:1007B600F0A374ECF09003A3E0FEA3E0FFEE600369
:1007C600021902EF24FE7003020CB6147003021025
:1007D6009D14700302144724FB70030218C624F903
:1007E6007003020F75147003020EBF24106003021B
:1007F6001902900016E0FEA3E08EF01234A20984DE
:100806007FFF090EBFFF0A68FFBF0A00FFF70877E0
:10081600FFFB08DEFFFD0824FFFE00000A82E490CD
:10082600003AF090002BE07002A3E0702990039E3E
:100836007430F0A3F0A3F0A3F0A3F090038B74043C
:10084600F07B017A03799EE4FD1260C49003A3E471
:10085600F0A37402F022900043E0B4010AE4F090A1
:100866000037F09003B9F0E490002BF0A3F0020AF1
:1008760082E490003AF0900023E07002A3E0604525
:1008860090002BE07002A3E0703B90037BE0FCA39A
:10089600E0FDA3E0FEA3E0FFA3E0F8A3E0F9A3E0F8
:1008A600FAA3E0FBC31232E9601B90037BE0FCA3D2
:1008B600E0FDA3E0FEA3E0FFA31233AE9005BB74F8
:1008C60001F0125E9E90026EE064016003020A82ED
:1008D60090058B04F0E48029E490003AF0900349F7
:1008E600E0FFA3E0900029CFF0A3EFF0A3E4F0A38C
:1008F6007405F090026EE06003020A8290058B0494
:10090600F090026EF0020A82E490003AF090002B1A
:10091600E07002A3E06003020A82900040E0FBA3BD
:10092600E0FAA3E0F990000112344C900044EBF099
:10093600A3EAF0A3E9F0E490041FF0A3F0A304F007
:10094600E490026FF090000B04F0E490002DF0A309
:10095600F0FC7D0FFFFE123066900040E0FBA3E046
:10096600FAA3E02FF9EA3EFA900009123005900446
:100976002EF0D36480948050030227D98072E490CD
:10098600003AF090002BE07002A3E06003020A82B6
:10099600900040E0FBA3E0FAA3E0F99000011234D6
:1009A6004C900044EBF0A3EAF0A3E9F0E490041FB6
:1009B600F0A304F0A3F090026FF090000BF0E49027
:1009C600002DF0A3F0FC7D0FFFFE12306690004074
:1009D600E0FBA3E0FAA3E02FF9EA3EFA9000091241
:1009E600300590042EF0D36480948050030227D9FA
:1009F6009003A3E4F0A37403F022900043E0703761
:100A0600900023E07002A3E0601090003AE0C36417
:100A16008094A8500AE004F08005E490003AF09033
:100A26000349E0FFA3E0900029CFF0A3EFF0A3E491
:100A3600F0A37402F080459005C27401F09003891A
:100A460074FFF0A374BFF090026B7402F0E49000A0
:100A56002BF0A3F0900043F0900037F09003B9F02C
:100A6600801A900043E0701490056904F090002B02
:100A7600E4F0A37404F09000437401F090002BE0BE
:100A86007002A3E06003020BF0900394E0FF900075
:100A96000EE4F0A3EFF090026FE0900430F09003C4
:100AA6004BE07002A3E06003020B4690034DE0703A
:100AB6004CA3E0B401109003B97401F0900037E044
:100AC600700B04F0800790000AE054FDF090037F5D
:100AD600E0F8A3E0F9A3E0FAA3E0FB90037BE0FCD7
:100AE600A3E0FDA3E0FEA3E0C39BFFEE9AFEED9913
:100AF600FDEC98FC9003581233AE020B777A2879F6
:100B0600F11260C090034DE0FB547FFF3395E0FE89
:100B1600FDFC9000121233AEEB30E708900037E090
:100B2600700204F0124777900431EFF07B017A03EC
:100B360079AA7D03125CFD9003B97401F0020BBB28
:100B460090034BE0FEA3E0FF640B4E6006EF640CDF
:100B56004E703490034EE0B401109003B97401F066
:100B6600900037E0700B04F0800790000AE054FD17
:100B7600F0900358E0FCA3E0FDA3E0FEA3E0FF1223
:100B86004771125CF0802E7BFF7A2879F5E4FD121E
:100B960060C4900037E0700204F090034B1247697E
:100BA600900431EFF07B017A0379AA7D03125CFD94
:100BB600E49003B9F090038CE07003020C96900366
:100BC60093E0FF90039BE004FEF0D3EF6480F8EE21
:100BD6006480985003020C96E4F090026FE004F0F3
:100BE600E490000EF0A3F0020C9690002BE0700447
:100BF600A3E064027033900352124769125CF090CE
:100C06000029E0FEA3E0FFC390034AE09FFF9003A4
:100C160049E09EFED3EF94D0EE9407407390002BEC
:100C2600E4F0A37403F0020C9690002BE07004A38A
:100C3600E064037005900350803590002BE070044B
:100C4600A3E06404701A7BFF7A2879F9FD1260C468
:100C5600900037E0700204F09003B97401F0803020
:100C660090002BE07004A3E064057024900373E009
:100C7600FEA3E0FFE4FCFD9000121233AE900012DA
:100C8600A3A3E0FEA3E0FFE4FDFC124771125CF0B3
:100C960090003AE06428600302190AF09003A3F07A
:100CA600A37410F090002BE4F0A37404F002102655
:100CB600900016E0FEA3E08EF01234A20D29FFF795
:100CC6000CE3FFFB0CF9FFFD0CD6FFFE00000E9FA8
:100CD600E490026FF09003A3F0A304F02290038B3C
:100CE600E014F0C3648094804003020E9F7404F005
:100CF600020E9F90038BE0FF3395E0FE749E2FF566
:100D06008274033EF583E004F0D3648094B9500303
:100D1600020E9F749E2FF58274033EF5837430F0A5
:100D2600020E9F90042F7401F0900269E0FF900478
:100D36002FE0FEC3EF6480F8EE648098400302273C
:100D4600D9900040E0FBA3E0FAA3E0F9EE75F00FBE
:100D5600A4FFE92FF9E43AFA90000412344C122F5A
:100D6600ECFF90039EE06F6003020E9690042FE066
:100D7600FF3395E0FE7C007D0F123066900040E068
:100D8600FBA3E0FAA3E02FF9EA3EFA90000412343E
:100D96004C900001123005FF90039FE06F60030244
:100DA6000E96900002123005FF9003A0E06F6003DC
:100DB600020E96900003123005FF9003A1E06F60CB
:100DC60003020E96900004123005FF9003A2E06F16
:100DD6006003020E9690042FE0FFB404289002EB05
:100DE600E07002A3E0700A9002EDE07002A3E060FA
:100DF60014900372E020E50D900301E07002A3E079
:100E060060030227D9EF3395E0FE90002DF0A3EFA3
:100E1600F07C007D0F123066900040E0FBA3E0FA04
:100E2600A3E02FF9EA3EFA90000112344C900044F8
:100E3600EBF0A3EAF0A3E9F090002DE0FEA3E0FFBB
:100E460090041FF0E4A3F0A304F0E490026FF01204
:100E56003066900040E0FBA3E0FAA3E02FF9EA3EFB
:100E6600FA90000912300590042EF0D36480948025
:100E760040099003A3E4F0A37403F090042EE0D39A
:100E86006480949440037414F0900499740AF022D8
:100E960090042FE004F0020D2F900010E07002A3E2
:100EA600E0600D900023E07002A3E07003021831A9
:100EB6007B017A03799E0218FB900016E0FEA3E000
:100EC6008EF01234A20ED3FFFE00000F07E490004E
:100ED6002BF0A3F090038B7404F0E490039BF09046
:100EE600041F7478F09004217401F0E490026FF00E
:100EF6009003A3F0A304F0E4900037F09003B9F058
:100F06002290034BE0FEA3E0FF640B4E6006EF6405
:100F16000C4E7044EF640B4E70147BFF7A2879FFF9
:100F2600FD1260C4900037E0702504F08021900324
:100F36004BE07004A3E0640C600302190A7BFF7A9D
:100F4600297905FD1260C4900037E0700204F09024
:100F560003B97401F002190A7BFF7A29790BE4FDC3
:100F66001260C4E4900037F09003B9F002190A90B9
:100F76000016E0FEA3E08EF01234A210947FFF105C
:100F86008BBFFF1043DFFF104CEFFF103AF7FF1047
:100F960031FBFF1079FDFF1070FEFF1067FF7F1019
:100FA60082FFBF1055FFDF105EFFEF1012FFFB0F31
:100FB600EAFFFD0FC1FFFE0000190AE490002BF0C6
:100FC600A3F090038B7404F0E490039BF090041F4D
:100FD6007478F09004217401F0E490026FF09003AD
:100FE600A3021906900392E0C3648094815009E03D
:100FF60004F09005C37401F0900392E0FF1263B20F
:10100600900392E0D36480948002190A900392E0E0
:10101600D3648094804009E014F09005C37401F015
:10102600900392E0FF1263B202190A7BFF7A2979D4
:10103600110218FB7BFF7A2979170218FB7BFF7ACE
:1010460029791D0218FB7BFF7A2979230218FB7B7D
:10105600FF7A2979290218FB7BFF7A29792F021852
:10106600FB7BFF7A2979350218FB7BFF7A29793BCE
:101076000218FB7BFF7A2979410218FB7BFF7A294C
:1010860079470218FB7BFF7A29794D0218FB7BFF13
:101096007A2979530218FB900016E0FEA3E08EF041
:1010A6001234A21157FFF710EAFFFB1120FFFD10C3
:1010B600BDFFFE000011BAE490002BF0A3F09003F0
:1010C6008B7404F0E490039BF090041F7478F09006
:1010D60004217401F0E490026FF09003A3F0A304DE
:1010E600F00211BA90026FE0FF14F0EF700990045D
:1010F6002EE01490026FF090026FE0900420F0F062
:10110600A37401F0900499E0FF14F0EFD3940A4021
:10111600030211BA741DF00211BA90042EE0FF907A
:10112600026FE004FEF0C3EF6480F8EE648098403E
:1011360002E4F090026FE0900420F0A37401F090B6
:101146000499E0FF04F0EFC3941D4068740AF08030
:101156006390041FE0FDB4042790026FE0FF740162
:101166007E00A807088005C333CE33CED8F9FF909A
:101176000372E0FB3395E05EFEEF5B4E6036802E39
:10118600EDB4032A90026FE0A2E713FF74017E001C
:10119600A807088005C333CE33CED8F9FF90037273
:1011A600E0FD3395E05EFEEF5D4E60088000900046
:1011B6000B7405F090041FE0FF700890000BE060D0
:1011C6000204F090000BE064056003021356F090F1
:1011D600026FE0FE900430F090038B7404F09002EE
:1011E600707402F0EFB40331EEA2E713FF74017ED0
:1011F60000A807088005C333CE33CED8F9FF900385
:1012060072E0FD3395E05EFEEF5D4E700C90038557
:101216001233BA000000008020900427E0FBA3E010
:10122600FAA3E0F912342C1230F9FFAEF0EE339542
:10123600E0FDFC9003851233AE9003A3E4F0A374A3
:1012460004F0900430E0FF3395E0FEEF7803C333FB
:10125600CE33CED8F9FF900044E0FBA3E0FAA3E03A
:101266002FF9EA3EFA900427EBF0A3EAF0A3E9F09F
:101276009002707402F012342CC00390051E7403A1
:10128600F0E4A3F0A304F0A37403F0A374A7F0E4BE
:10129600A3F0A37402F0D003FD12479A900431EF35
:1012A600F090038D7403F090039E7430F0A3F074F5
:1012B6000314606D146043146003021347900431F5
:1012C600E0FFFD3395E0FC74A72DF58274033CF531
:1012D60083E0FE9003A0F0BE20037430F0EF339558
:1012E600E0FE74A82FF58274033EF583E0FD9003BB
:1012F600A1F0BD20037430F080389003A07420F074
:10130600900431E0FF3395E0FE74A82FF582740354
:101316003EF583E0FD9003A1F0BD20037430F0801C
:10132600119003A07420F0A3F0900431E0FF3395F0
:10133600E0FE74A92FF58274033EF583E09003A2C4
:10134600F0E4900035F0A3F09003A3F0A37404F04A
:10135600D390000FE0940090000EE09400400FA39D
:10136600E024FFF090000EE034FFF002190A90032B
:1013760094E0FF90000EE4F0A3EFF090026FE0FD22
:10138600FF3395E0FEEF7803C333CE33CED8F9FFB3
:10139600900044E0FBA3E0FAA3E02FF9EA3EFA90BE
:1013A6000427EBF0A3EAF0A3E9F090041FE0B403EE
:1013B60031EDA2E713FF74017E00A807088005C37C
:1013C60033CE33CED8F9FF900372E0FD3395E05E5D
:1013D600FEEF5D4E700C9003851233BA00000000DC
:1013E6008020900427E0FBA3E0FAA3E0F912342C56
:1013F6001230F9FFAEF0EE3395E0FDFC9003851256
:1014060033AE90026FE0FF123D7790051E7403F035
:10141600E4A3F07B01A304F0A37403F0A374A7F084
:10142600E4A3F0A37402F07A0379857D0412479A47
:10143600900431EFF024A7F9E43403FA7B01021893
:10144600BF900016E0FEA3E08EF01234A215D0FF86
:10145600F71473FFFB1523FFFD1467FFFE0000184A
:101466001D90041FE060030218140217E990026F32
:10147600E0FF3395E0FEEF7803C333CE33CED8F9E1
:10148600FF900044E0FBA3E0FAA3E02FF9EA3EFA5E
:1014960090000712300530E00302181D900385E026
:1014A600FCA3E0FDA3E0FEA3E0FFC006C00790009A
:1014B60033E0FEA3E0FBAA06EA3395E0F9F8D0078D
:1014C600D006C3EF9BFFEE9AFEED99FDEC98FC90DB
:1014D60003851233AE900427E0FBA3E0FAA3E0F9FC
:1014E600900005123124FFAEF0EE3395E0FDFC903E
:1014F6000385E0F8A3E0F9A3E0FAA3E0FBC3123208
:10150600D3400302181D900427E0FBA3E0FAA3E0F2
:10151600F9900005123124FFAEF00215C190026F5A
:10152600E0FF3395E0FEEF7803C333CE33CED8F930
:10153600FF900044E0FBA3E0FAA3E02FF9EA3EFAAD
:1015460090000712300530E00302181D900385E075
:10155600F8A3E0F9A3E0FAA3E0FB900033E0FEA3D2
:10156600E0FFEE3395E0FDFCEB2FFFEA3EFEE93DA2
:10157600FDE83CFC9003851233AE900427E0FBA304
:10158600E0FAA3E0F9900003123124FFAEF09004D4
:1015960033EEF0A3EFF0EE3395E0FDFC900385E02B
:1015A600F8A3E0F9A3E0FAA3E0FBD31232D3500389
:1015B60002181D900433E0FEA3E0FFEE3395E0FD34
:1015C600FC9003851233AE02181D900023E07002D2
:1015D600A3E060030217E37B017A03799E90027011
:1015E600E090051EF07D051258719003851233AE0A
:1015F600900427E0FBA3E0FAA3E0F9900003123180
:1016060024FFAEF0EE3395E0FDFC900385E0F8A3F1
:10161600E0F9A3E0FAA3E0FBD31232D340030217AA
:10162600E3900427E0FBA3E0FAA3E0F9900005129B
:101636003124FFAEF0EE3395E0FDFC900385E0F833
:10164600A3E0F9A3E0FAA3E0FBC31232D3500302EE
:1016560017E37E007F02E47066EF1460481460258D
:1016660024FE705B900385E0FCA3E0FDA3E0FEA3EF
:10167600E0FF900427E0FBA3E0FAA3E0F912342C84
:10168600123370803A900385A3A3E0FEA3E0FF9097
:101696000427E0FBA3E0FAA3E0F912342CEE8FF066
:1016A60012315C801A900385A3A3A3E0FF90042760
:1016B600E0FBA3E0FAA3E0F912342CEF12303290EB
:1016C60003A0E0B4300B7420F0A3E0B43003742020
:1016D600F07B017A0379A07D02125CFD90041FE085
:1016E600640260030217D790026FE0A2E713FDFFC2
:1016F6003395E0FEEF7802C333CE33CED8F9FF241C
:10170600B9F58274023EF583E0FAA3E0FB74D72FA5
:10171600F58274023EF583E0FEA3E06B7002EE6A8A
:1017260060030217CCEDFF3395E0FEEF7802C3337A
:10173600CE33CED8F9FF24BBF58274023EF583E0A2
:10174600FAA3E0FB74D92FF58274023EF583E0FE1E
:10175600A3E06B7002EE6A706D900372E0FF740195
:10176600A805088002C333D8FC4F900372F0EDFF42
:101776003395E0FEEF25E0FFEE33FE74F52FF5829C
:1017860074023EF583E4F0A3F0900432F090043244
:10179600E0FFC3ED6480F8EF6480985022EF339544
:1017A600E0FEEF25E0FFEE33FE74F52FF5827402BE
:1017B6003EF583E4F0A3F0900432E004F080CE7F9F
:1017C600047E001253519003A3E4F0A37403F08047
:1017D6000C90041FE0FF3395E0FE12535190041F56
:1017E600E0702B90002BF0A3F090038B7404F0E4D0
:1017F60090039BF090041F7478F09004217401F01C
:10180600E490026FF09003A3F0A304F08009900324
:10181600A3E4F0A37403F0900010E07002A3E0606C
:1018260017900023E07002A3E0700D90038BE0FF99
:101836007D0112643E02190A90026FE0FF123D77A5
:1018460090051E7405F0E4A3F07B01A304F0A374D5
:1018560003F0A374A7F0E4A3F0A37402F07A03796B
:10186600857D0412479A900431EFF03395E0FE74BB
:10187600A72FF58274033EF583E0FF9003A0F0BF27
:1018860020037430F0900431E0FF3395E0FE74A835
:101896002FF58274033EF583E0FD9003A1F0BD2091
:1018A600037430F074A92FF58274033EF583E0903B
:1018B60003A2F07B017A0379A07D02125CFD8044CD
:1018C600900425E0FEA3E0FFC390034AE09FFF904B
:1018D6000349E09EFED3EF94E8EE94034011900492
:1018E60023E0FE3395E09003A3F0A3CEF080157BB2
:1018F600FF7A297959E4FD1260C480089003A3E4B5
:10190600F0A304F09003A3E0FEA3E0FF90038EE0B3
:0B1916006E7003A3E06F7003021DB6AB
:101921009004B574FFF0A37429F0A3745FF0A3745D
:10193100FFF0A37429F0A37464F0A374FFF0A374FF
:1019410029F0A37469F09003B1E07004A3E064018D
:101951007007900390F0A304F09003A3E0FEA3E0CE
:10196100FF90038EEEF0A3EFF0EE6003021DB6EFE1
:1019710012347C1996011ACB021AE2031C3A051C97
:1019810088061CB8071CE8081D18091D47101D769C
:101991001100001DB61262CA7BFF7A29796E1264AA
:1019A100C67F537E007D007C001261B37BFF7A29E4
:1019B100798D1264C67F537E007D007C001261B375
:1019C1007BFF7A2979A41264C67BFF7A2979A41254
:1019D10064C67F537E007D007C001261B3900533A5
:1019E10074FFF0A37429F0A374AFF09004B5E0F98B
:1019F100A3E0FAA3E0900536C9F0A3EAF0A3E9F069
:101A01007B017A0479351241657B017A04793512BB
:101A110064C67F537E007D007C001261B37BFF7A38
:101A21002979C41264C67BFF7A2979CF1264C67FF3
:101A3100537E007D007C001261B390053374FFF08A
:101A4100A37429F0A374AFF09004B8E0F9A3E0FA0D
:101A5100A3E0900536C9F0A3EAF0A3E9F07B017A8F
:101A61000479351241657B017A0479351264C67BAC
:101A7100FF7A2979C41264C67F537E007D007C0001
:101A81001261B37BFF7A2979DA1264C69005337447
:101A9100FFF0A37429F0A374E5F09004BBE0F9A36F
:101AA100E0FAA3E0900536C9F0A3EAF0A3E9F07BE0
:101AB100017A0479351241657B017A047935126422
:101AC100C67BFF7A2979C4021C771262CA7F537ED2
:101AD100007D007C001261B37BFF7A2979FA021C38
:101AE10077E4FFFE1262CD90041FE0704EA3E07018
:101AF1004A90053374FFF0A37429F0A374E5F0A3B1
:101B010074FFF0A37427F0A374FFF07B017A0479CA
:101B1100351241657B017A0479351264C67F537EA3
:101B2100007D007C001261B390053374FFF0A37453
:101B31002AF0A37419F09004B5804990041FE07055
:101B410057A3E06401705190053374FFF0A3742929
:101B5100F0A374E5F0A374FFF0A37428F0A374025A
:101B6100F07B017A0479351241657B017A0479357C
:101B71001264C690053374FFF0A3742AF0A374199C
:101B8100F09004B8E0F9A3E0FAA3E0900536C9F0BB
:101B9100A3EAF0A3E9021DA37BFF7A2A793012643C
:101BA100C6900420E0240AFF125AF2900420E0FFBC
:101BB1003395E0FEEF7803C333CE33CED8F9FF90EF
:101BC1000044E0FBA3E0FAA3E02FF9EA3EFA900417
:101BD100A0EBF0A3EAF0A3E9F012342C1230F9FFE4
:101BE100AEF0EE3395E0FDFC9003851233AE900329
:101BF10085A3A3E0FEA3E0FF90049CEEF0A3EFF029
:101C010090053374FFF0A3742AF0A3743AF0A3EEA5
:101C1100F0A3EFF07B017A0479A3124165900533BB
:101C210074FFF0A3742AF0A3743DF0A37401F0A330
:101C31007404F0A374A3021DA37BFF7A2A793012E6
:101C410064C67F537E007D007C001261B390053332
:101C510074FFF0A3742AF0A37454F0A374FFF0A3EB
:101C6100742AF0A3746DF07B017A04793512416511
:101C71007B017A0479351264C67F537E007D007C36
:101C8100001261B3021DB67BFF7A2A79301264C655
:101C91007F537E007D007C001261B390053374FF99
:101CA100F0A3742AF0A37454F0A374FFF0A3742A70
:101CB100F0A3747A021DA37BFF7A2A79301264C6DD
:101CC1007F537E007D007C001261B390053374FF69
:101CD100F0A3742AF0A37454F0A374FFF0A3742A40
:101CE100F0A37483021DA37BFF7A2A79301264C6A4
:101CF1007F537E007D007C001261B390053374FF39
:101D0100F0A3742AF0A37454F0A374FFF0A3742A0F
:101D1100F0A3748E021DA37BFF7A2A79301264C668
:101D21007F537E007D007C001261B390053374FF08
:101D3100F0A3742AF0A37454F0A374FFF0A3742ADF
:101D4100F0A3749B805C7BFF7A2A79301264C67F92
:101D5100537E007D007C001261B390053374FFF067
:101D6100A3742AF0A37454F0A374FFF0A3742AF0AF
:101D7100A374AC802D7BFF7A2A79301264C67F531D
:101D81007E007D007C001261B390053374FFF0A3E7
:101D9100742AF0A37454F0A374FFF0A3742AF0A37F
:101DA10074B9F07B017A0479351241657B017A04BB
:051DB10079351264C643
:101DB60090034BE07002A3E07003021F269003B16C
:101DC600E07002A3E0600C900390E07004A3E0646E
:101DD6000170259003B1E4F0A304F0E4900390F0C1
:101DE600A3F0FFFE1262CD90034BE0FEA3E0FF7B63
:101DF600FF7A2A79C21264C690039CE0FEA3E0FF34
:101E0600C390034AE09FFF900349E09EFED3EF9400
:091E1600F4EE94015003021F3E9A
:101E1F00900271E0FBA3E0FAA3E0F9EA494B6018E6
:101E2F00E490026CF0A3F090038EF0A3F0F990020F
:101E3F0071C9F0A3F0A3E9F090053374FFF0A37418
:101E4F002AF0A374D1F09003A3E0FFA3E09005362E
:101E5F00CFF0A3EFF07B017A0479351241657B0156
:101E6F007A0479351264C6D390034CE0940F900333
:101E7F004BE0940090053374FF4016F0A3742AF0E2
:101E8F00A374EAF0A374FFF0A3742BF0A374008083
:101E9F0014F0A3742AF0A374EAF0A374FFF0A374F0
:101EAF002BF0A3740DF07B017A0479351241657B19
:101EBF00017A0479351264C6900000E07002A3E045
:101ECF00900533600C74FFF0A3742BF0A3741A8089
:101EDF000A74FFF0A3742BF0A37432F090034BE05D
:101EEF00FFA3E0900536CFF0A3EFF07B017A0479E2
:101EFF00351241657B017A0479351264C690000072
:101F0F00E07002A3E070047F0180027F0090000068
:051F1F00E4F0A3EFF067
:101F240080189003B1E07004A3E06401700C900386
:101F34008EF0A3F09003B1F0A3F09003A3E0FEA30E
:101F4400E0FFEE600302250DEF24FE700302241768
:101F540014700302245014700302247624036003D3
:101F640002250D90026CE0FEA3E0FFEE6003022563
:101F74000DEF1470030221E314700302231614708E
:101F84000302236624FB700302238D2408600302EA
:101F9400250D9003A5E0FEA3E0FFC390034AE09F54
:101FA400FF900349E09EFED3EF94F4EE94015003B6
:101FB40002212E9003B1E07002A3E0600302212EFF
:101FC400900349E0FFA3E09003A5CFF0A3EFF090C6
:101FD4000040E0FBA3E0FAA3E0F990000112344CC6
:101FE4009004A0EBF0A3EAF0A3E9F012342C123031
:101FF400F9FF90049AE5F0F0A3EFF090053374FF35
:10200400F0A3742AF0A3743AF090049AE0FFA3E0DA
:10201400900536CFF0A3EFF07B017A0479A9124141
:1020240065900040E0FBA3E0FAA3E0F99000011200
:10203400344CE92408F9E43AFA9004A0EBF0A3EA5A
:10204400F0A3E9F012342C1230F9FF90049CE5F06F
:10205400F0A3EFF090053374FFF0A3742AF0A37497
:102064003AF090049CE0FFA3E0900536CFF0A3EF94
:10207400F07B017A0479AF1241657BFF7A2979A458
:102084001264C690053374FFF0A3742BF0A3744B51
:10209400F0A37401F0A37404F0A374A9F07B017A93
:1020A4000479351241657B017A0479351264C67B63
:1020B400FF7A2979CF1264C690053374FFF0A374B4
:1020C4002BF0A37462F0A37401F0A37404F0A3745E
:1020D400AFF07B017A0479351241657B017A04798A
:1020E400351264C67BFF7A2979DA1264C690053307
:1020F40074FFF0A3742BF0A37479F0900358E0FC00
:10210400A3E0FDA3E0FEA3E0FF9005361233AE7B0F
:10211400017A0479351241657B017A0479351264B8
:10212400C67BFF7A2979C41264C6900271E0FBA3CE
:10213400E0FAA3E0F9EA494B700302250D90039CF1
:10214400E0FEA3E0FF900349E0FCA3E0FDC39FFF92
:0F215400EC9EFED3EF94F4EE9401500302250DA0
:1021630090039CECF0A3EDF07BFF7A2B7990126443
:10217300C6900002E07002A3E0900533600C74FF88
:10218300F0A3742BF0A3749B800A74FFF0A3742B49
:10219300F0A374B2F0900271E0F9A3E0FAA3E09027
:1021A3000536C9F0A3EAF0A3E9F07B017A04793597
:1021B3001241657B017A0479351264C67BFF7A2B61
:1021C30079C81264C6900002E07002A3E070047F35
:0D21D3000180027F00900002E4F0A3EFF015
:1021E00002250DE4FFFE1262CD7BFF7A2B79D2121D
:1021F00064C67F107E277D007C001261B37BFF7A6E
:102200002979A41264C690053374FFF0A3742BF0EF
:10221000A374DDF0A374FFF0A3742BF0A374E0F0BB
:102220007B017A0479AF12416590053374FFF0A306
:10223000742BF0A3744BF0A37401F0A37404F0A307
:1022400074AFF07B017A0479351241657B017A0421
:1022500079351264C67BFF7A2B79901264C690059B
:102260003374FFF0A3742AF0A3743AF0900352E0A1
:10227000FFA3E0900536CFF0A3EFF07B017A04795D
:10228000AF12416590053374FFF0A3742BF0A37473
:1022900062F0A37401F0A37404F0A374AFF07B01A7
:1022A0007A0479351241657B017A0479351264C666
:1022B0007BFF7A2979CF1264C690053374FFF0A3AF
:1022C000742BF0A37479F0900358E0FCA3E0FDA315
:1022D000E0FEA3E0FF9005361233AE7B017A04796D
:1022E000351241657B017A0479351264C67BFF7A29
:1022F0002979C41264C6900349E0FFA3E09003A5C6
:10230000CFF0A3EFF090026DE004F0705690026CF5
:10231000E004F002250D9003A5E0FEA3E0FFC390CA
:10232000034AE09FFF900349E09EFED3EF94D0EE76
:102330009407500302250DE4FFFE1262CD7BFF7A65
:102340002B79E81264C6900349E0FFA3E09003A54F
:10235000CFF0A3EFF090026DE004F0700690026CF5
:10236000E004F002250D9003A5E0FEA3E0FFC3907A
:10237000034AE09FFF900349E09EFED3EF9488EE6E
:102380009413500302250DE49003A5807C90039CD8
:10239000E0FEA3E0FF900349E0FCA3E0FDC39FFF44
:0C23A000EC9EFED3EF94F4EE9401403F5D
:1023AC0090039CECF0A3EDF0E4FFFE1262CD9000E4
:1023BC0004E07002A3E07BFF60067A2B79F38004C3
:1023CC007A2B79FE1264C6900004E07002A3E070D0
:0F23DC00047F0180027F00900004E4F0A3EFF083
:1023EB00900016E0FEA3E08EF01234A22403FFF758
:1023FB00240EFFFE0000250D900271E4F0A3F0A364
:10240B00F08001E490026CF0A3F08056E49004326B
:10241B00F0900432E0FFC364809485400302250DE5
:10242B00EF3395E0FE749E2FF58274033EF583E047
:10243B00FD74A32FF58274043EF583EDF090043206
:10244B00E004F080CC900016E0FEA3E0FF64FB708C
:10245B0002EEF4600CEF64FD7002EEF460030225F3
:10246B000DE490038EF0A3F002250D90041FE0FF06
:10247B00702CA3E07028900044E0FBA3E0FAA3E0EB
:10248B00F99004A0EBF0A3EAF0A3E9F012342C12BC
:10249B0030F9FD90049AE5F0F0A3EDF08035EF7084
:1024AB0032900420E0B4012B900044E0FBA3E0FA4F
:1024BB00A3E02408F9E43AFA9004A0EBF0A3EAF0C5
:1024CB00A3E9F012342C1230F9FF90049CE5F0F0E4
:1024DB00A3EFF0900385A3A3E0FEA3E0FF90049C81
:1024EB00EEF0A3EFF090053374FFF0A3742AF0A382
:1024FB00743AF0A3EEF0A3EFF07B017A0479A31208
:10250B0041659003A3E0FEA3E0FF64024E6009EF78
:10251B0064044E600302269B9003B1E07004A3E0B9
:07252B006401700302269B0E
:1025320078B57C047D017BFF7A2E79927E007F64E0
:10254200122FC690039CE0FEA3E0FF900349E0FC3B
:10255200A3E0FDC39FFFEC9EFED3EF942CEE94010B
:05256200500302269B5E
:1025670090039CECF0A3EDF0900006E07002A3E06E
:1025770060557B017A0479A3126654D3900009E071
:102587009FEE6480F8900008E064809890053374AB
:10259700FF500AF0A3742AF0A3743D8008F0A374D7
:1025A7002CF0A37409F0A37401F0A37404F0A374CE
:1025B700A3F07B017A0479B51241657B017A04792E
:1025C700B51264C60226839003A3E07004A3E064F7
:1025D70002700590038B8029E4900432F090043256
:1025E700E0FF3395E0FE74A32FF58274043EF58374
:1025F700E06008900432E004F080E2900432E014D6
:10260700F0E0FF3395E0FE74A32FF58274043EF5E6
:1026170083E0900519F074A32FF58274043EF583C7
:10262700745FF090053374FFF0A3742CF0A3740962
:10263700F0A37401F0A37404F0A374A3F07B017AF0
:102647000479B51241657B017A0479B51264C690A5
:1026570003A3E07004A3E064029005197007E0FF8C
:1026670090038B8005E0FF900432E0FD3395E0FC9A
:1026770074A32DF58274043CF583EFF0900006E017
:102687007002A3E070047F0180027F00900006E4DF
:04269700F0A3EFF0CD
:10269B0090001CE0701304F0900349E0FFA3E0905E
:1026AB00000CCFF0A3EFF0803B90000CE0FEA3E01A
:1026BB00FFC390034AE09FFF900349E09EFED3EFD8
:1026CB009464EE9400401D900010E07002A3E07043
:1026DB00047F0180027F00900010E4F0A3EFF0E490
:1026EB0090001CF0900037E024F6603124F6607403
:1026FB0024F670030227A7241D60030227CE900344
:10270B0049E0FFA3E0900038CFF0A3EFF090000A70
:10271B00E04402F0900037740AF00227CE9003B920
:10272B00E070067E017FF480047E007F32900038DB
:10273B00E0FCA3E0FDC390034AE09DFD900349E05C
:10274B009CFCD3ED9FEC9E407AE0FFA3E090003819
:10275B00CFF0A3EFF090000AE054FDF09000377437
:10276B0014F0805F9003B9E07E077FD0900038E0D3
:10277B00FCA3E0FDC390034AE09DFD900349E09C60
:10278B00FCD3ED9FEC9E403BE0FFA3E0900038CFE5
:10279B00F0A3EFF0900037741EF0802790034BE00E
:1027AB007002A3E0701790034DE05480FF3395E067
:1027BB004F700AA3E07006900037F0800690003748
:0E27CB007401F090000AE06003D2A522C2A5BE
:0127D90022DD
:10476900E0FEA3E0FFE4FCFD9000121233AE9005D9
:104779001E7405F0E4A3F07B01A304F0A37403F015
:10478900A374A7F0E4A3F0A37402F07A0079127D70
:01479900041B
:05479A0090051DEDF08B
:10479F006008E0D36480948440037F002290051D5D
:1047AF00E014F0E490052CF09005251233BA0000C8
:1047BF00000090051DE0B4031990052CE06008126D
:1047CF0033201232C580031233209005251233AEE9
:1047DF00804D90051DE0FFB4012990052CE0601479
:1047EF001230F9FDC3E49DFCE495F0900525F0A38C
:1047FF00CCF0802B1230F9FD900525E5F0F0A3EDFC
:10480F00F0801CEF701690052CE06007122FECF46F
:10481F00048003122FEC900525F080037F00229077
:10482F000524E024FE601B14602024FB601424F890
:10483F00601024D0600C243F701690052B7402F08A
:10484F00800E90052B740AF0800690052B7410F0E3
:10485F0090051EE0FFA3E02FFFC374039F9005296F
:10486F00F0A3EFF0C3648094835013E0FFC374038D
:10487F009FFF90051EE02FF090052A7403F090051E
:10488F001EE0FF90052AE0B50706900523E0606360
:10489F0090052BE0FB3395E0FAF9F8900525E0FC45
:1048AF00A3E0FDA3E0FEA3E0FF126482EB2430FF40
:1048BF00900520E0FBA3E0FAA3E0F990052AE0FDC4
:1048CF003395E08D82F583EF123044900525E0FC9F
:1048DF00A3E0FDA3E0FEA3E0FFC00790052BE0FBE4
:1048EF003395E0FAF9F8D007126482900525123358
:1048FF00AE803B90051FE06019A3E0FBA3E0FAA395
:10490F00E0F990052AE0FF3395E08F82F583742E4E
:10491F008019900520E0FBA3E0FAA3E0F990052AA7
:10492F00E0FF3395E08F82F58374201230449005B9
:10493F002AE0FF14F0D3EF64809480400302488D87
:10494F00900523E0602D90052CE06024900529E070
:10495F00FFC3648094835018900520E0FBA3E0FA16
:10496F00A3E0F9EF3395E08F82F583742D12304475
:10497F007F0022E490052AF0900529F0900520E0B1
:10498F00FBA3E0FAA3E0F990052AE0FFFD3395E0E1
:10499F008D82F58312300564307041EF3395E0FE60
:1049AF00EF2401FFE43EFE90051EE0FD3395E0FC91
:1049BF00C3EF9DEC6480F8EE648098501F90052A39
:1049CF00E0FF3395E08F82F5837420123044900519
:1049DF0029E004F090052AE004F080A090052CE077
:1049EF00601E900520E0FBA3E0FAA3E0F9900529F3
:1049FF00E014FFF03395E08F82F583742D1230446D
:104A0F0090051EE0FFA3E02FFF900529E0FEC3EF06
:104A1F009EA3F0C364809483500EE0FFC374039F82
:0D4A2F00FFC3EE9F900529F0900529E0FFE0
:014A3C002257
:0D58710090051AEBF0A3EAF0A3E9F0AB05F7
:10587E0090051EE024FE600F146014240270169032
:10588E0005287402F0800E900528740AF0800690A8
:10589E0005287410F090051F1233BA000000009016
:1058AE0005231233BA00000001900527EBF0900596
:1058BE0027E0D3648094805003025987E014F0905F
:1058CE00051AE0FBA3E0FAA3E0F9900527E0FF3309
:1058DE0095E08F82F583123005FFC3648094B0404B
:1058EE00CDD3EF648094BF50C590051FE0F8A3E0C0
:1058FE00F9A3E0FAA3E0FBC000C001C002C0039010
:10590E00051AE0FBA3E0FAA3E0F9900527E0FF33C8
:10591E0095E08F82F583123005FF3395E0FEEF247C
:10592E00D0FFEE34FFFEE4FCFD900523E0F8A3E08B
:10593E00F9A3E0FAA3E0FB1231A8D003D002D00104
:10594E00D000EB2FFFEA3EFEE93DFDE83CFC900562
:10595E001F1233AE900523E0F8A3E0F9A3E0FAA3FB
:10596E00E0FB900528E0FF3395E0FEFDFC1231A828
:10597E009005231233AE0258BC90051AE0FBA3E04B
:10598E00FAA3E0F9122FEC642D601390000112308F
:10599E0005642D6009900002123005B42D1190059A
:1059AE001FE0FCA3E0FDA3E0FEA3E0FF0232C590E2
:0D59BE00051FE0FCA3E0FDA3E0FEA3E0FF59
:0159CB0022B9
:105AF200EF24F6B414004003025BE5905B0B75F0F3
:105B020003A4C58325F0C58373025B47025B4A0287
:105B12005B53025B5C025B65025B6D025B75025B61
:105B22007D025B85025B8D025B95025B9D025BA53C
:105B3200025BAD025BB5025BBD025BC5025BCD02DF
:105B42005BD5025BDD025BE57BFF7A2C792D025B84
:105B5200EB7BFF7A2C7938025BEB7BFF7A2C794363
:105B6200025BEB7BFF7A2C794E807E7BFF7A2C796D
:105B72005980767BFF7A2C7964806E7BFF7A2C7950
:105B82006F80667BFF7A2C797A805E7BFF7A2C7934
:105B92008580567BFF7A2C7990804E7BFF7A2C7918
:105BA2009B80467BFF7A2C79A6803E7BFF7A2C79FC
:105BB200B180367BFF7A2C79BC802E7BFF7A2C79E0
:105BC200C780267BFF7A2C79D2801E7BFF7A2C79C4
:105BD200DD80167BFF7A2C79E8800E7BFF7A2C79A8
:105BE200F380067BFF7A2C79221264C67F107E270F
:075BF2007D007C000261B39D
:0362CA00E4FFFEF0
:0862CD0090051AEEF0A3EFF0BA
:1062D5007FE87E037D007C001261B390053374FF77
:1062E500F0A3742CF0A374FEF090051AE0FFA3E070
:1062F500900536CFF0A3EFF07B017A05791C1241AA
:10630500657B017A05791C1264C67FE87E037D00F2
:056315007C000261B3F1
:0C66A800900659EBF0A3EAF0A3E9F02201
:0D669B00E4F5C7F5C5F5C675C380F5C4224A
:10002600C2AF75C78375C5018FC4EEF5C375C65AD1
:0C00360075C6A50000AFC212669BD2AFD9
:01004200229B
:106271009005BCE0FB7A0064AA704DC2AFEB64AA42
:10628100700375C783EB64AA4A700375C502EB649A
:10629100AA4A70028FC49005BCE064AA7003EEF5AF
:1062A100C39005BCE0FF7E0064AA70028DC2EF645A
:1062B100AA4E700375C65A9005BCE064AA700375B6
:0962C100C6A50012669BD2AF22B3
:10631A009005BCE0FD7C0064AA7043C2AFED64AA9C
:10632A00700375C783ED64AA4C700375C503ED64E9
:10633A00AA4C70028FC49005BCE064AA7003EEF503
:10634A00C39005BCE0FF7E0064AA700375C65AEFCD
:0F635A0064AA4E700375C6A50012669BD2AF22CF
:1059CC009004647444F0A3E4F0FBFA90037BE0FCD5
:1059DC00A3E0FDA3E0FEA3E024FFFFEE34FFFEED09
:1059EC0034FFFDEC34FFFC9004661233AE90046679
:1059FC00E0FCA3E0FDA3E0FEA3E0FF78071232FA7F
:105A0C007C007D05123078AA04AB05900466A3A334
:105A1C00A3E0547FFFE4FDFCEF701C9005BC74AA5E
:105A2C00F0AF03EF25E0FEE42400FFEE3444FE1259
:105A3C00631AE49005BCF0900466E0FCA3E0FDA3BF
:105A4C00E0FEA3E0FF780212330DA31233AE9004F4
:105A5C006AE0FCA3E0FDA3E0FEA3E0FFE4FB7A0A0E
:105A6C00F9F8123233AC00AD01AE02AF0390046A08
:105A7C001233AE90046AA3A3E0FEA3E0FF9004658A
:105A8C00E02FF0900464E03EF09004607401F0A309
:105A9C007403F0A3747BF09005BC74AAF0E490043A
:105AAC0063F0900464E0FEA3E0FF900460E0FBA3CD
:105ABC00E0FAA3E0F9122FECFD126271900461E49C
:105ACC0075F0011230CD900465E004F0700690047E
:105ADC0064E004F0900463E004F0E0C3940440C27A
:055AEC00E49005BCF090
:015AF1002292
:104A3D009004347444F0A3E4F09004421233BA00AD
:104A4D000000009004461233BA00002710E49004D1
:104A5D005EF0A3F090045EE0FEA3E0FFC39480EE51
:104A6D0094024003024C4EEF7802C333CE33CED8BE
:104A7D00F92400FFEE3444900434F0A3EFF09004D9
:104A8D00307401F0A37404F0A37436F0900434E094
:104A9D00FEA3E0FF120026900430E0FBA3E0FAA392
:104AAD00E0F9EF123032900431E475F0011230CD9F
:104ABD00900435E02401FF900434E03400FE120030
:104ACD0026900430E0FBA3E0FAA3E0F9EF123032B8
:104ADD00900431E475F0011230CD900435E02402DC
:104AED00FF900434E03400FE120026900430E0FB09
:104AFD00A3E0FAA3E0F9EF123032900431E475F03F
:104B0D00011230CD900435E02403FF900434E034DD
:104B1D0000FE120026900430E0FBA3E0FAA3E0F9BA
:104B2D00EF12303290044EE0FCA3E0FDA3E0FEA3B3
:104B3D00E0FF90044A1233AE900436E0FCA3E0FD92
:104B4D00A3E0FEA3E0FF90044E1233AE90045EE0AE
:104B5D00B40219A3E0B47F14900436E0FCA3E0FD89
:104B6D00A3E0FEA3E0FF9004521233AE74FFFFFEEC
:104B7D00FD7C7F900436E0F8A3E0F9A3E0FAA3E012
:104B8D00FBD31232E94003024C2B900442E0FCA30C
:104B9D00E0FDA3E0FEA3E0FF900436E0F8A3A3A39D
:104BAD00E01232E9407890044AE0FCA3E0FDA3E076
:104BBD00FEA3E0FF9004561233AE90044EE0FCA32A
:104BCD00E0FDA3E0FEA3E0FF90045A1233AE900483
:104BDD0036E0FCA3E0FDA3E0FEA3E0FF900442124B
:104BED0033AE90045EE0FEA3E0FFE4FCFD900446CE
:104BFD001233AEE4FFFEFDFC900446E0F8A3E0F9AD
:104C0D00A3E0FAA3E0FBC31232E97012900452E064
:104C1D00FCA3E0FDA3E0FEA3E0FFA31233AE9004DE
:104C2D0036E0FCA3E0FDA3E0FEA3E0FFA31233AE4C
:104C3D0090045FE004F0700690045EE004F0024A18
:104C4D0061E4900371F07F107E27FDFC900446E037
:104C5D00F8A3E0F9A3E0FAA3E0FBC31232E9605038
:104C6D00900456E0F8A3E0F9A3E0FAA3E0FBA3E07B
:104C7D00FCA3E0FDA3E0FEA3E0C39BFFEE9AFEEDD7
:104C8D0099FDEC98FCE47B01FAF9F8C31232E97056
:104C9D0014900442E0FCA3E0FDA3E0FEA3E0FF902E
:104CAD00037B0233AE90037B1233BA000000002267
:0D4CBD0090037B1233BA000000001259CCA6
:014CCA0022C7
:105BF9009004337426F0A3E4F07B0190043004F0A0
:105C0900A37403F0A3747FF07F007E261200269010
:105C19000430E0FBA3E0FAA3E0F9EF12303290047C
:105C290031E475F0011230CD900434E02401FF9085
:105C39000433E03400FE120026900430E0FBA3E0B8
:105C4900FAA3E0F9EF123032900431E475F0011251
:105C590030CD900434E02402FF900433E03400FE98
:105C6900120026900430E0FBA3E0FAA3E0F9EF125A
:105C79003032900431E475F0011230CD900434E0F3
:105C89002403FF900433E03400FE12002690043010
:105C9900E0FBA3E0FAA3E0F9EF12303290037FE0D2
:105CA900F8A3E0F9A3E0FAA3E0FB90037BE0FCA3EF
:105CB900E0FDA3E0FEA3E0C39BFFEE9AFEED99FD94
:105CC900EC98FC7B9F7A8679017800C31232E950FF
:105CD9001590037BE0FCA3E0FDA3E0FEA3E0FFA396
:065CE9001233AE125E9EB4
:015CEF002292
:105E9E0090051E7426F0A3E4F0900528F0A3F09070
:105EAE0005BC74AAF07F007E2612631AE49005BC2E
:105EBE00F090037BE0FCA3E0FDA3E0FEA3E0FFA3D4
:105ECE001233AE90051A7401F0A37403F0A3747F1D
:105EDE00F09005BC74AAF0E490051DF090051EE04C
:105EEE00FEA3E0FF90051AE0FBA3E0FAA3E0F9128F
:105EFE002FECFD12627190051BE475F0011230CD8E
:105F0E0090051FE004F0700690051EE004F0900569
:0F5F1E001DE004F0E0C3940440C2E49005BCF021
:015F2D002251
:1056DD0043063C0105D843064901063F4105D40167
:0856ED004105D5004105D6007E
:1065F900759850758E40E4F589758BE0758DFED2DE
:086609008ED2ACD2AFD2BC224C
:10000E00438E04759A5075D7E075D6FE438E104315
:05001E00AF01D2AF228A
:030023000263690C
:10636900C0E0C083C082C0D075D00830982BC298D5
:10637900900360E0FF04F074D82FF582E43405F54A
:1063890083E599F090035F7401F0900349E0FFA35E
:10639900E090035CCFF0A3EFF0309904C299C209F1
:0963A900D0D0D082D083D0E032C4
:0300430002661141
:10661100C0E0E59A30E003539AFEE59A30E1055374
:076621009AFDC20AD0E0322D
:1065650090035FE0B4012490035CE0FEA3E0FFC369
:1065750090034AE09FFF900349E09EFED3EF940A03
:0C658500EE9400400690035F7402F022C8
:0966B4002009FDEFD209F599223D
:08613900A3F07B017A0379BA9F
:0B614100900433EBF0A3EAF0A3E9F0B8
:10614C00E4A3F0FDFC900433E0FBA3E0FAA3E0F938
:10615C00900001123005FF3395E0FEEF2402FFE4BE
:10616C003EFEC3ED9FEE6480F8EC64809850188D71
:10617C00828C83123005FF900436E02FF01266B447
:10618C000DBD00010C80BE900436E0FF1266B49089
:0A619C0005D4E004F0E0700204F006
:0161A60022D6
:1064C600900530EBF0A3EAF0A3E9F0900530E0FB8D
:1064D600A3E0FAA3E0F9122FECFF60201266BD904C
:1064E6000530E0FBA3E0FAA3E0F9E41230329005B0
:0D64F6003175F0011230CD300AD180FB224B
:0966BD00200AFDEFD20AF59B2230
:1039E800900430E4F0A3F0A3F09005D8E0FF900431
:1039F8002F7401F0900360E0FE14FD90042FE0FCAA
:103A0800C3ED6480F8EC648098501BECFD3395E0BE
:103A1800FC74D82DF58274053CF583E02FFF9004E3
:103A28002FE004F080CE74D72EF582E43405F583B8
:103A3800E06F600B90034BE4F0A3741E023D6F909F
:103A480005D8E024F6B40B004003023D76903A63B3
:103A580075F003A4C58325F0C58373023A84023A3E
:103A6800D6023CB1023D5E023D5E023D60023D5E13
:103A7800023D5E023D5E023D5E023D679004307489
:103A880001F0A37403F0A37409F0E490042FF090FC
:103A9800042FE0FFFD3395E0FC74DB2DF5827405FF
:103AA8003CF583E0FE900430E0FBA3E0FAA3E0F9E4
:103AB800EF3395E08D82F583EE12304490042FE0C9
:103AC80004F0E0B440C99005C47401023D6FE4906D
:103AD800042FF090042FE0FFC364809487505AEFBE
:103AE8003395E0FEEF25E0FFEE33FE74F52FF58207
:103AF80074023EF583E0FEA3E0FFD39400EE6480F9
:103B08009480402DEE3395E0FDFCE47B107A27F994
:103B1800F81231A890037BE0F8A3E0F9A3E0FAA338
:103B2800E0FBD31232E9400990042FE004900371BE
:103B3800F090042FE004F0809A900301E07002A353
:103B4800E07004900371F09005DBE0FE9005DAE088
:103B5800FDEDFF900352EEF0A3EFF09005DDE0FEDF
:103B68009005DCE0FDEDFF900350EEF0A3EFF09040
:103B780005DFE0FE9005DEE0FDEDFF90034BEEF083
:103B8800A3EFF09005E1E0FFE4FCFDFE78081233B6
:103B98000DA804A905AA06AB079005E0E0FFEB4FC6
:103BA800FFEAFEE9FDE8FCC004C005C006C00790B6
:103BB80005E3E0FFE4FCFDFE781812330DD003D0D6
:103BC80002D001D000EF4BFFEE4AFEED49FDEC4874
:103BD800FCC004C005C006C0079005E2E0FFE4FC95
:103BE800FDFE781012330DD003D002D001D000EFC3
:103BF8004BFFEE4AFEED49FDEC48FC9004331233CE
:103C0800AE900354E0FCA3E0FDA3E0FEA3E0FF9028
:103C18000433E0F8A3E0F9A3E0FAA3E0FBC312320F
:103C2800E97003023D70900433E0FCA3E0FDA3E0DB
:103C3800FEA3E0FF9003541233AE90037BE0FCA395
:103C4800E0FDA3E0FEA3E02401FFE43EFEE43DFD29
:103C5800E43CFC90037B1233AE90037FE0F8A3E0D2
:103C6800F9A3E0FAA3E0FB90037BE0FCA3E0FDA34B
:103C7800E0FEA3E0C39BFFEE9AFEED99FDEC98FCF5
:103C88007B9F7A8679017800C31232E95015900338
:103C98007BE0FCA3E0FDA3E0FEA3E0FFA31233AEAC
:103CA800125E9E1259CC023D70E490042FF09005EC
:103CB800D9E01313543FFF90042FE0FEC3EF648054
:103CC800F8EE6480984003023D57E0FD25E025E0CA
:103CD800FC24DAF582E43405F583E0FE74DB2CF588
:103CE80082E43405F583E0FBEBFFC007C006EDFF77
:103CF8003395E0FEEF7803C333CE33CED8F9FF9087
:103D08002D0AE493FB740193FA7402932FF9EA3EA7
:103D1800FA900005D0E0D0F012317B90042FE02516
:103D2800E025E0FD24DCF582E43405F583E0FE744B
:103D3800DD2DF582E43405F583E0FDEDFF90000309
:103D4800EE8FF012317B90042FE004F0023CB69025
:103D580005C07401801180109005C5740180089019
:0E3D6800034BE4F0A37428F09005BD747FF0C7
:013D7600222A
:1035C00090042FE4F0A3F0A3F09005BEE0FEA3E08A
:1035D000FFC390034AE09FFF900349E09EFED3EFB4
:1035E00094E8EE9403401F900588E0700A9005BDB2
:1035F000E0B47F037401F0900349E0FFA3E090057D
:10360000BECFF0A3EFF0900352E07002A3E070038E
:103610000236FC9005C4E060030236FC9005BDE074
:10362000647F60030236FC9002B7E064557004A327
:10363000E064AA70030236EC9002757401F0A37482
:1036400036F0A37401F0A3742CF090027BE4F0A395
:103650007402F0A3E4F0A3740FF0A3E4F0A3740FDA
:10366000F0E4A3F0A3F0A3F0A3F0A304F0A374404C
:10367000F0A3E4F0A37459F0A37401F0A37490F0E4
:10368000A3E4F0A37414F0A3E4F0A37454F0A3E44F
:10369000F0A37402F0A3E4F0A37478F0A3E4F0A321
:1036A000740AF0A3E4F0A304F0A3E4F0A37449F0D7
:1036B000A3E4F0A37450F0A3E4F0A304F0A3E4F0B7
:1036C000A304F0A3E4F0A304F0A3E4F0A304F0A3A4
:1036D000E4F0A304F09002B77455F0A374AAF0E4E8
:1036E000FFFE1253517F017E0012535190058874E2
:1036F00001F09005C4F09005BD747FF09005C4E022
:10370000B401109005C0E0700A9005BDE0B47F03DD
:103710007402F0900588E0600A9005BDE0B47F0374
:103720007403F090058CE0600A9005BDE0B47F035F
:103730007407F0900569E0600A9005BDE0B47F036E
:103740007409F09005C3E0600A9005BDE0B47F0302
:103750007404F090058BE0600A9005BDE0B47F032F
:103760007408F09005BBE0600A9005BDE0B47F03EB
:103770007405F09005C2E0600A9005BDE0B47F03D7
:103780007406F09005BDE0B40A0040030239E790EA
:103790003796F82828730237B40237DC0238020261
:1037A00038290238AB02396B0239990238DD023907
:1037B0000B02393D7E007F647D007B017A0379BA7C
:1037C0001234CFE49003BAF0A304F0E4A3F0A3040E
:1037D000F0FB12613D9005BD7432F0227E007F64E3
:1037E0007D007B017A0379BA1234CF9003BA740159
:1037F000F0A3F0E4A3F074021261399005BD7433B4
:10380000F0227E007F647D007B017A0379BA123456
:10381000CF9003BA7402F0A314F0E4A3F07404127E
