:0300000002692171
:0C692100787FE4F6D8FD758121026968DA
:105E52004105CE0042059B00004105CF7F4205D09F
:105E620000004205CB000042059F00004105D6001C
:105E72004105D20041059A004105D50041059E0029
:105E820041059D0041057B004105CD004105D7013B
:105E92004105D4004105D30042057C00004E056D4A
:105EA20010000378000000000000000000004E0512
:105EB200D820000378000000000000000000004E1F
:105EC20005BD001003780000000000000000000083
:105ED2004E05AF0020037800000000000000000023
:105EE200004E05A100400378000000000000000001
:105EF20000004E057E0080037800000000000000D4
:105F02000000004E058C0100037800000000000034
:045F1200000000008B
:106F9900438E80E4F589758A67758CFCD28CD2A9F9
:036FA900D2AF2242
:106F0E00E4F5957596207580FF7590FF75A0FF7559
:0B6F1E00B0FF126F99126F2902000EE5
:106F58007E017F107D007B017A02797512399A9043
:066F6800026E7401F0222C
:1056680090056AEBF0A3EAF0A3E9F090056AE0FB85
:10567800A3E0FAA3E0F99000021235EFFFAEF0E5DF
:10568800F060030258A9EF24F6605224F670030272
:10569800575B24F670030257E5241E60030258A9DD
:1056A80090000CE4F5F01236461235C4FF900267FC
:1056B800E055F0FEA3E05F4E60030258A990056A2A
:1056C800E0FBA3E0FAA3E0F9900002E475F00A1207
:1056D80036469000041238B6000000002290056A91
:1056E800E0FBA3E0FAA3E0F91235C4FF900267E0FB
:1056F80055F0FEA3E05F4E703C90000412380BEFAB
:105708002401FFE43EFEE43DFDE43CFC900004126D
:10571800385590000412380BE47B14FAF9F8C312D8
:1057280037B440030258A990056AE0FBA3E0FAA346
:10573800E0F902589F90056AE0FBA3E0FAA3E0F9BC
:105748009000041238B600000000900002E4F5F062
:105758000258A690056AE0FBA3E0FAA3E0F99000DE
:105768000412380BEF2401FFE43EFEE43DFDE43C67
:10577800FC9000041238551235C4FF900267E055BA
:10578800F0FEA3E05F4E601F90056AE0FBA3E0FA1D
:10579800A3E0F9900002E475F01E12364690000866
:1057A8001238B60000000090056AE0FBA3E0FAA3F7
:1057B800E0F990000412380BE47B907A01F9F8C301
:1057C8001237B440030258A990056AE0FBA3E0FA37
:1057D800A3E0F990000CE475F0010258A690056A60
:1057E800E0FBA3E0FAA3E0F990000412380BEF24E1
:1057F80001FFE43EFEE43DFDE43CFC900004123869
:10580800551235C4FF900267E055F0FEA3E05F4EE5
:10581800607090056AE0FBA3E0FAA3E0F990000845
:1058280012380BEF2401FFE43EFEE43DFDE43CFCAE
:1058380090000812385590000812380BE47B14FACF
:10584800F9F8C31237B4505990056AE0FBA3E0FA9F
:10585800A3E0F990000C1235EF640145F090000CBC
:10586800700575F0038004E475F002123646900066
:10587800041238B600000000900002740375F07836
:10588800801C90056AE0FBA3E0FAA3E0F990000809
:105898001238B600000000900002E475F0141236C9
:0258A800462296
:10519600A2A4E4335401FF900267E0FCA3E054FEAE
:1051A600FDECFEED4FFF900267EEF0A3EFF0A2A339
:1051B600E433540125E0FFE433FE900267E0FCA3EC
:1051C600E054FDFDEC4EFEED4FFF900267EEF0A3BE
:1051D600EFF0A2A2E4FE3354017802C333CE33CEFD
:1051E600D8F9FF900267E0FCA3E054FBFDEC4EFE0D
:1051F600ED4FFF900267EEF0A3EFF0A2A1E4FE33BD
:1052060054017803C333CE33CED8F9FF900267E05A
:10521600FCA3E054F7FDEC4EFEED4FFF900267EE67
:10522600F0A3EFF0A2A0E4335401C4F8540FC86809
:10523600FFE4C454F048FE900267E0FCA3E054EF9C
:10524600FDEC4EFEED4FFF900267EEF0A3EFF0A2ED
:10525600B5E4FE3354017805C333CE33CED8F9FF17
:10526600900267E0FCA3E054DFFDEC4EFEED4FFF3D
:10527600900267EEF0A3EFF0A2B3E4FE3354017898
:1052860006C333CE33CED8F9FF900267E0FCA3E025
:1052960054BFFDEC4EFEED4FFF900267EEF0A3EF1C
:1052A600F0A2B2E4FE3354017807C333CE33CED82E
:1052B600F9FF900267E0FCA3E0547FFDEC4EFEEDA3
:1052C6004FFF900267EEF0A3EFF0A2A6E43354017D
:1052D600FE900267E054FEFCA3E0FDEC4EFFED906D
:1052E6000267CFF0A3EFF0A2A7E433540125E0FE56
:1052F600900267E054FDFCA3E0FDEC4EFFED90024A
:1053060067CFF0A3EFF0A292E433540125E025E045
:10531600FE900267E054FBFCA3E0FDEC4EFFED902F
:105326000267CFF0A3EFF0A293E433540133333393
:1053360054F8FE900267E054F7FCA3E0FDEC4EFF44
:10534600ED900267CFF0A3EFF0A296E4335401C4C8
:1053560054F0FE900267E054EFFCA3E0FDEC4EFF34
:10536600ED900267CFF0A3EFF0A297E4335401C4A7
:105376003354E0FE900267E054DFFCA3E0FDEC4E00
:10538600FFED900267CFF0A3EFF0A2CCE433540117
:10539600C4333354C0FE900267E054BFFCA3E0FD63
:1053A600EC4EFFED900267CFF0A3EFF0A2CDE43311
:1053B6005401C43333335480FE900267E0547FFCBB
:1053C600A3E0FDEC4EFFED900267CFF0A3EFF07B7C
:1053D600017A0579BD1256687B017A0579AF1256B6
:1053E600687B017A05797E1256687B017A05798C8D
:1053F6001256687B017A05796D1256687B017A052B
:0554060079D802566890
:106EE800E49005BFF0A3F09005B1F0A3F090058001
:106EF800F0A3F090058EF0A3F090056FF0A3F0904A
:066F080005DAF0A3F022FF
:10540B00900579E0FEA3E0FF4E605A90038974EF9C
:10541B00F0A374FFF0EF64014E701C90026B04F06C
:10542B0090057CE07002A3E0703B90057CF0A30438
:10543B00F09005D4F0802E900579E07004A3E06421
:10544B000290026B7004740280027403F0E4900506
:10545B0079F0A3F090056FF0A3F090057CF0A3F02A
:10546B009005D404F09005E4E0FEA3E0FF4E605AF3
:10547B0090038974DFF0A374FFF0EF64014E701C8E
:10548B0090026B04F090057CE07002A3E0703B90FF
:10549B00057CF0A304F09005D4F0802E9005E4E099
:1054AB007004A3E0640290026B70047402800274B7
:1054BB0003F0E49005E4F0A3F09005DAF0A3F0908C
:1054CB00057CF0A3F09005D404F09005C9E0FEA391
:1054DB00E0FF4E605A90038974FFF0A374EFF0EF76
:1054EB0064014E701C90026B04F090057CE070021E
:1054FB00A3E0703B90057CF0A304F09005D4F08002
:10550B002E9005C9E07004A3E0640290026B700456
:10551B00740280027403F0E49005C9F0A3F09005C7
:10552B00BFF0A3F090057CF0A3F09005D404F090AD
:10553B0005BBE0FEA3E0FF4E605A90038974FFF0B9
:10554B00A374DFF0EF64014E701C90026B04F090BB
:10555B00057CE07002A3E0703B90057CF0A304F0A7
:10556B009005D4F0802E9005BBE07004A3E064029C
:10557B0090026B7004740280027403F0E49005BB1C
:10558B00F0A3F09005B1F0A3F090057CF0A3F090A0
:10559B0005D404F090058AE0FEA3E0FF4E605A901C
:1055AB00038974FFF0A3747FF0EF64014E701C90BD
:1055BB00026B04F090057CE07002A3E0703B900559
:1055CB007CF0A304F09005D4F0802E90058AE07057
:1055DB0004A3E0640290026B7004740280027403F3
:1055EB00F0E490058AF0A3F0900580F0A3F090050D
:1055FB007CF0A3F09005D404F0900598E0FEA3E0B6
:10560B00FF4E605890038974FEF0A304F0EF640121
:10561B004E701B90026B04F090057CE07002A3E0CF
:10562B00703A90057CF0A304F09005D4F02290051D
:10563B0098E07004A3E0640290026B700474028023
:10564B00027403F0E4900598F0A3F090058EF0A39C
:0D565B00F090057CF0A3F09005D404F0223F
:03000B00026E6919
:106E6900C0E0C0F0C083C082C0D075D00890034A8A
:106E7900E004F07006900349E004F0126E95125197
:0C6E890096D0D0D082D083D0F0D0E03280
:10670400E49005CEF0126F0E126F581258AA90033F
:0D67140049E0FFA3E09005D0CFF0A3EFF027
:1067210090043312388500000000E47FE87E03FD09
:10673100FC900433E0F8A3E0F9A3E0FAA3E0FBC383
:1067410012379E502800900433E0FCA3E0FDA3E043
:10675100FEA3E0FFE4FAF9F8EF2401FFEA3EFEE9C7
:0D6761003DFDE83CFC90043312387980BD0A
:10676E009005D3E0703C9005D0E0FEA3E0FFC3900F
:10677E00034AE09FFF900349E09EFED3EF94F4EEB0
:10678E009401401EE0FEA3E0FF9005D0EEF0A3EFD3
:10679E00F09005CBEEF0A3EFF0126EE89005D374F7
:1067AE0001F09005D3E0B401B712004690035FE00C
:1067BE00B4020C123EB390035F7403F0E4A3F01224
:0767CE003A8B12540B809975
:0D5F16004A065E00FF00FF00FF00FF00FFD5
:0C6B0D00C290C2907F007E007D007C00E2
:066B1900900542123879DC
:106B1F0090054612388500000000900542E0FCA366
:106B2F00E0FDA3E0FEA3E0FFA3E0F8A3E0F9A3E0FC
:106B3F00FAA3E0FBC312379E502800900546E0FCF5
:106B4F00A3E0FDA3E0FEA3E0FFE4FAF9F8EF2401D0
:106B5F00FFEA3EFEE93DFDE83CFC90054612387920
:026B6F0080B8EC
:016B71002201
:106FAC00D290D290D291D291126B11C291C29122F5
:106F6E00126B0DC291C291126B11D290D290126B14
:066F7E0011D291D2912214
:0F6FBC00126B0DD290D290126B11C290C2902224
:086D6000900668EEF0A3EFF0CD
:106D6800E4A3F0126B11126B0D900669E030E00697
:106D7800D291D2918004C291C291126B119006688F
:106D8800E0C313F0A3E013F0D290D290126B1190ED
:0B6D9800066AE004F0E0C3940840C865
:016DA30022CD
:1069AD00126FF6126FAC7F407E00126D6012000305
:1069BD00126FBC126FF6126F6E126FAC7FC07E003D
:1069CD00126D60120003126FBC126FF6E490066E2A
:1069DD00F090066EE0FFC394055025EF25E0245E90
:1069ED00F582E43406F583E0FEA3E0FF126D60123C
:1069FD000003126FBC126FF690066EE004F080D1AA
:106A0D00126F6E126FAC7F8C7E00126D60120003E0
:096A1D00126FBC126FF6026F6EDD
:05000300C294D2952219
:056FF600D294D29522A7
:10299600303030303000313031303100313031308C
:1029A60032003130313033003130313034003230A2
:1029B6003130310000312D00322D00332D00342D01
:1029C60000352D00362D00372D00382D00392D000D
:1029D60031300031310031320031330031340031D1
:1029E60035003136003137003138003139003230A8
:1029F60000323100323200323300323400323500D8
:102A06003236003237003238003239003330002097
:102A16002020413100202020413200202020413357
:102A26000020202041340020202041350020202095
:102A36004136002020204137002020204138002048
:102A460020204139002020413130003630343039E1
:102A56000020462D2D300020462D2D310020462DFC
:102A66002D320020462D2D330020462D2D340020FA
:102A7600462D2D3500B4F2BDBA00B4EACCF500BD42
:102A8600F8D6BD00CDCBD6BD00CFC2C1CF00CDA3F9
:102A9600D6BD00C6F4B6AF00CDA3D6B900B7A2D650
:102AA600BD00CAD5D6BD00502D2D00452D2D005197
:102AB600322D2D2D00502D2D203100502D2D203260
:102AC60000502D2D203000202020313100202020E4
:102AD60031320020202031330020202031340020E4
:102AE60020203135002020203136002020203137AB
:102AF60000202020313800202020313900202020DD
:102B060032300020202032310020202032320020B6
:102B16002045727200D6BDB3A400C0A6CAFD00D778
:102B2600DCCAFD005738444628352C332C27313172
:102B36003136363232323636333333333327293B66
:102B46000D0A0057384D5528302C302C38302C388B
:102B5600302C312C32293B0D0A0057385545283187
:102B6600293B0D0A004453363428312C382C2725AE
:102B760073272C3135293B0D0A0053585928302C20
:102B860030290D0A00573855452833293B0D0A00D0
:102B9600573855452834293B0D0A00445334382804
:102BA600312C38362C27C7EBCAE4C8EBC3DCC2EBA2
:102BB6003A272C3135293B0D0A0044533634283147
:102BC6002C312C272573272C3135293B0D0A00443F
:102BD60053363428312C3130302C272573272C31AD
:102BE60035293B0D0A00434C532830293B0D0A007A
:102BF600256400445334382833302C3139302C279F
:102C06002573272C31293B0D0A00445336342832CC
:102C160030302C3130302C272573272C3135293B89
:102C26000D0A00B4FAC2EBCAE4C8EBBBADC3E600BA
:102C3600B4EDCEF3CCE1CABE00D6B1BDD3B5F7B282
:102C4600CECAFD00B5C8B4FDB7B5D0A3BDE1B9FB8A
:102C560000D1D3CAB1CFD4CABED0DEB8C4B3F6B49D
:102C6600ED00B2E2CAD4B2CECAFDC9E8D6C300D1DD
:102C7600A7CFB0C4A3CABD0044533634283134327A
:102C86002C382C272573272C3135293B0D0A002596
:102C96006C6400573855452832293B0D0A004453C9
:102CA60034382832302C36302C272573272C3135F2
:102CB600293B0D0A00445334382832302C36302C48
:102CC600272573272C31293B0D0A005358592830E4
:102CD600293B0D0A00445334382832302C36302C28
:102CE6002720202020272C31293B0D0A005350474E
:102CF600283537293B0D0A0025730031362D352D31
:102D060031320044533634283133302C322C2725C7
:102D160073272C3135293B0D0A00445336342831AC
:102D260033302C312C272573272C3135293B0D0ABE
:102D36000044533634283133302C312C27256C642B
:102D4600272C3135293B0D0A0053504728363029A8
:102D56003B0D0A00535047283632293B0D0A0053D3
:102D66005047283633293B0D0A0042504943283143
:102D76002C302C302C31293B0D0A0050533332288D
:102D8600312C312C312C27CDEAB3C9D2BBC0A62CAD
:102D9600C7EBC0A6CCF5272C3135293B0D0A0042DE
:102DA60050494328322C302C302C32293B0D0A0056
:102DB600424F58283132302C3138302C3135302CB6
:102DC600313938293B0D0A005053333228322C3121
:102DD6002C312C27B4EACCF5BBFACFC2C1CFB4A6AE
:102DE600CEDEB8CBC7A5B1A8B4ED272C3135293B2B
:102DF6000D0A004250494328332C302C302C3329FD
:102E06003B0D0A00424F58283130302C38302C32D6
:102E160030302C313630293B0D0A005053333228DE
:102E2600332C312C312C27B4EACCF5BBFAB5AFC61E
:102E3600ACB4A6CEDEB8CBC7A5B1A8B4ED272C316D
:102E460035293B0D0A004250494328342C302C309A
:102E56002C34293B0D0A005053333228342C312CA4
:102E6600312C27C7D0B5B6B6C2D6BDB9E2B5E7B4E0
:102E7600ABB8D0C6F7B1A8B4ED272C3135293B0D38
:102E86000A004250494328352C302C302C35293B3A
:102E96000D0A005053333228352C312C312C27CFD4
:102EA600C2C1CFB6C2D6BDB9E2B5E7B4ABB8D0C6DB
:102EB600F7B1A8B4EDA1A3272C3135293B0D0A00A3
:102EC6004250494328362C302C302C36293B0D0AEB
:102ED60000424F58283238302C38302C3239382CB2
:102EE600313030293B0D0A005053333228362C310D
:102EF6002C312C27C7D0B5B6C1E3CEBBBDD3BDFCA4
:102F0600B4ABB8D0C6F7B1A8B4EDA1A3272C313520
:102F1600293B0D0A004250494328372C302C302CCF
:102F260037293B0D0A00424F58283134302C3430B3
:102F36002C3138302C3538293B0D0A0050533332AA
:102F460028372C312C312C27B4A2D6BDB8D0D3A625
:102F5600B5BDCEDED6BDBBF2D6BDB6E0A1A3272C4D
:102F66003135293B0D0A004250494328382C302C74
:102F7600302C38293B0D0A00424F58283130302C6E
:102F86003137302C3133392C323130293B0D0A00A0
:102F96005053333228382C312C312C27B4EACCF557
:102FA600D6DCC6DABDD3BDFCB4ABB8D0C6F7B1A883
:102FB600B4EDA1A3272C3135293B0D0A0042504917
:102FC6004328392C302C302C31293B0D0A00505324
:102FD600333228392C312C312C27B4F2BDBAB5BD89
:102FE600CEBBB8D0D3A6C6F7B1A8B4EDA1A3272C03
:102FF6003135293B0D0A004250494328302C302CEC
:10300600302C31293B0D0A00505333322825642CCD
:1030160025642C25642C27452564272C31293B0D56
:103026000A00505333322825642C25642C25642C41
:1030360027452564272C3135293B0D0A0044533496
:10304600382833302C3139302C2725732020272C73
:1030560031293B0D0A00535047283331293B0D0ACD
:1030660000535047283332293B0D0A005350472856
:103076003333293B0D0A00535047283334293B0D7F
:103086000A00535047283335293B0D0A0053504751
:10309600283336293B0D0A00535047283337293B3E
:1030A6000D0A00535047283338293B0D0A00535068
:1030B60047283339293B0D0A005350472834302915
:1030C6003B0D0A00535047283431293B0D0A005363
:1030D6005047283432293B0D0A00535047283433D1
:1030E600293B0D0A00535047283434293B0D0A006A
:1030F600535047283435293B0D0A0053504728348E
:1031060036293B0D0A00535047283437293B0D0A10
:1031160000535047283438293B0D0A00535047289E
:103126003439293B0D0A00535047283530293B0DC9
:103136000A00434C53282564293B0D0A005738558D
:1031460045282564293B0D0A004349524628363551
:103156002C35352C31352C31293B0D0A004349528B
:10316600462836352C35352C31352C32293B0D0A7F
:103176000043495246283136352C35352C31352C0D
:1031860031293B0D0A0043495246283136352C3544
:10319600352C31352C32293B0D0A0053585928302D
:1031A6002C30293B0D0A0000010047FF299610002C
:1031B6000200000103B501010057FF299C12001E01
:1031C60000000103B70201014FFF29A214000E00FF
:1031D600000103B8030101BFFF29A816000E000075
:1031E6000103B90401022FFF29AE1C0007000001EC
:1031F60003BA05010147FF29B41A000100000103C3
:10320600BB000000000000000000000000000000FD
:10321600FF29BA400000000103580405000001869A
:103226009F000000000000000000000000000000F9
:103236000000000000000000000000000000000088
:103246000000000000000000000000000000000078
:103256000000000000000000000000FEB0EDF9B321
:10326600DBDFF0FFFB00004080003F065B4F666D32
:103276007D077F6F771F4E3D4F47FB771F4E3D798A
:1032860071FB37060E07386A761D7367055B313E9C
:103296001C5C313BED000000620800771F4E3D4F7D
:1032A60047FB370638070E6A151D6773505B783E75
:1032B6001C5C313BED000000000000000000000037
:1032C60000000000000000000000000000000000F8
:1032D60000000000000000000000000000000000E8
:1032E60000000000000000000000000000000000D8
:1032F60000000000000000000000000000000000C8
:1033060000000000000000000000000000000000B7
:1033160000000000000000000000000000000000A7
:103326000000000000000000000000000000000097
:103336003000000000000000000000000000000057
:103346000000000000000000000000000000000077
:103356000000000000000000000000000000000067
:103366000000000000000000000000000000000057
:103376000000000000000000000000000000000047
:103386000000000000000000000000000000000037
:103396000000000000000000000000000000000027
:1033A6000000000000000000000000000000000017
:0B33B60000000000000000000000000C
:105F23004102740042026C00004103BB0041039430
:105F3300004603B5021E0E0701004803950402FF45
:105F43003216FF31AD420389000041026B0041026A
:105F53006E0141004300420431000042039E0000F1
:105F63004203A700004302710000004203B3000094
:105F7300420390000041000A0041000B0042001060
:105F830000004200160000420018000042001A0000
:105F93000041001C0042001D000042001F0000429F
:105FA30000210000420023000042002500004200BF
:105FB300270000420029000042002B000042002D70
:105FC300000042003100004200330001410037006D
:105FD300420038000041003A0042003B000042000A
:105FE3003D000042000000004200020000420004A5
:0C5FF30000004200060000420008000010
:046A26007BFFE4FD11
:106A2A00900520EBF0A3EAF0A3E9F0A3EDF09005BE
:106A3A0020E0FBA3E475F0011235AEA9F0FA123496
:106A4A00B7FF3395E0FE74402FF58274323EF5832A
:106A5A00E493FD3395E0FC900523E0FF04F0EF3367
:106A6A0095E0FEEF25E0FFEE33FE745E2FF58274AB
:106A7A00063EF583ECF0A3EDF0900523E0C36480B5
:106A8A0094865010900520E0FBA3E0FAA3E0F912E7
:056A9A0034B7709A22E0
:10424200E4900523F0EF12394742C70042D80142F9
:10425200E90242FA03430B04431C05432D06433E85
:1042620007434F0843600943710A43820B43930C8F
:1042720043A40D43B50E43C60F43D71043E8114381
:10428200F912440A13441B14442C15443D16444E9F
:1042920017445F1844701944811A44921B44A31CAA
:1042A20044B41D44C55044D65144E65244F65345E5
:1042B20006544516554526564536574546584556E1
:1042C200590000456490052074FFF0A37429F0A3FF
:1042D20074BBF002456490052074FFF0A37429F0CA
:1042E200A374BEF002456490052074FFF0A3742904
:1042F200F0A374C1F002456490052074FFF0A3742A
:1043020029F0A374C4F002456490052074FFF0A361
:104312007429F0A374C7F002456490052074FFF07D
:10432200A37429F0A374CAF002456490052074FFB7
:10433200F0A37429F0A374CDF002456490052074B3
:10434200FFF0A37429F0A374D0F002456490052015
:1043520074FFF0A37429F0A374D3F00245649005AE
:104362002074FFF0A37429F0A374D6F00245649080
:10437200052074FFF0A37429F0A374D9F0024564F8
:1043820090052074FFF0A37429F0A374DCF00245B9
:104392006490052074FFF0A37429F0A374DFF00287
:1043A200456490052074FFF0A37429F0A374E2F031
:1043B20002456490052074FFF0A37429F0A374E50C
:1043C200F002456490052074FFF0A37429F0A374F1
:1043D200E8F002456490052074FFF0A37429F0A36D
:1043E20074EBF002456490052074FFF0A37429F089
:1043F200A374EEF002456490052074FFF0A37429C3
:10440200F0A374F1F002456490052074FFF0A374E8
:1044120029F0A374F4F002456490052074FFF0A320
:104422007429F0A374F7F002456490052074FFF03C
:10443200A37429F0A374FAF002456490052074FF76
:10444200F0A37429F0A374FDF00245649005207472
:10445200FFF0A3742AF0A37400F0024564900520D3
:1044620074FFF0A3742AF0A37403F002456490056C
:104472002074FFF0A3742AF0A37406F0024564903E
:10448200052074FFF0A3742AF0A37409F0024564B6
:1044920090052074FFF0A3742AF0A3740CF0024577
:1044A2006490052074FFF0A3742AF0A3740FF00245
:1044B200456490052074FFF0A3742AF0A37412F0EF
:1044C20002456490052074FFF0A3742AF0A37415CA
:1044D200F002456490052074FFF0A3742AF0A374DF
:1044E2001BF0807E90052074FFF0A3742AF0A37461
:1044F20021F0806E90052074FFF0A3742AF0A3745B
:1045020027F0805E90052074FFF0A3742AF0A37454
:104512002DF0804E90052074FFF0A3742AF0A3744E
:1045220033F0803E90052074FFF0A3742AF0A37448
:1045320039F0802E90052074FFF0A3742AF0A37442
:104542003FF0801E90052074FFF0A3742AF0A3743C
:1045520045F0800E90052074FFF0A3742AF0A37436
:104562004BF0900520E0FBA3E475F0011235AEA9F3
:10457200F0FA1234B7FF3395E0FE74402FF58274DF
:10458200323EF583E493FD3395E0FC900523E0FF92
:1045920004F0EF3395E0FEEF25E0FFEE33FE745EAC
:1045A2002FF58274063EF583ECF0A3EDF09005231F
:1045B200E0C3648094865010900520E0FBA3E0FAEB
:0845C200A3E0F91234B7709A6E
:0145CA0022CE
:046DA400AC07A9058A
:106DA800AD04E9FF3395E0FEECFB3395E0FAEB2FF9
:106DB800FFEA3EFEEDFB3395E0FAC3EB9FEE6480FD
:106DC800F8EA6480985018EB25E0FFEA33FE745E19
:0F6DD8002FF58274063EF583E4F0A3F00D80C31F
:016DE7002289
:0D661200900439EFF07B017A0379A9E4FDD3
:0E661F00900520EBF0A3EAF0A3E9F0A3EDF064
:10662D00E4A3F0900520E0FBA3E0FAA3E0F99000CD
:10663D00011234D0B42E07900524E0B4014D90051D
:10664D0020E0FBA3E475F0011235AEA9F0FA123487
:10665D00B7FF3395E0FE74402FF58274323EF5831B
:10666D00E493FD3395E0FC900523E0FF04F0EF3358
:10667D0095E0FEEF25E0FFEE33FE745E2FF582749C
:10668D00063EF583ECF0A3EDF0805D900520E0FB78
:10669D00A3E475F0011235AEA9F0FA1234B7FF3349
:1066AD0095E0FE74402FF58274323EF583E49344F9
:1066BD0080FD3395E0FC900523E0FF04F0EF33956A
:1066CD00E0FEEF25E0FFEE33FE745E2FF5827406DB
:1066DD003EF583ECF0A3EDF09005247401F09005E8
:1066ED0021E475F001123598900523E0C364809480
:0666FD0086500302663026
:016703002273
:10601800E4FDEDFF3395E0FEEF25E0FFEE33FE747F
:10602800752FF974023EFA7B01EDFF3395E0FEEF20
:106038007803C333CE33CED8F92447F58274003EB3
:10604800F583EBF0A3EAF0A3E9F00DEDB402C3E4A5
:10605800FDEDFF3395E0FEEF25E0FFEE33FE747BA8
:106068002FF974023EFA7B01EDFF3395E0FEEF78DD
:1060780003C333CE33CED8F92457F58274003EF5E6
:1060880083EBF0A3EAF0A3E9F00DEDB41EC3E4FD41
:10609800EDFF3395E0FEEF25E0FFEE33FE74B92FF8
:1060A800F974023EFA7B01EDFF3395E0FEEF7803C9
:1060B800C333CE33CED8F9244FF58274013EF5832D
:1060C800EBF0A3EAF0A3E9F00DEDB40EC3E4FDEDA7
:1060D800FF3395E0FEEF25E0FFEE33FE74D72FF98E
:1060E80074023EFA7B01EDFF3395E0FEEF7803C3BF
:1060F80033CE33CED8F924BFF58274013EF583EB55
:10610800F0A3EAF0A3E9F00DEDB40EC3E4FDEDFF52
:106118003395E0FEEF25E0FFEE33FE74F52FF974BA
:10612800023EFA7B01EDFF3395E0FEEF7803C333BF
:10613800CE33CED8F9242FF58274023EF583EBF0E6
:10614800A3EAF0A3E9F00DEDB407C3E4FDEDFF33D6
:1061580095E0FEEF25E0FFEE33FE74052FF974039A
:106168003EFA7B01EDFF3395E0FEEF7803C333CEB3
:1061780033CED8F92447F58274013EF583EBF0A3BA
:0A618800EAF0A3E9F00DEDB401C345
:0161920022EA
:05493000900438EFF0D7
:104935003395E0FE9031B775F00FEF1238EBEE7559
:10494500F00FA42583F583E493FF74019390043D50
:10495500CFF0A3EFF090043DE475F0011235AEAF52
:10496500F0FE12002690043CEFF0E490043FF0A323
:10497500F0900438E0FFFD3395E0FC9031B675F01A
:104985000FED1238EBEC75F00FA42583F583E49356
:10499500FB3395E0FA90043FE0FCA3E0FDC39BEAFE
:1049A5006480F8EC6480984003024AD6EFB4044969
:1049B5003395E0FE9031AE75F00FEF1238EBEE75E2
:1049C500F00FA42583F583E493FB740193FA740235
:1049D50093F9C003C002C001EDAE047803C333CE22
:1049E50033CED8F9D001D002D00329F9EA3EFA90A6
:1049F5000003740175F0C2804C900438E0FF3395D4
:104A0500E0FE9031AE75F00FEF1238EBEE75F00F5A
:104A1500A42583F583E493FB740193FA740293F957
:104A2500C003C002C001EDAE047803C333CE33CE5C
:104A3500D8F9D001D002D00329F9EA3EFA90000353
:104A4500740375F0E7123646900438E0FF3395E0BD
:104A5500FE9031AE75F00FEF1238EBEE75F00FA446
:104A65002583F583E493FB740193FA740293F9901B
:104A7500043FE0FEA3E07803C333CE33CED8F9FF7D
:104A850029F9EA3EFA900005E4F5F012364690045D
:104A950038E0FD3395E0FC9031AE75F00FED12383E
:104AA500EBEC75F00FA42583F583E493FB74019378
:104AB500FA7402932FF9EA3EFA900007E412350FD3
:104AC500900440E004F0700690043FE004F00249D1
:104AD500769031EAE493FB740193FA740293F990AA
:104AE5000033740175F0F4123646900438E0146012
:104AF5002014602D14603A14604714605424057026
:104B05005E9004397401F0A37402F0A37475F0800B
:104B15004E9004397401F0A37402F0A3747BF08005
:104B25003E9004397401F0A37402F0A374B9F080C7
:104B35002E9004397401F0A37402F0A374D7F080A9
:104B45001E9004397401F0A37402F0A374F5F0808B
:104B55000E9004397401F0A37403F0A37405F0906A
:104B65000438E0FF3395E0FE9031B475F00FEF1295
:104B750038EBEE75F00FA42583F583E493FF7401FC
:104B85009390043DCFF0A3EFF0E4A3F0A3F09004DD
:104B950038E0FF3395E0FE9031B675F00FEF12382F
:104BA500EBEE75F00FA42583F583E493FF3395E0D1
:104BB500FEEF2401FFE43EFEC3900440E09FEE6457
:104BC50080F890043FE0648098506390043DE4755C
:104BD500F0011235AEAFF0FE120026900439E0FB6D
:104BE500A3E0FAA3E0F9EF1234FD90043AE475F07E
:104BF5000112359890043DE475F0011235AEAFF021
:104C0500FE120026900439E0FBA3E0FAA3E0F9EFD9
:104C15001234FD90043AE475F00112359890044081
:0E4C2500E004F0700690043FE004F0024B93B0
:014C3300225E
:106B7200E4FDEDFF3395E0FEEF25E0FFEE33FE741A
:106B8200752FF58274023EF583E0FAA3E0FB7409E7
:106B92002FF58274033EF583EAF0A3EBF00DEDB41A
:106BA20002D0E4FDEDFF3395E0FEEF25E0FFEE338A
:106BB200FE747B2FF58274023EF583E0FAA3E0FBBC
:106BC200740D2FF58274033EF583EAF0A3EBF00D0A
:046BD200EDB41ED030
:016BD600229C
:1067D500900438747FF0A374F9F0E4FF900438E472
:1067E50075F0011235AE85F082F583E493FEEFFD79
:1067F5003395E0FC743A2DF58274043CF583EEF094
:106805000FEFB407D790043FE0FE3395E090037394
:10681500F0A3CEF0E07F00FE900373F0A3EFF090BD
:106825000440E0FDEDFF900373EEF0A3EFF07C076D
:106835007DD0123543A3ECF0A3EDF0E4900438F0DD
:10684500A3F0900376E025E0FF900375E033FE1298
:10685500002690043AEFF0900376E025E0FF9003E0
:1068650075E033FEEF2401FFE43EFE12002690049E
:106875003BEFF0FB90043AE0FDAF05900377E4F0C1
:0B688500A3EFF0EBFFA3E4F0A3EFF0A3
:0168900022E5
:1058AA00C2A57A2A7951126A26900397E0F9A3E0F1
:1058BA00FAA3E090042DC9F0A3EAF0A3E9F0E4907A
:1058CA000437F090042DE0FBA3E0FAA3E0F990047A
:1058DA0037E0FFFD3395E08D82F58374151238DACF
:1058EA00123917EA494B6008900437E004F080D374
:1058FA00900420EFF090039AE0FBA3E0FAA3E0F90A
:10590A00900040EBF0A3EAF0A3E9F090000112390D
:10591A0017900044EBF0A3EAF0A3E9F0E49004370F
:10592A00F0900040E0FBA3E0FAA3E0F9900437E02E
:10593A00FFFD3395E08D82F583740F1238DA123445
:10594A00D0B5070B124930900437E004F080D290AA
:10595A000437E0900269F0126B72126018E4900347
:10596A009DF090026FF09003A5F0A304F0E4900379
:10597A008CF090034DF090034BF0A3F090034EF09F
:10598A0090035412388500000000E4900371F0126D
:10599A0067D5900377E0FFA3E09002EFCFF0A3EF83
:1059AA00F0900379E0FFA3E09002F1CFF0A3EFF0CB
:1059BA00E4900372F0900437F0900437E0FFC36478
:1059CA008094874003025A55EF3395E0FEEF780240
:1059DA00C333CE33CED8F9FF24D7F58274023EF50D
:1059EA0083E0FCA3E04C702B74D92FF58274023E3D
:1059FA00F583E0FEA3E04E701A900372E0FF900474
:105A0A0037E0FE7401A806088002C333D8FC4F9021
:105A1A000372F0900437E0FF3395E0FEEF7802C39B
:105A2A0033CE33CED8F9FF24B9F58274023EF5831A
:105A3A00E4F0A3F074BB2FF58274023EF583E4F020
:105A4A00A3F0900437E004F00259C3124F0812651C
:105A5A001BE47B107A27F9F890037BE0FCA3E0FDB6
:105A6A00A3E0FEA3E0FF1236FE900305EEF0A3EFDB
:105A7A00F0E4900349F0A3F0900350F0A3F074FF10
:065A8A00900267F0A3F09A
:015A900022F3
:085A9100900520EEF0A3EFF0F8
:105A99009005CE74AAF0900520E0FEA3E09031B401
:105AA90075F00F1238EBEE75F00FA42583F583E43A
:105AB90093FE740193FF126C80E49005CEF090057B
:105AC90020E0FEA3E0FFEE7072EF14602014602D59
:105AD90014603A1460471460542405705E900522DE
:105AE9007401F0A37402F0A37475F0804E9005223E
:105AF9007401F0A37402F0A3747BF0803E90052238
:105B09007401F0A37402F0A374B9F0802E900522F9
:105B19007401F0A37402F0A374D7F0801E900522DB
:105B29007401F0A37402F0A374F5F0800E900522BD
:105B39007401F0A37403F0A37405F0900520E0FE4E
:105B4900A3E09031B475F00F1238EBEE75F00FA4A5
:105B59002583F583E493FF740193900526CFF0A381
:105B6900EFF0E4900525F0900520E0FEA3E09031E8
:105B7900B675F00F1238EBEE75F00FA42583F58397
:105B8900E493FF3395E0FEEF2401FFE43EFE900528
:105B990025E0C39FEE6480F87480984003025C6B33
:105BA9009005CE74AAF0900526E0FEA3E0FF9005CB
:105BB90022E0FBA3E0FAA3E0F91234B7FD126BD798
:105BC900900526E0FEA3E0FF120026AE079005220D
:105BD900E0FBA3E0FAA3E0F91234B76E6007900383
:105BE9004CE04420F0900523E475F00112359890BB
:105BF9000527E004F07006900526E004F0900526DC
:105C0900E0FEA3E0FF900522E0FBA3E0FAA3E0F9A0
:105C19001234B7FD126BD7900526E0FEA3E0FF1200
:105C29000026AE07900522E0FBA3E0FAA3E0F912F3
:105C390034B76E600790034CE04420F0900523E4EC
:105C490075F001123598900527E004F0700690056B
:105C590026E004F0E49005CEF0900525E004F0027A
:0B5C69005B70126B7290059A7401F0E2
:015C7400220D
:106D1800EF14601814601D14602214602714602C8E
:106D2800240570337BFF7A2A795780267BFF7A2ADD
:106D3800795D801E7BFF7A2A796380167BFF7A2A29
:106D48007969800E7BFF7A2A796F80067BFF7A2A21
:086D58007975E4FD126A2A229C
:10004600783D7C047D017BFF7A3279C07E007F6437
:10005600123491E49004A2F0A3F0A3F0A3F078A9DF
:100066007C047D017BFF7A337924FE7F061234916E
:1000760078AF7C047D017BFF7A33792A7E007F0688
:1000860012349178B57C047D017BFF7A3379307E1A
:10009600007F06123491900267E0FFA3E0900016FD
:1000A600CFF0A3EFF090001AE0FEA3E0FF90001659
:1000B600E0FCA3E0FD6F7002EC6E6079900349E00E
:1000C600FEA3E0FF900027EEF0A3EFF0900023E000
:1000D6007002A3E0701190002FEEF0A3EFF09000F5
:1000E6000AE04401F0800790000AE054FEF0900018
:1000F6001FE0FEA3E0FF900349E0FAA3E0FBC39FE5
:10010600FFEA9EFED3EF9432EE9400402590001A4B
:10011600ECF0A3EDF090001DEAF0A3EBF0E4900004
:1001260021F0A3F0A3F0A3F0900033F0A304F002B3
:10013600023C02023590002FE0FEA3E0FF90034947
:10014600E0FCA3E0FDC39FFFEC9EFED3EF9432EEEE
:100156009400400790000AE054FEF0900027E0FE6D
:10016600A3E0FFC3ED9FFFEC9EFED3EF9430EE9429
:10017600754034900349E0FFA3E0900027CFF0A339
:10018600EFF090002DE07002A3E0701B9003A5E055
:100196007004A3E06411600F9003A5E4F0A304F0DB
:1001A600E490002BF0A3F090001DE0FEA3E0FF908A
:1001B6000349E0FCA3E0FDC39FFFEC9EFED3EF9452
:1001C60032EE9400406990001FECF0A3EDF0900031
:1001D60016E0FEA3E0F47002EEF4605A900023E00D
:1001E6007002A3E07050900022E004F070069000C8
:1001F60021E004F0D3900022E09464900021E064B2
:100206008094804031900023E4F0A304F090003302
:10021600E4F0A304F0E4900031F0A3F0900025ECA4
:10022600F0A3EDF0900021E4F0A3740AF08007E457
:10023600900016F0A3F0900023E07002A3E0605B4C
:10024600900025E0FEA3E0FF900349E0FCA3E0FD5B
:10025600C39FFFEC9EFED3EF9464EE9400403C9067
:100266000032E004F07006900031E004F0900031B6
:10027600E0FEA3E0FFD39432EE648094804007A3AF
:10028600E4F0A3740AF0EF4E6008900025ECF0A3AA
:10029600EDF0900018E4F0A374FFF0900016E0FE75
:1002A600A3E0FF4E6021A3E0FCA3E0FDEF6D70022A
:1002B600EE6C600C900016A3A3EEF0A3EFF080079F
:1002C600E4900016F0A3F0900016E0FEA3E0FFF421
:1002D6007003EE64FD6012EFF47003EE64FB6009D8
:1002E600EFF47003EE64F77042900371E0FF602054
:1002F600900016E0B4FB19A3E0B4FF14EF3395E0C9
:10030600FEEF2414FFE43E90034BF0A3EFF0801BB6
:100316009005D47401F0900016E0FFA3E0900389E5
:10032600CFF0A3EFF090026B7402F090003DE0FE78
:10033600A3E0FFEE60030203C8EF24F6602524F66F
:1003460060562414707C20947990003DE4F0A374E8
:100356000AF0900349E0FFA3E090003BCFF0A3EF43
:10036600F0805F20942990003BE0FEA3E0FFC3905D
:10037600034AE09FFF900349E09EFED3EF9464EEAC
:100386009400403E90003DE4F0A37414F08033E402
:1003960090003DF0A3F0802A3094279005D4740194
:1003A600F090038974FFF0A374EEF090026B740270
:1003B600F0E490003DF0A3F090039274FFF0A37474
:1003C600EEF090026CE0FEA3E0FF64084E700302BC
:1003D60005E3900016E0FCA3E08CF012396D042CC6
:1003E600000005C07FFF05B2BFFF05A2DFFF059233
:1003F600EFFF0582F7FF0572FBFF0562FDFF05367D
:10040600FEFF0525FF7F0506FFBF04F5FFDF05D5C7
:10041600FFEE04E4FFEF0496FFF7045AFFFE042CF8
:10042600FFFF000005E3900392E0B4FF0FA3E0B4E2
:10043600EE0AE4900392F0A3F00205D5900431E0B1
:100446007004A3E06401900271700302054AE4F0AF
:10045600A302055CEF64024E600C90026CE070042F
:10046600A3E0640370189003A5E07004A3E06401A0
:10047600700C90038EF0A3F090026CF0A3F0900342
:10048600B3E07004A3E0640160030205E30205CC57
:1004960090026CE0FEA3E0FF64024E6006EF640388
:1004A6004E700C9003A5E07004A3E06401601D90FB
:1004B600026CE07002A3E070139003A5E07004A341
:1004C600E06401700790026CF0A304F09003B3E0BF
:1004D6007004A3E0640160030205E30205CC900208
:1004E6007174FFF0A3742AF0A37485F00205E390FB
:1004F600027174FFF0A3742AF0A3748AF00205E374
:100506009003B3E07004A3E064017007900390F0D9
:10051600A304F090026CE4F0A37408F00205E390E3
:10052600027174FFF0A3742AF0A3748FF00205E33E
:10053600900431E07002A3E07018900431F0A30437
:10054600F090027174FFF0A3742AF0A37480F00295
:1005560005E3E4900431F0A3F00205E39002717420
:10056600FFF0A3742AF0A37494F080719002717462
:10057600FFF0A3742AF0A37499F08061900271745D
:10058600FFF0A3742AF0A3749EF080519002717458
:10059600FFF0A3742AF0A374A3F080419002717453
:1005A600FFF0A3742AF0A374A8F080319003B3E09F
:1005B6007004A3E064017025800C9003B3E070041E
:1005C600A3E064017017900390F0A304F0800E90EE
:1005D600027174FFF0A3742AF0A3747BF09003A554
:1005E600E0FEA3E0FFEE600302172AEF24FE70038D
:1005F600020ADE147003020EC514700302126F2481
:10060600FB70030216EE24F97003020D9D147003AD
:10061600020CE72410600302172A900016E0FEA3DE
:10062600E08EF012396D07AC7FFF0736BFFF0890EA
:10063600FFBF0828FFF7069FFFFB0706FFFD064CD6
:10064600FFFE000008AAE490003AF090002BE0704C
:1006560002A3E070299003A07430F0A3F0A3F0A3E6
:10066600F0A3F090038B7404F07B017A0379A0E485
:10067600FD126A2A9003A5E4F0A37402F02290000A
:1006860043E0B4010AE4F0900037F09003BBF0E4D5
:1006960090002BF0A3F00208AAE490003AF0900034
:1006A60023E07002A3E0604590002BE07002A3E017
:1006B600703B90037BE0FCA3E0FDA3E0FEA3E0FF1C
:1006C600A3E0F8A3E0F9A3E0FAA3E0FBC31237B472
:1006D600601B90037BE0FCA3E0FDA3E0FEA3E0FF2C
:1006E600A31238799005CD7401F012689190026ECC
:1006F600E0640160030208AA90059D04F0E48029E5
:10070600E490003AF0900349E0FFA3E0900029CF7F
:10071600F0A3EFF0A3E4F0A37405F090026EE0609E
:10072600030208AA90059D04F090026EF00208AA42
:10073600E490003AF090002BE07002A3E060030220
:1007460008AA900040E0FBA3E0FAA3E0F9900001BC
:10075600123917900044EBF0A3EAF0A3E9F0E49015
:100766000421F0A3F0A304F0E490026FF090000BD4
:1007760004F0E490002DF0A3F0FC7D0FFFFE12358F
:1007860031900040E0FBA3E0FAA3E02FF9EA3EFA3D
:100796009000091234D0900430F0D36480948050D5
:1007A600030229958072E490003AF090002BE070E5
:1007B60002A3E060030208AA900040E0FBA3E0FA6F
:1007C600A3E0F9900001123917900044EBF0A3EA78
:1007D600F0A3E9F0E4900421F0A304F0A3F0900262
:1007E6006FF090000BF0E490002DF0A3F0FC7D0F6D
:1007F600FFFE123531900040E0FBA3E0FAA3E02FA4
:10080600F9EA3EFA9000091234D0900430F0D3642D
:1008160080948050030229959003A5E4F0A3740305
:10082600F022900043E07037900023E07002A3E0CE
:10083600601090003AE0C3648094A8500AE004F087
:100846008005E490003AF0900349E0FFA3E09000B1
:1008560029CFF0A3EFF0A3E4F0A37402F080459053
:1008660005D47401F090038974FFF0A374BFF0906F
:10087600026B7402F0E490002BF0A3F0900043F0BA
:10088600900037F09003BBF0801A900043E070149C
:1008960090057B04F090002BE4F0A37404F0900024
:1008A600437401F090002BE07002A3E06003020A9B
:1008B60018900396E0FF90000EE4F0A3EFF090028C
:1008C6006FE0900438F090034BE07002A3E0600301
:1008D60002096E90034DE0704CA3E0B40110900342
:1008E600BB7401F0900037E0700B04F080079000B5
:1008F6000AE054FDF090037FE0F8A3E0F9A3E0FAE4
:10090600A3E0FB90037BE0FCA3E0FDA3E0FEA3E0F5
:10091600C39BFFEE9AFEED99FDEC98FC90035812EE
:10092600387902099F7A2A79AD126A2690034DE03A
:10093600FB547FFF3395E0FEFDFC900012123879E0
:10094600EB30E708900037E0700204F0124C42905A
:100956000439EFF07B017A0379AC7D0312661F90B0
:1009660003BB7401F00209E390034BE0FEA3E0FF32
:10097600640B4E6006EF640C4E703490034EE0B488
:1009860001109003BB7401F0900037E0700B04F087
:10099600800790000AE054FDF0900358E0FCA3E0C5
:1009A600FDA3E0FEA3E0FF124C3C126612802E7BF4
:1009B600FF7A2A79B1E4FD126A2A900037E07002C4
:1009C60004F090034B124C34900439EFF07B017A1B
:1009D6000379AC7D0312661FE49003BBF090038C91
:1009E600E07003020ABE900395E0FF90039DE004C9
:1009F600FEF0D3EF6480F8EE6480985003020ABEDE
:100A0600E4F090026FE004F0E490000EF0A3F00230
:100A16000ABE90002BE07004A3E0640270339003DA
:100A260052124C34126612900029E0FEA3E0FFC376
:100A360090034AE09FFF900349E09EFED3EF94D0D7
:100A4600EE9407407390002BE4F0A37403F0020ABF
:100A5600BE90002BE07004A3E06403700590035081
:100A6600803590002BE07004A3E06404701A7BFFCD
:100A76007A2A79B5FD126A2A900037E0700204F0EE
:100A86009003BB7401F0803090002BE07004A3E06B
:100A960064057024900373E0FEA3E0FFE4FCFD9080
:100AA6000012123879900012A3A3E0FEA3E0FFE43F
:100AB600FDFC124C3C12661290003AE0642860037A
:100AC600021732F09003A5F0A37410F090002BE407
:100AD600F0A37404F0020E4E900016E0FEA3E08E22
:100AE600F012396D0B51FFF70B0BFFFB0B21FFFDCE
:100AF6000AFEFFFE00000CC7E490026FF09003A50B
:100B0600F0A304F02290038BE014F0C36480948079
:100B16004003020CC77404F0020CC790038BE0FF7D
:100B26003395E0FE74A02FF58274033EF583E0044E
:100B3600F0D3648094B95003020CC774A02FF582D9
:100B460074033EF5837430F0020CC79004377401C9
:100B5600F0900269E0FF900437E0FEC3EF6480F88E
:100B6600EE6480984003022995900040E0FBA3E0E4
:100B7600FAA3E0F9EE75F00FA4FFE92FF9E43AFACB
:100B86009000041239171234B7FF9003A0E06F608B
:100B960003020CBE900437E0FF3395E0FE7C007D37
:100BA6000F123531900040E0FBA3E0FAA3E02FF9E5
:100BB600EA3EFA9000041239179000011234D0FF71
:100BC6009003A1E06F6003020CBE9000021234D0C5
:100BD600FF9003A2E06F6003020CBE900003123484
:100BE600D0FF9003A3E06F6003020CBE90000412D6
:100BF60034D0FF9003A4E06F6003020CBE9004376C
:100C0600E0FFB404289002EBE07002A3E0700A90C3
:100C160002EDE07002A3E06014900372E020E50D9F
:100C2600900301E07002A3E06003022995EF33957B
:100C3600E0FE90002DF0A3EFF07C007D0F12353121
:100C4600900040E0FBA3E0FAA3E02FF9EA3EFA9019
:100C56000001123917900044EBF0A3EAF0A3E9F083
:100C660090002DE0FEA3E0FF900421F0E4A3F0A3A2
:100C760004F0E490026FF0123531900040E0FBA3DF
:100C8600E0FAA3E02FF9EA3EFA9000091234D09078
:100C96000430F0D36480948040099003A5E4F0A367
:100CA6007403F0900430E0D3648094944003741489
:100CB600F09004A1740AF022900437E004F0020BCD
:100CC60057900010E07002A3E0600D900023E070E2
:100CD60002A3E070030216597B017A0379A002177A
:100CE60023900016E0FEA3E08EF012396D0CFBFF98
:100CF600FE00000D2FE490002BF0A3F090038B7400
:100D060004F0E490039DF09004217478F09004239D
:100D16007401F0E490026FF09003A5F0A304F0E4F0
:100D2600900037F09003BBF02290034BE0FEA3E067
:100D3600FF640B4E6006EF640C4E7044EF640B4E7E
:100D460070147BFF7A2A79BBFD126A2A900037E07D
:100D5600702504F0802190034BE07004A3E0640C3E
:100D660060030217327BFF7A2A79C1FD126A2A9044
:100D76000037E0700204F09003BB7401F0021732F2
:100D86007BFF7A2A79C7E4FD126A2AE4900037F0DD
:100D96009003BBF0021732900016E0FEA3E08EF03F
:100DA60012396D0EBC7FFF0EB3BFFF0E6BDFFF0E59
:100DB60074EFFF0E62F7FF0E59FBFF0EA1FDFF0E4B
:100DC60098FEFF0E8FFF7F0EAAFFBF0E7DFFDF0E80
:100DD60086FFEF0E3AFFFB0E12FFFD0DE9FFFE0048
:100DE600001732E490002BF0A3F090038B7404F00C
:100DF600E490039DF09004217478F090042374012C
:100E0600F0E490026FF09003A502172E900394E091
:100E1600C3648094815009E004F09005D57401F014
:100E2600900394E0FF126D18900394E0D3648094CD
:100E360080021732900394E0D3648094804009E0E6
:100E460014F09005D57401F0900394E0FF126D182C
:100E56000217327BFF7A2A79CD0217237BFF7A2A83
:100E660079D30217237BFF7A2A79D90217237BFFCE
:100E76007A2A79DF0217237BFF7A2A79E50217237C
:100E86007BFF7A2A79EB0217237BFF7A2A79F10214
:100E960017237BFF7A2A79F70217237BFF7A2A79B1
:100EA600FD0217237BFF7A2B79030217237BFF7A38
:100EB6002B79090217237BFF7A2B790F02172390D0
:100EC6000016E0FEA3E08EF012396D0F7FFFF70FDC
:100ED60012FFFB0F48FFFD0EE5FFFE00000FE2E4E8
:100EE60090002BF0A3F090038B7404F0E490039D24
:100EF600F09004217478F09004237401F0E49002D9
:100F06006FF09003A5F0A304F0020FE290026FE0E9
:100F1600FF14F0EF7009900430E01490026FF09027
:100F2600026FE0900422F0F0A37401F09004A1E0B7
:100F3600FF14F0EFD3940A4003020FE2741DF0028F
:100F46000FE2900430E0FF90026FE004FEF0C3EF82
:100F56006480F8EE6480984002E4F090026FE090BE
:100F66000422F0A37401F09004A1E0FF04F0EFC3A3
:100F7600941D4068740AF08063900421E0FDB40477
:100F86002790026FE0FF74017E00A807088005C362
:100F960033CE33CED8F9FF900372E0FB3395E05E93
:100FA600FEEF5B4E6036802EEDB4032A90026FE0B2
:100FB600A2E713FF74017E00A807088005C333CE9D
:100FC60033CED8F9FF900372E0FD3395E05EFEEF75
:100FD6005D4E6008800090000B7405F0900421E0DF
:100FE600FF700890000BE0600204F090000BE064D4
:100FF60005600302117EF090026FE0FE900438F067
:1010060090038B7404F09002707402F0EFB4033115
:10101600EEA2E713FF74017E00A807088005C3331C
:10102600CE33CED8F9FF900372E0FD3395E05EFE35
:10103600EF5D4E700C90038512388500000000802D
:1010460020900429E0FBA3E0FAA3E0F91238F71296
:1010560035C4FFAEF0EE3395E0FDFC900385123803
:10106600799003A5E4F0A37404F0900438E0FF330C
:1010760095E0FEEF7803C333CE33CED8F9FF900068
:1010860044E0FBA3E0FAA3E02FF9EA3EFA90042934
:10109600EBF0A3EAF0A3E9F09002707402F01238C4
:1010A600F7C0039005247403F0E4A3F0A304F0A3AF
:1010B6007403F0A374A9F0E4A3F0A37402F0D003C0
:1010C600FD124C65900439EFF090038D7403F09097
:1010D60003A07430F0A3F0740314606D146043141D
:1010E600600302116F900439E0FFFD3395E0FC7454
:1010F600A92DF58274033CF583E0FE9003A2F0BEB1
:1011060020037430F0EF3395E0FE74AA2FF5827455
:10111600033EF583E0FD9003A3F0BD20037430F099
:1011260080389003A27420F0900439E0FF3395E0F4
:10113600FE74AA2FF58274033EF583E0FD9003A3A7
:10114600F0BD20037430F080119003A27420F0A348
:10115600F0900439E0FF3395E0FE74AB2FF582740E
:10116600033EF583E09003A4F0E4900035F0A3F08D
:101176009003A5F0A37404F0D390000FE0940090C0
:10118600000EE09400400FA3E024FFF090000EE074
:1011960034FFF0021732900396E0FF90000EE4F061
:1011A600A3EFF090026FE0FDFF3395E0FEEF7803CA
:1011B600C333CE33CED8F9FF900044E0FBA3E0FA68
:1011C600A3E02FF9EA3EFA900429EBF0A3EAF0A394
:1011D600E9F0900421E0B40331EDA2E713FF7401B6
:1011E6007E00A807088005C333CE33CED8F9FF901A
:1011F6000372E0FD3395E05EFEEF5D4E700C9003EA
:1012060085123885000000008020900429E0FBA3A9
:10121600E0FAA3E0F91238F71235C4FFAEF0EE3368
:1012260095E0FDFC90038512387990026FE0FF127D
:1012360042429005247403F0E4A3F07B01A304F07A
:10124600A37403F0A374A9F0E4A3F0A37402F07AE4
:101256000379857D04124C65900439EFF024A9F9D1
:10126600E43403FA7B010216E7900016E0FEA3E0E1
:101276008EF012396D13F8FFF7129BFFFB134BFF2D
:10128600FD128FFFFE00001645900421E060030268
:10129600163C02161190026FE0FF3395E0FEEF78E0
:1012A60003C333CE33CED8F9FF900044E0FBA3E06E
:1012B600FAA3E02FF9EA3EFA9000071234D030E0A4
:1012C60003021645900385E0FCA3E0FDA3E0FEA320
:1012D600E0FFC006C007900033E0FEA3E0FBAA06CD
:1012E600EA3395E0F9F8D007D006C3EF9BFFEE9AF4
:1012F600FEED99FDEC98FC9003851238799004294F
:10130600E0FBA3E0FAA3E0F99000051235EFFFAE8B
:10131600F0EE3395E0FDFC900385E0F8A3E0F9A339
:10132600E0FAA3E0FBC312379E4003021645900481
:1013360029E0FBA3E0FAA3E0F99000051235EFFFE0
:10134600AEF00213E990026FE0FF3395E0FEEF780E
:1013560003C333CE33CED8F9FF900044E0FBA3E0BD
:10136600FAA3E02FF9EA3EFA9000071234D030E0F3
:1013760003021645900385E0F8A3E0F9A3E0FAA37B
:10138600E0FB900033E0FEA3E0FFEE3395E0FDFCCA
:10139600EB2FFFEA3EFEE93DFDE83CFC900385129B
:1013A6003879900429E0FBA3E0FAA3E0F990000362
:1013B6001235EFFFAEF090043BEEF0A3EFF0EE3304
:1013C60095E0FDFC900385E0F8A3E0F9A3E0FAA31D
:1013D600E0FBD312379E500302164590043BE0FE15
:1013E600A3E0FFEE3395E0FDFC9003851238790209
:1013F6001645900023E07002A3E0600302160B7B03
:10140600017A0379A0900270E0900524F07D051220
:101416006193900385123879900429E0FBA3E0FAE2
:10142600A3E0F99000031235EFFFAEF0EE3395E03E
:10143600FDFC900385E0F8A3E0F9A3E0FAA3E0FB46
:10144600D312379E400302160B900429E0FBA3E05B
:10145600FAA3E0F99000051235EFFFAEF0EE3395F2
:10146600E0FDFC900385E0F8A3E0F9A3E0FAA3E031
:10147600FBC312379E500302160B7E007F02E470F8
:1014860066EF14604814602524FE705B900385E0C7
:10149600FCA3E0FDA3E0FEA3E0FF900429E0FBA38C
:1014A600E0FAA3E0F91238F712383B803A90038548
:1014B600A3A3E0FEA3E0FF900429E0FBA3E0FAA3C8
:1014C600E0F91238F7EE8FF0123627801A9003856E
:1014D600A3A3A3E0FF900429E0FBA3E0FAA3E0F9AD
:1014E6001238F7EF1234FD9003A2E0B4300B7420EB
:1014F600F0A3E0B430037420F07B017A0379A27D77
:101506000212661F900421E0640260030215FF9038
:10151600026FE0A2E713FDFF3395E0FEEF7802C30A
:1015260033CE33CED8F9FF24B9F58274023EF58363
:10153600E0FAA3E0FB74D72FF58274023EF583E050
:10154600FEA3E06B7002EE6A60030215F4EDFF3352
:1015560095E0FEEF7802C333CE33CED8F9FF24BB35
:10156600F58274023EF583E0FAA3E0FB74D92FF509
:101576008274023EF583E0FEA3E06B7002EE6A70B1
:101586006D900372E0FF7401A805088002C333D88A
:10159600FC4F900372F0EDFF3395E0FEEF25E0FF80
:1015A600EE33FE74F52FF58274023EF583E4F0A364
:1015B600F090043AF090043AE0FFC3ED6480F8EF4F
:1015C6006480985022EF3395E0FEEF25E0FFEE337E
:1015D600FE74F52FF58274023EF583E4F0A3F090D5
:1015E600043AE004F080CE7F047E00125A91900304
:1015F600A5E4F0A37403F0800C900421E0FF33957A
:10160600E0FE125A91900421E0702B90002BF0A37B
:10161600F090038B7404F0E490039DF09004217421
:1016260078F09004237401F0E490026FF09003A523
:10163600F0A304F080099003A5E4F0A37403F090EE
:101646000010E07002A3E06017900023E07002A390
:10165600E0700D90038BE0FF7D01126DA40217323E
:1016660090026FE0FF1242429005247405F0E4A355
:10167600F07B01A304F0A37403F0A374A9F0E4A320
:10168600F0A37402F07A0379857D04124C65900408
:1016960039EFF03395E0FE74A92FF58274033EF519
:1016A60083E0FF9003A2F0BF20037430F09004396A
:1016B600E0FF3395E0FE74AA2FF58274033EF583AE
:1016C600E0FD9003A3F0BD20037430F074AB2FF55A
:1016D6008274033EF583E09003A4F07B017A0379DC
:1016E600A27D0212661F8044900427E0FEA3E0FF5D
:1016F600C390034AE09FFF900349E09EFED3EF9418
:10170600E8EE94034011900425E0FE3395E0900343
:10171600A5F0A3CEF080157BFF7A2B7915E4FD1298
:101726006A2A80089003A5E4F0A304F09003A5E0DC
:10173600FEA3E0FF90038EE06E7003A3E06F7003DC
:03174600021BEA99
:101749009004BB74FFF0A3742BF0A3741BF0A37473
:10175900FFF0A3742BF0A37420F0A374FFF0A3741B
:101769002BF0A37425F09003B3E07004A3E06401A7
:101779007007900390F0A304F09003A5E0FEA3E0A6
:10178900FF90038EEEF0A3EFF0EE6003021BEAEF89
:1017990012394717BE011902021919031A6E051ADF
:1017A900BC061AEC071B1C081B4C091B7B101BAA47
:1017B9001100001BEA90034BE07002A3E0600302F2
:1017C9001BEAFFFE126C337BFF7A2B792A126E2CEF
:1017D9007F537E007D007C00126B197BFF7A2B7989
:1017E90049126E2C7F537E007D007C00126B197BA1
:1017F900FF7A2B7960126E2C7BFF7A2B7960126E3F
:101809002C7F537E007D007C00126B199005457476
:10181900FFF0A3742BF0A3746BF09004BBE0F9A361
:10182900E0FAA3E0900548C9F0A3EAF0A3E9F07B48
:10183900017A04793D1246307B017A04793D126EB2
:101849002C7F537E007D007C00126B197BFF7A2B65
:101859007980126E2C7BFF7A2B798B126E2C7F5339
:101869007E007D007C00126B1990054574FFF0A382
:10187900742BF0A3746BF09004BEE0F9A3E0FAA313
:10188900E0900548C9F0A3EAF0A3E9F07B017A04E6
:10189900793D1246307B017A04793D126E2C7BFF2B
:1018A9007A2B7980126E2C7F537E007D007C00128A
:1018B9006B197BFF7A2B7996126E2C90054574FF74
:1018C900F0A3742BF0A3746BF09004C1E0F9A3E0CA
:1018D900FAA3E0900548C9F0A3EAF0A3E9F07B0177
:1018E9007A04793D1246307B017A04793D126E2CD7
:1018F9007BFF7A2B7980021AAB126C307F537E0002
:101909007D007C00126B197BFF7A2B79A1021AAB3F
:10191900126C30900421E0704EA3E0704A900545A6
:1019290074FFF0A3742BF0A374C0F0A374FFF0A3A9
:101939007429F0A374BBF07B017A04793D12463017
:101949007B017A04793D126E2C7F537E007D007CE9
:1019590000126B1990054574FFF0A3742BF0A37462
:10196900D5F09004BB8049900421E07057A3E0644E
:1019790001705190054574FFF0A3742BF0A374C056
:10198900F0A374FFF0A37429F0A374BEF07B017A6D
:1019990004793D1246307B017A04793D126E2C9010
:1019A900054574FFF0A3742BF0A374D5F09004BE21
:1019B900E0F9A3E0FAA3E0900548C9F0A3EAF0A38F
:1019C900E9021BD77BFF7A2B79EC126E2C9004224B
:1019D900E0240AFF126414900422E0FF3395E0FE2C
:1019E900EF7803C333CE33CED8F9FF900044E0FB40
:1019F900A3E0FAA3E02FF9EA3EFA9004A6EBF0A3DC
:101A0900EAF0A3E9F01238F71235C4FFAEF0EE336D
:101A190095E0FDFC900385123879900385A3A3E036
:101A2900FEA3E0FF9004A4EEF0A3EFF09005457447
:101A3900FFF0A3742BF0A374F6F0A3EEF0A3EFF07C
:101A49007B017A0479A912463090054574FFF0A309
:101A5900742BF0A374F9F0A37401F0A37404F0A338
:101A690074A9021BD77BFF7A2B79EC126E2C7F535A
:101A79007E007D007C00126B1990054574FFF0A370
:101A8900742CF0A37410F0A374FFF0A3742CF0A3CA
:101A99007429F07B017A04793D1246307B017A047E
:101AA900793D126E2C7F537E007D007C00126B19EC
:101AB900021BEA7BFF7A2B79EC126E2C7F537E0096
:101AC9007D007C00126B1990054574FFF0A3742CFE
:101AD900F0A37410F0A374FFF0A3742CF0A3743670
:101AE900021BD77BFF7A2B79EC126E2C7F537E0079
:101AF9007D007C00126B1990054574FFF0A3742CCE
:101B0900F0A37410F0A374FFF0A3742CF0A3743F36
:101B1900021BD77BFF7A2B79EC126E2C7F537E0048
:101B29007D007C00126B1990054574FFF0A3742C9D
:101B3900F0A37410F0A374FFF0A3742CF0A3744AFB
:101B4900021BD77BFF7A2B79EC126E2C7F537E0018
:101B59007D007C00126B1990054574FFF0A3742C6D
:101B6900F0A37410F0A374FFF0A3742CF0A37457BE
:101B7900805C7BFF7A2B79EC126E2C7F537E007D83
:101B8900007C00126B1990054574FFF0A3742CF0CA
:101B9900A37410F0A374FFF0A3742CF0A3746880ED
:101BA9002D7BFF7A2B79EC126E2C7F537E007D0002
:101BB9007C00126B1990054574FFF0A3742CF0A3F7
:101BC9007410F0A374FFF0A3742CF0A37475F07B68
:101BD900017A04793D1246307B017A04793D126E0F
:011BE9002CCF
:101BEA009003A5E0FEA3E0FFEE600302232EEF249C
:101BFA00FE70030222381470030222711470030269
:101C0A0022972403600302232E90026CE0FEA3E0D5
:101C1A00FFEE600302232EEF147003021FF014700C
:101C2A000302212314700302217E24FB7003022184
:101C3A00AE2408600302232E9003A7E0FEA3E0FF70
:101C4A00C390034AE09FFF900349E09EFED3EF94BE
:101C5A00F4EE94015003021EBD9003B3E07002A398
:061C6A00E06003021EBD54
:101C700078BB7C047D017BFF7A337936FE7F0912C5
:101C80003491E49004C4F0A3F0900349E0FFA3E092
:101C90009003A7CFF0A3EFF0900040E0FBA3E0FAA1
:101CA000A3E0F99000011239179004A6EBF0A3EA23
:101CB000F0A3E9F01238F71235C4FF9004A2E5F062
:101CC000F0A3EFF090054574FFF0A3742BF0A3741C
:101CD000F6F09004A2E0FFA3E0900548CFF0A3EF58
:101CE000F07B017A0479AF124630900040E0FBA30C
:101CF000E0FAA3E0F9900001123917E92408F9E4A9
:101D00003AFA9004A6EBF0A3EAF0A3E9F01238F750
:101D10001235C4FF9004A4E5F0F0A3EFF090054560
:101D200074FFF0A3742BF0A374F6F09004A4E0FF0A
:101D3000A3E0900548CFF0A3EFF07B017A0479B5DA
:101D40001246307BFF7A2B7960126E2C9005457419
:101D5000FFF0A3742CF0A3747EF0A37401F0A374BD
:101D600004F0A374AFF07B017A04793D1246307B16
:101D7000017A04793D126E2C7BFF7A2B798B126EDF
:101D80002C90054574FFF0A3742CF0A3747EF0A38F
:101D90007401F0A37404F0A374B5F07B017A0479A4
:101DA0003D1246307B017A04793D126E2C7BFF7A1E
:101DB0002B7996126E2C90054574FFF0A3742CF0CD
:101DC000A37495F0900358E0FCA3E0FDA3E0FEA30C
:101DD000E0FF9005481238797B017A04793D12467C
:101DE000307B017A04793D126F849004C4EEF0A335
:101DF000EFF0E490043AF090043AE0FFC36480947A
:101E000089501AEF3395E0FE74BB2FF58274043EBF
:101E1000F5837430F090043AE004F080DAE4900442
:101E20003AF090043AE0FFFD3395E0FC9004C4E002
:101E3000FAA3E0FBD39DEC6480F8EA648098404309
:101E4000EF64809488503C90043AE03395E0FC7451
:101E50003D2DF58274043CF583E0FEC374089BFDC0
:101E6000E49AFCEFFB3395E0FAED2BFDEC3AFC74C1
:101E7000BB2DF58274043CF583EEF090043AE00447
:101E8000F0809FE49004C3F090054574FFF0A374C4
:101E90002CF0A3747EF0A37401F0A37404F0A37477
:101EA000BBF07B017A04793D1246307B017A0479DC
:0D1EB0003D126E2C7BFF7A2B7980126E2C78
:101EBD00900271E0FBA3E0FAA3E0F9EA494B70034D
:101ECD00021F7F9003B3E07002A3E06003021F7F47
:101EDD0090039EE0FEA3E0FF900349E0FCA3E0FD2C
:101EED00C39FFFEC9EFED3EF94F4EE9401500302DA
:021EFD00232E92
:101EFF0090039EECF0A3EDF07BFF7A2C7999126E94
:101F0F002C900000E07002A3E0900545600C74FF78
:101F1F00F0A3742CF0A374A4800A74FFF0A3742CA4
:101F2F00F0A374BBF0900271E0F9A3E0FAA3E09084
:101F3F000548C9F0A3EAF0A3E9F07B017A04793DE3
:101F4F001246307B017A04793D126E2C7BFF7A2C7E
:101F5F0079D1126E2C900000E07002A3E070047F24
:0D1F6F000180027F00900000E4F0A3EFF07D
:101F7C0002232E900271A3E0FAA3E04A600302232D
:101F8C002E9003B3E07002A3E0600302232E9003B3
:101F9C009EE0FEA3E0FFC390034AE09FFF9003493D
:101FAC00E09EFED3EF94F4EE9401500302232E7BBB
:101FBC00FF7A2C7999126E2C90054574FFF0A3745E
:101FCC002CF0A374DBF07B017A04793D1246307B54
:101FDC00017A04793D126E2C7BFF7A2C79D1126E2A
:101FEC002C02232EE4FFFE126C337BFF7A2C79F348
:101FFC00126E2C7F107E277D007C00126B197BFFEC
:10200C007A2B7960126E2C90054574FFF0A3742C1A
:10201C00F0A374FEF0A374FFF0A3742DF0A374016D
:10202C00F07B017A0479B512463090054574FFF0C7
:10203C00A3742DF0A37409F0A37401F0A37404F03D
:10204C00A374B5F07B017A04793D1246307B017A9A
:10205C0004793D126E2C7BFF7A2C7999126E2C90A0
:10206C00054574FFF0A3742BF0A374F6F0900352A3
:10207C00E0FFA3E0900548CFF0A3EFF07B017A04DA
:10208C0079B512463090054574FFF0A3742DF0A37A
:10209C007420F0A37401F0A37404F0A374B5F07B66
:1020AC00017A04793D1246307B017A04793D126E37
:1020BC002C7BFF7A2B798B126E2C90054574FFF0DC
:1020CC00A3742DF0A37437F0900358E0FCA3E0FD4B
:1020DC00A3E0FEA3E0FF9005481238797B017A0457
:1020EC00793D1246307B017A04793D126E2C7BFFD0
:1020FC007A2B7980126E2C900349E0FFA3E09003B9
:10210C00A7CFF0A3EFF090026DE004F070619002A5
:10211C006CE004F002232E9003A7E0FEA3E0FFC3C3
:10212C0090034AE09FFF900349E09EFED3EF94D0CA
:10213C00EE9407500302232EE4FFFE126C337BFF58
:10214C007A2D794F126E2C7F107E277D007C001229
:10215C006B19900349E0FFA3E09003A7CFF0A3EF26
:10216C00F090026DE004F0700690026CE004F00256
:10217C00232E90039EE0FEA3E0FF900349E0FCA316
:10218C00E0FDC39FFFEC9EFED3EF94C8EE9400508D
:10219C000302232E90039EECF0A3EDF0125C75026B
:1021AC00232E90039EE0FEA3E0FF900349E0FCA3E6
:1021BC00E0FDC39FFFEC9EFED3EF94F4EE94014040
:0121CC003FD3
:1021CD0090039EECF0A3EDF0E4FFFE126C33900053
:1021DD0002E07002A3E07BFF60067A2D795A80043D
:1021ED007A2D7965126E2C900002E07002A3E070DA
:0F21FD00047F0180027F00900002E4F0A3EFF066
:10220C00900016E0FEA3E08EF012396D2224FFF749
:10221C00222FFFFE0000232E900271E4F0A3F0A306
:10222C00F08001E490026CF0A3F08056E490043A44
:10223C00F090043AE0FFC364809485400302232E9F
:10224C00EF3395E0FE74A02FF58274033EF583E026
:10225C00FD74A92FF58274043EF583EDF090043AD9
:10226C00E004F080CC900016E0FEA3E0FF64FB706D
:10227C0002EEF4600CEF64FD7002EEF460030223D6
:10228C002EE490038EF0A3F002232E900421E0FFA5
:10229C00702CA3E07028900044E0FBA3E0FAA3E0CC
:1022AC00F99004A6EBF0A3EAF0A3E9F01238F712C8
:1022BC0035C4FD9004A2E5F0F0A3EDF08035EF708D
:1022CC0032900422E0B4012B900044E0FBA3E0FA2E
:1022DC00A3E02408F9E43AFA9004A6EBF0A3EAF0A0
:1022EC00A3E9F01238F71235C4FF9004A4E5F0F01E
:1022FC00A3EFF0900385A3A3E0FEA3E0FF9004A45A
:10230C00EEF0A3EFF090054574FFF0A3742BF0A34F
:10231C0074F6F0A3EEF0A3EFF07B017A0479A91226
:10232C00463090034BE07002A3E070030226B0909D
:10233C0003A5E07004A3E0640160030226B09002E0
:0B234C006CE07002A3E060030226B00A
:102357009003B3E07002A3E0600F900390E0700475
:10236700A3E0640160030225E19003B3E4F0A30452
:10237700F0E4900390F0A3F0FFFE126C3390034B50
:10238700E0FEA3E0FFEE60030225C4EF1239472306
:10239700BE0123F402243103246E0424A20524D8A9
:1023A70006251607255308258F0924D81024D81A7F
:1023B70024D824000025C49004BB7401F0A3744002
:1023C700F0A3E4F0A374C8F07BFF7A2D7970126E46
:1023D7002C7F887E137D007C00126B199004BFE46C
:1023E700F0A304F07BFF7A2D79810225DE9004BBF0
:1023F700E4F0A374C8F0A3E4F0A37450F0A3E4F0EE
:10240700A37402F07BFF7A2D79A5126E2C7F887E4C
:10241700137D007C00126B197BFF7A2D79B6126E43
:102427002C7BFF7A2D79CE0225DE9004BBE4F0A346
:1024370074C8F0A3E4F0A37450F0A3E4F0A374030A
:10244700F07BFF7A2D79F9126E2C7FAC7E0D7D0023
:102457007C00126B197BFF7A2E790A126E2C7BFF98
:102467007A2E79210225DE9004BBE4F0A37464F090
:10247700A3E4F0A374AAF0A3E4F0A37404F07BFF31
:102487007A2E794C126E2C7FAC7E0D7D007C00126B
:102497006B197BFF7A2E795D0225DE9004BBE4F091
:1024A700A374B4F0A3E4F0A37422F07BFF7A2E792F
:1024B70088126E2C7FAC7E0D7D007C00126B19900C
:1024C70004BFE4F0A37405F07BFF7A2E7999022507
:1024D700DE9004BB7401F0A3742CF0A3E4F0A374A2
:1024E70064F0A3E4F0A37406F07BFF7A2E79C6129A
:1024F7006E2C7FAC7E0D7D007C00126B197BFF7A02
:102507002E79D7126E2C7BFF7A2E79EE0225DE907C
:1025170004BBE4F0A374A0F0A3E4F0A3743CF0A31D
:10252700E4F0A37407F07BFF7A2F791B126E2C7FE0
:10253700AC7E0D7D007C00126B197BFF7A2F792C06
:10254700126E2C7BFF7A2F79420225DE9004BBE4C2
:10255700F0A3748CF0A3E4F0A374C8F0A3E4F0A391
:102567007408F07BFF7A2F796D126E2C7FAC7E0D8D
:102577007D007C00126B197BFF7A2F797E126E2CFF
:102587007BFF7A2F7996804F9004BBE4F0A374B455
:10259700F0A3E4F0A37422F07BFF7A2F79C3126EC5
:1025A7002C7FAC7E0D7D007C00126B199004BFE47C
:1025B700F0A37409F07BFF7A2F79D4801A9004BBBB
:1025C700E4F0A374B4F0A3E4F0A304F0E4A3F0A34D
:1025D700F07BFF7A2F79FD126E2C90039EE0FEA30D
:1025E700E0FF900349E0FCA3E0FDC39FFFEC9EFEE4
:0C25F700D3EF94F4EE940150030226D8B8
:10260300900271E0FBA3E0FAA3E0F9EA494B600909
:10261300900271E4F0A3F0A3F090039EECF0A3ED1D
:10262300F0900004E07002A3E0900545600C74FF95
:10263300F0A37430F0A3740E800A74FFF0A3743017
:10264300F0A37428F09004BFE0FFA3E0900548CF07
:10265300F0A3EFF09004BBE0FFA3E090054ACFF0B6
:10266300A3EFF09004BDE0FFA3E090054CCFF0A3EF
:10267300EFF090034BE0FFA3E090054ECFF0A3EF04
:10268300F07B017A04793D1246307B017A04793D6F
:10269300126E2C900004E07002A3E070047F0180AE
:0B26A300027F00900004E4F0A3EFF0C1
:1026AE00802890034BE07002A3E0701E9003B3E00D
:1026BE007004A3E06401701290038EF0A3F09002F8
:1026CE006CF0A3F09003B3F0A3F09003A5E0FEA38B
:1026DE00E0FF64024E6009EF64044E600302285767
:1026EE0078BB7C047D017BFF7A33793F7E007F646B
:1026FE0012349190039EE0FEA3E0FF900349E0FCAC
:10270E00A3E0FDC39FFFEC9EFED3EF942CEE94014D
:05271E005003022857E2
:1027230090039EECF0A3EDF0900006E07002A3E0AE
:1027330060557B017A0479A9126F84D3900009E074
:102743009FEE6480F8900008E064809890054574DB
:10275300FF500AF0A3742BF0A374F98008F0A3745C
:1027630030F0A37443F0A37401F0A37404F0A374D2
:10277300A9F07B017A0479BB1246307B017A047994
:10278300BB126E2C02283F9003A5E07004A3E06403
:1027930002700590038B8029E490043AF090043A88
:1027A300E0FF3395E0FE74A92FF58274043EF583B0
:1027B300E0600890043AE004F080E290043AE01408
:1027C300F0E0FF3395E0FE74A92FF58274043EF523
:1027D30083E090051FF074A92FF58274043EF583FE
:1027E300745FF090054574FFF0A37430F0A3744355
:1027F300F0A37401F0A37404F0A374A9F07B017A2D
:102803000479BB1246307B017A0479BB126E2C909B
:1028130003A5E07004A3E0640290051F7007E0FFC6
:1028230090038B8005E0FF90043AE0FD3395E0FCD4
:1028330074A92DF58274043CF583EFF0900006E053
:102843007002A3E070047F0180027F00900006E421
:04285300F0A3EFF00F
:1028570090001CE0701304F0900349E0FFA3E090A0
:10286700000CCFF0A3EFF0803B90000CE0FEA3E05C
:10287700FFC390034AE09FFF900349E09EFED3EF1A
:102887009464EE9400401D900010E07002A3E07085
:10289700047F0180027F00900010E4F0A3EFF0E4D2
:1028A70090001CF0900037E024F6603124F6607445
:1028B70024F67003022963241D600302298A90030A
:1028C70049E0FFA3E0900038CFF0A3EFF090000AB3
:1028D700E04402F0900037740AF002298A9003BBA3
:1028E700E070067E017FF480047E007F329000381E
:1028F700E0FCA3E0FDC390034AE09DFD900349E09F
:102907009CFCD3ED9FEC9E407AE0FFA3E09000385B
:10291700CFF0A3EFF090000AE054FDF09000377479
:1029270014F0805F9003BBE07E077FD0900038E013
:10293700FCA3E0FDC390034AE09DFD900349E09CA2
:10294700FCD3ED9FEC9E403BE0FFA3E0900038CF27
:10295700F0A3EFF0900037741EF0802790034BE050
:102967007002A3E0701790034DE05480FF3395E0A9
:102977004F700AA3E07006900037F080069000378A
:0E2987007401F090000AE06003D2A522C2A500
:01299500221F
:104C3400E0FEA3E0FFE4FCFD900012123879900539
:104C4400247405F0E4A3F07B01A304F0A37403F03F
:104C5400A374A9F0E4A3F0A37402F07A0079127D9E
:014C6400044B
:054C6500900523EDF0B5
:104C6A006008E0D36480948440037F002290052387
:104C7A00E014F0E4900532F090052B12388500001C
:104C8A000000900523E0B40319900532E060081291
:104C9A0037EB12379080031237EB90052B123879D5
:104CAA00804D900523E0FFB40129900532E060149D
:104CBA001235C4FDC3E49DFCE495F090052BF0A3E6
:104CCA00CCF0802B1235C4FD90052BE5F0F0A3ED56
:104CDA00F0801CEF7016900532E060071234B7F4CA
:104CEA000480031234B790052BF080037F002290D2
:104CFA00052AE024FE601B14602024FB601424F8BB
:104D0A00601024D0600C243F70169005317402F0B4
:104D1A00800E900531740AF080069005317410F007
:104D2A00900524E0FFA3E02FFFC374039F90052F93
:104D3A00F0A3EFF0C3648094835013E0FFC37403BD
:104D4A009FFF900524E02FF09005307403F0900542
:104D5A0024E0FF900530E0B50706900529E060637E
:104D6A00900531E0FB3395E0FAF9F890052BE0FC69
:104D7A00A3E0FDA3E0FEA3E0FF126DE8EB2430FF01
:104D8A00900526E0FBA3E0FAA3E0F9900530E0FDE8
:104D9A003395E08D82F583EF12350F90052BE0FCF9
:104DAA00A3E0FDA3E0FEA3E0FFC007900531E0FB0E
:104DBA003395E0FAF9F8D007126DE890052B12380E
:104DCA0079803B900525E06019A3E0FBA3E0FAA3F4
:104DDA00E0F9900530E0FF3395E08F82F583742E79
:104DEA008019900526E0FBA3E0FAA3E0F9900530CC
:104DFA00E0FF3395E08F82F583742012350F90051A
:104E0A0030E0FF14F0D3EF648094804003024D58E1
:104E1A00900529E0602D900532E0602490052FE08E
:104E2A00FFC3648094835018900526E0FBA3E0FA40
:104E3A00A3E0F9EF3395E08F82F583742D12350FD5
:104E4A007F0022E4900530F090052FF0900526E0CF
:104E5A00FBA3E0FAA3E0F9900530E0FFFD3395E00B
:104E6A008D82F5831234D064307041EF3395E0FEC1
:104E7A00EF2401FFE43EFE900524E0FD3395E0FCBB
:104E8A00C3EF9DEC6480F8EE648098501F90053063
:104E9A00E0FF3395E08F82F583742012350F900579
:104EAA002FE004F0900530E004F080A0900532E095
:104EBA00601E900526E0FBA3E0FAA3E0F990052F17
:104ECA00E014FFF03395E08F82F583742D12350FCD
:104EDA00900524E0FFA3E02FFF90052FE0FEC3EF2B
:104EEA009EA3F0C364809483500EE0FFC374039FB3
:0D4EFA00FFC3EE9F90052FF090052FE0FF05
:014F07002287
:0D619300900520EBF0A3EAF0A3E9F0AB05C6
:1061A000900524E024FE600F146014240270169001
:1061B000052E7402F0800E90052E740AF080069071
:1061C000052E7410F090052512388500000000900F
:1061D00005291238850000000190052DEBF090058F
:1061E0002DE0D36480948050030262A9E014F09003
:1061F0000520E0FBA3E0FAA3E0F990052DE0FF33D2
:1062000095E08F82F5831234D0FFC3648094B04050
:10621000CDD3EF648094BF50C5900525E0F8A3E08E
:10622000F9A3E0FAA3E0FBC000C001C002C00390E4
:106230000520E0FBA3E0FAA3E0F990052DE0FF3391
:1062400095E08F82F5831234D0FF3395E0FEEF2482
:10625000D0FFEE34FFFEE4FCFD900529E0F8A3E05A
:10626000F9A3E0FAA3E0FB123673D003D002D00109
:10627000D000EB2FFFEA3EFEE93DFDE83CFC900537
:1062800025123879900529E0F8A3E0F9A3E0FAA3F4
:10629000E0FB90052EE0FF3395E0FEFDFC12367327
:1062A0009005291238790261DE900520E0FBA3E019
:1062B000FAA3E0F91234B7642D6013900001123490
:1062C000D0642D60099000021234D0B42D119005D5
:1062D00025E0FCA3E0FDA3E0FEA3E0FF02379090E1
:0D62E0000525E0FCA3E0FDA3E0FEA3E0FF28
:0162ED00228E
:10641400EF24F6B41400400302650790642D75F070
:1064240003A4C58325F0C5837302646902646C0206
:10643400647502647E02648702648F026497026456
:106444009F0264A70264AF0264B70264BF0264C718
:106454000264CF0264D70264DF0264E70264EF02DD
:1064640064F70264FF0265077BFF7A30796702658F
:106474000D7BFF7A30797202650D7BFF7A30797D6E
:1064840002650D7BFF7A307988807E7BFF7A3079D4
:106494009380767BFF7A30799E806E7BFF7A3079A9
:1064A400A980667BFF7A3079B4805E7BFF7A30798D
:1064B400BF80567BFF7A3079CA804E7BFF7A307971
:1064C400D580467BFF7A3079E0803E7BFF7A307955
:1064D400EB80367BFF7A3079F6802E7BFF7A317938
:1064E4000180267BFF7A31790C801E7BFF7A31791B
:1064F4001780167BFF7A317922800E7BFF7A3179FF
:106504002D80067BFF7A30795C126E2C7F107E27FB
:076514007D007C00026B1901
:036C3000E4FFFE80
:086C3300900520EEF0A3EFF044
:106C3B007FE87E037D007C00126B1990054574FF85
:106C4B00F0A37431F0A37438F0900520E0FFA3E0BB
:106C5B00900548CFF0A3EFF07B017A05792212461D
:106C6B00307B017A057922126E2C7FE87E037D0042
:056C7B007C00026B1912
:0C6FD80090066BEBF0A3EAF0A3E9F022B6
:105C7500E4900520F0A3F0A3F0A304F078247C05BC
:105C8500FD7BFF7A3379A37E007F1E123491900548
:105C950020E4F0A304F0900520E0FEA3E0FFC39408
:105CA50005EE648094804003025D7290054574FFA3
:105CB500F0A37431F0A37443F0A3EEF0A3EFF07BEF
:105CC500017A0579241246307B017A057924126E12
:105CD5002C900520A3E01425E0FFA3E0FEA3E0A897
:105CE50007088005C333CE33CED8F9FF900350E0C3
:105CF5005EFEA3E05F4E7BFF70067A31794F80042C
:105D05007A317963126E2C7F537E007D007C001200
:105D15006B19900520A3E025E014FFA3E0FEA3E0A6
:105D2500A807088005C333CE33CED8F9FF900350BA
:105D3500E05EFEA3E05F4E7BFF70067A31797780E7
:105D4500047A31798C126E2C7BFF7A3179A1126E2F
:105D55002C7F537E007D007C00126B19900521E09D
:105D650004F07006900520E004F0025C9B9005208D
:105D7500E4F0A37405F0900520E0FEA3E0FFC394D2
:105D850007EE648094804003025E5190054574FFE0
:105D9500F0A37431F0A37443F0A3EEF0A3EFF07B0E
:105DA500017A0579241246307B017A057924126E31
:105DB5002C900520A3E025E0FFA3E0FEA3E0A807C3
:105DC500088005C333CE33CED8F9FF900350E05E8B
:105DD500FEA3E05F4E7BFF70067A31794F80047A2F
:105DE500317963126E2C7F537E007D007C00126B2F
:105DF50019900520A3E025E004FFA3E0FEA3E0A899
:105E050007088005C333CE33CED8F9FF900350E0A1
:105E15005EFEA3E05F4E7BFF70067A3179778004E2
:105E25007A31798C126E2C7BFF7A3179A1126E2C26
:105E35007F537E007D007C00126B19900521E004E4
:0C5E4500F07006900520E004F0025D7B88
:015E5100222E
:0D6FCB00E4F5C7F5C5F5C675C380F5C42211
:10002600C2AF75C78375C5018FC4EEF5C375C65AD1
:0C00360075C6A50000AFC2126FCBD2AFA0
:01004200229B
:106BD7009005CEE0FB7A0064AA704DC2AFEB64AAC1
:106BE700700375C783EB64AA4A700375C502EB642B
:106BF700AA4A70028FC49005CEE064AA7003EEF52E
:106C0700C39005CEE0FF7E0064AA70028DC2EF64D8
:106C1700AA4E700375C65A9005CEE064AA70037534
:096C2700C6A500126FCBD2AF220A
:106C80009005CEE0FD7C0064AA7043C2AFED64AA1B
:106C9000700375C783ED64AA4C700375C503ED647A
:106CA000AA4C70028FC49005CEE064AA7003EEF582
:106CB000C39005CEE0FF7E0064AA700375C65AEF4C
:0F6CC00064AA4E700375C6A500126FCBD2AF2227
:1062EE0090046C7444F0A3E4F0FBFA90037BE0FCA2
:1062FE00A3E0FDA3E0FEA3E024FFFFEE34FFFEEDDE
:10630E0034FFFDEC34FFFC90046E12387990046E6D
:10631E00E0FCA3E0FDA3E0FEA3E0FF78071237C583
:10632E007C007D05123543AA04AB0590046EA3A331
:10633E00A3E0547FFFE4FDFCEF701C9005CE74AA21
:10634E00F0AF03EF25E0FEE42400FFEE3444FE122E
:10635E006C80E49005CEF090046EE0FCA3E0FDA30B
:10636E00E0FEA3E0FF78021237D8A312387990042A
:10637E0072E0FCA3E0FDA3E0FEA3E0FFE4FB7A0ADB
:10638E00F9F81236FEAC00AD01AE02AF0390047206
:10639E00123879900472A3A3E0FEA3E0FF90046D7F
:1063AE00E02FF090046CE03EF09004687401F0A3CE
:1063BE007403F0A3747BF09005CE74AAF0E49004FD
:1063CE006BF090046CE0FEA3E0FF900468E0FBA38A
:1063DE00E0FAA3E0F91234B7FD126BD7900469E42A
:1063EE0075F00112359890046DE004F0700690047B
:1063FE006CE004F090046BE004F0E0C3940440C23F
:05640E00E49005CEF052
:016413002266
:104F080090043C7444F0A3E4F090044A12388500FD
:104F180000000090044E12388500002710E4900429
:104F280066F0A3F0900466E0FEA3E0FFC39480EE71
:104F380094024003025119EF7802C333CE33CED81E
:104F4800F92400FFEE344490043CF0A3EFF0900401
:104F5800387401F0A37404F0A3743EF090043CE0AC
:104F6800FEA3E0FF120026900438E0FBA3E0FAA3BA
:104F7800E0F9EF1234FD900439E475F00112359828
:104F880090043DE02401FF90043CE03400FE120050
:104F980026900438E0FBA3E0FAA3E0F9EF1234FD11
:104FA800900439E475F00112359890043DE024022C
:104FB800FF90043CE03400FE120026900438E0FB29
:104FC800A3E0FAA3E0F9EF1234FD900439E475F098
:104FD8000112359890043DE02403FF90043CE0342E
:104FE80000FE120026900438E0FBA3E0FAA3E0F9E3
:104FF800EF1234FD900456E0FCA3E0FDA3E0FEA30D
:10500800E0FF90045212387990043EE0FCA3E0FDE2
:10501800A3E0FEA3E0FF900456123879900466E0FE
:10502800B40219A3E0B47F1490043EE0FCA3E0FDB1
:10503800A3E0FEA3E0FF90045A12387974FFFFFE44
:10504800FD7C7F90043EE0F8A3E0F9A3E0FAA3E03A
:10505800FBD31237B440030250F690044AE0FCA395
:10506800E0FDA3E0FEA3E0FF90043EE0F8A3A3A3C5
:10507800E01237B44078900452E0FCA3E0FDA3E0CE
:10508800FEA3E0FF90045E123879900456E0FCA37A
:10509800E0FDA3E0FEA3E0FF9004621238799004DB
:1050A8003EE0FCA3E0FDA3E0FEA3E0FF90044A126B
:1050B8003879900466E0FEA3E0FFE4FCFD90044E1E
:1050C800123879E4FFFEFDFC90044EE0F8A3E0F905
:1050D800A3E0FAA3E0FBC31237B4701290045AE0BD
:1050E800FCA3E0FDA3E0FEA3E0FFA312387990043F
:1050F8003EE0FCA3E0FDA3E0FEA3E0FFA3123879A5
:10510800900467E004F07006900466E004F0024F33
:105118002CE4900371F07F107E27FDFC90044EE094
:10512800F8A3E0F9A3E0FAA3E0FBC31237B4605098
:1051380090045EE0F8A3E0F9A3E0FAA3E0FBA3E0A3
:10514800FCA3E0FDA3E0FEA3E0C39BFFEE9AFEED07
:1051580099FDEC98FCE47B01FAF9F8C31237B470B6
:105168001490044AE0FCA3E0FDA3E0FEA3E0FF9056
:10517800037B02387990037B1238850000000022F7
:0D51880090037B123885000000001262EEDB
:0151950022F7
