:03000000025FDEBE
:0C5FDE00787FE4F6D8FD75812102602573
:060003004452320D0A0018
:105558004105BC0042058900004105BD7F4205BEEA
:1055680000004205B9000042058D00004105C40055
:105578004105C000410588004105C30041058C0074
:1055880041058B00410569004105BB004105C50186
:105598004105C2004105C10042056A00004E055B95
:1055A80010000378000000000000000000004E0515
:1055B800C620000378000000000000000000004E34
:1055C80005AB001003780000000000000000000098
:1055D8004E059D0020037800000000000000000038
:1055E800004E058F00400378000000000000000016
:1055F80000004E056C0080037800000000000000E9
:105608000000004E057A0100037800000000000049
:04561800000000008E
:10668C00438E80E4F589758A67758CFCD28CD2A90F
:03669C00D2AF2258
:10660100E4F5957596207580FF7590FF75A0FF756F
:0B661100B0FF12668C12661C02000E27
:10664B007E017F107D007B017A0279751234F29006
:06665B00026E7401F02242
:104F4B00900558EBF0A3EAF0A3E9F0900558E0FBCD
:104F5B00A3E0FAA3E0F9900002123147FFAEF0E5AF
:104F6B00F0600302518CEF24F6605224F6700302BA
:104F7B00503E24F670030250C8241E600302518C6D
:104F8B0090000CE4F5F012319E12311CFF90026779
:104F9B00E055F0FEA3E05F4E600302518C90055884
:104FAB00E0FBA3E0FAA3E0F9900002E475F00A122B
:104FBB00319E90000412340E000000002290055820
:104FCB00E0FBA3E0FAA3E0F912311CFF900267E0CB
:104FDB0055F0FEA3E05F4E703C900004123363EF7C
:104FEB002401FFE43EFEE43DFDE43CFC9000041292
:104FFB0033AD900004123363E47B14FAF9F8C31257
:10500B00330C400302518C900558E0FBA3E0FAA34C
:10501B00E0F9025182900558E0FBA3E0FAA3E0F916
:10502B0090000412340E00000000900002E4F5F032
:10503B00025189900558E0FBA3E0FAA3E0F9900038
:10504B0004123363EF2401FFE43EFEE43DFDE43C38
:10505B00FC9000041233AD12311CFF900267E05537
:10506B00F0FEA3E05F4E601F900558E0FBA3E0FA53
:10507B00A3E0F9900002E475F01E12319E90000837
:10508B0012340E00000000900558E0FBA3E0FAA3D9
:10509B00E0F9900004123363E47B907A01F9F8C3D2
:1050AB0012330C400302518C900558E0FBA3E0FA3D
:1050BB00A3E0F990000CE475F001025189900558BA
:1050CB00E0FBA3E0FAA3E0F9900004123363EF24B2
:1050DB0001FFE43EFEE43DFDE43CFC900004123392
:1050EB00AD12311CFF900267E055F0FEA3E05F4E5E
:1050FB006070900558E0FBA3E0FAA3E0F99000087C
:10510B00123363EF2401FFE43EFEE43DFDE43CFC7F
:10511B009000081233AD900008123363E47B14FA4D
:10512B00F9F8C312330C5059900558E0FBA3E0FA81
:10513B00A3E0F990000C123147640145F090000C8C
:10514B00700575F0038004E475F00212319E900037
:10515B000412340E00000000900002740375F07806
:10516B00801C900558E0FBA3E0FAA3E0F99000083F
:10517B0012340E00000000900002E475F01412319E
:02518B009E2262
:106526007B017A0579AB124F4B7B017A05799D1277
:106536004F4B7B017A05796C124F4B7B017A0579BB
:106546007A124F4B7B017A05795B124F4B7B017AAE
:066556000579C6024F4B5F
:1065DB00E49005ADF0A3F090059FF0A3F090056E4D
:1065EB00F0A3F090057CF0A3F090055DF0A3F09084
:0665FB0005C8F0A3F02228
:104CEE00900567E0FEA3E0FF4E605A90038974EFD3
:104CFE00F0A374FFF0EF64014E701C90026B04F091
:104D0E0090056AE07002A3E0703B90056AF0A30480
:104D1E00F09005C2F0802E900567E07004A3E06469
:104D2E000290026B7004740280027403F0E490052A
:104D3E0067F0A3F090055DF0A3F090056AF0A3F084
:104D4E009005C204F09005D2E0FEA3E0FF4E605A3B
:104D5E0090038974DFF0A374FFF0EF64014E701CB2
:104D6E0090026B04F090056AE07002A3E0703B9035
:104D7E00056AF0A304F09005C2F0802E9005D2E0F3
:104D8E007004A3E0640290026B70047402800274DB
:104D9E0003F0E49005D2F0A3F09005C8F0A3F090D4
:104DAE00056AF0A3F09005C204F09005B7E0FEA3EB
:104DBE00E0FF4E605A90038974FFF0A374EFF0EF9A
:104DCE0064014E701C90026B04F090056AE0700254
:104DDE00A3E0703B90056AF0A304F09005C2F0804A
:104DEE002E9005B7E07004A3E0640290026B70048D
:104DFE00740280027403F0E49005B7F0A3F09005FE
:104E0E00ADF0A3F090056AF0A3F09005C204F09007
:104E1E0005A9E0FEA3E0FF4E605A90038974FFF0EF
:104E2E00A374DFF0EF64014E701C90026B04F090DF
:104E3E00056AE07002A3E0703B90056AF0A304F0EF
:104E4E009005C2F0802E9005A9E07004A3E06402E4
:104E5E0090026B7004740280027403F0E49005A952
:104E6E00F0A3F090059FF0A3F090056AF0A3F090E8
:104E7E0005C204F0900578E0FEA3E0FF4E605A9064
:104E8E00038974FFF0A3747FF0EF64014E701C90E1
:104E9E00026B04F090056AE07002A3E0703B90058F
:104EAE006AF0A304F09005C2F0802E900578E070B1
:104EBE0004A3E0640290026B700474028002740317
:104ECE00F0E4900578F0A3F090056EF0A3F0900555
:104EDE006AF0A3F09005C204F0900586E0FEA3E010
:104EEE00FF4E605890038974FEF0A304F0EF640146
:104EFE004E701B90026B04F090056AE07002A3E006
:104F0E00703A90056AF0A304F09005C2F022900565
:104F1E0086E07004A3E0640290026B700474028059
:104F2E00027403F0E4900586F0A3F090057CF0A3E4
:0D4F3E00F090056AF0A3F09005C204F02287
:03000B0002655C2F
:10655C00C0E0C0F0C083C082C0D075D00890034AA0
:10656C00E004F07006900349E004F01265881265AF
:0C657C0026D0D0D082D083D0F0D0E03206
:105F5100E49005BCF012660112664B12518D90035C
:105F610049E0FFA3E09005BECFF0A3EFF07BFF7AFD
:105F71000079031264E99005C1E0703C9005BEE030
:105F8100FEA3E0FFC390034AE09FFF900349E09E18
:105F9100FED3EF94F4EE9401401EE0FEA3E0FF90E7
:105FA10005BEEEF0A3EFF09005B9EEF0A3EFF0120D
:105FB10065DB9005C17401F09005C1E0B401B71231
:105FC100004690035FE0B4020C123A0B90035F7439
:0D5FD10003F0E4A3F01235E3124CEE8099CA
:0D561C004A064C00FF00FF00FF00FF00FFEA
:0C61CA00C290C2907F007E007D007C002F
:0661D6009005301233D1E8
:1061DC009005341233DD00000000900530E0FCA384
:1061EC00E0FDA3E0FEA3E0FFA3E0F8A3E0F9A3E049
:1061FC00FAA3E0FBC31232F6502800900534E0FC01
:10620C00A3E0FDA3E0FEA3E0FFE4FAF9F8EF24011C
:10621C00FFEA3EFEE93DFDE83CFC9005341233D12B
:02622C0080B838
:01622E00224D
:10669F00D290D290D291D2911261CEC291C2912258
:106661001261CAC291C2911261CED290D2901261CE
:06667100CED291D291226D
:0F66AF001261CAD290D2901261CEC290C29022D4
:08641D00900656EEF0A3EFF02B
:10642500E4A3F01261CE1261CA900657E030E0068F
:10643500D291D2918004C291C2911261CE9006563A
:10644500E0C313F0A3E013F0D290D2901261CE9086
:0B6455000658E004F0E0C3940840C8C3
:016460002219
:10606A001266EE12669F7F407E0012641D1266E978
:10607A001266AF1266EE12666112669F7FC07E00DC
:10608A0012641D1266E91266AF1266EEE490065CAF
:10609A00F090065CE0FFC394055025EF25E0244C00
:1060AA00F582E43406F583E0FEA3E0FF12641D12D4
:1060BA0066E91266AF1266EE90065CE004F080D1E3
:1060CA0012666112669F7F8C7E0012641D1266E959
:0960DA001266AF1266EE02666167
:0566E900C294D29522CD
:0566EE00D294D29522B8
:1027FD003030303030003130313031003130313027
:10280D00320031303130330031303130340032303C
:10281D003130310000312D00322D00332D00342D9B
:10282D0000352D00362D00372D00382D00392D00A7
:10283D00313000313100313200313300313400316B
:10284D003500313600313700313800313900323042
:10285D000032310032320032330032340032350072
:10286D003236003237003238003239003330002032
:10287D0020204131002020204132002020204133F2
:10288D000020202041340020202041350020202030
:10289D0041360020202041370020202041380020E3
:1028AD00202041390020204131300036303430397C
:1028BD000020462D2D300020462D2D310020462D97
:1028CD002D320020462D2D330020462D2D34002095
:1028DD00462D2D3500BDF8D6BD00CDCBD6BD00CFD4
:1028ED00C2C1CF00B4EACCF500CDA3D6BD00C6F46D
:1028FD00B6AF00CDA3D6B900B7A2D6BD00CAD5D606
:10290D00BD00B4F2BDBA00502D2D00452D2D005146
:10291D00322D2D2D00502D2D203100502D2D2032FA
:10292D0000502D2D2030002020203131002020207E
:10293D00313200202020313300202020313400207E
:10294D002020313500202020313600202020313745
:10295D000020202031380020202031390020202077
:10296D003230002020203231002020203232002051
:10297D002045727200D6BDB3A400C0A6CAFD00D713
:10298D00DCCAFD005738444628352C332C2731310D
:10299D003136363232323636333333333327293B01
:1029AD000D0A0057384D5528302C302C38302C3826
:1029BD00302C312C32293B0D0A0057385545283122
:1029CD00293B0D0A004453363428312C322C27254F
:1029DD0073272C3135293B0D0A0053585928302CBB
:1029ED0030290D0A00573855452833293B0D0A006B
:1029FD00573855452834293B0D0A004453363428A1
:102A0D00312C312C272573272C3135293B0D0A000C
:102A1D004453343828312C38362C27C7EBCAE4C838
:102A2D00EBC3DCC2EB3A272C3135293B0D0A0044B0
:102A3D0053363428312C3130302C272573272C3147
:102A4D0035293B0D0A00434C532830293B0D0A0014
:102A5D00256400445334382833302C3139302C2739
:102A6D002573272C31293B0D0A0044533634283267
:102A7D0030302C3130302C272573272C3135293B24
:102A8D000D0A00B4FAC2EBCAE4C8EBBBADC3E60055
:102A9D00B4EDCEF3CCE1CABE00D6B1BDD3B5F7B21D
:102AAD00CECAFD00B5C8B4FDB7B5D0A3BDE1B9FB25
:102ABD0000D1D3CAB1CFD4CABED0DEB8C4B3F6B438
:102ACD00ED00B2E2CAD4B2CECAFDC9E8D6C300D178
:102ADD00A7CFB0C4A3CABD0050494328302C302C19
:102AED003138293B0D0A004453343828352C313305
:102AFD00302C2730782558272C3135293B0D0A00ED
:102B0D004453323428332C32302C272573272C3163
:102B1D0035293B0D0A00D6F7BFD8B0E5B4EDCEF39D
:102B2D00A3BA00B2D9D7F7B0E5B4EDCEF3A3BA008E
:102B3D004453343828352C38302C27452D2D256419
:102B4D00272C31293B0D0A004453343828352C38B5
:102B5D00302C27452D2D2564272C3135293B0D0A89
:102B6D000044533634283133302C322C272573272B
:102B7D002C3135293B0D0A0044533634283133307E
:102B8D002C312C272573272C3135293B0D0A004478
:102B9D00533634283133302C312C272564272C31F2
:102BAD0035293B0D0A00573855452832293B0D0A6A
:102BBD0000445334382832302C36302C27257327D7
:102BCD002C3135293B0D0A00445334382832302C32
:102BDD0036302C272573272C31293B0D0A005358ED
:102BED00592830293B0D0A00535047283537293BCA
:102BFD000D0A0025730031362D352D31320053501D
:102C0D0047283630293B0D0A0053504728363229C4
:102C1D003B0D0A00535047283633293B0D0A00441B
:102C2D005334382833302C3139302C27257320205C
:102C3D00272C31293B0D0A00535047283331293BAE
:102C4D000D0A00535047283332293B0D0A005350CB
:102C5D0047283333293B0D0A005350472833342975
:102C6D003B0D0A00535047283335293B0D0A0053BD
:102C7D005047283336293B0D0A0053504728333728
:102C8D00293B0D0A00535047283338293B0D0A00C4
:102C9D00535047283339293B0D0A005350472834E8
:102CAD0030293B0D0A00535047283431293B0D0A7A
:102CBD0000535047283432293B0D0A005350472802
:102CCD003433293B0D0A00535047283434293B0D2A
:102CDD000A00535047283435293B0D0A00535047FD
:102CED00283436293B0D0A00535047283437293BE9
:102CFD000D0A00535047283438293B0D0A00535014
:102D0D0047283439293B0D0A0053504728353029BF
:102D1D003B0D0A00434C53282564293B0D0A000046
:102D2D00010047FF27FD10000200000103B3010160
:102D3D000057FF280312001E00000103B502010118
:102D4D004FFF280914000E00000103B6030101BF57
:102D5D00FF280F16000E00000103B70401022FFF1C
:102D6D0028151C000700000103B805010147FF28C5
:102D7D001B1A000100000103B90000000000000053
:102D8D000000000000000000FF28214000000001AD
:102D9D0003580405000001869F000000000000009C
:102DAD000000000000000000000000000000000016
:102DBD000000000000000000000000000000000006
:102DCD0000000000000000000000000000000000F6
:102DDD00000000FEB0EDF9B3DBDFF0FFFB000040BB
:102DED0080003F065B4F666D7D077F6F771F4E3D01
:102DFD004F47FB771F4E3D7971FB37060E07386A3B
:102E0D00761D7367055B313E1C5C313BED000000A8
:102E1D00620800771F4E3D4F47FB370638070E6A95
:102E2D00151D6773505B783E1C5C313BED00000057
:102E3D000000000000000000000000000000000085
:102E4D000000000000000000000000000000000075
:102E5D000000000000000000000000000000000065
:102E6D000000000000000000000000000000000055
:102E7D000000000000000000000000000000000045
:102E8D000000000000000000000000000000000035
:102E9D000000000000000000000000000000000025
:102EAD000000000000000000000000000000000015
:102EBD000000000000000000000000000000000005
:102ECD0000000000000000000000000000000000F5
:102EDD0000000000000000000000000000000000E5
:102EED0000000000000000000000000000000000D5
:102EFD0000000000000000000000000000000000C5
:0C2F0D00000000000000000000000000B8
:105629004102740042026C00004103B90041039237
:10563900004603B3021E0E0701004803930402FF4C
:105649002D95FF2D2C420389000041026B00410278
:105659006E014100430042039C00004203A5000083
:105669004302710000004203B100004203900000B0
:1056790041000A0041000B004200100000420016E0
:105689000000420018000042001A000041001C00FE
:1056990042001D000042001F00004200210000429C
:1056A90000230000420025000042002700004200BC
:1056B90029000042002B000042002D000042003169
:1056C9000000420033000141003700420038000069
:1056D90041003A0042003B000042003D0000420008
:1056E90000000042000200004200040000420006DF
:0756F9000000420008000060
:0460E3007BFFE4FD5E
:1060E70090051AEBF0A3EAF0A3E9F0A3EDF0900511
:1060F7001AE0FBA3E475F001123106A9F0FA123099
:106107000FFF3395E0FE74BF2FF582742D3EF583A4
:10611700E493FD3395E0FC90051DE0FF04F0EF33B9
:1061270095E0FEEF25E0FFEE33FE744C2FF5827409
:10613700063EF583ECF0A3EDF090051DE0C3648007
:106147009486501090051AE0FBA3E0FAA3E0F91239
:05615700300F709A22D8
:103D9A00E490051DF0EF12349F3E1F003E30013EB5
:103DAA0041023E52033E63043E74053E85063E963A
:103DBA00073EA7083EB8093EC90A3EDA0B3EEB0C9D
:103DCA003EFC0D3F0D0E3F1E0F3F2F103F40113F8F
:103DDA0051123F62133F73143F84153F95163FA655
:103DEA00173FB7183FC8193FD91A3FEA1B3FFB1CB8
:103DFA00400C1D401D50402E51403E52404E5340F3
:103E0A005E54406E55407E56408E57409E5840AE96
:103E1A0059000040BC90051A74FFF0A37428F0A35F
:103E2A007422F00240BC90051A74FFF0A37428F0C3
:103E3A00A37425F00240BC90051A74FFF0A37428FD
:103E4A00F0A37428F00240BC90051A74FFF0A37422
:103E5A0028F0A3742BF00240BC90051A74FFF0A35B
:103E6A007428F0A3742EF00240BC90051A74FFF077
:103E7A00A37428F0A37431F00240BC90051A74FFB1
:103E8A00F0A37428F0A37434F00240BC90051A74AD
:103E9A00FFF0A37428F0A37437F00240BC90051A0F
:103EAA0074FFF0A37428F0A3743AF00240BC9005A2
:103EBA001A74FFF0A37428F0A3743DF00240BC907A
:103ECA00051A74FFF0A37428F0A37440F00240BCF2
:103EDA0090051A74FFF0A37428F0A37443F002400B
:103EEA00BC90051A74FFF0A37428F0A37446F0027C
:103EFA0040BC90051A74FFF0A37428F0A37449F02B
:103F0A000240BC90051A74FFF0A37428F0A3744C05
:103F1A00F00240BC90051A74FFF0A37428F0A37451
:103F2A004FF00240BC90051A74FFF0A37428F0A366
:103F3A007452F00240BC90051A74FFF0A37428F082
:103F4A00A37455F00240BC90051A74FFF0A37428BC
:103F5A00F0A37458F00240BC90051A74FFF0A374E1
:103F6A0028F0A3745BF00240BC90051A74FFF0A31A
:103F7A007428F0A3745EF00240BC90051A74FFF036
:103F8A00A37428F0A37461F00240BC90051A74FF70
:103F9A00F0A37428F0A37464F00240BC90051A746C
:103FAA00FFF0A37428F0A37467F00240BC90051ACE
:103FBA0074FFF0A37428F0A3746AF00240BC900561
:103FCA001A74FFF0A37428F0A3746DF00240BC9039
:103FDA00051A74FFF0A37428F0A37470F00240BCB1
:103FEA0090051A74FFF0A37428F0A37473F00240CA
:103FFA00BC90051A74FFF0A37428F0A37476F0023B
:10400A0040BC90051A74FFF0A37428F0A37479F0E9
:10401A000240BC90051A74FFF0A37428F0A3747CC4
:10402A00F00240BC90051A74FFF0A37428F0A37440
:10403A0082F0807E90051A74FFF0A37428F0A374AE
:10404A0088F0806E90051A74FFF0A37428F0A374A8
:10405A008EF0805E90051A74FFF0A37428F0A374A2
:10406A0094F0804E90051A74FFF0A37428F0A3749C
:10407A009AF0803E90051A74FFF0A37428F0A37496
:10408A00A0F0802E90051A74FFF0A37428F0A37490
:10409A00A6F0801E90051A74FFF0A37428F0A3748A
:1040AA00ACF0800E90051A74FFF0A37428F0A37484
:1040BA00B2F090051AE0FBA3E475F001123106A9EB
:1040CA00F0FA12300FFF3395E0FE74BF2FF58274B9
:1040DA002D3EF583E493FD3395E0FC90051DE0FF4A
:1040EA0004F0EF3395E0FEEF25E0FFEE33FE744C6B
:1040FA002FF58274063EF583ECF0A3EDF090051DD2
:10410A00E0C364809486501090051AE0FBA3E0FA9D
:08411A00A3E0F912300F709AC6
:01412200227A
:04646100AC07A905D6
:10646500AD04E9FF3395E0FEECFB3395E0FAEB2F45
:10647500FFEA3EFEEDFB3395E0FAC3EB9FEE648049
:10648500F8EA6480985018EB25E0FFEA33FE744C77
:0F6495002FF58274063EF583E4F0A3F00D80C36B
:0164A40022D5
:0D5D1300900431EFF07B017A0379A7E4FDE5
:0E5D200090051AEBF0A3EAF0A3E9F0A3EDF072
:105D2E00E4A3F090051AE0FBA3E0FAA3E0F99000DB
:105D3E0001123028B42E0790051EE0B4014D9005D7
:105D4E001AE0FBA3E475F001123106A9F0FA123045
:105D5E000FFF3395E0FE74BF2FF582742D3EF58351
:105D6E00E493FD3395E0FC90051DE0FF04F0EF3366
:105D7E0095E0FEEF25E0FFEE33FE744C2FF58274B6
:105D8E00063EF583ECF0A3EDF0805D90051AE0FB86
:105D9E00A3E475F001123106A9F0FA12300FFF33A9
:105DAE0095E0FE74BF2FF582742D3EF583E4934487
:105DBE0080FD3395E0FC90051DE0FF04F0EF339578
:105DCE00E0FEEF25E0FFEE33FE744C2FF5827406F5
:105DDE003EF583ECF0A3EDF090051E7401F09005F6
:105DEE001BE475F0011230F090051DE0C364809441
:065DFE00865003025D3136
:015E0400227B
:10571900E4FDEDFF3395E0FEEF25E0FFEE33FE7487
:10572900752FF974023EFA7B01EDFF3395E0FEEF28
:105739007803C333CE33CED8F92447F58274003EBB
:10574900F583EBF0A3EAF0A3E9F00DEDB402C3E4AD
:10575900FDEDFF3395E0FEEF25E0FFEE33FE747BB0
:105769002FF974023EFA7B01EDFF3395E0FEEF78E5
:1057790003C333CE33CED8F92457F58274003EF5EE
:1057890083EBF0A3EAF0A3E9F00DEDB41EC3E4FD49
:10579900EDFF3395E0FEEF25E0FFEE33FE74B92F00
:1057A900F974023EFA7B01EDFF3395E0FEEF7803D1
:1057B900C333CE33CED8F9244FF58274013EF58335
:1057C900EBF0A3EAF0A3E9F00DEDB40EC3E4FDEDAF
:1057D900FF3395E0FEEF25E0FFEE33FE74D72FF996
:1057E90074023EFA7B01EDFF3395E0FEEF7803C3C7
:1057F90033CE33CED8F924BFF58274013EF583EB5D
:10580900F0A3EAF0A3E9F00DEDB40EC3E4FDEDFF5A
:105819003395E0FEEF25E0FFEE33FE74F52FF974C2
:10582900023EFA7B01EDFF3395E0FEEF7803C333C7
:10583900CE33CED8F9242FF58274023EF583EBF0EE
:10584900A3EAF0A3E9F00DEDB407C3E4FDEDFF33DE
:1058590095E0FEEF25E0FFEE33FE74052FF97403A2
:105869003EFA7B01EDFF3395E0FEEF7803C333CEBB
:1058790033CED8F92447F58274013EF583EBF0A3C2
:0A588900EAF0A3E9F00DEDB401C34D
:0158930022F2
:05448800900430EFF08C
:10448D003395E0FE902D3675F00FEF123443EE7537
:10449D00F00FA42583F583E493FF74019390043505
:1044AD00CFF0A3EFF0900435E475F001123106AFB3
:1044BD00F0FE120026900434EFF0E4900437F0A3E0
:1044CD00F0900430E0FFFD3395E0FC902D3575F054
:1044DD000FED123443EC75F00FA42583F583E493AF
:1044ED00FB3395E0FA900437E0FCA3E0FDC39BEAB3
:1044FD006480F8EC648098400302462EEFB40449C2
:10450D003395E0FE902D2D75F00FEF123443EE75BF
:10451D00F00FA42583F583E493FB740193FA7402E1
:10452D0093F9C003C002C001EDAE047803C333CECE
:10453D0033CED8F9D001D002D00329F9EA3EFA9052
:10454D000003740175F0C2804C900430E0FF339588
:10455D00E0FE902D2D75F00FEF123443EE75F00F38
:10456D00A42583F583E493FB740193FA740293F904
:10457D00C003C002C001EDAE047803C333CE33CE09
:10458D00D8F9D001D002D00329F9EA3EFA90000300
:10459D00740375F0E712319E900430E0FF3395E01F
:1045AD00FE902D2D75F00FEF123443EE75F00FA424
:1045BD002583F583E493FB740193FA740293F990C8
:1045CD000437E0FEA3E07803C333CE33CED8F9FF32
:1045DD0029F9EA3EFA900005E4F5F012319E9004B7
:1045ED0030E0FD3395E0FC902D2D75F00FED12347C
:1045FD0043EC75F00FA42583F583E493FB740193CD
:10460D00FA7402932FF9EA3EFA900007E41230672C
:10461D00900438E004F07006900437E004F0024492
:10462D00CE902D69E493FB740193FA740293F99083
:10463D000033740175F0F412319E900430E0146073
:10464D002014602D14603A146047146054240570D2
:10465D005E9004317401F0A37402F0A37475F080C0
:10466D004E9004317401F0A37402F0A3747BF080BA
:10467D003E9004317401F0A37402F0A374B9F0807C
:10468D002E9004317401F0A37402F0A374D7F0805E
:10469D001E9004317401F0A37402F0A374F5F08040
:1046AD000E9004317401F0A37403F0A37405F0901F
:1046BD000430E0FF3395E0FE902D3375F00FEF12CF
:1046CD003443EE75F00FA42583F583E493FF740155
:1046DD0093900435CFF0A3EFF0E4A3F0A3F0900492
:1046ED0030E0FF3395E0FE902D3575F00FEF12346D
:1046FD0043EE75F00FA42583F583E493FF3395E026
:10470D00FEEF2401FFE43EFEC3900438E09FEE640B
:10471D0080F8900437E06480985063900435E47518
:10472D00F001123106AFF0FE120026900431E0FBCD
:10473D00A3E0FAA3E0F9EF123055900432E475F0DE
:10474D00011230F0900435E475F001123106AFF02E
:10475D00FE120026900431E0FBA3E0FAA3E0F9EF8E
:10476D00123055900432E475F0011230F090043897
:0E477D00E004F07006900437E004F00246EB12
:01478B00220B
:10622F00E4FDEDFF3395E0FEEF25E0FFEE33FE7466
:10623F00752FF58274023EF583E0FAA3E0FB740933
:10624F002FF58274033EF583EAF0A3EBF00DEDB466
:10625F0002D0E4FDEDFF3395E0FEEF25E0FFEE33D6
:10626F00FE747B2FF58274023EF583E0FAA3E0FB08
:10627F00740D2FF58274033EF583EAF0A3EBF00D56
:04628F00EDB41ED07C
:0162930022E8
:105E0500900430747FF0A374F9F0E4FF900430E45B
:105E150075F00112310685F082F583E493FEEFFDFE
:105E25003395E0FC74322DF58274043CF583EEF075
:105E35000FEFB407D7900437E0FE3395E090037376
:105E4500F0A3CEF0E07F00FE900373F0A3EFF09097
:105E55000438E0FDEDFF900373EEF0A3EFF07C074F
:105E65007DD012309BA3ECF0A3EDF0E4900430F06C
:105E7500A3F0900376E025E0FF900375E033FE1272
:105E85000026900432EFF0900376E025E0FF9003C2
:105E950075E033FEEF2401FFE43EFE120026900478
:105EA50033EFF0FB900432E0FDAF05900377E4F0AB
:0B5EB500A3EFF0EBFFA3E4F0A3EFF07D
:015EC00022BF
:10518D00C2A57A2879B81260E3900395E0F9A3E0FF
:10519D00FAA3E090042BC9F0A3EAF0A3E9F0E490A0
:1051AD00042FF090042BE0FBA3E0FAA3E0F99004A8
:1051BD002FE0FFFD3395E08D82F5837415123432A7
:1051CD0012346FEA494B600890042FE004F080D34D
:1051DD0090041EEFF0900398E0FBA3E0FAA3E0F932
:1051ED00900040EBF0A3EAF0A3E9F0900001123437
:1051FD006F900044EBF0A3EAF0A3E9F0E490042FE4
:10520D00F0900040E0FBA3E0FAA3E0F990042FE05A
:10521D00FFFD3395E08D82F583740F123432123019
:10522D0028B5070B12448890042FE004F080D2902B
:10523D00042FE0900269F012622F125719E49003C7
:10524D009BF090026FF09003A3F0A304F0E49003A1
:10525D008CF090034DF090034BF0A3F090034EF0C3
:10526D009003541233DD00000000E4900371F0123E
:10527D005E05900377E0FFA3E09002EFCFF0A3EF80
:10528D00F0900379E0FFA3E09002F1CFF0A3EFF0EF
:10529D00E4900372F090042FF090042FE0FFC364AC
:1052AD008094874003025338EF3395E0FEEF780288
:1052BD00C333CE33CED8F9FF24D7F58274023EF531
:1052CD0083E0FCA3E04C702B74D92FF58274023E61
:1052DD00F583E0FEA3E04E701A900372E0FF900498
:1052ED002FE0FE7401A806088002C333D8FC4F904E
:1052FD000372F090042FE0FF3395E0FEEF7802C3C8
:10530D0033CE33CED8F9FF24B9F58274023EF5833E
:10531D00E4F0A3F074BB2FF58274023EF583E4F044
:10532D00A3F090042FE004F00252A6124A60125C22
:10533D001CE47B107A27F9F890037BE0FCA3E0FDD9
:10534D00A3E0FEA3E0FF123256900305EEF0A3EFAB
:10535D00F0E4900349F0A3F0900350F0A3F074FF34
:06536D00900267F0A3F0BE
:015373002217
:0853740090051AEEF0A3EFF022
:10537C009005BC74AAF090051AE0FEA3E0902D33C2
:10538C0075F00F123443EE75F00FA42583F583E40A
:10539C0093FE740193FF12633DE49005BCF09005FD
:1053AC001AE0FEA3E0FFEE7072EF14602014602D83
:1053BC0014603A1460471460542405705E90051C08
:1053CC007401F0A37402F0A37475F0804E90051C68
:1053DC007401F0A37402F0A3747BF0803E90051C62
:1053EC007401F0A37402F0A374B9F0802E90051C24
:1053FC007401F0A37402F0A374D7F0801E90051C06
:10540C007401F0A37402F0A374F5F0800E90051CE7
:10541C007401F0A37403F0A37405F090051AE0FE78
:10542C00A3E0902D3375F00F123443EE75F00FA4FA
:10543C002583F583E493FF740193900520CFF0A3AB
:10544C00EFF0E490051FF090051AE0FEA3E0902D1C
:10545C003575F00F123443EE75F00FA42583F583E8
:10546C00E493FF3395E0FEEF2401FFE43EFE90054C
:10547C001FE0C39FEE6480F8748098400302554E81
:10548C009005BC74AAF0900520E0FEA3E0FF900507
:10549C001CE0FBA3E0FAA3E0F912300FFD126294BA
:1054AC00900520E0FEA3E0FF120026AE0790051C3D
:1054BC00E0FBA3E0FAA3E0F912300F6E6007900353
:1054CC004CE04420F090051DE475F0011230F09092
:1054DC000521E004F07006900520E004F090052012
:1054EC00E0FEA3E0FF90051CE0FBA3E0FAA3E0F9CB
:1054FC0012300FFD126294900520E0FEA3E0FF1223
:10550C000026AE0790051CE0FBA3E0FAA3E0F9121D
:10551C00300F6E600790034CE04420F090051DE4C2
:10552C0075F0011230F0900521E004F07006900542
:10553C0020E004F0E49005BCF090051FE004F002BC
:0B554C00545312622F9005887401F088
:015557002231
:1063D500EF14601814601D14602214602714602CDB
:1063E500240570337BFF7A2879BE80267BFF7A28C7
:1063F50079C4801E7BFF7A2879CA80167BFF7A28AC
:1064050079D0800E7BFF7A2879D680067BFF7A28A3
:0864150079DCE4FD1260E722CE
:1000460078357C047D017BFF7A2E793F7E007F64C4
:10005600122FE9E490049AF0A3F0A3F0A3F078A39A
:100066007C047D017BFF7A2E79A3FE7F06122FE9A1
:1000760078A97C047D017BFF7A2E79A97E007F0614
:10008600122FE978AF7C047D017BFF7A2E79AF7E53
:10009600007F06122FE9A2A4E4335401FF90026701
:1000A600E0FCA3E054FEFDECFEED4FFF900267EE90
:1000B600F0A3EFF0A2A3E433540125E0FFE433FEFE
:1000C600900267E0FCA3E054FDFDEC4EFEED4FFF11
:1000D600900267EEF0A3EFF0A2A2E4FE335401789B
:1000E60002C333CE33CED8F9FF900267E0FCA3E01B
:1000F60054FBFDEC4EFEED4FFF900267EEF0A3EFD2
:10010600F0A2A1E4FE3354017803C333CE33CED834
:10011600F9FF900267E0FCA3E054F7FDEC4EFEED1C
:100126004FFF900267EEF0A3EFF0A2A0E433540174
:10013600C4F8540FC868FFE4C454F048FE90026740
:10014600E0FCA3E054EFFDEC4EFEED4FFF9002679E
:10015600EEF0A3EFF0A2B5E4FE3354017805C33305
:10016600CE33CED8F9FF900267E0FCA3E054DFFD62
:10017600EC4EFEED4FFF900267EEF0A3EFF0A2B358
:10018600E4FE3354017806C333CE33CED8F9FF905C
:100196000267E0FCA3E054BFFDEC4EFEED4FFF907E
:1001A6000267EEF0A3EFF0A2B2E4FE335401780743
:1001B600C333CE33CED8F9FF900267E0FCA3E054F8
:1001C6007FFDEC4EFEED4FFF900267EEF0A3EFF0E1
:1001D600A2A6E4335401FE900267E054FEFCA3E0BD
:1001E600FDEC4EFFED900267CFF0A3EFF0A2A7E47F
:1001F60033540125E0FE900267E054FDFCA3E0FDC8
:10020600EC4EFFED900267CFF0A3EFF0A292E4333D
:10021600540125E025E0FE900267E054FBFCA3E0D4
:10022600FDEC4EFFED900267CFF0A3EFF0A293E452
:1002360033540133333354F8FE900267E054F7FC2D
:10024600A3E0FDEC4EFFED900267CFF0A3EFF0A226
:1002560096E4335401C454F0FE900267E054EFFC78
:10026600A3E0FDEC4EFFED900267CFF0A3EFF0A206
:1002760097E4335401C43354E0FE900267E054DF40
:10028600FCA3E0FDEC4EFFED900267CFF0A3EFF08C
:10029600A2CCE4335401C4333354C0FE900267E069
:1002A60054BFFCA3E0FDEC4EFFED900267CFF0A338
:1002B600EFF0A2CDE4335401C43333335480FE90BF
:1002C6000267E0547FFCA3E0FDEC4EFFED90026771
:1002D600CFF0A3EFF0900267E0FFA3E0900016CF07
:1002E600F0A3EFF090001AE0FEA3E0FF900016E006
:1002F600FCA3E0FD6F7002EC6E6079900349E0FEAE
:10030600A3E0FF900027EEF0A3EFF0900023E0704B
:1003160002A3E0701190002FEEF0A3EFF090000A18
:10032600E04401F0800790000AE054FEF090001FC0
:10033600E0FEA3E0FF900349E0FAA3E0FBC39FFFC2
:10034600EA9EFED3EF9432EE9400402590001AEC1C
:10035600F0A3EDF090001DEAF0A3EBF0E49000218D
:10036600F0A3F0A3F0A3F0900033F0A304F002048E
:100376007B02047490002FE0FEA3E0FF900349E0A7
:10038600FCA3E0FDC39FFFEC9EFED3EF9432EE94F8
:1003960000400790000AE054FEF0900027E0FEA31C
:1003A600E0FFC3ED9FFFEC9EFED3EF9430EE947515
:1003B6004034900349E0FFA3E0900027CFF0A3EF7D
:1003C600F090002DE07002A3E0701B9003A3E07094
:1003D60004A3E06411600F9003A3E4F0A304F0E427
:1003E60090002BF0A3F090001DE0FEA3E0FF900329
:1003F60049E0FCA3E0FDC39FFFEC9EFED3EF9432E1
:10040600EE9400406990001FECF0A3EDF09000160A
:10041600E0FEA3E0F47002EEF4605A900023E07070
:1004260002A3E07050900022E004F07006900021D4
:10043600E004F0D3900022E09464900021E0648010
:1004460094804031900023E4F0A304F0900033E45C
:10045600F0A304F0E4900031F0A3F0900025ECF056
:10046600A3EDF0900021E4F0A3740AF08007E49075
:100476000016F0A3F0900023E07002A3E0605B900A
:100486000025E0FEA3E0FF900349E0FCA3E0FDC3E6
:100496009FFFEC9EFED3EF9464EE9400403C9000E8
:1004A60032E004F07006900031E004F0900031E094
:1004B600FEA3E0FFD39432EE648094804007A3E469
:1004C600F0A3740AF0EF4E6008900025ECF0A3ED5F
:1004D600F0900018E4F0A374FFF0900016E0FEA37D
:1004E600E0FF4E6021A3E0FCA3E0FDEF6D7002EE9D
:1004F6006C600C900016A3A3EEF0A3EFF08007E467
:10050600900016F0A3F0900016E0FEA3E0FFF47052
:1005160003EE64FD6012EFF47003EE64FB6009EF16
:10052600F47003EE64F77042900371E0FF60209070
:100536000016E0B4FB19A3E0B4FF14EF3395E0FE18
:10054600EF2414FFE43E90034BF0A3EFF0801B90E2
:1005560005C27401F0900016E0FFA3E0900389CF76
:10056600F0A3EFF090026B7402F090003DE0FEA362
:10057600E0FFEE7076EF24F6602524F6604D241435
:10058600706920946690003DE4F0A3740AF090032D
:1005960049E0FFA3E090003BCFF0A3EFF0804C20B2
:1005A600944290003BE0FEA3E0FFC390034AE09F25
:1005B600FF900349E09EFED3EF9464EE9400402B37
:1005C60090003DE4F0A37414F0802030941D900553
:1005D600C27401F090038974FFF0A374EEF09002E8
:1005E6006B7402F0E490003DF0A3F090026CE0FE24
:1005F600A3E0FF64084E70030207BF900016E0FCFC
:10060600A3E08CF01234C5079C7FFF078EBFFF075F
:100616007EDFFF076EEFFF075EF7FF074EFBFF0764
:100626003EFDFF072DFEFF071CFF7F06FDFFBF06F1
:10063600ECFFDF07B1FFEE06DBFFEF067EFFF706F6
:100646004DFFFE000007BFEF64024E600C90026C87
:10065600E07004A3E06403700DE490038EF0A3F051
:1006660090026CF0A3F09003B1E07004A3E0640183
:1006760060030207BF0207A890026CE0FEA3E0FF3A
:1006860064024E6012EF64034E701B9003A3E07089
:1006960004A3E06401700FE490026CF0A3F09003F1
:1006A6008EF0A3F0801D90026CE07002A3E0701340
:1006B6009003A3E07004A3E06401700790026CF05D
:1006C600A304F09003B1E07004A3E06401600302A8
:1006D60007BF0207A890027174FFF0A37428F0A365
:1006E60074E2F00207BF90027174FFF0A37428F061
:1006F600A374E7F00207BF9003B1E07004A3E064BF
:10070600017007900390F0A304F090026CE4F0A34C
:100716007408F00207BF90027174FFF0A37428F00A
:10072600A374ECF00207BF90027174FFF0A3742863
:10073600F0A374F1F00207BF90027174FFF0A37486
:1007460028F0A374F6F0807190027174FFF0A37420
:1007560028F0A374FBF0806190027174FFF0A3741B
:1007660029F0A37400F0805190027174FFF0A37415
:1007760029F0A37405F0804190027174FFF0A37410
:1007860029F0A3740AF080319003B1E07004A3E06D
:1007960064017025800C9003B1E07004A3E064014D
:1007A6007017900390F0A304F0800E90027174FF0E
:1007B600F0A37429F0A3740FF09003A3E0FEA3E066
:1007C600FFEE6003021906EF24FE7003020CBA1452
:1007D60070030210A114700302144B24FB70030271
:1007E60018CA24F97003020F79147003020EC32489
:1007F600106003021906900016E0FEA3E08EF012C8
:1008060034C509887FFF0912BFFF0A6CFFBF0A04BF
:10081600FFF7087BFFFB08E2FFFD0828FFFE00004C
:100826000A86E490003AF090002BE07002A3E07094
:100836002990039E7430F0A3F0A3F0A3F0A3F090E8
:10084600038B7404F07B017A03799EE4FD1260E762
:100856009003A3E4F0A37402F022900043E0B401F5
:100866000AE4F0900037F09003B9F0E490002BF022
:10087600A3F0020A86E490003AF0900023E07002AA
:10088600A3E0604590002BE07002A3E0703B90036C
:100896007BE0FCA3E0FDA3E0FEA3E0FFA3E0F8A35A
:1008A600E0F9A3E0FAA3E0FBC312330C601B90034C
:1008B6007BE0FCA3E0FDA3E0FEA3E0FFA31233D19F
:1008C6009005BB7401F0125EC190026EE064016097
:1008D60003020A8690058B04F0E48029E490003A2E
:1008E600F0900349E0FFA3E0900029CFF0A3EFF0DA
:1008F600A3E4F0A37405F090026EE06003020A869A
:1009060090058B04F090026EF0020A86E490003A9D
:10091600F090002BE07002A3E06003020A869000CC
:1009260040E0FBA3E0FAA3E0F990000112346F90D7
:100936000044EBF0A3EAF0A3E9F0E490041FF0A36F
:10094600F0A304F0E490026FF090000B04F0E49042
:10095600002DF0A3F0FC7D0FFFFE123089900040C1
:10096600E0FBA3E0FAA3E02FF9EA3EFA90000912B1
:10097600302890042EF0D36480948050030227FC24
:100986008072E490003AF090002BE07002A3E060E1
:1009960003020A86900040E0FBA3E0FAA3E0F99088
:1009A600000112346F900044EBF0A3EAF0A3E9F0E3
:1009B600E490041FF0A304F0A3F090026FF09000FF
:1009C6000BF0E490002DF0A3F0FC7D0FFFFE12303B
:1009D60089900040E0FBA3E0FAA3E02FF9EA3EFA93
:1009E60090000912302890042EF0D3648094805031
:1009F600030227FC9003A3E4F0A37403F022900003
:100A060043E07037900023E07002A3E0601090008E
:100A16003AE0C3648094A8500AE004F08005E490AC
:100A2600003AF0900349E0FFA3E0900029CFF0A33D
:100A3600EFF0A3E4F0A37402F080459005C27401C0
:100A4600F090038974FFF0A374BFF090026B7402F8
:100A5600F0E490002BF0A3F0900043F0900037F004
:100A66009003B9F0801A900043E070149005690471
:100A7600F090002BE4F0A37404F09000437401F0AE
:100A860090002BE07002A3E06003020BF490039445
:100A9600E0FF90000EE4F0A3EFF090026FE0900408
:100AA60030F090034BE07002A3E06003020B4A9023
:100AB600034DE0704CA3E0B401109003B97401F04B
:100AC600900037E0700B04F0800790000AE054FDB8
:100AD600F090037FE0F8A3E0F9A3E0FAA3E0FB902F
:100AE600037BE0FCA3E0FDA3E0FEA3E0C39BFFEED7
:100AF6009AFEED99FDEC98FC9003581233D1020B47
:100B06007B7A2979141260E390034DE0FB547FFF52
:100B16003395E0FEFDFC9000121233D1EB30E7086E
:100B2600900037E0700204F012479A900431EFF01B
:100B36007B017A0379AA7D03125D209003B97401C3
:100B4600F0020BBF90034BE0FEA3E0FF640B4E6088
:100B560006EF640C4E703490034EE0B4011090031F
:100B6600B97401F0900037E0700B04F08007900034
:100B76000AE054FDF0900358E0FCA3E0FDA3E0FE7C
:100B8600A3E0FF124794125D13802E7BFF7A29792A
:100B960018E4FD1260E7900037E0700204F090035D
:100BA6004B12478C900431EFF07B017A0379AA7DD2
:100BB60003125D20E49003B9F090038CE070030209
:100BC6000C9A900393E0FF90039BE004FEF0D3EFB2
:100BD6006480F8EE6480985003020C9AE4F0900268
:100BE6006FE004F0E490000EF0A3F0020C9A90007F
:100BF6002BE07004A3E06402703390035212478C1A
:100C0600125D13900029E0FEA3E0FFC390034AE0C3
:100C16009FFF900349E09EFED3EF94D0EE940740E9
:100C26007390002BE4F0A37403F0020C9A90002B4F
:100C3600E07004A3E06403700590035080359000D3
:100C46002BE07004A3E06404701A7BFF7A29791CF8
:100C5600FD1260E7900037E0700204F09003B9746B
:100C660001F0803090002BE07004A3E0640570244E
:100C7600900373E0FEA3E0FFE4FCFD900012123344
:100C8600D1900012A3A3E0FEA3E0FFE4FDFC12470F
:100C960094125D1390003AE06428600302190EF086
:100CA6009003A3F0A37410F090002BE4F0A3740457
:100CB600F002102A900016E0FEA3E08EF01234C572
:100CC6000D2DFFF70CE7FFFB0CFDFFFD0CDAFFFE19
:100CD60000000EA3E490026FF09003A3F0A304F0CB
:100CE6002290038BE014F0C3648094804003020ECC
:100CF600A37404F0020EA390038BE0FF3395E0FE8D
:100D0600749E2FF58274033EF583E004F0D364806D
:100D160094B95003020EA3749E2FF58274033EF518
:100D2600837430F0020EA390042F7401F0900269D0
:100D3600E0FF90042FE0FEC3EF6480F8EE64809835
:100D460040030227FC900040E0FBA3E0FAA3E0F991
:100D5600EE75F00FA4FFE92FF9E43AFA90000412B9
:100D6600346F12300FFF90039EE06F6003020E9AFD
:100D760090042FE0FF3395E0FE7C007D0F12308952
:100D8600900040E0FBA3E0FAA3E02FF9EA3EFA90D8
:100D9600000412346F900001123028FF90039FE088
:100DA6006F6003020E9A900002123028FF9003A093
:100DB600E06F6003020E9A900003123028FF900342
:100DC600A1E06F6003020E9A900004123028FF9093
:100DD60003A2E06F6003020E9A90042FE0FFB404B2
:100DE600289002EBE07002A3E0700A9002EDE0703A
:100DF60002A3E06014900372E020E50D900301E089
:100E06007002A3E060030227FCEF3395E0FE90003A
:100E16002DF0A3EFF07C007D0F123089900040E0AA
:100E2600FBA3E0FAA3E02FF9EA3EFA9000011234A0
:100E36006F900044EBF0A3EAF0A3E9F090002DE0F8
:100E4600FEA3E0FF90041FF0E4A3F0A304F0E490F7
:100E5600026FF0123089900040E0FBA3E0FAA3E0B5
:100E66002FF9EA3EFA90000912302890042EF0D3AA
:100E76006480948040099003A3E4F0A37403F09087
:100E8600042EE0D36480949440037414F090049983
:100E9600740AF02290042FE004F0020D3390001043
:100EA600E07002A3E0600D900023E07002A3E07002
:100EB600030218357B017A03799E0218FF9000160B
:100EC600E0FEA3E08EF01234C50ED7FFFE00000F41
:100ED6000BE490002BF0A3F090038B7404F0E490E5
:100EE600039BF090041F7478F09004217401F0E4E1
:100EF60090026FF09003A3F0A304F0E4900037F0A3
:100F06009003B9F02290034BE0FEA3E0FF640B4E82
:100F16006006EF640C4E7044EF640B4E70147BFF5A
:100F26007A297922FD1260E7900037E0702504F0F7
:100F3600802190034BE07004A3E0640C6003021967
:100F46000E7BFF7A297928FD1260E7900037E07062
:100F56000204F09003B97401F002190E7BFF7A299E
:100F6600792EE4FD1260E7E4900037F09003B9F0C3
:100F760002190E900016E0FEA3E08EF01234C510A2
:100F8600987FFF108FBFFF1047DFFF1050EFFF1055
:100F96003EF7FF1035FBFF107DFDFF1074FEFF10BE
:100FA6006BFF7F1086FFBF1059FFDF1062FFEF1047
:100FB60016FFFB0FEEFFFD0FC5FFFE0000190EE446
:100FC60090002BF0A3F090038B7404F0E490039B45
:100FD600F090041F7478F09004217401F0E49002FC
:100FE6006FF09003A302190A900392E0C364809401
:100FF600815009E004F09005C37401F0900392E07B
:10100600FF1263D5900392E0D36480948002190E98
:10101600900392E0D3648094804009E014F0900538
:10102600C37401F0900392E0FF1263D502190E7BA0
:10103600FF7A2979340218FF7BFF7A29793A021858
:10104600FF7BFF7A2979400218FF7BFF7A297946D0
:101056000218FF7BFF7A29794C0218FF7BFF7A2959
:1010660079520218FF7BFF7A2979580218FF7BFF15
:101076007A29795E0218FF7BFF7A2979640218FFC4
:101086007BFF7A29796A0218FF7BFF7A2979700239
:1010960018FF7BFF7A2979760218FF900016E0FE8A
:1010A600A3E08EF01234C5115BFFF710EEFFFB11C3
:1010B60024FFFD10C1FFFE000011BEE490002BF0DE
:1010C600A3F090038B7404F0E490039BF090041F4C
:1010D6007478F09004217401F0E490026FF09003AC
:1010E600A3F0A304F00211BE90026FE0FF14F0EF2C
:1010F600700990042EE01490026FF090026FE09059
:101106000420F0F0A37401F0900499E0FF14F0EFCE
:10111600D3940A40030211BE741DF00211BE90045E
:101126002EE0FF90026FE004FEF0C3EF6480F8EE5D
:101136006480984002E4F090026FE0900420F0A3EF
:101146007401F0900499E0FF04F0EFC3941D406829
:10115600740AF0806390041FE0FDB4042790026FC8
:10116600E0FF74017E00A807088005C333CE33CEA6
:10117600D8F9FF900372E0FB3395E05EFEEF5B4E1D
:101186006036802EEDB4032A90026FE0A2E713FFCB
:1011960074017E00A807088005C333CE33CED8F984
:1011A600FF900372E0FD3395E05EFEEF5D4E600852
:1011B600800090000B7405F090041FE0FF7008900B
:1011C600000BE0600204F090000BE064056003028F
:1011D600135AF090026FE0FE900430F090038B7487
:1011E60004F09002707402F0EFB40331EEA2E7133C
:1011F600FF74017E00A807088005C333CE33CED81E
:10120600F9FF900372E0FD3395E05EFEEF5D4E70F0
:101216000C9003851233DD00000000802090042727
:10122600E0FBA3E0FAA3E0F912344F12311CFFAE43
:10123600F0EE3395E0FDFC9003851233D19003A3C5
:10124600E4F0A37404F0900430E0FF3395E0FEEF81
:101256007803C333CE33CED8F9FF900044E0FBA326
:10126600E0FAA3E02FF9EA3EFA900427EBF0A3EAAE
:10127600F0A3E9F09002707402F012344FC00390AC
:10128600051E7403F0E4A3F0A304F0A37403F0A313
:1012960074A7F0E4A3F0A37402F0D003FD1247BDD7
:1012A600900431EFF090038D7403F090039E743038
:1012B600F0A3F0740314606D14604314600302130A
:1012C6004B900431E0FFFD3395E0FC74A72DF582C9
:1012D60074033CF583E0FE9003A0F0BE2003743057
:1012E600F0EF3395E0FE74A82FF58274033EF58384
:1012F600E0FD9003A1F0BD20037430F08038900328
:10130600A07420F0900431E0FF3395E0FE74A82F1E
:10131600F58274033EF583E0FD9003A1F0BD200342
:101326007430F080119003A07420F0A3F090043183
:10133600E0FF3395E0FE74A92FF58274033EF58332
:10134600E09003A2F0E4900035F0A3F09003A3F040
:10135600A37404F0D390000FE0940090000EE09484
:1013660000400FA3E024FFF090000EE034FFF002EF
:10137600190E900394E0FF90000EE4F0A3EFF090B6
:10138600026FE0FDFF3395E0FEEF7803C333CE3303
:10139600CED8F9FF900044E0FBA3E0FAA3E02FF9D2
:1013A600EA3EFA900427EBF0A3EAF0A3E9F09004F2
:1013B6001FE0B40331EDA2E713FF74017E00A80716
:1013C600088005C333CE33CED8F9FF900372E0FD13
:1013D6003395E05EFEEF5D4E700C9003851233DDB3
:1013E600000000008020900427E0FBA3E0FAA3E0C1
:1013F600F912344F12311CFFAEF0EE3395E0FDFCCE
:101406009003851233D190026FE0FF123D9A90054A
:101416001E7403F0E4A3F07B01A304F0A37403F0AD
:10142600A374A7F0E4A3F0A37402F07A0379857D90
:10143600041247BD900431EFF024A7F9E43403FA0F
:101446007B010218C3900016E0FEA3E08EF0123472
:10145600C515D4FFF71477FFFB1527FFFD146BFFA7
:10146600FE0000182190041FE060030218180217FE
:10147600ED90026FE0FF3395E0FEEF7803C333CEC5
:1014860033CED8F9FF900044E0FBA3E0FAA3E02FA7
:10149600F9EA3EFA90000712302830E003021821DC
:1014A600900385E0FCA3E0FDA3E0FEA3E0FFC006F9
:1014B600C007900033E0FEA3E0FBAA06EA3395E0FE
:1014C600F9F8D007D006C3EF9BFFEE9AFEED99FD23
:1014D600EC98FC9003851233D1900427E0FBA3E03F
:1014E600FAA3E0F9900005123147FFAEF0EE33950E
:1014F600E0FDFC900385E0F8A3E0F9A3E0FAA3E0A1
:10150600FBC31232F64003021821900427E0FBA326
:10151600E0FAA3E0F9900005123147FFAEF002159C
:10152600C590026FE0FF3395E0FEEF7803C333CE3C
:1015360033CED8F9FF900044E0FBA3E0FAA3E02FF6
:10154600F9EA3EFA90000712302830E0030218212B
:10155600900385E0F8A3E0F9A3E0FAA3E0FB90008E
:1015660033E0FEA3E0FFEE3395E0FDFCEB2FFFEA50
:101576003EFEE93DFDE83CFC9003851233D1900424
:1015860027E0FBA3E0FAA3E0F9900003123147FF3E
:10159600AEF0900433EEF0A3EFF0EE3395E0FDFCF1
:1015A600900385E0F8A3E0F9A3E0FAA3E0FBD312E9
:1015B60032F65003021821900433E0FEA3E0FFEE5A
:1015C6003395E0FDFC9003851233D102182190007B
:1015D60023E07002A3E060030217E77B017A037938
:1015E6009E900270E090051EF07D051258949003BF
:1015F600851233D1900427E0FBA3E0FAA3E0F9902B
:101606000003123147FFAEF0EE3395E0FDFC900388
:1016160085E0F8A3E0F9A3E0FAA3E0FBD31232F6E3
:1016260040030217E7900427E0FBA3E0FAA3E0F9E2
:10163600900005123147FFAEF0EE3395E0FDFC90C9
:101646000385E0F8A3E0F9A3E0FAA3E0FBC31232B6
:10165600F650030217E77E007F02E47066EF14601F
:101666004814602524FE705B900385E0FCA3E0FD32
:10167600A3E0FEA3E0FF900427E0FBA3E0FAA3E0CB
:10168600F912344F123393803A900385A3A3E0FEF8
:10169600A3E0FF900427E0FBA3E0FAA3E0F91234ED
:1016A6004FEE8FF012317F801A900385A3A3A3E03B
:1016B600FF900427E0FBA3E0FAA3E0F912344FEF12
:1016C6001230559003A0E0B4300B7420F0A3E0B4C0
:1016D60030037420F07B017A0379A07D02125D202D
:1016E60090041FE0640260030217DB90026FE0A221
:1016F600E713FDFF3395E0FEEF7802C333CE33CE1A
:10170600D8F9FF24B9F58274023EF583E0FAA3E026
:10171600FB74D72FF58274023EF583E0FEA3E06BDF
:101726007002EE6A60030217D0EDFF3395E0FEEF1C
:101736007802C333CE33CED8F9FF24BBF5827402C8
:101746003EF583E0FAA3E0FB74D92FF58274023EDE
:10175600F583E0FEA3E06B7002EE6A706D90037293
:10176600E0FF7401A805088002C333D8FC4F90033C
:1017760072F0EDFF3395E0FEEF25E0FFEE33FE74E9
:10178600F52FF58274023EF583E4F0A3F09004325F
:10179600F0900432E0FFC3ED6480F8EF6480985067
:1017A60022EF3395E0FEEF25E0FFEE33FE74F52FD2
:1017B600F58274023EF583E4F0A3F0900432E0046F
:1017C600F080CE7F047E001253749003A3E4F0A34E
:1017D6007403F0800C90041FE0FF3395E0FE125373
:1017E6007490041FE0702B90002BF0A3F090038BF5
:1017F6007404F0E490039BF090041F7478F0900456
:10180600217401F0E490026FF09003A3F0A304F0BA
:1018160080099003A3E4F0A37403F0900010E07035
:1018260002A3E06017900023E07002A3E0700D9021
:10183600038BE0FF7D0112646102190E90026FE0D6
:10184600FF123D9A90051E7405F0E4A3F07B01A3F8
:1018560004F0A37403F0A374A7F0E4A3F0A3740246
:10186600F07A0379857D041247BD900431EFF03399
:1018760095E0FE74A72FF58274033EF583E0FF9092
:1018860003A0F0BF20037430F0900431E0FF3395DD
:10189600E0FE74A82FF58274033EF583E0FD900305
:1018A600A1F0BD20037430F074A92FF58274033EB5
:1018B600F583E09003A2F07B017A0379A07D021202
:1018C6005D208044900425E0FEA3E0FFC390034A18
:1018D600E09FFF900349E09EFED3EF94E8EE940369
:1018E6004011900423E0FE3395E09003A3F0A3CECD
:1018F600F080157BFF7A29797CE4FD1260E7800889
:101906009003A3E4F0A304F09003A3E0FEA3E0FF9A
:0F19160090038EE06E7003A3E06F7003021DBAA2
:101925009004B574FFF0A37429F0A37482F0A37436
:10193500FFF0A37429F0A37487F0A374FFF0A374D8
:1019450029F0A3748CF09003B1E07004A3E0640166
:101955007007900390F0A304F09003A3E0FEA3E0CA
:10196500FF90038EEEF0A3EFF0EE6003021DBAEFD9
:1019750012349F199A011ACF021AE6031C3E051C60
:101985008C061CBC071CEC081D1C091D4B101D7A80
:101995001100001DBA1262ED7BFF7A29799112645C
:1019A500E97F537E007D007C001261D67BFF7A299A
:1019B50079B01264E97F537E007D007C001261D608
:1019C5007BFF7A2979C71264E97BFF7A2979C712E7
:1019D50064E97F537E007D007C001261D69005335B
:1019E50074FFF0A37429F0A374D2F09004B5E0F964
:1019F500A3E0FAA3E0900536C9F0A3EAF0A3E9F065
:101A05007B017A0479351241887B017A0479351294
:101A150064E97F537E007D007C001261D67BFF7AEE
:101A25002979E71264E97BFF7A2979F21264E97F63
:101A3500537E007D007C001261D690053374FFF063
:101A4500A37429F0A374D2F09004B8E0F9A3E0FAE6
:101A5500A3E0900536C9F0A3EAF0A3E9F07B017A8B
:101A65000479351241887B017A0479351264E97B62
:101A7500FF7A2979E71264E97F537E007D007C00B7
:101A85001261D67BFF7A2979FD1264E990053374DA
:101A9500FFF0A3742AF0A37408F09004BBE0F9A347
:101AA500E0FAA3E0900536C9F0A3EAF0A3E9F07BDC
:101AB500017A0479351241887B017A0479351264FB
:101AC500E97BFF7A2979E7021C7B1262ED7F537E61
:101AD500007D007C001261D67BFF7A2A791D021CED
:101AE5007BE4FFFE1262F090041FE0704EA3E070ED
:101AF5004A90053374FFF0A3742AF0A37408F0A389
:101B050074FFF0A37428F0A37422F07B017A0479A2
:101B1500351241887B017A0479351264E97F537E59
:101B2500007D007C001261D690053374FFF0A3742C
:101B35002AF0A3743CF09004B5804990041FE0702E
:101B450057A3E06401705190053374FFF0A3742A24
:101B5500F0A37408F0A374FFF0A37428F0A3742510
:101B6500F07B017A0479351241887B017A04793555
:101B75001264E990053374FFF0A3742AF0A3743C52
:101B8500F09004B8E0F9A3E0FAA3E0900536C9F0B7
:101B9500A3EAF0A3E9021DA77BFF7A2A7953126411
:101BA500E9900420E0240AFF125B15900420E0FF71
:101BB5003395E0FEEF7803C333CE33CED8F9FF90EB
:101BC5000044E0FBA3E0FAA3E02FF9EA3EFA900413
:101BD500A0EBF0A3EAF0A3E9F012344F12311CFF99
:101BE500AEF0EE3395E0FDFC9003851233D1900302
:101BF50085A3A3E0FEA3E0FF90049CEEF0A3EFF025
:101C050090053374FFF0A3742AF0A3745DF0A3EE7E
:101C1500F0A3EFF07B017A0479A312418890053394
:101C250074FFF0A3742AF0A37460F0A37401F0A309
:101C35007404F0A374A3021DA77BFF7A2A795312BB
:101C450064E97F537E007D007C001261D6900533E8
:101C550074FFF0A3742AF0A37477F0A374FFF0A3C4
:101C6500742AF0A37490F07B017A047935124188C7
:101C75007B017A0479351264E97F537E007D007C0F
:101C8500001261D6021DBA7BFF7A2A79531264E9E4
:101C95007F537E007D007C001261D690053374FF72
:101CA500F0A3742AF0A37477F0A374FFF0A3742A49
:101CB500F0A3749D021DA77BFF7A2A79531264E96C
:101CC5007F537E007D007C001261D690053374FF42
:101CD500F0A3742AF0A37477F0A374FFF0A3742A19
:101CE500F0A374A6021DA77BFF7A2A79531264E933
:101CF5007F537E007D007C001261D690053374FF12
:101D0500F0A3742AF0A37477F0A374FFF0A3742AE8
:101D1500F0A374B1021DA77BFF7A2A79531264E9F7
:101D25007F537E007D007C001261D690053374FFE1
:101D3500F0A3742AF0A37477F0A374FFF0A3742AB8
:101D4500F0A374BE805C7BFF7A2A79531264E97F25
:101D5500537E007D007C001261D690053374FFF040
:101D6500A3742AF0A37477F0A374FFF0A3742AF088
:101D7500A374CF802D7BFF7A2A79531264E97F53B0
:101D85007E007D007C001261D690053374FFF0A3C0
:101D9500742AF0A37477F0A374FFF0A3742AF0A358
:101DA50074DCF07B017A0479351241887B017A0471
:051DB50079351264E91C
:101DBA0090034BE07002A3E07003021F2A9003B164
:101DCA00E07002A3E0600C900390E07004A3E0646A
:101DDA000170259003B1E4F0A304F0E4900390F0BD
:101DEA00A3F0FFFE1262F090034BE0FEA3E0FF7B3C
:101DFA00FF7A2A79E51264E990039CE0FEA3E0FFEA
:101E0A00C390034AE09FFF900349E09EFED3EF94FC
:091E1A00F4EE94015003021F4292
:101E2300900271E0FBA3E0FAA3E0F9EA494B6018E2
:101E3300E490026CF0A3F090038EF0A3F0F990020B
:101E430071C9F0A3F0A3E9F090053374FFF0A37414
:101E53002AF0A374F4F09003A3E0FFA3E090053607
:101E6300CFF0A3EFF07B017A0479351241887B012F
:101E73007A0479351264E9D390034CE0940F90030C
:101E83004BE0940090053374FF4016F0A3742BF0DD
:101E9300A3740DF0A374FFF0A3742BF0A374238039
:101EA30014F0A3742BF0A3740DF0A374FFF0A374C8
:101EB3002BF0A37430F07B017A0479351241887BCF
:101EC300017A0479351264E9900000E07002A3E01E
:101ED300900533600C74FFF0A3742BF0A3743D8062
:101EE3000A74FFF0A3742BF0A37455F090034BE036
:101EF300FFA3E0900536CFF0A3EFF07B017A0479DE
:101F0300351241887B017A0479351264E990000027
:101F1300E07002A3E070047F0180027F0090000064
:051F2300E4F0A3EFF063
:101F280080189003B1E07004A3E06401700C900382
:101F38008EF0A3F09003B1F0A3F09003A3E0FEA30A
:101F4800E0FFEE6003022530EF24FE700302243A1E
:101F58001470030224731470030224992403600389
:101F680002253090026CE0FEA3E0FFEE600302253C
:101F780030EF1470030221E7147003022329147050
:101F88000302237924FB70030223A12408600302BF
:101F980025309003A5E0FEA3E0FFC390034AE09F2D
:101FA800FF900349E09EFED3EF94F4EE94015003B2
:101FB8000221329003B1E07002A3E06003022132F3
:101FC800900349E0FFA3E09003A5CFF0A3EFF090C2
:101FD8000040E0FBA3E0FAA3E0F990000112346F9F
:101FE8009004A0EBF0A3EAF0A3E9F012344F123109
:101FF8001CFF90049AE5F0F0A3EFF090053374FF0E
:10200800F0A3742AF0A3745DF090049AE0FFA3E0B3
:10201800900536CFF0A3EFF07B017A0479A912413D
:1020280088900040E0FBA3E0FAA3E0F990000112D9
:10203800346FE92408F9E43AFA9004A0EBF0A3EA33
:10204800F0A3E9F012344F12311CFF90049CE5F024
:10205800F0A3EFF090053374FFF0A3742AF0A37493
:102068005DF090049CE0FFA3E0900536CFF0A3EF6D
:10207800F07B017A0479AF1241887BFF7A2979C70E
:102088001264E990053374FFF0A3742BF0A3746E07
:10209800F0A37401F0A37404F0A374A9F07B017A8F
:1020A8000479351241887B017A0479351264E97B19
:1020B800FF7A2979F21264E990053374FFF0A3746A
:1020C8002BF0A37485F0A37401F0A37404F0A37437
:1020D800AFF07B017A0479351241887B017A047963
:1020E800351264E97BFF7A2979FD1264E99005339A
:1020F80074FFF0A3742BF0A3749CF0900358E0FCD9
:10210800A3E0FDA3E0FEA3E0FF9005361233D17BE8
:10211800017A0479351241887B017A047935126491
:10212800E97BFF7A2979E71264E9900271E0FBA361
:10213800E0FAA3E0F9EA494B700302253090039CCA
:10214800E0FEA3E0FF900349E0FCA3E0FDC39FFF8E
:0F215800EC9EFED3EF94F4EE9401500302253079
:1021670090039CECF0A3EDF07BFF7A2B79B312641C
:10217700E9900002E07002A3E0900533600C74FF61
:10218700F0A3742BF0A374BE800A74FFF0A3742B22
:10219700F0A374D5F0900271E0F9A3E0FAA3E09000
:1021A7000536C9F0A3EAF0A3E9F07B017A04793593
:1021B7001241887B017A0479351264E97BFF7A2B17
:1021C70079EB1264E9900002E07002A3E070047FEB
:0D21D7000180027F00900002E4F0A3EFF011
:1021E4000225309003B1E07004A3E064017003029F
:1021F4002530E4FFFE1262F07BFF7A2B79F512643E
:10220400E97F107E277D007C001261D67BFF7A294E
:1022140079C71264E990053374FFF0A3742CF0A31A
:102224007400F0A374FFF0A3742CF0A37403F07B88
:10223400017A0479AF12418890053374FFF0A374D6
:102244002BF0A3746EF0A37401F0A37404F0A374D0
:10225400AFF07B017A0479351241887B017A0479E5
:10226400351264E97BFF7A2B79B31264E990053364
:1022740074FFF0A3742AF0A3745DF0900352E0FF9E
:10228400A3E0900536CFF0A3EFF07B017A0479AF99
:1022940012418890053374FFF0A3742BF0A3748566
:1022A400F0A37401F0A37404F0A374AFF07B017A7B
:1022B4000479351241887B017A0479351264E97B0B
:1022C400FF7A2979F21264E990053374FFF0A3745C
:1022D4002BF0A3749CF0900358E0FCA3E0FDA3E072
:1022E400FEA3E0FF9005361233D17B017A047935E1
:1022F4001241887B017A0479351264E97BFF7A29DB
:1023040079E71264E9900349E0FFA3E09003A5CFC5
:10231400F0A3EFF090026DE004F0705690026CE0D0
:1023240004F00225309003A5E0FEA3E0FFC3900370
:102334004AE09FFF900349E09EFED3EF94D0EE94D1
:10234400075003022530E4FFFE1262F07BFF7A2C73
:10235400790B1264E9900349E0FFA3E09003A5CF51
:10236400F0A3EFF090026DE004F0700690026CE0D0
:1023740004F00225309003A5E0FEA3E0FFC3900320
:102384004AE09FFF900349E09EFED3EF9488EE94C9
:10239400135003022530E49003A502242C9003B1CA
:1023A400E07004A3E06401700302253090039CE014
:1023B400FEA3E0FF900349E0FCA3E0FDC39FFFEC14
:0B23C4009EFED3EF94F4EE9401403F26
:1023CF0090039CECF0A3EDF0E4FFFE1262F090009E
:1023DF0004E07002A3E07BFF60067A2C791680047C
:1023EF007A2C79211264E9900004E07002A3E07066
:0F23FF00047F0180027F00900004E4F0A3EFF060
:10240E00900016E0FEA3E08EF01234C52426FFF7EE
:10241E002431FFFE00002530900271E4F0A3F0A3FA
:10242E00F08001E490026CF0A3F08056E490043248
:10243E00F0900432E0FFC36480948540030225309F
:10244E00EF3395E0FE749E2FF58274033EF583E024
:10245E00FD74A32FF58274043EF583EDF0900432E3
:10246E00E004F080CC900016E0FEA3E0FF64FB7069
:10247E0002EEF4600CEF64FD7002EEF460030225D0
:10248E0030E490038EF0A3F002253090041FE0FF9D
:10249E00702CA3E07028900044E0FBA3E0FAA3E0C8
:1024AE00F99004A0EBF0A3EAF0A3E9F012344F1276
:1024BE00311CFD90049AE5F0F0A3EDF08035EF703D
:1024CE0032900420E0B4012B900044E0FBA3E0FA2C
:1024DE00A3E02408F9E43AFA9004A0EBF0A3EAF0A2
:1024EE00A3E9F012344F12311CFF90049CE5F0F07A
:1024FE00A3EFF0900385A3A3E0FEA3E0FF90049C5E
:10250E00EEF0A3EFF090053374FFF0A3742AF0A35E
:10251E00745DF0A3EEF0A3EFF07B017A0479A312C1
:10252E0041889003A3E0FEA3E0FF64024E6009EF32
:10253E0064044E60030226BE9003B1E07004A3E073
:07254E00640170030226BEC8
:1025550078B57C047D017BFF7A2E79B57E007F649A
:10256500122FE990039CE0FEA3E0FF900349E0FCF5
:10257500A3E0FDC39FFFEC9EFED3EF942CEE9401E8
:0525850050030226BE18
:10258A0090039CECF0A3EDF0900006E07002A3E04B
:10259A0060557B017A0479A3126677D3900009E02B
:1025AA009FEE6480F8900008E06480989005337488
:1025BA00FF500AF0A3742AF0A374608008F0A37491
:1025CA002CF0A3742CF0A37401F0A37404F0A37488
:1025DA00A3F07B017A0479B51241887B017A0479E8
:1025EA00B51264E90226A69003A3E07004A3E0648E
:1025FA0002700590038B8029E4900432F090043233
:10260A00E0FF3395E0FE74A32FF58274043EF58350
:10261A00E06008900432E004F080E2900432E014B2
:10262A00F0E0FF3395E0FE74A32FF58274043EF5C3
:10263A0083E0900519F074A32FF58274043EF583A4
:10264A00745FF090053374FFF0A3742CF0A3742C1C
:10265A00F0A37401F0A37404F0A374A3F07B017ACD
:10266A000479B51241887B017A0479B51264E9903C
:10267A0003A3E07004A3E064029005197007E0FF69
:10268A0090038B8005E0FF900432E0FD3395E0FC77
:10269A0074A32DF58274043CF583EFF0900006E0F4
:1026AA007002A3E070047F0180027F00900006E4BC
:0426BA00F0A3EFF0AA
:1026BE0090001CE0701304F0900349E0FFA3E0903B
:1026CE00000CCFF0A3EFF0803B90000CE0FEA3E0F7
:1026DE00FFC390034AE09FFF900349E09EFED3EFB5
:1026EE009464EE9400401D900010E07002A3E07020
:1026FE00047F0180027F00900010E4F0A3EFF0E46D
:10270E0090001CF0900037E024F6603124F66074DF
:10271E0024F670030227CA241D60030227F19003DA
:10272E0049E0FFA3E0900038CFF0A3EFF090000A4D
:10273E00E04402F0900037740AF00227F19003B9DA
:10274E00E070067E017FF480047E007F32900038B8
:10275E00E0FCA3E0FDC390034AE09DFD900349E039
:10276E009CFCD3ED9FEC9E407AE0FFA3E0900038F6
:10277E00CFF0A3EFF090000AE054FDF09000377414
:10278E0014F0805F9003B9E07E077FD0900038E0B0
:10279E00FCA3E0FDC390034AE09DFD900349E09C3D
:1027AE00FCD3ED9FEC9E403BE0FFA3E0900038CFC2
:1027BE00F0A3EFF0900037741EF0802790034BE0EB
:1027CE007002A3E0701790034DE05480FF3395E044
:1027DE004F700AA3E07006900037F0800690003725
:0E27EE007401F090000AE06003D2A522C2A59B
:0127FC0022BA
:10478C00E0FEA3E0FFE4FCFD9000121233D1900593
:10479C001E7405F0E4A3F07B01A304F0A37403F0F2
:1047AC00A374A7F0E4A3F0A37402F07A0079127D4D
:0147BC0004F8
:0547BD0090051DEDF068
:1047C2006008E0D36480948440037F002290051D3A
:1047D200E014F0E490052CF09005251233DD000082
:1047E200000090051DE0B4031990052CE06008124A
:1047F20033431232E880031233439005251233D13A
:10480200804D90051DE0FFB4012990052CE0601455
:1048120012311CFDC3E49DFCE495F0900525F0A344
:10482200CCF0802B12311CFD900525E5F0F0A3EDB4
:10483200F0801CEF701690052CE0600712300FF428
:1048420004800312300F900525F080037F00229030
:104852000524E024FE601B14602024FB601424F86D
:10486200601024D0600C243F701690052B7402F067
:10487200800E90052B740AF0800690052B7410F0C0
:1048820090051EE0FFA3E02FFFC374039F9005294C
:10489200F0A3EFF0C3648094835013E0FFC374036A
:1048A2009FFF90051EE02FF090052A7403F09005FB
:1048B2001EE0FF90052AE0B50706900523E060633D
:1048C20090052BE0FB3395E0FAF9F8900525E0FC22
:1048D200A3E0FDA3E0FEA3E0FF1264A5EB2430FFFA
:1048E200900520E0FBA3E0FAA3E0F990052AE0FDA1
:1048F2003395E08D82F583EF123067900525E0FC59
:10490200A3E0FDA3E0FEA3E0FFC00790052BE0FBC0
:104912003395E0FAF9F8D0071264A5900525123311
:10492200D1803B90051FE06019A3E0FBA3E0FAA34E
:10493200E0F990052AE0FF3395E08F82F583742E2B
:104942008019900520E0FBA3E0FAA3E0F990052A84
:10495200E0FF3395E08F82F5837420123067900573
:104962002AE0FF14F0D3EF6480948040030248B041
:10497200900523E0602D90052CE06024900529E04D
:10498200FFC3648094835018900520E0FBA3E0FAF3
:10499200A3E0F9EF3395E08F82F583742D1230672F
:1049A2007F0022E490052AF0900529F0900520E08E
:1049B200FBA3E0FAA3E0F990052AE0FFFD3395E0BE
:1049C2008D82F58312302864307041EF3395E0FE1A
:1049D200EF2401FFE43EFE90051EE0FD3395E0FC6E
:1049E200C3EF9DEC6480F8EE648098501F90052A16
:1049F200E0FF3395E08F82F58374201230679005D3
:104A020029E004F090052AE004F080A090052CE053
:104A1200601E900520E0FBA3E0FAA3E0F9900529CF
:104A2200E014FFF03395E08F82F583742D12306726
:104A320090051EE0FFA3E02FFF900529E0FEC3EFE3
:104A42009EA3F0C364809483500EE0FFC374039F5F
:0D4A5200FFC3EE9F900529F0900529E0FFBD
:014A5F002234
:0D58940090051AEBF0A3EAF0A3E9F0AB05D4
:1058A10090051EE024FE600F14601424027016900F
:1058B10005287402F0800E900528740AF080069085
:1058C10005287410F090051F1233DD0000000090D0
:1058D10005231233DD00000001900527EBF0900550
:1058E10027E0D36480948050030259AAE014F09019
:1058F100051AE0FBA3E0FAA3E0F9900527E0FF33E6
:1059010095E08F82F583123028FFC3648094B04004
:10591100CDD3EF648094BF50C590051FE0F8A3E09C
:10592100F9A3E0FAA3E0FBC000C001C002C00390EC
:10593100051AE0FBA3E0FAA3E0F9900527E0FF33A5
:1059410095E08F82F583123028FF3395E0FEEF2436
:10595100D0FFEE34FFFEE4FCFD900523E0F8A3E068
:10596100F9A3E0FAA3E0FB1231CBD003D002D001BE
:10597100D000EB2FFFEA3EFEE93DFDE83CFC90053F
:105981001F1233D1900523E0F8A3E0F9A3E0FAA3B5
:10599100E0FB900528E0FF3395E0FEFDFC1231CBE2
:1059A1009005231233D10258DF90051AE0FBA3E0E2
:1059B100FAA3E0F912300F642D6013900001123048
:1059C10028642D6009900002123028B42D11900531
:1059D1001FE0FCA3E0FDA3E0FEA3E0FF0232E8909C
:0D59E100051FE0FCA3E0FDA3E0FEA3E0FF36
:0159EE002296
:105B1500EF24F6B414004003025C08905B2E75F088
:105B250003A4C58325F0C58373025B6A025B6D021E
:105B35005B76025B7F025B88025B90025B98025B8F
:105B4500A0025BA8025BB0025BB8025BC0025BC847
:105B5500025BD0025BD8025BE0025BE8025BF0020D
:105B65005BF8025C00025C087BFF7A2C7950025CD2
:105B75000E7BFF7A2C795B025C0E7BFF7A2C7966B3
:105B8500025C0E7BFF7A2C7971807E7BFF7A2C7903
:105B95007C80767BFF7A2C7987806E7BFF7A2C79E7
:105BA5009280667BFF7A2C799D805E7BFF7A2C79CB
:105BB500A880567BFF7A2C79B3804E7BFF7A2C79AF
:105BC500BE80467BFF7A2C79C9803E7BFF7A2C7993
:105BD500D480367BFF7A2C79DF802E7BFF7A2C7977
:105BE500EA80267BFF7A2C79F5801E7BFF7A2D795A
:105BF5000080167BFF7A2D790B800E7BFF7A2D793D
:105C05001680067BFF7A2C79451264E97F107E2782
:075C15007D007C000261D656
:0362ED00E4FFFECD
:0862F00090051AEEF0A3EFF097
:1062F8007FE87E037D007C001261D690053374FF31
:10630800F0A3742DF0A37421F090051AE0FFA3E028
:10631800900536CFF0A3EFF07B017A05791C124186
:10632800887B017A05791C1264E97FE87E037D0089
:056338007C000261D6AB
:0C66CB00900659EBF0A3EAF0A3E9F022DE
:0D66BE00E4F5C7F5C5F5C675C380F5C42227
:10002600C2AF75C78375C5018FC4EEF5C375C65AD1
:0C00360075C6A50000AFC21266BED2AFB6
:01004200229B
:106294009005BCE0FB7A0064AA704DC2AFEB64AA1F
:1062A400700375C783EB64AA4A700375C502EB6477
:1062B400AA4A70028FC49005BCE064AA7003EEF58C
:1062C400C39005BCE0FF7E0064AA70028DC2EF6437
:1062D400AA4E700375C65A9005BCE064AA70037593
:0962E400C6A5001266BED2AF226D
:10633D009005BCE0FD7C0064AA7043C2AFED64AA79
:10634D00700375C783ED64AA4C700375C503ED64C6
:10635D00AA4C70028FC49005BCE064AA7003EEF5E0
:10636D00C39005BCE0FF7E0064AA700375C65AEFAA
:0F637D0064AA4E700375C6A5001266BED2AF2289
:1059EF009004647444F0A3E4F0FBFA90037BE0FCB2
:1059FF00A3E0FDA3E0FEA3E024FFFFEE34FFFEEDE6
:105A0F0034FFFDEC34FFFC9004661233D190046632
:105A1F00E0FCA3E0FDA3E0FEA3E0FF780712331D37
:105A2F007C007D0512309BAA04AB05900466A3A3EE
:105A3F00A3E0547FFFE4FDFCEF701C9005BC74AA3B
:105A4F00F0AF03EF25E0FEE42400FFEE3444FE1236
:105A5F00633DE49005BCF0900466E0FCA3E0FDA379
:105A6F00E0FEA3E0FF7802123330A31233D190048B
:105A7F006AE0FCA3E0FDA3E0FEA3E0FFE4FB7A0AEB
:105A8F00F9F8123256AC00AD01AE02AF0390046AC2
:105A9F001233D190046AA3A3E0FEA3E0FF90046544
:105AAF00E02FF0900464E03EF09004607401F0A3E6
:105ABF007403F0A3747BF09005BC74AAF0E4900417
:105ACF0063F0900464E0FEA3E0FF900460E0FBA3AA
:105ADF00E0FAA3E0F912300FFD126294900461E432
:105AEF0075F0011230F0900465E004F07006900438
:105AFF0064E004F0900463E004F0E0C3940440C257
:055B0F00E49005BCF06C
:015B1400226E
:104A60009004347444F0A3E4F09004421233DD0067
:104A70000000009004461233DD00002710E490048B
:104A80005EF0A3F090045EE0FEA3E0FFC39480EE2E
:104A900094024003024C71EF7802C333CE33CED878
:104AA000F92400FFEE3444900434F0A3EFF09004B6
:104AB000307401F0A37404F0A37436F0900434E071
:104AC000FEA3E0FF120026900430E0FBA3E0FAA36F
:104AD000E0F9EF123055900431E475F0011230F036
:104AE000900435E02401FF900434E03400FE12000D
:104AF00026900430E0FBA3E0FAA3E0F9EF12305572
:104B0000900431E475F0011230F0900435E0240295
:104B1000FF900434E03400FE120026900430E0FBE5
:104B2000A3E0FAA3E0F9EF123055900431E475F0F8
:104B3000011230F0900435E02403FF900434E03497
:104B400000FE120026900430E0FBA3E0FAA3E0F997
:104B5000EF12305590044EE0FCA3E0FDA3E0FEA36D
:104B6000E0FF90044A1233D1900436E0FCA3E0FD4C
:104B7000A3E0FEA3E0FF90044E1233D190045EE068
:104B8000B40219A3E0B47F14900436E0FCA3E0FD66
:104B9000A3E0FEA3E0FF9004521233D174FFFFFEA6
:104BA000FD7C7F900436E0F8A3E0F9A3E0FAA3E0EF
:104BB000FBD312330C4003024C4E900442E0FCA3A2
:104BC000E0FDA3E0FEA3E0FF900436E0F8A3A3A37A
:104BD000E012330C407890044AE0FCA3E0FDA3E02F
:104BE000FEA3E0FF9004561233D190044EE0FCA3E4
:104BF000E0FDA3E0FEA3E0FF90045A1233D190043D
:104C000036E0FCA3E0FDA3E0FEA3E0FF9004421227
:104C100033D190045EE0FEA3E0FFE4FCFD90044687
:104C20001233D1E4FFFEFDFC900446E0F8A3E0F966
:104C3000A3E0FAA3E0FBC312330C7012900452E01D
:104C4000FCA3E0FDA3E0FEA3E0FFA31233D1900498
:104C500036E0FCA3E0FDA3E0FEA3E0FFA31233D106
:104C600090045FE004F0700690045EE004F0024AF5
:104C700084E4900371F07F107E27FDFC900446E0F1
:104C8000F8A3E0F9A3E0FAA3E0FBC312330C6050F1
:104C9000900456E0F8A3E0F9A3E0FAA3E0FBA3E058
:104CA000FCA3E0FDA3E0FEA3E0C39BFFEE9AFEEDB4
:104CB00099FDEC98FCE47B01FAF9F8C312330C700F
:104CC00014900442E0FCA3E0FDA3E0FEA3E0FF900B
:104CD000037B0233D190037B1233DD0000000022FE
:0D4CE00090037B1233DD000000001259EF3D
:014CED0022A4
:105C1C009004337426F0A3E4F07B0190043004F07C
:105C2C00A37403F0A3747FF07F007E2612002690ED
:105C3C000430E0FBA3E0FAA3E0F9EF123055900436
:105C4C0031E475F0011230F0900434E02401FF903F
:105C5C000433E03400FE120026900430E0FBA3E095
:105C6C00FAA3E0F9EF123055900431E475F001120B
:105C7C0030F0900434E02402FF900433E03400FE52
:105C8C00120026900430E0FBA3E0FAA3E0F9EF1237
:105C9C003055900431E475F0011230F0900434E08A
:105CAC002403FF900433E03400FE120026900430ED
:105CBC00E0FBA3E0FAA3E0F9EF12305590037FE08C
:105CCC00F8A3E0F9A3E0FAA3E0FB90037BE0FCA3CC
:105CDC00E0FDA3E0FEA3E0C39BFFEE9AFEED99FD71
:105CEC00EC98FC7B9F7A8679017800C312330C50B8
:105CFC001590037BE0FCA3E0FDA3E0FEA3E0FFA373
:065D0C001233D1125EC14A
:015D1200226E
:105EC10090051E7426F0A3E4F0900528F0A3F0904D
:105ED10005BC74AAF07F007E2612633DE49005BCE8
:105EE100F090037BE0FCA3E0FDA3E0FEA3E0FFA3B1
:105EF1001233D190051A7401F0A37403F0A3747FD7
:105F0100F09005BC74AAF0E490051DF090051EE028
:105F1100FEA3E0FF90051AE0FBA3E0FAA3E0F9126B
:105F2100300FFD12629490051BE475F0011230F000
:105F310090051FE004F0700690051EE004F0900546
:0F5F41001DE004F0E0C3940440C2E49005BCF0FE
:015F5000222E
:1057000043063C0105D843064901063F4105D40143
:085710004105D5004105D6005A
:10661C00759850758E40E4F589758BE0758DFED2BA
:08662C008ED2ACD2AFD2BC2229
:10000E00438E04759A5075D7E075D6FE438E104315
:05001E00AF01D2AF228A
:0300230002638CE9
:10638C00C0E0C083C082C0D075D00830982BC298B2
:10639C00900360E0FF04F074D82FF582E43405F527
:1063AC0083E599F090035F7401F0900349E0FFA33B
:1063BC00E090035CCFF0A3EFF0309904C299C209CE
:0963CC00D0D0D082D083D0E032A1
:030043000266341E
:10663400C0E0E59A30E003539AFEE59A30E1055351
:076644009AFDC20AD0E0320A
:1065880090035FE0B4012490035CE0FEA3E0FFC346
:1065980090034AE09FFF900349E09EFED3EF940AE0
:0C65A800EE9400400690035F7402F022A5
:0966D7002009FDEFD209F599221A
:08615C00A3F07B017A0379BA7C
:0B616400900433EBF0A3EAF0A3E9F095
:10616F00E4A3F0FDFC900433E0FBA3E0FAA3E0F915
:10617F00900001123028FF3395E0FEEF2402FFE478
:10618F003EFEC3ED9FEE6480F8EC64809850188D4E
:10619F00828C83123028FF900436E02FF01266D7DE
:1061AF000DBD00010C80BE900436E0FF1266D79043
:0A61BF0005D4E004F0E0700204F0E3
:0161C90022B3
:1064E900900530EBF0A3EAF0A3E9F0900530E0FB6A
:1064F900A3E0FAA3E0F912300FFF60201266E090E2
:106509000530E0FBA3E0FAA3E0F9E4123055900569
:0D6519003175F0011230F0300AD180FB2204
:0966E000200AFDEFD20AF59B220D
:103A0B00900430E4F0A3F0A3F09005D8E0FF90040D
:103A1B002F7401F0900360E0FE14FD90042FE0FC86
:103A2B00C3ED6480F8EC648098501BECFD3395E09B
:103A3B00FC74D82DF58274053CF583E02FFF9004C0
:103A4B002FE004F080CE74D72EF582E43405F58395
:103A5B00E06F600B90034BE4F0A3741E023D929059
:103A6B0005D8E024F6B40B004003023D99903A864A
:103A7B0075F003A4C58325F0C58373023AA7023AF8
:103A8B00F9023CD4023D81023D81023D83023D811E
:103A9B00023D81023D81023D81023D8A90043074DA
:103AAB0001F0A37403F0A37409F0E490042FF090D9
:103ABB00042FE0FFFD3395E0FC74DB2DF5827405DC
:103ACB003CF583E0FE900430E0FBA3E0FAA3E0F9C1
:103ADB00EF3395E08D82F583EE12306790042FE083
:103AEB0004F0E0B440C99005C47401023D92E49027
:103AFB00042FF090042FE0FFC364809487505AEF9B
:103B0B003395E0FEEF25E0FFEE33FE74F52FF582E3
:103B1B0074023EF583E0FEA3E0FFD39400EE6480D5
:103B2B009480402DEE3395E0FDFCE47B107A27F971
:103B3B00F81231CB90037BE0F8A3E0F9A3E0FAA3F2
:103B4B00E0FBD312330C400990042FE00490037177
:103B5B00F090042FE004F0809A900301E07002A330
:103B6B00E07004900371F09005DBE0FE9005DAE065
:103B7B00FDEDFF900352EEF0A3EFF09005DDE0FEBC
:103B8B009005DCE0FDEDFF900350EEF0A3EFF0901D
:103B9B0005DFE0FE9005DEE0FDEDFF90034BEEF060
:103BAB00A3EFF09005E1E0FFE4FCFDFE7808123393
:103BBB0030A804A905AA06AB079005E0E0FFEB4F80
:103BCB00FFEAFEE9FDE8FCC004C005C006C0079093
:103BDB0005E3E0FFE4FCFDFE7818123330D003D090
:103BEB0002D001D000EF4BFFEE4AFEED49FDEC4851
:103BFB00FCC004C005C006C0079005E2E0FFE4FC72
:103C0B00FDFE7810123330D003D002D001D000EF7C
:103C1B004BFFEE4AFEED49FDEC48FC9004331233AA
:103C2B00D1900354E0FCA3E0FDA3E0FEA3E0FF90E2
:103C3B000433E0F8A3E0F9A3E0FAA3E0FBC31233EB
:103C4B000C7003023D93900433E0FCA3E0FDA3E072
:103C5B00FEA3E0FF9003541233D190037BE0FCA34F
:103C6B00E0FDA3E0FEA3E02401FFE43EFEE43DFD06
:103C7B00E43CFC90037B1233D190037FE0F8A3E08C
:103C8B00F9A3E0FAA3E0FB90037BE0FCA3E0FDA328
:103C9B00E0FEA3E0C39BFFEE9AFEED99FDEC98FCD2
:103CAB007B9F7A8679017800C312330C50159003F1
:103CBB007BE0FCA3E0FDA3E0FEA3E0FFA31233D166
:103CCB00125EC11259EF023D93E490042FF0900560
:103CDB00D9E01313543FFF90042FE0FEC3EF648031
:103CEB00F8EE6480984003023D7AE0FD25E025E084
:103CFB00FC24DAF582E43405F583E0FE74DB2CF565
:103D0B0082E43405F583E0FBEBFFC007C006EDFF53
:103D1B003395E0FEEF7803C333CE33CED8F9FF9063
:103D2B002D2DE493FB740193FA7402932FF9EA3E61
:103D3B00FA900005D0E0D0F012319E90042FE025D0
:103D4B00E025E0FD24DCF582E43405F583E0FE7428
:103D5B00DD2DF582E43405F583E0FDEDFF900003E6
:103D6B00EE8FF012319E90042FE004F0023CD990BC
:103D7B0005C07401801180109005C57401800890F6
:0E3D8B00034BE4F0A37428F09005BD747FF0A4
:013D99002207
:1035E30090042FE4F0A3F0A3F09005BEE0FEA3E067
:1035F300FFC390034AE09FFF900349E09EFED3EF91
:1036030094E8EE9403401F900588E0700A9005BD8E
:10361300E0B47F037401F0900349E0FFA3E0900559
:10362300BECFF0A3EFF0900352E07002A3E070036B
:1036330002371F9005C4E0600302371F9005BDE009
:10364300647F600302371F9002B7E064557004A3E0
:10365300E064AA700302370F9002757401F0A3743B
:1036630036F0A37401F0A3742CF090027BE4F0A372
:103673007402F0A3E4F0A3740FF0A3E4F0A3740FB7
:10368300F0E4A3F0A3F0A3F0A3F0A304F0A3744029
:10369300F0A3E4F0A37459F0A37401F0A37490F0C1
:1036A300A3E4F0A37414F0A3E4F0A37454F0A3E42C
:1036B300F0A37402F0A3E4F0A37478F0A3E4F0A3FE
:1036C300740AF0A3E4F0A304F0A3E4F0A37449F0B4
:1036D300A3E4F0A37450F0A3E4F0A304F0A3E4F094
:1036E300A304F0A3E4F0A304F0A3E4F0A304F0A381
:1036F300E4F0A304F09002B77455F0A374AAF0E4C5
:10370300FFFE1253747F017E001253749005887478
:1037130001F09005C4F09005BD747FF09005C4E0FE
:10372300B401109005C0E0700A9005BDE0B47F03BA
:103733007402F0900588E0600A9005BDE0B47F0351
:103743007403F090058CE0600A9005BDE0B47F033C
:103753007407F0900569E0600A9005BDE0B47F034B
:103763007409F09005C3E0600A9005BDE0B47F03DF
:103773007404F090058BE0600A9005BDE0B47F030C
:103783007408F09005BBE0600A9005BDE0B47F03C8
:103793007405F09005C2E0600A9005BDE0B47F03B4
:1037A3007406F09005BDE0B40A004003023A0A90A3
:1037B30037B9F82828730237D70237FF02382502B2
:1037C300384C0238CE02398E0239BC023900023934
:1037D3002E0239607E007F647D007B017A0379BA13
:1037E3001234F2E49003BAF0A304F0E4A3F0A304C8
:1037F300F0FB1261609005BD7432F0227E007F649D
:103803007D007B017A0379BA1234F29003BA740112
:10381300F0A3F0E4A3F0740212615C9005BD74336D
