:0300000002682F64
:0C682F00787FE4F6D8FD758121026876C0
:105D65004105CC0042059900004105CD7F4205CE95
:105D750000004205C9000042059D00004105D40010
:105D85004105D000410598004105D30041059C001F
:105D950041059B00410579004105CB004105D50131
:105DA5004105D2004105D10042057A00004E056B40
:105DB50010000378000000000000000000004E0500
:105DC500D620000378000000000000000000004E0F
:105DD50005BB001003780000000000000000000073
:105DE5004E05AD0020037800000000000000000013
:105DF500004E059F004003780000000000000000F1
:105E050000004E057C0080037800000000000000C3
:105E15000000004E058A0100037800000000000024
:045E25000000000079
:106EDD00438E80E4F589758A67758CFCD28CD2A9B6
:036EED00D2AF22FF
:106E5200E4F5957596207580FF7590FF75A0FF7516
:0B6E6200B0FF126EDD126E6D02000E1C
:106E9C007E017F107D007B017A027975123B229076
:066EAC00026E7401F022E9
:10557B00900568EBF0A3EAF0A3E9F0900568E0FB77
:10558B00A3E0FAA3E0F9900002123777FFAEF0E543
:10559B00F060030257BCEF24F6605224F67003024E
:1055AB00566E24F670030256F8241E60030257BC95
:1055BB0090000CE4F5F01237CE12374CFF900267D7
:1055CB00E055F0FEA3E05F4E60030257BC90056808
:1055DB00E0FBA3E0FAA3E0F9900002E475F00A12F5
:1055EB0037CE900004123A3E00000000229005686E
:1055FB00E0FBA3E0FAA3E0F912374CFF900267E05F
:10560B0055F0FEA3E05F4E703C900004123993EF0F
:10561B002401FFE43EFEE43DFDE43CFC900004125B
:10562B0039DD900004123993E47B14FAF9F8C312B4
:10563B00393C40030257BC900568E0FBA3E0FAA39A
:10564B00E0F90257B2900568E0FBA3E0FAA3E0F99A
:10565B00900004123A3E00000000900002E4F5F0C6
:10566B000257B9900568E0FBA3E0FAA3E0F99000BC
:10567B0004123993EF2401FFE43EFEE43DFDE43CCC
:10568B00FC9000041239DD12374CFF900267E05595
:10569B00F0FEA3E05F4E601F900568E0FBA3E0FA0D
:1056AB00A3E0F9900002E475F01E1237CE900008CB
:1056BB00123A3E00000000900568E0FBA3E0FAA35D
:1056CB00E0F9900004123993E47B907A01F9F8C366
:1056DB0012393C40030257BC900568E0FBA3E0FA8B
:1056EB00A3E0F990000CE475F0010257B99005683E
:1056FB00E0FBA3E0FAA3E0F9900004123993EF2446
:10570B0001FFE43EFEE43DFDE43CFC900004123955
:10571B00DD12374CFF900267E055F0FEA3E05F4EC1
:10572B006070900568E0FBA3E0FAA3E0F990000835
:10573B00123993EF2401FFE43EFEE43DFDE43CFC13
:10574B009000081239DD900008123993E47B14FAAB
:10575B00F9F8C312393C5059900568E0FBA3E0FA05
:10576B00A3E0F990000C123777640145F090000C20
:10577B00700575F0038004E475F0021237CE9000CB
:10578B0004123A3E00000000900002740375F0789A
:10579B00801C900568E0FBA3E0FAA3E0F9900008F9
:1057AB00123A3E00000000900002E475F01412372C
:0257BB00CE22FC
:106D77007B017A0579BB12557B7B017A0579AD12C8
:106D8700557B7B017A05797C12557B7B017A0579E6
:106D97008A12557B7B017A05796B12557B7B017AC9
:066DA7000579D602557BC0
:106E2C00E49005BDF0A3F09005AFF0A3F090057EC3
:106E3C00F0A3F090058CF0A3F090056DF0A3F0900A
:066E4C0005D8F0A3F022BE
:10531E00900577E0FEA3E0FF4E605A90038974EF8C
:10532E00F0A374FFF0EF64014E701C90026B04F05A
:10533E0090057AE07002A3E0703B90057AF0A3042A
:10534E00F09005D2F0802E900577E07004A3E06413
:10535E000290026B7004740280027403F0E49005F4
:10536E0077F0A3F090056DF0A3F090057AF0A3F01E
:10537E009005D204F09005E2E0FEA3E0FF4E605AE5
:10538E0090038974DFF0A374FFF0EF64014E701C7C
:10539E0090026B04F090057AE07002A3E0703B90EF
:1053AE00057AF0A304F09005D2F0802E9005E2E08D
:1053BE007004A3E0640290026B70047402800274A5
:1053CE0003F0E49005E2F0A3F09005D8F0A3F0907E
:1053DE00057AF0A3F09005D204F09005C7E0FEA385
:1053EE00E0FF4E605A90038974FFF0A374EFF0EF64
:1053FE0064014E701C90026B04F090057AE070020E
:10540E00A3E0703B90057AF0A304F09005D2F080F3
:10541E002E9005C7E07004A3E0640290026B700446
:10542E00740280027403F0E49005C7F0A3F09005B7
:10543E00BDF0A3F090057AF0A3F09005D204F090A1
:10544E0005B9E0FEA3E0FF4E605A90038974FFF0A9
:10545E00A374DFF0EF64014E701C90026B04F090A9
:10546E00057AE07002A3E0703B90057AF0A304F099
:10547E009005D2F0802E9005B9E07004A3E064028E
:10548E0090026B7004740280027403F0E49005B90C
:10549E00F0A3F09005AFF0A3F090057AF0A3F09092
:1054AE0005D204F0900588E0FEA3E0FF4E605A900E
:1054BE00038974FFF0A3747FF0EF64014E701C90AB
:1054CE00026B04F090057AE07002A3E0703B900549
:1054DE007AF0A304F09005D2F0802E900588E0704B
:1054EE0004A3E0640290026B7004740280027403E1
:1054FE00F0E4900588F0A3F090057EF0A3F09005FF
:10550E007AF0A3F09005D204F0900596E0FEA3E0A9
:10551E00FF4E605890038974FEF0A304F0EF64010F
:10552E004E701B90026B04F090057AE07002A3E0BF
:10553E00703A90057AF0A304F09005D2F02290050F
:10554E0096E07004A3E0640290026B700474028013
:10555E00027403F0E4900596F0A3F090058CF0A38E
:0D556E00F090057AF0A3F09005D204F02231
:03000B00026DADD6
:106DAD00C0E0C0F0C083C082C0D075D00890034A47
:106DBD00E004F07006900349E004F0126DD9126DF5
:0C6DCD0077D0D0D082D083D0F0D0E0325C
:10661200E49005CCF0126E52126E9C1257BD90039C
:0D66220049E0FFA3E09005CECFF0A3EFF01C
:10662F00900431123A0D00000000E47FE87E03FD74
:10663F00FC900431E0F8A3E0F9A3E0FAA3E0FBC378
:10664F00123926502800900431E0FCA3E0FDA3E0AE
:10665F00FEA3E0FFE4FAF9F8EF2401FFEA3EFEE9BA
:0D666F003DFDE83CFC900431123A0180BD75
:10667C009005D1E0703C9005CEE0FEA3E0FFC39006
:10668C00034AE09FFF900349E09EFED3EF94F4EEA3
:10669C009401401EE0FEA3E0FF9005CEEEF0A3EFC8
:1066AC00F09005C9EEF0A3EFF0126E2C9005D174AA
:1066BC0001F09005D1E0B401B712004690035FE001
:1066CC00B4020C12403B90035F7403F0E4A3F0128D
:0766DC003C1312531E8099CC
:0D5E29004A065C00FF00FF00FF00FF00FFC5
:0C6A1B00C290C2907F007E007D007C00D5
:066A2700900540123A0147
:106A2D00900544123A0D00000000900540E0FCA3D3
:106A3D00E0FDA3E0FEA3E0FFA3E0F8A3E0F9A3E0EF
:106A4D00FAA3E0FBC3123926502800900544E0FC60
:106A5D00A3E0FDA3E0FEA3E0FFE4FAF9F8EF2401C3
:106A6D00FFEA3EFEE93DFDE83CFC900544123A018B
:026A7D0080B8DF
:016A7F0022F4
:106EF000D290D290D291D291126A1FC291C29122A5
:106EB200126A1BC291C291126A1FD290D290126AB8
:066EC2001FD291D29122C3
:0F6F0000126A1BD290D290126A1FC290C29022C6
:086C6E00900666EEF0A3EFF0C2
:106C7600E4A3F0126A1F126A1B900667E030E00672
:106C8600D291D2918004C291C291126A1F90066677
:106C9600E0C313F0A3E013F0D290D290126A1F90D3
:0B6CA6000668E004F0E0C3940840C85A
:016CB10022C0
:1068BB00126F3A126EF07F407E00126C6E12000364
:1068CB00126F00126F3A126EB2126EF07FC07E0022
:1068DB00126C6E120003126F00126F3AE490066C8A
:1068EB00F090066CE0FFC394055025EF25E0245C87
:1068FB00F582E43406F583E0FEA3E0FF126C6E1222
:10690B000003126F00126F3A90066CE004F080D116
:10691B00126EB2126EF07F8C7E00126C6E12000340
:09692B00126F00126F3A026EB205
:05000300C294D2952219
:056F3A00D294D2952263
:102B8E003030303030003130313031003130313092
:102B9E0032003130313033003130313034003230A8
:102BAE003130310000312D00322D00332D00342D07
:102BBE0000352D00362D00372D00382D00392D0013
:102BCE0031300031310031320031330031340031D7
:102BDE0035003136003137003138003139003230AE
:102BEE0000323100323200323300323400323500DE
:102BFE00323600323700323800323900333000209E
:102C0E00202041310020202041320020202041335D
:102C1E00002020204134002020204135002020209B
:102C2E00413600202020413700202020413800204E
:102C3E0020204139002020413130003630343039E7
:102C4E000020462D2D300020462D2D310020462D02
:102C5E002D320020462D2D330020462D2D34002000
:102C6E00462D2D3500B4F2BDBA00BDF8D6BD00CD4F
:102C7E00CBD6BD00CFC2C1CF00B4EACCF500CDA3F8
:102C8E00D6BD00C6F4B6AF00CDA3D6B900B7A2D656
:102C9E00BD00CAD5D6BD00502D2D00452D2D00519D
:102CAE00322D2D2D00502D2D203100502D2D203266
:102CBE0000502D2D203000202020313100202020EA
:102CCE0031320020202031330020202031340020EA
:102CDE0020203135002020203136002020203137B1
:102CEE0000202020313800202020313900202020E3
:102CFE0032300020202032310020202032320020BD
:102D0E002045727200D6BDB3A400C0A6CAFD00D77E
:102D1E00DCCAFD005738444628352C332C27313178
:102D2E003136363232323636333333333327293B6C
:102D3E000D0A0057384D5528302C302C38302C3891
:102D4E00302C312C32293B0D0A005738554528318D
:102D5E00293B0D0A004453363428312C382C2725B4
:102D6E0073272C3135293B0D0A0053585928302C26
:102D7E0030290D0A00573855452833293B0D0A00D6
:102D8E00573855452834293B0D0A0044533438280A
:102D9E00312C38362C27C7EBCAE4C8EBC3DCC2EBA8
:102DAE003A272C3135293B0D0A004453363428314D
:102DBE002C312C272573272C3135293B0D0A004445
:102DCE0053363428312C3130302C272573272C31B3
:102DDE0035293B0D0A00434C532830293B0D0A0080
:102DEE00256400445334382833302C3139302C27A5
:102DFE002573272C31293B0D0A00445336342832D3
:102E0E0030302C3130302C272573272C3135293B8F
:102E1E000D0A00B4FAC2EBCAE4C8EBBBADC3E600C0
:102E2E00B4EDCEF3CCE1CABE00D6B1BDD3B5F7B288
:102E3E00CECAFD00B5C8B4FDB7B5D0A3BDE1B9FB90
:102E4E0000D1D3CAB1CFD4CABED0DEB8C4B3F6B4A3
:102E5E00ED00B2E2CAD4B2CECAFDC9E8D6C300D1E3
:102E6E00A7CFB0C4A3CABD00445336342831343280
:102E7E002C382C272573272C3135293B0D0A00259C
:102E8E006C6400573855452832293B0D0A004453CF
:102E9E0034382832302C36302C272573272C3135F8
:102EAE00293B0D0A00445334382832302C36302C4E
:102EBE00272573272C31293B0D0A005358592830EA
:102ECE00293B0D0A00445334382832302C36302C2E
:102EDE002720202020272C31293B0D0A0053504754
:102EEE00283537293B0D0A0025730031362D352D37
:102EFE0031320044533634283133302C322C2725CE
:102F0E0073272C3135293B0D0A00445336342831B2
:102F1E0033302C312C272573272C3135293B0D0AC4
:102F2E000044533634283133302C312C27256C6431
:102F3E00272C3135293B0D0A0053504728363029AE
:102F4E003B0D0A00535047283632293B0D0A0053D9
:102F5E005047283633293B0D0A0042504943283149
:102F6E002C302C302C31293B0D0A00505333322893
:102F7E00312C312C312C27CDEAB3C9D2BBC0A62CB3
:102F8E00C7EBC0A6CCF5272C3135293B0D0A0042E4
:102F9E0050494328322C302C302C32293B0D0A005C
:102FAE005053333228322C312C312C27B4EACCF545
:102FBE00BBFACFC2C1CFB4A6CEDEB8CBC7A5B1A8DF
:102FCE00B4ED272C3135293B0D0A004250494328D8
:102FDE00332C302C302C33293B0D0A005053333216
:102FEE0028332C312C312C27B4EACCF5BBFAB5AFF3
:102FFE00C6ACB4A6CEDEB8CBC7A5B1A8B4ED272C0F
:10300E003135293B0D0A004250494328342C302CCF
:10301E00302C34293B0D0A005053333228342C31D6
:10302E002C312C27C7D0B5B6B6C2D6BDB9E2B5E79E
:10303E00B4ABB8D0C6F7B1A8B4ED272C3135293BC7
:10304E000D0A004250494328352C302C302C35299E
:10305E003B0D0A005053333228352C312C312C279E
:10306E00CFC2C1CFB6C2D6BDB9E2B5E7B4ABB8D008
:10307E00C6F7B1A8B4EDA1A3272C3135293B0D0A13
:10308E00004250494328362C302C302C36293B0D2B
:10309E000A005053333228362C312C312C27C7D00E
:1030AE00B5B6C1E3CEBBBDD3BDFCB4ABB8D0C6F78D
:1030BE00B1A8B4EDA1A3272C3135293B0D0A00424E
:1030CE0050494328372C302C302C37293B0D0A0021
:1030DE005053333228372C312C312C27B4A2D6BD85
:1030EE00B9E2B5E7B4ABB8D0C6F7B8D0D3A6B5BD84
:1030FE00CEDED6BDA1A3272C3135293B0D0A0042C9
:10310E0050494328382C302C302C38293B0D0A00DE
:10311E005053333228382C312C312C27B4EACCF5CD
:10312E00D6DCC6DABDD3BDFCB4ABB8D0C6F7B1A8F9
:10313E00B4EDA1A3272C3135293B0D0A004250498D
:10314E004328392C302C302C31293B0D0A0050539A
:10315E00333228392C312C312C27B4F2BDBAB5BDFF
:10316E00CEBBB8D0D3A6C6F7B1A8B4EDA1A3272C79
:10317E003135293B0D0A004250494328302C302C62
:10318E00302C31293B0D0A00505333322825642C44
:10319E0025642C25642C27452564272C31293B0DCD
:1031AE000A00505333322825642C25642C25642CB8
:1031BE0027452564272C3135293B0D0A004453340D
:1031CE00382833302C3139302C2725732020272CEA
:1031DE0031293B0D0A00535047283331293B0D0A44
:1031EE0000535047283332293B0D0A0053504728CD
:1031FE003333293B0D0A00535047283334293B0DF6
:10320E000A00535047283335293B0D0A00535047C7
:10321E00283336293B0D0A00535047283337293BB4
:10322E000D0A00535047283338293B0D0A005350DE
:10323E0047283339293B0D0A00535047283430298B
:10324E003B0D0A00535047283431293B0D0A0053D9
:10325E005047283432293B0D0A0053504728343347
:10326E00293B0D0A00535047283434293B0D0A00E0
:10327E00535047283435293B0D0A00535047283404
:10328E0036293B0D0A00535047283437293B0D0A87
:10329E0000535047283438293B0D0A005350472815
:1032AE003439293B0D0A00535047283530293B0D40
:1032BE000A00434C53282564293B0D0A0057385504
:1032CE0045282564293B0D0A0043495246283635C8
:1032DE002C35352C31352C31293B0D0A0043495202
:1032EE00462836352C35352C31352C32293B0D0AF6
:1032FE000043495246283136352C35352C31352C84
:10330E0031293B0D0A0043495246283136352C35BA
:10331E00352C31352C32293B0D0A005358592830A3
:10332E002C30293B0D0A0000010047FF2B8E1000A8
:10333E000200000103B501010057FF2B9412001E7D
:10334E0000000103B70201014FFF2B9A14000E007B
:10335E00000103B8030101BFFF2BA016000E0000F1
:10336E000103B90401022FFF2BA61C000700000168
:10337E0003BA05010147FF2BAC1A0001000001033F
:10338E00BB00000000000000000000000000000074
:10339E00FF2BB24000000001035804050000018617
:1033AE009F00000000000000000000000000000070
:1033BE0000000000000000000000000000000000FF
:1033CE0000000000000000000000000000000000EF
:1033DE000000000000000000000000FEB0EDF9B398
:1033EE00DBDFF0FFFB00004080003F065B4F666DA9
:1033FE007D077F6F771F4E3D4F47FB771F4E3D7901
:10340E0071FB37060E07386A761D7367055B313E12
:10341E001C5C313BED000000620800771F4E3D4FF3
:10342E0047FB370638070E6A151D6773505B783EEB
:10343E001C5C313BED0000000000000000000000AD
:10344E00000000000000000000000000000000006E
:10345E00000000000000000000000000000000005E
:10346E00000000000000000000000000000000004E
:10347E00000000000000000000000000000000003E
:10348E00000000000000000000000000000000002E
:10349E00000000000000000000000000000000001E
:1034AE00000000000000000000000000000000000E
:1034BE0030000000000000000000000000000000CE
:1034CE0000000000000000000000000000000000EE
:1034DE0000000000000000000000000000000000DE
:1034EE0000000000000000000000000000000000CE
:1034FE0000000000000000000000000000000000BE
:10350E0000000000000000000000000000000000AD
:10351E00000000000000000000000000000000009D
:10352E00000000000000000000000000000000008D
:0B353E00000000000000000000000082
:105E36004102740042026C00004103BB004103941E
:105E4600004603B5021E0E0701004803950402FF33
:105E5600339EFF3335420389000041026B00410245
:105E66006E014100430042039E00004203A700006A
:105E76004302710000004203B30000420390000099
:105E860041000A0041000B004200100000420016CB
:105E96000000420018000042001A000041001C00E9
:105EA60042001D000042001F000042002100004287
:105EB60000230000420025000042002700004200A7
:105EC60029000042002B000042002D000042003154
:105ED6000000420033000141003700420038000054
:105EE60041003A0042003B000042003D00004200F3
:105EF60000000042000200004200040000420006CA
:075F0600000042000800004A
:046934007BFFE4FD04
:1069380090051EEBF0A3EAF0A3E9F0A3EDF09005B3
:106948001EE0FBA3E475F001123736A9F0FA1236FF
:106958003FFF3395E0FE74C82FF58274333EF5830C
:10696800E493FD3395E0FC900521E0FF04F0EF335C
:1069780095E0FEEF25E0FFEE33FE745C2FF58274A0
:10698800063EF583ECF0A3EDF0900521E0C36480AA
:106998009486501090051EE0FBA3E0FAA3E0F912DC
:0569A800363F709A2249
:1043CA00E4900521F0EF123ACF444F0044600144D3
:1043DA00710244820344930444A40544B50644C6C6
:1043EA000744D70844E80944F90A450A0B451B0C57
:1043FA00452C0D453D0E454E0F455F104570114544
:10440A00811245921345A31445B41545C51645D6E0
:10441A001745E71845F81946091A461A1B462B1C70
:10442A00463C1D464D50465E51466E52467E5346A8
:10443A008E54469E5546AE5646BE5746CE5846DE22
:10444A0059000046EC90051E74FFF0A3742BF0A3EC
:10445A0074B3F00246EC90051E74FFF0A3742BF0BF
:10446A00A374B6F00246EC90051E74FFF0A3742BF9
:10447A00F0A374B9F00246EC90051E74FFF0A37421
:10448A002BF0A374BCF00246EC90051E74FFF0A357
:10449A00742BF0A374BFF00246EC90051E74FFF073
:1044AA00A3742BF0A374C2F00246EC90051E74FFAD
:1044BA00F0A3742BF0A374C5F00246EC90051E74A9
:1044CA00FFF0A3742BF0A374C8F00246EC90051E0B
:1044DA0074FFF0A3742BF0A374CBF00246EC9005A2
:1044EA001E74FFF0A3742BF0A374CEF00246EC9076
:1044FA00051E74FFF0A3742BF0A374D1F00246ECEE
:10450A0090051E74FFF0A3742BF0A374D4F0024636
:10451A00EC90051E74FFF0A3742BF0A374D7F0027D
:10452A0046EC90051E74FFF0A3742BF0A374DAF026
:10453A000246EC90051E74FFF0A3742BF0A374DD01
:10454A00F00246EC90051E74FFF0A3742BF0A374DE
:10455A00E0F00246EC90051E74FFF0A3742BF0A362
:10456A0074E3F00246EC90051E74FFF0A3742BF07E
:10457A00A374E6F00246EC90051E74FFF0A3742BB8
:10458A00F0A374E9F00246EC90051E74FFF0A374E0
:10459A002BF0A374ECF00246EC90051E74FFF0A316
:1045AA00742BF0A374EFF00246EC90051E74FFF032
:1045BA00A3742BF0A374F2F00246EC90051E74FF6C
:1045CA00F0A3742BF0A374F5F00246EC90051E7468
:1045DA00FFF0A3742BF0A374F8F00246EC90051ECA
:1045EA0074FFF0A3742BF0A374FBF00246EC900561
:1045FA001E74FFF0A3742BF0A374FEF00246EC9035
:10460A00051E74FFF0A3742CF0A37401F00246ECAB
:10461A0090051E74FFF0A3742CF0A37404F00246F4
:10462A00EC90051E74FFF0A3742CF0A37407F0023B
:10463A0046EC90051E74FFF0A3742CF0A3740AF0E4
:10464A000246EC90051E74FFF0A3742CF0A3740DBF
:10465A00F00246EC90051E74FFF0A3742CF0A374CC
:10466A0013F0807E90051E74FFF0A3742CF0A374DF
:10467A0019F0806E90051E74FFF0A3742CF0A374D9
:10468A001FF0805E90051E74FFF0A3742CF0A374D3
:10469A0025F0804E90051E74FFF0A3742CF0A374CD
:1046AA002BF0803E90051E74FFF0A3742CF0A374C7
:1046BA0031F0802E90051E74FFF0A3742CF0A374C1
:1046CA0037F0801E90051E74FFF0A3742CF0A374BB
:1046DA003DF0800E90051E74FFF0A3742CF0A374B5
:1046EA0043F090051EE0FBA3E475F001123736A9EA
:1046FA00F0FA12363FFF3395E0FE74C82FF5827444
:10470A00333EF583E493FD3395E0FC900521E0FF09
:10471A0004F0EF3395E0FEEF25E0FFEE33FE745C24
:10472A002FF58274063EF583ECF0A3EDF090052197
:10473A00E0C364809486501090051EE0FBA3E0FA63
:08474A00A3E0F912363F709A5A
:014752002244
:046CB200AC07A9057D
:106CB600AD04E9FF3395E0FEECFB3395E0FAEB2FEC
:106CC600FFEA3EFEEDFB3395E0FAC3EB9FEE6480F0
:106CD600F8EA6480985018EB25E0FFEA33FE745C0E
:0F6CE6002FF58274063EF583E4F0A3F00D80C312
:016CF500227C
:0D652000900437EFF07B017A0379A9E4FDC8
:0E652D0090051EEBF0A3EAF0A3E9F0A3EDF059
:10653B00E4A3F090051EE0FBA3E0FAA3E0F99000C2
:10654B0001123658B42E07900522E0B4014D900588
:10655B001EE0FBA3E475F001123736A9F0FA1236F0
:10656B003FFF3395E0FE74C82FF58274333EF583FD
:10657B00E493FD3395E0FC900521E0FF04F0EF334D
:10658B0095E0FEEF25E0FFEE33FE745C2FF5827491
:10659B00063EF583ECF0A3EDF0805D90051EE0FB6D
:1065AB00A3E475F001123736A9F0FA12363FFF3328
:1065BB0095E0FE74C82FF58274333EF583E4934463
:1065CB0080FD3395E0FC900521E0FF04F0EF33955F
:1065DB00E0FEEF25E0FFEE33FE745C2FF5827406D0
:1065EB003EF583ECF0A3EDF09005227401F09005DD
:1065FB001FE475F001123720900521E0C3648094ED
:06660B0086500302653E0B
:016611002266
:105F2600E4FDEDFF3395E0FEEF25E0FFEE33FE7472
:105F3600752FF974023EFA7B01EDFF3395E0FEEF13
:105F46007803C333CE33CED8F92447F58274003EA6
:105F5600F583EBF0A3EAF0A3E9F00DEDB402C3E498
:105F6600FDEDFF3395E0FEEF25E0FFEE33FE747B9B
:105F76002FF974023EFA7B01EDFF3395E0FEEF78D0
:105F860003C333CE33CED8F92457F58274003EF5D9
:105F960083EBF0A3EAF0A3E9F00DEDB41EC3E4FD34
:105FA600EDFF3395E0FEEF25E0FFEE33FE74B92FEB
:105FB600F974023EFA7B01EDFF3395E0FEEF7803BC
:105FC600C333CE33CED8F9244FF58274013EF58320
:105FD600EBF0A3EAF0A3E9F00DEDB40EC3E4FDED9A
:105FE600FF3395E0FEEF25E0FFEE33FE74D72FF981
:105FF60074023EFA7B01EDFF3395E0FEEF7803C3B2
:1060060033CE33CED8F924BFF58274013EF583EB47
:10601600F0A3EAF0A3E9F00DEDB40EC3E4FDEDFF45
:106026003395E0FEEF25E0FFEE33FE74F52FF974AD
:10603600023EFA7B01EDFF3395E0FEEF7803C333B2
:10604600CE33CED8F9242FF58274023EF583EBF0D9
:10605600A3EAF0A3E9F00DEDB407C3E4FDEDFF33C9
:1060660095E0FEEF25E0FFEE33FE74052FF974038D
:106076003EFA7B01EDFF3395E0FEEF7803C333CEA6
:1060860033CED8F92447F58274013EF583EBF0A3AD
:0A609600EAF0A3E9F00DEDB401C338
:0160A00022DD
:054AB800900436EFF050
:104ABD003395E0FE90333F75F00FEF123A73EE75BC
:104ACD00F00FA42583F583E493FF74019390043BC9
:104ADD00CFF0A3EFF090043BE475F001123736AF41
:104AED00F0FE12002690043AEFF0E490043DF0A39E
:104AFD00F0900436E0FFFD3395E0FC90333E75F009
:104B0D000FED123A73EC75F00FA42583F583E49342
:104B1D00FB3395E0FA90043DE0FCA3E0FDC39BEA76
:104B2D006480F8EC6480984003024C5EEFB4044955
:104B3D003395E0FE90333675F00FEF123A73EE7544
:104B4D00F00FA42583F583E493FB740193FA7402AB
:104B5D0093F9C003C002C001EDAE047803C333CE98
:104B6D0033CED8F9D001D002D00329F9EA3EFA901C
:104B7D000003740175F0C2804C900436E0FF33954C
:104B8D00E0FE90333675F00FEF123A73EE75F00FBD
:104B9D00A42583F583E493FB740193FA740293F9CE
:104BAD00C003C002C001EDAE047803C333CE33CED3
:104BBD00D8F9D001D002D00329F9EA3EFA900003CA
:104BCD00740375F0E71237CE900436E0FF3395E0AD
:104BDD00FE90333675F00FEF123A73EE75F00FA4A9
:104BED002583F583E493FB740193FA740293F99092
:104BFD00043DE0FEA3E07803C333CE33CED8F9FFF6
:104C0D0029F9EA3EFA900005E4F5F01237CE90044A
:104C1D0036E0FD3395E0FC90333675F00FED123A2A
:104C2D0073EC75F00FA42583F583E493FB74019366
:104C3D00FA7402932FF9EA3EFA900007E4123697C0
:104C4D0090043EE004F0700690043DE004F0024A4A
:104C5D00FE903372E493FB740193FA740293F9900E
:104C6D000033740175F0F41237CE900436E0146001
:104C7D002014602D14603A1460471460542405709C
:104C8D005E9004377401F0A37402F0A37475F08084
:104C9D004E9004377401F0A37402F0A3747BF0807E
:104CAD003E9004377401F0A37402F0A374B9F08040
:104CBD002E9004377401F0A37402F0A374D7F08022
:104CCD001E9004377401F0A37402F0A374F5F08004
:104CDD000E9004377401F0A37403F0A37405F090E3
:104CED000436E0FF3395E0FE90333C75F00FEF1284
:104CFD003A73EE75F00FA42583F583E493FF7401E9
:104D0D009390043BCFF0A3EFF0E4A3F0A3F0900455
:104D1D0036E0FF3395E0FE90333E75F00FEF123A1B
:104D2D0073EE75F00FA42583F583E493FF3395E0BF
:104D3D00FEEF2401FFE43EFEC390043EE09FEE64CF
:104D4D0080F890043DE0648098506390043BE475D6
:104D5D00F001123736AFF0FE120026900437E0FB5B
:104D6D00A3E0FAA3E0F9EF123685900438E475F06C
:104D7D000112372090043BE475F001123736AFF085
:104D8D00FE120026900437E0FBA3E0FAA3E0F9EF52
:104D9D00123685900438E475F00112372090043EE8
:0E4DAD00E004F0700690043DE004F0024D1B9F
:014DBB0022D5
:106A8000E4FDEDFF3395E0FEEF25E0FFEE33FE740D
:106A9000752FF58274023EF583E0FAA3E0FB7409DA
:106AA0002FF58274033EF583EAF0A3EBF00DEDB40D
:106AB00002D0E4FDEDFF3395E0FEEF25E0FFEE337D
:106AC000FE747B2FF58274023EF583E0FAA3E0FBAF
:106AD000740D2FF58274033EF583EAF0A3EBF00DFD
:046AE000EDB41ED023
:016AE400228F
:1066E300900436747FF0A374F9F0E4FF900436E469
:1066F30075F00112373685F082F583E493FEEFFDE2
:106703003395E0FC74382DF58274043CF583EEF088
:106713000FEFB407D790043DE0FE3395E090037389
:10672300F0A3CEF0E07F00FE900373F0A3EFF090B0
:10673300043EE0FDEDFF900373EEF0A3EFF07C0762
:106743007DD01236CBA3ECF0A3EDF0E4900436F049
:10675300A3F0900376E025E0FF900375E033FE128B
:106763000026900438EFF0900376E025E0FF9003D5
:1067730075E033FEEF2401FFE43EFE120026900491
:1067830039EFF0FB900438E0FDAF05900377E4F0B8
:0B679300A3EFF0EBFFA3E4F0A3EFF096
:01679E0022D8
:1057BD00C2A57A2C7949126934900397E0F9A3E0D8
:1057CD00FAA3E090042DC9F0A3EAF0A3E9F0E49068
:1057DD000435F090042DE0FBA3E0FAA3E0F990046A
:1057ED0035E0FFFD3395E08D82F5837415123A6235
:1057FD00123A9FEA494B6008900435E004F080D3DB
:10580D00900420EFF090039AE0FBA3E0FAA3E0F9F7
:10581D00900040EBF0A3EAF0A3E9F0900001123AFA
:10582D009F900044EBF0A3EAF0A3E9F0E490043577
:10583D00F0900040E0FBA3E0FAA3E0F9900435E01E
:10584D00FFFD3395E08D82F583740F123A621236A7
:10585D0058B5070B124AB8900435E004F080D29089
:10586D000435E0900269F0126A80125F26E490031D
:10587D009DF090026FF09003A5F0A304F0E4900367
:10588D008CF090034DF090034BF0A3F090034EF08D
:10589D00900354123A0D00000000E4900371F012D1
:1058AD0066E3900377E0FFA3E09002EFCFF0A3EF64
:1058BD00F0900379E0FFA3E09002F1CFF0A3EFF0B9
:1058CD00E4900372F0900435F0900435E0FFC3646A
:1058DD008094874003025968EF3395E0FEEF78021C
:1058ED00C333CE33CED8F9FF24D7F58274023EF5FB
:1058FD0083E0FCA3E04C702B74D92FF58274023E2B
:10590D00F583E0FEA3E04E701A900372E0FF900461
:10591D0035E0FE7401A806088002C333D8FC4F9011
:10592D000372F0900435E0FF3395E0FEEF7802C38B
:10593D0033CE33CED8F9FF24B9F58274023EF58308
:10594D00E4F0A3F074BB2FF58274023EF583E4F00E
:10595D00A3F0900435E004F00258D6125090126472
:10596D0029E47B107A27F9F890037BE0FCA3E0FD96
:10597D00A3E0FEA3E0FF123886900305EEF0A3EF3F
:10598D00F0E4900349F0A3F0900350F0A3F074FFFE
:06599D00900267F0A3F088
:0159A30022E1
:0859A40090051EEEF0A3EFF0E8
:1059AC009005CC74AAF090051EE0FEA3E090333C69
:1059BC0075F00F123A73EE75F00FA42583F583E49E
:1059CC0093FE740193FF126B8EE49005CCF090055E
:1059DC001EE0FEA3E0FFEE7072EF14602014602D49
:1059EC0014603A1460471460542405705E900520CE
:1059FC007401F0A37402F0A37475F0804E9005202E
:105A0C007401F0A37402F0A3747BF0803E90052027
:105A1C007401F0A37402F0A374B9F0802E900520E9
:105A2C007401F0A37402F0A374D7F0801E900520CB
:105A3C007401F0A37402F0A374F5F0800E900520AD
:105A4C007401F0A37403F0A37405F090051EE0FE3E
:105A5C00A3E090333C75F00F123A73EE75F00FA47F
:105A6C002583F583E493FF740193900524CFF0A371
:105A7C00EFF0E4900523F090051EE0FEA3E09033D8
:105A8C003E75F00F123A73EE75F00FA42583F58373
:105A9C00E493FF3395E0FEEF2401FFE43EFE900516
:105AAC0023E0C39FEE6480F87480984003025B7E11
:105ABC009005CC74AAF0900524E0FEA3E0FF9005BD
:105ACC0020E0FBA3E0FAA3E0F912363FFD126AE5F1
:105ADC00900524E0FEA3E0FF120026AE07900520FF
:105AEC00E0FBA3E0FAA3E0F912363F6E60079003E7
:105AFC004CE04420F0900521E475F0011237209021
:105B0C000525E004F07006900524E004F0900524CF
:105B1C00E0FEA3E0FF900520E0FBA3E0FAA3E0F990
:105B2C0012363FFD126AE5900524E0FEA3E0FF1259
:105B3C000026AE07900520E0FBA3E0FAA3E0F912E3
:105B4C00363F6E600790034CE04420F0900521E452
:105B5C0075F001123720900525E004F070069005D1
:105B6C0024E004F0E49005CCF0900523E004F0026E
:0B5B7C005A83126A809005987401F0B3
:015B870022FB
:106C2600EF14601814601D14602214602714602C81
:106C3600240570337BFF7A2C794F80267BFF7A2CD4
:106C46007955801E7BFF7A2C795B80167BFF7A2C28
:106C56007961800E7BFF7A2C796780067BFF7A2C20
:086C6600796DE4FD126938228A
:10004600783B7C047D017BFF7A3479487E007F64AF
:10005600123619E49004A0F0A3F0A3F0A3F078A759
:100066007C047D017BFF7A3479ACFE7F061236195B
:1000760078AD7C047D017BFF7A3479B27E007F0601
:1000860012361978B37C047D017BFF7A3479B87E09
:10009600007F06123619A2A4E4335401FF900267CA
:1000A600E0FCA3E054FEFDECFEED4FFF900267EE90
:1000B600F0A3EFF0A2A3E433540125E0FFE433FEFE
:1000C600900267E0FCA3E054FDFDEC4EFEED4FFF11
:1000D600900267EEF0A3EFF0A2A2E4FE335401789B
:1000E60002C333CE33CED8F9FF900267E0FCA3E01B
:1000F60054FBFDEC4EFEED4FFF900267EEF0A3EFD2
:10010600F0A2A1E4FE3354017803C333CE33CED834
:10011600F9FF900267E0FCA3E054F7FDEC4EFEED1C
:100126004FFF900267EEF0A3EFF0A2A0E433540174
:10013600C4F8540FC868FFE4C454F048FE90026740
:10014600E0FCA3E054EFFDEC4EFEED4FFF9002679E
:10015600EEF0A3EFF0A2B5E4FE3354017805C33305
:10016600CE33CED8F9FF900267E0FCA3E054DFFD62
:10017600EC4EFEED4FFF900267EEF0A3EFF0A2B358
:10018600E4FE3354017806C333CE33CED8F9FF905C
:100196000267E0FCA3E054BFFDEC4EFEED4FFF907E
:1001A6000267EEF0A3EFF0A2B2E4FE335401780743
:1001B600C333CE33CED8F9FF900267E0FCA3E054F8
:1001C6007FFDEC4EFEED4FFF900267EEF0A3EFF0E1
:1001D600A2A6E4335401FE900267E054FEFCA3E0BD
:1001E600FDEC4EFFED900267CFF0A3EFF0A2A7E47F
:1001F60033540125E0FE900267E054FDFCA3E0FDC8
:10020600EC4EFFED900267CFF0A3EFF0A292E4333D
:10021600540125E025E0FE900267E054FBFCA3E0D4
:10022600FDEC4EFFED900267CFF0A3EFF0A293E452
:1002360033540133333354F8FE900267E054F7FC2D
:10024600A3E0FDEC4EFFED900267CFF0A3EFF0A226
:1002560096E4335401C454F0FE900267E054EFFC78
:10026600A3E0FDEC4EFFED900267CFF0A3EFF0A206
:1002760097E4335401C43354E0FE900267E054DF40
:10028600FCA3E0FDEC4EFFED900267CFF0A3EFF08C
:10029600A2CCE4335401C4333354C0FE900267E069
:1002A60054BFFCA3E0FDEC4EFFED900267CFF0A338
:1002B600EFF0A2CDE4335401C43333335480FE90BF
:1002C6000267E0547FFCA3E0FDEC4EFFED90026771
:1002D600CFF0A3EFF0900267E0FFA3E0900016CF07
:1002E600F0A3EFF090001AE0FEA3E0FF900016E006
:1002F600FCA3E0FD6F7002EC6E6079900349E0FEAE
:10030600A3E0FF900027EEF0A3EFF0900023E0704B
:1003160002A3E0701190002FEEF0A3EFF090000A18
:10032600E04401F0800790000AE054FEF090001FC0
:10033600E0FEA3E0FF900349E0FAA3E0FBC39FFFC2
:10034600EA9EFED3EF9432EE9400402590001AEC1C
:10035600F0A3EDF090001DEAF0A3EBF0E49000218D
:10036600F0A3F0A3F0A3F0900033F0A304F002048E
:100376007B02047490002FE0FEA3E0FF900349E0A7
:10038600FCA3E0FDC39FFFEC9EFED3EF9432EE94F8
:1003960000400790000AE054FEF0900027E0FEA31C
:1003A600E0FFC3ED9FFFEC9EFED3EF9430EE947515
:1003B6004034900349E0FFA3E0900027CFF0A3EF7D
:1003C600F090002DE07002A3E0701B9003A5E07092
:1003D60004A3E06411600F9003A5E4F0A304F0E425
:1003E60090002BF0A3F090001DE0FEA3E0FF900329
:1003F60049E0FCA3E0FDC39FFFEC9EFED3EF9432E1
:10040600EE9400406990001FECF0A3EDF09000160A
:10041600E0FEA3E0F47002EEF4605A900023E07070
:1004260002A3E07050900022E004F07006900021D4
:10043600E004F0D3900022E09464900021E0648010
:1004460094804031900023E4F0A304F0900033E45C
:10045600F0A304F0E4900031F0A3F0900025ECF056
:10046600A3EDF0900021E4F0A3740AF08007E49075
:100476000016F0A3F0900023E07002A3E0605B900A
:100486000025E0FEA3E0FF900349E0FCA3E0FDC3E6
:100496009FFFEC9EFED3EF9464EE9400403C9000E8
:1004A60032E004F07006900031E004F0900031E094
:1004B600FEA3E0FFD39432EE648094804007A3E469
:1004C600F0A3740AF0EF4E6008900025ECF0A3ED5F
:1004D600F0900018E4F0A374FFF0900016E0FEA37D
:1004E600E0FF4E6021A3E0FCA3E0FDEF6D7002EE9D
:1004F6006C600C900016A3A3EEF0A3EFF08007E467
:10050600900016F0A3F0900016E0FEA3E0FFF47052
:1005160003EE64FD6012EFF47003EE64FB6009EF16
:10052600F47003EE64F77042900371E0FF60209070
:100536000016E0B4FB19A3E0B4FF14EF3395E0FE18
:10054600EF2414FFE43E90034BF0A3EFF0801B90E2
:1005560005D27401F0900016E0FFA3E0900389CF66
:10056600F0A3EFF090026B7402F090003DE0FEA362
:10057600E0FFEE6003020607EF24F6602524F6602E
:10058600562414707C20947990003DE4F0A3740AFC
:10059600F0900349E0FFA3E090003BCFF0A3EFF01B
:1005A600805F20942990003BE0FEA3E0FFC3900308
:1005B6004AE09FFF900349E09EFED3EF9464EE94D9
:1005C60000403E90003DE4F0A37414F08033E490C4
:1005D600003DF0A3F0802A3094279005D27401F0F4
:1005E60090038974FFF0A374EEF090026B7402F02E
:1005F600E490003DF0A3F090039274FFF0A374EE34
:10060600F090026CE0FEA3E0FF64084E7003020760
:10061600FB900016E0FCA3E08CF0123AF5066B00A6
:100626000007D87FFF07CABFFF07BADFFF07AAEF99
:10063600FF079AF7FF078AFBFF077AFDFF0769FEA8
:10064600FF0758FF7F0739FFBF0728FFDF07EDFFCA
:10065600EE0717FFEF06C9FFF7068DFFFE066BFFD5
:10066600FF000007FB900392E0B4FF0FA3E0B4EE97
:100676000AE4900392F0A3F00207ED900271E4F011
:10068600A3F0A3F00207FBEF64024E600C90026C2D
:10069600E07004A3E0640370189003A5E07004A35F
:1006A600E06401700C90038EF0A3F090026CF0A34E
:1006B600F09003B3E07004A3E0640160030207FB5B
:1006C6000207E490026CE0FEA3E0FF64024E6006BF
:1006D600EF64034E700C9003A5E07004A3E0640180
:1006E600601D90026CE07002A3E070139003A5E019
:1006F6007004A3E06401700790026CF0A304F0900C
:1007060003B3E07004A3E0640160030207FB020781
:10071600E490027174FFF0A3742CF0A37478F002D5
:1007260007FB90027174FFF0A3742CF0A3747DF0A4
:100736000207FB9003B3E07004A3E0640170079026
:100746000390F0A304F090026CE4F0A37408F002A6
:1007560007FB90027174FFF0A3742CF0A37482F06F
:100766000207FB90027174FFF0A3742CF0A3748748
:10077600F00207FB90027174FFF0A3742CF0A374CF
:100786008CF0807190027174FFF0A3742CF0A37446
:1007960091F0806190027174FFF0A3742CF0A37441
:1007A60096F0805190027174FFF0A3742CF0A3743C
:1007B6009BF0804190027174FFF0A3742CF0A37437
:1007C600A0F080319003B3E07004A3E064017025CB
:1007D600800C9003B3E07004A3E0640170179003EB
:1007E60090F0A304F0800E90027174FFF0A3742CB5
:1007F600F0A37473F09003A5E0FEA3E0FFEE6003A0
:10080600021942EF24FE7003020CF6147003021064
:10081600DD14700302148724FB700302190624F901
:100826007003020FB5147003020EFF24106003025A
:100836001942900016E0FEA3E08EF0123AF509C4C4
:100846007FFF094EBFFF0AA8FFBF0A40FFF708B7A0
:10085600FFFB091EFFFD0864FFFE00000AC2E490CC
:10086600003AF090002BE07002A3E070299003A0FC
:100876007430F0A3F0A3F0A3F0A3F090038B7404FC
:10088600F07B017A0379A0E4FD1269389003A5E4B0
:10089600F0A37402F022900043E0B4010AE4F09061
:1008A6000037F09003BBF0E490002BF0A3F0020AAF
:1008B600C2E490003AF0900023E07002A3E06045A5
:1008C60090002BE07002A3E0703B90037BE0FCA35A
:1008D600E0FDA3E0FEA3E0FFA3E0F8A3E0F9A3E0B8
:1008E600FAA3E0FBC312393C601B90037BE0FCA338
:1008F600E0FDA3E0FEA3E0FFA3123A019005CB744E
:1009060001F012679F90026EE064016003020AC262
:1009160090059B04F0E48029E490003AF0900349A6
:10092600E0FFA3E0900029CFF0A3EFF0A3E4F0A34B
:100936007405F090026EE06003020AC290059B0403
:10094600F090026EF0020AC2E490003AF090002B9A
:10095600E07002A3E06003020AC2900040E0FBA33D
:10096600E0FAA3E0F9900001123A9F900044EBF000
:10097600A3EAF0A3E9F0E4900421F0A3F0A304F0C5
:10098600E490026FF090000B04F0E490002DF0A3C9
:10099600F0FC7D0FFFFE1236B9900040E0FBA3E0AD
:1009A600FAA3E02FF9EA3EFA9000091236589004AD
:1009B60030F0D3648094805003022B8D8072E490D3
:1009C600003AF090002BE07002A3E06003020AC236
:1009D600900040E0FBA3E0FAA3E0F9900001123A90
:1009E6009F900044EBF0A3EAF0A3E9F0E490042121
:1009F600F0A304F0A3F090026FF090000BF0E490E7
:100A0600002DF0A3F0FC7D0FFFFE1236B9900040DA
:100A1600E0FBA3E0FAA3E02FF9EA3EFA9000091200
:100A26003658900430F0D3648094805003022B8DA6
:100A36009003A5E4F0A37403F022900043E070371E
:100A4600900023E07002A3E0601090003AE0C364D7
:100A56008094A8500AE004F08005E490003AF090F3
:100A66000349E0FFA3E0900029CFF0A3EFF0A3E451
:100A7600F0A37402F080459005D27401F0900389CA
:100A860074FFF0A374BFF090026B7402F0E4900060
:100A96002BF0A3F0900043F0900037F09003BBF0EA
:100AA600801A900043E0701490057904F090002BB2
:100AB600E4F0A37404F09000437401F090002BE07E
:100AC6007002A3E06003020C30900396E0FF9000F2
:100AD6000EE4F0A3EFF090026FE0900436F090037E
:100AE6004BE07002A3E06003020B8690034DE070BA
:100AF6004CA3E0B401109003BB7401F0900037E002
:100B0600700B04F0800790000AE054FDF090037F1C
:100B1600E0F8A3E0F9A3E0FAA3E0FB90037BE0FC96
:100B2600A3E0FDA3E0FEA3E0C39BFFEE9AFEED99D2
:100B3600FDEC98FC900358123A01020BB77A2C7917
:100B4600A512693490034DE0FB547FFF3395E0FE18
:100B5600FDFC900012123A01EB30E708900037E0F6
:100B6600700204F0124DCA900437EFF07B017A034D
:100B760079AC7D0312652D9003BB7401F0020BFB6B
:100B860090034BE0FEA3E0FF640B4E6006EF640C9F
:100B96004E703490034EE0B401109003BB7401F024
:100BA600900037E0700B04F0800790000AE054FDD7
:100BB600F0900358E0FCA3E0FDA3E0FEA3E0FF12E3
:100BC6004DC4126520802E7BFF7A2C79A9E4FD1294
:100BD6006938900037E0700204F090034B124DBC68
:100BE600900437EFF07B017A0379AC7D0312652D13
:100BF600E49003BBF090038CE07003020CD69003E4
:100C060095E0FF90039DE004FEF0D3EF6480F8EEDC
:100C16006480985003020CD6E4F090026FE004F072
:100C2600E490000EF0A3F0020CD690002BE07004C6
:100C3600A3E064027033900352124DBC12652090FB
:100C46000029E0FEA3E0FFC390034AE09FFF900364
:100C560049E09EFED3EF94D0EE9407407390002BAC
:100C6600E4F0A37403F0020CD690002BE07004A30A
:100C7600E064037005900350803590002BE070040B
:100C8600A3E06404701A7BFF7A2C79ADFD126938F3
:100C9600900037E0700204F09003BB7401F08030DE
:100CA60090002BE07004A3E064057024900373E0C9
:100CB600FEA3E0FFE4FCFD900012123A0190001240
:100CC600A3A3E0FEA3E0FFE4FDFC124DC4126520E1
:100CD60090003AE06428600302194AF09003A5F0F8
:100CE600A37410F090002BE4F0A37404F0021066D5
:100CF600900016E0FEA3E08EF0123AF50D69FFF7BC
:100D06000D23FFFB0D39FFFD0D16FFFE00000EDF64
:100D1600E490026FF09003A5F0A304F02290038BF9
:100D2600E014F0C3648094804003020EDF7404F084
:100D3600020EDF90038BE0FF3395E0FE74A02FF5E3
:100D46008274033EF583E004F0D3648094B95003C3
:100D5600020EDF74A02FF58274033EF5837430F023
:100D6600020EDF9004357401F0900269E0FF9004F2
:100D760035E0FEC3EF6480F8EE6480984003022BF2
:100D86008D900040E0FBA3E0FAA3E0F9EE75F00FCA
:100D9600A4FFE92FF9E43AFA900004123A9F1236BA
:100DA6003FFF9003A0E06F6003020ED6900435E08B
:100DB600FF3395E0FE7C007D0F1236B9900040E0CF
:100DC600FBA3E0FAA3E02FF9EA3EFA900004123AF8
:100DD6009F900001123658FF9003A1E06F60030256
:100DE6000ED6900002123658FF9003A2E06F600301
:100DF600020ED6900003123658FF9003A3E06F60F0
:100E060003020ED6900004123658FF9003A4E06F3A
:100E16006003020ED6900435E0FFB404289002EB7E
:100E2600E07002A3E0700A9002EDE07002A3E060B9
:100E360014900372E020E50D900301E07002A3E038
:100E46006003022B8DEF3395E0FE90002DF0A3EFAB
:100E5600F07C007D0F1236B9900040E0FBA3E0FA6B
:100E6600A3E02FF9EA3EFA900001123A9F9000445F
:100E7600EBF0A3EAF0A3E9F090002DE0FEA3E0FF7B
:100E8600900421F0E4A3F0A304F0E490026FF012C2
:100E960036B9900040E0FBA3E0FAA3E02FF9EA3E62
:100EA600FA900009123658900430F0D3648094808A
:100EB60040099003A5E4F0A37403F0900430E0D356
:100EC6006480949440037414F090049F740AF02292
:100ED600900435E004F0020D6F900010E07002A35C
:100EE600E0600D900023E07002A3E0700302187129
:100EF6007B017A0379A002193B900016E0FEA3E07D
:100F06008EF0123AF50F13FFFE00000F47E4900033
:100F16002BF0A3F090038B7404F0E490039DF09003
:100F260004217478F09004237401F0E490026FF0C9
:100F36009003A5F0A304F0E4900037F09003BBF013
:100F46002290034BE0FEA3E0FF640B4E6006EF64C5
:100F56000C4E7044EF640B4E70147BFF7A2C79B301
:100F6600FD126938900037E0702504F08021900367
:100F76004BE07004A3E0640C600302194A7BFF7A1D
:100F86002C79B9FD126938900037E0700204F090B0
:100F960003BB7401F002194A7BFF7A2C79BFE4FD8A
:100FA600126938E4900037F09003BBF002194A90BA
:100FB6000016E0FEA3E08EF0123AF510D47FFF1083
:100FC600CBBFFF1083DFFF108CEFFF107AF7FF1007
:100FD60071FBFF10B9FDFF10B0FEFF10A7FF7F10D9
:100FE600C2FFBF1095FFDF109EFFEF1052FFFB10F0
:100FF6002AFFFD1001FFFE0000194AE490002BF0C5
:10100600A3F090038B7404F0E490039DF090042108
:101016007478F09004237401F0E490026FF090036A
:10102600A5021946900394E0C3648094815009E0B8
:1010360004F09005D37401F0900394E0FF126C263F
:10104600900394E0D36480948002194A900394E05C
:10105600D3648094804009E014F09005D37401F0C5
:10106600900394E0FF126C2602194A7BFF7A2C79D2
:10107600C502193B7BFF7A2C79CB02193B7BFF7AA1
:101086002C79D102193B7BFF7A2C79D702193B7B4D
:10109600FF7A2C79DD02193B7BFF7A2C79E3021962
:1010A6003B7BFF7A2C79E902193B7BFF7A2C79EF9F
:1010B60002193B7BFF7A2C79F502193B7BFF7A2CD0
:1010C60079FB02193B7BFF7A2D790102193B7BFFE5
:1010D6007A2D790702193B900016E0FEA3E08EF008
:1010E600123AF51197FFF7112AFFFB1160FFFD1069
:1010F600FDFFFE000011FAE490002BF0A3F0900330
:101106008B7404F0E490039DF09004217478F090C1
:1011160004237401F0E490026FF09003A5F0A30499
:10112600F00211FA90026FE0FF14F0EF70099004DC
:1011360030E01490026FF090026FE0900422F0F01D
:10114600A37401F090049FE0FF14F0EFD3940A40DB
:10115600030211FA741DF00211FA900430E0FF90B8
:10116600026FE004FEF0C3EF6480F8EE64809840FE
:1011760002E4F090026FE0900422F0A37401F09074
:10118600049FE0FF04F0EFC3941D4068740AF080EA
:1011960063900421E0FDB4042790026FE0FF740120
:1011A6007E00A807088005C333CE33CED8F9FF905A
:1011B6000372E0FB3395E05EFEEF5B4E6036802EF9
:1011C600EDB4032A90026FE0A2E713FF74017E00DC
:1011D600A807088005C333CE33CED8F9FF90037233
:1011E600E0FD3395E05EFEEF5D4E60088000900006
:1011F6000B7405F0900421E0FF700890000BE0608E
:101206000204F090000BE064056003021396F09070
:10121600026FE0FE900436F090038B7404F09002A7
:10122600707402F0EFB40331EEA2E713FF74017E8F
:1012360000A807088005C333CE33CED8F9FF900344
:1012460072E0FD3395E05EFEEF5D4E700C90038517
:10125600123A0D000000008020900429E0FBA3E074
:10126600FAA3E0F9123A7F12374CFFAEF0EE33954F
:10127600E0FDFC900385123A019003A5E4F0A37407
:1012860004F0900436E0FF3395E0FEEF7803C333B5
:10129600CE33CED8F9FF900044E0FBA3E0FAA3E0FA
:1012A6002FF9EA3EFA900429EBF0A3EAF0A3E9F05D
:1012B6009002707402F0123A7FC003900522740304
:1012C600F0E4A3F0A304F0A37403F0A374A9F0E47C
:1012D600A3F0A37402F0D003FD124DED900437EF96
:1012E600F090038D7403F09003A07430F0A3F074B3
:1012F6000314606D1460431460030213879004376F
:10130600E0FFFD3395E0FC74A92DF58274033CF5EE
:1013160083E0FE9003A2F0BE20037430F0EF339515
:10132600E0FE74AA2FF58274033EF583E0FD900378
:10133600A3F0BD20037430F080389003A27420F02F
:10134600900437E0FF3395E0FE74AA2FF58274030C
:101356003EF583E0FD9003A3F0BD20037430F080DA
:10136600119003A27420F0A3F0900437E0FF3395A8
:10137600E0FE74AB2FF58274033EF583E09003A480
:10138600F0E4900035F0A3F09003A5F0A37404F008
:10139600D390000FE0940090000EE09400400FA35D
:1013A600E024FFF090000EE034FFF002194A9003AB
:1013B60096E0FF90000EE4F0A3EFF090026FE0FDE0
:1013C600FF3395E0FEEF7803C333CE33CED8F9FF73
:1013D600900044E0FBA3E0FAA3E02FF9EA3EFA907E
:1013E6000429EBF0A3EAF0A3E9F0900421E0B403AA
:1013F60031EDA2E713FF74017E00A807088005C33C
:1014060033CE33CED8F9FF900372E0FD3395E05E1C
:10141600FEEF5D4E700C900385123A0D0000000041
:101426008020900429E0FBA3E0FAA3E0F9123A7FBA
:1014360012374CFFAEF0EE3395E0FDFC90038512BB
:101446003A0190026FE0FF1243CA9005227403F03E
:10145600E4A3F07B01A304F0A37403F0A374A9F042
:10146600E4A3F0A37402F07A0379857D04124DEDAE
:10147600900437EFF024A9F9E43403FA7B0102184B
:10148600FF900016E0FEA3E08EF0123AF51610FF6C
:10149600F714B3FFFB1563FFFD14A7FFFE0000184A
:1014A6005D900421E0600302185402182990026F2F
:1014B600E0FF3395E0FEEF7803C333CE33CED8F9A1
:1014C600FF900044E0FBA3E0FAA3E02FF9EA3EFA1E
:1014D60090000712365830E00302185D900385E04D
:1014E600FCA3E0FDA3E0FEA3E0FFC006C00790005A
:1014F60033E0FEA3E0FBAA06EA3395E0F9F8D0074D
:10150600D006C3EF9BFFEE9AFEED99FDEC98FC909A
:101516000385123A01900429E0FBA3E0FAA3E0F95F
:10152600900005123777FFAEF0EE3395E0FDFC90A4
:101536000385E0F8A3E0F9A3E0FAA3E0FBC31239C0
:1015460026400302185D900429E0FBA3E0FAA3E01D
:10155600F9900005123777FFAEF002160190026F80
:10156600E0FF3395E0FEEF7803C333CE33CED8F9F0
:10157600FF900044E0FBA3E0FAA3E02FF9EA3EFA6D
:1015860090000712365830E00302185D900385E09C
:10159600F8A3E0F9A3E0FAA3E0FB900033E0FEA392
:1015A600E0FFEE3395E0FDFCEB2FFFEA3EFEE93D62
:1015B600FDE83CFC900385123A01900429E0FBA368
:1015C600E0FAA3E0F9900003123777FFAEF090043B
:1015D60039EEF0A3EFF0EE3395E0FDFC900385E0E5
:1015E600F8A3E0F9A3E0FAA3E0FBD31239265003EF
:1015F60002185D900439E0FEA3E0FFEE3395E0FDAE
:10160600FC900385123A0102185D900023E07002F7
:10161600A3E060030218237B017A0379A09002708D
:10162600E0900522F07D051260A1900385123A0133
:10163600900429E0FBA3E0FAA3E0F9900003123737
:1016460077FFAEF0EE3395E0FDFC900385E0F8A35E
:10165600E0F9A3E0FAA3E0FBD3123926400302180F
:1016660023900429E0FBA3E0FAA3E0F99000051219
:101676003777FFAEF0EE3395E0FDFC900385E0F89A
:10168600A3E0F9A3E0FAA3E0FBC312392650030254
:1016960018237E007F02E47066EF1460481460250C
:1016A60024FE705B900385E0FCA3E0FDA3E0FEA3AF
:1016B600E0FF900429E0FBA3E0FAA3E0F9123A7FE9
:1016C6001239C3803A900385A3A3E0FEA3E0FF90FE
:1016D6000429E0FBA3E0FAA3E0F9123A7FEE8FF0CB
:1016E6001237AF801A900385A3A3A3E0FF900429C5
:1016F600E0FBA3E0FAA3E0F9123A7FEF12368590F9
:1017060003A2E0B4300B7420F0A3E0B430037420DD
:10171600F07B017A0379A27D0212652D900421E007
:101726006402600302181790026FE0A2E713FDFF40
:101736003395E0FEEF7802C333CE33CED8F9FF24DB
:10174600B9F58274023EF583E0FAA3E0FB74D72F65
:10175600F58274023EF583E0FEA3E06B7002EE6A4A
:10176600600302180CEDFF3395E0FEEF7802C333F9
:10177600CE33CED8F9FF24BBF58274023EF583E062
:10178600FAA3E0FB74D92FF58274023EF583E0FEDE
:10179600A3E06B7002EE6A706D900372E0FF740155
:1017A600A805088002C333D8FC4F900372F0EDFF02
:1017B6003395E0FEEF25E0FFEE33FE74F52FF5825C
:1017C60074023EF583E4F0A3F0900438F0900438F8
:1017D600E0FFC3ED6480F8EF6480985022EF339504
:1017E600E0FEEF25E0FFEE33FE74F52FF58274027E
:1017F6003EF583E4F0A3F0900438E004F080CE7F59
:10180600047E001259A49003A5E4F0A37403F080AB
:101816000C900421E0FF3395E0FE1259A4900421B8
:10182600E0702B90002BF0A3F090038B7404F0E48F
:1018360090039DF09004217478F09004237401F0D5
:10184600E490026FF09003A5F0A304F080099003E2
:10185600A5E4F0A37403F0900010E07002A3E0602A
:1018660017900023E07002A3E0700D90038BE0FF59
:101876007D01126CB202194A90026FE0FF1243CA50
:101886009005227405F0E4A3F07B01A304F0A37491
:1018960003F0A374A9F0E4A3F0A37402F07A037929
:1018A600857D04124DED900437EFF03395E0FE741C
:1018B600A92FF58274033EF583E0FF9003A2F0BFE3
:1018C60020037430F0900437E0FF3395E0FE74AAED
:1018D6002FF58274033EF583E0FD9003A3F0BD204F
:1018E600037430F074AB2FF58274033EF583E090F9
:1018F60003A4F07B017A0379A27D0212652D804450
:10190600900427E0FEA3E0FFC390034AE09FFF9008
:101916000349E09EFED3EF94E8EE94034011900451
:1019260025E0FE3395E09003A5F0A3CEF080157B6D
:10193600FF7A2D790DE4FD12693880089003A5E43D
:10194600F0A304F09003A5E0FEA3E0FF90038EE071
:0B1956006E7003A3E06F7003021E021E
:101961009004B974FFF0A3742DF0A37413F0A37461
:10197100FFF0A3742DF0A37418F0A374FFF0A37407
:101981002DF0A3741DF09003B3E07004A3E0640193
:101991007007900390F0A304F09003A5E0FEA3E08C
:1019A100FF90038EEEF0A3EFF0EE6003021E02EF54
:1019B100123ACF19D6011B1A021B31031C86051CD2
:1019C100D4061D04071D34081D64091D93101DC292
:1019D1001100001E0290034BE07002A3E0600302BD
:1019E1001E02FFFE126B417BFF7A2D7922126D3AA6
:1019F1007F537E007D007C00126A277BFF7A2D7960
:101A010041126D3A7F537E007D007C00126A277B74
:101A1100FF7A2D7958126D3A7BFF7A2D7958126D24
:101A21003A7F537E007D007C00126A279005437443
:101A3100FFF0A3742DF0A37463F09004B9E0F9A34F
:101A4100E0FAA3E0900546C9F0A3EAF0A3E9F07B30
:101A5100017A04793B1247B87B017A04793B126D14
:101A61003A7F537E007D007C00126A277BFF7A2D2E
:101A71007978126D3A7BFF7A2D7983126D3A7F5313
:101A81007E007D007C00126A2790054374FFF0A35D
:101A9100742DF0A37463F09004BCE0F9A3E0FAA301
:101AA100E0900546C9F0A3EAF0A3E9F07B017A04CE
:101AB100793B1247B87B017A04793B126D3A7BFF7F
:101AC1007A2D7978126D3A7F537E007D007C001269
:101AD1006A277BFF7A2D798E126D3A90054374FF48
:101AE100F0A3742DF0A37463F09004BFE0F9A3E0B8
:101AF100FAA3E0900546C9F0A3EAF0A3E9F07B015F
:101B01007A04793B1247B87B017A04793B126D3A2A
:101B11007BFF7A2D7978021CC3126B3E7F537E00C6
:101B21007D007C00126A277BFF7A2D7999021CC304
:101B3100126B3E900421E0704EA3E0704A90054381
:101B410074FFF0A3742DF0A374B8F0A374FFF0A395
:101B5100742BF0A374B3F07B017A04793B1247B87C
:101B61007B017A04793B126D3A7F537E007D007CC4
:101B710000126A2790054374FFF0A3742DF0A3743B
:101B8100CDF09004B98049900421E07057A3E0643E
:101B910001705190054374FFF0A3742DF0A374B844
:101BA100F0A374FFF0A3742BF0A374B6F07B017A59
:101BB10004793B1247B87B017A04793B126D3A9064
:101BC100054374FFF0A3742DF0A374CDF09004BC11
:101BD100E0F9A3E0FAA3E0900546C9F0A3EAF0A377
:101BE100E9021DEF7BFF7A2D79E4126D3A90042210
:101BF100E0240AFF126322900422E0FF3395E0FE05
:101C0100EF7803C333CE33CED8F9FF900044E0FB25
:101C1100A3E0FAA3E02FF9EA3EFA9004A4EBF0A3C3
:101C2100EAF0A3E9F0123A7F12374CFFAEF0EE333F
:101C310095E0FDFC900385123A01900385A3A3E092
:101C4100FEA3E0FF9004A2EEF0A3EFF09005437431
:101C5100FFF0A3742DF0A374EEF0A3EEF0A3EFF068
:101C61007B017A0479A71247B890054374FFF0A36A
:101C7100742DF0A374F1F0A37401F0A37404F0A324
:101C810074A7021DEF7BFF7A2D79E4126D3A7F5321
:101C91007E007D007C00126A2790054374FFF0A34B
:101CA100742EF0A37408F0A374FFF0A3742EF0A3B4
:101CB1007421F07B017A04793B1247B87B017A04E5
:101CC100793B126D3A7F537E007D007C00126A27BA
:101CD100021E027BFF7A2D79E4126D3A7F537E005A
:101CE1007D007C00126A2790054374FFF0A3742ED7
:101CF100F0A37408F0A374FFF0A3742EF0A3742E64
:101D0100021DEF7BFF7A2D79E4126D3A7F537E003D
:101D11007D007C00126A2790054374FFF0A3742EA6
:101D2100F0A37408F0A374FFF0A3742EF0A374372A
:101D3100021DEF7BFF7A2D79E4126D3A7F537E000D
:101D41007D007C00126A2790054374FFF0A3742E76
:101D5100F0A37408F0A374FFF0A3742EF0A37442EF
:101D6100021DEF7BFF7A2D79E4126D3A7F537E00DD
:101D71007D007C00126A2790054374FFF0A3742E46
:101D8100F0A37408F0A374FFF0A3742EF0A3744FB2
:101D9100805C7BFF7A2D79E4126D3A7F537E007D62
:101DA100007C00126A2790054374FFF0A3742EF0A3
:101DB100A37408F0A374FFF0A3742EF0A3746080E1
:101DC1002D7BFF7A2D79E4126D3A7F537E007D00E1
:101DD1007C00126A2790054374FFF0A3742EF0A3D0
:101DE1007408F0A374FFF0A3742EF0A3746DF07B5C
:101DF100017A04793B1247B87B017A04793B126D71
:011E01003AA6
:101E02009003A5E0FEA3E0FFEE6003022546EF2467
:101E1200FE7003022450147003022489147003021A
:101E220024AF2403600302254690026CE0FEA3E087
:101E3200FFEE6003022546EF1470030222081470BD
:101E42000302233B14700302239624FB7003022334
:101E5200C6240860030225469003A7E0FEA3E0FF24
:101E6200C390034AE09FFF900349E09EFED3EF94A4
:101E7200F4EE940150030220D59003B3E07002A364
:061E8200E060030220D520
:101E880078B97C047D017BFF7A3479BEFE7F091224
:101E98003619E49004C2F0A3F0900349E0FFA3E0F0
:101EA8009003A7CFF0A3EFF0900040E0FBA3E0FA87
:101EB800A3E0F9900001123A9F9004A4EBF0A3EA82
:101EC800F0A3E9F0123A7F12374CFF9004A0E5F036
:101ED800F0A3EFF090054374FFF0A3742DF0A37402
:101EE800EEF09004A0E0FFA3E0900546CFF0A3EF4A
:101EF800F07B017A0479AD1247B8900040E0FBA36B
:101F0800E0FAA3E0F9900001123A9FE92408F9E405
:101F18003AFA9004A4EBF0A3EAF0A3E9F0123A7FAE
:101F280012374CFF9004A2E5F0F0A3EFF0900543C0
:101F380074FFF0A3742DF0A374EEF09004A2E0FFF8
:101F4800A3E0900546CFF0A3EFF07B017A0479B3C4
:101F58001247B87BFF7A2D7958126D3A9005437471
:101F6800FFF0A3742EF0A37476F0A37401F0A374A9
:101F780004F0A374ADF07B017A04793B1247B87B77
:101F8800017A04793B126D3A7BFF7A2D7983126DC1
:101F98003A90054374FFF0A3742EF0A37476F0A36F
:101FA8007401F0A37404F0A374B3F07B017A04798C
:101FB8003B1247B87B017A04793B126D3A7BFF7A72
:101FC8002D798E126D3A90054374FFF0A3742EF0AC
:101FD800A3748DF0900358E0FCA3E0FDA3E0FEA3FA
:101FE800E0FF900546123A017B017A04793B1247DB
:101FF800B87B017A04793B126EC89004C2EEF0A354
:10200800EFF0E4900438F0900438E0FFC364809463
:1020180089501AEF3395E0FE74B92FF58274043EA7
:10202800F5837430F0900438E004F080DAE490042A
:1020380038F0900438E0FFFD3395E0FC9004C2E0EE
:10204800FAA3E0FBD39DEC6480F8EA6480984043EF
:10205800EF64809488503C900438E03395E0FC7439
:102068003B2DF58274043CF583E0FEC374089BFDA8
:10207800E49AFCEFFB3395E0FAED2BFDEC3AFC74A7
:10208800B92DF58274043CF583EEF0900438E00431
:10209800F0809FE49004C1F090054374FFF0A374AE
:1020A8002EF0A37476F0A37401F0A37404F0A37463
:1020B800B9F07B017A04793B1247B87B017A04793D
:0D20C8003B126D3A7BFF7A2D7978126D3A4C
:1020D500900271E0FBA3E0FAA3E0F9EA494B700333
:1020E5000221979003B3E07002A3E06003022197F9
:1020F50090039EE0FEA3E0FF900349E0FCA3E0FD12
:10210500C39FFFEC9EFED3EF94F4EE9401500302BF
:0221150025465D
:1021170090039EECF0A3EDF07BFF7A2E7991126D80
:102127003A900000E07002A3E0900543600C74FF52
:10213700F0A3742EF0A3749C800A74FFF0A3742E8E
:10214700F0A374B3F0900271E0F9A3E0FAA3E09072
:102157000546C9F0A3EAF0A3E9F07B017A04793BCD
:102167001247B87B017A04793B126D3A7BFF7A2ECE
:1021770079C9126D3A900000E07002A3E070047F05
:0D2187000180027F00900000E4F0A3EFF063
:10219400022546900271A3E0FAA3E04A60030225F7
:1021A400469003B3E07002A3E06003022546900367
:1021B4009EE0FEA3E0FFC390034AE09FFF90034923
:1021C400E09EFED3EF94F4EE940150030225467B87
:1021D400FF7A2E7991126D3A90054374FFF0A3743F
:1021E4002EF0A374D3F07B017A04793B1247B87BB9
:1021F400017A04793B126D3A7BFF7A2E79C9126D0C
:102204003A022546E4FFFE126B417BFF7A2E79EBFE
:10221400126D3A7F107E277D007C00126A277BFFB7
:102224007A2D7958126D3A90054374FFF0A3742EF9
:10223400F0A374F6F0A374FFF0A3742EF0A374F962
:10224400F07B017A0479B31247B890054374FFF028
:10225400A3742FF0A37401F0A37401F0A37404F029
:10226400A374B3F07B017A04793B1247B87B017AFB
:1022740004793B126D3A7BFF7A2E7991126D3A9074
:10228400054374FFF0A3742DF0A374EEF090035291
:10229400E0FFA3E0900546CFF0A3EFF07B017A04C2
:1022A40079B31247B890054374FFF0A3742FF0A3D9
:1022B4007418F0A37401F0A37404F0A374B3F07B56
:1022C400017A04793B1247B87B017A04793B126D99
:1022D4003A7BFF7A2D7983126D3A90054374FFF0AF
:1022E400A3742FF0A3742FF0900358E0FCA3E0FD37
:1022F400A3E0FEA3E0FF900546123A017B017A04B5
:10230400793B1247B87B017A04793B126D3A7BFF23
:102314007A2D7978126D3A900349E0FFA3E0900397
:10232400A7CFF0A3EFF090026DE004F0706190028B
:102334006CE004F00225469003A7E0FEA3E0FFC38F
:1023440090034AE09FFF900349E09EFED3EF94D0B0
:10235400EE94075003022546E4FFFE126B417BFF17
:102364007A2F7947126D3A7F107E277D007C001208
:102374006A27900349E0FFA3E09003A7CFF0A3EFFF
:10238400F090026DE004F0700690026CE004F0023C
:10239400254690039EE0FEA3E0FF900349E0FCA3E2
:1023A400E0FDC39FFFEC9EFED3EF94C8EE94005073
:1023B4000302254690039EECF0A3EDF0125B880225
:1023C400254690039EE0FEA3E0FF900349E0FCA3B2
:1023D400E0FDC39FFFEC9EFED3EF94F4EE94014026
:0123E4003FB9
:1023E50090039EECF0A3EDF0E4FFFE126B4190002C
:1023F50002E07002A3E07BFF60067A2F7952800429
:102405007A2F795D126D3A900002E07002A3E070B8
:0F241500047F0180027F00900002E4F0A3EFF04B
:10242400900016E0FEA3E08EF0123AF5243CFFF78C
:102434002447FFFE00002546900271E4F0A3F0A3B8
:10244400F08001E490026CF0A3F08056E49004382C
:10245400F0900438E0FFC36480948540030225466D
:10246400EF3395E0FE74A02FF58274033EF583E00C
:10247400FD74A72FF58274043EF583EDF0900438C3
:10248400E004F080CC900016E0FEA3E0FF64FB7053
:1024940002EEF4600CEF64FD7002EEF460030225BA
:1024A40046E490038EF0A3F0022546900421E0FF59
:1024B400702CA3E07028900044E0FBA3E0FAA3E0B2
:1024C400F99004A4EBF0A3EAF0A3E9F0123A7F1226
:1024D400374CFD9004A0E5F0F0A3EDF08035EF70EB
:1024E40032900422E0B4012B900044E0FBA3E0FA14
:1024F400A3E02408F9E43AFA9004A4EBF0A3EAF088
:10250400A3E9F0123A7F12374CFF9004A2E5F0F0F1
:10251400A3EFF0900385A3A3E0FEA3E0FF9004A241
:10252400EEF0A3EFF090054374FFF0A3742DF0A335
:1025340074EEF0A3EEF0A3EFF07B017A0479A71216
:1025440047B890034BE07002A3E070030228AE90FA
:1025540003A5E07004A3E0640160030228AE9002C6
:0B2564006CE07002A3E060030228AEF0
:10256F009003B3E07002A3E0600F900390E070045B
:10257F00A3E0640160030227DF9003B3E4F0A30438
:10258F00F0E4900390F0A3F0FFFE126B4190034B29
:10259F00E0FEA3E0FFEE60030227C2EF14B40900D0
:1025AF0040030227C29025C275F003A4C58325F00E
:1025BF00C583730225DD02261302264902267F02F8
:1025CF0026B50226EB02272202275802278D9004F8
:1025DF00B97401F0A37440F0A3E4F0A374C8F07BC6
:1025EF00FF7A2F7968126D3A7F887E137D007C0009
:1025FF00126A279004BDE4F0A304F07BFF7A2F79D1
:10260F00790227DC9004B9E4F0A374C8F0A3E4F0D6
:10261F00A37450F07BFF7A2F799D126D3A7F887EDD
:10262F00137D007C00126A279004BDE4F0A37402AE
:10263F00F07BFF7A2F79AE0227DC9004B9E4F0A388
:10264F0074C8F0A3E4F0A37450F07BFF7A2F79D90C
:10265F00126D3A7FAC7E0D7D007C00126A279004CC
:10266F00BDE4F0A37403F07BFF7A2F79EA0227DC35
:10267F009004B9E4F0A37464F0A3E4F0A374AAF097
:10268F007BFF7A307915126D3A7FAC7E0D7D007C21
:10269F0000126A279004BDE4F0A37404F07BFF7A64
:1026AF003079260227DC9004B9E4F0A374B4F0A3C8
:1026BF00E4F0A37422F07BFF7A307951126D3A7FE8
:1026CF00AC7E0D7D007C00126A279004BDE4F0A360
:1026DF007405F07BFF7A3079620227DC9004B974BD
:1026EF0001F0A3742CF0A3E4F0A37464F07BFF7AE1
:1026FF0030798F126D3A9004BDE4F0A37406F07F29
:10270F00AC7E0D7D007C00126A277BFF7A3079A0AA
:10271F000227DC9004B9E4F0A374A0F0A3E4F0A3C3
:10272F00743CF07BFF7A3079CD126D3A9004BDE4A2
:10273F00F0A37407F07FAC7E0D7D007C00126A273A
:10274F007BFF7A3079DE0227DC9004B9E4F0A374C2
:10275F008CF0A3E4F0A374C8F07BFF7A31790D12EB
:10276F006D3A7FAC7E0D7D007C00126A279004BD10
:10277F00E4F0A37408F07BFF7A31791E804F900448
:10278F00B9E4F0A374B4F0A3E4F0A37422F07BFFD8
:10279F007A31794B126D3A7FAC7E0D7D007C001241
:1027AF006A279004BDE4F0A37409F07BFF7A3179B6
:1027BF005C801A9004B9E4F0A374B4F0A3E4F0A31E
:1027CF0004F0E4A3F0A3F07BFF7A317985126D3A20
:1027DF0090039EE0FEA3E0FF900349E0FCA3E0FD21
:1027EF00C39FFFEC9EFED3EF94F4EE9401500302CF
:0227FF0028D0E0
:10280100900271E0FBA3E0FAA3E0F9EA494B600909
:10281100900271E4F0A3F0A3F090039EECF0A3ED1D
:10282100F0900004E07002A3E0900543600C74FF97
:10283100F0A37431F0A37496800A74FFF0A374318D
:10284100F0A374B0F09004BDE0FFA3E0900546CF83
:10285100F0A3EFF09004B9E0FFA3E0900548CFF0BA
:10286100A3EFF09004BBE0FFA3E090054ACFF0A3F3
:10287100EFF090034BE0FFA3E090054CCFF0A3EF06
:10288100F07B017A04793B1247B87B017A04793BEA
:10289100126D3A900004E07002A3E070047F0180A1
:0B28A100027F00900004E4F0A3EFF0C1
:1028AC00802290034BE07002A3E070189003B3E019
:1028BC007004A3E06401700C90038EF0A3F09003FD
:1028CC00B3F0A3F09003A5E0FEA3E0FF64024E601A
:0A28DC0009EF64044E6003022A4F66
:1028E60078B97C047D017BFF7A3479C77E007F64EA
:1028F60012361990039EE0FEA3E0FF900349E0FC28
:10290600A3E0FDC39FFFEC9EFED3EF942CEE940153
:052916005003022A4FEE
:10291B0090039EECF0A3EDF0900006E07002A3E0B4
:10292B0060557B017A0479A7126EC8D3900009E039
:10293B009FEE6480F8900008E064809890054374E3
:10294B00FF500AF0A3742DF0A374F18008F0A37468
:10295B0031F0A374CBF0A37401F0A37404F0A3744F
:10296B00A7F07B017A0479B91247B87B017A047915
:10297B00B9126D3A022A379003A5E07004A3E06404
:10298B0002700590038B8029E4900438F090043892
:10299B00E0FF3395E0FE74A72FF58274043EF583B8
:1029AB00E06008900438E004F080E2900438E01412
:1029BB00F0E0FF3395E0FE74A72FF58274043EF52B
:1029CB0083E090051DF074A72FF58274043EF58308
:1029DB00745FF090054374FFF0A37431F0A374CBD4
:1029EB00F0A37401F0A37404F0A374A7F07B017A35
:1029FB000479B91247B87B017A0479B9126D3A9010
:102A0B0003A5E07004A3E0640290051D7007E0FFCE
:102A1B0090038B8005E0FF900438E0FD3395E0FCDC
:102A2B0074A72DF58274043CF583EFF0900006E05B
:102A3B007002A3E070047F0180027F00900006E427
:042A4B00F0A3EFF015
:102A4F0090001CE0701304F0900349E0FFA3E090A6
:102A5F00000CCFF0A3EFF0803B90000CE0FEA3E062
:102A6F00FFC390034AE09FFF900349E09EFED3EF20
:102A7F009464EE9400401D900010E07002A3E0708B
:102A8F00047F0180027F00900010E4F0A3EFF0E4D8
:102A9F0090001CF0900037E024F6603124F660744B
:102AAF0024F67003022B5B241D6003022B8290031C
:102ABF0049E0FFA3E0900038CFF0A3EFF090000AB9
:102ACF00E04402F0900037740AF0022B829003BBAF
:102ADF00E070067E017FF480047E007F3290003824
:102AEF00E0FCA3E0FDC390034AE09DFD900349E0A5
:102AFF009CFCD3ED9FEC9E407AE0FFA3E090003862
:102B0F00CFF0A3EFF090000AE054FDF0900037747F
:102B1F0014F0805F9003BBE07E077FD0900038E019
:102B2F00FCA3E0FDC390034AE09DFD900349E09CA8
:102B3F00FCD3ED9FEC9E403BE0FFA3E0900038CF2D
:102B4F00F0A3EFF0900037741EF0802790034BE056
:102B5F007002A3E0701790034DE05480FF3395E0AF
:102B6F004F700AA3E07006900037F0800690003790
:0E2B7F007401F090000AE06003D2A522C2A506
:012B8D002225
:104DBC00E0FEA3E0FFE4FCFD900012123A01900526
:104DCC00227405F0E4A3F07B01A304F0A37403F0B8
:104DDC00A374A9F0E4A3F0A37402F07A0079127D15
:014DEC0004C2
:054DED00900521EDF02E
:104DF2006008E0D36480948440037F002290052100
:104E0200E014F0E4900530F0900529123A0D00000C
:104E12000000900521E0B40319900530E06008120B
:104E220039731239188003123973900529123A0125
:104E3200804D900521E0FFB40129900530E0601417
:104E420012374CFDC3E49DFCE495F0900529F0A3D4
:104E5200CCF0802B12374CFD900529E5F0F0A3ED44
:104E6200F0801CEF7016900530E0600712363FF4B8
:104E720004800312363F900529F080037F002290C0
:104E82000528E024FE601B14602024FB601424F833
:104E9200601024D0600C243F701690052F7402F02D
:104EA200800E90052F740AF0800690052F7410F082
:104EB200900522E0FFA3E02FFFC374039F90052D0E
:104EC200F0A3EFF0C3648094835013E0FFC3740334
:104ED2009FFF900522E02FF090052E7403F09005BD
:104EE20022E0FF90052EE0B50706900527E06063FB
:104EF20090052FE0FB3395E0FAF9F8900529E0FCE4
:104F0200A3E0FDA3E0FEA3E0FF126CF6EB2430FF6A
:104F1200900524E0FBA3E0FAA3E0F990052EE0FD62
:104F22003395E08D82F583EF123697900529E0FCE8
:104F3200A3E0FDA3E0FEA3E0FFC00790052FE0FB86
:104F42003395E0FAF9F8D007126CF6900529123A77
:104F520001803B900523E06019A3E0FBA3E0FAA3E4
:104F6200E0F990052EE0FF3395E08F82F583742EF1
:104F72008019900524E0FBA3E0FAA3E0F990052E46
:104F8200E0FF3395E08F82F5837420123697900507
:104F92002EE0FF14F0D3EF648094804003024EE0D1
:104FA200900527E0602D900530E0602490052DE00B
:104FB200FFC3648094835018900524E0FBA3E0FAB9
:104FC200A3E0F9EF3395E08F82F583742D123697C3
:104FD2007F0022E490052EF090052DF0900524E04C
:104FE200FBA3E0FAA3E0F990052EE0FFFD3395E084
:104FF2008D82F58312365864307041EF3395E0FEAE
:10500200EF2401FFE43EFE900522E0FD3395E0FC33
:10501200C3EF9DEC6480F8EE648098501F90052EDB
:10502200E0FF3395E08F82F5837420123697900566
:105032002DE004F090052EE004F080A0900530E011
:10504200601E900524E0FBA3E0FAA3E0F990052D91
:10505200E014FFF03395E08F82F583742D123697BA
:10506200900522E0FFA3E02FFF90052DE0FEC3EFA5
:105072009EA3F0C364809483500EE0FFC374039F29
:0D508200FFC3EE9F90052DF090052DE0FF7F
:01508F0022FE
:0D60A10090051EEBF0A3EAF0A3E9F0AB05BB
:1060AE00900522E024FE600F1460142402701690F6
:1060BE00052C7402F0800E90052C740AF080069068
:1060CE00052C7410F0900523123A0D00000000907C
:1060DE000527123A0D0000000190052BEBF09005FC
:1060EE002BE0D36480948050030261B7E014F090EB
:1060FE00051EE0FBA3E0FAA3E0F990052BE0FF33C9
:10610E0095E08F82F583123658FFC3648094B040B9
:10611E00CDD3EF648094BF50C5900523E0F8A3E083
:10612E00F9A3E0FAA3E0FBC000C001C002C00390D7
:10613E00051EE0FBA3E0FAA3E0F990052BE0FF3388
:10614E0095E08F82F583123658FF3395E0FEEF24EB
:10615E00D0FFEE34FFFEE4FCFD900527E0F8A3E04F
:10616E00F9A3E0FAA3E0FB1237FBD003D002D00173
:10617E00D000EB2FFFEA3EFEE93DFDE83CFC90052A
:10618E0023123A01900527E0F8A3E0F9A3E0FAA361
:10619E00E0FB90052CE0FF3395E0FEFDFC1237FB93
:1061AE00900527123A010260EC90051EE0FBA3E079
:1061BE00FAA3E0F912363F642D60139000011236F7
:1061CE0058642D6009900002123658B42D119005B6
:1061DE0023E0FCA3E0FDA3E0FEA3E0FF023918904C
:0D61EE000523E0FCA3E0FDA3E0FEA3E0FF1D
:0161FB002281
:10632200EF24F6B41400400302641590633B75F049
:1063320003A4C58325F0C5837302637702637A02DF
:10634200638302638C02639502639D0263A5026309
:10635200AD0263B50263BD0263C50263CD0263D5BC
:106362000263DD0263E50263ED0263F50263FD028F
:10637200640502640D0264157BFF7A3179EF0264D1
:106382001B7BFF7A3179FA02641B7BFF7A32790533
:1063920002641B7BFF7A327910807E7BFF7A32792E
:1063A2001B80767BFF7A327926806E7BFF7A327988
:1063B2003180667BFF7A32793C805E7BFF7A32796C
:1063C2004780567BFF7A327952804E7BFF7A327950
:1063D2005D80467BFF7A327968803E7BFF7A327934
:1063E2007380367BFF7A32797E802E7BFF7A327918
:1063F2008980267BFF7A327994801E7BFF7A3279FC
:106402009F80167BFF7A3279AA800E7BFF7A3279DF
:10641200B580067BFF7A3179E4126D3A7F107E27D0
:076422007D007C00026A27E7
:036B3E00E4FFFE73
:086B410090051EEEF0A3EFF039
:106B49007FE87E037D007C00126A2790054374FF6D
:106B5900F0A37432F0A374C0F090051EE0FFA3E027
:106B6900900546CFF0A3EFF07B017A057920124713
:106B7900B87B017A057920126D3A7FE87E037D00A2
:056B89007C00026A27F8
:0C6F1C00900669EBF0A3EAF0A3E9F02274
:105B8800E490051EF0A3F0A3F0A304F078227C05AE
:105B9800FD7BFF7A35792B7E007F1E123619900522
:105BA8001EE4F0A304F090051EE0FEA3E0FFC394FA
:105BB80005EE648094804003025C8590054374FF81
:105BC800F0A37432F0A374CBF0A3EEF0A3EFF07B54
:105BD800017A0579221247B87B017A057922126D7C
:105BE8003A90051EA3E01425E0FFA3E0FEA3E0A879
:105BF80007088005C333CE33CED8F9FF900350E0B1
:105C08005EFEA3E05F4E7BFF70067A3279D7800490
:105C18007A3279EB126D3A7F537E007D007C001258
:105C28006A2790051EA3E025E014FFA3E0FEA3E089
:105C3800A807088005C333CE33CED8F9FF900350A8
:105C4800E05EFEA3E05F4E7BFF70067A3279FF804C
:105C5800047A337914126D3A7BFF7A337929126DFD
:105C68003A7F537E007D007C00126A2790051FE072
:105C780004F0700690051EE004F0025BAE90051E6D
:105C8800E4F0A37405F090051EE0FEA3E0FFC394C2
:105C980007EE648094804003025D6490054374FFBE
:105CA800F0A37432F0A374CBF0A3EEF0A3EFF07B73
:105CB800017A0579221247B87B017A057922126D9B
:105CC8003A90051EA3E025E0FFA3E0FEA3E0A807A5
:105CD800088005C333CE33CED8F9FF900350E05E79
:105CE800FEA3E05F4E7BFF70067A3279D780047A94
:105CF8003279EB126D3A7F537E007D007C00126A88
:105D08002790051EA3E025E004FFA3E0FEA3E0A87A
:105D180007088005C333CE33CED8F9FF900350E08F
:105D28005EFEA3E05F4E7BFF70067A3279FF800447
:105D38007A337914126D3A7BFF7A337929126D3AE6
:105D48007F537E007D007C00126A2790051FE004C7
:0C5D5800F0700690051EE004F0025C8E66
:015D6400221C
:0D6F0F00E4F5C7F5C5F5C675C380F5C422CD
:10002600C2AF75C78375C5018FC4EEF5C375C65AD1
:0C00360075C6A50000AFC2126F0FD2AF5C
:01004200229B
:106AE5009005CCE0FB7A0064AA704DC2AFEB64AAB6
:106AF500700375C783EB64AA4A700375C502EB641E
:106B0500AA4A70028FC49005CCE064AA7003EEF522
:106B1500C39005CCE0FF7E0064AA70028DC2EF64CD
:106B2500AA4E700375C65A9005CCE064AA70037529
:096B3500C6A500126F0FD2AF22B9
:106B8E009005CCE0FD7C0064AA7043C2AFED64AA10
:106B9E00700375C783ED64AA4C700375C503ED646D
:106BAE00AA4C70028FC49005CCE064AA7003EEF577
:106BBE00C39005CCE0FF7E0064AA700375C65AEF41
:0F6BCE0064AA4E700375C6A500126F0FD2AF22D6
:1061FC0090046A7444F0A3E4F0FBFA90037BE0FC97
:10620C00A3E0FDA3E0FEA3E024FFFFEE34FFFEEDD0
:10621C0034FFFDEC34FFFC90046C123A0190046CDA
:10622C00E0FCA3E0FDA3E0FEA3E0FF780712394DEC
:10623C007C007D051236CBAA04AB0590046CA3A39D
:10624C00A3E0547FFFE4FDFCEF701C9005CC74AA16
:10625C00F0AF03EF25E0FEE42400FFEE3444FE1221
:10626C006B8EE49005CCF090046CE0FCA3E0FDA3F5
:10627C00E0FEA3E0FF7802123960A3123A01900409
:10628C0070E0FCA3E0FDA3E0FEA3E0FFE4FB7A0AD0
:10629C00F9F8123886AC00AD01AE02AF0390047071
:1062AC00123A01900470A3A3E0FEA3E0FF90046BEC
:1062BC00E02FF090046AE03EF09004667401F0A3C5
:1062CC007403F0A3747BF09005CC74AAF0E49004F2
:1062DC0069F090046AE0FEA3E0FF900466E0FBA383
:1062EC00E0FAA3E0F912363FFD126AE5900467E488
:1062FC0075F00112372090046BE004F070069004E6
:10630C006AE004F0900469E004F0E0C3940440C235
:05631C00E49005CCF047
:016321002259
:1050900090043A7444F0A3E4F0900448123A0D00EE
:1050A00000000090044C123A0D00002710E4900418
:1050B00064F0A3F0900464E0FEA3E0FFC39480EEEC
:1050C000940240030252A1EF7802C333CE33CED80C
:1050D000F92400FFEE344490043AF0A3EFF090047A
:1050E000367401F0A37404F0A3743CF090043AE029
:1050F000FEA3E0FF120026900436E0FBA3E0FAA333
:10510000E0F9EF123685900437E475F0011237208C
:1051100090043BE02401FF90043AE03400FE1200CA
:1051200026900436E0FBA3E0FAA3E0F9EF123685FF
:10513000900437E475F00112372090043BE024021C
:10514000FF90043AE03400FE120026900436E0FBA3
:10515000A3E0FAA3E0F9EF123685900437E475F086
:105160000112372090043BE02403FF90043AE0341E
:1051700000FE120026900436E0FBA3E0FAA3E0F95B
:10518000EF123685900454E0FCA3E0FDA3E0FEA3FB
:10519000E0FF900450123A0190043CE0FCA3E0FDD3
:1051A000A3E0FEA3E0FF900454123A01900464E0EF
:1051B000B40219A3E0B47F1490043CE0FCA3E0FD2A
:1051C000A3E0FEA3E0FF900458123A0174FFFFFE33
:1051D000FD7C7F90043CE0F8A3E0F9A3E0FAA3E0B3
:1051E000FBD312393C400302527E900448E0FCA3FA
:1051F000E0FDA3E0FEA3E0FF90043CE0F8A3A3A33E
:10520000E012393C4078900450E0FCA3E0FDA3E0BC
:10521000FEA3E0FF90045C123A01900454E0FCA36A
:10522000E0FDA3E0FEA3E0FF900460123A019004C9
:105230003CE0FCA3E0FDA3E0FEA3E0FF90044812E5
:105240003A01900464E0FEA3E0FFE4FCFD90044C0E
:10525000123A01E4FFFEFDFC90044CE0F8A3E0F9F3
:10526000A3E0FAA3E0FBC312393C7012900458E0AB
:10527000FCA3E0FDA3E0FEA3E0FFA3123A0190042B
:105280003CE0FCA3E0FDA3E0FEA3E0FFA3123A0193
:10529000900465E004F07006900464E004F00250AD
:1052A000B4E4900371F07F107E27FDFC90044CE085
:1052B000F8A3E0F9A3E0FAA3E0FBC312393C605085
:1052C00090045CE0F8A3E0F9A3E0FAA3E0FBA3E01C
:1052D000FCA3E0FDA3E0FEA3E0C39BFFEE9AFEED7E
:1052E00099FDEC98FCE47B01FAF9F8C312393C70A3
:1052F00014900448E0FCA3E0FDA3E0FEA3E0FF90CF
:10530000037B023A0190037B123A0D000000002259
:0D53100090037B123A0D000000001261FCBA
:01531D00226D
:106429009004397426F0A3E4F07B0190043604F05B
:10643900A37403F0A3747FF07F007E2612002690D8
:106449000436E0FBA3E0FAA3E0F9EF1236859004E5
:1064590037E475F00112372090043AE02401FF90E7
:106469000439E03400FE120026900436E0FBA3E074
:10647900FAA3E0F9EF123685900437E475F00112BA
:10648900372090043AE02402FF900439E03400FEFA
:10649900120026900436E0FBA3E0FAA3E0F9EF121C
:1064A9003685900437E475F00112372090043AE0FC
:1064B9002403FF900439E03400FE120026900436CC
:1064C900E0FBA3E0FAA3E0F9EF12368590037FE041
:1064D900F8A3E0F9A3E0FAA3E0FB90037BE0FCA3B7
