:03000000025C7B24
:0C5C7B00787FE4F6D8FD758121025CC240
:10528C004105B80042058500004105B97F4205BAC9
:10529C0000004205B5000042058900004105C00030
:1052AC004105BC00410584004105BF004105880053
:1052BC0041058700410565004105B7004105C10165
:1052CC004105BE004105BD0042056600004E055774
:1052DC0010000378000000000000000000004E05E4
:1052EC00C220000378000000000000000000004E07
:1052FC0005A700100378000000000000000000006B
:10530C004E0599002003780000000000000000000A
:10531C00004E058B004003780000000000000000E8
:10532C0000004E05680080037800000000000000BB
:10533C000000004E0576010003780000000000001C
:04534C00000000005D
:1063AD00438E80E4F589758A67758CFCD28CD2A9F1
:0363BD00D2AF223A
:10632200E4F5957596207580FF7590FF75A0FF7551
:0B633200B0FF1263AD12633D02000ECD
:10636C007E017F107D007B017A02797512322690B6
:06637C00026E7401F02224
:104C7F00900554EBF0A3EAF0A3E9F0900554E0FBA4
:104C8F00A3E0FAA3E0F9900002122E7BFFAEF0E54D
:104C9F00F06003024EC0EF24F6605224F670030258
:104CAF004D7224F67003024DFC241E6003024EC0A9
:104CBF0090000CE4F5F0122ED2122E50FF900267E6
:104CCF00E055F0FEA3E05F4E6003024EC090055426
:104CDF00E0FBA3E0FAA3E0F9900002E475F00A12FA
:104CEF002ED2900004123142000000002290055491
:104CFF00E0FBA3E0FAA3E0F9122E50FF900267E069
:104D0F0055F0FEA3E05F4E703C900004123097EF19
:104D1F002401FFE43EFEE43DFDE43CFC9000041260
:104D2F0030E1900004123097E47B14FAF9F8C312C3
:104D3F0030404003024EC0900554E0FBA3E0FAA3BD
:104D4F00E0F9024EB6900554E0FBA3E0FAA3E0F9B8
:104D5F0090000412314200000000900002E4F5F0D0
:104D6F00024EBD900554E0FBA3E0FAA3E0F99000DA
:104D7F0004123097EF2401FFE43EFEE43DFDE43CD6
:104D8F00FC9000041230E1122E50FF900267E055A4
:104D9F00F0FEA3E05F4E601F900554E0FBA3E0FA26
:104DAF00A3E0F9900002E475F01E122ED2900008D5
:104DBF0012314200000000900554E0FBA3E0FAA37B
:104DCF00E0F9900004123097E47B907A01F9F8C370
:104DDF001230404003024EC0900554E0FBA3E0FAAE
:104DEF00A3E0F990000CE475F001024EBD9005545C
:104DFF00E0FBA3E0FAA3E0F9900004123097EF2450
:104E0F0001FFE43EFEE43DFDE43CFC900004123063
:104E1F00E1122E50FF900267E055F0FEA3E05F4EC7
:104E2F006070900554E0FBA3E0FAA3E0F99000084E
:104E3F00123097EF2401FFE43EFEE43DFDE43CFC1D
:104E4F009000081230E1900008123097E47B14FABA
:104E5F00F9F8C31230405059900554E0FBA3E0FA23
:104E6F00A3E0F990000C122E7B640145F090000C2A
:104E7F00700575F0038004E475F002122ED29000D5
:104E8F000412314200000000900002740375F078A4
:104E9F00801C900554E0FBA3E0FAA3E0F990000812
:104EAF0012314200000000900002E475F014122E3F
:024EBF00D222FD
:106247007B017A0579A7124C7F7B017A0579991230
:106257004C7F7B017A057968124C7F7B017A05793F
:1062670076124C7F7B017A057957124C7F7B017A36
:066277000579C2024C7F14
:1062FC00E49005A9F0A3F090059BF0A3F090056A3B
:10630C00F0A3F0900578F0A3F0900559F0A3F0906D
:06631C0005C4F0A3F0220D
:104A2200900563E0FEA3E0FF4E605A90038974EFA5
:104A3200F0A374FFF0EF64014E701C90026B04F05F
:104A4200900566E07002A3E0703B900566F0A30457
:104A5200F09005BEF0802E900563E07004A3E06440
:104A62000290026B7004740280027403F0E49005F9
:104A720063F0A3F0900559F0A3F0900566F0A3F05F
:104A82009005BE04F09005CEE0FEA3E0FF4E605A12
:104A920090038974DFF0A374FFF0EF64014E701C81
:104AA20090026B04F0900566E07002A3E0703B9008
:104AB2000566F0A304F09005BEF0802E9005CEE0CE
:104AC2007004A3E0640290026B70047402800274AA
:104AD20003F0E49005CEF0A3F09005C4F0A3F090AB
:104AE2000566F0A3F09005BE04F09005B3E0FEA3C6
:104AF200E0FF4E605A90038974FFF0A374EFF0EF69
:104B020064014E701C90026B04F0900566E0700226
:104B1200A3E0703B900566F0A304F09005BEF08020
:104B22002E9005B3E07004A3E0640290026B70045F
:104B3200740280027403F0E49005B3F0A3F09005D0
:104B4200A9F0A3F0900566F0A3F09005BE04F090E2
:104B520005A5E0FEA3E0FF4E605A90038974FFF0C2
:104B6200A374DFF0EF64014E701C90026B04F090AE
:104B72000566E07002A3E0703B900566F0A304F0C6
:104B82009005BEF0802E9005A5E07004A3E06402BB
:104B920090026B7004740280027403F0E49005A525
:104BA200F0A3F090059BF0A3F0900566F0A3F090BF
:104BB20005BE04F0900574E0FEA3E0FF4E605A903B
:104BC200038974FFF0A3747FF0EF64014E701C90B0
:104BD200026B04F0900566E07002A3E0703B900562
:104BE20066F0A304F09005BEF0802E900574E0708C
:104BF20004A3E0640290026B7004740280027403E6
:104C0200F0E4900574F0A3F090056AF0A3F090052B
:104C120066F0A3F09005BE04F0900582E0FEA3E0EA
:104C2200FF4E605890038974FEF0A304F0EF640114
:104C32004E701B90026B04F0900566E07002A3E0D8
:104C4200703A900566F0A304F09005BEF02290053C
:104C520082E07004A3E0640290026B70047402802C
:104C6200027403F0E4900582F0A3F0900578F0A3BB
:0D4C7200F0900566F0A3F09005BE04F0225E
:03000B0002627D11
:10627D00C0E0C0F0C083C082C0D075D00890034A82
:10628D00E004F07006900349E004F01262A9126276
:0C629D0047D0D0D082D083D0F0D0E032C7
:105D0700E49005B8F012632212636C124EC190033F
:105D170049E0FFA3E09005BACFF0A3EFF09005BDEF
:105D2700E0703C9005BAE0FEA3E0FFC390034AE0B1
:105D37009FFF900349E09EFED3EF94F4EE94014059
:105D47001EE0FEA3E0FF9005BAEEF0A3EFF090058A
:105D5700B5EEF0A3EFF01262FC9005BD7401F09070
:105D670005BDE0B401B712004690035FE0B4020C32
:105D770012373F90035F7403F0E4A3F01233171256
:045D87004A22809993
:0D5350004A064800FF00FF00FF00FF00FFBD
:0C5EEB00C290C2907F007E007D007C0011
:065EF70090052C1231059C
:105EFD009005301231110000000090052CE0FCA33C
:105F0D00E0FDA3E0FEA3E0FFA3E0F8A3E0F9A3E02A
:105F1D00FAA3E0FBC312302A502800900530E0FCB4
:105F2D00A3E0FDA3E0FEA3E0FFE4FAF9F8EF2401FE
:105F3D00FFEA3EFEE93DFDE83CFC900530123105DF
:025F4D0080B81A
:015F4F00222F
:1063C000D290D290D291D291125EEFC291C291221C
:10638200125EEBC291C291125EEFD290D290125E77
:06639200EFD291D291222E
:0F63D000125EEBD290D290125EEFC290C290227A
:08613E00900652EEF0A3EFF011
:10614600E4A3F0125EEF125EEB900653E030E00639
:10615600D291D2918004C291C291125EEF90065202
:10616600E0C313F0A3E013F0D290D290125EEF904A
:0B6176000654E004F0E0C3940840C8A9
:0161810022FB
:105D8B0012640A1263C07F407E0012613E12000350
:105D9B001263D012640A1263821263C07FC07E004A
:105DAB0012613E1200031263D012640AE49006588B
:105DBB00F0900658E0FFC394055025EF25E02448EA
:105DCB00F582E43406F583E0FEA3E0FF12613E1298
:105DDB0000031263D012640A900658E004F080D1DD
:105DEB001263821263C07F8C7E0012613E1200032D
:095DFB001263D012640A026382F3
:05000300C294D2952219
:05640A00D294D295229E
:1025630030303030300031303130310031303130C3
:1025730032003130313033003130313034003230D9
:102583003130310000312D00322D00332D00342D38
:1025930000352D00362D00372D00382D00392D0044
:1025A3003130003131003132003133003134003108
:1025B30035003136003137003138003139003230DF
:1025C300003231003232003233003234003235000F
:1025D30032360032370032380032390033300020CF
:1025E300202041310020202041320020202041338F
:1025F30000202020413400202020413500202020CD
:10260300413600202020413700202020413800207F
:102613002020413900202041313000363034303918
:102623000020462D2D300020462D2D310020462D33
:102633002D320020462D2D330020462D2D34002031
:10264300462D2D3500502D2D00452D2D0051322DB9
:102653002D2D00502D2D203100502D2D20320050D6
:102663002D2D203000202020313100202020313238
:10267300002020203133002020203134002020206E
:102683003135002020203136002020203137002032
:102693002020313800202020313900202020323002
:1026A300002020203231002020203232002020451B
:1026B300727200D6BDB3A400C0A6CAFD00D7DCCA9F
:1026C300FD005738444628352C332C273131313619
:1026D300363232323636333333333327293B0D0A1E
:1026E3000057384D5528302C302C38302C38302CAE
:1026F300312C32293B0D0A00573855452831293BE7
:102703000D0A004453363428312C322C27257327E5
:102713002C3135293B0D0A0053585928302C3029C8
:102723000D0A00573855452833293B0D0A00573801
:1027330055452834293B0D0A004453363428312C9F
:10274300312C272573272C3135293B0D0A0044539F
:10275300343828312C38362C27C7EBCAE4C8EBC3EE
:10276300DCC2EB3A272C3135293B0D0A00445336A2
:102773003428312C3130302C272573272C3135293F
:102783003B0D0A00434C532830293B0D0A002564B6
:1027930000445334382833302C3139302C272573F7
:1027A300272C31293B0D0A0044533634283230306C
:1027B3002C3130302C272573272C3135293B0D0A3A
:1027C30000B4FAC2EBCAE4C8EBBBADC3E600B4ED98
:1027D300CEF3CCE1CABE00D6B1BDD3B5F7B2CECAF3
:1027E300FD00B5C8B4FDB7B5D0A3BDE1B9FB00D1B9
:1027F300D3CAB1CFD4CABED0DEB8C4B3F6B4ED00E9
:10280300B2E2CAD4B2CECAFDC9E8D6C300D1A7CFBB
:10281300B0C4A3CABD00BDF8D6BD00CDCBD6BD00A4
:10282300CFC2C1CF00B4EACCF500CDA3D6BD00C65C
:10283300F4B6AF00CDA3D6B900B7A2D6BD00CAD5B2
:10284300D6BD00B4F2BDBA00445332342832353019
:102853002C312C272573272C3135293B0D0A00D623
:10286300F7BFD8B0E5B4EDCEF3A3BA00B2D9D7F72A
:10287300B0E5B4EDCEF3A3BA004453333228323873
:10288300302C3130302C272564272C31293B0D0A7D
:102893000044533332283238302C3130302C272542
:1028A30064272C3135293B0D0A0053585928302908
:1028B3003B0D0A00573855452832293B0D0A004481
:1028C3005334382831302C36302C272573272C31BC
:1028D30035293B0D0A00445334382831302C363027
:1028E3002C272573272C31293B0D0A0044533634FA
:1028F300283133302C322C272573272C3135293BB3
:102903000D0A0044533634283133302C312C27251B
:1029130073272C3135293B0D0A00445336342831B3
:1029230033302C312C272564272C3135293B0D0AD4
:1029330000535047283537293B0D0A005350472889
:102943003630293B0D0A00535047283632293B0DB8
:102953000A00535047283633293B0D0A00445334A9
:10296300382833302C3139302C2725732020272C5D
:1029730031293B0D0A00535047283331293B0D0AB7
:1029830000535047283332293B0D0A005350472840
:102993003333293B0D0A00535047283334293B0D69
:1029A3000A00535047283335293B0D0A005350473B
:1029B300283336293B0D0A00535047283337293B28
:1029C3000D0A00535047283338293B0D0A00535052
:1029D30047283339293B0D0A0053504728343029FF
:1029E3003B0D0A00535047283431293B0D0A00534D
:1029F3005047283432293B0D0A00535047283433BB
:102A0300293B0D0A00535047283434293B0D0A0053
:102A1300535047283435293B0D0A00535047283477
:102A230036293B0D0A00535047283437293B0D0AFA
:102A330000535047283438293B0D0A005350472888
:102A43003439293B0D0A00535047283530293B0DB3
:102A53000A00434C53282564293B0D0A000001005A
:102A630047FF256310000200000103AF0101005777
:102A7300FF256912001E00000103B10201014FFF8F
:102A8300256F14000E00000103B2030101BFFF25EF
:102A93007516000E00000103B30401022FFF257B0E
:102AA3001C000700000103B405010147FF25811A3B
:102AB300000100000103B500000000000000000059
:102AC300000000000000FF258740000000010358BC
:102AD3000405000001869F000000000000000000C4
:102AE30000000000000000000000000000000000E3
:102AF30000000000000000000000000000000000D3
:102B030000000000000000000000000000000000C2
:102B130000FEB0EDF9B3DBDFF0FFFB000040800007
:102B23003F065B4F666D7D077F6F771F4E3D4F47B7
:102B3300FB771F4E3D7971FB37060E07386A761D0A
:102B43007367055B313E1C5C313BED00000062089E
:102B530000771F4E3D4F47FB370638070E6A151D9A
:102B63006773505B783E1C5C313BED000000000056
:102B73000000000000000000000000000000000052
:102B83000000000000000000000000000000000042
:102B93000000000000000000000000000000000032
:102BA3000000000000000000000000000000000022
:102BB3000000000000000000000000000000000012
:102BC3000000000000000000000000000000000002
:102BD30000000000000000000000000000000000F2
:102BE30000000000000000000000000000000000E2
:102BF30000000000000000000000000000000000D2
:102C030000000000000000000000000000000000C1
:102C130000000000000000000000000000000000B1
:102C230000000000000000000000000000000000A1
:102C33000000000000000000000000000000000091
:0A2C43000000000000000000000087
:10535D004102740042026C00004103B5004103900C
:10536D00004603AF021E0E0701004803910402FF21
:10537D002AC9FF2A60420389000041026B004102E5
:10538D006E014100430042039A00004203A3000056
:10539D0043027100000041000A0041000B00420071
:1053AD001000004200160000420018000042001AD2
:1053BD00000041001C0042001D000042001F0000C3
:1053CD00420021000042002300004200250000425F
:1053DD0000270000420029000042002B000042007F
:1053ED002D00004200310000420033000141003722
:1053FD0000420038000041003A0042003B000042EC
:10540D00003D00004200000000420002000042008A
:0D541D0004000042000600004200080000EC
:045E04007BFFE4FD3F
:105E0800900516EBF0A3EAF0A3E9F0A3EDF09005F6
:105E180016E0FBA3E475F001122E3AA9F0FA122D50
:105E280043FF3395E0FE74F32FF582742A3EF58321
:105E3800E493FD3395E0FC900519E0FF04F0EF339F
:105E480095E0FEEF25E0FFEE33FE74482FF58274EF
:105E5800063EF583ECF0A3EDF0900519E0C36480ED
:105E680094865010900516E0FBA3E0FAA3E0F9121F
:055E78002D43709A2289
:103ACE00E4900519F0EF1231D33B53003B64013BF8
:103ADE0075023B86033B97043BA8053BB9063BCAE0
:103AEE00073BDB083BEC093BFD0A3C0E0B3C1F0C75
:103AFE003C300D3C410E3C520F3C63103C74113C6B
:103B0E0085123C96133CA7143CB8153CC9163CDAFA
:103B1E00173CEB183CFC193D0D1A3D1E1B3D2F1C8E
:103B2E003D401D3D51503D62513D72523D82533DCF
:103B3E0092543DA2553DB2563DC2573DD2583DE23C
:103B4E005900003DF090051674FFF0A37425F0A304
:103B5E007488F0023DF090051674FFF0A37425F002
:103B6E00A3748BF0023DF090051674FFF0A374253C
:103B7E00F0A3748EF0023DF090051674FFF0A3745E
:103B8E0025F0A37491F0023DF090051674FFF0A39A
:103B9E007425F0A37494F0023DF090051674FFF0B6
:103BAE00A37425F0A37497F0023DF090051674FFF0
:103BBE00F0A37425F0A3749AF0023DF090051674EC
:103BCE00FFF0A37425F0A3749DF0023DF09005164E
:103BDE0074FFF0A37425F0A374A0F0023DF09005DD
:103BEE001674FFF0A37425F0A374A3F0023DF090B9
:103BFE00051674FFF0A37425F0A374A6F0023DF031
:103C0E0090051674FFF0A37425F0A374A9F0023D7D
:103C1E00F090051674FFF0A37425F0A374ACF002B7
:103C2E003DF090051674FFF0A37425F0A374AFF069
:103C3E00023DF090051674FFF0A37425F0A374B244
:103C4E00F0023DF090051674FFF0A37425F0A374F6
:103C5E00B5F0023DF090051674FFF0A37425F0A3A5
:103C6E0074B8F0023DF090051674FFF0A37425F0C1
:103C7E00A374BBF0023DF090051674FFF0A37425FB
:103C8E00F0A374BEF0023DF090051674FFF0A3741D
:103C9E0025F0A374C1F0023DF090051674FFF0A359
:103CAE007425F0A374C4F0023DF090051674FFF075
:103CBE00A37425F0A374C7F0023DF090051674FFAF
:103CCE00F0A37425F0A374CAF0023DF090051674AB
:103CDE00FFF0A37425F0A374CDF0023DF09005160D
:103CEE0074FFF0A37425F0A374D0F0023DF090059C
:103CFE001674FFF0A37425F0A374D3F0023DF09078
:103D0E00051674FFF0A37425F0A374D6F0023DF0EF
:103D1E0090051674FFF0A37425F0A374D9F0023D3C
:103D2E00F090051674FFF0A37425F0A374DCF00276
:103D3E003DF090051674FFF0A37425F0A374DFF028
:103D4E00023DF090051674FFF0A37425F0A374E203
:103D5E00F0023DF090051674FFF0A37425F0A374E5
:103D6E00E8F0807E90051674FFF0A37425F0A3741E
:103D7E00EEF0806E90051674FFF0A37425F0A37418
:103D8E00F4F0805E90051674FFF0A37425F0A37412
:103D9E00FAF0804E90051674FFF0A37426F0A3740B
:103DAE0000F0803E90051674FFF0A37426F0A37405
:103DBE0006F0802E90051674FFF0A37426F0A374FF
:103DCE000CF0801E90051674FFF0A37426F0A374F9
:103DDE0012F0800E90051674FFF0A37426F0A374F3
:103DEE0018F0900516E0FBA3E475F001122E3AA927
:103DFE00F0FA122D43FF3395E0FE74F32FF5827423
:103E0E002A3EF583E493FD3395E0FC900519E0FF1F
:103E1E0004F0EF3395E0FEEF25E0FFEE33FE74483D
:103E2E002FF58274063EF583ECF0A3EDF0900519A4
:103E3E00E0C3648094865010900516E0FBA3E0FA70
:083E4E00A3E0F9122D43709A64
:013E56002249
:04618200AC07A905B8
:10618600AD04E9FF3395E0FEECFB3395E0FAEB2F27
:10619600FFEA3EFEEDFB3395E0FAC3EB9FEE64802B
:1061A600F8EA6480985018EB25E0FFEA33FE74485D
:0F61B6002FF58274063EF583E4F0A3F00D80C34D
:0161C50022B7
:0D5A3D0090042DEFF07B017A0379A5E4FDC4
:0E5A4A00900516EBF0A3EAF0A3E9F0A3EDF04F
:105A5800E4A3F0900516E0FBA3E0FAA3E0F99000B8
:105A680001122D5CB42E0790051AE0B4014D900583
:105A780016E0FBA3E475F001122E3AA9F0FA122DF4
:105A880043FF3395E0FE74F32FF582742A3EF583C5
:105A9800E493FD3395E0FC900519E0FF04F0EF3343
:105AA80095E0FEEF25E0FFEE33FE74482FF5827493
:105AB800063EF583ECF0A3EDF0805D900516E0FB63
:105AC800A3E475F001122E3AA9F0FA122D43FF3320
:105AD80095E0FE74F32FF582742A3EF583E493442F
:105AE80080FD3395E0FC900519E0FF04F0EF339555
:105AF800E0FEEF25E0FFEE33FE74482FF5827406D2
:105B08003EF583ECF0A3EDF090051A7401F09005D2
:105B180017E475F001122E24900519E0C3648094EF
:065B2800865003025A5BE7
:015B2E002254
:10544300E4FDEDFF3395E0FEEF25E0FFEE33FE7460
:10545300752FF974023EFA7B01EDFF3395E0FEEF01
:105463007803C333CE33CED8F92447F58274003E94
:10547300F583EBF0A3EAF0A3E9F00DEDB402C3E486
:10548300FDEDFF3395E0FEEF25E0FFEE33FE747B89
:105493002FF974023EFA7B01EDFF3395E0FEEF78BE
:1054A30003C333CE33CED8F92457F58274003EF5C7
:1054B30083EBF0A3EAF0A3E9F00DEDB41EC3E4FD22
:1054C300EDFF3395E0FEEF25E0FFEE33FE74B92FD9
:1054D300F974023EFA7B01EDFF3395E0FEEF7803AA
:1054E300C333CE33CED8F9244FF58274013EF5830E
:1054F300EBF0A3EAF0A3E9F00DEDB40EC3E4FDED88
:10550300FF3395E0FEEF25E0FFEE33FE74D72FF96E
:1055130074023EFA7B01EDFF3395E0FEEF7803C39F
:1055230033CE33CED8F924BFF58274013EF583EB35
:10553300F0A3EAF0A3E9F00DEDB40EC3E4FDEDFF33
:105543003395E0FEEF25E0FFEE33FE74F52FF9749B
:10555300023EFA7B01EDFF3395E0FEEF7803C333A0
:10556300CE33CED8F9242FF58274023EF583EBF0C7
:10557300A3EAF0A3E9F00DEDB407C3E4FDEDFF33B7
:1055830095E0FEEF25E0FFEE33FE74052FF974037B
:105593003EFA7B01EDFF3395E0FEEF7803C333CE94
:1055A30033CED8F92447F58274013EF583EBF0A39B
:0A55B300EAF0A3E9F00DEDB401C326
:0155BD0022CB
:0541BC0090042CEFF05F
:1041C1003395E0FE902A6A75F00FEF123177EE75A4
:1041D100F00FA42583F583E493FF740193900431D8
:1041E100CFF0A3EFF0900431E475F001122E3AAF55
:1041F100F0FE120026900430EFF0E4900433F0A3B7
:10420100F090042CE0FFFD3395E0FC902A6975F0F5
:104211000FED123177EC75F00FA42583F583E4934C
:10422100FB3395E0FA900433E0FCA3E0FDC39BEA85
:104231006480F8EC6480984003024362EFB404495F
:104241003395E0FE902A6175F00FEF123177EE752C
:10425100F00FA42583F583E493FB740193FA7402B0
:1042610093F9C003C002C001EDAE047803C333CE9D
:1042710033CED8F9D001D002D00329F9EA3EFA9021
:104281000003740175F0C2804C90042CE0FF33955B
:10429100E0FE902A6175F00FEF123177EE75F00FA5
:1042A100A42583F583E493FB740193FA740293F9D3
:1042B100C003C002C001EDAE047803C333CE33CED8
:1042C100D8F9D001D002D00329F9EA3EFA900003CF
:1042D100740375F0E7122ED290042CE0FF3395E0C1
:1042E100FE902A6175F00FEF123177EE75F00FA491
:1042F1002583F583E493FB740193FA740293F99097
:104301000433E0FEA3E07803C333CE33CED8F9FF04
:1043110029F9EA3EFA900005E4F5F0122ED2900454
:104321002CE0FD3395E0FC902A6175F00FED123120
:1043310077EC75F00FA42583F583E493FB74019367
:10434100FA7402932FF9EA3EFA900007E4122D9BCA
:10435100900434E004F07006900433E004F002426B
:1043610002902A9DE493FB740193FA740293F990ED
:104371000033740175F0F4122ED290042CE0146015
:104381002014602D14603A146047146054240570A1
:104391005E90042D7401F0A37402F0A37475F08093
:1043A1004E90042D7401F0A37402F0A3747BF0808D
:1043B1003E90042D7401F0A37402F0A374B9F0804F
:1043C1002E90042D7401F0A37402F0A374D7F08031
:1043D1001E90042D7401F0A37402F0A374F5F08013
:1043E1000E90042D7401F0A37403F0A37405F090F2
:1043F100042CE0FF3395E0FE902A6775F00FEF1271
:104401003177EE75F00FA42583F583E493FF7401F2
:1044110093900431CFF0A3EFF0E4A3F0A3F0900464
:104421002CE0FF3395E0FE902A6975F00FEF123111
:1044310077EE75F00FA42583F583E493FF3395E0C0
:10444100FEEF2401FFE43EFEC3900434E09FEE64DE
:1044510080F8900433E06480985063900431E475EF
:10446100F001122E3AAFF0FE12002690042DE0FB6F
:10447100A3E0FAA3E0F9EF122D8990042EE475F080
:1044810001122E24900431E475F001122E3AAFF09E
:10449100FE12002690042DE0FBA3E0FAA3E0F9EF61
:1044A100122D8990042EE475F001122E249004340B
:0E44B100E004F07006900433E004F002441FB3
:0144BF0022DA
:105F5000E4FDEDFF3395E0FEEF25E0FFEE33FE7448
:105F6000752FF58274023EF583E0FAA3E0FB740915
:105F70002FF58274033EF583EAF0A3EBF00DEDB448
:105F800002D0E4FDEDFF3395E0FEEF25E0FFEE33B8
:105F9000FE747B2FF58274023EF583E0FAA3E0FBEA
:105FA000740D2FF58274033EF583EAF0A3EBF00D38
:045FB000EDB41ED05E
:015FB40022CA
:105B2F0090042C747FF0A374F9F0E4FF90042CE43C
:105B3F0075F001122E3A85F082F583E493FEEFFDA6
:105B4F003395E0FC742E2DF58274043CF583EEF052
:105B5F000FEFB407D7900433E0FE3395E090037353
:105B6F00F0A3CEF0E07F00FE900373F0A3EFF09070
:105B7F000434E0FDEDFF900373EEF0A3EFF07C072C
:105B8F007DD0122DCFA3ECF0A3EDF0E490042CF018
:105B9F00A3F0900376E025E0FF900375E033FE124B
:105BAF00002690042EEFF0900376E025E0FF90039F
:105BBF0075E033FEEF2401FFE43EFE120026900451
:105BCF002FEFF0FB90042EE0FDAF05900377E4F08C
:0B5BDF00A3EFF0EBFFA3E4F0A3EFF056
:015BEA002298
:104EC100C2A57A26791E125E04900393E0F9A3E04D
:104ED100FAA3E0900427C9F0A3EAF0A3E9F0E49073
:104EE100042BF0900427E0FBA3E0FAA3E0F990047F
:104EF1002BE0FFFD3395E08D82F583741512316649
:104F01001231A3EA494B600890042BE004F080D3EE
:104F110090041AEFF0900396E0FBA3E0FAA3E0F906
:104F2100900040EBF0A3EAF0A3E9F0900001123108
:104F3100A3900044EBF0A3EAF0A3E9F0E490042B82
:104F4100F0900040E0FBA3E0FAA3E0F990042BE02D
:104F5100FFFD3395E08D82F583740F123166122DBA
:104F61005CB5070B1241BC90042BE004F080D29099
:104F7100042BE0900269F0125F50125443E4900355
:104F810099F090026FF09003A1F0A304F0E4900374
:104F91008CF090034DF090034BF0A3F090034EF092
:104FA10090035412311100000000E4900371F012DB
:104FB1005B2F900377E0FFA3E09002EFCFF0A3EF28
:104FC100F0900379E0FFA3E09002F1CFF0A3EFF0BE
:104FD100E4900372F090042BF090042BE0FFC36483
:104FE100809487400302506CEF3395E0FEEF780226
:104FF100C333CE33CED8F9FF24D7F58274023EF500
:1050010083E0FCA3E04C702B74D92FF58274023E2F
:10501100F583E0FEA3E04E701A900372E0FF900466
:105021002BE0FE7401A806088002C333D8FC4F9020
:105031000372F090042BE0FF3395E0FEEF7802C39A
:1050410033CE33CED8F9FF24B9F58274023EF5830D
:10505100E4F0A3F074BB2FF58274023EF583E4F013
:10506100A3F090042BE004F0024FDA124794125996
:1050710046E47B107A27F9F890037BE0FCA3E0FD7E
:10508100A3E0FEA3E0FF122F8A900305EEF0A3EF49
:10509100F0E4900349F0A3F0900350F0A3F074FF03
:0650A100900267F0A3F08D
:0150A70022E6
:0850A800900516EEF0A3EFF0F5
:1050B0009005B874AAF0900516E0FEA3E0902A6768
:1050C00075F00F123177EE75F00FA42583F583E4A8
:1050D00093FE740193FF12605EE49005B8F09005B2
:1050E00016E0FEA3E0FFEE7072EF14602014602D56
:1050F00014603A1460471460542405705E900518DB
:105100007401F0A37402F0A37475F0804E9005183A
:105110007401F0A37402F0A3747BF0803E90051834
:105120007401F0A37402F0A374B9F0802E900518F6
:105130007401F0A37402F0A374D7F0801E900518D8
:105140007401F0A37402F0A374F5F0800E900518BA
:105150007401F0A37403F0A37405F0900516E0FE4B
:10516000A3E0902A6775F00F123177EE75F00FA467
:105170002583F583E493FF74019390051CCFF0A37E
:10518000EFF0E490051BF0900516E0FEA3E0902AF6
:105190006975F00F123177EE75F00FA42583F58352
:1051A000E493FF3395E0FEEF2401FFE43EFE90051B
:1051B0001BE0C39FEE6480F8748098400302528223
:1051C0009005B874AAF090051CE0FEA3E0FF9005DE
:1051D00018E0FBA3E0FAA3E0F9122D43FD125FB53E
:1051E00090051CE0FEA3E0FF120026AE0790051814
:1051F000E0FBA3E0FAA3E0F9122D436E60079003F1
:105200004CE04420F0900519E475F001122E249032
:10521000051DE004F0700690051CE004F090051CEC
:10522000E0FEA3E0FF900518E0FBA3E0FAA3E0F99D
:10523000122D43FD125FB590051CE0FEA3E0FF12A6
:105240000026AE07900518E0FBA3E0FAA3E0F912F0
:105250002D436E600790034CE04420F0900519E464
:1052600075F001122E2490051DE004F070069005E3
:105270001CE004F0E49005B8F090051BE004F00297
:0B5280005187125F509005847401F00C
:01528B002200
:1060F600EF14601814601D14602214602714602CBD
:10610600240570337BFF7A26792480267BFF7A2646
:10611600792A801E7BFF7A26793080167BFF7A26C5
:106126007936800E7BFF7A26793C80067BFF7A26BD
:086136007942E4FD125E08222B
:1000460078317C047D017BFF7A2B79737E007F6497
:10005600122D1DE4900496F0A3F0A3F0A3F0789F70
:100066007C047D017BFF7A2B79D7FE7F06122D1D3E
:1000760078A57C047D017BFF7A2B79DD7E007F06E7
:10008600122D1D78AB7C047D017BFF7A2B79E37EF4
:10009600007F06122D1DA2A4E4335401FF900267CF
:1000A600E0FCA3E054FEFDECFEED4FFF900267EE90
:1000B600F0A3EFF0A2A3E433540125E0FFE433FEFE
:1000C600900267E0FCA3E054FDFDEC4EFEED4FFF11
:1000D600900267EEF0A3EFF0A2A2E4FE335401789B
:1000E60002C333CE33CED8F9FF900267E0FCA3E01B
:1000F60054FBFDEC4EFEED4FFF900267EEF0A3EFD2
:10010600F0A2A1E4FE3354017803C333CE33CED834
:10011600F9FF900267E0FCA3E054F7FDEC4EFEED1C
:100126004FFF900267EEF0A3EFF0A2A0E433540174
:10013600C4F8540FC868FFE4C454F048FE90026740
:10014600E0FCA3E054EFFDEC4EFEED4FFF9002679E
:10015600EEF0A3EFF0A2B5E4FE3354017805C33305
:10016600CE33CED8F9FF900267E0FCA3E054DFFD62
:10017600EC4EFEED4FFF900267EEF0A3EFF0A2B358
:10018600E4FE3354017806C333CE33CED8F9FF905C
:100196000267E0FCA3E054BFFDEC4EFEED4FFF907E
:1001A6000267EEF0A3EFF0A2B2E4FE335401780743
:1001B600C333CE33CED8F9FF900267E0FCA3E054F8
:1001C6007FFDEC4EFEED4FFF900267EEF0A3EFF0E1
:1001D600A2A6E4335401FE900267E054FEFCA3E0BD
:1001E600FDEC4EFFED900267CFF0A3EFF0A2A7E47F
:1001F60033540125E0FE900267E054FDFCA3E0FDC8
:10020600EC4EFFED900267CFF0A3EFF0A292E4333D
:10021600540125E025E0FE900267E054FBFCA3E0D4
:10022600FDEC4EFFED900267CFF0A3EFF0A293E452
:1002360033540133333354F8FE900267E054F7FC2D
:10024600A3E0FDEC4EFFED900267CFF0A3EFF0A226
:1002560096E4335401C454F0FE900267E054EFFC78
:10026600A3E0FDEC4EFFED900267CFF0A3EFF0A206
:1002760097E4335401C43354E0FE900267E054DF40
:10028600FCA3E0FDEC4EFFED900267CFF0A3EFF08C
:10029600A2CCE4335401C4333354C0FE900267E069
:1002A60054BFFCA3E0FDEC4EFFED900267CFF0A338
:1002B600EFF0A2CDE4335401C43333335480FE90BF
:1002C6000267E0547FFCA3E0FDEC4EFFED90026771
:1002D600CFF0A3EFF0900267E0FFA3E0900016CF07
:1002E600F0A3EFF090001AE0FEA3E0FF900016E006
:1002F600FCA3E0FD6F7002EC6E6079900349E0FEAE
:10030600A3E0FF900027EEF0A3EFF0900023E0704B
:1003160002A3E0701190002FEEF0A3EFF090000A18
:10032600E04401F0800790000AE054FEF090001FC0
:10033600E0FEA3E0FF900349E0FAA3E0FBC39FFFC2
:10034600EA9EFED3EF9432EE9400402590001AEC1C
:10035600F0A3EDF090001DEAF0A3EBF0E49000218D
:10036600F0A3F0A3F0A3F0900033F0A304F002048E
:100376007B02047490002FE0FEA3E0FF900349E0A7
:10038600FCA3E0FDC39FFFEC9EFED3EF9432EE94F8
:1003960000400790000AE054FEF0900027E0FEA31C
:1003A600E0FFC3ED9FFFEC9EFED3EF9430EE947515
:1003B6004034900349E0FFA3E0900027CFF0A3EF7D
:1003C600F090002DE07002A3E0701B9003A1E07096
:1003D60004A3E06411600F9003A1E4F0A304F0E429
:1003E60090002BF0A3F090001DE0FEA3E0FF900329
:1003F60049E0FCA3E0FDC39FFFEC9EFED3EF9432E1
:10040600EE9400406990001FECF0A3EDF09000160A
:10041600E0FEA3E0F47002EEF4605A900023E07070
:1004260002A3E07050900022E004F07006900021D4
:10043600E004F0D3900022E09464900021E0648010
:1004460094804031900023E4F0A304F0900033E45C
:10045600F0A304F0E4900031F0A3F0900025ECF056
:10046600A3EDF0900021E4F0A3740AF08007E49075
:100476000016F0A3F0900023E07002A3E0605B900A
:100486000025E0FEA3E0FF900349E0FCA3E0FDC3E6
:100496009FFFEC9EFED3EF9464EE9400403C9000E8
:1004A60032E004F07006900031E004F0900031E094
:1004B600FEA3E0FFD39432EE648094804007A3E469
:1004C600F0A3740AF0EF4E6008900025ECF0A3ED5F
:1004D600F0900018E4F0A374FFF0900016E0FEA37D
:1004E600E0FF4E6021A3E0FCA3E0FDEF6D7002EE9D
:1004F6006C600C900016A3A3EEF0A3EFF08007E467
:10050600900016F0A3F0900016E0FEA3E0FFF47052
:1005160003EE64FD6012EFF47003EE64FB6009EF16
:10052600F47003EE64F77042900371E0FF60209070
:100536000016E0B4FB19A3E0B4FF14EF3395E0FE18
:10054600EF2414FFE43E90034BF0A3EFF0801B90E2
:1005560005BE7401F0900016E0FFA3E0900389CF7A
:10056600F0A3EFF090026B7402F090003DE0FEA362
:10057600E0FFEE7076EF24F6602524F6604D241435
:10058600706920946690003DE4F0A3740AF090032D
:1005960049E0FFA3E090003BCFF0A3EFF0804C20B2
:1005A600944290003BE0FEA3E0FFC390034AE09F25
:1005B600FF900349E09EFED3EF9464EE9400402B37
:1005C60090003DE4F0A37414F0802030941D900553
:1005D600BE7401F090038974FFF0A374EEF09002EC
:1005E6006B7402F0E490003DF0A3F09003A1E0FEEE
:1005F600A3E0FFEE6003021738EF24FE7003020A41
:10060600EC147003020ED314700302127D24FB70E7
:10061600030216FC24F97003020DAB147003020CDE
:10062600F524106003021738900016E0FEA3E08E52
:10063600F01231F907BA7FFF0744BFFF089EFFBFDC
:100646000836FFF706ADFFFB0714FFFD065AFFFE4F
:10065600000008B8E490003AF090002BE07002A386
:10066600E0702990039C7430F0A3F0A3F0A3F0A3EC
:10067600F090038B7404F07B017A03799CE4FD12FD
:100686005E089003A1E4F0A37402F022900043E018
:10069600B4010AE4F0900037F09003B5F0E490005E
:1006A6002BF0A3F00208B8E490003AF0900023E0A3
:1006B6007002A3E0604590002BE07002A3E0703B5F
:1006C60090037BE0FCA3E0FDA3E0FEA3E0FFA3E034
:1006D600F8A3E0F9A3E0FAA3E0FBC3123040601BE5
:1006E60090037BE0FCA3E0FDA3E0FEA3E0FFA312E2
:1006F60031059005B77401F0125BEB90026EE06471
:100706000160030208B890058704F0E48029E490AC
:10071600003AF0900349E0FFA3E0900029CFF0A350
:10072600EFF0A3E4F0A37405F090026EE06003021C
:1007360008B890058704F090026EF00208B8E490BD
:10074600003AF090002BE07002A3E060030208B8C4
:10075600900040E0FBA3E0FAA3E0F990000112311B
:10076600A3900044EBF0A3EAF0A3E9F0E490041BA5
:10077600F0A3F0A304F0E490026FF090000B04F0F5
:10078600E490002DF0A3F0FC7D0FFFFE122DBD902E
:100796000040E0FBA3E0FAA3E02FF9EA3EFA90005E
:1007A60009122D5C90042AF0D364809480500302D1
:1007B60025628072E490003AF090002BE07002A36C
:1007C600E060030208B8900040E0FBA3E0FAA3E073
:1007D600F99000011231A3900044EBF0A3EAF0A3D4
:1007E600E9F0E490041BF0A304F0A3F090026FF08C
:1007F60090000BF0E490002DF0A3F0FC7D0FFFFEBF
:10080600122DBD900040E0FBA3E0FAA3E02FF9EA29
:100816003EFA900009122D5C90042AF0D36480946D
:100826008050030225629003A1E4F0A37403F02232
:10083600900043E07037900023E07002A3E0601060
:1008460090003AE0C3648094A8500AE004F0800562
:10085600E490003AF0900349E0FFA3E0900029CF2E
:10086600F0A3EFF0A3E4F0A37402F080459005BE78
:100876007401F090038974FFF0A374BFF090026BCB
:100886007402F0E490002BF0A3F0900043F0900087
:1008960037F09003B5F0801A900043E0701490058D
:1008A6006504F090002BE4F0A37404F09000437408
:1008B60001F090002BE07002A3E06003020A26908C
:1008C6000392E0FF90000EE4F0A3EFF090026FE0D9
:1008D60090042CF090034BE07002A3E06003020941
:1008E6007C90034DE0704CA3E0B401109003B57406
:1008F60001F0900037E0700B04F0800790000AE0EA
:1009060054FDF090037FE0F8A3E0F9A3E0FAA3E03A
:10091600FB90037BE0FCA3E0FDA3E0FEA3E0C39B0A
:10092600FFEE9AFEED99FDEC98FC90035812310506
:100936000209AD7A267948125E0490034DE0FB5415
:100946007FFF3395E0FEFDFC900012123105EB307F
:10095600E708900037E0700204F01244CE90042DB0
:10096600EFF07B017A0379A87D03125A4A9003B50A
:100976007401F00209F190034BE0FEA3E0FF640B63
:100986004E6006EF640C4E703490034EE0B40110D6
:100996009003B57401F0900037E0700B04F0800707
:1009A60090000AE054FDF0900358E0FCA3E0FDA39C
:1009B600E0FEA3E0FF1244C8125A3D802E7BFF7A68
:1009C60026794CE4FD125E08900037E0700204F0D0
:1009D60090034B1244C090042DEFF07B017A03790B
:1009E600A87D03125A4AE49003B5F090038CE07098
:1009F60003020ACC900391E0FF900399E004FEF015
:100A0600D3EF6480F8EE6480985003020ACCE4F0D9
:100A160090026FE004F0E490000EF0A3F0020ACC1E
:100A260090002BE07004A3E064027033900352122E
:100A360044C0125A3D900029E0FEA3E0FFC3900394
:100A46004AE09FFF900349E09EFED3EF94D0EE94D8
:100A560007407390002BE4F0A37403F0020ACC90D5
:100A6600002BE07004A3E06403700590035080350A
:100A760090002BE07004A3E06404701A7BFF7A26D2
:100A86007950FD125E08900037E0700204F0900382
:100A9600B57401F0803090002BE07004A3E064058B
:100AA6007024900373E0FEA3E0FFE4FCFD900012C7
:100AB600123105900012A3A3E0FEA3E0FFE4FDFCC3
:100AC6001244C8125A3D90003AE0642860030217A7
:100AD60040F09003A1F0A37410F090002BE4F0A373
:100AE6007404F0020E5C900016E0FEA3E08EF01295
:100AF60031F90B5FFFF70B19FFFB0B2FFFFD0B0CFB
:100B0600FFFE00000CD5E490026FF09003A1F0A365
:100B160004F02290038BE014F0C3648094804003B9
:100B2600020CD57404F0020CD590038BE0FF3395CC
:100B3600E0FE749C2FF58274033EF583E004F0D347
:100B4600648094B95003020CD5749C2FF58274030B
:100B56003EF5837430F0020CD590042B7401F090AE
:100B66000269E0FF90042BE0FEC3EF6480F8EE64B8
:100B760080984003022562900040E0FBA3E0FAA3C0
:100B8600E0F9EE75F00FA4FFE92FF9E43AFA9000C8
:100B9600041231A3122D43FF90039CE06F60030201
:100BA6000CCC90042BE0FF3395E0FE7C007D0F1209
:100BB6002DBD900040E0FBA3E0FAA3E02FF9EA3E4A
:100BC600FA9000041231A3900001122D5CFF9003ED
:100BD6009DE06F6003020CCC900002122D5CFF902A
:100BE600039EE06F6003020CCC900003122D5CFFA5
:100BF60090039FE06F6003020CCC900004122D5C02
:100C0600FF9003A0E06F6003020CCC90042BE0FF82
:100C1600B404289002EBE07002A3E0700A9002EDA3
:100C2600E07002A3E06014900372E020E50D9003EB
:100C360001E07002A3E06003022562EF3395E0FE57
:100C460090002DF0A3EFF07C007D0F122DBD9000DB
:100C560040E0FBA3E0FAA3E02FF9EA3EFA90000198
:100C66001231A3900044EBF0A3EAF0A3E9F0900060
:100C76002DE0FEA3E0FF90041BF0E4A3F0A304F034
:100C8600E490026FF0122DBD900040E0FBA3E0FA65
:100C9600A3E02FF9EA3EFA900009122D5C90042A8F
:100CA600F0D36480948040099003A1E4F0A3740318
:100CB600F090042AE0D36480949440037414F09076
:100CC6000495740AF02290042BE004F0020B659060
:100CD6000010E07002A3E0600D900023E07002A314
:100CE600E070030216677B017A03799C0217319044
:100CF6000016E0FEA3E08EF01231F90D09FFFE00AA
:100D0600000D3DE490002BF0A3F090038B7404F0EB
:100D1600E4900399F090041B7478F090041D74011C
:100D2600F0E490026FF09003A1F0A304F0E49000C9
:100D360037F09003B5F02290034BE0FEA3E0FF648A
:100D46000B4E6006EF640C4E7044EF640B4E70144D
:100D56007BFF7A267956FD125E08900037E07025F3
:100D660004F0802190034BE07004A3E0640C600360
:100D76000217407BFF7A26795CFD125E08900037E9
:100D8600E0700204F09003B57401F00217407BFF97
:100D96007A267962E4FD125E08E4900037F090034B
:100DA600B5F0021740900016E0FEA3E08EF0123177
:100DB600F90ECA7FFF0EC1BFFF0E79DFFF0E82EF6D
:100DC600FF0E70F7FF0E67FBFF0EAFFDFF0EA6FED0
:100DD600FF0E9DFF7F0EB8FFBF0E8BFFDF0E94FF49
:100DE600EF0E48FFFB0E20FFFD0DF7FFFE0000177C
:100DF60040E490002BF0A3F090038B7404F0E49091
:100E06000399F090041B7478F090041D7401F0E4CB
:100E160090026FF09003A102173C900390E0C36428
:100E26008094815009E004F09005BF7401F09003AE
:100E360090E0FF1260F6900390E0D3648094800205
:100E46001740900390E0D3648094804009E014F04A
:100E56009005BF7401F0900390E0FF1260F6021750
:100E6600407BFF7A2679680217317BFF7A26796EF6
:100E76000217317BFF7A2679740217317BFF7A26B7
:100E8600797A0217317BFF7A2679800217317BFF48
:100E96007A2679860217317BFF7A26798C021731FA
:100EA6007BFF7A2679920217317BFF7A26799802A0
:100EB60017317BFF7A26799E0217317BFF7A2679D6
:100EC600A40217317BFF7A2679AA02173190001601
:100ED600E0FEA3E08EF01231F90F8DFFF70F20FF31
:100EE600FB0F56FFFD0EF3FFFE00000FF0E490002F
:100EF6002BF0A3F090038B7404F0E4900399F09028
:100F0600041B7478F090041D7401F0E490026FF0F5
:100F16009003A1F0A304F0020FF090026FE0FF141B
:100F2600F0EF700990042AE01490026FF090026FBF
:100F3600E090041CF0F0A37401F0900495E0FF1417
:100F4600F0EFD3940A4003020FF0741DF0020FF085
:100F560090042AE0FF90026FE004FEF0C3EF648085
:100F6600F8EE6480984002E4F090026FE090041C72
:100F7600F0A37401F0900495E0FF04F0EFC3941D14
:100F86004068740AF0806390041BE0FDB404279067
:100F9600026FE0FF74017E00A807088005C333CE08
:100FA60033CED8F9FF900372E0FB3395E05EFEEF97
:100FB6005B4E6036802EEDB4032A90026FE0A2E706
:100FC60013FF74017E00A807088005C333CE33CE15
:100FD600D8F9FF900372E0FD3395E05EFEEF5D4EBB
:100FE6006008800090000B7405F090041BE0FF7011
:100FF6000890000BE0600204F090000BE0640560CE
:101006000302118CF090026FE0FE90042CF0900326
:101016008B7404F09002707402F0EFB40331EEA208
:10102600E713FF74017E00A807088005C333CE339B
:10103600CED8F9FF900372E0FD3395E05EFEEF5DDA
:101046004E700C9003851231110000000080209034
:101056000423E0FBA3E0FAA3E0F9123183122E5039
:10106600FFAEF0EE3395E0FDFC900385123105905E
:1010760003A1E4F0A37404F090042CE0FF3395E0A0
:10108600FEEF7803C333CE33CED8F9FF900044E0A9
:10109600FBA3E0FAA3E02FF9EA3EFA900423EBF073
:1010A600A3EAF0A3E9F09002707402F0123183C053
:1010B6000390051A7403F0E4A3F0A304F0A37403E9
:1010C600F0A374A5F0E4A3F0A37402F0D003FD121C
:1010D60044F190042DEFF090038D7403F090039C7F
:1010E6007430F0A3F0740314606D1460431460034D
:1010F60002117D90042DE0FFFD3395E0FC74A52DD3
:10110600F58274033CF583E0FE90039EF0BE200357
:101116007430F0EF3395E0FE74A62FF58274033E2B
:10112600F583E0FD90039FF0BD20037430F0803816
:1011360090039E7420F090042DE0FF3395E0FE743A
:10114600A62FF58274033EF583E0FD90039FF0BD64
:1011560020037430F0801190039E7420F0A3F09069
:10116600042DE0FF3395E0FE74A72FF58274033E4D
:10117600F583E09003A0F0E4900035F0A3F090032F
:10118600A1F0A37404F0D390000FE0940090000E39
:10119600E09400400FA3E024FFF090000EE034FF3F
:1011A600F0021740900392E0FF90000EE4F0A3EFE8
:1011B600F090026FE0FDFF3395E0FEEF7803C33356
:1011C600CE33CED8F9FF900044E0FBA3E0FAA3E0CB
:1011D6002FF9EA3EFA900423EBF0A3EAF0A3E9F034
:1011E60090041BE0B40331EDA2E713FF74017E0007
:1011F600A807088005C333CE33CED8F9FF90037213
:10120600E0FD3395E05EFEEF5D4E700C90038512B7
:101216003111000000008020900423E0FBA3E0FAD7
:10122600A3E0F9123183122E50FFAEF0EE3395E0B3
:10123600FDFC90038512310590026FE0FF123ACE55
:1012460090051A7403F0E4A3F07B01A304F0A374E1
:1012560003F0A374A5F0E4A3F0A37402F07A037973
:10126600857D041244F190042DEFF024A5F9E434B1
:1012760003FA7B010216F5900016E0FEA3E08EF05D
:101286001231F91406FFF712A9FFFB1359FFFD12DD
:101296009DFFFE0000165390041BE0600302164AF1
:1012A60002161F90026FE0FF3395E0FEEF7803C34E
:1012B60033CE33CED8F9FF900044E0FBA3E0FAA387
:1012C600E02FF9EA3EFA900007122D5C30E00302A7
:1012D6001653900385E0FCA3E0FDA3E0FEA3E0FF28
:1012E600C006C007900033E0FEA3E0FBAA06EA337F
:1012F60095E0F9F8D007D006C3EF9BFFEE9AFEED16
:1013060099FDEC98FC900385123105900423E0FBCF
:10131600A3E0FAA3E0F9900005122E7BFFAEF0EEF3
:101326003395E0FDFC900385E0F8A3E0F9A3E0FA2D
:10133600A3E0FBC312302A4003021653900423E0B5
:10134600FBA3E0FAA3E0F9900005122E7BFFAEF0B6
:101356000213F790026FE0FF3395E0FEEF7803C3C8
:1013660033CE33CED8F9FF900044E0FBA3E0FAA3D6
:10137600E02FF9EA3EFA900007122D5C30E00302F6
:101386001653900385E0F8A3E0F9A3E0FAA3E0FB87
:10139600900033E0FEA3E0FFEE3395E0FDFCEB2F7B
:1013A600FFEA3EFEE93DFDE83CFC9003851231056F
:1013B600900423E0FBA3E0FAA3E0F9900003122EC9
:1013C6007BFFAEF090042FEEF0A3EFF0EE3395E046
:1013D600FDFC900385E0F8A3E0F9A3E0FAA3E0FBA7
:1013E600D312302A500302165390042FE0FEA3E0D6
:1013F600FFEE3395E0FDFC9003851231050216538E
:10140600900023E07002A3E060030216197B017AC4
:1014160003799C900270E090051AF07D051255BE86
:10142600900385123105900423E0FBA3E0FAA3E0C4
:10143600F9900003122E7BFFAEF0EE3395E0FDFC33
:10144600900385E0F8A3E0F9A3E0FAA3E0FBD3124A
:10145600302A4003021619900423E0FBA3E0FAA306
:10146600E0F9900005122E7BFFAEF0EE3395E0FD1D
:10147600FC900385E0F8A3E0F9A3E0FAA3E0FBC340
:1014860012302A50030216197E007F02E47066EFBE
:1014960014604814602524FE705B900385E0FCA36D
:1014A600E0FDA3E0FEA3E0FF900423E0FBA3E0FA47
:1014B600A3E0F91231831230C7803A900385A3A3C3
:1014C600E0FEA3E0FF900423E0FBA3E0FAA3E0F92B
:1014D600123183EE8FF0122EB3801A900385A3A3E8
:1014E600A3E0FF900423E0FBA3E0FAA3E0F91231A6
:1014F60083EF122D8990039EE0B4300B7420F0A385
:10150600E0B430037420F07B017A03799E7D0212E9
:101516005A4A90041BE06402600302160D90026FA3
:10152600E0A2E713FDFF3395E0FEEF7802C333CE6A
:1015360033CED8F9FF24B9F58274023EF583E0FA7A
:10154600A3E0FB74D72FF58274023EF583E0FEA379
:10155600E06B7002EE6A6003021602EDFF3395E05F
:10156600FEEF7802C333CE33CED8F9FF24BBF58223
:1015760074023EF583E0FAA3E0FB74D92FF582747A
:10158600023EF583E0FEA3E06B7002EE6A706D909A
:101596000372E0FF7401A805088002C333D8FC4F2C
:1015A600900372F0EDFF3395E0FEEF25E0FFEE339A
:1015B600FE74F52FF58274023EF583E4F0A3F090F5
:1015C600042EF090042EE0FFC3ED6480F8EF6480F3
:1015D600985022EF3395E0FEEF25E0FFEE33FE74E0
:1015E600F52FF58274023EF583E4F0A3F090042E05
:1015F600E004F080CE7F047E001250A89003A1E4A0
:10160600F0A37403F0800C90041BE0FF3395E0FE1A
:101616001250A890041BE0702B90002BF0A3F090C2
:10162600038B7404F0E4900399F090041B7478F033
:1016360090041D7401F0E490026FF09003A1F0A3F2
:1016460004F080099003A1E4F0A37403F090001065
:10165600E07002A3E06017900023E07002A3E07040
:101666000D90038BE0FF7D0112618202174090020C
:101676006FE0FF123ACE90051A7405F0E4A3F07BF2
:1016860001A304F0A37403F0A374A5F0E4A3F0A3EC
:101696007402F07A0379857D041244F190042DEFEB
:1016A600F03395E0FE74A52FF58274033EF583E0D2
:1016B600FF90039EF0BF20037430F090042DE0FFEE
:1016C6003395E0FE74A62FF58274033EF583E0FDA4
:1016D60090039FF0BD20037430F074A72FF5827439
:1016E600033EF583E09003A0F07B017A03799E7DAB
:1016F60002125A4A8044900421E0FEA3E0FFC39000
:10170600034AE09FFF900349E09EFED3EF94E8EE84
:101716009403401190041FE0FE3395E09003A1F07E
:10172600A3CEF080157BFF7A2679B0E4FD125E0821
:1017360080089003A1E4F0A304F09003A1E0FEA3C7
:10174600E0FF90038EE06E7003A3E06F7003021B50
:01175600D9B9
:101757009004B174FFF0A37426F0A374B6F0A374D9
:10176700FFF0A37426F0A374BBF0A374FFF0A37477
:1017770026F0A374C0F09003A1E0FEA3E0FF90035E
:101787008EEEF0A3EFF0EE6003021BD9EF1231D318
:1017970017B90118EE021905031A5D051AAB061AE7
:1017A700DB071B0B081B3B091B6A101B9911000069
:1017B7001BD912600E7BFF7A2679C512620A7F5306
:1017C7007E007D007C00125EF77BFF7A2679E412AB
:1017D700620A7F537E007D007C00125EF77BFF7AF2
:1017E7002679FB12620A7BFF7A2679FB12620A7F4F
:1017F700537E007D007C00125EF790052F74FFF08A
:10180700A37427F0A37406F09004B1E0F9A3E0FAFB
:10181700A3E0900532C9F0A3EAF0A3E9F07B017ACF
:10182700047931123EBC7B017A04793112620A7F56
:10183700537E007D007C00125EF77BFF7A27791BC1
:1018470012620A7BFF7A27792612620A7F537E008B
:101857007D007C00125EF790052F74FFF0A37427BC
:10186700F0A37406F09004B4E0F9A3E0FAA3E090C3
:101877000532C9F0A3EAF0A3E9F07B017A047931D4
:10188700123EBC7B017A04793112620A7BFF7A2708
:10189700791B12620A7F537E007D007C00125EF77F
:1018A7007BFF7A27793112620A90052F74FFF0A324
:1018B7007427F0A3743CF09004B7E0F9A3E0FAA30F
:1018C700E0900532C9F0A3EAF0A3E9F07B017A04BE
:1018D7007931123EBC7B017A04793112620A7BFFAF
:1018E7007A27791B021A9A12600E7F537E007D00B9
:1018F7007C00125EF77BFF7A277951021A9AE4FF80
:10190700FE12601190041BE0704EA3E0704A900530
:101917002F74FFF0A37427F0A3743CF0A374FFF0B7
:10192700A37425F0A37488F07B017A047931123E01
:10193700BC7B017A04793112620A7F537E007D00F5
:101947007C00125EF790052F74FFF0A37427F0A3B5
:101957007470F09004B1804990041BE07057A3E0C5
:101967006401705190052F74FFF0A37427F0A374DE
:101977003CF0A374FFF0A37425F0A3748BF07B01F4
:101987007A047931123EBC7B017A04793112620AFA
:1019970090052F74FFF0A37427F0A37470F09004E0
:1019A700B4E0F9A3E0FAA3E0900532C9F0A3EAF0A6
:1019B700A3E9021BC67BFF7A27798712620A900484
:1019C7001CE0240AFF12583F90041CE0FF3395E007
:1019D700FEEF7803C333CE33CED8F9FF900044E04F
:1019E700FBA3E0FAA3E02FF9EA3EFA90049CEBF0A0
:1019F700A3EAF0A3E9F0123183122E50FFAEF0EE06
:101A07003395E0FDFC900385123105900385A3A370
:101A1700E0FEA3E0FF900498EEF0A3EFF090052F0F
:101A270074FFF0A37427F0A37491F0A3EEF0A3EF73
:101A3700F07B017A04799F123EBC90052F74FFF06A
:101A4700A37427F0A37494F0A37401F0A37404F0B3
:101A5700A3749F021BC67BFF7A27798712620A7FCE
:101A6700537E007D007C00125EF790052F74FFF017
:101A7700A37427F0A374ABF0A374FFF0A37427F04B
:101A8700A374C4F07B017A047931123EBC7B017ADE
:101A970004793112620A7F537E007D007C00125E5A
:101AA700F7021BD97BFF7A27798712620A7F537E59
:101AB700007D007C00125EF790052F74FFF0A37481
:101AC70027F0A374ABF0A374FFF0A37427F0A374FB
:101AD700D1021BC67BFF7A27798712620A7F537E62
:101AE700007D007C00125EF790052F74FFF0A37451
:101AF70027F0A374ABF0A374FFF0A37427F0A374CB
:101B0700DA021BC67BFF7A27798712620A7F537E28
:101B1700007D007C00125EF790052F74FFF0A37420
:101B270027F0A374ABF0A374FFF0A37427F0A3749A
:101B3700E5021BC67BFF7A27798712620A7F537EED
:101B4700007D007C00125EF790052F74FFF0A374F0
:101B570027F0A374ABF0A374FFF0A37427F0A3746A
:101B6700F2805C7BFF7A27798712620A7F537E00B7
:101B77007D007C00125EF790052F74FFF0A3742799
:101B8700F0A374ABF0A374FFF0A37428F0A374035D
:101B9700802D7BFF7A27798712620A7F537E007D2B
:101BA700007C00125EF790052F74FFF0A37427F0F6
:101BB700A374ABF0A374FFF0A37428F0A37410F020
:101BC7007B017A047931123EBC7B017A04793112A8
:021BD700620AA0
:101BD90090026CE0FEA3E0FF64084E7003021CF95A
:101BE900900016E0FCA3E08CF01231F91CDBDFFF5A
:101BF9001CCBEFFF1CBBF7FF1CABFBFF1C9BFDFFC6
:101C09001C8BFEFF1C7BFF7F1C70FFBF1C5FFFDF6F
:101C19001CEBFFEE1C4EFFEF1C29FFF700001CF91F
:101C2900EF64024E600F90026CE07004A3E064035D
:101C39006003021CF9E490026CF0A3F090038EF0AB
:101C4900A3F0021CF990027174FFF0A37428F0A3A9
:101C59007419F0021CF990027174FFF0A37428F052
:101C6900A3741EF0021CF990026CE4F0A37408F04E
:101C7900807E90027174FFF0A37428F0A37423F09E
:101C8900806E90027174FFF0A37428F0A37428F099
:101C9900805E90027174FFF0A37428F0A3742DF094
:101CA900804E90027174FFF0A37428F0A37432F08F
:101CB900803E90027174FFF0A37428F0A37437F08A
:101CC900802E90027174FFF0A37428F0A3743CF085
:101CD900801E90027174FFF0A37428F0A37441F080
:101CE900800E90027174FFF0A37428F0A37446F07B
:101CF90090034BE07002A3E07003021DE590039A84
:101D0900E0FEA3E0FFC390034AE09FFF900349E090
:0E1D19009EFED3EF94F4EE94015003021E9749
:101D27007BFF7A27792612620AD390034CE0940F3F
:101D370090034BE0940090052F74FF4016F0A374B6
:101D470028F0A3744BF0A374FFF0A37428F0A374D6
:101D5700628014F0A37428F0A3744BF0A374FFF00F
:101D6700A37428F0A3746FF07B017A047931123ED3
:101D7700BC7B017A04793112620A900000E070029C
:101D8700A3E090052F600C74FFF0A37428F0A374F0
:101D97007C800A74FFF0A37428F0A37494F0900376
:101DA7004BE0FFA3E0900532CFF0A3EFF07B017A81
:101DB700047931123EBC7B017A04793112620A7BC5
:101DC700FF7A2879AD12620A900000E07002A3E062
:0B1DD70070047F0180027F009000007C
:101DE200021E92900271E0FBA3E0FAA3E0F9EA4935
:101DF2004B7003021E9790039AE0FEA3E0FF90034C
:101E020049E0FCA3E0FDC39FFFEC9EFED3EF94F4F8
:081E1200EE94015003021E973B
:101E1A0090039AECF0A3EDF07BFF7A2879B712626F
:101E2A000A900002E07002A3E090052F600C74FF94
:101E3A00F0A37428F0A374C2800A74FFF0A3742874
:101E4A00F0A374D9F0900271E0F9A3E0FAA3E0904C
:101E5A000532C9F0A3EAF0A3E9F07B017A047931EB
:101E6A00123EBC7B017A04793112620A7BFF7A281E
:101E7A0079AD12620A900002E07002A3E070047F5A
:0D1E8A000180027F00900002E4F0A3EFF061
:101E97009003A1E0FEA3E0FFEE60030222A5EF247A
:101EA700FE70030221AF1470030221E814700302CD
:101EB700220E240360030222A590026CE0FEA3E039
:101EC700FFEE60030222A5EF14700302207A14705C
:101ED700030220A91470030220F924FB70030221D6
:101EE70021240860030222A59003A3E0FEA3E0FFDC
:101EF700C390034AE09FFF900349E09EFED3EF940F
:101F0700F4EE940150030222A5E0FFA3E09003A39F
:101F1700CFF0A3EFF0900040E0FBA3E0FAA3E0F9D5
:101F27009000011231A390049CEBF0A3EAF0A3E91F
:101F3700F0123183122E50FF900496E5F0F0A3EFD4
:101F4700F090052F74FFF0A37427F0A37491F0901D
:101F57000496E0FFA3E0900532CFF0A3EFF07B01FA
:101F67007A0479A5123EBC900040E0FBA3E0FAA3F7
:101F7700E0F99000011231A3E92408F9E43AFA9054
:101F8700049CEBF0A3EAF0A3E9F0123183122E5080
:101F9700FF900498E5F0F0A3EFF090052F74FFF0A1
:101FA700A37427F0A37491F0900498E0FFA3E09046
:101FB7000532CFF0A3EFF07B017A0479AB123EBC78
:101FC7007BFF7A2679FB12620A90052F74FFF0A334
:101FD7007428F0A374EFF0A37401F0A37404F0A3C2
:101FE70074A5F07B017A047931123EBC7B017A0437
:101FF700793112620A7BFF7A27792612620A9005E5
:102007002F74FFF0A37429F0A37406F0A37401F0F2
:10201700A37404F0A374ABF07B017A047931123E08
:10202700BC7B017A04793112620A7BFF7A27793106
:1020370012620A90052F74FFF0A37429F0A3741D90
:10204700F0900358E0FCA3E0FDA3E0FEA3E0FF90BF
:1020570005321231057B017A047931123EBC7B01CE
:102067007A04793112620A7BFF7A27791B12620A96
:102077000222A5E4FFFE1260117BFF7A2979341250
:10208700620A900349E0FFA3E09003A3CFF0A3EF18
:10209700F090026DE004F0705690026CE004F002DC
:1020A70022A59003A3E0FEA3E0FFC390034AE09FAD
:1020B700FF900349E09EFED3EF94D0EE94075003C0
:1020C7000222A5E4FFFE1260117BFF7A29793F12F5
:1020D700620A900349E0FFA3E09003A3CFF0A3EFC8
:1020E700F090026DE004F0700690026CE004F002DC
:1020F70022A59003A3E0FEA3E0FFC390034AE09F5D
:10210700FF900349E09EFED3EF9488EE94135003AB
:102117000222A5E49003A30221A190039AE0FEA363
:10212700E0FF900349E0FCA3E0FDC39FFFEC9EFEA8
:09213700D3EF94F4EE9401403F53
:1021400090039AECF0A3EDF0E4FFFE126011900012
:1021500004E07002A3E07BFF60067A29794A8004DC
:102160007A29795512620A900004E07002A3E070A7
:0F217000047F0180027F00900004E4F0A3EFF0F1
:10217F00900016E0FEA3E08EF01231F922A5FFBF0A
:10218F00219BFFF722A5FFFF000021A6900271E41B
:10219F00F0A3F0A3F08001E490026CF0A3F080565E
:1021AF00E490042EF090042EE0FFC36480948540E9
:1021BF00030222A5EF3395E0FE749C2FF582740382
:1021CF003EF583E0FD749F2FF58274043EF583ED99
:1021DF00F090042EE004F080CC900016E0FEA3E017
:1021EF00FF64FB7002EEF4600CEF64FD7002EEF41E
:1021FF0060030222A5E490038EF0A3F00222A590C3
:10220F00041BE0FF702CA3E07028900044E0FBA3B8
:10221F00E0FAA3E0F990049CEBF0A3EAF0A3E9F055
:10222F00123183122E50FD900496E5F0F0A3EDF0DD
:10223F008035EF703290041CE0B4012B900044E025
:10224F00FBA3E0FAA3E02408F9E43AFA90049CEB2C
:10225F00F0A3EAF0A3E9F0123183122E50FF90049D
:10226F0098E5F0F0A3EFF0900385A3A3E0FEA3E0C1
:10227F00FF900498EEF0A3EFF090052F74FFF0A3FA
:10228F007427F0A37491F0A3EEF0A3EFF07B017A23
:10229F0004799F123EBC9003A1E0FEA3E0FF64020D
:0C22AF004E6009EF64044E60030224241A
:1022BB0078B17C047D017BFF7A2B79E97E007F640A
:1022CB00122D1D90039AE0FEA3E0FF900349E0FC62
:1022DB00A3E0FDC39FFFEC9EFED3EF94F4EE9401BD
:0522EB00500302242451
:1022F00090039AECF0A3EDF0900006E07002A3E0EA
:1023000060557B017A04799F126398D3900009E0AD
:102310009FEE6480F8900008E064809890052F7428
:10232000FF500AF0A37427F0A374948008F0A374FC
:1023300029F0A37460F0A37401F0A37404F0A374F3
:102340009FF07B017A0479B1123EBC7B017A04795B
:10235000B112620A02240C9003A1E07004A3E064AD
:1023600002700590038B8029E490042EF090042ED7
:10237000E0FF3395E0FE749F2FF58274043EF583F1
:10238000E0600890042EE004F080E290042EE01457
:10239000F0E0FF3395E0FE749F2FF58274043EF564
:1023A00083E0900515F0749F2FF58274043EF58349
:1023B000745FF090052F74FFF0A37429F0A374608C
:1023C000F0A37401F0A37404F0A3749FF07B017A6E
:1023D0000479B1123EBC7B017A0479B112620A9091
:1023E00003A1E07004A3E064029005157007E0FF0C
:1023F00090038B8005E0FF90042EE0FD3395E0FC18
:10240000749F2DF58274043CF583EFF0900006E094
:102410007002A3E070047F0180027F00900006E458
:04242000F0A3EFF046
:1024240090001CE0701304F0900349E0FFA3E090D7
:10243400000CCFF0A3EFF0803B90000CE0FEA3E093
:10244400FFC390034AE09FFF900349E09EFED3EF51
:102454009464EE9400401D900010E07002A3E070BC
:10246400047F0180027F00900010E4F0A3EFF0E409
:1024740090001CF0900037E024F6603124F660747C
:1024840024F67003022530241D60030225579003AF
:1024940049E0FFA3E0900038CFF0A3EFF090000AEA
:1024A400E04402F0900037740AF00225579003B517
:1024B400E070067E017FF480047E007F3290003855
:1024C400E0FCA3E0FDC390034AE09DFD900349E0D6
:1024D4009CFCD3ED9FEC9E407AE0FFA3E090003893
:1024E400CFF0A3EFF090000AE054FDF090003774B1
:1024F40014F0805F9003B5E07E077FD0900038E051
:10250400FCA3E0FDC390034AE09DFD900349E09CD9
:10251400FCD3ED9FEC9E403BE0FFA3E0900038CF5E
:10252400F0A3EFF0900037741EF0802790034BE087
:102534007002A3E0701790034DE05480FF3395E0E0
:102544004F700AA3E07006900037F08006900037C1
:0E2554007401F090000AE06003D2A522C2A537
:012562002256
:1044C000E0FEA3E0FFE4FCFD900012123105900530
:1044D0001A7405F0E4A3F07B01A304F0A37403F0C5
:1044E000A374A5F0E4A3F0A37402F07A0079127D1E
:0144F00004C7
:0544F100900519EDF03B
:1044F6006008E0D36480948440037F00229005190D
:10450600E014F0E4900528F0900521123111000026
:104516000000900519E0B40319900528E060081220
:10452600307712301C800312307790052112310546
:10453600804D900519E0FFB40129900528E060142C
:10454600122E50FDC3E49DFCE495F0900521F0A3E6
:10455600CCF0802B122E50FD900521E5F0F0A3ED56
:10456600F0801CEF7016900528E06007122D43F4CA
:10457600048003122D43900521F080037F002290D2
:104586000520E024FE601B14602024FB601424F840
:10459600601024D0600C243F70169005277402F03A
:1045A600800E900527740AF080069005277410F097
:1045B60090051AE0FFA3E02FFFC374039F90052523
:1045C600F0A3EFF0C3648094835013E0FFC3740339
:1045D6009FFF90051AE02FF09005267403F09005D2
:1045E6001AE0FF900526E0B5070690051FE0606318
:1045F600900527E0FB3395E0FAF9F8900521E0FCF9
:10460600A3E0FDA3E0FEA3E0FF1261C6EB2430FFAA
:1046160090051CE0FBA3E0FAA3E0F9900526E0FD77
:104626003395E08D82F583EF122D9B900521E0FCFA
:10463600A3E0FDA3E0FEA3E0FFC007900527E0FB93
:104646003395E0FAF9F8D0071261C69005211231C8
:1046560005803B90051BE06019A3E0FBA3E0FAA3ED
:10466600E0F9900526E0FF3395E08F82F583742EFE
:10467600801990051CE0FBA3E0FAA3E0F99005265B
:10468600E0FF3395E08F82F5837420122D9B900511
:1046960026E0FF14F0D3EF6480948040030245E4E3
:1046A60090051FE0602D900528E06024900525E028
:1046B600FFC364809483501890051CE0FBA3E0FAC6
:1046C600A3E0F9EF3395E08F82F583742D122D9BCD
:1046D6007F0022E4900526F0900525F090051CE069
:1046E600FBA3E0FAA3E0F9900526E0FFFD3395E091
:1046F6008D82F583122D5C64307041EF3395E0FEB8
:10470600EF2401FFE43EFE90051AE0FD3395E0FC40
:10471600C3EF9DEC6480F8EE648098501F900526E8
:10472600E0FF3395E08F82F5837420122D9B900570
:1047360025E004F0900526E004F080A0900528E02E
:10474600601E90051CE0FBA3E0FAA3E0F9900525A6
:10475600E014FFF03395E08F82F583742D122D9BC4
:1047660090051AE0FFA3E02FFF900525E0FEC3EFBA
:104776009EA3F0C364809483500EE0FFC374039F2E
:0D478600FFC3EE9F900525F0900525E0FF94
:014793002203
:0D55BE00900516EBF0A3EAF0A3E9F0AB05B1
:1055CB0090051AE024FE600F1460142402701690EC
:1055DB0005247402F0800E900524740AF080069066
:1055EB0005247410F090051B12311100000000907F
:1055FB00051F12311100000001900523EBF09005FF
:10560B0023E0D36480948050030256D4E014F090CE
:10561B000516E0FBA3E0FAA3E0F9900523E0FF33C6
:10562B0095E08F82F583122D5CFFC3648094B040AC
:10563B00CDD3EF648094BF50C590051BE0F8A3E079
:10564B00F9A3E0FAA3E0FBC000C001C002C00390C5
:10565B000516E0FBA3E0FAA3E0F9900523E0FF3386
:10566B0095E08F82F583122D5CFF3395E0FEEF24DE
:10567B00D0FFEE34FFFEE4FCFD90051FE0F8A3E045
:10568B00F9A3E0FAA3E0FB122EFFD003D002D00166
:10569B00D000EB2FFFEA3EFEE93DFDE83CFC900518
:1056AB001B12310590051FE0F8A3E0F9A3E0FAA364
:1056BB00E0FB900524E0FF3395E0FEFDFC122EFF8E
:1056CB0090051F123105025609900516E0FBA3E069
:1056DB00FAA3E0F9122D43642D6013900001122DF3
:1056EB005C642D6009900002122D5CB42D119005A5
:1056FB001BE0FCA3E0FDA3E0FEA3E0FF02301C9047
:0D570B00051BE0FCA3E0FDA3E0FEA3E0FF12
:01571800226E
:10583F00EF24F6B41400400302593290585875F013
:10584F0003A4C58325F0C5837302589402589702A9
:10585F0058A00258A90258B20258BA0258C20258A8
:10586F00CA0258D20258DA0258E20258EA0258F233
:10587F000258FA02590202590A02591202591A021F
:10588F00592202592A0259327BFF7A297984025907
:10589F00387BFF7A29798F0259387BFF7A29799AD9
:1058AF000259387BFF7A2979A5807E7BFF7A297987
:1058BF00B080767BFF7A2979BB806E7BFF7A29795E
:1058CF00C680667BFF7A2979D1805E7BFF7A297942
:1058DF00DC80567BFF7A2979E7804E7BFF7A297926
:1058EF00F280467BFF7A2979FD803E7BFF7A2A7909
:1058FF000880367BFF7A2A7913802E7BFF7A2A79EC
:10590F001E80267BFF7A2A7929801E7BFF7A2A79CF
:10591F003480167BFF7A2A793F800E7BFF7A2A79B3
:10592F004A80067BFF7A29797912620A7F107E27D7
:07593F007D007C00025EF711
:03600E00E4FFFEAE
:08601100900516EEF0A3EFF07C
:106019007FE87E037D007C00125EF790052F74FFF8
:10602900F0A3742AF0A37455F0900516E0FFA3E0DD
:10603900900532CFF0A3EFF07B017A057918123E73
:10604900BC7B017A05791812620A7FE87E037D001C
:056059007C00025EF76F
:0C63EC00900655EBF0A3EAF0A3E9F022C4
:0D63DF00E4F5C7F5C5F5C675C380F5C42209
:10002600C2AF75C78375C5018FC4EEF5C375C65AD1
:0C00360075C6A50000AFC21263DFD2AF98
:01004200229B
:105FB5009005B8E0FB7A0064AA704DC2AFEB64AA05
:105FC500700375C783EB64AA4A700375C502EB6459
:105FD500AA4A70028FC49005B8E064AA7003EEF572
:105FE500C39005B8E0FF7E0064AA70028DC2EF641D
:105FF500AA4E700375C65A9005B8E064AA70037579
:09600500C6A5001263DFD2AF2230
:10605E009005B8E0FD7C0064AA7043C2AFED64AA5F
:10606E00700375C783ED64AA4C700375C503ED64A8
:10607E00AA4C70028FC49005B8E064AA7003EEF5C6
:10608E00C39005B8E0FF7E0064AA700375C65AEF90
:0F609E0064AA4E700375C6A5001263DFD2AF224D
:105719009004607444F0A3E4F0FBFA90037BE0FC8E
:10572900A3E0FDA3E0FEA3E024FFFFEE34FFFEEDBE
:1057390034FFFDEC34FFFC900462123105900462E1
:10574900E0FCA3E0FDA3E0FEA3E0FF7807123051DF
:105759007C007D05122DCFAA04AB05900462A3A39A
:10576900A3E0547FFFE4FDFCEF701C9005B874AA18
:10577900F0AF03EF25E0FEE42400FFEE3444FE120F
:10578900605EE49005B8F0900462E0FCA3E0FDA33C
:10579900E0FEA3E0FF7802123064A3123105900401
:1057A90066E0FCA3E0FDA3E0FEA3E0FFE4FB7A0AC8
:1057B900F9F8122F8AAC00AD01AE02AF039004666E
:1057C900123105900466A3A3E0FEA3E0FF900461F3
:1057D900E02FF0900460E03EF090045C7401F0A3C7
:1057E9007403F0A3747BF09005B874AAF0E49004F4
:1057F9005FF0900460E0FEA3E0FF90045CE0FBA38F
:10580900E0FAA3E0F9122D43FD125FB590045DE4BF
:1058190075F001122E24900461E004F070069004E2
:1058290060E004F090045FE004F0E0C3940440C237
:05583900E49005B8F049
:01583E002247
:104794009004307444F0A3E4F090043E123111000C
:1047A40000000090044212311100002710E490042C
:1047B4005AF0A3F090045AE0FEA3E0FFC39480EE05
:1047C400940240030249A5EF7802C333CE33CED816
:1047D400F92400FFEE3444900430F0A3EFF0900489
:1047E4002C7401F0A37404F0A37432F0900430E04C
:1047F400FEA3E0FF12002690042CE0FBA3E0FAA342
:10480400E0F9EF122D8990042DE475F001122E24A5
:10481400900431E02401FF900430E03400FE1200E3
:104824002690042CE0FBA3E0FAA3E0F9EF122D8913
:1048340090042DE475F001122E24900431E024023A
:10484400FF900430E03400FE12002690042CE0FBBC
:10485400A3E0FAA3E0F9EF122D8990042DE475F09A
:1048640001122E24900431E02403FF900430E0343C
:1048740000FE12002690042CE0FBA3E0FAA3E0F96A
:10488400EF122D8990044AE0FCA3E0FDA3E0FEA30F
:10489400E0FF900446123105900432E0FCA3E0FDF1
:1048A400A3E0FEA3E0FF90044A12310590045AE00D
:1048B400B40219A3E0B47F14900432E0FCA3E0FD39
:1048C400A3E0FEA3E0FF90044E12310574FFFFFE47
:1048D400FD7C7F900432E0F8A3E0F9A3E0FAA3E0C2
:1048E400FBD3123040400302498290043EE0FCA313
:1048F400E0FDA3E0FEA3E0FF900432E0F8A3A3A34D
:10490400E01230404078900446E0FCA3E0FDA3E0D0
:10491400FEA3E0FF90045212310590044AE0FCA388
:10492400E0FDA3E0FEA3E0FF9004561231059004DD
:1049340032E0FCA3E0FDA3E0FEA3E0FF90043E12FE
:10494400310590045AE0FEA3E0FFE4FCFD9004422C
:10495400123105E4FFFEFDFC900442E0F8A3E0F907
:10496400A3E0FAA3E0FBC3123040701290044EE0BF
:10497400FCA3E0FDA3E0FEA3E0FFA3123105900435
:1049840032E0FCA3E0FDA3E0FEA3E0FFA3123105A7
:1049940090045BE004F0700690045AE004F00247CF
:1049A400B8E4900371F07F107E27FDFC900442E090
:1049B400F8A3E0F9A3E0FAA3E0FBC312304060508F
:1049C400900452E0F8A3E0F9A3E0FAA3E0FBA3E02B
:1049D400FCA3E0FDA3E0FEA3E0C39BFFEE9AFEED83
:1049E40099FDEC98FCE47B01FAF9F8C312304070AD
:1049F4001490043EE0FCA3E0FDA3E0FEA3E0FF90DE
:104A0400037B02310590037B123111000000002268
:0D4A140090037B12311100000000125719B1
:014A21002272
:1059460090042F7426F0A3E4F07B0190042C04F05D
:10595600A37403F0A3747FF07F007E2612002690C6
:10596600042CE0FBA3E0FAA3E0F9EF122D899004E2
:105976002DE475F001122E24900430E02401FF90EE
:10598600042FE03400FE12002690042CE0FBA3E076
:10599600FAA3E0F9EF122D8990042DE475F00112B7
:1059A6002E24900430E02402FF90042FE03400FE01
:1059B60012002690042CE0FBA3E0FAA3E0F9EF1214
:1059C6002D8990042DE475F001122E24900430E008
:1059D6002403FF90042FE03400FE12002690042CCE
:1059E600E0FBA3E0FAA3E0F9EF122D8990037FE034
:1059F600F8A3E0F9A3E0FAA3E0FB90037BE0FCA3A5
:105A0600E0FDA3E0FEA3E0C39BFFEE9AFEED99FD49
:105A1600EC98FC7B9F7A8679017800C3123040505F
:105A26001590037BE0FCA3E0FDA3E0FEA3E0FFA34B
:065A3600123105125BEBCA
:015A3C002247
:105BEB0090051A7426F0A3E4F0900524F0A3F0902E
:105BFB0005B874AAF07F007E2612605EE49005B8AB
:105C0B00F090037BE0FCA3E0FDA3E0FEA3E0FFA389
:105C1B001231059005167401F0A37403F0A3747F81
:105C2B00F09005B874AAF0E4900519F090051AE00D
:105C3B00FEA3E0FF900516E0FBA3E0FAA3E0F91248
:105C4B002D43FD125FB5900517E475F001122E245C
:105C5B0090051BE004F0700690051AE004F0900527
:0F5C6B0019E004F0E0C3940440C2E49005B8F0DF
:015C7A002207
:10542A004306380105D443064501063B4105D00130
:08543A004105D1004105D2003B
:10633D00759850758E40E4F589758BE0758DFED29C
:08634D008ED2ACD2AFD2BC220B
:10000E00438E04759A5075D7E075D6FE438E104315
:05001E00AF01D2AF228A
:030023000260ADCB
:1060AD00C0E0C083C082C0D075D00830982BC29894
:1060BD00900360E0FF04F074D42FF582E43405F50D
:1060CD0083E599F090035F7401F0900349E0FFA31D
:1060DD00E090035CCFF0A3EFF0309904C299C209B0
:0960ED00D0D0D082D083D0E03283
:0300430002635500
:10635500C0E0E59A30E003539AFEE59A30E1055333
:076365009AFDC20AD0E032EC
:1062A90090035FE0B4012490035CE0FEA3E0FFC328
:1062B90090034AE09FFF900349E09EFED3EF940AC2
:0C62C900EE9400400690035F7402F02287
:0963F8002009FDEFD209F59922FC
:085E7D00A3F07B017A0379B662
:0B5E850090042FEBF0A3EAF0A3E9F07B
:105E9000E4A3F0FDFC90042FE0FBA3E0FAA3E0F9FB
:105EA000900001122D5CFF3395E0FEEF2402FFE429
:105EB0003EFEC3ED9FEE6480F8EC64809850188D30
:105EC000828C83122D5CFF900432E02FF01263F875
:105ED0000DBD00010C80BE900432E0FF1263F8900B
:0A5EE00005D0E004F0E0700204F0C9
:015EEA002295
:10620A0090052CEBF0A3EAF0A3E9F090052CE0FB53
:10621A00A3E0FAA3E0F9122D43FF60201264019073
:10622A00052CE0FBA3E0FAA3E0F9E4122D8990051E
:0D623A002D75F001122E24300AD180FB22B8
:09640100200AFDEFD20AF59B22EE
:10373F0090042CE4F0A3F0A3F09005D4E0FF9004E4
:10374F002B7401F0900360E0FE14FD90042BE0FC5D
:10375F00C3ED6480F8EC648098501BECFD3395E06A
:10376F00FC74D42DF58274053CF583E02FFF900493
:10377F002BE004F080CE74D32EF582E43405F5836C
:10378F00E06F600B90034BE4F0A3741E023AC690F7
:10379F0005D4E024F6B40B004003023ACD9037BABB
:1037AF0075F003A4C58325F0C583730237DB023898
:1037BF002D023A08023AB5023AB5023AB7023AB5C3
:1037CF00023AB5023AB5023AB5023ABE90042C74E9
:1037DF0001F0A37403F0A37409F0E490042BF090AC
:1037EF00042BE0FFFD3395E0FC74D72DF5827405B3
:1037FF003CF583E0FE90042CE0FBA3E0FAA3E0F994
:10380F00EF3395E08D82F583EE122D9B90042BE024
:10381F0004F0E0B440C99005C07401023AC6E490C8
:10382F00042BF090042BE0FFC364809487505AEF71
:10383F003395E0FEEF25E0FFEE33FE74F52FF582B2
:10384F0074023EF583E0FEA3E0FFD39400EE6480A4
:10385F009480402DEE3395E0FDFCE47B107A27F940
:10386F00F8122EFF90037BE0F8A3E0F9A3E0FAA390
:10387F00E0FBD3123040400990042BE00490037119
:10388F00F090042BE004F0809A900301E07002A303
:10389F00E07004900371F09005D7E0FE9005D6E03C
:1038AF00FDEDFF900352EEF0A3EFF09005D9E0FE8F
:1038BF009005D8E0FDEDFF900350EEF0A3EFF090F0
:1038CF0005DBE0FE9005DAE0FDEDFF90034BEEF037
:1038DF00A3EFF09005DDE0FFE4FCFDFE7808123069
:1038EF0064A804A905AA06AB079005DCE0FFEB4F1F
:1038FF00FFEAFEE9FDE8FCC004C005C006C0079062
:10390F0005DFE0FFE4FCFDFE7818123064D003D031
:10391F0002D001D000EF4BFFEE4AFEED49FDEC481F
:10392F00FCC004C005C006C0079005DEE0FFE4FC44
:10393F00FDFE7810123064D003D002D001D000EF1A
:10394F004BFFEE4AFEED49FDEC48FC90042F12317F
:10395F0005900354E0FCA3E0FDA3E0FEA3E0FF907D
:10396F00042FE0F8A3E0F9A3E0FAA3E0FBC31230C1
:10397F00407003023AC790042FE0FCA3E0FDA3E0E0
:10398F00FEA3E0FF90035412310590037BE0FCA3EC
:10399F00E0FDA3E0FEA3E02401FFE43EFEE43DFDD5
:1039AF00E43CFC90037B12310590037FE0F8A3E029
:1039BF00F9A3E0FAA3E0FB90037BE0FCA3E0FDA3F7
:1039CF00E0FEA3E0C39BFFEE9AFEED99FDEC98FCA1
:1039DF007B9F7A8679017800C3123040501590038F
:1039EF007BE0FCA3E0FDA3E0FEA3E0FFA312310503
:1039FF00125BEB125719023AC7E490042BF09005B3
:103A0F00D5E01313543FFF90042BE0FEC3EF648007
:103A1F00F8EE6480984003023AAEE0FD25E025E021
:103A2F00FC24D6F582E43405F583E0FE74D72CF53B
:103A3F0082E43405F583E0FBEBFFC007C006EDFF22
:103A4F003395E0FEEF7803C333CE33CED8F9FF9032
:103A5F002A61E493FB740193FA7402932FF9EA3EFF
:103A6F00FA900005D0E0D0F0122ED290042BE02572
:103A7F00E025E0FD24D8F582E43405F583E0FE74FB
:103A8F00D92DF582E43405F583E0FDEDFF900003B9
:103A9F00EE8FF0122ED290042BE004F0023A0D902C
:103AAF0005BC7401801180109005C17401800890CD
:0E3ABF00034BE4F0A37428F09005B9747FF077
:013ACD0022D6
:1033170090042BE4F0A3F0A3F09005BAE0FEA3E03D
:10332700FFC390034AE09FFF900349E09EFED3EF5F
:1033370094E8EE9403401F900584E0700A9005B965
:10334700E0B47F037401F0900349E0FFA3E0900528
:10335700BACFF0A3EFF0900352E07002A3E070033E
:103367000234539005C0E060030234539005B9E07E
:10337700647F60030234539002B7E064557004A37E
:10338700E064AA70030234439002757401F0A374D9
:1033970036F0A37401F0A3742CF090027BE4F0A341
:1033A7007402F0A3E4F0A3740FF0A3E4F0A3740F86
:1033B700F0E4A3F0A3F0A3F0A3F0A304F0A37440F8
:1033C700F0A3E4F0A37459F0A37401F0A37490F090
:1033D700A3E4F0A37414F0A3E4F0A37454F0A3E4FB
:1033E700F0A37402F0A3E4F0A37478F0A3E4F0A3CD
:1033F700740AF0A3E4F0A304F0A3E4F0A37449F083
:10340700A3E4F0A37450F0A3E4F0A304F0A3E4F062
:10341700A304F0A3E4F0A304F0A3E4F0A304F0A34F
:10342700E4F0A304F09002B77455F0A374AAF0E493
:10343700FFFE1250A87F017E001250A890058474E9
:1034470001F09005C0F09005B9747FF09005C0E0D9
:10345700B401109005BCE0700A9005B9E0B47F0391
:103467007402F0900584E0600A9005B9E0B47F0328
:103477007403F0900588E0600A9005B9E0B47F0313
:103487007407F0900565E0600A9005B9E0B47F0322
:103497007409F09005BFE0600A9005B9E0B47F03B6
:1034A7007404F0900587E0600A9005B9E0B47F03E3
:1034B7007408F09005B7E0600A9005B9E0B47F039F
:1034C7007405F09005BEE0600A9005B9E0B47F038B
:1034D7007406F09005B9E0B40A00400302373E9045
:1034E70034EDF828287302350B02353302355902BB
:1034F70035800236020236C20236F0023634023610
:10350700620236947E007F647D007B017A0379B680
:10351700123226E49003B6F0A304F0E4A3F0A30468
:10352700F0FB125E819005B97432F0227E007F6451
:103537007D007B017A0379B61232269003B67401B7
:10354700F0A3F0E4A3F07402125E7D9005B9743322
:10355700F0227E007F647D007B017A0379B6123208
:10356700269003B67402F0A314F0E4A3F0740412D7
:103577005E7D9005B97434F0227E007F647D007B08
:10358700017A0379B61232269003B67403F0A37456
:1035970040F090042B7401F0A37403F0A37409F0B6
:1035A7009003B6E0244090042EF0E4FFFE90042B35
:1035B700E0FBA3E0FAA3E0F98F828E83122D5CFD76
:1035C70074B82FF58274033EF583EDF08F828E83F6
:1035D700122D5CFD90042EE02DF00FBF00010EEFC1
:1035E70064404E70C890042EE09003F8125E7E90FF
:1035F70005B97435F0E4900584F0227E007F647D80
:10360700007B017A0379B61232269003B67404F070
:10361700A37401F0900390E09003B8F02405125EC4
:103627007D9005B97436F0E49005BFF0227E007FE7
:10363700647D007B017A0379B61232269003B67453
:1036470007F0A37401F0E4A3F0A37408125E7E9060
:1036570005B97439F0E4900588F0227E007F647D17
:10366700007B017A0379B61232269003B67408F00C
:10367700A37401F090026EE09003B8F02409125E83
:103687007D9005B9743AF0E4900587F0227E007FBB
:10369700647D007B017A0379B61232269003B674F3
:1036A70009F0A37401F0E4A3F0A3740A125E7E90FC
:1036B70005B9743BF0E4900565F0227E007F647DD8
:1036C700007B017A0379B61232269003B67405F0AF
:1036D700A37401F0E4A3F0A37406125E7E9005B90B
:1036E7007437F0E49005B7F0227E007F647D007B9D
:1036F700017A0379B61232269003B67406F0A374E2
:1037070003F0900389E0FEA3E09003B8F0EEFFA377
:10371700EFF090026BE0FF9003BAF09003B8E0245B
:1037270009FEA3E02E2F9003BB125E7E9005B974AD
:0737370038F0E49005BEF03C
:01373E002268
:105C8700025D07E493A3F8E493A34003F68001F2CF
:105C970008DFF48029E493A3F85407240CC8C3331E
:105CA700C4540F4420C8834004F456800146F6DFED
:105CB700E4800B010204081020408090528CE47E9F
:105CC700019360BCA3FF543F30E509541FFEE493E2
:105CD700A360010ECF54C025E060A840B8E493A3A9
:105CE700FAE493A3F8E493A3C8C582C8CAC583CAD4
:105CF700F0A3C8C582C8CAC583CADFE9DEE780BE8C
:015442000069
:102C4D00E709F608DFFA8046E709F208DFFA803E69
:102C5D0088828C83E709F0A3DFFA8032E309F60856
:102C6D00DFFA8078E309F208DFFA807088828C83BE
:102C7D00E309F0A3DFFA806489828A83E0A3F60872
:102C8D00DFFA805889828A83E0A3F208DFFA804C4C
:102C9D0080D280FA80C680D4806980F28033801023
:102CAD0080A680EA809A80A880DA80E280CA80338C
